{"abi":[{"inputs":[],"name":"createKyc","outputs":[],"stateMutability":"nonpayable","type":"function"},{"inputs":[{"internalType":"uint256","name":"","type":"uint256"}],"name":"deployedKycs","outputs":[{"internalType":"contract Userdef","name":"","type":"address"}],"stateMutability":"view","type":"function"},{"inputs":[],"name":"getDeployedKycs","outputs":[{"internalType":"contract Userdef[]","name":"","type":"address[]"}],"stateMutability":"view","type":"function"},{"inputs":[],"name":"getparticularUser","outputs":[{"internalType":"contract Userdef","name":"","type":"address"}],"stateMutability":"view","type":"function"},{"inputs":[{"internalType":"address","name":"ooh","type":"address"}],"name":"login","outputs":[{"internalType":"contract Userdef","name":"","type":"address"}],"stateMutability":"view","type":"function"}],"devdoc":{"kind":"dev","methods":{},"version":1},"evm":{"assembly":"    /* \"KYC.sol\":72:1027  contract KycFactory{... */\n  mstore(0x40, 0x80)\n  callvalue\n  dup1\n  iszero\n  tag_1\n  jumpi\n  0x00\n  dup1\n  revert\ntag_1:\n  pop\n  dataSize(sub_0)\n  dup1\n  dataOffset(sub_0)\n  0x00\n  codecopy\n  0x00\n  return\nstop\n\nsub_0: assembly {\n        /* \"KYC.sol\":72:1027  contract KycFactory{... */\n      mstore(0x40, 0x80)\n      callvalue\n      dup1\n      iszero\n      tag_1\n      jumpi\n      0x00\n      dup1\n      revert\n    tag_1:\n      pop\n      jumpi(tag_2, lt(calldatasize, 0x04))\n      shr(0xe0, calldataload(0x00))\n      dup1\n      0x35a6861a\n      eq\n      tag_3\n      jumpi\n      dup1\n      0x7e3c01d7\n      eq\n      tag_4\n      jumpi\n      dup1\n      0x826c4ae6\n      eq\n      tag_5\n      jumpi\n      dup1\n      0x8379ec2f\n      eq\n      tag_6\n      jumpi\n      dup1\n      0xbdb37313\n      eq\n      tag_7\n      jumpi\n    tag_2:\n      0x00\n      dup1\n      revert\n        /* \"KYC.sol\":608:779  function login(address ooh) public view returns(Userdef){... */\n    tag_3:\n      tag_8\n      0x04\n      dup1\n      calldatasize\n      sub\n      dup2\n      add\n      swap1\n      tag_9\n      swap2\n      swap1\n      tag_10\n      jump\t// in\n    tag_9:\n      tag_11\n      jump\t// in\n    tag_8:\n      mload(0x40)\n      tag_12\n      swap2\n      swap1\n      tag_13\n      jump\t// in\n    tag_12:\n      mload(0x40)\n      dup1\n      swap2\n      sub\n      swap1\n      return\n        /* \"KYC.sol\":208:237  Userdef[] public deployedKycs */\n    tag_4:\n      tag_14\n      0x04\n      dup1\n      calldatasize\n      sub\n      dup2\n      add\n      swap1\n      tag_15\n      swap2\n      swap1\n      tag_16\n      jump\t// in\n    tag_15:\n      tag_17\n      jump\t// in\n    tag_14:\n      mload(0x40)\n      tag_18\n      swap2\n      swap1\n      tag_13\n      jump\t// in\n    tag_18:\n      mload(0x40)\n      dup1\n      swap2\n      sub\n      swap1\n      return\n        /* \"KYC.sol\":301:600  function createKyc() public{... */\n    tag_5:\n      tag_19\n      tag_20\n      jump\t// in\n    tag_19:\n      stop\n        /* \"KYC.sol\":787:890  function getDeployedKycs() public view returns(Userdef[] memory) {... */\n    tag_6:\n      tag_21\n      tag_22\n      jump\t// in\n    tag_21:\n      mload(0x40)\n      tag_23\n      swap2\n      swap1\n      tag_24\n      jump\t// in\n    tag_23:\n      mload(0x40)\n      dup1\n      swap2\n      sub\n      swap1\n      return\n        /* \"KYC.sol\":898:1022  function getparticularUser() public view returns(Userdef){... */\n    tag_7:\n      tag_25\n      tag_26\n      jump\t// in\n    tag_25:\n      mload(0x40)\n      tag_27\n      swap2\n      swap1\n      tag_13\n      jump\t// in\n    tag_27:\n      mload(0x40)\n      dup1\n      swap2\n      sub\n      swap1\n      return\n        /* \"KYC.sol\":608:779  function login(address ooh) public view returns(Userdef){... */\n    tag_11:\n        /* \"KYC.sol\":656:663  Userdef */\n      0x00\n        /* \"KYC.sol\":683:700  particularUserKyc */\n      0x01\n        /* \"KYC.sol\":683:705  particularUserKyc[ooh] */\n      0x00\n        /* \"KYC.sol\":701:704  ooh */\n      dup4\n        /* \"KYC.sol\":683:705  particularUserKyc[ooh] */\n      0xffffffffffffffffffffffffffffffffffffffff\n      and\n      0xffffffffffffffffffffffffffffffffffffffff\n      and\n      dup2\n      mstore\n      0x20\n      add\n      swap1\n      dup2\n      mstore\n      0x20\n      add\n      0x00\n      keccak256\n        /* \"KYC.sol\":683:718  particularUserKyc[ooh].isRegistered */\n      0x00\n      add\n      0x14\n      swap1\n      sload\n      swap1\n      0x0100\n      exp\n      swap1\n      div\n      0xff\n      and\n        /* \"KYC.sol\":675:719  require(particularUserKyc[ooh].isRegistered) */\n      tag_29\n      jumpi\n      0x00\n      dup1\n      revert\n    tag_29:\n        /* \"KYC.sol\":737:754  particularUserKyc */\n      0x01\n        /* \"KYC.sol\":737:759  particularUserKyc[ooh] */\n      0x00\n        /* \"KYC.sol\":755:758  ooh */\n      dup4\n        /* \"KYC.sol\":737:759  particularUserKyc[ooh] */\n      0xffffffffffffffffffffffffffffffffffffffff\n      and\n      0xffffffffffffffffffffffffffffffffffffffff\n      and\n      dup2\n      mstore\n      0x20\n      add\n      swap1\n      dup2\n      mstore\n      0x20\n      add\n      0x00\n      keccak256\n        /* \"KYC.sol\":737:771  particularUserKyc[ooh].kycContract */\n      0x00\n      add\n      0x00\n      swap1\n      sload\n      swap1\n      0x0100\n      exp\n      swap1\n      div\n      0xffffffffffffffffffffffffffffffffffffffff\n      and\n        /* \"KYC.sol\":730:771  return particularUserKyc[ooh].kycContract */\n      swap1\n      pop\n        /* \"KYC.sol\":608:779  function login(address ooh) public view returns(Userdef){... */\n      swap2\n      swap1\n      pop\n      jump\t// out\n        /* \"KYC.sol\":208:237  Userdef[] public deployedKycs */\n    tag_17:\n      0x00\n      dup2\n      dup2\n      sload\n      dup2\n      lt\n      tag_30\n      jumpi\n      0x00\n      dup1\n      revert\n    tag_30:\n      swap1\n      0x00\n      mstore\n      keccak256(0x00, 0x20)\n      add\n      0x00\n      swap2\n      pop\n      sload\n      swap1\n      0x0100\n      exp\n      swap1\n      div\n      0xffffffffffffffffffffffffffffffffffffffff\n      and\n      dup2\n      jump\t// out\n        /* \"KYC.sol\":301:600  function createKyc() public{... */\n    tag_20:\n        /* \"KYC.sol\":339:353  Userdef newKyc */\n      0x00\n        /* \"KYC.sol\":368:378  msg.sender */\n      caller\n        /* \"KYC.sol\":356:379  new Userdef(msg.sender) */\n      mload(0x40)\n      tag_33\n      swap1\n      tag_34\n      jump\t// in\n    tag_33:\n      tag_35\n      swap2\n      swap1\n      tag_36\n      jump\t// in\n    tag_35:\n      mload(0x40)\n      dup1\n      swap2\n      sub\n      swap1\n      0x00\n      create\n      dup1\n      iszero\n      dup1\n      iszero\n      tag_37\n      jumpi\n      returndatasize\n      0x00\n      dup1\n      returndatacopy\n      revert(0x00, returndatasize)\n    tag_37:\n      pop\n        /* \"KYC.sol\":339:379  Userdef newKyc = new Userdef(msg.sender) */\n      swap1\n      pop\n        /* \"KYC.sol\":434:440  newKyc */\n      dup1\n        /* \"KYC.sol\":390:407  particularUserKyc */\n      0x01\n        /* \"KYC.sol\":390:419  particularUserKyc[msg.sender] */\n      0x00\n        /* \"KYC.sol\":408:418  msg.sender */\n      caller\n        /* \"KYC.sol\":390:419  particularUserKyc[msg.sender] */\n      0xffffffffffffffffffffffffffffffffffffffff\n      and\n      0xffffffffffffffffffffffffffffffffffffffff\n      and\n      dup2\n      mstore\n      0x20\n      add\n      swap1\n      dup2\n      mstore\n      0x20\n      add\n      0x00\n      keccak256\n        /* \"KYC.sol\":390:431  particularUserKyc[msg.sender].kycContract */\n      0x00\n      add\n      0x00\n        /* \"KYC.sol\":390:440  particularUserKyc[msg.sender].kycContract = newKyc */\n      0x0100\n      exp\n      dup2\n      sload\n      dup2\n      0xffffffffffffffffffffffffffffffffffffffff\n      mul\n      not\n      and\n      swap1\n      dup4\n      0xffffffffffffffffffffffffffffffffffffffff\n      and\n      mul\n      or\n      swap1\n      sstore\n      pop\n        /* \"KYC.sol\":496:500  true */\n      0x01\n        /* \"KYC.sol\":451:468  particularUserKyc */\n      dup1\n        /* \"KYC.sol\":451:480  particularUserKyc[msg.sender] */\n      0x00\n        /* \"KYC.sol\":469:479  msg.sender */\n      caller\n        /* \"KYC.sol\":451:480  particularUserKyc[msg.sender] */\n      0xffffffffffffffffffffffffffffffffffffffff\n      and\n      0xffffffffffffffffffffffffffffffffffffffff\n      and\n      dup2\n      mstore\n      0x20\n      add\n      swap1\n      dup2\n      mstore\n      0x20\n      add\n      0x00\n      keccak256\n        /* \"KYC.sol\":451:493  particularUserKyc[msg.sender].isRegistered */\n      0x00\n      add\n      0x14\n        /* \"KYC.sol\":451:500  particularUserKyc[msg.sender].isRegistered = true */\n      0x0100\n      exp\n      dup2\n      sload\n      dup2\n      0xff\n      mul\n      not\n      and\n      swap1\n      dup4\n      iszero\n      iszero\n      mul\n      or\n      swap1\n      sstore\n      pop\n        /* \"KYC.sol\":551:556  false */\n      0x00\n        /* \"KYC.sol\":511:528  particularUserKyc */\n      0x01\n        /* \"KYC.sol\":511:540  particularUserKyc[msg.sender] */\n      0x00\n        /* \"KYC.sol\":529:539  msg.sender */\n      caller\n        /* \"KYC.sol\":511:540  particularUserKyc[msg.sender] */\n      0xffffffffffffffffffffffffffffffffffffffff\n      and\n      0xffffffffffffffffffffffffffffffffffffffff\n      and\n      dup2\n      mstore\n      0x20\n      add\n      swap1\n      dup2\n      mstore\n      0x20\n      add\n      0x00\n      keccak256\n        /* \"KYC.sol\":511:548  particularUserKyc[msg.sender].kycdone */\n      0x00\n      add\n      0x15\n        /* \"KYC.sol\":511:556  particularUserKyc[msg.sender].kycdone = false */\n      0x0100\n      exp\n      dup2\n      sload\n      dup2\n      0xff\n      mul\n      not\n      and\n      swap1\n      dup4\n      iszero\n      iszero\n      mul\n      or\n      swap1\n      sstore\n      pop\n        /* \"KYC.sol\":567:579  deployedKycs */\n      0x00\n        /* \"KYC.sol\":585:591  newKyc */\n      dup2\n        /* \"KYC.sol\":567:592  deployedKycs.push(newKyc) */\n      swap1\n      dup1\n      0x01\n      dup2\n      sload\n      add\n      dup1\n      dup3\n      sstore\n      dup1\n      swap2\n      pop\n      pop\n      0x01\n      swap1\n      sub\n      swap1\n      0x00\n      mstore\n      keccak256(0x00, 0x20)\n      add\n      0x00\n      swap1\n      swap2\n      swap1\n      swap2\n      swap1\n      swap2\n      0x0100\n      exp\n      dup2\n      sload\n      dup2\n      0xffffffffffffffffffffffffffffffffffffffff\n      mul\n      not\n      and\n      swap1\n      dup4\n      0xffffffffffffffffffffffffffffffffffffffff\n      and\n      mul\n      or\n      swap1\n      sstore\n      pop\n        /* \"KYC.sol\":328:600  {... */\n      pop\n        /* \"KYC.sol\":301:600  function createKyc() public{... */\n      jump\t// out\n        /* \"KYC.sol\":787:890  function getDeployedKycs() public view returns(Userdef[] memory) {... */\n    tag_22:\n        /* \"KYC.sol\":834:850  Userdef[] memory */\n      0x60\n        /* \"KYC.sol\":870:882  deployedKycs */\n      0x00\n        /* \"KYC.sol\":863:882  return deployedKycs */\n      dup1\n      sload\n      dup1\n      0x20\n      mul\n      0x20\n      add\n      mload(0x40)\n      swap1\n      dup2\n      add\n      0x40\n      mstore\n      dup1\n      swap3\n      swap2\n      swap1\n      dup2\n      dup2\n      mstore\n      0x20\n      add\n      dup3\n      dup1\n      sload\n      dup1\n      iszero\n      tag_40\n      jumpi\n      0x20\n      mul\n      dup3\n      add\n      swap2\n      swap1\n      0x00\n      mstore\n      keccak256(0x00, 0x20)\n      swap1\n    tag_41:\n      dup2\n      0x00\n      swap1\n      sload\n      swap1\n      0x0100\n      exp\n      swap1\n      div\n      0xffffffffffffffffffffffffffffffffffffffff\n      and\n      0xffffffffffffffffffffffffffffffffffffffff\n      and\n      dup2\n      mstore\n      0x20\n      add\n      swap1\n      0x01\n      add\n      swap1\n      dup1\n      dup4\n      gt\n      tag_41\n      jumpi\n    tag_40:\n      pop\n      pop\n      pop\n      pop\n      pop\n      swap1\n      pop\n        /* \"KYC.sol\":787:890  function getDeployedKycs() public view returns(Userdef[] memory) {... */\n      swap1\n      jump\t// out\n        /* \"KYC.sol\":898:1022  function getparticularUser() public view returns(Userdef){... */\n    tag_26:\n        /* \"KYC.sol\":947:954  Userdef */\n      0x00\n        /* \"KYC.sol\":973:990  particularUserKyc */\n      0x01\n        /* \"KYC.sol\":973:1002  particularUserKyc[msg.sender] */\n      0x00\n        /* \"KYC.sol\":991:1001  msg.sender */\n      caller\n        /* \"KYC.sol\":973:1002  particularUserKyc[msg.sender] */\n      0xffffffffffffffffffffffffffffffffffffffff\n      and\n      0xffffffffffffffffffffffffffffffffffffffff\n      and\n      dup2\n      mstore\n      0x20\n      add\n      swap1\n      dup2\n      mstore\n      0x20\n      add\n      0x00\n      keccak256\n        /* \"KYC.sol\":973:1014  particularUserKyc[msg.sender].kycContract */\n      0x00\n      add\n      0x00\n      swap1\n      sload\n      swap1\n      0x0100\n      exp\n      swap1\n      div\n      0xffffffffffffffffffffffffffffffffffffffff\n      and\n        /* \"KYC.sol\":966:1014  return particularUserKyc[msg.sender].kycContract */\n      swap1\n      pop\n        /* \"KYC.sol\":898:1022  function getparticularUser() public view returns(Userdef){... */\n      swap1\n      jump\t// out\n    tag_34:\n      dataSize(sub_0)\n      dup1\n      dataOffset(sub_0)\n      dup4\n      codecopy\n      add\n      swap1\n      jump\t// out\n        /* \"#utility.yul\":88:205   */\n    tag_44:\n        /* \"#utility.yul\":197:198   */\n      0x00\n        /* \"#utility.yul\":194:195   */\n      dup1\n        /* \"#utility.yul\":187:199   */\n      revert\n        /* \"#utility.yul\":334:460   */\n    tag_46:\n        /* \"#utility.yul\":371:378   */\n      0x00\n        /* \"#utility.yul\":411:453   */\n      0xffffffffffffffffffffffffffffffffffffffff\n        /* \"#utility.yul\":404:409   */\n      dup3\n        /* \"#utility.yul\":400:454   */\n      and\n        /* \"#utility.yul\":389:454   */\n      swap1\n      pop\n        /* \"#utility.yul\":334:460   */\n      swap2\n      swap1\n      pop\n      jump\t// out\n        /* \"#utility.yul\":466:562   */\n    tag_47:\n        /* \"#utility.yul\":503:510   */\n      0x00\n        /* \"#utility.yul\":532:556   */\n      tag_72\n        /* \"#utility.yul\":550:555   */\n      dup3\n        /* \"#utility.yul\":532:556   */\n      tag_46\n      jump\t// in\n    tag_72:\n        /* \"#utility.yul\":521:556   */\n      swap1\n      pop\n        /* \"#utility.yul\":466:562   */\n      swap2\n      swap1\n      pop\n      jump\t// out\n        /* \"#utility.yul\":568:690   */\n    tag_48:\n        /* \"#utility.yul\":641:665   */\n      tag_74\n        /* \"#utility.yul\":659:664   */\n      dup2\n        /* \"#utility.yul\":641:665   */\n      tag_47\n      jump\t// in\n    tag_74:\n        /* \"#utility.yul\":634:639   */\n      dup2\n        /* \"#utility.yul\":631:666   */\n      eq\n        /* \"#utility.yul\":621:684   */\n      tag_75\n      jumpi\n        /* \"#utility.yul\":680:681   */\n      0x00\n        /* \"#utility.yul\":677:678   */\n      dup1\n        /* \"#utility.yul\":670:682   */\n      revert\n        /* \"#utility.yul\":621:684   */\n    tag_75:\n        /* \"#utility.yul\":568:690   */\n      pop\n      jump\t// out\n        /* \"#utility.yul\":696:835   */\n    tag_49:\n        /* \"#utility.yul\":742:747   */\n      0x00\n        /* \"#utility.yul\":780:786   */\n      dup2\n        /* \"#utility.yul\":767:787   */\n      calldataload\n        /* \"#utility.yul\":758:787   */\n      swap1\n      pop\n        /* \"#utility.yul\":796:829   */\n      tag_77\n        /* \"#utility.yul\":823:828   */\n      dup2\n        /* \"#utility.yul\":796:829   */\n      tag_48\n      jump\t// in\n    tag_77:\n        /* \"#utility.yul\":696:835   */\n      swap3\n      swap2\n      pop\n      pop\n      jump\t// out\n        /* \"#utility.yul\":841:1170   */\n    tag_10:\n        /* \"#utility.yul\":900:906   */\n      0x00\n        /* \"#utility.yul\":949:951   */\n      0x20\n        /* \"#utility.yul\":937:946   */\n      dup3\n        /* \"#utility.yul\":928:935   */\n      dup5\n        /* \"#utility.yul\":924:947   */\n      sub\n        /* \"#utility.yul\":920:952   */\n      slt\n        /* \"#utility.yul\":917:1036   */\n      iszero\n      tag_79\n      jumpi\n        /* \"#utility.yul\":955:1034   */\n      tag_80\n      tag_44\n      jump\t// in\n    tag_80:\n        /* \"#utility.yul\":917:1036   */\n    tag_79:\n        /* \"#utility.yul\":1075:1076   */\n      0x00\n        /* \"#utility.yul\":1100:1153   */\n      tag_81\n        /* \"#utility.yul\":1145:1152   */\n      dup5\n        /* \"#utility.yul\":1136:1142   */\n      dup3\n        /* \"#utility.yul\":1125:1134   */\n      dup6\n        /* \"#utility.yul\":1121:1143   */\n      add\n        /* \"#utility.yul\":1100:1153   */\n      tag_49\n      jump\t// in\n    tag_81:\n        /* \"#utility.yul\":1090:1153   */\n      swap2\n      pop\n        /* \"#utility.yul\":1046:1163   */\n      pop\n        /* \"#utility.yul\":841:1170   */\n      swap3\n      swap2\n      pop\n      pop\n      jump\t// out\n        /* \"#utility.yul\":1176:1236   */\n    tag_50:\n        /* \"#utility.yul\":1204:1207   */\n      0x00\n        /* \"#utility.yul\":1225:1230   */\n      dup2\n        /* \"#utility.yul\":1218:1230   */\n      swap1\n      pop\n        /* \"#utility.yul\":1176:1236   */\n      swap2\n      swap1\n      pop\n      jump\t// out\n        /* \"#utility.yul\":1242:1384   */\n    tag_51:\n        /* \"#utility.yul\":1292:1301   */\n      0x00\n        /* \"#utility.yul\":1325:1378   */\n      tag_84\n        /* \"#utility.yul\":1343:1377   */\n      tag_85\n        /* \"#utility.yul\":1352:1376   */\n      tag_86\n        /* \"#utility.yul\":1370:1375   */\n      dup5\n        /* \"#utility.yul\":1352:1376   */\n      tag_46\n      jump\t// in\n    tag_86:\n        /* \"#utility.yul\":1343:1377   */\n      tag_50\n      jump\t// in\n    tag_85:\n        /* \"#utility.yul\":1325:1378   */\n      tag_46\n      jump\t// in\n    tag_84:\n        /* \"#utility.yul\":1312:1378   */\n      swap1\n      pop\n        /* \"#utility.yul\":1242:1384   */\n      swap2\n      swap1\n      pop\n      jump\t// out\n        /* \"#utility.yul\":1390:1516   */\n    tag_52:\n        /* \"#utility.yul\":1440:1449   */\n      0x00\n        /* \"#utility.yul\":1473:1510   */\n      tag_88\n        /* \"#utility.yul\":1504:1509   */\n      dup3\n        /* \"#utility.yul\":1473:1510   */\n      tag_51\n      jump\t// in\n    tag_88:\n        /* \"#utility.yul\":1460:1510   */\n      swap1\n      pop\n        /* \"#utility.yul\":1390:1516   */\n      swap2\n      swap1\n      pop\n      jump\t// out\n        /* \"#utility.yul\":1522:1663   */\n    tag_53:\n        /* \"#utility.yul\":1587:1596   */\n      0x00\n        /* \"#utility.yul\":1620:1657   */\n      tag_90\n        /* \"#utility.yul\":1651:1656   */\n      dup3\n        /* \"#utility.yul\":1620:1657   */\n      tag_52\n      jump\t// in\n    tag_90:\n        /* \"#utility.yul\":1607:1657   */\n      swap1\n      pop\n        /* \"#utility.yul\":1522:1663   */\n      swap2\n      swap1\n      pop\n      jump\t// out\n        /* \"#utility.yul\":1669:1830   */\n    tag_54:\n        /* \"#utility.yul\":1771:1823   */\n      tag_92\n        /* \"#utility.yul\":1817:1822   */\n      dup2\n        /* \"#utility.yul\":1771:1823   */\n      tag_53\n      jump\t// in\n    tag_92:\n        /* \"#utility.yul\":1766:1769   */\n      dup3\n        /* \"#utility.yul\":1759:1824   */\n      mstore\n        /* \"#utility.yul\":1669:1830   */\n      pop\n      pop\n      jump\t// out\n        /* \"#utility.yul\":1836:2088   */\n    tag_13:\n        /* \"#utility.yul\":1944:1948   */\n      0x00\n        /* \"#utility.yul\":1982:1984   */\n      0x20\n        /* \"#utility.yul\":1971:1980   */\n      dup3\n        /* \"#utility.yul\":1967:1985   */\n      add\n        /* \"#utility.yul\":1959:1985   */\n      swap1\n      pop\n        /* \"#utility.yul\":1995:2081   */\n      tag_94\n        /* \"#utility.yul\":2078:2079   */\n      0x00\n        /* \"#utility.yul\":2067:2076   */\n      dup4\n        /* \"#utility.yul\":2063:2080   */\n      add\n        /* \"#utility.yul\":2054:2060   */\n      dup5\n        /* \"#utility.yul\":1995:2081   */\n      tag_54\n      jump\t// in\n    tag_94:\n        /* \"#utility.yul\":1836:2088   */\n      swap3\n      swap2\n      pop\n      pop\n      jump\t// out\n        /* \"#utility.yul\":2094:2171   */\n    tag_55:\n        /* \"#utility.yul\":2131:2138   */\n      0x00\n        /* \"#utility.yul\":2160:2165   */\n      dup2\n        /* \"#utility.yul\":2149:2165   */\n      swap1\n      pop\n        /* \"#utility.yul\":2094:2171   */\n      swap2\n      swap1\n      pop\n      jump\t// out\n        /* \"#utility.yul\":2177:2299   */\n    tag_56:\n        /* \"#utility.yul\":2250:2274   */\n      tag_97\n        /* \"#utility.yul\":2268:2273   */\n      dup2\n        /* \"#utility.yul\":2250:2274   */\n      tag_55\n      jump\t// in\n    tag_97:\n        /* \"#utility.yul\":2243:2248   */\n      dup2\n        /* \"#utility.yul\":2240:2275   */\n      eq\n        /* \"#utility.yul\":2230:2293   */\n      tag_98\n      jumpi\n        /* \"#utility.yul\":2289:2290   */\n      0x00\n        /* \"#utility.yul\":2286:2287   */\n      dup1\n        /* \"#utility.yul\":2279:2291   */\n      revert\n        /* \"#utility.yul\":2230:2293   */\n    tag_98:\n        /* \"#utility.yul\":2177:2299   */\n      pop\n      jump\t// out\n        /* \"#utility.yul\":2305:2444   */\n    tag_57:\n        /* \"#utility.yul\":2351:2356   */\n      0x00\n        /* \"#utility.yul\":2389:2395   */\n      dup2\n        /* \"#utility.yul\":2376:2396   */\n      calldataload\n        /* \"#utility.yul\":2367:2396   */\n      swap1\n      pop\n        /* \"#utility.yul\":2405:2438   */\n      tag_100\n        /* \"#utility.yul\":2432:2437   */\n      dup2\n        /* \"#utility.yul\":2405:2438   */\n      tag_56\n      jump\t// in\n    tag_100:\n        /* \"#utility.yul\":2305:2444   */\n      swap3\n      swap2\n      pop\n      pop\n      jump\t// out\n        /* \"#utility.yul\":2450:2779   */\n    tag_16:\n        /* \"#utility.yul\":2509:2515   */\n      0x00\n        /* \"#utility.yul\":2558:2560   */\n      0x20\n        /* \"#utility.yul\":2546:2555   */\n      dup3\n        /* \"#utility.yul\":2537:2544   */\n      dup5\n        /* \"#utility.yul\":2533:2556   */\n      sub\n        /* \"#utility.yul\":2529:2561   */\n      slt\n        /* \"#utility.yul\":2526:2645   */\n      iszero\n      tag_102\n      jumpi\n        /* \"#utility.yul\":2564:2643   */\n      tag_103\n      tag_44\n      jump\t// in\n    tag_103:\n        /* \"#utility.yul\":2526:2645   */\n    tag_102:\n        /* \"#utility.yul\":2684:2685   */\n      0x00\n        /* \"#utility.yul\":2709:2762   */\n      tag_104\n        /* \"#utility.yul\":2754:2761   */\n      dup5\n        /* \"#utility.yul\":2745:2751   */\n      dup3\n        /* \"#utility.yul\":2734:2743   */\n      dup6\n        /* \"#utility.yul\":2730:2752   */\n      add\n        /* \"#utility.yul\":2709:2762   */\n      tag_57\n      jump\t// in\n    tag_104:\n        /* \"#utility.yul\":2699:2762   */\n      swap2\n      pop\n        /* \"#utility.yul\":2655:2772   */\n      pop\n        /* \"#utility.yul\":2450:2779   */\n      swap3\n      swap2\n      pop\n      pop\n      jump\t// out\n        /* \"#utility.yul\":2785:2914   */\n    tag_58:\n        /* \"#utility.yul\":2867:2873   */\n      0x00\n        /* \"#utility.yul\":2901:2906   */\n      dup2\n        /* \"#utility.yul\":2895:2907   */\n      mload\n        /* \"#utility.yul\":2885:2907   */\n      swap1\n      pop\n        /* \"#utility.yul\":2785:2914   */\n      swap2\n      swap1\n      pop\n      jump\t// out\n        /* \"#utility.yul\":2920:3104   */\n    tag_59:\n        /* \"#utility.yul\":3019:3030   */\n      0x00\n        /* \"#utility.yul\":3053:3059   */\n      dup3\n        /* \"#utility.yul\":3048:3051   */\n      dup3\n        /* \"#utility.yul\":3041:3060   */\n      mstore\n        /* \"#utility.yul\":3093:3097   */\n      0x20\n        /* \"#utility.yul\":3088:3091   */\n      dup3\n        /* \"#utility.yul\":3084:3098   */\n      add\n        /* \"#utility.yul\":3069:3098   */\n      swap1\n      pop\n        /* \"#utility.yul\":2920:3104   */\n      swap3\n      swap2\n      pop\n      pop\n      jump\t// out\n        /* \"#utility.yul\":3110:3257   */\n    tag_60:\n        /* \"#utility.yul\":3192:3196   */\n      0x00\n        /* \"#utility.yul\":3215:3218   */\n      dup2\n        /* \"#utility.yul\":3207:3218   */\n      swap1\n      pop\n        /* \"#utility.yul\":3245:3249   */\n      0x20\n        /* \"#utility.yul\":3240:3243   */\n      dup3\n        /* \"#utility.yul\":3236:3250   */\n      add\n        /* \"#utility.yul\":3228:3250   */\n      swap1\n      pop\n        /* \"#utility.yul\":3110:3257   */\n      swap2\n      swap1\n      pop\n      jump\t// out\n        /* \"#utility.yul\":3263:3414   */\n    tag_61:\n        /* \"#utility.yul\":3355:3407   */\n      tag_109\n        /* \"#utility.yul\":3401:3406   */\n      dup2\n        /* \"#utility.yul\":3355:3407   */\n      tag_53\n      jump\t// in\n    tag_109:\n        /* \"#utility.yul\":3350:3353   */\n      dup3\n        /* \"#utility.yul\":3343:3408   */\n      mstore\n        /* \"#utility.yul\":3263:3414   */\n      pop\n      pop\n      jump\t// out\n        /* \"#utility.yul\":3420:3629   */\n    tag_62:\n        /* \"#utility.yul\":3504:3514   */\n      0x00\n        /* \"#utility.yul\":3525:3586   */\n      tag_111\n        /* \"#utility.yul\":3582:3585   */\n      dup4\n        /* \"#utility.yul\":3574:3580   */\n      dup4\n        /* \"#utility.yul\":3525:3586   */\n      tag_61\n      jump\t// in\n    tag_111:\n        /* \"#utility.yul\":3618:3622   */\n      0x20\n        /* \"#utility.yul\":3613:3616   */\n      dup4\n        /* \"#utility.yul\":3609:3623   */\n      add\n        /* \"#utility.yul\":3595:3623   */\n      swap1\n      pop\n        /* \"#utility.yul\":3420:3629   */\n      swap3\n      swap2\n      pop\n      pop\n      jump\t// out\n        /* \"#utility.yul\":3635:3763   */\n    tag_63:\n        /* \"#utility.yul\":3720:3724   */\n      0x00\n        /* \"#utility.yul\":3752:3756   */\n      0x20\n        /* \"#utility.yul\":3747:3750   */\n      dup3\n        /* \"#utility.yul\":3743:3757   */\n      add\n        /* \"#utility.yul\":3735:3757   */\n      swap1\n      pop\n        /* \"#utility.yul\":3635:3763   */\n      swap2\n      swap1\n      pop\n      jump\t// out\n        /* \"#utility.yul\":3808:4615   */\n    tag_64:\n        /* \"#utility.yul\":3942:3945   */\n      0x00\n        /* \"#utility.yul\":3971:4040   */\n      tag_114\n        /* \"#utility.yul\":4034:4039   */\n      dup3\n        /* \"#utility.yul\":3971:4040   */\n      tag_58\n      jump\t// in\n    tag_114:\n        /* \"#utility.yul\":4056:4142   */\n      tag_115\n        /* \"#utility.yul\":4135:4141   */\n      dup2\n        /* \"#utility.yul\":4130:4133   */\n      dup6\n        /* \"#utility.yul\":4056:4142   */\n      tag_59\n      jump\t// in\n    tag_115:\n        /* \"#utility.yul\":4049:4142   */\n      swap4\n      pop\n        /* \"#utility.yul\":4166:4237   */\n      tag_116\n        /* \"#utility.yul\":4231:4236   */\n      dup4\n        /* \"#utility.yul\":4166:4237   */\n      tag_60\n      jump\t// in\n    tag_116:\n        /* \"#utility.yul\":4260:4267   */\n      dup1\n        /* \"#utility.yul\":4291:4292   */\n      0x00\n        /* \"#utility.yul\":4276:4590   */\n    tag_117:\n        /* \"#utility.yul\":4301:4307   */\n      dup4\n        /* \"#utility.yul\":4298:4299   */\n      dup2\n        /* \"#utility.yul\":4295:4308   */\n      lt\n        /* \"#utility.yul\":4276:4590   */\n      iszero\n      tag_119\n      jumpi\n        /* \"#utility.yul\":4377:4383   */\n      dup2\n        /* \"#utility.yul\":4371:4384   */\n      mload\n        /* \"#utility.yul\":4404:4482   */\n      tag_120\n        /* \"#utility.yul\":4478:4481   */\n      dup9\n        /* \"#utility.yul\":4463:4476   */\n      dup3\n        /* \"#utility.yul\":4404:4482   */\n      tag_62\n      jump\t// in\n    tag_120:\n        /* \"#utility.yul\":4397:4482   */\n      swap8\n      pop\n        /* \"#utility.yul\":4505:4580   */\n      tag_121\n        /* \"#utility.yul\":4573:4579   */\n      dup4\n        /* \"#utility.yul\":4505:4580   */\n      tag_63\n      jump\t// in\n    tag_121:\n        /* \"#utility.yul\":4495:4580   */\n      swap3\n      pop\n        /* \"#utility.yul\":4336:4590   */\n      pop\n        /* \"#utility.yul\":4323:4324   */\n      0x01\n        /* \"#utility.yul\":4320:4321   */\n      dup2\n        /* \"#utility.yul\":4316:4325   */\n      add\n        /* \"#utility.yul\":4311:4325   */\n      swap1\n      pop\n        /* \"#utility.yul\":4276:4590   */\n      jump(tag_117)\n    tag_119:\n        /* \"#utility.yul\":4280:4294   */\n      pop\n        /* \"#utility.yul\":4606:4609   */\n      dup6\n        /* \"#utility.yul\":4599:4609   */\n      swap4\n      pop\n        /* \"#utility.yul\":3947:4615   */\n      pop\n      pop\n      pop\n        /* \"#utility.yul\":3808:4615   */\n      swap3\n      swap2\n      pop\n      pop\n      jump\t// out\n        /* \"#utility.yul\":4621:5024   */\n    tag_24:\n        /* \"#utility.yul\":4779:4783   */\n      0x00\n        /* \"#utility.yul\":4817:4819   */\n      0x20\n        /* \"#utility.yul\":4806:4815   */\n      dup3\n        /* \"#utility.yul\":4802:4820   */\n      add\n        /* \"#utility.yul\":4794:4820   */\n      swap1\n      pop\n        /* \"#utility.yul\":4866:4875   */\n      dup2\n        /* \"#utility.yul\":4860:4864   */\n      dup2\n        /* \"#utility.yul\":4856:4876   */\n      sub\n        /* \"#utility.yul\":4852:4853   */\n      0x00\n        /* \"#utility.yul\":4841:4850   */\n      dup4\n        /* \"#utility.yul\":4837:4854   */\n      add\n        /* \"#utility.yul\":4830:4877   */\n      mstore\n        /* \"#utility.yul\":4894:5017   */\n      tag_123\n        /* \"#utility.yul\":5012:5016   */\n      dup2\n        /* \"#utility.yul\":5003:5009   */\n      dup5\n        /* \"#utility.yul\":4894:5017   */\n      tag_64\n      jump\t// in\n    tag_123:\n        /* \"#utility.yul\":4886:5017   */\n      swap1\n      pop\n        /* \"#utility.yul\":4621:5024   */\n      swap3\n      swap2\n      pop\n      pop\n      jump\t// out\n        /* \"#utility.yul\":5030:5148   */\n    tag_65:\n        /* \"#utility.yul\":5117:5141   */\n      tag_125\n        /* \"#utility.yul\":5135:5140   */\n      dup2\n        /* \"#utility.yul\":5117:5141   */\n      tag_47\n      jump\t// in\n    tag_125:\n        /* \"#utility.yul\":5112:5115   */\n      dup3\n        /* \"#utility.yul\":5105:5142   */\n      mstore\n        /* \"#utility.yul\":5030:5148   */\n      pop\n      pop\n      jump\t// out\n        /* \"#utility.yul\":5154:5376   */\n    tag_36:\n        /* \"#utility.yul\":5247:5251   */\n      0x00\n        /* \"#utility.yul\":5285:5287   */\n      0x20\n        /* \"#utility.yul\":5274:5283   */\n      dup3\n        /* \"#utility.yul\":5270:5288   */\n      add\n        /* \"#utility.yul\":5262:5288   */\n      swap1\n      pop\n        /* \"#utility.yul\":5298:5369   */\n      tag_127\n        /* \"#utility.yul\":5366:5367   */\n      0x00\n        /* \"#utility.yul\":5355:5364   */\n      dup4\n        /* \"#utility.yul\":5351:5368   */\n      add\n        /* \"#utility.yul\":5342:5348   */\n      dup5\n        /* \"#utility.yul\":5298:5369   */\n      tag_65\n      jump\t// in\n    tag_127:\n        /* \"#utility.yul\":5154:5376   */\n      swap3\n      swap2\n      pop\n      pop\n      jump\t// out\n    stop\n\n    sub_0: assembly {\n            /* \"KYC.sol\":1081:4149  contract Userdef{... */\n          mstore(0x40, 0x80)\n            /* \"KYC.sol\":1709:1832  constructor(address creator){... */\n          callvalue\n          dup1\n          iszero\n          tag_1\n          jumpi\n          0x00\n          dup1\n          revert\n        tag_1:\n          pop\n          mload(0x40)\n          sub(codesize, bytecodeSize)\n          dup1\n          bytecodeSize\n          dup4\n          codecopy\n          dup2\n          dup2\n          add\n          0x40\n          mstore\n          dup2\n          add\n          swap1\n          tag_2\n          swap2\n          swap1\n          tag_3\n          jump\t// in\n        tag_2:\n            /* \"KYC.sol\":1758:1765  creator */\n          dup1\n            /* \"KYC.sol\":1748:1755  manager */\n          0x02\n          0x00\n            /* \"KYC.sol\":1748:1765  manager = creator */\n          0x0100\n          exp\n          dup2\n          sload\n          dup2\n          0xffffffffffffffffffffffffffffffffffffffff\n          mul\n          not\n          and\n          swap1\n          dup4\n          0xffffffffffffffffffffffffffffffffffffffff\n          and\n          mul\n          or\n          swap1\n          sstore\n          pop\n            /* \"KYC.sol\":1709:1832  constructor(address creator){... */\n          pop\n            /* \"KYC.sol\":1081:4149  contract Userdef{... */\n          jump(tag_6)\n            /* \"#utility.yul\":88:205   */\n        tag_8:\n            /* \"#utility.yul\":197:198   */\n          0x00\n            /* \"#utility.yul\":194:195   */\n          dup1\n            /* \"#utility.yul\":187:199   */\n          revert\n            /* \"#utility.yul\":334:460   */\n        tag_10:\n            /* \"#utility.yul\":371:378   */\n          0x00\n            /* \"#utility.yul\":411:453   */\n          0xffffffffffffffffffffffffffffffffffffffff\n            /* \"#utility.yul\":404:409   */\n          dup3\n            /* \"#utility.yul\":400:454   */\n          and\n            /* \"#utility.yul\":389:454   */\n          swap1\n          pop\n            /* \"#utility.yul\":334:460   */\n          swap2\n          swap1\n          pop\n          jump\t// out\n            /* \"#utility.yul\":466:562   */\n        tag_11:\n            /* \"#utility.yul\":503:510   */\n          0x00\n            /* \"#utility.yul\":532:556   */\n          tag_20\n            /* \"#utility.yul\":550:555   */\n          dup3\n            /* \"#utility.yul\":532:556   */\n          tag_10\n          jump\t// in\n        tag_20:\n            /* \"#utility.yul\":521:556   */\n          swap1\n          pop\n            /* \"#utility.yul\":466:562   */\n          swap2\n          swap1\n          pop\n          jump\t// out\n            /* \"#utility.yul\":568:690   */\n        tag_12:\n            /* \"#utility.yul\":641:665   */\n          tag_22\n            /* \"#utility.yul\":659:664   */\n          dup2\n            /* \"#utility.yul\":641:665   */\n          tag_11\n          jump\t// in\n        tag_22:\n            /* \"#utility.yul\":634:639   */\n          dup2\n            /* \"#utility.yul\":631:666   */\n          eq\n            /* \"#utility.yul\":621:684   */\n          tag_23\n          jumpi\n            /* \"#utility.yul\":680:681   */\n          0x00\n            /* \"#utility.yul\":677:678   */\n          dup1\n            /* \"#utility.yul\":670:682   */\n          revert\n            /* \"#utility.yul\":621:684   */\n        tag_23:\n            /* \"#utility.yul\":568:690   */\n          pop\n          jump\t// out\n            /* \"#utility.yul\":696:839   */\n        tag_13:\n            /* \"#utility.yul\":753:758   */\n          0x00\n            /* \"#utility.yul\":784:790   */\n          dup2\n            /* \"#utility.yul\":778:791   */\n          mload\n            /* \"#utility.yul\":769:791   */\n          swap1\n          pop\n            /* \"#utility.yul\":800:833   */\n          tag_25\n            /* \"#utility.yul\":827:832   */\n          dup2\n            /* \"#utility.yul\":800:833   */\n          tag_12\n          jump\t// in\n        tag_25:\n            /* \"#utility.yul\":696:839   */\n          swap3\n          swap2\n          pop\n          pop\n          jump\t// out\n            /* \"#utility.yul\":845:1196   */\n        tag_3:\n            /* \"#utility.yul\":915:921   */\n          0x00\n            /* \"#utility.yul\":964:966   */\n          0x20\n            /* \"#utility.yul\":952:961   */\n          dup3\n            /* \"#utility.yul\":943:950   */\n          dup5\n            /* \"#utility.yul\":939:962   */\n          sub\n            /* \"#utility.yul\":935:967   */\n          slt\n            /* \"#utility.yul\":932:1051   */\n          iszero\n          tag_27\n          jumpi\n            /* \"#utility.yul\":970:1049   */\n          tag_28\n          tag_8\n          jump\t// in\n        tag_28:\n            /* \"#utility.yul\":932:1051   */\n        tag_27:\n            /* \"#utility.yul\":1090:1091   */\n          0x00\n            /* \"#utility.yul\":1115:1179   */\n          tag_29\n            /* \"#utility.yul\":1171:1178   */\n          dup5\n            /* \"#utility.yul\":1162:1168   */\n          dup3\n            /* \"#utility.yul\":1151:1160   */\n          dup6\n            /* \"#utility.yul\":1147:1169   */\n          add\n            /* \"#utility.yul\":1115:1179   */\n          tag_13\n          jump\t// in\n        tag_29:\n            /* \"#utility.yul\":1105:1179   */\n          swap2\n          pop\n            /* \"#utility.yul\":1061:1189   */\n          pop\n            /* \"#utility.yul\":845:1196   */\n          swap3\n          swap2\n          pop\n          pop\n          jump\t// out\n            /* \"KYC.sol\":1081:4149  contract Userdef{... */\n        tag_6:\n          dataSize(sub_0)\n          dup1\n          dataOffset(sub_0)\n          0x00\n          codecopy\n          0x00\n          return\n        stop\n\n        sub_0: assembly {\n                /* \"KYC.sol\":1081:4149  contract Userdef{... */\n              mstore(0x40, 0x80)\n              callvalue\n              dup1\n              iszero\n              tag_1\n              jumpi\n              0x00\n              dup1\n              revert\n            tag_1:\n              pop\n              jumpi(tag_2, lt(calldatasize, 0x04))\n              shr(0xe0, calldataload(0x00))\n              dup1\n              0xa5c9f7ad\n              gt\n              tag_12\n              jumpi\n              dup1\n              0xa5c9f7ad\n              eq\n              tag_7\n              jumpi\n              dup1\n              0xadb4d990\n              eq\n              tag_8\n              jumpi\n              dup1\n              0xbdb37313\n              eq\n              tag_9\n              jumpi\n              dup1\n              0xea00962f\n              eq\n              tag_10\n              jumpi\n              dup1\n              0xf203c19d\n              eq\n              tag_11\n              jumpi\n              jump(tag_2)\n            tag_12:\n              dup1\n              0x1b146ecf\n              eq\n              tag_3\n              jumpi\n              dup1\n              0x263b81c9\n              eq\n              tag_4\n              jumpi\n              dup1\n              0x481c6a75\n              eq\n              tag_5\n              jumpi\n              dup1\n              0x942886be\n              eq\n              tag_6\n              jumpi\n            tag_2:\n              0x00\n              dup1\n              revert\n                /* \"KYC.sol\":3603:3968  function createRequest(string memory describe) public{... */\n            tag_3:\n              tag_13\n              0x04\n              dup1\n              calldatasize\n              sub\n              dup2\n              add\n              swap1\n              tag_14\n              swap2\n              swap1\n              tag_15\n              jump\t// in\n            tag_14:\n              tag_16\n              jump\t// in\n            tag_13:\n              stop\n                /* \"KYC.sol\":3976:4144  function approveRequest() public userRestricted{... */\n            tag_4:\n              tag_17\n              tag_18\n              jump\t// in\n            tag_17:\n              stop\n                /* \"KYC.sol\":1434:1456  address public manager */\n            tag_5:\n              tag_19\n              tag_20\n              jump\t// in\n            tag_19:\n              mload(0x40)\n              tag_21\n              swap2\n              swap1\n              tag_22\n              jump\t// in\n            tag_21:\n              mload(0x40)\n              dup1\n              swap2\n              sub\n              swap1\n              return\n                /* \"KYC.sol\":3065:3461  function getUserDetails() public view agentRestricted... */\n            tag_6:\n              tag_23\n              tag_24\n              jump\t// in\n            tag_23:\n              mload(0x40)\n              tag_25\n              swap10\n              swap9\n              swap8\n              swap7\n              swap6\n              swap5\n              swap4\n              swap3\n              swap2\n              swap1\n              tag_26\n              jump\t// in\n            tag_25:\n              mload(0x40)\n              dup1\n              swap2\n              sub\n              swap1\n              return\n                /* \"KYC.sol\":1840:2478  function addUser(string memory n, string memory f, string memory m, string memory d, string memory ad, uint mo,string memory e,uint aadhar,string memory pan) ... */\n            tag_7:\n              tag_27\n              0x04\n              dup1\n              calldatasize\n              sub\n              dup2\n              add\n              swap1\n              tag_28\n              swap2\n              swap1\n              tag_29\n              jump\t// in\n            tag_28:\n              tag_30\n              jump\t// in\n            tag_27:\n              stop\n                /* \"KYC.sol\":1487:1510  address public assigned */\n            tag_8:\n              tag_31\n              tag_32\n              jump\t// in\n            tag_31:\n              mload(0x40)\n              tag_33\n              swap2\n              swap1\n              tag_22\n              jump\t// in\n            tag_33:\n              mload(0x40)\n              dup1\n              swap2\n              sub\n              swap1\n              return\n                /* \"KYC.sol\":2591:3057  function getparticularUser() public view userRestricted... */\n            tag_9:\n              tag_34\n              tag_35\n              jump\t// in\n            tag_34:\n              mload(0x40)\n              tag_36\n              swap10\n              swap9\n              swap8\n              swap7\n              swap6\n              swap5\n              swap4\n              swap3\n              swap2\n              swap1\n              tag_26\n              jump\t// in\n            tag_36:\n              mload(0x40)\n              dup1\n              swap2\n              sub\n              swap1\n              return\n                /* \"KYC.sol\":2488:2583  function getDeployedUsers() public view returns(address) {... */\n            tag_10:\n              tag_37\n              tag_38\n              jump\t// in\n            tag_37:\n              mload(0x40)\n              tag_39\n              swap2\n              swap1\n              tag_22\n              jump\t// in\n            tag_39:\n              mload(0x40)\n              dup1\n              swap2\n              sub\n              swap1\n              return\n                /* \"KYC.sol\":1363:1390  address public usersAddress */\n            tag_11:\n              tag_40\n              tag_41\n              jump\t// in\n            tag_40:\n              mload(0x40)\n              tag_42\n              swap2\n              swap1\n              tag_22\n              jump\t// in\n            tag_42:\n              mload(0x40)\n              dup1\n              swap2\n              sub\n              swap1\n              return\n                /* \"KYC.sol\":3603:3968  function createRequest(string memory describe) public{... */\n            tag_16:\n                /* \"KYC.sol\":3678:3960  Request({                    // Agent will create a request for accessing documents of user/manager.... */\n              mload(0x40)\n              dup1\n              0x60\n              add\n              0x40\n              mstore\n              dup1\n                /* \"KYC.sol\":3805:3813  describe */\n              dup3\n                /* \"KYC.sol\":3678:3960  Request({                    // Agent will create a request for accessing documents of user/manager.... */\n              dup2\n              mstore\n              0x20\n              add\n                /* \"KYC.sol\":3839:3849  msg.sender */\n              caller\n                /* \"KYC.sol\":3678:3960  Request({                    // Agent will create a request for accessing documents of user/manager.... */\n              0xffffffffffffffffffffffffffffffffffffffff\n              and\n              dup2\n              mstore\n              0x20\n              add\n                /* \"KYC.sol\":3943:3948  false */\n              0x00\n                /* \"KYC.sol\":3678:3960  Request({                    // Agent will create a request for accessing documents of user/manager.... */\n              iszero\n              iszero\n              dup2\n              mstore\n              pop\n                /* \"KYC.sol\":3667:3675  requests */\n              0x04\n                /* \"KYC.sol\":3667:3960  requests = Request({                    // Agent will create a request for accessing documents of user/manager.... */\n              0x00\n              dup3\n              add\n              mload\n              dup2\n              0x00\n              add\n              swap1\n              dup1\n              mload\n              swap1\n              0x20\n              add\n              swap1\n              tag_44\n              swap3\n              swap2\n              swap1\n              tag_45\n              jump\t// in\n            tag_44:\n              pop\n              0x20\n              dup3\n              add\n              mload\n              dup2\n              0x01\n              add\n              exp(0x0100, 0x00)\n              dup2\n              sload\n              dup2\n              0xffffffffffffffffffffffffffffffffffffffff\n              mul\n              not\n              and\n              swap1\n              dup4\n              0xffffffffffffffffffffffffffffffffffffffff\n              and\n              mul\n              or\n              swap1\n              sstore\n              pop\n              0x40\n              dup3\n              add\n              mload\n              dup2\n              0x01\n              add\n              exp(0x0100, 0x14)\n              dup2\n              sload\n              dup2\n              0xff\n              mul\n              not\n              and\n              swap1\n              dup4\n              iszero\n              iszero\n              mul\n              or\n              swap1\n              sstore\n              pop\n              swap1\n              pop\n              pop\n                /* \"KYC.sol\":3603:3968  function createRequest(string memory describe) public{... */\n              pop\n              jump\t// out\n                /* \"KYC.sol\":3976:4144  function approveRequest() public userRestricted{... */\n            tag_18:\n                /* \"KYC.sol\":1577:1584  manager */\n              0x02\n              0x00\n              swap1\n              sload\n              swap1\n              0x0100\n              exp\n              swap1\n              div\n              0xffffffffffffffffffffffffffffffffffffffff\n              and\n                /* \"KYC.sol\":1563:1584  msg.sender == manager */\n              0xffffffffffffffffffffffffffffffffffffffff\n              and\n                /* \"KYC.sol\":1563:1573  msg.sender */\n              caller\n                /* \"KYC.sol\":1563:1584  msg.sender == manager */\n              0xffffffffffffffffffffffffffffffffffffffff\n              and\n              eq\n                /* \"KYC.sol\":1555:1585  require(msg.sender == manager) */\n              tag_47\n              jumpi\n              0x00\n              dup1\n              revert\n            tag_47:\n                /* \"KYC.sol\":4043:4051  requests */\n              0x04\n                /* \"KYC.sol\":4043:4060  requests.complete */\n              0x01\n              add\n              0x14\n              swap1\n              sload\n              swap1\n              0x0100\n              exp\n              swap1\n              div\n              0xff\n              and\n                /* \"KYC.sol\":4042:4060  !requests.complete */\n              iszero\n                /* \"KYC.sol\":4034:4061  require(!requests.complete) */\n              tag_49\n              jumpi\n              0x00\n              dup1\n              revert\n            tag_49:\n                /* \"KYC.sol\":4083:4091  requests */\n              0x04\n                /* \"KYC.sol\":4083:4101  requests.recepient */\n              0x01\n              add\n              0x00\n              swap1\n              sload\n              swap1\n              0x0100\n              exp\n              swap1\n              div\n              0xffffffffffffffffffffffffffffffffffffffff\n              and\n                /* \"KYC.sol\":4072:4080  assigned */\n              0x03\n              0x00\n                /* \"KYC.sol\":4072:4101  assigned = requests.recepient */\n              0x0100\n              exp\n              dup2\n              sload\n              dup2\n              0xffffffffffffffffffffffffffffffffffffffff\n              mul\n              not\n              and\n              swap1\n              dup4\n              0xffffffffffffffffffffffffffffffffffffffff\n              and\n              mul\n              or\n              swap1\n              sstore\n              pop\n                /* \"KYC.sol\":4132:4136  true */\n              0x01\n                /* \"KYC.sol\":4112:4120  requests */\n              0x04\n                /* \"KYC.sol\":4112:4129  requests.complete */\n              0x01\n              add\n              0x14\n                /* \"KYC.sol\":4112:4136  requests.complete = true */\n              0x0100\n              exp\n              dup2\n              sload\n              dup2\n              0xff\n              mul\n              not\n              and\n              swap1\n              dup4\n              iszero\n              iszero\n              mul\n              or\n              swap1\n              sstore\n              pop\n                /* \"KYC.sol\":3976:4144  function approveRequest() public userRestricted{... */\n              jump\t// out\n                /* \"KYC.sol\":1434:1456  address public manager */\n            tag_20:\n              0x02\n              0x00\n              swap1\n              sload\n              swap1\n              0x0100\n              exp\n              swap1\n              div\n              0xffffffffffffffffffffffffffffffffffffffff\n              and\n              dup2\n              jump\t// out\n                /* \"KYC.sol\":3065:3461  function getUserDetails() public view agentRestricted... */\n            tag_24:\n                /* \"KYC.sol\":3132:3145  string memory */\n              0x60\n                /* \"KYC.sol\":3147:3160  string memory */\n              dup1\n                /* \"KYC.sol\":3162:3175  string memory */\n              0x60\n                /* \"KYC.sol\":3177:3190  string memory */\n              dup1\n                /* \"KYC.sol\":3192:3205  string memory */\n              0x60\n                /* \"KYC.sol\":3207:3211  uint */\n              0x00\n                /* \"KYC.sol\":3212:3225  string memory */\n              0x60\n                /* \"KYC.sol\":3226:3230  uint */\n              0x00\n                /* \"KYC.sol\":3231:3244  string memory */\n              0x60\n                /* \"KYC.sol\":1672:1680  assigned */\n              0x03\n              0x00\n              swap1\n              sload\n              swap1\n              0x0100\n              exp\n              swap1\n              div\n              0xffffffffffffffffffffffffffffffffffffffff\n              and\n                /* \"KYC.sol\":1658:1680  msg.sender == assigned */\n              0xffffffffffffffffffffffffffffffffffffffff\n              and\n                /* \"KYC.sol\":1658:1668  msg.sender */\n              caller\n                /* \"KYC.sol\":1658:1680  msg.sender == assigned */\n              0xffffffffffffffffffffffffffffffffffffffff\n              and\n              eq\n                /* \"KYC.sol\":1650:1681  require(msg.sender == assigned) */\n              tag_51\n              jumpi\n              0x00\n              dup1\n              revert\n            tag_51:\n                /* \"KYC.sol\":3264:3269  users */\n              0x01\n                /* \"KYC.sol\":3264:3278  users[manager] */\n              0x00\n                /* \"KYC.sol\":3270:3277  manager */\n              0x02\n              0x00\n              swap1\n              sload\n              swap1\n              0x0100\n              exp\n              swap1\n              div\n              0xffffffffffffffffffffffffffffffffffffffff\n              and\n                /* \"KYC.sol\":3264:3278  users[manager] */\n              0xffffffffffffffffffffffffffffffffffffffff\n              and\n              0xffffffffffffffffffffffffffffffffffffffff\n              and\n              dup2\n              mstore\n              0x20\n              add\n              swap1\n              dup2\n              mstore\n              0x20\n              add\n              0x00\n              keccak256\n                /* \"KYC.sol\":3264:3283  users[manager].name */\n              0x00\n              add\n                /* \"KYC.sol\":3284:3289  users */\n              0x01\n                /* \"KYC.sol\":3284:3298  users[manager] */\n              0x00\n                /* \"KYC.sol\":3290:3297  manager */\n              0x02\n              0x00\n              swap1\n              sload\n              swap1\n              0x0100\n              exp\n              swap1\n              div\n              0xffffffffffffffffffffffffffffffffffffffff\n              and\n                /* \"KYC.sol\":3284:3298  users[manager] */\n              0xffffffffffffffffffffffffffffffffffffffff\n              and\n              0xffffffffffffffffffffffffffffffffffffffff\n              and\n              dup2\n              mstore\n              0x20\n              add\n              swap1\n              dup2\n              mstore\n              0x20\n              add\n              0x00\n              keccak256\n                /* \"KYC.sol\":3284:3305  users[manager].father */\n              0x01\n              add\n                /* \"KYC.sol\":3306:3311  users */\n              0x01\n                /* \"KYC.sol\":3306:3320  users[manager] */\n              0x00\n                /* \"KYC.sol\":3312:3319  manager */\n              0x02\n              0x00\n              swap1\n              sload\n              swap1\n              0x0100\n              exp\n              swap1\n              div\n              0xffffffffffffffffffffffffffffffffffffffff\n              and\n                /* \"KYC.sol\":3306:3320  users[manager] */\n              0xffffffffffffffffffffffffffffffffffffffff\n              and\n              0xffffffffffffffffffffffffffffffffffffffff\n              and\n              dup2\n              mstore\n              0x20\n              add\n              swap1\n              dup2\n              mstore\n              0x20\n              add\n              0x00\n              keccak256\n                /* \"KYC.sol\":3306:3327  users[manager].mother */\n              0x02\n              add\n                /* \"KYC.sol\":3328:3333  users */\n              0x01\n                /* \"KYC.sol\":3328:3342  users[manager] */\n              0x00\n                /* \"KYC.sol\":3334:3341  manager */\n              0x02\n              0x00\n              swap1\n              sload\n              swap1\n              0x0100\n              exp\n              swap1\n              div\n              0xffffffffffffffffffffffffffffffffffffffff\n              and\n                /* \"KYC.sol\":3328:3342  users[manager] */\n              0xffffffffffffffffffffffffffffffffffffffff\n              and\n              0xffffffffffffffffffffffffffffffffffffffff\n              and\n              dup2\n              mstore\n              0x20\n              add\n              swap1\n              dup2\n              mstore\n              0x20\n              add\n              0x00\n              keccak256\n                /* \"KYC.sol\":3328:3352  users[manager].birthdate */\n              0x03\n              add\n                /* \"KYC.sol\":3353:3358  users */\n              0x01\n                /* \"KYC.sol\":3353:3367  users[manager] */\n              0x00\n                /* \"KYC.sol\":3359:3366  manager */\n              0x02\n              0x00\n              swap1\n              sload\n              swap1\n              0x0100\n              exp\n              swap1\n              div\n              0xffffffffffffffffffffffffffffffffffffffff\n              and\n                /* \"KYC.sol\":3353:3367  users[manager] */\n              0xffffffffffffffffffffffffffffffffffffffff\n              and\n              0xffffffffffffffffffffffffffffffffffffffff\n              and\n              dup2\n              mstore\n              0x20\n              add\n              swap1\n              dup2\n              mstore\n              0x20\n              add\n              0x00\n              keccak256\n                /* \"KYC.sol\":3353:3371  users[manager].add */\n              0x04\n              add\n                /* \"KYC.sol\":3372:3377  users */\n              0x01\n                /* \"KYC.sol\":3372:3386  users[manager] */\n              0x00\n                /* \"KYC.sol\":3378:3385  manager */\n              0x02\n              0x00\n              swap1\n              sload\n              swap1\n              0x0100\n              exp\n              swap1\n              div\n              0xffffffffffffffffffffffffffffffffffffffff\n              and\n                /* \"KYC.sol\":3372:3386  users[manager] */\n              0xffffffffffffffffffffffffffffffffffffffff\n              and\n              0xffffffffffffffffffffffffffffffffffffffff\n              and\n              dup2\n              mstore\n              0x20\n              add\n              swap1\n              dup2\n              mstore\n              0x20\n              add\n              0x00\n              keccak256\n                /* \"KYC.sol\":3372:3390  users[manager].mob */\n              0x05\n              add\n              sload\n                /* \"KYC.sol\":3391:3396  users */\n              0x01\n                /* \"KYC.sol\":3391:3405  users[manager] */\n              0x00\n                /* \"KYC.sol\":3397:3404  manager */\n              0x02\n              0x00\n              swap1\n              sload\n              swap1\n              0x0100\n              exp\n              swap1\n              div\n              0xffffffffffffffffffffffffffffffffffffffff\n              and\n                /* \"KYC.sol\":3391:3405  users[manager] */\n              0xffffffffffffffffffffffffffffffffffffffff\n              and\n              0xffffffffffffffffffffffffffffffffffffffff\n              and\n              dup2\n              mstore\n              0x20\n              add\n              swap1\n              dup2\n              mstore\n              0x20\n              add\n              0x00\n              keccak256\n                /* \"KYC.sol\":3391:3411  users[manager].email */\n              0x06\n              add\n                /* \"KYC.sol\":3412:3417  users */\n              0x01\n                /* \"KYC.sol\":3412:3426  users[manager] */\n              0x00\n                /* \"KYC.sol\":3418:3425  manager */\n              0x02\n              0x00\n              swap1\n              sload\n              swap1\n              0x0100\n              exp\n              swap1\n              div\n              0xffffffffffffffffffffffffffffffffffffffff\n              and\n                /* \"KYC.sol\":3412:3426  users[manager] */\n              0xffffffffffffffffffffffffffffffffffffffff\n              and\n              0xffffffffffffffffffffffffffffffffffffffff\n              and\n              dup2\n              mstore\n              0x20\n              add\n              swap1\n              dup2\n              mstore\n              0x20\n              add\n              0x00\n              keccak256\n                /* \"KYC.sol\":3412:3433  users[manager].aadhar */\n              0x07\n              add\n              sload\n                /* \"KYC.sol\":3434:3439  users */\n              0x01\n                /* \"KYC.sol\":3434:3448  users[manager] */\n              0x00\n                /* \"KYC.sol\":3440:3447  manager */\n              0x02\n              0x00\n              swap1\n              sload\n              swap1\n              0x0100\n              exp\n              swap1\n              div\n              0xffffffffffffffffffffffffffffffffffffffff\n              and\n                /* \"KYC.sol\":3434:3448  users[manager] */\n              0xffffffffffffffffffffffffffffffffffffffff\n              and\n              0xffffffffffffffffffffffffffffffffffffffff\n              and\n              dup2\n              mstore\n              0x20\n              add\n              swap1\n              dup2\n              mstore\n              0x20\n              add\n              0x00\n              keccak256\n                /* \"KYC.sol\":3434:3452  users[manager].pan */\n              0x08\n              add\n                /* \"KYC.sol\":3256:3453  return (users[manager].name,users[manager].father,users[manager].mother,users[manager].birthdate,users[manager].add,users[manager].mob,users[manager].email,users[manager].aadhar,users[manager].pan) */\n              dup9\n              dup1\n              sload\n              tag_53\n              swap1\n              tag_54\n              jump\t// in\n            tag_53:\n              dup1\n              0x1f\n              add\n              0x20\n              dup1\n              swap2\n              div\n              mul\n              0x20\n              add\n              mload(0x40)\n              swap1\n              dup2\n              add\n              0x40\n              mstore\n              dup1\n              swap3\n              swap2\n              swap1\n              dup2\n              dup2\n              mstore\n              0x20\n              add\n              dup3\n              dup1\n              sload\n              tag_55\n              swap1\n              tag_54\n              jump\t// in\n            tag_55:\n              dup1\n              iszero\n              tag_56\n              jumpi\n              dup1\n              0x1f\n              lt\n              tag_57\n              jumpi\n              0x0100\n              dup1\n              dup4\n              sload\n              div\n              mul\n              dup4\n              mstore\n              swap2\n              0x20\n              add\n              swap2\n              jump(tag_56)\n            tag_57:\n              dup3\n              add\n              swap2\n              swap1\n              0x00\n              mstore\n              keccak256(0x00, 0x20)\n              swap1\n            tag_58:\n              dup2\n              sload\n              dup2\n              mstore\n              swap1\n              0x01\n              add\n              swap1\n              0x20\n              add\n              dup1\n              dup4\n              gt\n              tag_58\n              jumpi\n              dup3\n              swap1\n              sub\n              0x1f\n              and\n              dup3\n              add\n              swap2\n            tag_56:\n              pop\n              pop\n              pop\n              pop\n              pop\n              swap9\n              pop\n              dup8\n              dup1\n              sload\n              tag_59\n              swap1\n              tag_54\n              jump\t// in\n            tag_59:\n              dup1\n              0x1f\n              add\n              0x20\n              dup1\n              swap2\n              div\n              mul\n              0x20\n              add\n              mload(0x40)\n              swap1\n              dup2\n              add\n              0x40\n              mstore\n              dup1\n              swap3\n              swap2\n              swap1\n              dup2\n              dup2\n              mstore\n              0x20\n              add\n              dup3\n              dup1\n              sload\n              tag_60\n              swap1\n              tag_54\n              jump\t// in\n            tag_60:\n              dup1\n              iszero\n              tag_61\n              jumpi\n              dup1\n              0x1f\n              lt\n              tag_62\n              jumpi\n              0x0100\n              dup1\n              dup4\n              sload\n              div\n              mul\n              dup4\n              mstore\n              swap2\n              0x20\n              add\n              swap2\n              jump(tag_61)\n            tag_62:\n              dup3\n              add\n              swap2\n              swap1\n              0x00\n              mstore\n              keccak256(0x00, 0x20)\n              swap1\n            tag_63:\n              dup2\n              sload\n              dup2\n              mstore\n              swap1\n              0x01\n              add\n              swap1\n              0x20\n              add\n              dup1\n              dup4\n              gt\n              tag_63\n              jumpi\n              dup3\n              swap1\n              sub\n              0x1f\n              and\n              dup3\n              add\n              swap2\n            tag_61:\n              pop\n              pop\n              pop\n              pop\n              pop\n              swap8\n              pop\n              dup7\n              dup1\n              sload\n              tag_64\n              swap1\n              tag_54\n              jump\t// in\n            tag_64:\n              dup1\n              0x1f\n              add\n              0x20\n              dup1\n              swap2\n              div\n              mul\n              0x20\n              add\n              mload(0x40)\n              swap1\n              dup2\n              add\n              0x40\n              mstore\n              dup1\n              swap3\n              swap2\n              swap1\n              dup2\n              dup2\n              mstore\n              0x20\n              add\n              dup3\n              dup1\n              sload\n              tag_65\n              swap1\n              tag_54\n              jump\t// in\n            tag_65:\n              dup1\n              iszero\n              tag_66\n              jumpi\n              dup1\n              0x1f\n              lt\n              tag_67\n              jumpi\n              0x0100\n              dup1\n              dup4\n              sload\n              div\n              mul\n              dup4\n              mstore\n              swap2\n              0x20\n              add\n              swap2\n              jump(tag_66)\n            tag_67:\n              dup3\n              add\n              swap2\n              swap1\n              0x00\n              mstore\n              keccak256(0x00, 0x20)\n              swap1\n            tag_68:\n              dup2\n              sload\n              dup2\n              mstore\n              swap1\n              0x01\n              add\n              swap1\n              0x20\n              add\n              dup1\n              dup4\n              gt\n              tag_68\n              jumpi\n              dup3\n              swap1\n              sub\n              0x1f\n              and\n              dup3\n              add\n              swap2\n            tag_66:\n              pop\n              pop\n              pop\n              pop\n              pop\n              swap7\n              pop\n              dup6\n              dup1\n              sload\n              tag_69\n              swap1\n              tag_54\n              jump\t// in\n            tag_69:\n              dup1\n              0x1f\n              add\n              0x20\n              dup1\n              swap2\n              div\n              mul\n              0x20\n              add\n              mload(0x40)\n              swap1\n              dup2\n              add\n              0x40\n              mstore\n              dup1\n              swap3\n              swap2\n              swap1\n              dup2\n              dup2\n              mstore\n              0x20\n              add\n              dup3\n              dup1\n              sload\n              tag_70\n              swap1\n              tag_54\n              jump\t// in\n            tag_70:\n              dup1\n              iszero\n              tag_71\n              jumpi\n              dup1\n              0x1f\n              lt\n              tag_72\n              jumpi\n              0x0100\n              dup1\n              dup4\n              sload\n              div\n              mul\n              dup4\n              mstore\n              swap2\n              0x20\n              add\n              swap2\n              jump(tag_71)\n            tag_72:\n              dup3\n              add\n              swap2\n              swap1\n              0x00\n              mstore\n              keccak256(0x00, 0x20)\n              swap1\n            tag_73:\n              dup2\n              sload\n              dup2\n              mstore\n              swap1\n              0x01\n              add\n              swap1\n              0x20\n              add\n              dup1\n              dup4\n              gt\n              tag_73\n              jumpi\n              dup3\n              swap1\n              sub\n              0x1f\n              and\n              dup3\n              add\n              swap2\n            tag_71:\n              pop\n              pop\n              pop\n              pop\n              pop\n              swap6\n              pop\n              dup5\n              dup1\n              sload\n              tag_74\n              swap1\n              tag_54\n              jump\t// in\n            tag_74:\n              dup1\n              0x1f\n              add\n              0x20\n              dup1\n              swap2\n              div\n              mul\n              0x20\n              add\n              mload(0x40)\n              swap1\n              dup2\n              add\n              0x40\n              mstore\n              dup1\n              swap3\n              swap2\n              swap1\n              dup2\n              dup2\n              mstore\n              0x20\n              add\n              dup3\n              dup1\n              sload\n              tag_75\n              swap1\n              tag_54\n              jump\t// in\n            tag_75:\n              dup1\n              iszero\n              tag_76\n              jumpi\n              dup1\n              0x1f\n              lt\n              tag_77\n              jumpi\n              0x0100\n              dup1\n              dup4\n              sload\n              div\n              mul\n              dup4\n              mstore\n              swap2\n              0x20\n              add\n              swap2\n              jump(tag_76)\n            tag_77:\n              dup3\n              add\n              swap2\n              swap1\n              0x00\n              mstore\n              keccak256(0x00, 0x20)\n              swap1\n            tag_78:\n              dup2\n              sload\n              dup2\n              mstore\n              swap1\n              0x01\n              add\n              swap1\n              0x20\n              add\n              dup1\n              dup4\n              gt\n              tag_78\n              jumpi\n              dup3\n              swap1\n              sub\n              0x1f\n              and\n              dup3\n              add\n              swap2\n            tag_76:\n              pop\n              pop\n              pop\n              pop\n              pop\n              swap5\n              pop\n              dup3\n              dup1\n              sload\n              tag_79\n              swap1\n              tag_54\n              jump\t// in\n            tag_79:\n              dup1\n              0x1f\n              add\n              0x20\n              dup1\n              swap2\n              div\n              mul\n              0x20\n              add\n              mload(0x40)\n              swap1\n              dup2\n              add\n              0x40\n              mstore\n              dup1\n              swap3\n              swap2\n              swap1\n              dup2\n              dup2\n              mstore\n              0x20\n              add\n              dup3\n              dup1\n              sload\n              tag_80\n              swap1\n              tag_54\n              jump\t// in\n            tag_80:\n              dup1\n              iszero\n              tag_81\n              jumpi\n              dup1\n              0x1f\n              lt\n              tag_82\n              jumpi\n              0x0100\n              dup1\n              dup4\n              sload\n              div\n              mul\n              dup4\n              mstore\n              swap2\n              0x20\n              add\n              swap2\n              jump(tag_81)\n            tag_82:\n              dup3\n              add\n              swap2\n              swap1\n              0x00\n              mstore\n              keccak256(0x00, 0x20)\n              swap1\n            tag_83:\n              dup2\n              sload\n              dup2\n              mstore\n              swap1\n              0x01\n              add\n              swap1\n              0x20\n              add\n              dup1\n              dup4\n              gt\n              tag_83\n              jumpi\n              dup3\n              swap1\n              sub\n              0x1f\n              and\n              dup3\n              add\n              swap2\n            tag_81:\n              pop\n              pop\n              pop\n              pop\n              pop\n              swap3\n              pop\n              dup1\n              dup1\n              sload\n              tag_84\n              swap1\n              tag_54\n              jump\t// in\n            tag_84:\n              dup1\n              0x1f\n              add\n              0x20\n              dup1\n              swap2\n              div\n              mul\n              0x20\n              add\n              mload(0x40)\n              swap1\n              dup2\n              add\n              0x40\n              mstore\n              dup1\n              swap3\n              swap2\n              swap1\n              dup2\n              dup2\n              mstore\n              0x20\n              add\n              dup3\n              dup1\n              sload\n              tag_85\n              swap1\n              tag_54\n              jump\t// in\n            tag_85:\n              dup1\n              iszero\n              tag_86\n              jumpi\n              dup1\n              0x1f\n              lt\n              tag_87\n              jumpi\n              0x0100\n              dup1\n              dup4\n              sload\n              div\n              mul\n              dup4\n              mstore\n              swap2\n              0x20\n              add\n              swap2\n              jump(tag_86)\n            tag_87:\n              dup3\n              add\n              swap2\n              swap1\n              0x00\n              mstore\n              keccak256(0x00, 0x20)\n              swap1\n            tag_88:\n              dup2\n              sload\n              dup2\n              mstore\n              swap1\n              0x01\n              add\n              swap1\n              0x20\n              add\n              dup1\n              dup4\n              gt\n              tag_88\n              jumpi\n              dup3\n              swap1\n              sub\n              0x1f\n              and\n              dup3\n              add\n              swap2\n            tag_86:\n              pop\n              pop\n              pop\n              pop\n              pop\n              swap1\n              pop\n              swap9\n              pop\n              swap9\n              pop\n              swap9\n              pop\n              swap9\n              pop\n              swap9\n              pop\n              swap9\n              pop\n              swap9\n              pop\n              swap9\n              pop\n              swap9\n              pop\n                /* \"KYC.sol\":3065:3461  function getUserDetails() public view agentRestricted... */\n              swap1\n              swap2\n              swap3\n              swap4\n              swap5\n              swap6\n              swap7\n              swap8\n              swap9\n              jump\t// out\n                /* \"KYC.sol\":1840:2478  function addUser(string memory n, string memory f, string memory m, string memory d, string memory ad, uint mo,string memory e,uint aadhar,string memory pan) ... */\n            tag_30:\n                /* \"KYC.sol\":1577:1584  manager */\n              0x02\n              0x00\n              swap1\n              sload\n              swap1\n              0x0100\n              exp\n              swap1\n              div\n              0xffffffffffffffffffffffffffffffffffffffff\n              and\n                /* \"KYC.sol\":1563:1584  msg.sender == manager */\n              0xffffffffffffffffffffffffffffffffffffffff\n              and\n                /* \"KYC.sol\":1563:1573  msg.sender */\n              caller\n                /* \"KYC.sol\":1563:1584  msg.sender == manager */\n              0xffffffffffffffffffffffffffffffffffffffff\n              and\n              eq\n                /* \"KYC.sol\":1555:1585  require(msg.sender == manager) */\n              tag_90\n              jumpi\n              0x00\n              dup1\n              revert\n            tag_90:\n                /* \"KYC.sol\":2036:2049  address entry */\n              0x00\n                /* \"KYC.sol\":2052:2062  msg.sender */\n              caller\n                /* \"KYC.sol\":2036:2062  address entry = msg.sender */\n              swap1\n              pop\n                /* \"KYC.sol\":2082:2087  users */\n              0x01\n                /* \"KYC.sol\":2082:2094  users[entry] */\n              0x00\n                /* \"KYC.sol\":2088:2093  entry */\n              dup3\n                /* \"KYC.sol\":2082:2094  users[entry] */\n              0xffffffffffffffffffffffffffffffffffffffff\n              and\n              0xffffffffffffffffffffffffffffffffffffffff\n              and\n              dup2\n              mstore\n              0x20\n              add\n              swap1\n              dup2\n              mstore\n              0x20\n              add\n              0x00\n              keccak256\n                /* \"KYC.sol\":2082:2098  users[entry].set */\n              0x09\n              add\n              0x00\n              swap1\n              sload\n              swap1\n              0x0100\n              exp\n              swap1\n              div\n              0xff\n              and\n                /* \"KYC.sol\":2081:2098  !users[entry].set */\n              iszero\n                /* \"KYC.sol\":2073:2099  require(!users[entry].set) */\n              tag_92\n              jumpi\n              0x00\n              dup1\n              revert\n            tag_92:\n                /* \"KYC.sol\":2125:2130  entry */\n              dup1\n                /* \"KYC.sol\":2110:2122  usersAddress */\n              0x00\n              dup1\n                /* \"KYC.sol\":2110:2130  usersAddress = entry */\n              0x0100\n              exp\n              dup2\n              sload\n              dup2\n              0xffffffffffffffffffffffffffffffffffffffff\n              mul\n              not\n              and\n              swap1\n              dup4\n              0xffffffffffffffffffffffffffffffffffffffff\n              and\n              mul\n              or\n              swap1\n              sstore\n              pop\n                /* \"KYC.sol\":2161:2162  n */\n              dup10\n                /* \"KYC.sol\":2141:2146  users */\n              0x01\n                /* \"KYC.sol\":2141:2153  users[entry] */\n              0x00\n                /* \"KYC.sol\":2147:2152  entry */\n              dup4\n                /* \"KYC.sol\":2141:2153  users[entry] */\n              0xffffffffffffffffffffffffffffffffffffffff\n              and\n              0xffffffffffffffffffffffffffffffffffffffff\n              and\n              dup2\n              mstore\n              0x20\n              add\n              swap1\n              dup2\n              mstore\n              0x20\n              add\n              0x00\n              keccak256\n                /* \"KYC.sol\":2141:2158  users[entry].name */\n              0x00\n              add\n                /* \"KYC.sol\":2141:2162  users[entry].name = n */\n              swap1\n              dup1\n              mload\n              swap1\n              0x20\n              add\n              swap1\n              tag_93\n              swap3\n              swap2\n              swap1\n              tag_45\n              jump\t// in\n            tag_93:\n              pop\n                /* \"KYC.sol\":2195:2196  f */\n              dup9\n                /* \"KYC.sol\":2173:2178  users */\n              0x01\n                /* \"KYC.sol\":2173:2185  users[entry] */\n              0x00\n                /* \"KYC.sol\":2179:2184  entry */\n              dup4\n                /* \"KYC.sol\":2173:2185  users[entry] */\n              0xffffffffffffffffffffffffffffffffffffffff\n              and\n              0xffffffffffffffffffffffffffffffffffffffff\n              and\n              dup2\n              mstore\n              0x20\n              add\n              swap1\n              dup2\n              mstore\n              0x20\n              add\n              0x00\n              keccak256\n                /* \"KYC.sol\":2173:2192  users[entry].father */\n              0x01\n              add\n                /* \"KYC.sol\":2173:2196  users[entry].father = f */\n              swap1\n              dup1\n              mload\n              swap1\n              0x20\n              add\n              swap1\n              tag_94\n              swap3\n              swap2\n              swap1\n              tag_45\n              jump\t// in\n            tag_94:\n              pop\n                /* \"KYC.sol\":2229:2230  m */\n              dup8\n                /* \"KYC.sol\":2207:2212  users */\n              0x01\n                /* \"KYC.sol\":2207:2219  users[entry] */\n              0x00\n                /* \"KYC.sol\":2213:2218  entry */\n              dup4\n                /* \"KYC.sol\":2207:2219  users[entry] */\n              0xffffffffffffffffffffffffffffffffffffffff\n              and\n              0xffffffffffffffffffffffffffffffffffffffff\n              and\n              dup2\n              mstore\n              0x20\n              add\n              swap1\n              dup2\n              mstore\n              0x20\n              add\n              0x00\n              keccak256\n                /* \"KYC.sol\":2207:2226  users[entry].mother */\n              0x02\n              add\n                /* \"KYC.sol\":2207:2230  users[entry].mother = m */\n              swap1\n              dup1\n              mload\n              swap1\n              0x20\n              add\n              swap1\n              tag_95\n              swap3\n              swap2\n              swap1\n              tag_45\n              jump\t// in\n            tag_95:\n              pop\n                /* \"KYC.sol\":2266:2267  d */\n              dup7\n                /* \"KYC.sol\":2241:2246  users */\n              0x01\n                /* \"KYC.sol\":2241:2253  users[entry] */\n              0x00\n                /* \"KYC.sol\":2247:2252  entry */\n              dup4\n                /* \"KYC.sol\":2241:2253  users[entry] */\n              0xffffffffffffffffffffffffffffffffffffffff\n              and\n              0xffffffffffffffffffffffffffffffffffffffff\n              and\n              dup2\n              mstore\n              0x20\n              add\n              swap1\n              dup2\n              mstore\n              0x20\n              add\n              0x00\n              keccak256\n                /* \"KYC.sol\":2241:2263  users[entry].birthdate */\n              0x03\n              add\n                /* \"KYC.sol\":2241:2267  users[entry].birthdate = d */\n              swap1\n              dup1\n              mload\n              swap1\n              0x20\n              add\n              swap1\n              tag_96\n              swap3\n              swap2\n              swap1\n              tag_45\n              jump\t// in\n            tag_96:\n              pop\n                /* \"KYC.sol\":2297:2299  ad */\n              dup6\n                /* \"KYC.sol\":2278:2283  users */\n              0x01\n                /* \"KYC.sol\":2278:2290  users[entry] */\n              0x00\n                /* \"KYC.sol\":2284:2289  entry */\n              dup4\n                /* \"KYC.sol\":2278:2290  users[entry] */\n              0xffffffffffffffffffffffffffffffffffffffff\n              and\n              0xffffffffffffffffffffffffffffffffffffffff\n              and\n              dup2\n              mstore\n              0x20\n              add\n              swap1\n              dup2\n              mstore\n              0x20\n              add\n              0x00\n              keccak256\n                /* \"KYC.sol\":2278:2294  users[entry].add */\n              0x04\n              add\n                /* \"KYC.sol\":2278:2299  users[entry].add = ad */\n              swap1\n              dup1\n              mload\n              swap1\n              0x20\n              add\n              swap1\n              tag_97\n              swap3\n              swap2\n              swap1\n              tag_45\n              jump\t// in\n            tag_97:\n              pop\n                /* \"KYC.sol\":2329:2331  mo */\n              dup5\n                /* \"KYC.sol\":2310:2315  users */\n              0x01\n                /* \"KYC.sol\":2310:2322  users[entry] */\n              0x00\n                /* \"KYC.sol\":2316:2321  entry */\n              dup4\n                /* \"KYC.sol\":2310:2322  users[entry] */\n              0xffffffffffffffffffffffffffffffffffffffff\n              and\n              0xffffffffffffffffffffffffffffffffffffffff\n              and\n              dup2\n              mstore\n              0x20\n              add\n              swap1\n              dup2\n              mstore\n              0x20\n              add\n              0x00\n              keccak256\n                /* \"KYC.sol\":2310:2326  users[entry].mob */\n              0x05\n              add\n                /* \"KYC.sol\":2310:2331  users[entry].mob = mo */\n              dup2\n              swap1\n              sstore\n              pop\n                /* \"KYC.sol\":2363:2364  e */\n              dup4\n                /* \"KYC.sol\":2342:2347  users */\n              0x01\n                /* \"KYC.sol\":2342:2354  users[entry] */\n              0x00\n                /* \"KYC.sol\":2348:2353  entry */\n              dup4\n                /* \"KYC.sol\":2342:2354  users[entry] */\n              0xffffffffffffffffffffffffffffffffffffffff\n              and\n              0xffffffffffffffffffffffffffffffffffffffff\n              and\n              dup2\n              mstore\n              0x20\n              add\n              swap1\n              dup2\n              mstore\n              0x20\n              add\n              0x00\n              keccak256\n                /* \"KYC.sol\":2342:2360  users[entry].email */\n              0x06\n              add\n                /* \"KYC.sol\":2342:2364  users[entry].email = e */\n              swap1\n              dup1\n              mload\n              swap1\n              0x20\n              add\n              swap1\n              tag_98\n              swap3\n              swap2\n              swap1\n              tag_45\n              jump\t// in\n            tag_98:\n              pop\n                /* \"KYC.sol\":2397:2403  aadhar */\n              dup3\n                /* \"KYC.sol\":2375:2380  users */\n              0x01\n                /* \"KYC.sol\":2375:2387  users[entry] */\n              0x00\n                /* \"KYC.sol\":2381:2386  entry */\n              dup4\n                /* \"KYC.sol\":2375:2387  users[entry] */\n              0xffffffffffffffffffffffffffffffffffffffff\n              and\n              0xffffffffffffffffffffffffffffffffffffffff\n              and\n              dup2\n              mstore\n              0x20\n              add\n              swap1\n              dup2\n              mstore\n              0x20\n              add\n              0x00\n              keccak256\n                /* \"KYC.sol\":2375:2394  users[entry].aadhar */\n              0x07\n              add\n                /* \"KYC.sol\":2375:2403  users[entry].aadhar = aadhar */\n              dup2\n              swap1\n              sstore\n              pop\n                /* \"KYC.sol\":2433:2436  pan */\n              dup2\n                /* \"KYC.sol\":2414:2419  users */\n              0x01\n                /* \"KYC.sol\":2414:2426  users[entry] */\n              0x00\n                /* \"KYC.sol\":2420:2425  entry */\n              dup4\n                /* \"KYC.sol\":2414:2426  users[entry] */\n              0xffffffffffffffffffffffffffffffffffffffff\n              and\n              0xffffffffffffffffffffffffffffffffffffffff\n              and\n              dup2\n              mstore\n              0x20\n              add\n              swap1\n              dup2\n              mstore\n              0x20\n              add\n              0x00\n              keccak256\n                /* \"KYC.sol\":2414:2430  users[entry].pan */\n              0x08\n              add\n                /* \"KYC.sol\":2414:2436  users[entry].pan = pan */\n              swap1\n              dup1\n              mload\n              swap1\n              0x20\n              add\n              swap1\n              tag_99\n              swap3\n              swap2\n              swap1\n              tag_45\n              jump\t// in\n            tag_99:\n              pop\n                /* \"KYC.sol\":2466:2470  true */\n              0x01\n                /* \"KYC.sol\":2447:2452  users */\n              dup1\n                /* \"KYC.sol\":2447:2459  users[entry] */\n              0x00\n                /* \"KYC.sol\":2453:2458  entry */\n              dup4\n                /* \"KYC.sol\":2447:2459  users[entry] */\n              0xffffffffffffffffffffffffffffffffffffffff\n              and\n              0xffffffffffffffffffffffffffffffffffffffff\n              and\n              dup2\n              mstore\n              0x20\n              add\n              swap1\n              dup2\n              mstore\n              0x20\n              add\n              0x00\n              keccak256\n                /* \"KYC.sol\":2447:2463  users[entry].set */\n              0x09\n              add\n              0x00\n                /* \"KYC.sol\":2447:2470  users[entry].set = true */\n              0x0100\n              exp\n              dup2\n              sload\n              dup2\n              0xff\n              mul\n              not\n              and\n              swap1\n              dup4\n              iszero\n              iszero\n              mul\n              or\n              swap1\n              sstore\n              pop\n                /* \"KYC.sol\":2025:2478  {... */\n              pop\n                /* \"KYC.sol\":1840:2478  function addUser(string memory n, string memory f, string memory m, string memory d, string memory ad, uint mo,string memory e,uint aadhar,string memory pan) ... */\n              pop\n              pop\n              pop\n              pop\n              pop\n              pop\n              pop\n              pop\n              pop\n              jump\t// out\n                /* \"KYC.sol\":1487:1510  address public assigned */\n            tag_32:\n              0x03\n              0x00\n              swap1\n              sload\n              swap1\n              0x0100\n              exp\n              swap1\n              div\n              0xffffffffffffffffffffffffffffffffffffffff\n              and\n              dup2\n              jump\t// out\n                /* \"KYC.sol\":2591:3057  function getparticularUser() public view userRestricted... */\n            tag_35:\n                /* \"KYC.sol\":2660:2673  string memory */\n              0x60\n                /* \"KYC.sol\":2675:2688  string memory */\n              dup1\n                /* \"KYC.sol\":2690:2703  string memory */\n              0x60\n                /* \"KYC.sol\":2705:2718  string memory */\n              dup1\n                /* \"KYC.sol\":2720:2733  string memory */\n              0x60\n                /* \"KYC.sol\":2735:2739  uint */\n              0x00\n                /* \"KYC.sol\":2740:2753  string memory */\n              0x60\n                /* \"KYC.sol\":2754:2758  uint */\n              0x00\n                /* \"KYC.sol\":2759:2772  string memory */\n              0x60\n                /* \"KYC.sol\":1577:1584  manager */\n              0x02\n              0x00\n              swap1\n              sload\n              swap1\n              0x0100\n              exp\n              swap1\n              div\n              0xffffffffffffffffffffffffffffffffffffffff\n              and\n                /* \"KYC.sol\":1563:1584  msg.sender == manager */\n              0xffffffffffffffffffffffffffffffffffffffff\n              and\n                /* \"KYC.sol\":1563:1573  msg.sender */\n              caller\n                /* \"KYC.sol\":1563:1584  msg.sender == manager */\n              0xffffffffffffffffffffffffffffffffffffffff\n              and\n              eq\n                /* \"KYC.sol\":1555:1585  require(msg.sender == manager) */\n              tag_101\n              jumpi\n              0x00\n              dup1\n              revert\n            tag_101:\n                /* \"KYC.sol\":2792:2797  users */\n              0x01\n                /* \"KYC.sol\":2792:2809  users[msg.sender] */\n              0x00\n                /* \"KYC.sol\":2798:2808  msg.sender */\n              caller\n                /* \"KYC.sol\":2792:2809  users[msg.sender] */\n              0xffffffffffffffffffffffffffffffffffffffff\n              and\n              0xffffffffffffffffffffffffffffffffffffffff\n              and\n              dup2\n              mstore\n              0x20\n              add\n              swap1\n              dup2\n              mstore\n              0x20\n              add\n              0x00\n              keccak256\n                /* \"KYC.sol\":2792:2813  users[msg.sender].set */\n              0x09\n              add\n              0x00\n              swap1\n              sload\n              swap1\n              0x0100\n              exp\n              swap1\n              div\n              0xff\n              and\n                /* \"KYC.sol\":2784:2814  require(users[msg.sender].set) */\n              tag_103\n              jumpi\n              0x00\n              dup1\n              revert\n            tag_103:\n                /* \"KYC.sol\":2833:2838  users */\n              0x01\n                /* \"KYC.sol\":2833:2850  users[msg.sender] */\n              0x00\n                /* \"KYC.sol\":2839:2849  msg.sender */\n              caller\n                /* \"KYC.sol\":2833:2850  users[msg.sender] */\n              0xffffffffffffffffffffffffffffffffffffffff\n              and\n              0xffffffffffffffffffffffffffffffffffffffff\n              and\n              dup2\n              mstore\n              0x20\n              add\n              swap1\n              dup2\n              mstore\n              0x20\n              add\n              0x00\n              keccak256\n                /* \"KYC.sol\":2833:2855  users[msg.sender].name */\n              0x00\n              add\n                /* \"KYC.sol\":2856:2861  users */\n              0x01\n                /* \"KYC.sol\":2856:2873  users[msg.sender] */\n              0x00\n                /* \"KYC.sol\":2862:2872  msg.sender */\n              caller\n                /* \"KYC.sol\":2856:2873  users[msg.sender] */\n              0xffffffffffffffffffffffffffffffffffffffff\n              and\n              0xffffffffffffffffffffffffffffffffffffffff\n              and\n              dup2\n              mstore\n              0x20\n              add\n              swap1\n              dup2\n              mstore\n              0x20\n              add\n              0x00\n              keccak256\n                /* \"KYC.sol\":2856:2880  users[msg.sender].father */\n              0x01\n              add\n                /* \"KYC.sol\":2881:2886  users */\n              0x01\n                /* \"KYC.sol\":2881:2898  users[msg.sender] */\n              0x00\n                /* \"KYC.sol\":2887:2897  msg.sender */\n              caller\n                /* \"KYC.sol\":2881:2898  users[msg.sender] */\n              0xffffffffffffffffffffffffffffffffffffffff\n              and\n              0xffffffffffffffffffffffffffffffffffffffff\n              and\n              dup2\n              mstore\n              0x20\n              add\n              swap1\n              dup2\n              mstore\n              0x20\n              add\n              0x00\n              keccak256\n                /* \"KYC.sol\":2881:2905  users[msg.sender].mother */\n              0x02\n              add\n                /* \"KYC.sol\":2906:2911  users */\n              0x01\n                /* \"KYC.sol\":2906:2923  users[msg.sender] */\n              0x00\n                /* \"KYC.sol\":2912:2922  msg.sender */\n              caller\n                /* \"KYC.sol\":2906:2923  users[msg.sender] */\n              0xffffffffffffffffffffffffffffffffffffffff\n              and\n              0xffffffffffffffffffffffffffffffffffffffff\n              and\n              dup2\n              mstore\n              0x20\n              add\n              swap1\n              dup2\n              mstore\n              0x20\n              add\n              0x00\n              keccak256\n                /* \"KYC.sol\":2906:2933  users[msg.sender].birthdate */\n              0x03\n              add\n                /* \"KYC.sol\":2934:2939  users */\n              0x01\n                /* \"KYC.sol\":2934:2951  users[msg.sender] */\n              0x00\n                /* \"KYC.sol\":2940:2950  msg.sender */\n              caller\n                /* \"KYC.sol\":2934:2951  users[msg.sender] */\n              0xffffffffffffffffffffffffffffffffffffffff\n              and\n              0xffffffffffffffffffffffffffffffffffffffff\n              and\n              dup2\n              mstore\n              0x20\n              add\n              swap1\n              dup2\n              mstore\n              0x20\n              add\n              0x00\n              keccak256\n                /* \"KYC.sol\":2934:2955  users[msg.sender].add */\n              0x04\n              add\n                /* \"KYC.sol\":2956:2961  users */\n              0x01\n                /* \"KYC.sol\":2956:2973  users[msg.sender] */\n              0x00\n                /* \"KYC.sol\":2962:2972  msg.sender */\n              caller\n                /* \"KYC.sol\":2956:2973  users[msg.sender] */\n              0xffffffffffffffffffffffffffffffffffffffff\n              and\n              0xffffffffffffffffffffffffffffffffffffffff\n              and\n              dup2\n              mstore\n              0x20\n              add\n              swap1\n              dup2\n              mstore\n              0x20\n              add\n              0x00\n              keccak256\n                /* \"KYC.sol\":2956:2977  users[msg.sender].mob */\n              0x05\n              add\n              sload\n                /* \"KYC.sol\":2978:2983  users */\n              0x01\n                /* \"KYC.sol\":2978:2995  users[msg.sender] */\n              0x00\n                /* \"KYC.sol\":2984:2994  msg.sender */\n              caller\n                /* \"KYC.sol\":2978:2995  users[msg.sender] */\n              0xffffffffffffffffffffffffffffffffffffffff\n              and\n              0xffffffffffffffffffffffffffffffffffffffff\n              and\n              dup2\n              mstore\n              0x20\n              add\n              swap1\n              dup2\n              mstore\n              0x20\n              add\n              0x00\n              keccak256\n                /* \"KYC.sol\":2978:3001  users[msg.sender].email */\n              0x06\n              add\n                /* \"KYC.sol\":3002:3007  users */\n              0x01\n                /* \"KYC.sol\":3002:3019  users[msg.sender] */\n              0x00\n                /* \"KYC.sol\":3008:3018  msg.sender */\n              caller\n                /* \"KYC.sol\":3002:3019  users[msg.sender] */\n              0xffffffffffffffffffffffffffffffffffffffff\n              and\n              0xffffffffffffffffffffffffffffffffffffffff\n              and\n              dup2\n              mstore\n              0x20\n              add\n              swap1\n              dup2\n              mstore\n              0x20\n              add\n              0x00\n              keccak256\n                /* \"KYC.sol\":3002:3026  users[msg.sender].aadhar */\n              0x07\n              add\n              sload\n                /* \"KYC.sol\":3027:3032  users */\n              0x01\n                /* \"KYC.sol\":3027:3044  users[msg.sender] */\n              0x00\n                /* \"KYC.sol\":3033:3043  msg.sender */\n              caller\n                /* \"KYC.sol\":3027:3044  users[msg.sender] */\n              0xffffffffffffffffffffffffffffffffffffffff\n              and\n              0xffffffffffffffffffffffffffffffffffffffff\n              and\n              dup2\n              mstore\n              0x20\n              add\n              swap1\n              dup2\n              mstore\n              0x20\n              add\n              0x00\n              keccak256\n                /* \"KYC.sol\":3027:3048  users[msg.sender].pan */\n              0x08\n              add\n                /* \"KYC.sol\":2825:3049  return (users[msg.sender].name,users[msg.sender].father,users[msg.sender].mother,users[msg.sender].birthdate,users[msg.sender].add,users[msg.sender].mob,users[msg.sender].email,users[msg.sender].aadhar,users[msg.sender].pan) */\n              dup9\n              dup1\n              sload\n              tag_104\n              swap1\n              tag_54\n              jump\t// in\n            tag_104:\n              dup1\n              0x1f\n              add\n              0x20\n              dup1\n              swap2\n              div\n              mul\n              0x20\n              add\n              mload(0x40)\n              swap1\n              dup2\n              add\n              0x40\n              mstore\n              dup1\n              swap3\n              swap2\n              swap1\n              dup2\n              dup2\n              mstore\n              0x20\n              add\n              dup3\n              dup1\n              sload\n              tag_105\n              swap1\n              tag_54\n              jump\t// in\n            tag_105:\n              dup1\n              iszero\n              tag_106\n              jumpi\n              dup1\n              0x1f\n              lt\n              tag_107\n              jumpi\n              0x0100\n              dup1\n              dup4\n              sload\n              div\n              mul\n              dup4\n              mstore\n              swap2\n              0x20\n              add\n              swap2\n              jump(tag_106)\n            tag_107:\n              dup3\n              add\n              swap2\n              swap1\n              0x00\n              mstore\n              keccak256(0x00, 0x20)\n              swap1\n            tag_108:\n              dup2\n              sload\n              dup2\n              mstore\n              swap1\n              0x01\n              add\n              swap1\n              0x20\n              add\n              dup1\n              dup4\n              gt\n              tag_108\n              jumpi\n              dup3\n              swap1\n              sub\n              0x1f\n              and\n              dup3\n              add\n              swap2\n            tag_106:\n              pop\n              pop\n              pop\n              pop\n              pop\n              swap9\n              pop\n              dup8\n              dup1\n              sload\n              tag_109\n              swap1\n              tag_54\n              jump\t// in\n            tag_109:\n              dup1\n              0x1f\n              add\n              0x20\n              dup1\n              swap2\n              div\n              mul\n              0x20\n              add\n              mload(0x40)\n              swap1\n              dup2\n              add\n              0x40\n              mstore\n              dup1\n              swap3\n              swap2\n              swap1\n              dup2\n              dup2\n              mstore\n              0x20\n              add\n              dup3\n              dup1\n              sload\n              tag_110\n              swap1\n              tag_54\n              jump\t// in\n            tag_110:\n              dup1\n              iszero\n              tag_111\n              jumpi\n              dup1\n              0x1f\n              lt\n              tag_112\n              jumpi\n              0x0100\n              dup1\n              dup4\n              sload\n              div\n              mul\n              dup4\n              mstore\n              swap2\n              0x20\n              add\n              swap2\n              jump(tag_111)\n            tag_112:\n              dup3\n              add\n              swap2\n              swap1\n              0x00\n              mstore\n              keccak256(0x00, 0x20)\n              swap1\n            tag_113:\n              dup2\n              sload\n              dup2\n              mstore\n              swap1\n              0x01\n              add\n              swap1\n              0x20\n              add\n              dup1\n              dup4\n              gt\n              tag_113\n              jumpi\n              dup3\n              swap1\n              sub\n              0x1f\n              and\n              dup3\n              add\n              swap2\n            tag_111:\n              pop\n              pop\n              pop\n              pop\n              pop\n              swap8\n              pop\n              dup7\n              dup1\n              sload\n              tag_114\n              swap1\n              tag_54\n              jump\t// in\n            tag_114:\n              dup1\n              0x1f\n              add\n              0x20\n              dup1\n              swap2\n              div\n              mul\n              0x20\n              add\n              mload(0x40)\n              swap1\n              dup2\n              add\n              0x40\n              mstore\n              dup1\n              swap3\n              swap2\n              swap1\n              dup2\n              dup2\n              mstore\n              0x20\n              add\n              dup3\n              dup1\n              sload\n              tag_115\n              swap1\n              tag_54\n              jump\t// in\n            tag_115:\n              dup1\n              iszero\n              tag_116\n              jumpi\n              dup1\n              0x1f\n              lt\n              tag_117\n              jumpi\n              0x0100\n              dup1\n              dup4\n              sload\n              div\n              mul\n              dup4\n              mstore\n              swap2\n              0x20\n              add\n              swap2\n              jump(tag_116)\n            tag_117:\n              dup3\n              add\n              swap2\n              swap1\n              0x00\n              mstore\n              keccak256(0x00, 0x20)\n              swap1\n            tag_118:\n              dup2\n              sload\n              dup2\n              mstore\n              swap1\n              0x01\n              add\n              swap1\n              0x20\n              add\n              dup1\n              dup4\n              gt\n              tag_118\n              jumpi\n              dup3\n              swap1\n              sub\n              0x1f\n              and\n              dup3\n              add\n              swap2\n            tag_116:\n              pop\n              pop\n              pop\n              pop\n              pop\n              swap7\n              pop\n              dup6\n              dup1\n              sload\n              tag_119\n              swap1\n              tag_54\n              jump\t// in\n            tag_119:\n              dup1\n              0x1f\n              add\n              0x20\n              dup1\n              swap2\n              div\n              mul\n              0x20\n              add\n              mload(0x40)\n              swap1\n              dup2\n              add\n              0x40\n              mstore\n              dup1\n              swap3\n              swap2\n              swap1\n              dup2\n              dup2\n              mstore\n              0x20\n              add\n              dup3\n              dup1\n              sload\n              tag_120\n              swap1\n              tag_54\n              jump\t// in\n            tag_120:\n              dup1\n              iszero\n              tag_121\n              jumpi\n              dup1\n              0x1f\n              lt\n              tag_122\n              jumpi\n              0x0100\n              dup1\n              dup4\n              sload\n              div\n              mul\n              dup4\n              mstore\n              swap2\n              0x20\n              add\n              swap2\n              jump(tag_121)\n            tag_122:\n              dup3\n              add\n              swap2\n              swap1\n              0x00\n              mstore\n              keccak256(0x00, 0x20)\n              swap1\n            tag_123:\n              dup2\n              sload\n              dup2\n              mstore\n              swap1\n              0x01\n              add\n              swap1\n              0x20\n              add\n              dup1\n              dup4\n              gt\n              tag_123\n              jumpi\n              dup3\n              swap1\n              sub\n              0x1f\n              and\n              dup3\n              add\n              swap2\n            tag_121:\n              pop\n              pop\n              pop\n              pop\n              pop\n              swap6\n              pop\n              dup5\n              dup1\n              sload\n              tag_124\n              swap1\n              tag_54\n              jump\t// in\n            tag_124:\n              dup1\n              0x1f\n              add\n              0x20\n              dup1\n              swap2\n              div\n              mul\n              0x20\n              add\n              mload(0x40)\n              swap1\n              dup2\n              add\n              0x40\n              mstore\n              dup1\n              swap3\n              swap2\n              swap1\n              dup2\n              dup2\n              mstore\n              0x20\n              add\n              dup3\n              dup1\n              sload\n              tag_125\n              swap1\n              tag_54\n              jump\t// in\n            tag_125:\n              dup1\n              iszero\n              tag_126\n              jumpi\n              dup1\n              0x1f\n              lt\n              tag_127\n              jumpi\n              0x0100\n              dup1\n              dup4\n              sload\n              div\n              mul\n              dup4\n              mstore\n              swap2\n              0x20\n              add\n              swap2\n              jump(tag_126)\n            tag_127:\n              dup3\n              add\n              swap2\n              swap1\n              0x00\n              mstore\n              keccak256(0x00, 0x20)\n              swap1\n            tag_128:\n              dup2\n              sload\n              dup2\n              mstore\n              swap1\n              0x01\n              add\n              swap1\n              0x20\n              add\n              dup1\n              dup4\n              gt\n              tag_128\n              jumpi\n              dup3\n              swap1\n              sub\n              0x1f\n              and\n              dup3\n              add\n              swap2\n            tag_126:\n              pop\n              pop\n              pop\n              pop\n              pop\n              swap5\n              pop\n              dup3\n              dup1\n              sload\n              tag_129\n              swap1\n              tag_54\n              jump\t// in\n            tag_129:\n              dup1\n              0x1f\n              add\n              0x20\n              dup1\n              swap2\n              div\n              mul\n              0x20\n              add\n              mload(0x40)\n              swap1\n              dup2\n              add\n              0x40\n              mstore\n              dup1\n              swap3\n              swap2\n              swap1\n              dup2\n              dup2\n              mstore\n              0x20\n              add\n              dup3\n              dup1\n              sload\n              tag_130\n              swap1\n              tag_54\n              jump\t// in\n            tag_130:\n              dup1\n              iszero\n              tag_131\n              jumpi\n              dup1\n              0x1f\n              lt\n              tag_132\n              jumpi\n              0x0100\n              dup1\n              dup4\n              sload\n              div\n              mul\n              dup4\n              mstore\n              swap2\n              0x20\n              add\n              swap2\n              jump(tag_131)\n            tag_132:\n              dup3\n              add\n              swap2\n              swap1\n              0x00\n              mstore\n              keccak256(0x00, 0x20)\n              swap1\n            tag_133:\n              dup2\n              sload\n              dup2\n              mstore\n              swap1\n              0x01\n              add\n              swap1\n              0x20\n              add\n              dup1\n              dup4\n              gt\n              tag_133\n              jumpi\n              dup3\n              swap1\n              sub\n              0x1f\n              and\n              dup3\n              add\n              swap2\n            tag_131:\n              pop\n              pop\n              pop\n              pop\n              pop\n              swap3\n              pop\n              dup1\n              dup1\n              sload\n              tag_134\n              swap1\n              tag_54\n              jump\t// in\n            tag_134:\n              dup1\n              0x1f\n              add\n              0x20\n              dup1\n              swap2\n              div\n              mul\n              0x20\n              add\n              mload(0x40)\n              swap1\n              dup2\n              add\n              0x40\n              mstore\n              dup1\n              swap3\n              swap2\n              swap1\n              dup2\n              dup2\n              mstore\n              0x20\n              add\n              dup3\n              dup1\n              sload\n              tag_135\n              swap1\n              tag_54\n              jump\t// in\n            tag_135:\n              dup1\n              iszero\n              tag_136\n              jumpi\n              dup1\n              0x1f\n              lt\n              tag_137\n              jumpi\n              0x0100\n              dup1\n              dup4\n              sload\n              div\n              mul\n              dup4\n              mstore\n              swap2\n              0x20\n              add\n              swap2\n              jump(tag_136)\n            tag_137:\n              dup3\n              add\n              swap2\n              swap1\n              0x00\n              mstore\n              keccak256(0x00, 0x20)\n              swap1\n            tag_138:\n              dup2\n              sload\n              dup2\n              mstore\n              swap1\n              0x01\n              add\n              swap1\n              0x20\n              add\n              dup1\n              dup4\n              gt\n              tag_138\n              jumpi\n              dup3\n              swap1\n              sub\n              0x1f\n              and\n              dup3\n              add\n              swap2\n            tag_136:\n              pop\n              pop\n              pop\n              pop\n              pop\n              swap1\n              pop\n              swap9\n              pop\n              swap9\n              pop\n              swap9\n              pop\n              swap9\n              pop\n              swap9\n              pop\n              swap9\n              pop\n              swap9\n              pop\n              swap9\n              pop\n              swap9\n              pop\n                /* \"KYC.sol\":2591:3057  function getparticularUser() public view userRestricted... */\n              swap1\n              swap2\n              swap3\n              swap4\n              swap5\n              swap6\n              swap7\n              swap8\n              swap9\n              jump\t// out\n                /* \"KYC.sol\":2488:2583  function getDeployedUsers() public view returns(address) {... */\n            tag_38:\n                /* \"KYC.sol\":2536:2543  address */\n              0x00\n                /* \"KYC.sol\":2563:2575  usersAddress */\n              dup1\n              0x00\n              swap1\n              sload\n              swap1\n              0x0100\n              exp\n              swap1\n              div\n              0xffffffffffffffffffffffffffffffffffffffff\n              and\n                /* \"KYC.sol\":2556:2575  return usersAddress */\n              swap1\n              pop\n                /* \"KYC.sol\":2488:2583  function getDeployedUsers() public view returns(address) {... */\n              swap1\n              jump\t// out\n                /* \"KYC.sol\":1363:1390  address public usersAddress */\n            tag_41:\n              0x00\n              dup1\n              sload\n              swap1\n              0x0100\n              exp\n              swap1\n              div\n              0xffffffffffffffffffffffffffffffffffffffff\n              and\n              dup2\n              jump\t// out\n            tag_45:\n              dup3\n              dup1\n              sload\n              tag_140\n              swap1\n              tag_54\n              jump\t// in\n            tag_140:\n              swap1\n              0x00\n              mstore\n              keccak256(0x00, 0x20)\n              swap1\n              0x1f\n              add\n              0x20\n              swap1\n              div\n              dup2\n              add\n              swap3\n              dup3\n              tag_142\n              jumpi\n              0x00\n              dup6\n              sstore\n              jump(tag_141)\n            tag_142:\n              dup3\n              0x1f\n              lt\n              tag_143\n              jumpi\n              dup1\n              mload\n              not(0xff)\n              and\n              dup4\n              dup1\n              add\n              or\n              dup6\n              sstore\n              jump(tag_141)\n            tag_143:\n              dup3\n              dup1\n              add\n              0x01\n              add\n              dup6\n              sstore\n              dup3\n              iszero\n              tag_141\n              jumpi\n              swap2\n              dup3\n              add\n            tag_144:\n              dup3\n              dup2\n              gt\n              iszero\n              tag_145\n              jumpi\n              dup3\n              mload\n              dup3\n              sstore\n              swap2\n              0x20\n              add\n              swap2\n              swap1\n              0x01\n              add\n              swap1\n              jump(tag_144)\n            tag_145:\n            tag_141:\n              pop\n              swap1\n              pop\n              tag_146\n              swap2\n              swap1\n              tag_147\n              jump\t// in\n            tag_146:\n              pop\n              swap1\n              jump\t// out\n            tag_147:\n            tag_148:\n              dup1\n              dup3\n              gt\n              iszero\n              tag_149\n              jumpi\n              0x00\n              dup2\n              0x00\n              swap1\n              sstore\n              pop\n              0x01\n              add\n              jump(tag_148)\n            tag_149:\n              pop\n              swap1\n              jump\t// out\n                /* \"#utility.yul\":7:82   */\n            tag_150:\n                /* \"#utility.yul\":40:46   */\n              0x00\n                /* \"#utility.yul\":73:75   */\n              0x40\n                /* \"#utility.yul\":67:76   */\n              mload\n                /* \"#utility.yul\":57:76   */\n              swap1\n              pop\n                /* \"#utility.yul\":7:82   */\n              swap1\n              jump\t// out\n                /* \"#utility.yul\":88:205   */\n            tag_151:\n                /* \"#utility.yul\":197:198   */\n              0x00\n                /* \"#utility.yul\":194:195   */\n              dup1\n                /* \"#utility.yul\":187:199   */\n              revert\n                /* \"#utility.yul\":211:328   */\n            tag_152:\n                /* \"#utility.yul\":320:321   */\n              0x00\n                /* \"#utility.yul\":317:318   */\n              dup1\n                /* \"#utility.yul\":310:322   */\n              revert\n                /* \"#utility.yul\":334:451   */\n            tag_153:\n                /* \"#utility.yul\":443:444   */\n              0x00\n                /* \"#utility.yul\":440:441   */\n              dup1\n                /* \"#utility.yul\":433:445   */\n              revert\n                /* \"#utility.yul\":457:574   */\n            tag_154:\n                /* \"#utility.yul\":566:567   */\n              0x00\n                /* \"#utility.yul\":563:564   */\n              dup1\n                /* \"#utility.yul\":556:568   */\n              revert\n                /* \"#utility.yul\":580:682   */\n            tag_155:\n                /* \"#utility.yul\":621:627   */\n              0x00\n                /* \"#utility.yul\":672:674   */\n              0x1f\n                /* \"#utility.yul\":668:675   */\n              not\n                /* \"#utility.yul\":663:665   */\n              0x1f\n                /* \"#utility.yul\":656:661   */\n              dup4\n                /* \"#utility.yul\":652:666   */\n              add\n                /* \"#utility.yul\":648:676   */\n              and\n                /* \"#utility.yul\":638:676   */\n              swap1\n              pop\n                /* \"#utility.yul\":580:682   */\n              swap2\n              swap1\n              pop\n              jump\t// out\n                /* \"#utility.yul\":688:868   */\n            tag_156:\n                /* \"#utility.yul\":736:813   */\n              0x4e487b7100000000000000000000000000000000000000000000000000000000\n                /* \"#utility.yul\":733:734   */\n              0x00\n                /* \"#utility.yul\":726:814   */\n              mstore\n                /* \"#utility.yul\":833:837   */\n              0x41\n                /* \"#utility.yul\":830:831   */\n              0x04\n                /* \"#utility.yul\":823:838   */\n              mstore\n                /* \"#utility.yul\":857:861   */\n              0x24\n                /* \"#utility.yul\":854:855   */\n              0x00\n                /* \"#utility.yul\":847:862   */\n              revert\n                /* \"#utility.yul\":874:1155   */\n            tag_157:\n                /* \"#utility.yul\":957:984   */\n              tag_184\n                /* \"#utility.yul\":979:983   */\n              dup3\n                /* \"#utility.yul\":957:984   */\n              tag_155\n              jump\t// in\n            tag_184:\n                /* \"#utility.yul\":949:955   */\n              dup2\n                /* \"#utility.yul\":945:985   */\n              add\n                /* \"#utility.yul\":1087:1093   */\n              dup2\n                /* \"#utility.yul\":1075:1085   */\n              dup2\n                /* \"#utility.yul\":1072:1094   */\n              lt\n                /* \"#utility.yul\":1051:1069   */\n              0xffffffffffffffff\n                /* \"#utility.yul\":1039:1049   */\n              dup3\n                /* \"#utility.yul\":1036:1070   */\n              gt\n                /* \"#utility.yul\":1033:1095   */\n              or\n                /* \"#utility.yul\":1030:1118   */\n              iszero\n              tag_185\n              jumpi\n                /* \"#utility.yul\":1098:1116   */\n              tag_186\n              tag_156\n              jump\t// in\n            tag_186:\n                /* \"#utility.yul\":1030:1118   */\n            tag_185:\n                /* \"#utility.yul\":1138:1148   */\n              dup1\n                /* \"#utility.yul\":1134:1136   */\n              0x40\n                /* \"#utility.yul\":1127:1149   */\n              mstore\n                /* \"#utility.yul\":917:1155   */\n              pop\n                /* \"#utility.yul\":874:1155   */\n              pop\n              pop\n              jump\t// out\n                /* \"#utility.yul\":1161:1290   */\n            tag_158:\n                /* \"#utility.yul\":1195:1201   */\n              0x00\n                /* \"#utility.yul\":1222:1242   */\n              tag_188\n              tag_150\n              jump\t// in\n            tag_188:\n                /* \"#utility.yul\":1212:1242   */\n              swap1\n              pop\n                /* \"#utility.yul\":1251:1284   */\n              tag_189\n                /* \"#utility.yul\":1279:1283   */\n              dup3\n                /* \"#utility.yul\":1271:1277   */\n              dup3\n                /* \"#utility.yul\":1251:1284   */\n              tag_157\n              jump\t// in\n            tag_189:\n                /* \"#utility.yul\":1161:1290   */\n              swap2\n              swap1\n              pop\n              jump\t// out\n                /* \"#utility.yul\":1296:1604   */\n            tag_159:\n                /* \"#utility.yul\":1358:1362   */\n              0x00\n                /* \"#utility.yul\":1448:1466   */\n              0xffffffffffffffff\n                /* \"#utility.yul\":1440:1446   */\n              dup3\n                /* \"#utility.yul\":1437:1467   */\n              gt\n                /* \"#utility.yul\":1434:1490   */\n              iszero\n              tag_191\n              jumpi\n                /* \"#utility.yul\":1470:1488   */\n              tag_192\n              tag_156\n              jump\t// in\n            tag_192:\n                /* \"#utility.yul\":1434:1490   */\n            tag_191:\n                /* \"#utility.yul\":1508:1537   */\n              tag_193\n                /* \"#utility.yul\":1530:1536   */\n              dup3\n                /* \"#utility.yul\":1508:1537   */\n              tag_155\n              jump\t// in\n            tag_193:\n                /* \"#utility.yul\":1500:1537   */\n              swap1\n              pop\n                /* \"#utility.yul\":1592:1596   */\n              0x20\n                /* \"#utility.yul\":1586:1590   */\n              dup2\n                /* \"#utility.yul\":1582:1597   */\n              add\n                /* \"#utility.yul\":1574:1597   */\n              swap1\n              pop\n                /* \"#utility.yul\":1296:1604   */\n              swap2\n              swap1\n              pop\n              jump\t// out\n                /* \"#utility.yul\":1610:1764   */\n            tag_160:\n                /* \"#utility.yul\":1694:1700   */\n              dup3\n                /* \"#utility.yul\":1689:1692   */\n              dup2\n                /* \"#utility.yul\":1684:1687   */\n              dup4\n                /* \"#utility.yul\":1671:1701   */\n              calldatacopy\n                /* \"#utility.yul\":1756:1757   */\n              0x00\n                /* \"#utility.yul\":1747:1753   */\n              dup4\n                /* \"#utility.yul\":1742:1745   */\n              dup4\n                /* \"#utility.yul\":1738:1754   */\n              add\n                /* \"#utility.yul\":1731:1758   */\n              mstore\n                /* \"#utility.yul\":1610:1764   */\n              pop\n              pop\n              pop\n              jump\t// out\n                /* \"#utility.yul\":1770:2182   */\n            tag_161:\n                /* \"#utility.yul\":1848:1853   */\n              0x00\n                /* \"#utility.yul\":1873:1939   */\n              tag_196\n                /* \"#utility.yul\":1889:1938   */\n              tag_197\n                /* \"#utility.yul\":1931:1937   */\n              dup5\n                /* \"#utility.yul\":1889:1938   */\n              tag_159\n              jump\t// in\n            tag_197:\n                /* \"#utility.yul\":1873:1939   */\n              tag_158\n              jump\t// in\n            tag_196:\n                /* \"#utility.yul\":1864:1939   */\n              swap1\n              pop\n                /* \"#utility.yul\":1962:1968   */\n              dup3\n                /* \"#utility.yul\":1955:1960   */\n              dup2\n                /* \"#utility.yul\":1948:1969   */\n              mstore\n                /* \"#utility.yul\":2000:2004   */\n              0x20\n                /* \"#utility.yul\":1993:1998   */\n              dup2\n                /* \"#utility.yul\":1989:2005   */\n              add\n                /* \"#utility.yul\":2038:2041   */\n              dup5\n                /* \"#utility.yul\":2029:2035   */\n              dup5\n                /* \"#utility.yul\":2024:2027   */\n              dup5\n                /* \"#utility.yul\":2020:2036   */\n              add\n                /* \"#utility.yul\":2017:2042   */\n              gt\n                /* \"#utility.yul\":2014:2126   */\n              iszero\n              tag_198\n              jumpi\n                /* \"#utility.yul\":2045:2124   */\n              tag_199\n              tag_154\n              jump\t// in\n            tag_199:\n                /* \"#utility.yul\":2014:2126   */\n            tag_198:\n                /* \"#utility.yul\":2135:2176   */\n              tag_200\n                /* \"#utility.yul\":2169:2175   */\n              dup5\n                /* \"#utility.yul\":2164:2167   */\n              dup3\n                /* \"#utility.yul\":2159:2162   */\n              dup6\n                /* \"#utility.yul\":2135:2176   */\n              tag_160\n              jump\t// in\n            tag_200:\n                /* \"#utility.yul\":1854:2182   */\n              pop\n                /* \"#utility.yul\":1770:2182   */\n              swap4\n              swap3\n              pop\n              pop\n              pop\n              jump\t// out\n                /* \"#utility.yul\":2202:2542   */\n            tag_162:\n                /* \"#utility.yul\":2258:2263   */\n              0x00\n                /* \"#utility.yul\":2307:2310   */\n              dup3\n                /* \"#utility.yul\":2300:2304   */\n              0x1f\n                /* \"#utility.yul\":2292:2298   */\n              dup4\n                /* \"#utility.yul\":2288:2305   */\n              add\n                /* \"#utility.yul\":2284:2311   */\n              slt\n                /* \"#utility.yul\":2274:2396   */\n              tag_202\n              jumpi\n                /* \"#utility.yul\":2315:2394   */\n              tag_203\n              tag_153\n              jump\t// in\n            tag_203:\n                /* \"#utility.yul\":2274:2396   */\n            tag_202:\n                /* \"#utility.yul\":2432:2438   */\n              dup2\n                /* \"#utility.yul\":2419:2439   */\n              calldataload\n                /* \"#utility.yul\":2457:2536   */\n              tag_204\n                /* \"#utility.yul\":2532:2535   */\n              dup5\n                /* \"#utility.yul\":2524:2530   */\n              dup3\n                /* \"#utility.yul\":2517:2521   */\n              0x20\n                /* \"#utility.yul\":2509:2515   */\n              dup7\n                /* \"#utility.yul\":2505:2522   */\n              add\n                /* \"#utility.yul\":2457:2536   */\n              tag_161\n              jump\t// in\n            tag_204:\n                /* \"#utility.yul\":2448:2536   */\n              swap2\n              pop\n                /* \"#utility.yul\":2264:2542   */\n              pop\n                /* \"#utility.yul\":2202:2542   */\n              swap3\n              swap2\n              pop\n              pop\n              jump\t// out\n                /* \"#utility.yul\":2548:3057   */\n            tag_15:\n                /* \"#utility.yul\":2617:2623   */\n              0x00\n                /* \"#utility.yul\":2666:2668   */\n              0x20\n                /* \"#utility.yul\":2654:2663   */\n              dup3\n                /* \"#utility.yul\":2645:2652   */\n              dup5\n                /* \"#utility.yul\":2641:2664   */\n              sub\n                /* \"#utility.yul\":2637:2669   */\n              slt\n                /* \"#utility.yul\":2634:2753   */\n              iszero\n              tag_206\n              jumpi\n                /* \"#utility.yul\":2672:2751   */\n              tag_207\n              tag_151\n              jump\t// in\n            tag_207:\n                /* \"#utility.yul\":2634:2753   */\n            tag_206:\n                /* \"#utility.yul\":2820:2821   */\n              0x00\n                /* \"#utility.yul\":2809:2818   */\n              dup3\n                /* \"#utility.yul\":2805:2822   */\n              add\n                /* \"#utility.yul\":2792:2823   */\n              calldataload\n                /* \"#utility.yul\":2850:2868   */\n              0xffffffffffffffff\n                /* \"#utility.yul\":2842:2848   */\n              dup2\n                /* \"#utility.yul\":2839:2869   */\n              gt\n                /* \"#utility.yul\":2836:2953   */\n              iszero\n              tag_208\n              jumpi\n                /* \"#utility.yul\":2872:2951   */\n              tag_209\n              tag_152\n              jump\t// in\n            tag_209:\n                /* \"#utility.yul\":2836:2953   */\n            tag_208:\n                /* \"#utility.yul\":2977:3040   */\n              tag_210\n                /* \"#utility.yul\":3032:3039   */\n              dup5\n                /* \"#utility.yul\":3023:3029   */\n              dup3\n                /* \"#utility.yul\":3012:3021   */\n              dup6\n                /* \"#utility.yul\":3008:3030   */\n              add\n                /* \"#utility.yul\":2977:3040   */\n              tag_162\n              jump\t// in\n            tag_210:\n                /* \"#utility.yul\":2967:3040   */\n              swap2\n              pop\n                /* \"#utility.yul\":2763:3050   */\n              pop\n                /* \"#utility.yul\":2548:3057   */\n              swap3\n              swap2\n              pop\n              pop\n              jump\t// out\n                /* \"#utility.yul\":3063:3189   */\n            tag_163:\n                /* \"#utility.yul\":3100:3107   */\n              0x00\n                /* \"#utility.yul\":3140:3182   */\n              0xffffffffffffffffffffffffffffffffffffffff\n                /* \"#utility.yul\":3133:3138   */\n              dup3\n                /* \"#utility.yul\":3129:3183   */\n              and\n                /* \"#utility.yul\":3118:3183   */\n              swap1\n              pop\n                /* \"#utility.yul\":3063:3189   */\n              swap2\n              swap1\n              pop\n              jump\t// out\n                /* \"#utility.yul\":3195:3291   */\n            tag_164:\n                /* \"#utility.yul\":3232:3239   */\n              0x00\n                /* \"#utility.yul\":3261:3285   */\n              tag_213\n                /* \"#utility.yul\":3279:3284   */\n              dup3\n                /* \"#utility.yul\":3261:3285   */\n              tag_163\n              jump\t// in\n            tag_213:\n                /* \"#utility.yul\":3250:3285   */\n              swap1\n              pop\n                /* \"#utility.yul\":3195:3291   */\n              swap2\n              swap1\n              pop\n              jump\t// out\n                /* \"#utility.yul\":3297:3415   */\n            tag_165:\n                /* \"#utility.yul\":3384:3408   */\n              tag_215\n                /* \"#utility.yul\":3402:3407   */\n              dup2\n                /* \"#utility.yul\":3384:3408   */\n              tag_164\n              jump\t// in\n            tag_215:\n                /* \"#utility.yul\":3379:3382   */\n              dup3\n                /* \"#utility.yul\":3372:3409   */\n              mstore\n                /* \"#utility.yul\":3297:3415   */\n              pop\n              pop\n              jump\t// out\n                /* \"#utility.yul\":3421:3643   */\n            tag_22:\n                /* \"#utility.yul\":3514:3518   */\n              0x00\n                /* \"#utility.yul\":3552:3554   */\n              0x20\n                /* \"#utility.yul\":3541:3550   */\n              dup3\n                /* \"#utility.yul\":3537:3555   */\n              add\n                /* \"#utility.yul\":3529:3555   */\n              swap1\n              pop\n                /* \"#utility.yul\":3565:3636   */\n              tag_217\n                /* \"#utility.yul\":3633:3634   */\n              0x00\n                /* \"#utility.yul\":3622:3631   */\n              dup4\n                /* \"#utility.yul\":3618:3635   */\n              add\n                /* \"#utility.yul\":3609:3615   */\n              dup5\n                /* \"#utility.yul\":3565:3636   */\n              tag_165\n              jump\t// in\n            tag_217:\n                /* \"#utility.yul\":3421:3643   */\n              swap3\n              swap2\n              pop\n              pop\n              jump\t// out\n                /* \"#utility.yul\":3649:3748   */\n            tag_166:\n                /* \"#utility.yul\":3701:3707   */\n              0x00\n                /* \"#utility.yul\":3735:3740   */\n              dup2\n                /* \"#utility.yul\":3729:3741   */\n              mload\n                /* \"#utility.yul\":3719:3741   */\n              swap1\n              pop\n                /* \"#utility.yul\":3649:3748   */\n              swap2\n              swap1\n              pop\n              jump\t// out\n                /* \"#utility.yul\":3754:3923   */\n            tag_167:\n                /* \"#utility.yul\":3838:3849   */\n              0x00\n                /* \"#utility.yul\":3872:3878   */\n              dup3\n                /* \"#utility.yul\":3867:3870   */\n              dup3\n                /* \"#utility.yul\":3860:3879   */\n              mstore\n                /* \"#utility.yul\":3912:3916   */\n              0x20\n                /* \"#utility.yul\":3907:3910   */\n              dup3\n                /* \"#utility.yul\":3903:3917   */\n              add\n                /* \"#utility.yul\":3888:3917   */\n              swap1\n              pop\n                /* \"#utility.yul\":3754:3923   */\n              swap3\n              swap2\n              pop\n              pop\n              jump\t// out\n                /* \"#utility.yul\":3929:4236   */\n            tag_168:\n                /* \"#utility.yul\":3997:3998   */\n              0x00\n                /* \"#utility.yul\":4007:4120   */\n            tag_221:\n                /* \"#utility.yul\":4021:4027   */\n              dup4\n                /* \"#utility.yul\":4018:4019   */\n              dup2\n                /* \"#utility.yul\":4015:4028   */\n              lt\n                /* \"#utility.yul\":4007:4120   */\n              iszero\n              tag_223\n              jumpi\n                /* \"#utility.yul\":4106:4107   */\n              dup1\n                /* \"#utility.yul\":4101:4104   */\n              dup3\n                /* \"#utility.yul\":4097:4108   */\n              add\n                /* \"#utility.yul\":4091:4109   */\n              mload\n                /* \"#utility.yul\":4087:4088   */\n              dup2\n                /* \"#utility.yul\":4082:4085   */\n              dup5\n                /* \"#utility.yul\":4078:4089   */\n              add\n                /* \"#utility.yul\":4071:4110   */\n              mstore\n                /* \"#utility.yul\":4043:4045   */\n              0x20\n                /* \"#utility.yul\":4040:4041   */\n              dup2\n                /* \"#utility.yul\":4036:4046   */\n              add\n                /* \"#utility.yul\":4031:4046   */\n              swap1\n              pop\n                /* \"#utility.yul\":4007:4120   */\n              jump(tag_221)\n            tag_223:\n                /* \"#utility.yul\":4138:4144   */\n              dup4\n                /* \"#utility.yul\":4135:4136   */\n              dup2\n                /* \"#utility.yul\":4132:4145   */\n              gt\n                /* \"#utility.yul\":4129:4230   */\n              iszero\n              tag_224\n              jumpi\n                /* \"#utility.yul\":4218:4219   */\n              0x00\n                /* \"#utility.yul\":4209:4215   */\n              dup5\n                /* \"#utility.yul\":4204:4207   */\n              dup5\n                /* \"#utility.yul\":4200:4216   */\n              add\n                /* \"#utility.yul\":4193:4220   */\n              mstore\n                /* \"#utility.yul\":4129:4230   */\n            tag_224:\n                /* \"#utility.yul\":3978:4236   */\n              pop\n                /* \"#utility.yul\":3929:4236   */\n              pop\n              pop\n              pop\n              jump\t// out\n                /* \"#utility.yul\":4242:4606   */\n            tag_169:\n                /* \"#utility.yul\":4330:4333   */\n              0x00\n                /* \"#utility.yul\":4358:4397   */\n              tag_226\n                /* \"#utility.yul\":4391:4396   */\n              dup3\n                /* \"#utility.yul\":4358:4397   */\n              tag_166\n              jump\t// in\n            tag_226:\n                /* \"#utility.yul\":4413:4484   */\n              tag_227\n                /* \"#utility.yul\":4477:4483   */\n              dup2\n                /* \"#utility.yul\":4472:4475   */\n              dup6\n                /* \"#utility.yul\":4413:4484   */\n              tag_167\n              jump\t// in\n            tag_227:\n                /* \"#utility.yul\":4406:4484   */\n              swap4\n              pop\n                /* \"#utility.yul\":4493:4545   */\n              tag_228\n                /* \"#utility.yul\":4538:4544   */\n              dup2\n                /* \"#utility.yul\":4533:4536   */\n              dup6\n                /* \"#utility.yul\":4526:4530   */\n              0x20\n                /* \"#utility.yul\":4519:4524   */\n              dup7\n                /* \"#utility.yul\":4515:4531   */\n              add\n                /* \"#utility.yul\":4493:4545   */\n              tag_168\n              jump\t// in\n            tag_228:\n                /* \"#utility.yul\":4570:4599   */\n              tag_229\n                /* \"#utility.yul\":4592:4598   */\n              dup2\n                /* \"#utility.yul\":4570:4599   */\n              tag_155\n              jump\t// in\n            tag_229:\n                /* \"#utility.yul\":4565:4568   */\n              dup5\n                /* \"#utility.yul\":4561:4600   */\n              add\n                /* \"#utility.yul\":4554:4600   */\n              swap2\n              pop\n                /* \"#utility.yul\":4334:4606   */\n              pop\n                /* \"#utility.yul\":4242:4606   */\n              swap3\n              swap2\n              pop\n              pop\n              jump\t// out\n                /* \"#utility.yul\":4612:4689   */\n            tag_170:\n                /* \"#utility.yul\":4649:4656   */\n              0x00\n                /* \"#utility.yul\":4678:4683   */\n              dup2\n                /* \"#utility.yul\":4667:4683   */\n              swap1\n              pop\n                /* \"#utility.yul\":4612:4689   */\n              swap2\n              swap1\n              pop\n              jump\t// out\n                /* \"#utility.yul\":4695:4813   */\n            tag_171:\n                /* \"#utility.yul\":4782:4806   */\n              tag_232\n                /* \"#utility.yul\":4800:4805   */\n              dup2\n                /* \"#utility.yul\":4782:4806   */\n              tag_170\n              jump\t// in\n            tag_232:\n                /* \"#utility.yul\":4777:4780   */\n              dup3\n                /* \"#utility.yul\":4770:4807   */\n              mstore\n                /* \"#utility.yul\":4695:4813   */\n              pop\n              pop\n              jump\t// out\n                /* \"#utility.yul\":4819:6564   */\n            tag_26:\n                /* \"#utility.yul\":5276:5280   */\n              0x00\n                /* \"#utility.yul\":5314:5317   */\n              0x0120\n                /* \"#utility.yul\":5303:5312   */\n              dup3\n                /* \"#utility.yul\":5299:5318   */\n              add\n                /* \"#utility.yul\":5291:5318   */\n              swap1\n              pop\n                /* \"#utility.yul\":5364:5373   */\n              dup2\n                /* \"#utility.yul\":5358:5362   */\n              dup2\n                /* \"#utility.yul\":5354:5374   */\n              sub\n                /* \"#utility.yul\":5350:5351   */\n              0x00\n                /* \"#utility.yul\":5339:5348   */\n              dup4\n                /* \"#utility.yul\":5335:5352   */\n              add\n                /* \"#utility.yul\":5328:5375   */\n              mstore\n                /* \"#utility.yul\":5392:5470   */\n              tag_234\n                /* \"#utility.yul\":5465:5469   */\n              dup2\n                /* \"#utility.yul\":5456:5462   */\n              dup13\n                /* \"#utility.yul\":5392:5470   */\n              tag_169\n              jump\t// in\n            tag_234:\n                /* \"#utility.yul\":5384:5470   */\n              swap1\n              pop\n                /* \"#utility.yul\":5517:5526   */\n              dup2\n                /* \"#utility.yul\":5511:5515   */\n              dup2\n                /* \"#utility.yul\":5507:5527   */\n              sub\n                /* \"#utility.yul\":5502:5504   */\n              0x20\n                /* \"#utility.yul\":5491:5500   */\n              dup4\n                /* \"#utility.yul\":5487:5505   */\n              add\n                /* \"#utility.yul\":5480:5528   */\n              mstore\n                /* \"#utility.yul\":5545:5623   */\n              tag_235\n                /* \"#utility.yul\":5618:5622   */\n              dup2\n                /* \"#utility.yul\":5609:5615   */\n              dup12\n                /* \"#utility.yul\":5545:5623   */\n              tag_169\n              jump\t// in\n            tag_235:\n                /* \"#utility.yul\":5537:5623   */\n              swap1\n              pop\n                /* \"#utility.yul\":5670:5679   */\n              dup2\n                /* \"#utility.yul\":5664:5668   */\n              dup2\n                /* \"#utility.yul\":5660:5680   */\n              sub\n                /* \"#utility.yul\":5655:5657   */\n              0x40\n                /* \"#utility.yul\":5644:5653   */\n              dup4\n                /* \"#utility.yul\":5640:5658   */\n              add\n                /* \"#utility.yul\":5633:5681   */\n              mstore\n                /* \"#utility.yul\":5698:5776   */\n              tag_236\n                /* \"#utility.yul\":5771:5775   */\n              dup2\n                /* \"#utility.yul\":5762:5768   */\n              dup11\n                /* \"#utility.yul\":5698:5776   */\n              tag_169\n              jump\t// in\n            tag_236:\n                /* \"#utility.yul\":5690:5776   */\n              swap1\n              pop\n                /* \"#utility.yul\":5823:5832   */\n              dup2\n                /* \"#utility.yul\":5817:5821   */\n              dup2\n                /* \"#utility.yul\":5813:5833   */\n              sub\n                /* \"#utility.yul\":5808:5810   */\n              0x60\n                /* \"#utility.yul\":5797:5806   */\n              dup4\n                /* \"#utility.yul\":5793:5811   */\n              add\n                /* \"#utility.yul\":5786:5834   */\n              mstore\n                /* \"#utility.yul\":5851:5929   */\n              tag_237\n                /* \"#utility.yul\":5924:5928   */\n              dup2\n                /* \"#utility.yul\":5915:5921   */\n              dup10\n                /* \"#utility.yul\":5851:5929   */\n              tag_169\n              jump\t// in\n            tag_237:\n                /* \"#utility.yul\":5843:5929   */\n              swap1\n              pop\n                /* \"#utility.yul\":5977:5986   */\n              dup2\n                /* \"#utility.yul\":5971:5975   */\n              dup2\n                /* \"#utility.yul\":5967:5987   */\n              sub\n                /* \"#utility.yul\":5961:5964   */\n              0x80\n                /* \"#utility.yul\":5950:5959   */\n              dup4\n                /* \"#utility.yul\":5946:5965   */\n              add\n                /* \"#utility.yul\":5939:5988   */\n              mstore\n                /* \"#utility.yul\":6005:6083   */\n              tag_238\n                /* \"#utility.yul\":6078:6082   */\n              dup2\n                /* \"#utility.yul\":6069:6075   */\n              dup9\n                /* \"#utility.yul\":6005:6083   */\n              tag_169\n              jump\t// in\n            tag_238:\n                /* \"#utility.yul\":5997:6083   */\n              swap1\n              pop\n                /* \"#utility.yul\":6093:6166   */\n              tag_239\n                /* \"#utility.yul\":6161:6164   */\n              0xa0\n                /* \"#utility.yul\":6150:6159   */\n              dup4\n                /* \"#utility.yul\":6146:6165   */\n              add\n                /* \"#utility.yul\":6137:6143   */\n              dup8\n                /* \"#utility.yul\":6093:6166   */\n              tag_171\n              jump\t// in\n            tag_239:\n                /* \"#utility.yul\":6214:6223   */\n              dup2\n                /* \"#utility.yul\":6208:6212   */\n              dup2\n                /* \"#utility.yul\":6204:6224   */\n              sub\n                /* \"#utility.yul\":6198:6201   */\n              0xc0\n                /* \"#utility.yul\":6187:6196   */\n              dup4\n                /* \"#utility.yul\":6183:6202   */\n              add\n                /* \"#utility.yul\":6176:6225   */\n              mstore\n                /* \"#utility.yul\":6242:6320   */\n              tag_240\n                /* \"#utility.yul\":6315:6319   */\n              dup2\n                /* \"#utility.yul\":6306:6312   */\n              dup7\n                /* \"#utility.yul\":6242:6320   */\n              tag_169\n              jump\t// in\n            tag_240:\n                /* \"#utility.yul\":6234:6320   */\n              swap1\n              pop\n                /* \"#utility.yul\":6330:6403   */\n              tag_241\n                /* \"#utility.yul\":6398:6401   */\n              0xe0\n                /* \"#utility.yul\":6387:6396   */\n              dup4\n                /* \"#utility.yul\":6383:6402   */\n              add\n                /* \"#utility.yul\":6374:6380   */\n              dup6\n                /* \"#utility.yul\":6330:6403   */\n              tag_171\n              jump\t// in\n            tag_241:\n                /* \"#utility.yul\":6451:6460   */\n              dup2\n                /* \"#utility.yul\":6445:6449   */\n              dup2\n                /* \"#utility.yul\":6441:6461   */\n              sub\n                /* \"#utility.yul\":6435:6438   */\n              0x0100\n                /* \"#utility.yul\":6424:6433   */\n              dup4\n                /* \"#utility.yul\":6420:6439   */\n              add\n                /* \"#utility.yul\":6413:6462   */\n              mstore\n                /* \"#utility.yul\":6479:6557   */\n              tag_242\n                /* \"#utility.yul\":6552:6556   */\n              dup2\n                /* \"#utility.yul\":6543:6549   */\n              dup5\n                /* \"#utility.yul\":6479:6557   */\n              tag_169\n              jump\t// in\n            tag_242:\n                /* \"#utility.yul\":6471:6557   */\n              swap1\n              pop\n                /* \"#utility.yul\":4819:6564   */\n              swap11\n              swap10\n              pop\n              pop\n              pop\n              pop\n              pop\n              pop\n              pop\n              pop\n              pop\n              pop\n              jump\t// out\n                /* \"#utility.yul\":6570:6692   */\n            tag_172:\n                /* \"#utility.yul\":6643:6667   */\n              tag_244\n                /* \"#utility.yul\":6661:6666   */\n              dup2\n                /* \"#utility.yul\":6643:6667   */\n              tag_170\n              jump\t// in\n            tag_244:\n                /* \"#utility.yul\":6636:6641   */\n              dup2\n                /* \"#utility.yul\":6633:6668   */\n              eq\n                /* \"#utility.yul\":6623:6686   */\n              tag_245\n              jumpi\n                /* \"#utility.yul\":6682:6683   */\n              0x00\n                /* \"#utility.yul\":6679:6680   */\n              dup1\n                /* \"#utility.yul\":6672:6684   */\n              revert\n                /* \"#utility.yul\":6623:6686   */\n            tag_245:\n                /* \"#utility.yul\":6570:6692   */\n              pop\n              jump\t// out\n                /* \"#utility.yul\":6698:6837   */\n            tag_173:\n                /* \"#utility.yul\":6744:6749   */\n              0x00\n                /* \"#utility.yul\":6782:6788   */\n              dup2\n                /* \"#utility.yul\":6769:6789   */\n              calldataload\n                /* \"#utility.yul\":6760:6789   */\n              swap1\n              pop\n                /* \"#utility.yul\":6798:6831   */\n              tag_247\n                /* \"#utility.yul\":6825:6830   */\n              dup2\n                /* \"#utility.yul\":6798:6831   */\n              tag_172\n              jump\t// in\n            tag_247:\n                /* \"#utility.yul\":6698:6837   */\n              swap3\n              swap2\n              pop\n              pop\n              jump\t// out\n                /* \"#utility.yul\":6843:9598   */\n            tag_29:\n                /* \"#utility.yul\":7044:7050   */\n              0x00\n                /* \"#utility.yul\":7052:7058   */\n              dup1\n                /* \"#utility.yul\":7060:7066   */\n              0x00\n                /* \"#utility.yul\":7068:7074   */\n              dup1\n                /* \"#utility.yul\":7076:7082   */\n              0x00\n                /* \"#utility.yul\":7084:7090   */\n              dup1\n                /* \"#utility.yul\":7092:7098   */\n              0x00\n                /* \"#utility.yul\":7100:7106   */\n              dup1\n                /* \"#utility.yul\":7108:7114   */\n              0x00\n                /* \"#utility.yul\":7157:7160   */\n              0x0120\n                /* \"#utility.yul\":7145:7154   */\n              dup11\n                /* \"#utility.yul\":7136:7143   */\n              dup13\n                /* \"#utility.yul\":7132:7155   */\n              sub\n                /* \"#utility.yul\":7128:7161   */\n              slt\n                /* \"#utility.yul\":7125:7245   */\n              iszero\n              tag_249\n              jumpi\n                /* \"#utility.yul\":7164:7243   */\n              tag_250\n              tag_151\n              jump\t// in\n            tag_250:\n                /* \"#utility.yul\":7125:7245   */\n            tag_249:\n                /* \"#utility.yul\":7312:7313   */\n              0x00\n                /* \"#utility.yul\":7301:7310   */\n              dup11\n                /* \"#utility.yul\":7297:7314   */\n              add\n                /* \"#utility.yul\":7284:7315   */\n              calldataload\n                /* \"#utility.yul\":7342:7360   */\n              0xffffffffffffffff\n                /* \"#utility.yul\":7334:7340   */\n              dup2\n                /* \"#utility.yul\":7331:7361   */\n              gt\n                /* \"#utility.yul\":7328:7445   */\n              iszero\n              tag_251\n              jumpi\n                /* \"#utility.yul\":7364:7443   */\n              tag_252\n              tag_152\n              jump\t// in\n            tag_252:\n                /* \"#utility.yul\":7328:7445   */\n            tag_251:\n                /* \"#utility.yul\":7469:7532   */\n              tag_253\n                /* \"#utility.yul\":7524:7531   */\n              dup13\n                /* \"#utility.yul\":7515:7521   */\n              dup3\n                /* \"#utility.yul\":7504:7513   */\n              dup14\n                /* \"#utility.yul\":7500:7522   */\n              add\n                /* \"#utility.yul\":7469:7532   */\n              tag_162\n              jump\t// in\n            tag_253:\n                /* \"#utility.yul\":7459:7532   */\n              swap10\n              pop\n                /* \"#utility.yul\":7255:7542   */\n              pop\n                /* \"#utility.yul\":7609:7611   */\n              0x20\n                /* \"#utility.yul\":7598:7607   */\n              dup11\n                /* \"#utility.yul\":7594:7612   */\n              add\n                /* \"#utility.yul\":7581:7613   */\n              calldataload\n                /* \"#utility.yul\":7640:7658   */\n              0xffffffffffffffff\n                /* \"#utility.yul\":7632:7638   */\n              dup2\n                /* \"#utility.yul\":7629:7659   */\n              gt\n                /* \"#utility.yul\":7626:7743   */\n              iszero\n              tag_254\n              jumpi\n                /* \"#utility.yul\":7662:7741   */\n              tag_255\n              tag_152\n              jump\t// in\n            tag_255:\n                /* \"#utility.yul\":7626:7743   */\n            tag_254:\n                /* \"#utility.yul\":7767:7830   */\n              tag_256\n                /* \"#utility.yul\":7822:7829   */\n              dup13\n                /* \"#utility.yul\":7813:7819   */\n              dup3\n                /* \"#utility.yul\":7802:7811   */\n              dup14\n                /* \"#utility.yul\":7798:7820   */\n              add\n                /* \"#utility.yul\":7767:7830   */\n              tag_162\n              jump\t// in\n            tag_256:\n                /* \"#utility.yul\":7757:7830   */\n              swap9\n              pop\n                /* \"#utility.yul\":7552:7840   */\n              pop\n                /* \"#utility.yul\":7907:7909   */\n              0x40\n                /* \"#utility.yul\":7896:7905   */\n              dup11\n                /* \"#utility.yul\":7892:7910   */\n              add\n                /* \"#utility.yul\":7879:7911   */\n              calldataload\n                /* \"#utility.yul\":7938:7956   */\n              0xffffffffffffffff\n                /* \"#utility.yul\":7930:7936   */\n              dup2\n                /* \"#utility.yul\":7927:7957   */\n              gt\n                /* \"#utility.yul\":7924:8041   */\n              iszero\n              tag_257\n              jumpi\n                /* \"#utility.yul\":7960:8039   */\n              tag_258\n              tag_152\n              jump\t// in\n            tag_258:\n                /* \"#utility.yul\":7924:8041   */\n            tag_257:\n                /* \"#utility.yul\":8065:8128   */\n              tag_259\n                /* \"#utility.yul\":8120:8127   */\n              dup13\n                /* \"#utility.yul\":8111:8117   */\n              dup3\n                /* \"#utility.yul\":8100:8109   */\n              dup14\n                /* \"#utility.yul\":8096:8118   */\n              add\n                /* \"#utility.yul\":8065:8128   */\n              tag_162\n              jump\t// in\n            tag_259:\n                /* \"#utility.yul\":8055:8128   */\n              swap8\n              pop\n                /* \"#utility.yul\":7850:8138   */\n              pop\n                /* \"#utility.yul\":8205:8207   */\n              0x60\n                /* \"#utility.yul\":8194:8203   */\n              dup11\n                /* \"#utility.yul\":8190:8208   */\n              add\n                /* \"#utility.yul\":8177:8209   */\n              calldataload\n                /* \"#utility.yul\":8236:8254   */\n              0xffffffffffffffff\n                /* \"#utility.yul\":8228:8234   */\n              dup2\n                /* \"#utility.yul\":8225:8255   */\n              gt\n                /* \"#utility.yul\":8222:8339   */\n              iszero\n              tag_260\n              jumpi\n                /* \"#utility.yul\":8258:8337   */\n              tag_261\n              tag_152\n              jump\t// in\n            tag_261:\n                /* \"#utility.yul\":8222:8339   */\n            tag_260:\n                /* \"#utility.yul\":8363:8426   */\n              tag_262\n                /* \"#utility.yul\":8418:8425   */\n              dup13\n                /* \"#utility.yul\":8409:8415   */\n              dup3\n                /* \"#utility.yul\":8398:8407   */\n              dup14\n                /* \"#utility.yul\":8394:8416   */\n              add\n                /* \"#utility.yul\":8363:8426   */\n              tag_162\n              jump\t// in\n            tag_262:\n                /* \"#utility.yul\":8353:8426   */\n              swap7\n              pop\n                /* \"#utility.yul\":8148:8436   */\n              pop\n                /* \"#utility.yul\":8503:8506   */\n              0x80\n                /* \"#utility.yul\":8492:8501   */\n              dup11\n                /* \"#utility.yul\":8488:8507   */\n              add\n                /* \"#utility.yul\":8475:8508   */\n              calldataload\n                /* \"#utility.yul\":8535:8553   */\n              0xffffffffffffffff\n                /* \"#utility.yul\":8527:8533   */\n              dup2\n                /* \"#utility.yul\":8524:8554   */\n              gt\n                /* \"#utility.yul\":8521:8638   */\n              iszero\n              tag_263\n              jumpi\n                /* \"#utility.yul\":8557:8636   */\n              tag_264\n              tag_152\n              jump\t// in\n            tag_264:\n                /* \"#utility.yul\":8521:8638   */\n            tag_263:\n                /* \"#utility.yul\":8662:8725   */\n              tag_265\n                /* \"#utility.yul\":8717:8724   */\n              dup13\n                /* \"#utility.yul\":8708:8714   */\n              dup3\n                /* \"#utility.yul\":8697:8706   */\n              dup14\n                /* \"#utility.yul\":8693:8715   */\n              add\n                /* \"#utility.yul\":8662:8725   */\n              tag_162\n              jump\t// in\n            tag_265:\n                /* \"#utility.yul\":8652:8725   */\n              swap6\n              pop\n                /* \"#utility.yul\":8446:8735   */\n              pop\n                /* \"#utility.yul\":8774:8777   */\n              0xa0\n                /* \"#utility.yul\":8801:8854   */\n              tag_266\n                /* \"#utility.yul\":8846:8853   */\n              dup13\n                /* \"#utility.yul\":8837:8843   */\n              dup3\n                /* \"#utility.yul\":8826:8835   */\n              dup14\n                /* \"#utility.yul\":8822:8844   */\n              add\n                /* \"#utility.yul\":8801:8854   */\n              tag_173\n              jump\t// in\n            tag_266:\n                /* \"#utility.yul\":8791:8854   */\n              swap5\n              pop\n                /* \"#utility.yul\":8745:8864   */\n              pop\n                /* \"#utility.yul\":8931:8934   */\n              0xc0\n                /* \"#utility.yul\":8920:8929   */\n              dup11\n                /* \"#utility.yul\":8916:8935   */\n              add\n                /* \"#utility.yul\":8903:8936   */\n              calldataload\n                /* \"#utility.yul\":8963:8981   */\n              0xffffffffffffffff\n                /* \"#utility.yul\":8955:8961   */\n              dup2\n                /* \"#utility.yul\":8952:8982   */\n              gt\n                /* \"#utility.yul\":8949:9066   */\n              iszero\n              tag_267\n              jumpi\n                /* \"#utility.yul\":8985:9064   */\n              tag_268\n              tag_152\n              jump\t// in\n            tag_268:\n                /* \"#utility.yul\":8949:9066   */\n            tag_267:\n                /* \"#utility.yul\":9090:9153   */\n              tag_269\n                /* \"#utility.yul\":9145:9152   */\n              dup13\n                /* \"#utility.yul\":9136:9142   */\n              dup3\n                /* \"#utility.yul\":9125:9134   */\n              dup14\n                /* \"#utility.yul\":9121:9143   */\n              add\n                /* \"#utility.yul\":9090:9153   */\n              tag_162\n              jump\t// in\n            tag_269:\n                /* \"#utility.yul\":9080:9153   */\n              swap4\n              pop\n                /* \"#utility.yul\":8874:9163   */\n              pop\n                /* \"#utility.yul\":9202:9205   */\n              0xe0\n                /* \"#utility.yul\":9229:9282   */\n              tag_270\n                /* \"#utility.yul\":9274:9281   */\n              dup13\n                /* \"#utility.yul\":9265:9271   */\n              dup3\n                /* \"#utility.yul\":9254:9263   */\n              dup14\n                /* \"#utility.yul\":9250:9272   */\n              add\n                /* \"#utility.yul\":9229:9282   */\n              tag_173\n              jump\t// in\n            tag_270:\n                /* \"#utility.yul\":9219:9282   */\n              swap3\n              pop\n                /* \"#utility.yul\":9173:9292   */\n              pop\n                /* \"#utility.yul\":9359:9362   */\n              0x0100\n                /* \"#utility.yul\":9348:9357   */\n              dup11\n                /* \"#utility.yul\":9344:9363   */\n              add\n                /* \"#utility.yul\":9331:9364   */\n              calldataload\n                /* \"#utility.yul\":9391:9409   */\n              0xffffffffffffffff\n                /* \"#utility.yul\":9383:9389   */\n              dup2\n                /* \"#utility.yul\":9380:9410   */\n              gt\n                /* \"#utility.yul\":9377:9494   */\n              iszero\n              tag_271\n              jumpi\n                /* \"#utility.yul\":9413:9492   */\n              tag_272\n              tag_152\n              jump\t// in\n            tag_272:\n                /* \"#utility.yul\":9377:9494   */\n            tag_271:\n                /* \"#utility.yul\":9518:9581   */\n              tag_273\n                /* \"#utility.yul\":9573:9580   */\n              dup13\n                /* \"#utility.yul\":9564:9570   */\n              dup3\n                /* \"#utility.yul\":9553:9562   */\n              dup14\n                /* \"#utility.yul\":9549:9571   */\n              add\n                /* \"#utility.yul\":9518:9581   */\n              tag_162\n              jump\t// in\n            tag_273:\n                /* \"#utility.yul\":9508:9581   */\n              swap2\n              pop\n                /* \"#utility.yul\":9302:9591   */\n              pop\n                /* \"#utility.yul\":6843:9598   */\n              swap3\n              swap6\n              swap9\n              pop\n              swap3\n              swap6\n              swap9\n              pop\n              swap3\n              swap6\n              swap9\n              jump\t// out\n                /* \"#utility.yul\":9604:9784   */\n            tag_174:\n                /* \"#utility.yul\":9652:9729   */\n              0x4e487b7100000000000000000000000000000000000000000000000000000000\n                /* \"#utility.yul\":9649:9650   */\n              0x00\n                /* \"#utility.yul\":9642:9730   */\n              mstore\n                /* \"#utility.yul\":9749:9753   */\n              0x22\n                /* \"#utility.yul\":9746:9747   */\n              0x04\n                /* \"#utility.yul\":9739:9754   */\n              mstore\n                /* \"#utility.yul\":9773:9777   */\n              0x24\n                /* \"#utility.yul\":9770:9771   */\n              0x00\n                /* \"#utility.yul\":9763:9778   */\n              revert\n                /* \"#utility.yul\":9790:10110   */\n            tag_54:\n                /* \"#utility.yul\":9834:9840   */\n              0x00\n                /* \"#utility.yul\":9871:9872   */\n              0x02\n                /* \"#utility.yul\":9865:9869   */\n              dup3\n                /* \"#utility.yul\":9861:9873   */\n              div\n                /* \"#utility.yul\":9851:9873   */\n              swap1\n              pop\n                /* \"#utility.yul\":9918:9919   */\n              0x01\n                /* \"#utility.yul\":9912:9916   */\n              dup3\n                /* \"#utility.yul\":9908:9920   */\n              and\n                /* \"#utility.yul\":9939:9957   */\n              dup1\n                /* \"#utility.yul\":9929:10010   */\n              tag_276\n              jumpi\n                /* \"#utility.yul\":9995:9999   */\n              0x7f\n                /* \"#utility.yul\":9987:9993   */\n              dup3\n                /* \"#utility.yul\":9983:10000   */\n              and\n                /* \"#utility.yul\":9973:10000   */\n              swap2\n              pop\n                /* \"#utility.yul\":9929:10010   */\n            tag_276:\n                /* \"#utility.yul\":10057:10059   */\n              0x20\n                /* \"#utility.yul\":10049:10055   */\n              dup3\n                /* \"#utility.yul\":10046:10060   */\n              lt\n                /* \"#utility.yul\":10026:10044   */\n              dup2\n                /* \"#utility.yul\":10023:10061   */\n              eq\n                /* \"#utility.yul\":10020:10104   */\n              iszero\n              tag_277\n              jumpi\n                /* \"#utility.yul\":10076:10094   */\n              tag_278\n              tag_174\n              jump\t// in\n            tag_278:\n                /* \"#utility.yul\":10020:10104   */\n            tag_277:\n                /* \"#utility.yul\":9841:10110   */\n              pop\n                /* \"#utility.yul\":9790:10110   */\n              swap2\n              swap1\n              pop\n              jump\t// out\n\n            auxdata: 0xa2646970667358221220a5a8b6be49aa9893bd92b87f9b34f8e840adb1d4569bbd5fc95e2b0efcb8ef0364736f6c634300080b0033\n        }\n    }\n\n    auxdata: 0xa264697066735822122071e359ff2c50432903ba3874fec27e1021a206df1079e2690b3578e1d626569664736f6c634300080b0033\n}\n","bytecode":{"linkReferences":{},"object":"608060405234801561001057600080fd5b50612634806100206000396000f3fe608060405234801561001057600080fd5b50600436106100575760003560e01c806335a6861a1461005c5780637e3c01d71461008c578063826c4ae6146100bc5780638379ec2f146100c6578063bdb37313146100e4575b600080fd5b61007660048036038101906100719190610542565b610102565b60405161008391906105ce565b60405180910390f35b6100a660048036038101906100a1919061061f565b6101c7565b6040516100b391906105ce565b60405180910390f35b6100c4610206565b005b6100ce6103da565b6040516100db919061070a565b60405180910390f35b6100ec610468565b6040516100f991906105ce565b60405180910390f35b6000600160008373ffffffffffffffffffffffffffffffffffffffff1673ffffffffffffffffffffffffffffffffffffffff16815260200190815260200160002060000160149054906101000a900460ff1661015d57600080fd5b600160008373ffffffffffffffffffffffffffffffffffffffff1673ffffffffffffffffffffffffffffffffffffffff16815260200190815260200160002060000160009054906101000a900473ffffffffffffffffffffffffffffffffffffffff169050919050565b600081815481106101d757600080fd5b906000526020600020016000915054906101000a900473ffffffffffffffffffffffffffffffffffffffff1681565b600033604051610215906104d2565b61021f919061073b565b604051809103906000f08015801561023b573d6000803e3d6000fd5b50905080600160003373ffffffffffffffffffffffffffffffffffffffff1673ffffffffffffffffffffffffffffffffffffffff16815260200190815260200160002060000160006101000a81548173ffffffffffffffffffffffffffffffffffffffff021916908373ffffffffffffffffffffffffffffffffffffffff16021790555060018060003373ffffffffffffffffffffffffffffffffffffffff1673ffffffffffffffffffffffffffffffffffffffff16815260200190815260200160002060000160146101000a81548160ff0219169083151502179055506000600160003373ffffffffffffffffffffffffffffffffffffffff1673ffffffffffffffffffffffffffffffffffffffff16815260200190815260200160002060000160156101000a81548160ff0219169083151502179055506000819080600181540180825580915050600190039060005260206000200160009091909190916101000a81548173ffffffffffffffffffffffffffffffffffffffff021916908373ffffffffffffffffffffffffffffffffffffffff16021790555050565b6060600080548060200260200160405190810160405280929190818152602001828054801561045e57602002820191906000526020600020905b8160009054906101000a900473ffffffffffffffffffffffffffffffffffffffff1673ffffffffffffffffffffffffffffffffffffffff1681526020019060010190808311610414575b5050505050905090565b6000600160003373ffffffffffffffffffffffffffffffffffffffff1673ffffffffffffffffffffffffffffffffffffffff16815260200190815260200160002060000160009054906101000a900473ffffffffffffffffffffffffffffffffffffffff16905090565b611ea88061075783390190565b600080fd5b600073ffffffffffffffffffffffffffffffffffffffff82169050919050565b600061050f826104e4565b9050919050565b61051f81610504565b811461052a57600080fd5b50565b60008135905061053c81610516565b92915050565b600060208284031215610558576105576104df565b5b60006105668482850161052d565b91505092915050565b6000819050919050565b600061059461058f61058a846104e4565b61056f565b6104e4565b9050919050565b60006105a682610579565b9050919050565b60006105b88261059b565b9050919050565b6105c8816105ad565b82525050565b60006020820190506105e360008301846105bf565b92915050565b6000819050919050565b6105fc816105e9565b811461060757600080fd5b50565b600081359050610619816105f3565b92915050565b600060208284031215610635576106346104df565b5b60006106438482850161060a565b91505092915050565b600081519050919050565b600082825260208201905092915050565b6000819050602082019050919050565b610681816105ad565b82525050565b60006106938383610678565b60208301905092915050565b6000602082019050919050565b60006106b78261064c565b6106c18185610657565b93506106cc83610668565b8060005b838110156106fd5781516106e48882610687565b97506106ef8361069f565b9250506001810190506106d0565b5085935050505092915050565b6000602082019050818103600083015261072481846106ac565b905092915050565b61073581610504565b82525050565b6000602082019050610750600083018461072c565b9291505056fe60806040523480156200001157600080fd5b5060405162001ea838038062001ea88339818101604052810190620000379190620000e9565b80600260006101000a81548173ffffffffffffffffffffffffffffffffffffffff021916908373ffffffffffffffffffffffffffffffffffffffff160217905550506200011b565b600080fd5b600073ffffffffffffffffffffffffffffffffffffffff82169050919050565b6000620000b18262000084565b9050919050565b620000c381620000a4565b8114620000cf57600080fd5b50565b600081519050620000e381620000b8565b92915050565b6000602082840312156200010257620001016200007f565b5b60006200011284828501620000d2565b91505092915050565b611d7d806200012b6000396000f3fe608060405234801561001057600080fd5b50600436106100935760003560e01c8063a5c9f7ad11610066578063a5c9f7ad14610102578063adb4d9901461011e578063bdb373131461013c578063ea00962f14610162578063f203c19d1461018057610093565b80631b146ecf14610098578063263b81c9146100b4578063481c6a75146100be578063942886be146100dc575b600080fd5b6100b260048036038101906100ad9190611928565b61019e565b005b6100bc61025e565b005b6100c661035b565b6040516100d391906119b2565b60405180910390f35b6100e4610381565b6040516100f999989796959493929190611a6e565b60405180910390f35b61011c60048036038101906101179190611b58565b610b62565b005b610126610fb0565b60405161013391906119b2565b60405180910390f35b610144610fd6565b60405161015999989796959493929190611a6e565b60405180910390f35b61016a6116de565b60405161017791906119b2565b60405180910390f35b610188611707565b60405161019591906119b2565b60405180910390f35b60405180606001604052808281526020013373ffffffffffffffffffffffffffffffffffffffff16815260200160001515815250600460008201518160000190805190602001906101f092919061172b565b5060208201518160010160006101000a81548173ffffffffffffffffffffffffffffffffffffffff021916908373ffffffffffffffffffffffffffffffffffffffff16021790555060408201518160010160146101000a81548160ff02191690831515021790555090505050565b600260009054906101000a900473ffffffffffffffffffffffffffffffffffffffff1673ffffffffffffffffffffffffffffffffffffffff163373ffffffffffffffffffffffffffffffffffffffff16146102b857600080fd5b600460010160149054906101000a900460ff16156102d557600080fd5b600460010160009054906101000a900473ffffffffffffffffffffffffffffffffffffffff16600360006101000a81548173ffffffffffffffffffffffffffffffffffffffff021916908373ffffffffffffffffffffffffffffffffffffffff1602179055506001600460010160146101000a81548160ff021916908315150217905550565b600260009054906101000a900473ffffffffffffffffffffffffffffffffffffffff1681565b60608060608060606000606060006060600360009054906101000a900473ffffffffffffffffffffffffffffffffffffffff1673ffffffffffffffffffffffffffffffffffffffff163373ffffffffffffffffffffffffffffffffffffffff16146103eb57600080fd5b60016000600260009054906101000a900473ffffffffffffffffffffffffffffffffffffffff1673ffffffffffffffffffffffffffffffffffffffff1673ffffffffffffffffffffffffffffffffffffffff16815260200190815260200160002060000160016000600260009054906101000a900473ffffffffffffffffffffffffffffffffffffffff1673ffffffffffffffffffffffffffffffffffffffff1673ffffffffffffffffffffffffffffffffffffffff16815260200190815260200160002060010160016000600260009054906101000a900473ffffffffffffffffffffffffffffffffffffffff1673ffffffffffffffffffffffffffffffffffffffff1673ffffffffffffffffffffffffffffffffffffffff16815260200190815260200160002060020160016000600260009054906101000a900473ffffffffffffffffffffffffffffffffffffffff1673ffffffffffffffffffffffffffffffffffffffff1673ffffffffffffffffffffffffffffffffffffffff16815260200190815260200160002060030160016000600260009054906101000a900473ffffffffffffffffffffffffffffffffffffffff1673ffffffffffffffffffffffffffffffffffffffff1673ffffffffffffffffffffffffffffffffffffffff16815260200190815260200160002060040160016000600260009054906101000a900473ffffffffffffffffffffffffffffffffffffffff1673ffffffffffffffffffffffffffffffffffffffff1673ffffffffffffffffffffffffffffffffffffffff1681526020019081526020016000206005015460016000600260009054906101000a900473ffffffffffffffffffffffffffffffffffffffff1673ffffffffffffffffffffffffffffffffffffffff1673ffffffffffffffffffffffffffffffffffffffff16815260200190815260200160002060060160016000600260009054906101000a900473ffffffffffffffffffffffffffffffffffffffff1673ffffffffffffffffffffffffffffffffffffffff1673ffffffffffffffffffffffffffffffffffffffff1681526020019081526020016000206007015460016000600260009054906101000a900473ffffffffffffffffffffffffffffffffffffffff1673ffffffffffffffffffffffffffffffffffffffff1673ffffffffffffffffffffffffffffffffffffffff16815260200190815260200160002060080188805461077d90611d15565b80601f01602080910402602001604051908101604052809291908181526020018280546107a990611d15565b80156107f65780601f106107cb576101008083540402835291602001916107f6565b820191906000526020600020905b8154815290600101906020018083116107d957829003601f168201915b5050505050985087805461080990611d15565b80601f016020809104026020016040519081016040528092919081815260200182805461083590611d15565b80156108825780601f1061085757610100808354040283529160200191610882565b820191906000526020600020905b81548152906001019060200180831161086557829003601f168201915b5050505050975086805461089590611d15565b80601f01602080910402602001604051908101604052809291908181526020018280546108c190611d15565b801561090e5780601f106108e35761010080835404028352916020019161090e565b820191906000526020600020905b8154815290600101906020018083116108f157829003601f168201915b5050505050965085805461092190611d15565b80601f016020809104026020016040519081016040528092919081815260200182805461094d90611d15565b801561099a5780601f1061096f5761010080835404028352916020019161099a565b820191906000526020600020905b81548152906001019060200180831161097d57829003601f168201915b505050505095508480546109ad90611d15565b80601f01602080910402602001604051908101604052809291908181526020018280546109d990611d15565b8015610a265780601f106109fb57610100808354040283529160200191610a26565b820191906000526020600020905b815481529060010190602001808311610a0957829003601f168201915b50505050509450828054610a3990611d15565b80601f0160208091040260200160405190810160405280929190818152602001828054610a6590611d15565b8015610ab25780601f10610a8757610100808354040283529160200191610ab2565b820191906000526020600020905b815481529060010190602001808311610a9557829003601f168201915b50505050509250808054610ac590611d15565b80601f0160208091040260200160405190810160405280929190818152602001828054610af190611d15565b8015610b3e5780601f10610b1357610100808354040283529160200191610b3e565b820191906000526020600020905b815481529060010190602001808311610b2157829003601f168201915b50505050509050985098509850985098509850985098509850909192939495969798565b600260009054906101000a900473ffffffffffffffffffffffffffffffffffffffff1673ffffffffffffffffffffffffffffffffffffffff163373ffffffffffffffffffffffffffffffffffffffff1614610bbc57600080fd5b6000339050600160008273ffffffffffffffffffffffffffffffffffffffff1673ffffffffffffffffffffffffffffffffffffffff16815260200190815260200160002060090160009054906101000a900460ff1615610c1b57600080fd5b806000806101000a81548173ffffffffffffffffffffffffffffffffffffffff021916908373ffffffffffffffffffffffffffffffffffffffff16021790555089600160008373ffffffffffffffffffffffffffffffffffffffff1673ffffffffffffffffffffffffffffffffffffffff1681526020019081526020016000206000019080519060200190610cb192919061172b565b5088600160008373ffffffffffffffffffffffffffffffffffffffff1673ffffffffffffffffffffffffffffffffffffffff1681526020019081526020016000206001019080519060200190610d0892919061172b565b5087600160008373ffffffffffffffffffffffffffffffffffffffff1673ffffffffffffffffffffffffffffffffffffffff1681526020019081526020016000206002019080519060200190610d5f92919061172b565b5086600160008373ffffffffffffffffffffffffffffffffffffffff1673ffffffffffffffffffffffffffffffffffffffff1681526020019081526020016000206003019080519060200190610db692919061172b565b5085600160008373ffffffffffffffffffffffffffffffffffffffff1673ffffffffffffffffffffffffffffffffffffffff1681526020019081526020016000206004019080519060200190610e0d92919061172b565b5084600160008373ffffffffffffffffffffffffffffffffffffffff1673ffffffffffffffffffffffffffffffffffffffff1681526020019081526020016000206005018190555083600160008373ffffffffffffffffffffffffffffffffffffffff1673ffffffffffffffffffffffffffffffffffffffff1681526020019081526020016000206006019080519060200190610eab92919061172b565b5082600160008373ffffffffffffffffffffffffffffffffffffffff1673ffffffffffffffffffffffffffffffffffffffff1681526020019081526020016000206007018190555081600160008373ffffffffffffffffffffffffffffffffffffffff1673ffffffffffffffffffffffffffffffffffffffff1681526020019081526020016000206008019080519060200190610f4992919061172b565b5060018060008373ffffffffffffffffffffffffffffffffffffffff1673ffffffffffffffffffffffffffffffffffffffff16815260200190815260200160002060090160006101000a81548160ff02191690831515021790555050505050505050505050565b600360009054906101000a900473ffffffffffffffffffffffffffffffffffffffff1681565b60608060608060606000606060006060600260009054906101000a900473ffffffffffffffffffffffffffffffffffffffff1673ffffffffffffffffffffffffffffffffffffffff163373ffffffffffffffffffffffffffffffffffffffff161461104057600080fd5b600160003373ffffffffffffffffffffffffffffffffffffffff1673ffffffffffffffffffffffffffffffffffffffff16815260200190815260200160002060090160009054906101000a900460ff1661109957600080fd5b600160003373ffffffffffffffffffffffffffffffffffffffff1673ffffffffffffffffffffffffffffffffffffffff168152602001908152602001600020600001600160003373ffffffffffffffffffffffffffffffffffffffff1673ffffffffffffffffffffffffffffffffffffffff168152602001908152602001600020600101600160003373ffffffffffffffffffffffffffffffffffffffff1673ffffffffffffffffffffffffffffffffffffffff168152602001908152602001600020600201600160003373ffffffffffffffffffffffffffffffffffffffff1673ffffffffffffffffffffffffffffffffffffffff168152602001908152602001600020600301600160003373ffffffffffffffffffffffffffffffffffffffff1673ffffffffffffffffffffffffffffffffffffffff168152602001908152602001600020600401600160003373ffffffffffffffffffffffffffffffffffffffff1673ffffffffffffffffffffffffffffffffffffffff16815260200190815260200160002060050154600160003373ffffffffffffffffffffffffffffffffffffffff1673ffffffffffffffffffffffffffffffffffffffff168152602001908152602001600020600601600160003373ffffffffffffffffffffffffffffffffffffffff1673ffffffffffffffffffffffffffffffffffffffff16815260200190815260200160002060070154600160003373ffffffffffffffffffffffffffffffffffffffff1673ffffffffffffffffffffffffffffffffffffffff1681526020019081526020016000206008018880546112f990611d15565b80601f016020809104026020016040519081016040528092919081815260200182805461132590611d15565b80156113725780601f1061134757610100808354040283529160200191611372565b820191906000526020600020905b81548152906001019060200180831161135557829003601f168201915b5050505050985087805461138590611d15565b80601f01602080910402602001604051908101604052809291908181526020018280546113b190611d15565b80156113fe5780601f106113d3576101008083540402835291602001916113fe565b820191906000526020600020905b8154815290600101906020018083116113e157829003601f168201915b5050505050975086805461141190611d15565b80601f016020809104026020016040519081016040528092919081815260200182805461143d90611d15565b801561148a5780601f1061145f5761010080835404028352916020019161148a565b820191906000526020600020905b81548152906001019060200180831161146d57829003601f168201915b5050505050965085805461149d90611d15565b80601f01602080910402602001604051908101604052809291908181526020018280546114c990611d15565b80156115165780601f106114eb57610100808354040283529160200191611516565b820191906000526020600020905b8154815290600101906020018083116114f957829003601f168201915b5050505050955084805461152990611d15565b80601f016020809104026020016040519081016040528092919081815260200182805461155590611d15565b80156115a25780601f10611577576101008083540402835291602001916115a2565b820191906000526020600020905b81548152906001019060200180831161158557829003601f168201915b505050505094508280546115b590611d15565b80601f01602080910402602001604051908101604052809291908181526020018280546115e190611d15565b801561162e5780601f106116035761010080835404028352916020019161162e565b820191906000526020600020905b81548152906001019060200180831161161157829003601f168201915b5050505050925080805461164190611d15565b80601f016020809104026020016040519081016040528092919081815260200182805461166d90611d15565b80156116ba5780601f1061168f576101008083540402835291602001916116ba565b820191906000526020600020905b81548152906001019060200180831161169d57829003601f168201915b50505050509050985098509850985098509850985098509850909192939495969798565b60008060009054906101000a900473ffffffffffffffffffffffffffffffffffffffff16905090565b60008054906101000a900473ffffffffffffffffffffffffffffffffffffffff1681565b82805461173790611d15565b90600052602060002090601f01602090048101928261175957600085556117a0565b82601f1061177257805160ff19168380011785556117a0565b828001600101855582156117a0579182015b8281111561179f578251825591602001919060010190611784565b5b5090506117ad91906117b1565b5090565b5b808211156117ca5760008160009055506001016117b2565b5090565b6000604051905090565b600080fd5b600080fd5b600080fd5b600080fd5b6000601f19601f8301169050919050565b7f4e487b7100000000000000000000000000000000000000000000000000000000600052604160045260246000fd5b611835826117ec565b810181811067ffffffffffffffff82111715611854576118536117fd565b5b80604052505050565b60006118676117ce565b9050611873828261182c565b919050565b600067ffffffffffffffff821115611893576118926117fd565b5b61189c826117ec565b9050602081019050919050565b82818337600083830152505050565b60006118cb6118c684611878565b61185d565b9050828152602081018484840111156118e7576118e66117e7565b5b6118f28482856118a9565b509392505050565b600082601f83011261190f5761190e6117e2565b5b813561191f8482602086016118b8565b91505092915050565b60006020828403121561193e5761193d6117d8565b5b600082013567ffffffffffffffff81111561195c5761195b6117dd565b5b611968848285016118fa565b91505092915050565b600073ffffffffffffffffffffffffffffffffffffffff82169050919050565b600061199c82611971565b9050919050565b6119ac81611991565b82525050565b60006020820190506119c760008301846119a3565b92915050565b600081519050919050565b600082825260208201905092915050565b60005b83811015611a075780820151818401526020810190506119ec565b83811115611a16576000848401525b50505050565b6000611a27826119cd565b611a3181856119d8565b9350611a418185602086016119e9565b611a4a816117ec565b840191505092915050565b6000819050919050565b611a6881611a55565b82525050565b6000610120820190508181036000830152611a89818c611a1c565b90508181036020830152611a9d818b611a1c565b90508181036040830152611ab1818a611a1c565b90508181036060830152611ac58189611a1c565b90508181036080830152611ad98188611a1c565b9050611ae860a0830187611a5f565b81810360c0830152611afa8186611a1c565b9050611b0960e0830185611a5f565b818103610100830152611b1c8184611a1c565b90509a9950505050505050505050565b611b3581611a55565b8114611b4057600080fd5b50565b600081359050611b5281611b2c565b92915050565b60008060008060008060008060006101208a8c031215611b7b57611b7a6117d8565b5b60008a013567ffffffffffffffff811115611b9957611b986117dd565b5b611ba58c828d016118fa565b99505060208a013567ffffffffffffffff811115611bc657611bc56117dd565b5b611bd28c828d016118fa565b98505060408a013567ffffffffffffffff811115611bf357611bf26117dd565b5b611bff8c828d016118fa565b97505060608a013567ffffffffffffffff811115611c2057611c1f6117dd565b5b611c2c8c828d016118fa565b96505060808a013567ffffffffffffffff811115611c4d57611c4c6117dd565b5b611c598c828d016118fa565b95505060a0611c6a8c828d01611b43565b94505060c08a013567ffffffffffffffff811115611c8b57611c8a6117dd565b5b611c978c828d016118fa565b93505060e0611ca88c828d01611b43565b9250506101008a013567ffffffffffffffff811115611cca57611cc96117dd565b5b611cd68c828d016118fa565b9150509295985092959850929598565b7f4e487b7100000000000000000000000000000000000000000000000000000000600052602260045260246000fd5b60006002820490506001821680611d2d57607f821691505b60208210811415611d4157611d40611ce6565b5b5091905056fea2646970667358221220a5a8b6be49aa9893bd92b87f9b34f8e840adb1d4569bbd5fc95e2b0efcb8ef0364736f6c634300080b0033a264697066735822122071e359ff2c50432903ba3874fec27e1021a206df1079e2690b3578e1d626569664736f6c634300080b0033","opcodes":"PUSH1 0x80 PUSH1 0x40 MSTORE CALLVALUE DUP1 ISZERO PUSH2 0x10 JUMPI PUSH1 0x0 DUP1 REVERT JUMPDEST POP PUSH2 0x2634 DUP1 PUSH2 0x20 PUSH1 0x0 CODECOPY PUSH1 0x0 RETURN INVALID PUSH1 0x80 PUSH1 0x40 MSTORE CALLVALUE DUP1 ISZERO PUSH2 0x10 JUMPI PUSH1 0x0 DUP1 REVERT JUMPDEST POP PUSH1 0x4 CALLDATASIZE LT PUSH2 0x57 JUMPI PUSH1 0x0 CALLDATALOAD PUSH1 0xE0 SHR DUP1 PUSH4 0x35A6861A EQ PUSH2 0x5C JUMPI DUP1 PUSH4 0x7E3C01D7 EQ PUSH2 0x8C JUMPI DUP1 PUSH4 0x826C4AE6 EQ PUSH2 0xBC JUMPI DUP1 PUSH4 0x8379EC2F EQ PUSH2 0xC6 JUMPI DUP1 PUSH4 0xBDB37313 EQ PUSH2 0xE4 JUMPI JUMPDEST PUSH1 0x0 DUP1 REVERT JUMPDEST PUSH2 0x76 PUSH1 0x4 DUP1 CALLDATASIZE SUB DUP2 ADD SWAP1 PUSH2 0x71 SWAP2 SWAP1 PUSH2 0x542 JUMP JUMPDEST PUSH2 0x102 JUMP JUMPDEST PUSH1 0x40 MLOAD PUSH2 0x83 SWAP2 SWAP1 PUSH2 0x5CE JUMP JUMPDEST PUSH1 0x40 MLOAD DUP1 SWAP2 SUB SWAP1 RETURN JUMPDEST PUSH2 0xA6 PUSH1 0x4 DUP1 CALLDATASIZE SUB DUP2 ADD SWAP1 PUSH2 0xA1 SWAP2 SWAP1 PUSH2 0x61F JUMP JUMPDEST PUSH2 0x1C7 JUMP JUMPDEST PUSH1 0x40 MLOAD PUSH2 0xB3 SWAP2 SWAP1 PUSH2 0x5CE JUMP JUMPDEST PUSH1 0x40 MLOAD DUP1 SWAP2 SUB SWAP1 RETURN JUMPDEST PUSH2 0xC4 PUSH2 0x206 JUMP JUMPDEST STOP JUMPDEST PUSH2 0xCE PUSH2 0x3DA JUMP JUMPDEST PUSH1 0x40 MLOAD PUSH2 0xDB SWAP2 SWAP1 PUSH2 0x70A JUMP JUMPDEST PUSH1 0x40 MLOAD DUP1 SWAP2 SUB SWAP1 RETURN JUMPDEST PUSH2 0xEC PUSH2 0x468 JUMP JUMPDEST PUSH1 0x40 MLOAD PUSH2 0xF9 SWAP2 SWAP1 PUSH2 0x5CE JUMP JUMPDEST PUSH1 0x40 MLOAD DUP1 SWAP2 SUB SWAP1 RETURN JUMPDEST PUSH1 0x0 PUSH1 0x1 PUSH1 0x0 DUP4 PUSH20 0xFFFFFFFFFFFFFFFFFFFFFFFFFFFFFFFFFFFFFFFF AND PUSH20 0xFFFFFFFFFFFFFFFFFFFFFFFFFFFFFFFFFFFFFFFF AND DUP2 MSTORE PUSH1 0x20 ADD SWAP1 DUP2 MSTORE PUSH1 0x20 ADD PUSH1 0x0 KECCAK256 PUSH1 0x0 ADD PUSH1 0x14 SWAP1 SLOAD SWAP1 PUSH2 0x100 EXP SWAP1 DIV PUSH1 0xFF AND PUSH2 0x15D JUMPI PUSH1 0x0 DUP1 REVERT JUMPDEST PUSH1 0x1 PUSH1 0x0 DUP4 PUSH20 0xFFFFFFFFFFFFFFFFFFFFFFFFFFFFFFFFFFFFFFFF AND PUSH20 0xFFFFFFFFFFFFFFFFFFFFFFFFFFFFFFFFFFFFFFFF AND DUP2 MSTORE PUSH1 0x20 ADD SWAP1 DUP2 MSTORE PUSH1 0x20 ADD PUSH1 0x0 KECCAK256 PUSH1 0x0 ADD PUSH1 0x0 SWAP1 SLOAD SWAP1 PUSH2 0x100 EXP SWAP1 DIV PUSH20 0xFFFFFFFFFFFFFFFFFFFFFFFFFFFFFFFFFFFFFFFF AND SWAP1 POP SWAP2 SWAP1 POP JUMP JUMPDEST PUSH1 0x0 DUP2 DUP2 SLOAD DUP2 LT PUSH2 0x1D7 JUMPI PUSH1 0x0 DUP1 REVERT JUMPDEST SWAP1 PUSH1 0x0 MSTORE PUSH1 0x20 PUSH1 0x0 KECCAK256 ADD PUSH1 0x0 SWAP2 POP SLOAD SWAP1 PUSH2 0x100 EXP SWAP1 DIV PUSH20 0xFFFFFFFFFFFFFFFFFFFFFFFFFFFFFFFFFFFFFFFF AND DUP2 JUMP JUMPDEST PUSH1 0x0 CALLER PUSH1 0x40 MLOAD PUSH2 0x215 SWAP1 PUSH2 0x4D2 JUMP JUMPDEST PUSH2 0x21F SWAP2 SWAP1 PUSH2 0x73B JUMP JUMPDEST PUSH1 0x40 MLOAD DUP1 SWAP2 SUB SWAP1 PUSH1 0x0 CREATE DUP1 ISZERO DUP1 ISZERO PUSH2 0x23B JUMPI RETURNDATASIZE PUSH1 0x0 DUP1 RETURNDATACOPY RETURNDATASIZE PUSH1 0x0 REVERT JUMPDEST POP SWAP1 POP DUP1 PUSH1 0x1 PUSH1 0x0 CALLER PUSH20 0xFFFFFFFFFFFFFFFFFFFFFFFFFFFFFFFFFFFFFFFF AND PUSH20 0xFFFFFFFFFFFFFFFFFFFFFFFFFFFFFFFFFFFFFFFF AND DUP2 MSTORE PUSH1 0x20 ADD SWAP1 DUP2 MSTORE PUSH1 0x20 ADD PUSH1 0x0 KECCAK256 PUSH1 0x0 ADD PUSH1 0x0 PUSH2 0x100 EXP DUP2 SLOAD DUP2 PUSH20 0xFFFFFFFFFFFFFFFFFFFFFFFFFFFFFFFFFFFFFFFF MUL NOT AND SWAP1 DUP4 PUSH20 0xFFFFFFFFFFFFFFFFFFFFFFFFFFFFFFFFFFFFFFFF AND MUL OR SWAP1 SSTORE POP PUSH1 0x1 DUP1 PUSH1 0x0 CALLER PUSH20 0xFFFFFFFFFFFFFFFFFFFFFFFFFFFFFFFFFFFFFFFF AND PUSH20 0xFFFFFFFFFFFFFFFFFFFFFFFFFFFFFFFFFFFFFFFF AND DUP2 MSTORE PUSH1 0x20 ADD SWAP1 DUP2 MSTORE PUSH1 0x20 ADD PUSH1 0x0 KECCAK256 PUSH1 0x0 ADD PUSH1 0x14 PUSH2 0x100 EXP DUP2 SLOAD DUP2 PUSH1 0xFF MUL NOT AND SWAP1 DUP4 ISZERO ISZERO MUL OR SWAP1 SSTORE POP PUSH1 0x0 PUSH1 0x1 PUSH1 0x0 CALLER PUSH20 0xFFFFFFFFFFFFFFFFFFFFFFFFFFFFFFFFFFFFFFFF AND PUSH20 0xFFFFFFFFFFFFFFFFFFFFFFFFFFFFFFFFFFFFFFFF AND DUP2 MSTORE PUSH1 0x20 ADD SWAP1 DUP2 MSTORE PUSH1 0x20 ADD PUSH1 0x0 KECCAK256 PUSH1 0x0 ADD PUSH1 0x15 PUSH2 0x100 EXP DUP2 SLOAD DUP2 PUSH1 0xFF MUL NOT AND SWAP1 DUP4 ISZERO ISZERO MUL OR SWAP1 SSTORE POP PUSH1 0x0 DUP2 SWAP1 DUP1 PUSH1 0x1 DUP2 SLOAD ADD DUP1 DUP3 SSTORE DUP1 SWAP2 POP POP PUSH1 0x1 SWAP1 SUB SWAP1 PUSH1 0x0 MSTORE PUSH1 0x20 PUSH1 0x0 KECCAK256 ADD PUSH1 0x0 SWAP1 SWAP2 SWAP1 SWAP2 SWAP1 SWAP2 PUSH2 0x100 EXP DUP2 SLOAD DUP2 PUSH20 0xFFFFFFFFFFFFFFFFFFFFFFFFFFFFFFFFFFFFFFFF MUL NOT AND SWAP1 DUP4 PUSH20 0xFFFFFFFFFFFFFFFFFFFFFFFFFFFFFFFFFFFFFFFF AND MUL OR SWAP1 SSTORE POP POP JUMP JUMPDEST PUSH1 0x60 PUSH1 0x0 DUP1 SLOAD DUP1 PUSH1 0x20 MUL PUSH1 0x20 ADD PUSH1 0x40 MLOAD SWAP1 DUP2 ADD PUSH1 0x40 MSTORE DUP1 SWAP3 SWAP2 SWAP1 DUP2 DUP2 MSTORE PUSH1 0x20 ADD DUP3 DUP1 SLOAD DUP1 ISZERO PUSH2 0x45E JUMPI PUSH1 0x20 MUL DUP3 ADD SWAP2 SWAP1 PUSH1 0x0 MSTORE PUSH1 0x20 PUSH1 0x0 KECCAK256 SWAP1 JUMPDEST DUP2 PUSH1 0x0 SWAP1 SLOAD SWAP1 PUSH2 0x100 EXP SWAP1 DIV PUSH20 0xFFFFFFFFFFFFFFFFFFFFFFFFFFFFFFFFFFFFFFFF AND PUSH20 0xFFFFFFFFFFFFFFFFFFFFFFFFFFFFFFFFFFFFFFFF AND DUP2 MSTORE PUSH1 0x20 ADD SWAP1 PUSH1 0x1 ADD SWAP1 DUP1 DUP4 GT PUSH2 0x414 JUMPI JUMPDEST POP POP POP POP POP SWAP1 POP SWAP1 JUMP JUMPDEST PUSH1 0x0 PUSH1 0x1 PUSH1 0x0 CALLER PUSH20 0xFFFFFFFFFFFFFFFFFFFFFFFFFFFFFFFFFFFFFFFF AND PUSH20 0xFFFFFFFFFFFFFFFFFFFFFFFFFFFFFFFFFFFFFFFF AND DUP2 MSTORE PUSH1 0x20 ADD SWAP1 DUP2 MSTORE PUSH1 0x20 ADD PUSH1 0x0 KECCAK256 PUSH1 0x0 ADD PUSH1 0x0 SWAP1 SLOAD SWAP1 PUSH2 0x100 EXP SWAP1 DIV PUSH20 0xFFFFFFFFFFFFFFFFFFFFFFFFFFFFFFFFFFFFFFFF AND SWAP1 POP SWAP1 JUMP JUMPDEST PUSH2 0x1EA8 DUP1 PUSH2 0x757 DUP4 CODECOPY ADD SWAP1 JUMP JUMPDEST PUSH1 0x0 DUP1 REVERT JUMPDEST PUSH1 0x0 PUSH20 0xFFFFFFFFFFFFFFFFFFFFFFFFFFFFFFFFFFFFFFFF DUP3 AND SWAP1 POP SWAP2 SWAP1 POP JUMP JUMPDEST PUSH1 0x0 PUSH2 0x50F DUP3 PUSH2 0x4E4 JUMP JUMPDEST SWAP1 POP SWAP2 SWAP1 POP JUMP JUMPDEST PUSH2 0x51F DUP2 PUSH2 0x504 JUMP JUMPDEST DUP2 EQ PUSH2 0x52A JUMPI PUSH1 0x0 DUP1 REVERT JUMPDEST POP JUMP JUMPDEST PUSH1 0x0 DUP2 CALLDATALOAD SWAP1 POP PUSH2 0x53C DUP2 PUSH2 0x516 JUMP JUMPDEST SWAP3 SWAP2 POP POP JUMP JUMPDEST PUSH1 0x0 PUSH1 0x20 DUP3 DUP5 SUB SLT ISZERO PUSH2 0x558 JUMPI PUSH2 0x557 PUSH2 0x4DF JUMP JUMPDEST JUMPDEST PUSH1 0x0 PUSH2 0x566 DUP5 DUP3 DUP6 ADD PUSH2 0x52D JUMP JUMPDEST SWAP2 POP POP SWAP3 SWAP2 POP POP JUMP JUMPDEST PUSH1 0x0 DUP2 SWAP1 POP SWAP2 SWAP1 POP JUMP JUMPDEST PUSH1 0x0 PUSH2 0x594 PUSH2 0x58F PUSH2 0x58A DUP5 PUSH2 0x4E4 JUMP JUMPDEST PUSH2 0x56F JUMP JUMPDEST PUSH2 0x4E4 JUMP JUMPDEST SWAP1 POP SWAP2 SWAP1 POP JUMP JUMPDEST PUSH1 0x0 PUSH2 0x5A6 DUP3 PUSH2 0x579 JUMP JUMPDEST SWAP1 POP SWAP2 SWAP1 POP JUMP JUMPDEST PUSH1 0x0 PUSH2 0x5B8 DUP3 PUSH2 0x59B JUMP JUMPDEST SWAP1 POP SWAP2 SWAP1 POP JUMP JUMPDEST PUSH2 0x5C8 DUP2 PUSH2 0x5AD JUMP JUMPDEST DUP3 MSTORE POP POP JUMP JUMPDEST PUSH1 0x0 PUSH1 0x20 DUP3 ADD SWAP1 POP PUSH2 0x5E3 PUSH1 0x0 DUP4 ADD DUP5 PUSH2 0x5BF JUMP JUMPDEST SWAP3 SWAP2 POP POP JUMP JUMPDEST PUSH1 0x0 DUP2 SWAP1 POP SWAP2 SWAP1 POP JUMP JUMPDEST PUSH2 0x5FC DUP2 PUSH2 0x5E9 JUMP JUMPDEST DUP2 EQ PUSH2 0x607 JUMPI PUSH1 0x0 DUP1 REVERT JUMPDEST POP JUMP JUMPDEST PUSH1 0x0 DUP2 CALLDATALOAD SWAP1 POP PUSH2 0x619 DUP2 PUSH2 0x5F3 JUMP JUMPDEST SWAP3 SWAP2 POP POP JUMP JUMPDEST PUSH1 0x0 PUSH1 0x20 DUP3 DUP5 SUB SLT ISZERO PUSH2 0x635 JUMPI PUSH2 0x634 PUSH2 0x4DF JUMP JUMPDEST JUMPDEST PUSH1 0x0 PUSH2 0x643 DUP5 DUP3 DUP6 ADD PUSH2 0x60A JUMP JUMPDEST SWAP2 POP POP SWAP3 SWAP2 POP POP JUMP JUMPDEST PUSH1 0x0 DUP2 MLOAD SWAP1 POP SWAP2 SWAP1 POP JUMP JUMPDEST PUSH1 0x0 DUP3 DUP3 MSTORE PUSH1 0x20 DUP3 ADD SWAP1 POP SWAP3 SWAP2 POP POP JUMP JUMPDEST PUSH1 0x0 DUP2 SWAP1 POP PUSH1 0x20 DUP3 ADD SWAP1 POP SWAP2 SWAP1 POP JUMP JUMPDEST PUSH2 0x681 DUP2 PUSH2 0x5AD JUMP JUMPDEST DUP3 MSTORE POP POP JUMP JUMPDEST PUSH1 0x0 PUSH2 0x693 DUP4 DUP4 PUSH2 0x678 JUMP JUMPDEST PUSH1 0x20 DUP4 ADD SWAP1 POP SWAP3 SWAP2 POP POP JUMP JUMPDEST PUSH1 0x0 PUSH1 0x20 DUP3 ADD SWAP1 POP SWAP2 SWAP1 POP JUMP JUMPDEST PUSH1 0x0 PUSH2 0x6B7 DUP3 PUSH2 0x64C JUMP JUMPDEST PUSH2 0x6C1 DUP2 DUP6 PUSH2 0x657 JUMP JUMPDEST SWAP4 POP PUSH2 0x6CC DUP4 PUSH2 0x668 JUMP JUMPDEST DUP1 PUSH1 0x0 JUMPDEST DUP4 DUP2 LT ISZERO PUSH2 0x6FD JUMPI DUP2 MLOAD PUSH2 0x6E4 DUP9 DUP3 PUSH2 0x687 JUMP JUMPDEST SWAP8 POP PUSH2 0x6EF DUP4 PUSH2 0x69F JUMP JUMPDEST SWAP3 POP POP PUSH1 0x1 DUP2 ADD SWAP1 POP PUSH2 0x6D0 JUMP JUMPDEST POP DUP6 SWAP4 POP POP POP POP SWAP3 SWAP2 POP POP JUMP JUMPDEST PUSH1 0x0 PUSH1 0x20 DUP3 ADD SWAP1 POP DUP2 DUP2 SUB PUSH1 0x0 DUP4 ADD MSTORE PUSH2 0x724 DUP2 DUP5 PUSH2 0x6AC JUMP JUMPDEST SWAP1 POP SWAP3 SWAP2 POP POP JUMP JUMPDEST PUSH2 0x735 DUP2 PUSH2 0x504 JUMP JUMPDEST DUP3 MSTORE POP POP JUMP JUMPDEST PUSH1 0x0 PUSH1 0x20 DUP3 ADD SWAP1 POP PUSH2 0x750 PUSH1 0x0 DUP4 ADD DUP5 PUSH2 0x72C JUMP JUMPDEST SWAP3 SWAP2 POP POP JUMP INVALID PUSH1 0x80 PUSH1 0x40 MSTORE CALLVALUE DUP1 ISZERO PUSH3 0x11 JUMPI PUSH1 0x0 DUP1 REVERT JUMPDEST POP PUSH1 0x40 MLOAD PUSH3 0x1EA8 CODESIZE SUB DUP1 PUSH3 0x1EA8 DUP4 CODECOPY DUP2 DUP2 ADD PUSH1 0x40 MSTORE DUP2 ADD SWAP1 PUSH3 0x37 SWAP2 SWAP1 PUSH3 0xE9 JUMP JUMPDEST DUP1 PUSH1 0x2 PUSH1 0x0 PUSH2 0x100 EXP DUP2 SLOAD DUP2 PUSH20 0xFFFFFFFFFFFFFFFFFFFFFFFFFFFFFFFFFFFFFFFF MUL NOT AND SWAP1 DUP4 PUSH20 0xFFFFFFFFFFFFFFFFFFFFFFFFFFFFFFFFFFFFFFFF AND MUL OR SWAP1 SSTORE POP POP PUSH3 0x11B JUMP JUMPDEST PUSH1 0x0 DUP1 REVERT JUMPDEST PUSH1 0x0 PUSH20 0xFFFFFFFFFFFFFFFFFFFFFFFFFFFFFFFFFFFFFFFF DUP3 AND SWAP1 POP SWAP2 SWAP1 POP JUMP JUMPDEST PUSH1 0x0 PUSH3 0xB1 DUP3 PUSH3 0x84 JUMP JUMPDEST SWAP1 POP SWAP2 SWAP1 POP JUMP JUMPDEST PUSH3 0xC3 DUP2 PUSH3 0xA4 JUMP JUMPDEST DUP2 EQ PUSH3 0xCF JUMPI PUSH1 0x0 DUP1 REVERT JUMPDEST POP JUMP JUMPDEST PUSH1 0x0 DUP2 MLOAD SWAP1 POP PUSH3 0xE3 DUP2 PUSH3 0xB8 JUMP JUMPDEST SWAP3 SWAP2 POP POP JUMP JUMPDEST PUSH1 0x0 PUSH1 0x20 DUP3 DUP5 SUB SLT ISZERO PUSH3 0x102 JUMPI PUSH3 0x101 PUSH3 0x7F JUMP JUMPDEST JUMPDEST PUSH1 0x0 PUSH3 0x112 DUP5 DUP3 DUP6 ADD PUSH3 0xD2 JUMP JUMPDEST SWAP2 POP POP SWAP3 SWAP2 POP POP JUMP JUMPDEST PUSH2 0x1D7D DUP1 PUSH3 0x12B PUSH1 0x0 CODECOPY PUSH1 0x0 RETURN INVALID PUSH1 0x80 PUSH1 0x40 MSTORE CALLVALUE DUP1 ISZERO PUSH2 0x10 JUMPI PUSH1 0x0 DUP1 REVERT JUMPDEST POP PUSH1 0x4 CALLDATASIZE LT PUSH2 0x93 JUMPI PUSH1 0x0 CALLDATALOAD PUSH1 0xE0 SHR DUP1 PUSH4 0xA5C9F7AD GT PUSH2 0x66 JUMPI DUP1 PUSH4 0xA5C9F7AD EQ PUSH2 0x102 JUMPI DUP1 PUSH4 0xADB4D990 EQ PUSH2 0x11E JUMPI DUP1 PUSH4 0xBDB37313 EQ PUSH2 0x13C JUMPI DUP1 PUSH4 0xEA00962F EQ PUSH2 0x162 JUMPI DUP1 PUSH4 0xF203C19D EQ PUSH2 0x180 JUMPI PUSH2 0x93 JUMP JUMPDEST DUP1 PUSH4 0x1B146ECF EQ PUSH2 0x98 JUMPI DUP1 PUSH4 0x263B81C9 EQ PUSH2 0xB4 JUMPI DUP1 PUSH4 0x481C6A75 EQ PUSH2 0xBE JUMPI DUP1 PUSH4 0x942886BE EQ PUSH2 0xDC JUMPI JUMPDEST PUSH1 0x0 DUP1 REVERT JUMPDEST PUSH2 0xB2 PUSH1 0x4 DUP1 CALLDATASIZE SUB DUP2 ADD SWAP1 PUSH2 0xAD SWAP2 SWAP1 PUSH2 0x1928 JUMP JUMPDEST PUSH2 0x19E JUMP JUMPDEST STOP JUMPDEST PUSH2 0xBC PUSH2 0x25E JUMP JUMPDEST STOP JUMPDEST PUSH2 0xC6 PUSH2 0x35B JUMP JUMPDEST PUSH1 0x40 MLOAD PUSH2 0xD3 SWAP2 SWAP1 PUSH2 0x19B2 JUMP JUMPDEST PUSH1 0x40 MLOAD DUP1 SWAP2 SUB SWAP1 RETURN JUMPDEST PUSH2 0xE4 PUSH2 0x381 JUMP JUMPDEST PUSH1 0x40 MLOAD PUSH2 0xF9 SWAP10 SWAP9 SWAP8 SWAP7 SWAP6 SWAP5 SWAP4 SWAP3 SWAP2 SWAP1 PUSH2 0x1A6E JUMP JUMPDEST PUSH1 0x40 MLOAD DUP1 SWAP2 SUB SWAP1 RETURN JUMPDEST PUSH2 0x11C PUSH1 0x4 DUP1 CALLDATASIZE SUB DUP2 ADD SWAP1 PUSH2 0x117 SWAP2 SWAP1 PUSH2 0x1B58 JUMP JUMPDEST PUSH2 0xB62 JUMP JUMPDEST STOP JUMPDEST PUSH2 0x126 PUSH2 0xFB0 JUMP JUMPDEST PUSH1 0x40 MLOAD PUSH2 0x133 SWAP2 SWAP1 PUSH2 0x19B2 JUMP JUMPDEST PUSH1 0x40 MLOAD DUP1 SWAP2 SUB SWAP1 RETURN JUMPDEST PUSH2 0x144 PUSH2 0xFD6 JUMP JUMPDEST PUSH1 0x40 MLOAD PUSH2 0x159 SWAP10 SWAP9 SWAP8 SWAP7 SWAP6 SWAP5 SWAP4 SWAP3 SWAP2 SWAP1 PUSH2 0x1A6E JUMP JUMPDEST PUSH1 0x40 MLOAD DUP1 SWAP2 SUB SWAP1 RETURN JUMPDEST PUSH2 0x16A PUSH2 0x16DE JUMP JUMPDEST PUSH1 0x40 MLOAD PUSH2 0x177 SWAP2 SWAP1 PUSH2 0x19B2 JUMP JUMPDEST PUSH1 0x40 MLOAD DUP1 SWAP2 SUB SWAP1 RETURN JUMPDEST PUSH2 0x188 PUSH2 0x1707 JUMP JUMPDEST PUSH1 0x40 MLOAD PUSH2 0x195 SWAP2 SWAP1 PUSH2 0x19B2 JUMP JUMPDEST PUSH1 0x40 MLOAD DUP1 SWAP2 SUB SWAP1 RETURN JUMPDEST PUSH1 0x40 MLOAD DUP1 PUSH1 0x60 ADD PUSH1 0x40 MSTORE DUP1 DUP3 DUP2 MSTORE PUSH1 0x20 ADD CALLER PUSH20 0xFFFFFFFFFFFFFFFFFFFFFFFFFFFFFFFFFFFFFFFF AND DUP2 MSTORE PUSH1 0x20 ADD PUSH1 0x0 ISZERO ISZERO DUP2 MSTORE POP PUSH1 0x4 PUSH1 0x0 DUP3 ADD MLOAD DUP2 PUSH1 0x0 ADD SWAP1 DUP1 MLOAD SWAP1 PUSH1 0x20 ADD SWAP1 PUSH2 0x1F0 SWAP3 SWAP2 SWAP1 PUSH2 0x172B JUMP JUMPDEST POP PUSH1 0x20 DUP3 ADD MLOAD DUP2 PUSH1 0x1 ADD PUSH1 0x0 PUSH2 0x100 EXP DUP2 SLOAD DUP2 PUSH20 0xFFFFFFFFFFFFFFFFFFFFFFFFFFFFFFFFFFFFFFFF MUL NOT AND SWAP1 DUP4 PUSH20 0xFFFFFFFFFFFFFFFFFFFFFFFFFFFFFFFFFFFFFFFF AND MUL OR SWAP1 SSTORE POP PUSH1 0x40 DUP3 ADD MLOAD DUP2 PUSH1 0x1 ADD PUSH1 0x14 PUSH2 0x100 EXP DUP2 SLOAD DUP2 PUSH1 0xFF MUL NOT AND SWAP1 DUP4 ISZERO ISZERO MUL OR SWAP1 SSTORE POP SWAP1 POP POP POP JUMP JUMPDEST PUSH1 0x2 PUSH1 0x0 SWAP1 SLOAD SWAP1 PUSH2 0x100 EXP SWAP1 DIV PUSH20 0xFFFFFFFFFFFFFFFFFFFFFFFFFFFFFFFFFFFFFFFF AND PUSH20 0xFFFFFFFFFFFFFFFFFFFFFFFFFFFFFFFFFFFFFFFF AND CALLER PUSH20 0xFFFFFFFFFFFFFFFFFFFFFFFFFFFFFFFFFFFFFFFF AND EQ PUSH2 0x2B8 JUMPI PUSH1 0x0 DUP1 REVERT JUMPDEST PUSH1 0x4 PUSH1 0x1 ADD PUSH1 0x14 SWAP1 SLOAD SWAP1 PUSH2 0x100 EXP SWAP1 DIV PUSH1 0xFF AND ISZERO PUSH2 0x2D5 JUMPI PUSH1 0x0 DUP1 REVERT JUMPDEST PUSH1 0x4 PUSH1 0x1 ADD PUSH1 0x0 SWAP1 SLOAD SWAP1 PUSH2 0x100 EXP SWAP1 DIV PUSH20 0xFFFFFFFFFFFFFFFFFFFFFFFFFFFFFFFFFFFFFFFF AND PUSH1 0x3 PUSH1 0x0 PUSH2 0x100 EXP DUP2 SLOAD DUP2 PUSH20 0xFFFFFFFFFFFFFFFFFFFFFFFFFFFFFFFFFFFFFFFF MUL NOT AND SWAP1 DUP4 PUSH20 0xFFFFFFFFFFFFFFFFFFFFFFFFFFFFFFFFFFFFFFFF AND MUL OR SWAP1 SSTORE POP PUSH1 0x1 PUSH1 0x4 PUSH1 0x1 ADD PUSH1 0x14 PUSH2 0x100 EXP DUP2 SLOAD DUP2 PUSH1 0xFF MUL NOT AND SWAP1 DUP4 ISZERO ISZERO MUL OR SWAP1 SSTORE POP JUMP JUMPDEST PUSH1 0x2 PUSH1 0x0 SWAP1 SLOAD SWAP1 PUSH2 0x100 EXP SWAP1 DIV PUSH20 0xFFFFFFFFFFFFFFFFFFFFFFFFFFFFFFFFFFFFFFFF AND DUP2 JUMP JUMPDEST PUSH1 0x60 DUP1 PUSH1 0x60 DUP1 PUSH1 0x60 PUSH1 0x0 PUSH1 0x60 PUSH1 0x0 PUSH1 0x60 PUSH1 0x3 PUSH1 0x0 SWAP1 SLOAD SWAP1 PUSH2 0x100 EXP SWAP1 DIV PUSH20 0xFFFFFFFFFFFFFFFFFFFFFFFFFFFFFFFFFFFFFFFF AND PUSH20 0xFFFFFFFFFFFFFFFFFFFFFFFFFFFFFFFFFFFFFFFF AND CALLER PUSH20 0xFFFFFFFFFFFFFFFFFFFFFFFFFFFFFFFFFFFFFFFF AND EQ PUSH2 0x3EB JUMPI PUSH1 0x0 DUP1 REVERT JUMPDEST PUSH1 0x1 PUSH1 0x0 PUSH1 0x2 PUSH1 0x0 SWAP1 SLOAD SWAP1 PUSH2 0x100 EXP SWAP1 DIV PUSH20 0xFFFFFFFFFFFFFFFFFFFFFFFFFFFFFFFFFFFFFFFF AND PUSH20 0xFFFFFFFFFFFFFFFFFFFFFFFFFFFFFFFFFFFFFFFF AND PUSH20 0xFFFFFFFFFFFFFFFFFFFFFFFFFFFFFFFFFFFFFFFF AND DUP2 MSTORE PUSH1 0x20 ADD SWAP1 DUP2 MSTORE PUSH1 0x20 ADD PUSH1 0x0 KECCAK256 PUSH1 0x0 ADD PUSH1 0x1 PUSH1 0x0 PUSH1 0x2 PUSH1 0x0 SWAP1 SLOAD SWAP1 PUSH2 0x100 EXP SWAP1 DIV PUSH20 0xFFFFFFFFFFFFFFFFFFFFFFFFFFFFFFFFFFFFFFFF AND PUSH20 0xFFFFFFFFFFFFFFFFFFFFFFFFFFFFFFFFFFFFFFFF AND PUSH20 0xFFFFFFFFFFFFFFFFFFFFFFFFFFFFFFFFFFFFFFFF AND DUP2 MSTORE PUSH1 0x20 ADD SWAP1 DUP2 MSTORE PUSH1 0x20 ADD PUSH1 0x0 KECCAK256 PUSH1 0x1 ADD PUSH1 0x1 PUSH1 0x0 PUSH1 0x2 PUSH1 0x0 SWAP1 SLOAD SWAP1 PUSH2 0x100 EXP SWAP1 DIV PUSH20 0xFFFFFFFFFFFFFFFFFFFFFFFFFFFFFFFFFFFFFFFF AND PUSH20 0xFFFFFFFFFFFFFFFFFFFFFFFFFFFFFFFFFFFFFFFF AND PUSH20 0xFFFFFFFFFFFFFFFFFFFFFFFFFFFFFFFFFFFFFFFF AND DUP2 MSTORE PUSH1 0x20 ADD SWAP1 DUP2 MSTORE PUSH1 0x20 ADD PUSH1 0x0 KECCAK256 PUSH1 0x2 ADD PUSH1 0x1 PUSH1 0x0 PUSH1 0x2 PUSH1 0x0 SWAP1 SLOAD SWAP1 PUSH2 0x100 EXP SWAP1 DIV PUSH20 0xFFFFFFFFFFFFFFFFFFFFFFFFFFFFFFFFFFFFFFFF AND PUSH20 0xFFFFFFFFFFFFFFFFFFFFFFFFFFFFFFFFFFFFFFFF AND PUSH20 0xFFFFFFFFFFFFFFFFFFFFFFFFFFFFFFFFFFFFFFFF AND DUP2 MSTORE PUSH1 0x20 ADD SWAP1 DUP2 MSTORE PUSH1 0x20 ADD PUSH1 0x0 KECCAK256 PUSH1 0x3 ADD PUSH1 0x1 PUSH1 0x0 PUSH1 0x2 PUSH1 0x0 SWAP1 SLOAD SWAP1 PUSH2 0x100 EXP SWAP1 DIV PUSH20 0xFFFFFFFFFFFFFFFFFFFFFFFFFFFFFFFFFFFFFFFF AND PUSH20 0xFFFFFFFFFFFFFFFFFFFFFFFFFFFFFFFFFFFFFFFF AND PUSH20 0xFFFFFFFFFFFFFFFFFFFFFFFFFFFFFFFFFFFFFFFF AND DUP2 MSTORE PUSH1 0x20 ADD SWAP1 DUP2 MSTORE PUSH1 0x20 ADD PUSH1 0x0 KECCAK256 PUSH1 0x4 ADD PUSH1 0x1 PUSH1 0x0 PUSH1 0x2 PUSH1 0x0 SWAP1 SLOAD SWAP1 PUSH2 0x100 EXP SWAP1 DIV PUSH20 0xFFFFFFFFFFFFFFFFFFFFFFFFFFFFFFFFFFFFFFFF AND PUSH20 0xFFFFFFFFFFFFFFFFFFFFFFFFFFFFFFFFFFFFFFFF AND PUSH20 0xFFFFFFFFFFFFFFFFFFFFFFFFFFFFFFFFFFFFFFFF AND DUP2 MSTORE PUSH1 0x20 ADD SWAP1 DUP2 MSTORE PUSH1 0x20 ADD PUSH1 0x0 KECCAK256 PUSH1 0x5 ADD SLOAD PUSH1 0x1 PUSH1 0x0 PUSH1 0x2 PUSH1 0x0 SWAP1 SLOAD SWAP1 PUSH2 0x100 EXP SWAP1 DIV PUSH20 0xFFFFFFFFFFFFFFFFFFFFFFFFFFFFFFFFFFFFFFFF AND PUSH20 0xFFFFFFFFFFFFFFFFFFFFFFFFFFFFFFFFFFFFFFFF AND PUSH20 0xFFFFFFFFFFFFFFFFFFFFFFFFFFFFFFFFFFFFFFFF AND DUP2 MSTORE PUSH1 0x20 ADD SWAP1 DUP2 MSTORE PUSH1 0x20 ADD PUSH1 0x0 KECCAK256 PUSH1 0x6 ADD PUSH1 0x1 PUSH1 0x0 PUSH1 0x2 PUSH1 0x0 SWAP1 SLOAD SWAP1 PUSH2 0x100 EXP SWAP1 DIV PUSH20 0xFFFFFFFFFFFFFFFFFFFFFFFFFFFFFFFFFFFFFFFF AND PUSH20 0xFFFFFFFFFFFFFFFFFFFFFFFFFFFFFFFFFFFFFFFF AND PUSH20 0xFFFFFFFFFFFFFFFFFFFFFFFFFFFFFFFFFFFFFFFF AND DUP2 MSTORE PUSH1 0x20 ADD SWAP1 DUP2 MSTORE PUSH1 0x20 ADD PUSH1 0x0 KECCAK256 PUSH1 0x7 ADD SLOAD PUSH1 0x1 PUSH1 0x0 PUSH1 0x2 PUSH1 0x0 SWAP1 SLOAD SWAP1 PUSH2 0x100 EXP SWAP1 DIV PUSH20 0xFFFFFFFFFFFFFFFFFFFFFFFFFFFFFFFFFFFFFFFF AND PUSH20 0xFFFFFFFFFFFFFFFFFFFFFFFFFFFFFFFFFFFFFFFF AND PUSH20 0xFFFFFFFFFFFFFFFFFFFFFFFFFFFFFFFFFFFFFFFF AND DUP2 MSTORE PUSH1 0x20 ADD SWAP1 DUP2 MSTORE PUSH1 0x20 ADD PUSH1 0x0 KECCAK256 PUSH1 0x8 ADD DUP9 DUP1 SLOAD PUSH2 0x77D SWAP1 PUSH2 0x1D15 JUMP JUMPDEST DUP1 PUSH1 0x1F ADD PUSH1 0x20 DUP1 SWAP2 DIV MUL PUSH1 0x20 ADD PUSH1 0x40 MLOAD SWAP1 DUP2 ADD PUSH1 0x40 MSTORE DUP1 SWAP3 SWAP2 SWAP1 DUP2 DUP2 MSTORE PUSH1 0x20 ADD DUP3 DUP1 SLOAD PUSH2 0x7A9 SWAP1 PUSH2 0x1D15 JUMP JUMPDEST DUP1 ISZERO PUSH2 0x7F6 JUMPI DUP1 PUSH1 0x1F LT PUSH2 0x7CB JUMPI PUSH2 0x100 DUP1 DUP4 SLOAD DIV MUL DUP4 MSTORE SWAP2 PUSH1 0x20 ADD SWAP2 PUSH2 0x7F6 JUMP JUMPDEST DUP3 ADD SWAP2 SWAP1 PUSH1 0x0 MSTORE PUSH1 0x20 PUSH1 0x0 KECCAK256 SWAP1 JUMPDEST DUP2 SLOAD DUP2 MSTORE SWAP1 PUSH1 0x1 ADD SWAP1 PUSH1 0x20 ADD DUP1 DUP4 GT PUSH2 0x7D9 JUMPI DUP3 SWAP1 SUB PUSH1 0x1F AND DUP3 ADD SWAP2 JUMPDEST POP POP POP POP POP SWAP9 POP DUP8 DUP1 SLOAD PUSH2 0x809 SWAP1 PUSH2 0x1D15 JUMP JUMPDEST DUP1 PUSH1 0x1F ADD PUSH1 0x20 DUP1 SWAP2 DIV MUL PUSH1 0x20 ADD PUSH1 0x40 MLOAD SWAP1 DUP2 ADD PUSH1 0x40 MSTORE DUP1 SWAP3 SWAP2 SWAP1 DUP2 DUP2 MSTORE PUSH1 0x20 ADD DUP3 DUP1 SLOAD PUSH2 0x835 SWAP1 PUSH2 0x1D15 JUMP JUMPDEST DUP1 ISZERO PUSH2 0x882 JUMPI DUP1 PUSH1 0x1F LT PUSH2 0x857 JUMPI PUSH2 0x100 DUP1 DUP4 SLOAD DIV MUL DUP4 MSTORE SWAP2 PUSH1 0x20 ADD SWAP2 PUSH2 0x882 JUMP JUMPDEST DUP3 ADD SWAP2 SWAP1 PUSH1 0x0 MSTORE PUSH1 0x20 PUSH1 0x0 KECCAK256 SWAP1 JUMPDEST DUP2 SLOAD DUP2 MSTORE SWAP1 PUSH1 0x1 ADD SWAP1 PUSH1 0x20 ADD DUP1 DUP4 GT PUSH2 0x865 JUMPI DUP3 SWAP1 SUB PUSH1 0x1F AND DUP3 ADD SWAP2 JUMPDEST POP POP POP POP POP SWAP8 POP DUP7 DUP1 SLOAD PUSH2 0x895 SWAP1 PUSH2 0x1D15 JUMP JUMPDEST DUP1 PUSH1 0x1F ADD PUSH1 0x20 DUP1 SWAP2 DIV MUL PUSH1 0x20 ADD PUSH1 0x40 MLOAD SWAP1 DUP2 ADD PUSH1 0x40 MSTORE DUP1 SWAP3 SWAP2 SWAP1 DUP2 DUP2 MSTORE PUSH1 0x20 ADD DUP3 DUP1 SLOAD PUSH2 0x8C1 SWAP1 PUSH2 0x1D15 JUMP JUMPDEST DUP1 ISZERO PUSH2 0x90E JUMPI DUP1 PUSH1 0x1F LT PUSH2 0x8E3 JUMPI PUSH2 0x100 DUP1 DUP4 SLOAD DIV MUL DUP4 MSTORE SWAP2 PUSH1 0x20 ADD SWAP2 PUSH2 0x90E JUMP JUMPDEST DUP3 ADD SWAP2 SWAP1 PUSH1 0x0 MSTORE PUSH1 0x20 PUSH1 0x0 KECCAK256 SWAP1 JUMPDEST DUP2 SLOAD DUP2 MSTORE SWAP1 PUSH1 0x1 ADD SWAP1 PUSH1 0x20 ADD DUP1 DUP4 GT PUSH2 0x8F1 JUMPI DUP3 SWAP1 SUB PUSH1 0x1F AND DUP3 ADD SWAP2 JUMPDEST POP POP POP POP POP SWAP7 POP DUP6 DUP1 SLOAD PUSH2 0x921 SWAP1 PUSH2 0x1D15 JUMP JUMPDEST DUP1 PUSH1 0x1F ADD PUSH1 0x20 DUP1 SWAP2 DIV MUL PUSH1 0x20 ADD PUSH1 0x40 MLOAD SWAP1 DUP2 ADD PUSH1 0x40 MSTORE DUP1 SWAP3 SWAP2 SWAP1 DUP2 DUP2 MSTORE PUSH1 0x20 ADD DUP3 DUP1 SLOAD PUSH2 0x94D SWAP1 PUSH2 0x1D15 JUMP JUMPDEST DUP1 ISZERO PUSH2 0x99A JUMPI DUP1 PUSH1 0x1F LT PUSH2 0x96F JUMPI PUSH2 0x100 DUP1 DUP4 SLOAD DIV MUL DUP4 MSTORE SWAP2 PUSH1 0x20 ADD SWAP2 PUSH2 0x99A JUMP JUMPDEST DUP3 ADD SWAP2 SWAP1 PUSH1 0x0 MSTORE PUSH1 0x20 PUSH1 0x0 KECCAK256 SWAP1 JUMPDEST DUP2 SLOAD DUP2 MSTORE SWAP1 PUSH1 0x1 ADD SWAP1 PUSH1 0x20 ADD DUP1 DUP4 GT PUSH2 0x97D JUMPI DUP3 SWAP1 SUB PUSH1 0x1F AND DUP3 ADD SWAP2 JUMPDEST POP POP POP POP POP SWAP6 POP DUP5 DUP1 SLOAD PUSH2 0x9AD SWAP1 PUSH2 0x1D15 JUMP JUMPDEST DUP1 PUSH1 0x1F ADD PUSH1 0x20 DUP1 SWAP2 DIV MUL PUSH1 0x20 ADD PUSH1 0x40 MLOAD SWAP1 DUP2 ADD PUSH1 0x40 MSTORE DUP1 SWAP3 SWAP2 SWAP1 DUP2 DUP2 MSTORE PUSH1 0x20 ADD DUP3 DUP1 SLOAD PUSH2 0x9D9 SWAP1 PUSH2 0x1D15 JUMP JUMPDEST DUP1 ISZERO PUSH2 0xA26 JUMPI DUP1 PUSH1 0x1F LT PUSH2 0x9FB JUMPI PUSH2 0x100 DUP1 DUP4 SLOAD DIV MUL DUP4 MSTORE SWAP2 PUSH1 0x20 ADD SWAP2 PUSH2 0xA26 JUMP JUMPDEST DUP3 ADD SWAP2 SWAP1 PUSH1 0x0 MSTORE PUSH1 0x20 PUSH1 0x0 KECCAK256 SWAP1 JUMPDEST DUP2 SLOAD DUP2 MSTORE SWAP1 PUSH1 0x1 ADD SWAP1 PUSH1 0x20 ADD DUP1 DUP4 GT PUSH2 0xA09 JUMPI DUP3 SWAP1 SUB PUSH1 0x1F AND DUP3 ADD SWAP2 JUMPDEST POP POP POP POP POP SWAP5 POP DUP3 DUP1 SLOAD PUSH2 0xA39 SWAP1 PUSH2 0x1D15 JUMP JUMPDEST DUP1 PUSH1 0x1F ADD PUSH1 0x20 DUP1 SWAP2 DIV MUL PUSH1 0x20 ADD PUSH1 0x40 MLOAD SWAP1 DUP2 ADD PUSH1 0x40 MSTORE DUP1 SWAP3 SWAP2 SWAP1 DUP2 DUP2 MSTORE PUSH1 0x20 ADD DUP3 DUP1 SLOAD PUSH2 0xA65 SWAP1 PUSH2 0x1D15 JUMP JUMPDEST DUP1 ISZERO PUSH2 0xAB2 JUMPI DUP1 PUSH1 0x1F LT PUSH2 0xA87 JUMPI PUSH2 0x100 DUP1 DUP4 SLOAD DIV MUL DUP4 MSTORE SWAP2 PUSH1 0x20 ADD SWAP2 PUSH2 0xAB2 JUMP JUMPDEST DUP3 ADD SWAP2 SWAP1 PUSH1 0x0 MSTORE PUSH1 0x20 PUSH1 0x0 KECCAK256 SWAP1 JUMPDEST DUP2 SLOAD DUP2 MSTORE SWAP1 PUSH1 0x1 ADD SWAP1 PUSH1 0x20 ADD DUP1 DUP4 GT PUSH2 0xA95 JUMPI DUP3 SWAP1 SUB PUSH1 0x1F AND DUP3 ADD SWAP2 JUMPDEST POP POP POP POP POP SWAP3 POP DUP1 DUP1 SLOAD PUSH2 0xAC5 SWAP1 PUSH2 0x1D15 JUMP JUMPDEST DUP1 PUSH1 0x1F ADD PUSH1 0x20 DUP1 SWAP2 DIV MUL PUSH1 0x20 ADD PUSH1 0x40 MLOAD SWAP1 DUP2 ADD PUSH1 0x40 MSTORE DUP1 SWAP3 SWAP2 SWAP1 DUP2 DUP2 MSTORE PUSH1 0x20 ADD DUP3 DUP1 SLOAD PUSH2 0xAF1 SWAP1 PUSH2 0x1D15 JUMP JUMPDEST DUP1 ISZERO PUSH2 0xB3E JUMPI DUP1 PUSH1 0x1F LT PUSH2 0xB13 JUMPI PUSH2 0x100 DUP1 DUP4 SLOAD DIV MUL DUP4 MSTORE SWAP2 PUSH1 0x20 ADD SWAP2 PUSH2 0xB3E JUMP JUMPDEST DUP3 ADD SWAP2 SWAP1 PUSH1 0x0 MSTORE PUSH1 0x20 PUSH1 0x0 KECCAK256 SWAP1 JUMPDEST DUP2 SLOAD DUP2 MSTORE SWAP1 PUSH1 0x1 ADD SWAP1 PUSH1 0x20 ADD DUP1 DUP4 GT PUSH2 0xB21 JUMPI DUP3 SWAP1 SUB PUSH1 0x1F AND DUP3 ADD SWAP2 JUMPDEST POP POP POP POP POP SWAP1 POP SWAP9 POP SWAP9 POP SWAP9 POP SWAP9 POP SWAP9 POP SWAP9 POP SWAP9 POP SWAP9 POP SWAP9 POP SWAP1 SWAP2 SWAP3 SWAP4 SWAP5 SWAP6 SWAP7 SWAP8 SWAP9 JUMP JUMPDEST PUSH1 0x2 PUSH1 0x0 SWAP1 SLOAD SWAP1 PUSH2 0x100 EXP SWAP1 DIV PUSH20 0xFFFFFFFFFFFFFFFFFFFFFFFFFFFFFFFFFFFFFFFF AND PUSH20 0xFFFFFFFFFFFFFFFFFFFFFFFFFFFFFFFFFFFFFFFF AND CALLER PUSH20 0xFFFFFFFFFFFFFFFFFFFFFFFFFFFFFFFFFFFFFFFF AND EQ PUSH2 0xBBC JUMPI PUSH1 0x0 DUP1 REVERT JUMPDEST PUSH1 0x0 CALLER SWAP1 POP PUSH1 0x1 PUSH1 0x0 DUP3 PUSH20 0xFFFFFFFFFFFFFFFFFFFFFFFFFFFFFFFFFFFFFFFF AND PUSH20 0xFFFFFFFFFFFFFFFFFFFFFFFFFFFFFFFFFFFFFFFF AND DUP2 MSTORE PUSH1 0x20 ADD SWAP1 DUP2 MSTORE PUSH1 0x20 ADD PUSH1 0x0 KECCAK256 PUSH1 0x9 ADD PUSH1 0x0 SWAP1 SLOAD SWAP1 PUSH2 0x100 EXP SWAP1 DIV PUSH1 0xFF AND ISZERO PUSH2 0xC1B JUMPI PUSH1 0x0 DUP1 REVERT JUMPDEST DUP1 PUSH1 0x0 DUP1 PUSH2 0x100 EXP DUP2 SLOAD DUP2 PUSH20 0xFFFFFFFFFFFFFFFFFFFFFFFFFFFFFFFFFFFFFFFF MUL NOT AND SWAP1 DUP4 PUSH20 0xFFFFFFFFFFFFFFFFFFFFFFFFFFFFFFFFFFFFFFFF AND MUL OR SWAP1 SSTORE POP DUP10 PUSH1 0x1 PUSH1 0x0 DUP4 PUSH20 0xFFFFFFFFFFFFFFFFFFFFFFFFFFFFFFFFFFFFFFFF AND PUSH20 0xFFFFFFFFFFFFFFFFFFFFFFFFFFFFFFFFFFFFFFFF AND DUP2 MSTORE PUSH1 0x20 ADD SWAP1 DUP2 MSTORE PUSH1 0x20 ADD PUSH1 0x0 KECCAK256 PUSH1 0x0 ADD SWAP1 DUP1 MLOAD SWAP1 PUSH1 0x20 ADD SWAP1 PUSH2 0xCB1 SWAP3 SWAP2 SWAP1 PUSH2 0x172B JUMP JUMPDEST POP DUP9 PUSH1 0x1 PUSH1 0x0 DUP4 PUSH20 0xFFFFFFFFFFFFFFFFFFFFFFFFFFFFFFFFFFFFFFFF AND PUSH20 0xFFFFFFFFFFFFFFFFFFFFFFFFFFFFFFFFFFFFFFFF AND DUP2 MSTORE PUSH1 0x20 ADD SWAP1 DUP2 MSTORE PUSH1 0x20 ADD PUSH1 0x0 KECCAK256 PUSH1 0x1 ADD SWAP1 DUP1 MLOAD SWAP1 PUSH1 0x20 ADD SWAP1 PUSH2 0xD08 SWAP3 SWAP2 SWAP1 PUSH2 0x172B JUMP JUMPDEST POP DUP8 PUSH1 0x1 PUSH1 0x0 DUP4 PUSH20 0xFFFFFFFFFFFFFFFFFFFFFFFFFFFFFFFFFFFFFFFF AND PUSH20 0xFFFFFFFFFFFFFFFFFFFFFFFFFFFFFFFFFFFFFFFF AND DUP2 MSTORE PUSH1 0x20 ADD SWAP1 DUP2 MSTORE PUSH1 0x20 ADD PUSH1 0x0 KECCAK256 PUSH1 0x2 ADD SWAP1 DUP1 MLOAD SWAP1 PUSH1 0x20 ADD SWAP1 PUSH2 0xD5F SWAP3 SWAP2 SWAP1 PUSH2 0x172B JUMP JUMPDEST POP DUP7 PUSH1 0x1 PUSH1 0x0 DUP4 PUSH20 0xFFFFFFFFFFFFFFFFFFFFFFFFFFFFFFFFFFFFFFFF AND PUSH20 0xFFFFFFFFFFFFFFFFFFFFFFFFFFFFFFFFFFFFFFFF AND DUP2 MSTORE PUSH1 0x20 ADD SWAP1 DUP2 MSTORE PUSH1 0x20 ADD PUSH1 0x0 KECCAK256 PUSH1 0x3 ADD SWAP1 DUP1 MLOAD SWAP1 PUSH1 0x20 ADD SWAP1 PUSH2 0xDB6 SWAP3 SWAP2 SWAP1 PUSH2 0x172B JUMP JUMPDEST POP DUP6 PUSH1 0x1 PUSH1 0x0 DUP4 PUSH20 0xFFFFFFFFFFFFFFFFFFFFFFFFFFFFFFFFFFFFFFFF AND PUSH20 0xFFFFFFFFFFFFFFFFFFFFFFFFFFFFFFFFFFFFFFFF AND DUP2 MSTORE PUSH1 0x20 ADD SWAP1 DUP2 MSTORE PUSH1 0x20 ADD PUSH1 0x0 KECCAK256 PUSH1 0x4 ADD SWAP1 DUP1 MLOAD SWAP1 PUSH1 0x20 ADD SWAP1 PUSH2 0xE0D SWAP3 SWAP2 SWAP1 PUSH2 0x172B JUMP JUMPDEST POP DUP5 PUSH1 0x1 PUSH1 0x0 DUP4 PUSH20 0xFFFFFFFFFFFFFFFFFFFFFFFFFFFFFFFFFFFFFFFF AND PUSH20 0xFFFFFFFFFFFFFFFFFFFFFFFFFFFFFFFFFFFFFFFF AND DUP2 MSTORE PUSH1 0x20 ADD SWAP1 DUP2 MSTORE PUSH1 0x20 ADD PUSH1 0x0 KECCAK256 PUSH1 0x5 ADD DUP2 SWAP1 SSTORE POP DUP4 PUSH1 0x1 PUSH1 0x0 DUP4 PUSH20 0xFFFFFFFFFFFFFFFFFFFFFFFFFFFFFFFFFFFFFFFF AND PUSH20 0xFFFFFFFFFFFFFFFFFFFFFFFFFFFFFFFFFFFFFFFF AND DUP2 MSTORE PUSH1 0x20 ADD SWAP1 DUP2 MSTORE PUSH1 0x20 ADD PUSH1 0x0 KECCAK256 PUSH1 0x6 ADD SWAP1 DUP1 MLOAD SWAP1 PUSH1 0x20 ADD SWAP1 PUSH2 0xEAB SWAP3 SWAP2 SWAP1 PUSH2 0x172B JUMP JUMPDEST POP DUP3 PUSH1 0x1 PUSH1 0x0 DUP4 PUSH20 0xFFFFFFFFFFFFFFFFFFFFFFFFFFFFFFFFFFFFFFFF AND PUSH20 0xFFFFFFFFFFFFFFFFFFFFFFFFFFFFFFFFFFFFFFFF AND DUP2 MSTORE PUSH1 0x20 ADD SWAP1 DUP2 MSTORE PUSH1 0x20 ADD PUSH1 0x0 KECCAK256 PUSH1 0x7 ADD DUP2 SWAP1 SSTORE POP DUP2 PUSH1 0x1 PUSH1 0x0 DUP4 PUSH20 0xFFFFFFFFFFFFFFFFFFFFFFFFFFFFFFFFFFFFFFFF AND PUSH20 0xFFFFFFFFFFFFFFFFFFFFFFFFFFFFFFFFFFFFFFFF AND DUP2 MSTORE PUSH1 0x20 ADD SWAP1 DUP2 MSTORE PUSH1 0x20 ADD PUSH1 0x0 KECCAK256 PUSH1 0x8 ADD SWAP1 DUP1 MLOAD SWAP1 PUSH1 0x20 ADD SWAP1 PUSH2 0xF49 SWAP3 SWAP2 SWAP1 PUSH2 0x172B JUMP JUMPDEST POP PUSH1 0x1 DUP1 PUSH1 0x0 DUP4 PUSH20 0xFFFFFFFFFFFFFFFFFFFFFFFFFFFFFFFFFFFFFFFF AND PUSH20 0xFFFFFFFFFFFFFFFFFFFFFFFFFFFFFFFFFFFFFFFF AND DUP2 MSTORE PUSH1 0x20 ADD SWAP1 DUP2 MSTORE PUSH1 0x20 ADD PUSH1 0x0 KECCAK256 PUSH1 0x9 ADD PUSH1 0x0 PUSH2 0x100 EXP DUP2 SLOAD DUP2 PUSH1 0xFF MUL NOT AND SWAP1 DUP4 ISZERO ISZERO MUL OR SWAP1 SSTORE POP POP POP POP POP POP POP POP POP POP POP JUMP JUMPDEST PUSH1 0x3 PUSH1 0x0 SWAP1 SLOAD SWAP1 PUSH2 0x100 EXP SWAP1 DIV PUSH20 0xFFFFFFFFFFFFFFFFFFFFFFFFFFFFFFFFFFFFFFFF AND DUP2 JUMP JUMPDEST PUSH1 0x60 DUP1 PUSH1 0x60 DUP1 PUSH1 0x60 PUSH1 0x0 PUSH1 0x60 PUSH1 0x0 PUSH1 0x60 PUSH1 0x2 PUSH1 0x0 SWAP1 SLOAD SWAP1 PUSH2 0x100 EXP SWAP1 DIV PUSH20 0xFFFFFFFFFFFFFFFFFFFFFFFFFFFFFFFFFFFFFFFF AND PUSH20 0xFFFFFFFFFFFFFFFFFFFFFFFFFFFFFFFFFFFFFFFF AND CALLER PUSH20 0xFFFFFFFFFFFFFFFFFFFFFFFFFFFFFFFFFFFFFFFF AND EQ PUSH2 0x1040 JUMPI PUSH1 0x0 DUP1 REVERT JUMPDEST PUSH1 0x1 PUSH1 0x0 CALLER PUSH20 0xFFFFFFFFFFFFFFFFFFFFFFFFFFFFFFFFFFFFFFFF AND PUSH20 0xFFFFFFFFFFFFFFFFFFFFFFFFFFFFFFFFFFFFFFFF AND DUP2 MSTORE PUSH1 0x20 ADD SWAP1 DUP2 MSTORE PUSH1 0x20 ADD PUSH1 0x0 KECCAK256 PUSH1 0x9 ADD PUSH1 0x0 SWAP1 SLOAD SWAP1 PUSH2 0x100 EXP SWAP1 DIV PUSH1 0xFF AND PUSH2 0x1099 JUMPI PUSH1 0x0 DUP1 REVERT JUMPDEST PUSH1 0x1 PUSH1 0x0 CALLER PUSH20 0xFFFFFFFFFFFFFFFFFFFFFFFFFFFFFFFFFFFFFFFF AND PUSH20 0xFFFFFFFFFFFFFFFFFFFFFFFFFFFFFFFFFFFFFFFF AND DUP2 MSTORE PUSH1 0x20 ADD SWAP1 DUP2 MSTORE PUSH1 0x20 ADD PUSH1 0x0 KECCAK256 PUSH1 0x0 ADD PUSH1 0x1 PUSH1 0x0 CALLER PUSH20 0xFFFFFFFFFFFFFFFFFFFFFFFFFFFFFFFFFFFFFFFF AND PUSH20 0xFFFFFFFFFFFFFFFFFFFFFFFFFFFFFFFFFFFFFFFF AND DUP2 MSTORE PUSH1 0x20 ADD SWAP1 DUP2 MSTORE PUSH1 0x20 ADD PUSH1 0x0 KECCAK256 PUSH1 0x1 ADD PUSH1 0x1 PUSH1 0x0 CALLER PUSH20 0xFFFFFFFFFFFFFFFFFFFFFFFFFFFFFFFFFFFFFFFF AND PUSH20 0xFFFFFFFFFFFFFFFFFFFFFFFFFFFFFFFFFFFFFFFF AND DUP2 MSTORE PUSH1 0x20 ADD SWAP1 DUP2 MSTORE PUSH1 0x20 ADD PUSH1 0x0 KECCAK256 PUSH1 0x2 ADD PUSH1 0x1 PUSH1 0x0 CALLER PUSH20 0xFFFFFFFFFFFFFFFFFFFFFFFFFFFFFFFFFFFFFFFF AND PUSH20 0xFFFFFFFFFFFFFFFFFFFFFFFFFFFFFFFFFFFFFFFF AND DUP2 MSTORE PUSH1 0x20 ADD SWAP1 DUP2 MSTORE PUSH1 0x20 ADD PUSH1 0x0 KECCAK256 PUSH1 0x3 ADD PUSH1 0x1 PUSH1 0x0 CALLER PUSH20 0xFFFFFFFFFFFFFFFFFFFFFFFFFFFFFFFFFFFFFFFF AND PUSH20 0xFFFFFFFFFFFFFFFFFFFFFFFFFFFFFFFFFFFFFFFF AND DUP2 MSTORE PUSH1 0x20 ADD SWAP1 DUP2 MSTORE PUSH1 0x20 ADD PUSH1 0x0 KECCAK256 PUSH1 0x4 ADD PUSH1 0x1 PUSH1 0x0 CALLER PUSH20 0xFFFFFFFFFFFFFFFFFFFFFFFFFFFFFFFFFFFFFFFF AND PUSH20 0xFFFFFFFFFFFFFFFFFFFFFFFFFFFFFFFFFFFFFFFF AND DUP2 MSTORE PUSH1 0x20 ADD SWAP1 DUP2 MSTORE PUSH1 0x20 ADD PUSH1 0x0 KECCAK256 PUSH1 0x5 ADD SLOAD PUSH1 0x1 PUSH1 0x0 CALLER PUSH20 0xFFFFFFFFFFFFFFFFFFFFFFFFFFFFFFFFFFFFFFFF AND PUSH20 0xFFFFFFFFFFFFFFFFFFFFFFFFFFFFFFFFFFFFFFFF AND DUP2 MSTORE PUSH1 0x20 ADD SWAP1 DUP2 MSTORE PUSH1 0x20 ADD PUSH1 0x0 KECCAK256 PUSH1 0x6 ADD PUSH1 0x1 PUSH1 0x0 CALLER PUSH20 0xFFFFFFFFFFFFFFFFFFFFFFFFFFFFFFFFFFFFFFFF AND PUSH20 0xFFFFFFFFFFFFFFFFFFFFFFFFFFFFFFFFFFFFFFFF AND DUP2 MSTORE PUSH1 0x20 ADD SWAP1 DUP2 MSTORE PUSH1 0x20 ADD PUSH1 0x0 KECCAK256 PUSH1 0x7 ADD SLOAD PUSH1 0x1 PUSH1 0x0 CALLER PUSH20 0xFFFFFFFFFFFFFFFFFFFFFFFFFFFFFFFFFFFFFFFF AND PUSH20 0xFFFFFFFFFFFFFFFFFFFFFFFFFFFFFFFFFFFFFFFF AND DUP2 MSTORE PUSH1 0x20 ADD SWAP1 DUP2 MSTORE PUSH1 0x20 ADD PUSH1 0x0 KECCAK256 PUSH1 0x8 ADD DUP9 DUP1 SLOAD PUSH2 0x12F9 SWAP1 PUSH2 0x1D15 JUMP JUMPDEST DUP1 PUSH1 0x1F ADD PUSH1 0x20 DUP1 SWAP2 DIV MUL PUSH1 0x20 ADD PUSH1 0x40 MLOAD SWAP1 DUP2 ADD PUSH1 0x40 MSTORE DUP1 SWAP3 SWAP2 SWAP1 DUP2 DUP2 MSTORE PUSH1 0x20 ADD DUP3 DUP1 SLOAD PUSH2 0x1325 SWAP1 PUSH2 0x1D15 JUMP JUMPDEST DUP1 ISZERO PUSH2 0x1372 JUMPI DUP1 PUSH1 0x1F LT PUSH2 0x1347 JUMPI PUSH2 0x100 DUP1 DUP4 SLOAD DIV MUL DUP4 MSTORE SWAP2 PUSH1 0x20 ADD SWAP2 PUSH2 0x1372 JUMP JUMPDEST DUP3 ADD SWAP2 SWAP1 PUSH1 0x0 MSTORE PUSH1 0x20 PUSH1 0x0 KECCAK256 SWAP1 JUMPDEST DUP2 SLOAD DUP2 MSTORE SWAP1 PUSH1 0x1 ADD SWAP1 PUSH1 0x20 ADD DUP1 DUP4 GT PUSH2 0x1355 JUMPI DUP3 SWAP1 SUB PUSH1 0x1F AND DUP3 ADD SWAP2 JUMPDEST POP POP POP POP POP SWAP9 POP DUP8 DUP1 SLOAD PUSH2 0x1385 SWAP1 PUSH2 0x1D15 JUMP JUMPDEST DUP1 PUSH1 0x1F ADD PUSH1 0x20 DUP1 SWAP2 DIV MUL PUSH1 0x20 ADD PUSH1 0x40 MLOAD SWAP1 DUP2 ADD PUSH1 0x40 MSTORE DUP1 SWAP3 SWAP2 SWAP1 DUP2 DUP2 MSTORE PUSH1 0x20 ADD DUP3 DUP1 SLOAD PUSH2 0x13B1 SWAP1 PUSH2 0x1D15 JUMP JUMPDEST DUP1 ISZERO PUSH2 0x13FE JUMPI DUP1 PUSH1 0x1F LT PUSH2 0x13D3 JUMPI PUSH2 0x100 DUP1 DUP4 SLOAD DIV MUL DUP4 MSTORE SWAP2 PUSH1 0x20 ADD SWAP2 PUSH2 0x13FE JUMP JUMPDEST DUP3 ADD SWAP2 SWAP1 PUSH1 0x0 MSTORE PUSH1 0x20 PUSH1 0x0 KECCAK256 SWAP1 JUMPDEST DUP2 SLOAD DUP2 MSTORE SWAP1 PUSH1 0x1 ADD SWAP1 PUSH1 0x20 ADD DUP1 DUP4 GT PUSH2 0x13E1 JUMPI DUP3 SWAP1 SUB PUSH1 0x1F AND DUP3 ADD SWAP2 JUMPDEST POP POP POP POP POP SWAP8 POP DUP7 DUP1 SLOAD PUSH2 0x1411 SWAP1 PUSH2 0x1D15 JUMP JUMPDEST DUP1 PUSH1 0x1F ADD PUSH1 0x20 DUP1 SWAP2 DIV MUL PUSH1 0x20 ADD PUSH1 0x40 MLOAD SWAP1 DUP2 ADD PUSH1 0x40 MSTORE DUP1 SWAP3 SWAP2 SWAP1 DUP2 DUP2 MSTORE PUSH1 0x20 ADD DUP3 DUP1 SLOAD PUSH2 0x143D SWAP1 PUSH2 0x1D15 JUMP JUMPDEST DUP1 ISZERO PUSH2 0x148A JUMPI DUP1 PUSH1 0x1F LT PUSH2 0x145F JUMPI PUSH2 0x100 DUP1 DUP4 SLOAD DIV MUL DUP4 MSTORE SWAP2 PUSH1 0x20 ADD SWAP2 PUSH2 0x148A JUMP JUMPDEST DUP3 ADD SWAP2 SWAP1 PUSH1 0x0 MSTORE PUSH1 0x20 PUSH1 0x0 KECCAK256 SWAP1 JUMPDEST DUP2 SLOAD DUP2 MSTORE SWAP1 PUSH1 0x1 ADD SWAP1 PUSH1 0x20 ADD DUP1 DUP4 GT PUSH2 0x146D JUMPI DUP3 SWAP1 SUB PUSH1 0x1F AND DUP3 ADD SWAP2 JUMPDEST POP POP POP POP POP SWAP7 POP DUP6 DUP1 SLOAD PUSH2 0x149D SWAP1 PUSH2 0x1D15 JUMP JUMPDEST DUP1 PUSH1 0x1F ADD PUSH1 0x20 DUP1 SWAP2 DIV MUL PUSH1 0x20 ADD PUSH1 0x40 MLOAD SWAP1 DUP2 ADD PUSH1 0x40 MSTORE DUP1 SWAP3 SWAP2 SWAP1 DUP2 DUP2 MSTORE PUSH1 0x20 ADD DUP3 DUP1 SLOAD PUSH2 0x14C9 SWAP1 PUSH2 0x1D15 JUMP JUMPDEST DUP1 ISZERO PUSH2 0x1516 JUMPI DUP1 PUSH1 0x1F LT PUSH2 0x14EB JUMPI PUSH2 0x100 DUP1 DUP4 SLOAD DIV MUL DUP4 MSTORE SWAP2 PUSH1 0x20 ADD SWAP2 PUSH2 0x1516 JUMP JUMPDEST DUP3 ADD SWAP2 SWAP1 PUSH1 0x0 MSTORE PUSH1 0x20 PUSH1 0x0 KECCAK256 SWAP1 JUMPDEST DUP2 SLOAD DUP2 MSTORE SWAP1 PUSH1 0x1 ADD SWAP1 PUSH1 0x20 ADD DUP1 DUP4 GT PUSH2 0x14F9 JUMPI DUP3 SWAP1 SUB PUSH1 0x1F AND DUP3 ADD SWAP2 JUMPDEST POP POP POP POP POP SWAP6 POP DUP5 DUP1 SLOAD PUSH2 0x1529 SWAP1 PUSH2 0x1D15 JUMP JUMPDEST DUP1 PUSH1 0x1F ADD PUSH1 0x20 DUP1 SWAP2 DIV MUL PUSH1 0x20 ADD PUSH1 0x40 MLOAD SWAP1 DUP2 ADD PUSH1 0x40 MSTORE DUP1 SWAP3 SWAP2 SWAP1 DUP2 DUP2 MSTORE PUSH1 0x20 ADD DUP3 DUP1 SLOAD PUSH2 0x1555 SWAP1 PUSH2 0x1D15 JUMP JUMPDEST DUP1 ISZERO PUSH2 0x15A2 JUMPI DUP1 PUSH1 0x1F LT PUSH2 0x1577 JUMPI PUSH2 0x100 DUP1 DUP4 SLOAD DIV MUL DUP4 MSTORE SWAP2 PUSH1 0x20 ADD SWAP2 PUSH2 0x15A2 JUMP JUMPDEST DUP3 ADD SWAP2 SWAP1 PUSH1 0x0 MSTORE PUSH1 0x20 PUSH1 0x0 KECCAK256 SWAP1 JUMPDEST DUP2 SLOAD DUP2 MSTORE SWAP1 PUSH1 0x1 ADD SWAP1 PUSH1 0x20 ADD DUP1 DUP4 GT PUSH2 0x1585 JUMPI DUP3 SWAP1 SUB PUSH1 0x1F AND DUP3 ADD SWAP2 JUMPDEST POP POP POP POP POP SWAP5 POP DUP3 DUP1 SLOAD PUSH2 0x15B5 SWAP1 PUSH2 0x1D15 JUMP JUMPDEST DUP1 PUSH1 0x1F ADD PUSH1 0x20 DUP1 SWAP2 DIV MUL PUSH1 0x20 ADD PUSH1 0x40 MLOAD SWAP1 DUP2 ADD PUSH1 0x40 MSTORE DUP1 SWAP3 SWAP2 SWAP1 DUP2 DUP2 MSTORE PUSH1 0x20 ADD DUP3 DUP1 SLOAD PUSH2 0x15E1 SWAP1 PUSH2 0x1D15 JUMP JUMPDEST DUP1 ISZERO PUSH2 0x162E JUMPI DUP1 PUSH1 0x1F LT PUSH2 0x1603 JUMPI PUSH2 0x100 DUP1 DUP4 SLOAD DIV MUL DUP4 MSTORE SWAP2 PUSH1 0x20 ADD SWAP2 PUSH2 0x162E JUMP JUMPDEST DUP3 ADD SWAP2 SWAP1 PUSH1 0x0 MSTORE PUSH1 0x20 PUSH1 0x0 KECCAK256 SWAP1 JUMPDEST DUP2 SLOAD DUP2 MSTORE SWAP1 PUSH1 0x1 ADD SWAP1 PUSH1 0x20 ADD DUP1 DUP4 GT PUSH2 0x1611 JUMPI DUP3 SWAP1 SUB PUSH1 0x1F AND DUP3 ADD SWAP2 JUMPDEST POP POP POP POP POP SWAP3 POP DUP1 DUP1 SLOAD PUSH2 0x1641 SWAP1 PUSH2 0x1D15 JUMP JUMPDEST DUP1 PUSH1 0x1F ADD PUSH1 0x20 DUP1 SWAP2 DIV MUL PUSH1 0x20 ADD PUSH1 0x40 MLOAD SWAP1 DUP2 ADD PUSH1 0x40 MSTORE DUP1 SWAP3 SWAP2 SWAP1 DUP2 DUP2 MSTORE PUSH1 0x20 ADD DUP3 DUP1 SLOAD PUSH2 0x166D SWAP1 PUSH2 0x1D15 JUMP JUMPDEST DUP1 ISZERO PUSH2 0x16BA JUMPI DUP1 PUSH1 0x1F LT PUSH2 0x168F JUMPI PUSH2 0x100 DUP1 DUP4 SLOAD DIV MUL DUP4 MSTORE SWAP2 PUSH1 0x20 ADD SWAP2 PUSH2 0x16BA JUMP JUMPDEST DUP3 ADD SWAP2 SWAP1 PUSH1 0x0 MSTORE PUSH1 0x20 PUSH1 0x0 KECCAK256 SWAP1 JUMPDEST DUP2 SLOAD DUP2 MSTORE SWAP1 PUSH1 0x1 ADD SWAP1 PUSH1 0x20 ADD DUP1 DUP4 GT PUSH2 0x169D JUMPI DUP3 SWAP1 SUB PUSH1 0x1F AND DUP3 ADD SWAP2 JUMPDEST POP POP POP POP POP SWAP1 POP SWAP9 POP SWAP9 POP SWAP9 POP SWAP9 POP SWAP9 POP SWAP9 POP SWAP9 POP SWAP9 POP SWAP9 POP SWAP1 SWAP2 SWAP3 SWAP4 SWAP5 SWAP6 SWAP7 SWAP8 SWAP9 JUMP JUMPDEST PUSH1 0x0 DUP1 PUSH1 0x0 SWAP1 SLOAD SWAP1 PUSH2 0x100 EXP SWAP1 DIV PUSH20 0xFFFFFFFFFFFFFFFFFFFFFFFFFFFFFFFFFFFFFFFF AND SWAP1 POP SWAP1 JUMP JUMPDEST PUSH1 0x0 DUP1 SLOAD SWAP1 PUSH2 0x100 EXP SWAP1 DIV PUSH20 0xFFFFFFFFFFFFFFFFFFFFFFFFFFFFFFFFFFFFFFFF AND DUP2 JUMP JUMPDEST DUP3 DUP1 SLOAD PUSH2 0x1737 SWAP1 PUSH2 0x1D15 JUMP JUMPDEST SWAP1 PUSH1 0x0 MSTORE PUSH1 0x20 PUSH1 0x0 KECCAK256 SWAP1 PUSH1 0x1F ADD PUSH1 0x20 SWAP1 DIV DUP2 ADD SWAP3 DUP3 PUSH2 0x1759 JUMPI PUSH1 0x0 DUP6 SSTORE PUSH2 0x17A0 JUMP JUMPDEST DUP3 PUSH1 0x1F LT PUSH2 0x1772 JUMPI DUP1 MLOAD PUSH1 0xFF NOT AND DUP4 DUP1 ADD OR DUP6 SSTORE PUSH2 0x17A0 JUMP JUMPDEST DUP3 DUP1 ADD PUSH1 0x1 ADD DUP6 SSTORE DUP3 ISZERO PUSH2 0x17A0 JUMPI SWAP2 DUP3 ADD JUMPDEST DUP3 DUP2 GT ISZERO PUSH2 0x179F JUMPI DUP3 MLOAD DUP3 SSTORE SWAP2 PUSH1 0x20 ADD SWAP2 SWAP1 PUSH1 0x1 ADD SWAP1 PUSH2 0x1784 JUMP JUMPDEST JUMPDEST POP SWAP1 POP PUSH2 0x17AD SWAP2 SWAP1 PUSH2 0x17B1 JUMP JUMPDEST POP SWAP1 JUMP JUMPDEST JUMPDEST DUP1 DUP3 GT ISZERO PUSH2 0x17CA JUMPI PUSH1 0x0 DUP2 PUSH1 0x0 SWAP1 SSTORE POP PUSH1 0x1 ADD PUSH2 0x17B2 JUMP JUMPDEST POP SWAP1 JUMP JUMPDEST PUSH1 0x0 PUSH1 0x40 MLOAD SWAP1 POP SWAP1 JUMP JUMPDEST PUSH1 0x0 DUP1 REVERT JUMPDEST PUSH1 0x0 DUP1 REVERT JUMPDEST PUSH1 0x0 DUP1 REVERT JUMPDEST PUSH1 0x0 DUP1 REVERT JUMPDEST PUSH1 0x0 PUSH1 0x1F NOT PUSH1 0x1F DUP4 ADD AND SWAP1 POP SWAP2 SWAP1 POP JUMP JUMPDEST PUSH32 0x4E487B7100000000000000000000000000000000000000000000000000000000 PUSH1 0x0 MSTORE PUSH1 0x41 PUSH1 0x4 MSTORE PUSH1 0x24 PUSH1 0x0 REVERT JUMPDEST PUSH2 0x1835 DUP3 PUSH2 0x17EC JUMP JUMPDEST DUP2 ADD DUP2 DUP2 LT PUSH8 0xFFFFFFFFFFFFFFFF DUP3 GT OR ISZERO PUSH2 0x1854 JUMPI PUSH2 0x1853 PUSH2 0x17FD JUMP JUMPDEST JUMPDEST DUP1 PUSH1 0x40 MSTORE POP POP POP JUMP JUMPDEST PUSH1 0x0 PUSH2 0x1867 PUSH2 0x17CE JUMP JUMPDEST SWAP1 POP PUSH2 0x1873 DUP3 DUP3 PUSH2 0x182C JUMP JUMPDEST SWAP2 SWAP1 POP JUMP JUMPDEST PUSH1 0x0 PUSH8 0xFFFFFFFFFFFFFFFF DUP3 GT ISZERO PUSH2 0x1893 JUMPI PUSH2 0x1892 PUSH2 0x17FD JUMP JUMPDEST JUMPDEST PUSH2 0x189C DUP3 PUSH2 0x17EC JUMP JUMPDEST SWAP1 POP PUSH1 0x20 DUP2 ADD SWAP1 POP SWAP2 SWAP1 POP JUMP JUMPDEST DUP3 DUP2 DUP4 CALLDATACOPY PUSH1 0x0 DUP4 DUP4 ADD MSTORE POP POP POP JUMP JUMPDEST PUSH1 0x0 PUSH2 0x18CB PUSH2 0x18C6 DUP5 PUSH2 0x1878 JUMP JUMPDEST PUSH2 0x185D JUMP JUMPDEST SWAP1 POP DUP3 DUP2 MSTORE PUSH1 0x20 DUP2 ADD DUP5 DUP5 DUP5 ADD GT ISZERO PUSH2 0x18E7 JUMPI PUSH2 0x18E6 PUSH2 0x17E7 JUMP JUMPDEST JUMPDEST PUSH2 0x18F2 DUP5 DUP3 DUP6 PUSH2 0x18A9 JUMP JUMPDEST POP SWAP4 SWAP3 POP POP POP JUMP JUMPDEST PUSH1 0x0 DUP3 PUSH1 0x1F DUP4 ADD SLT PUSH2 0x190F JUMPI PUSH2 0x190E PUSH2 0x17E2 JUMP JUMPDEST JUMPDEST DUP2 CALLDATALOAD PUSH2 0x191F DUP5 DUP3 PUSH1 0x20 DUP7 ADD PUSH2 0x18B8 JUMP JUMPDEST SWAP2 POP POP SWAP3 SWAP2 POP POP JUMP JUMPDEST PUSH1 0x0 PUSH1 0x20 DUP3 DUP5 SUB SLT ISZERO PUSH2 0x193E JUMPI PUSH2 0x193D PUSH2 0x17D8 JUMP JUMPDEST JUMPDEST PUSH1 0x0 DUP3 ADD CALLDATALOAD PUSH8 0xFFFFFFFFFFFFFFFF DUP2 GT ISZERO PUSH2 0x195C JUMPI PUSH2 0x195B PUSH2 0x17DD JUMP JUMPDEST JUMPDEST PUSH2 0x1968 DUP5 DUP3 DUP6 ADD PUSH2 0x18FA JUMP JUMPDEST SWAP2 POP POP SWAP3 SWAP2 POP POP JUMP JUMPDEST PUSH1 0x0 PUSH20 0xFFFFFFFFFFFFFFFFFFFFFFFFFFFFFFFFFFFFFFFF DUP3 AND SWAP1 POP SWAP2 SWAP1 POP JUMP JUMPDEST PUSH1 0x0 PUSH2 0x199C DUP3 PUSH2 0x1971 JUMP JUMPDEST SWAP1 POP SWAP2 SWAP1 POP JUMP JUMPDEST PUSH2 0x19AC DUP2 PUSH2 0x1991 JUMP JUMPDEST DUP3 MSTORE POP POP JUMP JUMPDEST PUSH1 0x0 PUSH1 0x20 DUP3 ADD SWAP1 POP PUSH2 0x19C7 PUSH1 0x0 DUP4 ADD DUP5 PUSH2 0x19A3 JUMP JUMPDEST SWAP3 SWAP2 POP POP JUMP JUMPDEST PUSH1 0x0 DUP2 MLOAD SWAP1 POP SWAP2 SWAP1 POP JUMP JUMPDEST PUSH1 0x0 DUP3 DUP3 MSTORE PUSH1 0x20 DUP3 ADD SWAP1 POP SWAP3 SWAP2 POP POP JUMP JUMPDEST PUSH1 0x0 JUMPDEST DUP4 DUP2 LT ISZERO PUSH2 0x1A07 JUMPI DUP1 DUP3 ADD MLOAD DUP2 DUP5 ADD MSTORE PUSH1 0x20 DUP2 ADD SWAP1 POP PUSH2 0x19EC JUMP JUMPDEST DUP4 DUP2 GT ISZERO PUSH2 0x1A16 JUMPI PUSH1 0x0 DUP5 DUP5 ADD MSTORE JUMPDEST POP POP POP POP JUMP JUMPDEST PUSH1 0x0 PUSH2 0x1A27 DUP3 PUSH2 0x19CD JUMP JUMPDEST PUSH2 0x1A31 DUP2 DUP6 PUSH2 0x19D8 JUMP JUMPDEST SWAP4 POP PUSH2 0x1A41 DUP2 DUP6 PUSH1 0x20 DUP7 ADD PUSH2 0x19E9 JUMP JUMPDEST PUSH2 0x1A4A DUP2 PUSH2 0x17EC JUMP JUMPDEST DUP5 ADD SWAP2 POP POP SWAP3 SWAP2 POP POP JUMP JUMPDEST PUSH1 0x0 DUP2 SWAP1 POP SWAP2 SWAP1 POP JUMP JUMPDEST PUSH2 0x1A68 DUP2 PUSH2 0x1A55 JUMP JUMPDEST DUP3 MSTORE POP POP JUMP JUMPDEST PUSH1 0x0 PUSH2 0x120 DUP3 ADD SWAP1 POP DUP2 DUP2 SUB PUSH1 0x0 DUP4 ADD MSTORE PUSH2 0x1A89 DUP2 DUP13 PUSH2 0x1A1C JUMP JUMPDEST SWAP1 POP DUP2 DUP2 SUB PUSH1 0x20 DUP4 ADD MSTORE PUSH2 0x1A9D DUP2 DUP12 PUSH2 0x1A1C JUMP JUMPDEST SWAP1 POP DUP2 DUP2 SUB PUSH1 0x40 DUP4 ADD MSTORE PUSH2 0x1AB1 DUP2 DUP11 PUSH2 0x1A1C JUMP JUMPDEST SWAP1 POP DUP2 DUP2 SUB PUSH1 0x60 DUP4 ADD MSTORE PUSH2 0x1AC5 DUP2 DUP10 PUSH2 0x1A1C JUMP JUMPDEST SWAP1 POP DUP2 DUP2 SUB PUSH1 0x80 DUP4 ADD MSTORE PUSH2 0x1AD9 DUP2 DUP9 PUSH2 0x1A1C JUMP JUMPDEST SWAP1 POP PUSH2 0x1AE8 PUSH1 0xA0 DUP4 ADD DUP8 PUSH2 0x1A5F JUMP JUMPDEST DUP2 DUP2 SUB PUSH1 0xC0 DUP4 ADD MSTORE PUSH2 0x1AFA DUP2 DUP7 PUSH2 0x1A1C JUMP JUMPDEST SWAP1 POP PUSH2 0x1B09 PUSH1 0xE0 DUP4 ADD DUP6 PUSH2 0x1A5F JUMP JUMPDEST DUP2 DUP2 SUB PUSH2 0x100 DUP4 ADD MSTORE PUSH2 0x1B1C DUP2 DUP5 PUSH2 0x1A1C JUMP JUMPDEST SWAP1 POP SWAP11 SWAP10 POP POP POP POP POP POP POP POP POP POP JUMP JUMPDEST PUSH2 0x1B35 DUP2 PUSH2 0x1A55 JUMP JUMPDEST DUP2 EQ PUSH2 0x1B40 JUMPI PUSH1 0x0 DUP1 REVERT JUMPDEST POP JUMP JUMPDEST PUSH1 0x0 DUP2 CALLDATALOAD SWAP1 POP PUSH2 0x1B52 DUP2 PUSH2 0x1B2C JUMP JUMPDEST SWAP3 SWAP2 POP POP JUMP JUMPDEST PUSH1 0x0 DUP1 PUSH1 0x0 DUP1 PUSH1 0x0 DUP1 PUSH1 0x0 DUP1 PUSH1 0x0 PUSH2 0x120 DUP11 DUP13 SUB SLT ISZERO PUSH2 0x1B7B JUMPI PUSH2 0x1B7A PUSH2 0x17D8 JUMP JUMPDEST JUMPDEST PUSH1 0x0 DUP11 ADD CALLDATALOAD PUSH8 0xFFFFFFFFFFFFFFFF DUP2 GT ISZERO PUSH2 0x1B99 JUMPI PUSH2 0x1B98 PUSH2 0x17DD JUMP JUMPDEST JUMPDEST PUSH2 0x1BA5 DUP13 DUP3 DUP14 ADD PUSH2 0x18FA JUMP JUMPDEST SWAP10 POP POP PUSH1 0x20 DUP11 ADD CALLDATALOAD PUSH8 0xFFFFFFFFFFFFFFFF DUP2 GT ISZERO PUSH2 0x1BC6 JUMPI PUSH2 0x1BC5 PUSH2 0x17DD JUMP JUMPDEST JUMPDEST PUSH2 0x1BD2 DUP13 DUP3 DUP14 ADD PUSH2 0x18FA JUMP JUMPDEST SWAP9 POP POP PUSH1 0x40 DUP11 ADD CALLDATALOAD PUSH8 0xFFFFFFFFFFFFFFFF DUP2 GT ISZERO PUSH2 0x1BF3 JUMPI PUSH2 0x1BF2 PUSH2 0x17DD JUMP JUMPDEST JUMPDEST PUSH2 0x1BFF DUP13 DUP3 DUP14 ADD PUSH2 0x18FA JUMP JUMPDEST SWAP8 POP POP PUSH1 0x60 DUP11 ADD CALLDATALOAD PUSH8 0xFFFFFFFFFFFFFFFF DUP2 GT ISZERO PUSH2 0x1C20 JUMPI PUSH2 0x1C1F PUSH2 0x17DD JUMP JUMPDEST JUMPDEST PUSH2 0x1C2C DUP13 DUP3 DUP14 ADD PUSH2 0x18FA JUMP JUMPDEST SWAP7 POP POP PUSH1 0x80 DUP11 ADD CALLDATALOAD PUSH8 0xFFFFFFFFFFFFFFFF DUP2 GT ISZERO PUSH2 0x1C4D JUMPI PUSH2 0x1C4C PUSH2 0x17DD JUMP JUMPDEST JUMPDEST PUSH2 0x1C59 DUP13 DUP3 DUP14 ADD PUSH2 0x18FA JUMP JUMPDEST SWAP6 POP POP PUSH1 0xA0 PUSH2 0x1C6A DUP13 DUP3 DUP14 ADD PUSH2 0x1B43 JUMP JUMPDEST SWAP5 POP POP PUSH1 0xC0 DUP11 ADD CALLDATALOAD PUSH8 0xFFFFFFFFFFFFFFFF DUP2 GT ISZERO PUSH2 0x1C8B JUMPI PUSH2 0x1C8A PUSH2 0x17DD JUMP JUMPDEST JUMPDEST PUSH2 0x1C97 DUP13 DUP3 DUP14 ADD PUSH2 0x18FA JUMP JUMPDEST SWAP4 POP POP PUSH1 0xE0 PUSH2 0x1CA8 DUP13 DUP3 DUP14 ADD PUSH2 0x1B43 JUMP JUMPDEST SWAP3 POP POP PUSH2 0x100 DUP11 ADD CALLDATALOAD PUSH8 0xFFFFFFFFFFFFFFFF DUP2 GT ISZERO PUSH2 0x1CCA JUMPI PUSH2 0x1CC9 PUSH2 0x17DD JUMP JUMPDEST JUMPDEST PUSH2 0x1CD6 DUP13 DUP3 DUP14 ADD PUSH2 0x18FA JUMP JUMPDEST SWAP2 POP POP SWAP3 SWAP6 SWAP9 POP SWAP3 SWAP6 SWAP9 POP SWAP3 SWAP6 SWAP9 JUMP JUMPDEST PUSH32 0x4E487B7100000000000000000000000000000000000000000000000000000000 PUSH1 0x0 MSTORE PUSH1 0x22 PUSH1 0x4 MSTORE PUSH1 0x24 PUSH1 0x0 REVERT JUMPDEST PUSH1 0x0 PUSH1 0x2 DUP3 DIV SWAP1 POP PUSH1 0x1 DUP3 AND DUP1 PUSH2 0x1D2D JUMPI PUSH1 0x7F DUP3 AND SWAP2 POP JUMPDEST PUSH1 0x20 DUP3 LT DUP2 EQ ISZERO PUSH2 0x1D41 JUMPI PUSH2 0x1D40 PUSH2 0x1CE6 JUMP JUMPDEST JUMPDEST POP SWAP2 SWAP1 POP JUMP INVALID LOG2 PUSH5 0x6970667358 0x22 SLT KECCAK256 0xA5 0xA8 0xB6 0xBE 0x49 0xAA SWAP9 SWAP4 0xBD SWAP3 0xB8 PUSH32 0x9B34F8E840ADB1D4569BBD5FC95E2B0EFCB8EF0364736F6C634300080B0033A2 PUSH5 0x6970667358 0x22 SLT KECCAK256 PUSH18 0xE359FF2C50432903BA3874FEC27E1021A206 0xDF LT PUSH26 0xE2690B3578E1D626569664736F6C634300080B00330000000000 "},"gasEstimates":{"creation":{"codeDepositCost":"1956000","executionCost":"2069","totalCost":"1958069"},"external":{"createKyc()":"infinite","deployedKycs(uint256)":"infinite","getDeployedKycs()":"infinite","getparticularUser()":"infinite","login(address)":"infinite"}},"methodIdentifiers":{"createKyc()":"826c4ae6","deployedKycs(uint256)":"7e3c01d7","getDeployedKycs()":"8379ec2f","getparticularUser()":"bdb37313","login(address)":"35a6861a"}},"storageLayout":{"storage":[{"astId":13,"contract":"KYC.sol:KycFactory","label":"deployedKycs","offset":0,"slot":"0","type":"t_array(t_contract(Userdef)480)dyn_storage"},{"astId":18,"contract":"KYC.sol:KycFactory","label":"particularUserKyc","offset":0,"slot":"1","type":"t_mapping(t_address,t_struct(Register)9_storage)"}],"types":{"t_address":{"encoding":"inplace","label":"address","numberOfBytes":"20"},"t_array(t_contract(Userdef)480)dyn_storage":{"base":"t_contract(Userdef)480","encoding":"dynamic_array","label":"contract Userdef[]","numberOfBytes":"32"},"t_bool":{"encoding":"inplace","label":"bool","numberOfBytes":"1"},"t_contract(Userdef)480":{"encoding":"inplace","label":"contract Userdef","numberOfBytes":"20"},"t_mapping(t_address,t_struct(Register)9_storage)":{"encoding":"mapping","key":"t_address","label":"mapping(address => struct KycFactory.Register)","numberOfBytes":"32","value":"t_struct(Register)9_storage"},"t_struct(Register)9_storage":{"encoding":"inplace","label":"struct KycFactory.Register","members":[{"astId":4,"contract":"KYC.sol:KycFactory","label":"kycContract","offset":0,"slot":"0","type":"t_contract(Userdef)480"},{"astId":6,"contract":"KYC.sol:KycFactory","label":"isRegistered","offset":20,"slot":"0","type":"t_bool"},{"astId":8,"contract":"KYC.sol:KycFactory","label":"kycdone","offset":21,"slot":"0","type":"t_bool"}],"numberOfBytes":"32"}}},"userdoc":{"kind":"user","methods":{},"version":1}}