{"abi":[{"inputs":[],"name":"createKyc","outputs":[],"stateMutability":"nonpayable","type":"function"},{"inputs":[{"internalType":"uint256","name":"","type":"uint256"}],"name":"deployedKycs","outputs":[{"internalType":"contract Userdef","name":"","type":"address"}],"stateMutability":"view","type":"function"},{"inputs":[],"name":"getDeployedKycs","outputs":[{"internalType":"contract Userdef[]","name":"","type":"address[]"}],"stateMutability":"view","type":"function"},{"inputs":[{"internalType":"address","name":"ooh","type":"address"}],"name":"kycdone","outputs":[],"stateMutability":"nonpayable","type":"function"},{"inputs":[{"internalType":"address","name":"ooh","type":"address"}],"name":"login","outputs":[{"internalType":"contract Userdef","name":"","type":"address"}],"stateMutability":"view","type":"function"},{"inputs":[{"internalType":"uint256","name":"","type":"uint256"}],"name":"usersAddresses","outputs":[{"internalType":"address","name":"","type":"address"}],"stateMutability":"view","type":"function"}],"devdoc":{"kind":"dev","methods":{},"version":1},"evm":{"assembly":"    /* \"KYC.sol\":72:1078  contract KycFactory{... */\n  mstore(0x40, 0x80)\n  callvalue\n  dup1\n  iszero\n  tag_1\n  jumpi\n  0x00\n  dup1\n  revert\ntag_1:\n  pop\n  dataSize(sub_0)\n  dup1\n  dataOffset(sub_0)\n  0x00\n  codecopy\n  0x00\n  return\nstop\n\nsub_0: assembly {\n        /* \"KYC.sol\":72:1078  contract KycFactory{... */\n      mstore(0x40, 0x80)\n      callvalue\n      dup1\n      iszero\n      tag_1\n      jumpi\n      0x00\n      dup1\n      revert\n    tag_1:\n      pop\n      jumpi(tag_2, lt(calldatasize, 0x04))\n      shr(0xe0, calldataload(0x00))\n      dup1\n      0x35a6861a\n      eq\n      tag_3\n      jumpi\n      dup1\n      0x73338081\n      eq\n      tag_4\n      jumpi\n      dup1\n      0x7e3c01d7\n      eq\n      tag_5\n      jumpi\n      dup1\n      0x826c4ae6\n      eq\n      tag_6\n      jumpi\n      dup1\n      0x8379ec2f\n      eq\n      tag_7\n      jumpi\n      dup1\n      0xb6cbab37\n      eq\n      tag_8\n      jumpi\n    tag_2:\n      0x00\n      dup1\n      revert\n        /* \"KYC.sol\":688:859  function login(address ooh) public view returns(Userdef){... */\n    tag_3:\n      tag_9\n      0x04\n      dup1\n      calldatasize\n      sub\n      dup2\n      add\n      swap1\n      tag_10\n      swap2\n      swap1\n      tag_11\n      jump\t// in\n    tag_10:\n      tag_12\n      jump\t// in\n    tag_9:\n      mload(0x40)\n      tag_13\n      swap2\n      swap1\n      tag_14\n      jump\t// in\n    tag_13:\n      mload(0x40)\n      dup1\n      swap2\n      sub\n      swap1\n      return\n        /* \"KYC.sol\":246:277  address[] public usersAddresses */\n    tag_4:\n      tag_15\n      0x04\n      dup1\n      calldatasize\n      sub\n      dup2\n      add\n      swap1\n      tag_16\n      swap2\n      swap1\n      tag_17\n      jump\t// in\n    tag_16:\n      tag_18\n      jump\t// in\n    tag_15:\n      mload(0x40)\n      tag_19\n      swap2\n      swap1\n      tag_20\n      jump\t// in\n    tag_19:\n      mload(0x40)\n      dup1\n      swap2\n      sub\n      swap1\n      return\n        /* \"KYC.sol\":210:239  Userdef[] public deployedKycs */\n    tag_5:\n      tag_21\n      0x04\n      dup1\n      calldatasize\n      sub\n      dup2\n      add\n      swap1\n      tag_22\n      swap2\n      swap1\n      tag_17\n      jump\t// in\n    tag_22:\n      tag_23\n      jump\t// in\n    tag_21:\n      mload(0x40)\n      tag_24\n      swap2\n      swap1\n      tag_14\n      jump\t// in\n    tag_24:\n      mload(0x40)\n      dup1\n      swap2\n      sub\n      swap1\n      return\n        /* \"KYC.sol\":339:680  function createKyc() public{... */\n    tag_6:\n      tag_25\n      tag_26\n      jump\t// in\n    tag_25:\n      stop\n        /* \"KYC.sol\":867:970  function getDeployedKycs() public view returns(Userdef[] memory) {... */\n    tag_7:\n      tag_27\n      tag_28\n      jump\t// in\n    tag_27:\n      mload(0x40)\n      tag_29\n      swap2\n      swap1\n      tag_30\n      jump\t// in\n    tag_29:\n      mload(0x40)\n      dup1\n      swap2\n      sub\n      swap1\n      return\n        /* \"KYC.sol\":978:1071  function kycdone(address ooh) public {... */\n    tag_8:\n      tag_31\n      0x04\n      dup1\n      calldatasize\n      sub\n      dup2\n      add\n      swap1\n      tag_32\n      swap2\n      swap1\n      tag_11\n      jump\t// in\n    tag_32:\n      tag_33\n      jump\t// in\n    tag_31:\n      stop\n        /* \"KYC.sol\":688:859  function login(address ooh) public view returns(Userdef){... */\n    tag_12:\n        /* \"KYC.sol\":736:743  Userdef */\n      0x00\n        /* \"KYC.sol\":763:780  particularUserKyc */\n      0x02\n        /* \"KYC.sol\":763:785  particularUserKyc[ooh] */\n      0x00\n        /* \"KYC.sol\":781:784  ooh */\n      dup4\n        /* \"KYC.sol\":763:785  particularUserKyc[ooh] */\n      0xffffffffffffffffffffffffffffffffffffffff\n      and\n      0xffffffffffffffffffffffffffffffffffffffff\n      and\n      dup2\n      mstore\n      0x20\n      add\n      swap1\n      dup2\n      mstore\n      0x20\n      add\n      0x00\n      keccak256\n        /* \"KYC.sol\":763:798  particularUserKyc[ooh].isRegistered */\n      0x00\n      add\n      0x14\n      swap1\n      sload\n      swap1\n      0x0100\n      exp\n      swap1\n      div\n      0xff\n      and\n        /* \"KYC.sol\":755:799  require(particularUserKyc[ooh].isRegistered) */\n      tag_35\n      jumpi\n      0x00\n      dup1\n      revert\n    tag_35:\n        /* \"KYC.sol\":817:834  particularUserKyc */\n      0x02\n        /* \"KYC.sol\":817:839  particularUserKyc[ooh] */\n      0x00\n        /* \"KYC.sol\":835:838  ooh */\n      dup4\n        /* \"KYC.sol\":817:839  particularUserKyc[ooh] */\n      0xffffffffffffffffffffffffffffffffffffffff\n      and\n      0xffffffffffffffffffffffffffffffffffffffff\n      and\n      dup2\n      mstore\n      0x20\n      add\n      swap1\n      dup2\n      mstore\n      0x20\n      add\n      0x00\n      keccak256\n        /* \"KYC.sol\":817:851  particularUserKyc[ooh].kycContract */\n      0x00\n      add\n      0x00\n      swap1\n      sload\n      swap1\n      0x0100\n      exp\n      swap1\n      div\n      0xffffffffffffffffffffffffffffffffffffffff\n      and\n        /* \"KYC.sol\":810:851  return particularUserKyc[ooh].kycContract */\n      swap1\n      pop\n        /* \"KYC.sol\":688:859  function login(address ooh) public view returns(Userdef){... */\n      swap2\n      swap1\n      pop\n      jump\t// out\n        /* \"KYC.sol\":246:277  address[] public usersAddresses */\n    tag_18:\n      0x01\n      dup2\n      dup2\n      sload\n      dup2\n      lt\n      tag_36\n      jumpi\n      0x00\n      dup1\n      revert\n    tag_36:\n      swap1\n      0x00\n      mstore\n      keccak256(0x00, 0x20)\n      add\n      0x00\n      swap2\n      pop\n      sload\n      swap1\n      0x0100\n      exp\n      swap1\n      div\n      0xffffffffffffffffffffffffffffffffffffffff\n      and\n      dup2\n      jump\t// out\n        /* \"KYC.sol\":210:239  Userdef[] public deployedKycs */\n    tag_23:\n      0x00\n      dup2\n      dup2\n      sload\n      dup2\n      lt\n      tag_38\n      jumpi\n      0x00\n      dup1\n      revert\n    tag_38:\n      swap1\n      0x00\n      mstore\n      keccak256(0x00, 0x20)\n      add\n      0x00\n      swap2\n      pop\n      sload\n      swap1\n      0x0100\n      exp\n      swap1\n      div\n      0xffffffffffffffffffffffffffffffffffffffff\n      and\n      dup2\n      jump\t// out\n        /* \"KYC.sol\":339:680  function createKyc() public{... */\n    tag_26:\n        /* \"KYC.sol\":377:391  Userdef newKyc */\n      0x00\n        /* \"KYC.sol\":406:416  msg.sender */\n      caller\n        /* \"KYC.sol\":394:417  new Userdef(msg.sender) */\n      mload(0x40)\n      tag_41\n      swap1\n      tag_42\n      jump\t// in\n    tag_41:\n      tag_43\n      swap2\n      swap1\n      tag_20\n      jump\t// in\n    tag_43:\n      mload(0x40)\n      dup1\n      swap2\n      sub\n      swap1\n      0x00\n      create\n      dup1\n      iszero\n      dup1\n      iszero\n      tag_44\n      jumpi\n      returndatasize\n      0x00\n      dup1\n      returndatacopy\n      revert(0x00, returndatasize)\n    tag_44:\n      pop\n        /* \"KYC.sol\":377:417  Userdef newKyc = new Userdef(msg.sender) */\n      swap1\n      pop\n        /* \"KYC.sol\":472:478  newKyc */\n      dup1\n        /* \"KYC.sol\":428:445  particularUserKyc */\n      0x02\n        /* \"KYC.sol\":428:457  particularUserKyc[msg.sender] */\n      0x00\n        /* \"KYC.sol\":446:456  msg.sender */\n      caller\n        /* \"KYC.sol\":428:457  particularUserKyc[msg.sender] */\n      0xffffffffffffffffffffffffffffffffffffffff\n      and\n      0xffffffffffffffffffffffffffffffffffffffff\n      and\n      dup2\n      mstore\n      0x20\n      add\n      swap1\n      dup2\n      mstore\n      0x20\n      add\n      0x00\n      keccak256\n        /* \"KYC.sol\":428:469  particularUserKyc[msg.sender].kycContract */\n      0x00\n      add\n      0x00\n        /* \"KYC.sol\":428:478  particularUserKyc[msg.sender].kycContract = newKyc */\n      0x0100\n      exp\n      dup2\n      sload\n      dup2\n      0xffffffffffffffffffffffffffffffffffffffff\n      mul\n      not\n      and\n      swap1\n      dup4\n      0xffffffffffffffffffffffffffffffffffffffff\n      and\n      mul\n      or\n      swap1\n      sstore\n      pop\n        /* \"KYC.sol\":534:538  true */\n      0x01\n        /* \"KYC.sol\":489:506  particularUserKyc */\n      0x02\n        /* \"KYC.sol\":489:518  particularUserKyc[msg.sender] */\n      0x00\n        /* \"KYC.sol\":507:517  msg.sender */\n      caller\n        /* \"KYC.sol\":489:518  particularUserKyc[msg.sender] */\n      0xffffffffffffffffffffffffffffffffffffffff\n      and\n      0xffffffffffffffffffffffffffffffffffffffff\n      and\n      dup2\n      mstore\n      0x20\n      add\n      swap1\n      dup2\n      mstore\n      0x20\n      add\n      0x00\n      keccak256\n        /* \"KYC.sol\":489:531  particularUserKyc[msg.sender].isRegistered */\n      0x00\n      add\n      0x14\n        /* \"KYC.sol\":489:538  particularUserKyc[msg.sender].isRegistered = true */\n      0x0100\n      exp\n      dup2\n      sload\n      dup2\n      0xff\n      mul\n      not\n      and\n      swap1\n      dup4\n      iszero\n      iszero\n      mul\n      or\n      swap1\n      sstore\n      pop\n        /* \"KYC.sol\":589:594  false */\n      0x00\n        /* \"KYC.sol\":549:566  particularUserKyc */\n      0x02\n        /* \"KYC.sol\":549:578  particularUserKyc[msg.sender] */\n      0x00\n        /* \"KYC.sol\":567:577  msg.sender */\n      caller\n        /* \"KYC.sol\":549:578  particularUserKyc[msg.sender] */\n      0xffffffffffffffffffffffffffffffffffffffff\n      and\n      0xffffffffffffffffffffffffffffffffffffffff\n      and\n      dup2\n      mstore\n      0x20\n      add\n      swap1\n      dup2\n      mstore\n      0x20\n      add\n      0x00\n      keccak256\n        /* \"KYC.sol\":549:586  particularUserKyc[msg.sender].kycdone */\n      0x00\n      add\n      0x15\n        /* \"KYC.sol\":549:594  particularUserKyc[msg.sender].kycdone = false */\n      0x0100\n      exp\n      dup2\n      sload\n      dup2\n      0xff\n      mul\n      not\n      and\n      swap1\n      dup4\n      iszero\n      iszero\n      mul\n      or\n      swap1\n      sstore\n      pop\n        /* \"KYC.sol\":605:619  usersAddresses */\n      0x01\n        /* \"KYC.sol\":625:635  msg.sender */\n      caller\n        /* \"KYC.sol\":605:636  usersAddresses.push(msg.sender) */\n      swap1\n      dup1\n      0x01\n      dup2\n      sload\n      add\n      dup1\n      dup3\n      sstore\n      dup1\n      swap2\n      pop\n      pop\n      0x01\n      swap1\n      sub\n      swap1\n      0x00\n      mstore\n      keccak256(0x00, 0x20)\n      add\n      0x00\n      swap1\n      swap2\n      swap1\n      swap2\n      swap1\n      swap2\n      0x0100\n      exp\n      dup2\n      sload\n      dup2\n      0xffffffffffffffffffffffffffffffffffffffff\n      mul\n      not\n      and\n      swap1\n      dup4\n      0xffffffffffffffffffffffffffffffffffffffff\n      and\n      mul\n      or\n      swap1\n      sstore\n      pop\n        /* \"KYC.sol\":647:659  deployedKycs */\n      0x00\n        /* \"KYC.sol\":665:671  newKyc */\n      dup2\n        /* \"KYC.sol\":647:672  deployedKycs.push(newKyc) */\n      swap1\n      dup1\n      0x01\n      dup2\n      sload\n      add\n      dup1\n      dup3\n      sstore\n      dup1\n      swap2\n      pop\n      pop\n      0x01\n      swap1\n      sub\n      swap1\n      0x00\n      mstore\n      keccak256(0x00, 0x20)\n      add\n      0x00\n      swap1\n      swap2\n      swap1\n      swap2\n      swap1\n      swap2\n      0x0100\n      exp\n      dup2\n      sload\n      dup2\n      0xffffffffffffffffffffffffffffffffffffffff\n      mul\n      not\n      and\n      swap1\n      dup4\n      0xffffffffffffffffffffffffffffffffffffffff\n      and\n      mul\n      or\n      swap1\n      sstore\n      pop\n        /* \"KYC.sol\":366:680  {... */\n      pop\n        /* \"KYC.sol\":339:680  function createKyc() public{... */\n      jump\t// out\n        /* \"KYC.sol\":867:970  function getDeployedKycs() public view returns(Userdef[] memory) {... */\n    tag_28:\n        /* \"KYC.sol\":914:930  Userdef[] memory */\n      0x60\n        /* \"KYC.sol\":950:962  deployedKycs */\n      0x00\n        /* \"KYC.sol\":943:962  return deployedKycs */\n      dup1\n      sload\n      dup1\n      0x20\n      mul\n      0x20\n      add\n      mload(0x40)\n      swap1\n      dup2\n      add\n      0x40\n      mstore\n      dup1\n      swap3\n      swap2\n      swap1\n      dup2\n      dup2\n      mstore\n      0x20\n      add\n      dup3\n      dup1\n      sload\n      dup1\n      iszero\n      tag_48\n      jumpi\n      0x20\n      mul\n      dup3\n      add\n      swap2\n      swap1\n      0x00\n      mstore\n      keccak256(0x00, 0x20)\n      swap1\n    tag_49:\n      dup2\n      0x00\n      swap1\n      sload\n      swap1\n      0x0100\n      exp\n      swap1\n      div\n      0xffffffffffffffffffffffffffffffffffffffff\n      and\n      0xffffffffffffffffffffffffffffffffffffffff\n      and\n      dup2\n      mstore\n      0x20\n      add\n      swap1\n      0x01\n      add\n      swap1\n      dup1\n      dup4\n      gt\n      tag_49\n      jumpi\n    tag_48:\n      pop\n      pop\n      pop\n      pop\n      pop\n      swap1\n      pop\n        /* \"KYC.sol\":867:970  function getDeployedKycs() public view returns(Userdef[] memory) {... */\n      swap1\n      jump\t// out\n        /* \"KYC.sol\":978:1071  function kycdone(address ooh) public {... */\n    tag_33:\n        /* \"KYC.sol\":1059:1063  true */\n      0x01\n        /* \"KYC.sol\":1026:1043  particularUserKyc */\n      0x02\n        /* \"KYC.sol\":1026:1048  particularUserKyc[ooh] */\n      0x00\n        /* \"KYC.sol\":1044:1047  ooh */\n      dup4\n        /* \"KYC.sol\":1026:1048  particularUserKyc[ooh] */\n      0xffffffffffffffffffffffffffffffffffffffff\n      and\n      0xffffffffffffffffffffffffffffffffffffffff\n      and\n      dup2\n      mstore\n      0x20\n      add\n      swap1\n      dup2\n      mstore\n      0x20\n      add\n      0x00\n      keccak256\n        /* \"KYC.sol\":1026:1056  particularUserKyc[ooh].kycdone */\n      0x00\n      add\n      0x15\n        /* \"KYC.sol\":1026:1063  particularUserKyc[ooh].kycdone = true */\n      0x0100\n      exp\n      dup2\n      sload\n      dup2\n      0xff\n      mul\n      not\n      and\n      swap1\n      dup4\n      iszero\n      iszero\n      mul\n      or\n      swap1\n      sstore\n      pop\n        /* \"KYC.sol\":978:1071  function kycdone(address ooh) public {... */\n      pop\n      jump\t// out\n    tag_42:\n      dataSize(sub_0)\n      dup1\n      dataOffset(sub_0)\n      dup4\n      codecopy\n      add\n      swap1\n      jump\t// out\n        /* \"#utility.yul\":88:205   */\n    tag_52:\n        /* \"#utility.yul\":197:198   */\n      0x00\n        /* \"#utility.yul\":194:195   */\n      dup1\n        /* \"#utility.yul\":187:199   */\n      revert\n        /* \"#utility.yul\":334:460   */\n    tag_54:\n        /* \"#utility.yul\":371:378   */\n      0x00\n        /* \"#utility.yul\":411:453   */\n      0xffffffffffffffffffffffffffffffffffffffff\n        /* \"#utility.yul\":404:409   */\n      dup3\n        /* \"#utility.yul\":400:454   */\n      and\n        /* \"#utility.yul\":389:454   */\n      swap1\n      pop\n        /* \"#utility.yul\":334:460   */\n      swap2\n      swap1\n      pop\n      jump\t// out\n        /* \"#utility.yul\":466:562   */\n    tag_55:\n        /* \"#utility.yul\":503:510   */\n      0x00\n        /* \"#utility.yul\":532:556   */\n      tag_80\n        /* \"#utility.yul\":550:555   */\n      dup3\n        /* \"#utility.yul\":532:556   */\n      tag_54\n      jump\t// in\n    tag_80:\n        /* \"#utility.yul\":521:556   */\n      swap1\n      pop\n        /* \"#utility.yul\":466:562   */\n      swap2\n      swap1\n      pop\n      jump\t// out\n        /* \"#utility.yul\":568:690   */\n    tag_56:\n        /* \"#utility.yul\":641:665   */\n      tag_82\n        /* \"#utility.yul\":659:664   */\n      dup2\n        /* \"#utility.yul\":641:665   */\n      tag_55\n      jump\t// in\n    tag_82:\n        /* \"#utility.yul\":634:639   */\n      dup2\n        /* \"#utility.yul\":631:666   */\n      eq\n        /* \"#utility.yul\":621:684   */\n      tag_83\n      jumpi\n        /* \"#utility.yul\":680:681   */\n      0x00\n        /* \"#utility.yul\":677:678   */\n      dup1\n        /* \"#utility.yul\":670:682   */\n      revert\n        /* \"#utility.yul\":621:684   */\n    tag_83:\n        /* \"#utility.yul\":568:690   */\n      pop\n      jump\t// out\n        /* \"#utility.yul\":696:835   */\n    tag_57:\n        /* \"#utility.yul\":742:747   */\n      0x00\n        /* \"#utility.yul\":780:786   */\n      dup2\n        /* \"#utility.yul\":767:787   */\n      calldataload\n        /* \"#utility.yul\":758:787   */\n      swap1\n      pop\n        /* \"#utility.yul\":796:829   */\n      tag_85\n        /* \"#utility.yul\":823:828   */\n      dup2\n        /* \"#utility.yul\":796:829   */\n      tag_56\n      jump\t// in\n    tag_85:\n        /* \"#utility.yul\":696:835   */\n      swap3\n      swap2\n      pop\n      pop\n      jump\t// out\n        /* \"#utility.yul\":841:1170   */\n    tag_11:\n        /* \"#utility.yul\":900:906   */\n      0x00\n        /* \"#utility.yul\":949:951   */\n      0x20\n        /* \"#utility.yul\":937:946   */\n      dup3\n        /* \"#utility.yul\":928:935   */\n      dup5\n        /* \"#utility.yul\":924:947   */\n      sub\n        /* \"#utility.yul\":920:952   */\n      slt\n        /* \"#utility.yul\":917:1036   */\n      iszero\n      tag_87\n      jumpi\n        /* \"#utility.yul\":955:1034   */\n      tag_88\n      tag_52\n      jump\t// in\n    tag_88:\n        /* \"#utility.yul\":917:1036   */\n    tag_87:\n        /* \"#utility.yul\":1075:1076   */\n      0x00\n        /* \"#utility.yul\":1100:1153   */\n      tag_89\n        /* \"#utility.yul\":1145:1152   */\n      dup5\n        /* \"#utility.yul\":1136:1142   */\n      dup3\n        /* \"#utility.yul\":1125:1134   */\n      dup6\n        /* \"#utility.yul\":1121:1143   */\n      add\n        /* \"#utility.yul\":1100:1153   */\n      tag_57\n      jump\t// in\n    tag_89:\n        /* \"#utility.yul\":1090:1153   */\n      swap2\n      pop\n        /* \"#utility.yul\":1046:1163   */\n      pop\n        /* \"#utility.yul\":841:1170   */\n      swap3\n      swap2\n      pop\n      pop\n      jump\t// out\n        /* \"#utility.yul\":1176:1236   */\n    tag_58:\n        /* \"#utility.yul\":1204:1207   */\n      0x00\n        /* \"#utility.yul\":1225:1230   */\n      dup2\n        /* \"#utility.yul\":1218:1230   */\n      swap1\n      pop\n        /* \"#utility.yul\":1176:1236   */\n      swap2\n      swap1\n      pop\n      jump\t// out\n        /* \"#utility.yul\":1242:1384   */\n    tag_59:\n        /* \"#utility.yul\":1292:1301   */\n      0x00\n        /* \"#utility.yul\":1325:1378   */\n      tag_92\n        /* \"#utility.yul\":1343:1377   */\n      tag_93\n        /* \"#utility.yul\":1352:1376   */\n      tag_94\n        /* \"#utility.yul\":1370:1375   */\n      dup5\n        /* \"#utility.yul\":1352:1376   */\n      tag_54\n      jump\t// in\n    tag_94:\n        /* \"#utility.yul\":1343:1377   */\n      tag_58\n      jump\t// in\n    tag_93:\n        /* \"#utility.yul\":1325:1378   */\n      tag_54\n      jump\t// in\n    tag_92:\n        /* \"#utility.yul\":1312:1378   */\n      swap1\n      pop\n        /* \"#utility.yul\":1242:1384   */\n      swap2\n      swap1\n      pop\n      jump\t// out\n        /* \"#utility.yul\":1390:1516   */\n    tag_60:\n        /* \"#utility.yul\":1440:1449   */\n      0x00\n        /* \"#utility.yul\":1473:1510   */\n      tag_96\n        /* \"#utility.yul\":1504:1509   */\n      dup3\n        /* \"#utility.yul\":1473:1510   */\n      tag_59\n      jump\t// in\n    tag_96:\n        /* \"#utility.yul\":1460:1510   */\n      swap1\n      pop\n        /* \"#utility.yul\":1390:1516   */\n      swap2\n      swap1\n      pop\n      jump\t// out\n        /* \"#utility.yul\":1522:1663   */\n    tag_61:\n        /* \"#utility.yul\":1587:1596   */\n      0x00\n        /* \"#utility.yul\":1620:1657   */\n      tag_98\n        /* \"#utility.yul\":1651:1656   */\n      dup3\n        /* \"#utility.yul\":1620:1657   */\n      tag_60\n      jump\t// in\n    tag_98:\n        /* \"#utility.yul\":1607:1657   */\n      swap1\n      pop\n        /* \"#utility.yul\":1522:1663   */\n      swap2\n      swap1\n      pop\n      jump\t// out\n        /* \"#utility.yul\":1669:1830   */\n    tag_62:\n        /* \"#utility.yul\":1771:1823   */\n      tag_100\n        /* \"#utility.yul\":1817:1822   */\n      dup2\n        /* \"#utility.yul\":1771:1823   */\n      tag_61\n      jump\t// in\n    tag_100:\n        /* \"#utility.yul\":1766:1769   */\n      dup3\n        /* \"#utility.yul\":1759:1824   */\n      mstore\n        /* \"#utility.yul\":1669:1830   */\n      pop\n      pop\n      jump\t// out\n        /* \"#utility.yul\":1836:2088   */\n    tag_14:\n        /* \"#utility.yul\":1944:1948   */\n      0x00\n        /* \"#utility.yul\":1982:1984   */\n      0x20\n        /* \"#utility.yul\":1971:1980   */\n      dup3\n        /* \"#utility.yul\":1967:1985   */\n      add\n        /* \"#utility.yul\":1959:1985   */\n      swap1\n      pop\n        /* \"#utility.yul\":1995:2081   */\n      tag_102\n        /* \"#utility.yul\":2078:2079   */\n      0x00\n        /* \"#utility.yul\":2067:2076   */\n      dup4\n        /* \"#utility.yul\":2063:2080   */\n      add\n        /* \"#utility.yul\":2054:2060   */\n      dup5\n        /* \"#utility.yul\":1995:2081   */\n      tag_62\n      jump\t// in\n    tag_102:\n        /* \"#utility.yul\":1836:2088   */\n      swap3\n      swap2\n      pop\n      pop\n      jump\t// out\n        /* \"#utility.yul\":2094:2171   */\n    tag_63:\n        /* \"#utility.yul\":2131:2138   */\n      0x00\n        /* \"#utility.yul\":2160:2165   */\n      dup2\n        /* \"#utility.yul\":2149:2165   */\n      swap1\n      pop\n        /* \"#utility.yul\":2094:2171   */\n      swap2\n      swap1\n      pop\n      jump\t// out\n        /* \"#utility.yul\":2177:2299   */\n    tag_64:\n        /* \"#utility.yul\":2250:2274   */\n      tag_105\n        /* \"#utility.yul\":2268:2273   */\n      dup2\n        /* \"#utility.yul\":2250:2274   */\n      tag_63\n      jump\t// in\n    tag_105:\n        /* \"#utility.yul\":2243:2248   */\n      dup2\n        /* \"#utility.yul\":2240:2275   */\n      eq\n        /* \"#utility.yul\":2230:2293   */\n      tag_106\n      jumpi\n        /* \"#utility.yul\":2289:2290   */\n      0x00\n        /* \"#utility.yul\":2286:2287   */\n      dup1\n        /* \"#utility.yul\":2279:2291   */\n      revert\n        /* \"#utility.yul\":2230:2293   */\n    tag_106:\n        /* \"#utility.yul\":2177:2299   */\n      pop\n      jump\t// out\n        /* \"#utility.yul\":2305:2444   */\n    tag_65:\n        /* \"#utility.yul\":2351:2356   */\n      0x00\n        /* \"#utility.yul\":2389:2395   */\n      dup2\n        /* \"#utility.yul\":2376:2396   */\n      calldataload\n        /* \"#utility.yul\":2367:2396   */\n      swap1\n      pop\n        /* \"#utility.yul\":2405:2438   */\n      tag_108\n        /* \"#utility.yul\":2432:2437   */\n      dup2\n        /* \"#utility.yul\":2405:2438   */\n      tag_64\n      jump\t// in\n    tag_108:\n        /* \"#utility.yul\":2305:2444   */\n      swap3\n      swap2\n      pop\n      pop\n      jump\t// out\n        /* \"#utility.yul\":2450:2779   */\n    tag_17:\n        /* \"#utility.yul\":2509:2515   */\n      0x00\n        /* \"#utility.yul\":2558:2560   */\n      0x20\n        /* \"#utility.yul\":2546:2555   */\n      dup3\n        /* \"#utility.yul\":2537:2544   */\n      dup5\n        /* \"#utility.yul\":2533:2556   */\n      sub\n        /* \"#utility.yul\":2529:2561   */\n      slt\n        /* \"#utility.yul\":2526:2645   */\n      iszero\n      tag_110\n      jumpi\n        /* \"#utility.yul\":2564:2643   */\n      tag_111\n      tag_52\n      jump\t// in\n    tag_111:\n        /* \"#utility.yul\":2526:2645   */\n    tag_110:\n        /* \"#utility.yul\":2684:2685   */\n      0x00\n        /* \"#utility.yul\":2709:2762   */\n      tag_112\n        /* \"#utility.yul\":2754:2761   */\n      dup5\n        /* \"#utility.yul\":2745:2751   */\n      dup3\n        /* \"#utility.yul\":2734:2743   */\n      dup6\n        /* \"#utility.yul\":2730:2752   */\n      add\n        /* \"#utility.yul\":2709:2762   */\n      tag_65\n      jump\t// in\n    tag_112:\n        /* \"#utility.yul\":2699:2762   */\n      swap2\n      pop\n        /* \"#utility.yul\":2655:2772   */\n      pop\n        /* \"#utility.yul\":2450:2779   */\n      swap3\n      swap2\n      pop\n      pop\n      jump\t// out\n        /* \"#utility.yul\":2785:2903   */\n    tag_66:\n        /* \"#utility.yul\":2872:2896   */\n      tag_114\n        /* \"#utility.yul\":2890:2895   */\n      dup2\n        /* \"#utility.yul\":2872:2896   */\n      tag_55\n      jump\t// in\n    tag_114:\n        /* \"#utility.yul\":2867:2870   */\n      dup3\n        /* \"#utility.yul\":2860:2897   */\n      mstore\n        /* \"#utility.yul\":2785:2903   */\n      pop\n      pop\n      jump\t// out\n        /* \"#utility.yul\":2909:3131   */\n    tag_20:\n        /* \"#utility.yul\":3002:3006   */\n      0x00\n        /* \"#utility.yul\":3040:3042   */\n      0x20\n        /* \"#utility.yul\":3029:3038   */\n      dup3\n        /* \"#utility.yul\":3025:3043   */\n      add\n        /* \"#utility.yul\":3017:3043   */\n      swap1\n      pop\n        /* \"#utility.yul\":3053:3124   */\n      tag_116\n        /* \"#utility.yul\":3121:3122   */\n      0x00\n        /* \"#utility.yul\":3110:3119   */\n      dup4\n        /* \"#utility.yul\":3106:3123   */\n      add\n        /* \"#utility.yul\":3097:3103   */\n      dup5\n        /* \"#utility.yul\":3053:3124   */\n      tag_66\n      jump\t// in\n    tag_116:\n        /* \"#utility.yul\":2909:3131   */\n      swap3\n      swap2\n      pop\n      pop\n      jump\t// out\n        /* \"#utility.yul\":3137:3266   */\n    tag_67:\n        /* \"#utility.yul\":3219:3225   */\n      0x00\n        /* \"#utility.yul\":3253:3258   */\n      dup2\n        /* \"#utility.yul\":3247:3259   */\n      mload\n        /* \"#utility.yul\":3237:3259   */\n      swap1\n      pop\n        /* \"#utility.yul\":3137:3266   */\n      swap2\n      swap1\n      pop\n      jump\t// out\n        /* \"#utility.yul\":3272:3456   */\n    tag_68:\n        /* \"#utility.yul\":3371:3382   */\n      0x00\n        /* \"#utility.yul\":3405:3411   */\n      dup3\n        /* \"#utility.yul\":3400:3403   */\n      dup3\n        /* \"#utility.yul\":3393:3412   */\n      mstore\n        /* \"#utility.yul\":3445:3449   */\n      0x20\n        /* \"#utility.yul\":3440:3443   */\n      dup3\n        /* \"#utility.yul\":3436:3450   */\n      add\n        /* \"#utility.yul\":3421:3450   */\n      swap1\n      pop\n        /* \"#utility.yul\":3272:3456   */\n      swap3\n      swap2\n      pop\n      pop\n      jump\t// out\n        /* \"#utility.yul\":3462:3609   */\n    tag_69:\n        /* \"#utility.yul\":3544:3548   */\n      0x00\n        /* \"#utility.yul\":3567:3570   */\n      dup2\n        /* \"#utility.yul\":3559:3570   */\n      swap1\n      pop\n        /* \"#utility.yul\":3597:3601   */\n      0x20\n        /* \"#utility.yul\":3592:3595   */\n      dup3\n        /* \"#utility.yul\":3588:3602   */\n      add\n        /* \"#utility.yul\":3580:3602   */\n      swap1\n      pop\n        /* \"#utility.yul\":3462:3609   */\n      swap2\n      swap1\n      pop\n      jump\t// out\n        /* \"#utility.yul\":3615:3766   */\n    tag_70:\n        /* \"#utility.yul\":3707:3759   */\n      tag_121\n        /* \"#utility.yul\":3753:3758   */\n      dup2\n        /* \"#utility.yul\":3707:3759   */\n      tag_61\n      jump\t// in\n    tag_121:\n        /* \"#utility.yul\":3702:3705   */\n      dup3\n        /* \"#utility.yul\":3695:3760   */\n      mstore\n        /* \"#utility.yul\":3615:3766   */\n      pop\n      pop\n      jump\t// out\n        /* \"#utility.yul\":3772:3981   */\n    tag_71:\n        /* \"#utility.yul\":3856:3866   */\n      0x00\n        /* \"#utility.yul\":3877:3938   */\n      tag_123\n        /* \"#utility.yul\":3934:3937   */\n      dup4\n        /* \"#utility.yul\":3926:3932   */\n      dup4\n        /* \"#utility.yul\":3877:3938   */\n      tag_70\n      jump\t// in\n    tag_123:\n        /* \"#utility.yul\":3970:3974   */\n      0x20\n        /* \"#utility.yul\":3965:3968   */\n      dup4\n        /* \"#utility.yul\":3961:3975   */\n      add\n        /* \"#utility.yul\":3947:3975   */\n      swap1\n      pop\n        /* \"#utility.yul\":3772:3981   */\n      swap3\n      swap2\n      pop\n      pop\n      jump\t// out\n        /* \"#utility.yul\":3987:4115   */\n    tag_72:\n        /* \"#utility.yul\":4072:4076   */\n      0x00\n        /* \"#utility.yul\":4104:4108   */\n      0x20\n        /* \"#utility.yul\":4099:4102   */\n      dup3\n        /* \"#utility.yul\":4095:4109   */\n      add\n        /* \"#utility.yul\":4087:4109   */\n      swap1\n      pop\n        /* \"#utility.yul\":3987:4115   */\n      swap2\n      swap1\n      pop\n      jump\t// out\n        /* \"#utility.yul\":4160:4967   */\n    tag_73:\n        /* \"#utility.yul\":4294:4297   */\n      0x00\n        /* \"#utility.yul\":4323:4392   */\n      tag_126\n        /* \"#utility.yul\":4386:4391   */\n      dup3\n        /* \"#utility.yul\":4323:4392   */\n      tag_67\n      jump\t// in\n    tag_126:\n        /* \"#utility.yul\":4408:4494   */\n      tag_127\n        /* \"#utility.yul\":4487:4493   */\n      dup2\n        /* \"#utility.yul\":4482:4485   */\n      dup6\n        /* \"#utility.yul\":4408:4494   */\n      tag_68\n      jump\t// in\n    tag_127:\n        /* \"#utility.yul\":4401:4494   */\n      swap4\n      pop\n        /* \"#utility.yul\":4518:4589   */\n      tag_128\n        /* \"#utility.yul\":4583:4588   */\n      dup4\n        /* \"#utility.yul\":4518:4589   */\n      tag_69\n      jump\t// in\n    tag_128:\n        /* \"#utility.yul\":4612:4619   */\n      dup1\n        /* \"#utility.yul\":4643:4644   */\n      0x00\n        /* \"#utility.yul\":4628:4942   */\n    tag_129:\n        /* \"#utility.yul\":4653:4659   */\n      dup4\n        /* \"#utility.yul\":4650:4651   */\n      dup2\n        /* \"#utility.yul\":4647:4660   */\n      lt\n        /* \"#utility.yul\":4628:4942   */\n      iszero\n      tag_131\n      jumpi\n        /* \"#utility.yul\":4729:4735   */\n      dup2\n        /* \"#utility.yul\":4723:4736   */\n      mload\n        /* \"#utility.yul\":4756:4834   */\n      tag_132\n        /* \"#utility.yul\":4830:4833   */\n      dup9\n        /* \"#utility.yul\":4815:4828   */\n      dup3\n        /* \"#utility.yul\":4756:4834   */\n      tag_71\n      jump\t// in\n    tag_132:\n        /* \"#utility.yul\":4749:4834   */\n      swap8\n      pop\n        /* \"#utility.yul\":4857:4932   */\n      tag_133\n        /* \"#utility.yul\":4925:4931   */\n      dup4\n        /* \"#utility.yul\":4857:4932   */\n      tag_72\n      jump\t// in\n    tag_133:\n        /* \"#utility.yul\":4847:4932   */\n      swap3\n      pop\n        /* \"#utility.yul\":4688:4942   */\n      pop\n        /* \"#utility.yul\":4675:4676   */\n      0x01\n        /* \"#utility.yul\":4672:4673   */\n      dup2\n        /* \"#utility.yul\":4668:4677   */\n      add\n        /* \"#utility.yul\":4663:4677   */\n      swap1\n      pop\n        /* \"#utility.yul\":4628:4942   */\n      jump(tag_129)\n    tag_131:\n        /* \"#utility.yul\":4632:4646   */\n      pop\n        /* \"#utility.yul\":4958:4961   */\n      dup6\n        /* \"#utility.yul\":4951:4961   */\n      swap4\n      pop\n        /* \"#utility.yul\":4299:4967   */\n      pop\n      pop\n      pop\n        /* \"#utility.yul\":4160:4967   */\n      swap3\n      swap2\n      pop\n      pop\n      jump\t// out\n        /* \"#utility.yul\":4973:5376   */\n    tag_30:\n        /* \"#utility.yul\":5131:5135   */\n      0x00\n        /* \"#utility.yul\":5169:5171   */\n      0x20\n        /* \"#utility.yul\":5158:5167   */\n      dup3\n        /* \"#utility.yul\":5154:5172   */\n      add\n        /* \"#utility.yul\":5146:5172   */\n      swap1\n      pop\n        /* \"#utility.yul\":5218:5227   */\n      dup2\n        /* \"#utility.yul\":5212:5216   */\n      dup2\n        /* \"#utility.yul\":5208:5228   */\n      sub\n        /* \"#utility.yul\":5204:5205   */\n      0x00\n        /* \"#utility.yul\":5193:5202   */\n      dup4\n        /* \"#utility.yul\":5189:5206   */\n      add\n        /* \"#utility.yul\":5182:5229   */\n      mstore\n        /* \"#utility.yul\":5246:5369   */\n      tag_135\n        /* \"#utility.yul\":5364:5368   */\n      dup2\n        /* \"#utility.yul\":5355:5361   */\n      dup5\n        /* \"#utility.yul\":5246:5369   */\n      tag_73\n      jump\t// in\n    tag_135:\n        /* \"#utility.yul\":5238:5369   */\n      swap1\n      pop\n        /* \"#utility.yul\":4973:5376   */\n      swap3\n      swap2\n      pop\n      pop\n      jump\t// out\n    stop\n\n    sub_0: assembly {\n            /* \"KYC.sol\":1082:4445  contract Userdef{... */\n          mstore(0x40, 0x80)\n            /* \"KYC.sol\":1675:1798  constructor(address creator){... */\n          callvalue\n          dup1\n          iszero\n          tag_1\n          jumpi\n          0x00\n          dup1\n          revert\n        tag_1:\n          pop\n          mload(0x40)\n          sub(codesize, bytecodeSize)\n          dup1\n          bytecodeSize\n          dup4\n          codecopy\n          dup2\n          dup2\n          add\n          0x40\n          mstore\n          dup2\n          add\n          swap1\n          tag_2\n          swap2\n          swap1\n          tag_3\n          jump\t// in\n        tag_2:\n            /* \"KYC.sol\":1724:1731  creator */\n          dup1\n            /* \"KYC.sol\":1714:1721  manager */\n          0x02\n          0x00\n            /* \"KYC.sol\":1714:1731  manager = creator */\n          0x0100\n          exp\n          dup2\n          sload\n          dup2\n          0xffffffffffffffffffffffffffffffffffffffff\n          mul\n          not\n          and\n          swap1\n          dup4\n          0xffffffffffffffffffffffffffffffffffffffff\n          and\n          mul\n          or\n          swap1\n          sstore\n          pop\n            /* \"KYC.sol\":1675:1798  constructor(address creator){... */\n          pop\n            /* \"KYC.sol\":1082:4445  contract Userdef{... */\n          jump(tag_6)\n            /* \"#utility.yul\":88:205   */\n        tag_8:\n            /* \"#utility.yul\":197:198   */\n          0x00\n            /* \"#utility.yul\":194:195   */\n          dup1\n            /* \"#utility.yul\":187:199   */\n          revert\n            /* \"#utility.yul\":334:460   */\n        tag_10:\n            /* \"#utility.yul\":371:378   */\n          0x00\n            /* \"#utility.yul\":411:453   */\n          0xffffffffffffffffffffffffffffffffffffffff\n            /* \"#utility.yul\":404:409   */\n          dup3\n            /* \"#utility.yul\":400:454   */\n          and\n            /* \"#utility.yul\":389:454   */\n          swap1\n          pop\n            /* \"#utility.yul\":334:460   */\n          swap2\n          swap1\n          pop\n          jump\t// out\n            /* \"#utility.yul\":466:562   */\n        tag_11:\n            /* \"#utility.yul\":503:510   */\n          0x00\n            /* \"#utility.yul\":532:556   */\n          tag_20\n            /* \"#utility.yul\":550:555   */\n          dup3\n            /* \"#utility.yul\":532:556   */\n          tag_10\n          jump\t// in\n        tag_20:\n            /* \"#utility.yul\":521:556   */\n          swap1\n          pop\n            /* \"#utility.yul\":466:562   */\n          swap2\n          swap1\n          pop\n          jump\t// out\n            /* \"#utility.yul\":568:690   */\n        tag_12:\n            /* \"#utility.yul\":641:665   */\n          tag_22\n            /* \"#utility.yul\":659:664   */\n          dup2\n            /* \"#utility.yul\":641:665   */\n          tag_11\n          jump\t// in\n        tag_22:\n            /* \"#utility.yul\":634:639   */\n          dup2\n            /* \"#utility.yul\":631:666   */\n          eq\n            /* \"#utility.yul\":621:684   */\n          tag_23\n          jumpi\n            /* \"#utility.yul\":680:681   */\n          0x00\n            /* \"#utility.yul\":677:678   */\n          dup1\n            /* \"#utility.yul\":670:682   */\n          revert\n            /* \"#utility.yul\":621:684   */\n        tag_23:\n            /* \"#utility.yul\":568:690   */\n          pop\n          jump\t// out\n            /* \"#utility.yul\":696:839   */\n        tag_13:\n            /* \"#utility.yul\":753:758   */\n          0x00\n            /* \"#utility.yul\":784:790   */\n          dup2\n            /* \"#utility.yul\":778:791   */\n          mload\n            /* \"#utility.yul\":769:791   */\n          swap1\n          pop\n            /* \"#utility.yul\":800:833   */\n          tag_25\n            /* \"#utility.yul\":827:832   */\n          dup2\n            /* \"#utility.yul\":800:833   */\n          tag_12\n          jump\t// in\n        tag_25:\n            /* \"#utility.yul\":696:839   */\n          swap3\n          swap2\n          pop\n          pop\n          jump\t// out\n            /* \"#utility.yul\":845:1196   */\n        tag_3:\n            /* \"#utility.yul\":915:921   */\n          0x00\n            /* \"#utility.yul\":964:966   */\n          0x20\n            /* \"#utility.yul\":952:961   */\n          dup3\n            /* \"#utility.yul\":943:950   */\n          dup5\n            /* \"#utility.yul\":939:962   */\n          sub\n            /* \"#utility.yul\":935:967   */\n          slt\n            /* \"#utility.yul\":932:1051   */\n          iszero\n          tag_27\n          jumpi\n            /* \"#utility.yul\":970:1049   */\n          tag_28\n          tag_8\n          jump\t// in\n        tag_28:\n            /* \"#utility.yul\":932:1051   */\n        tag_27:\n            /* \"#utility.yul\":1090:1091   */\n          0x00\n            /* \"#utility.yul\":1115:1179   */\n          tag_29\n            /* \"#utility.yul\":1171:1178   */\n          dup5\n            /* \"#utility.yul\":1162:1168   */\n          dup3\n            /* \"#utility.yul\":1151:1160   */\n          dup6\n            /* \"#utility.yul\":1147:1169   */\n          add\n            /* \"#utility.yul\":1115:1179   */\n          tag_13\n          jump\t// in\n        tag_29:\n            /* \"#utility.yul\":1105:1179   */\n          swap2\n          pop\n            /* \"#utility.yul\":1061:1189   */\n          pop\n            /* \"#utility.yul\":845:1196   */\n          swap3\n          swap2\n          pop\n          pop\n          jump\t// out\n            /* \"KYC.sol\":1082:4445  contract Userdef{... */\n        tag_6:\n          dataSize(sub_0)\n          dup1\n          dataOffset(sub_0)\n          0x00\n          codecopy\n          0x00\n          return\n        stop\n\n        sub_0: assembly {\n                /* \"KYC.sol\":1082:4445  contract Userdef{... */\n              mstore(0x40, 0x80)\n              callvalue\n              dup1\n              iszero\n              tag_1\n              jumpi\n              0x00\n              dup1\n              revert\n            tag_1:\n              pop\n              jumpi(tag_2, lt(calldatasize, 0x04))\n              shr(0xe0, calldataload(0x00))\n              dup1\n              0x787fd703\n              gt\n              tag_14\n              jumpi\n              dup1\n              0x787fd703\n              eq\n              tag_8\n              jumpi\n              dup1\n              0xadb4d990\n              eq\n              tag_9\n              jumpi\n              dup1\n              0xcc3d967b\n              eq\n              tag_10\n              jumpi\n              dup1\n              0xea00962f\n              eq\n              tag_11\n              jumpi\n              dup1\n              0xede3a670\n              eq\n              tag_12\n              jumpi\n              dup1\n              0xf203c19d\n              eq\n              tag_13\n              jumpi\n              jump(tag_2)\n            tag_14:\n              dup1\n              0x061dff9a\n              eq\n              tag_3\n              jumpi\n              dup1\n              0x091bac16\n              eq\n              tag_4\n              jumpi\n              dup1\n              0x311cc831\n              eq\n              tag_5\n              jumpi\n              dup1\n              0x481c6a75\n              eq\n              tag_6\n              jumpi\n              dup1\n              0x509fda0e\n              eq\n              tag_7\n              jumpi\n            tag_2:\n              0x00\n              dup1\n              revert\n                /* \"KYC.sol\":4311:4440  function approveRequest(address recepient) public{... */\n            tag_3:\n              tag_15\n              0x04\n              dup1\n              calldatasize\n              sub\n              dup2\n              add\n              swap1\n              tag_16\n              swap2\n              swap1\n              tag_17\n              jump\t// in\n            tag_16:\n              tag_18\n              jump\t// in\n            tag_15:\n              stop\n                /* \"KYC.sol\":3126:3342  function getAadharPan(address rer) public view... */\n            tag_4:\n              tag_19\n              0x04\n              dup1\n              calldatasize\n              sub\n              dup2\n              add\n              swap1\n              tag_20\n              swap2\n              swap1\n              tag_17\n              jump\t// in\n            tag_20:\n              tag_21\n              jump\t// in\n            tag_19:\n              mload(0x40)\n              tag_22\n              swap3\n              swap2\n              swap1\n              tag_23\n              jump\t// in\n            tag_22:\n              mload(0x40)\n              dup1\n              swap2\n              sub\n              swap1\n              return\n                /* \"KYC.sol\":1806:2578  function addUser(string memory n, string memory f, string memory m, string memory d, string memory ad,string memory mo,string memory e,string memory aadhar,string memory pan,string memory ah,string memory ph) ... */\n            tag_5:\n              tag_24\n              0x04\n              dup1\n              calldatasize\n              sub\n              dup2\n              add\n              swap1\n              tag_25\n              swap2\n              swap1\n              tag_26\n              jump\t// in\n            tag_25:\n              tag_27\n              jump\t// in\n            tag_24:\n              stop\n                /* \"KYC.sol\":1492:1514  address public manager */\n            tag_6:\n              tag_28\n              tag_29\n              jump\t// in\n            tag_28:\n              mload(0x40)\n              tag_30\n              swap2\n              swap1\n              tag_31\n              jump\t// in\n            tag_30:\n              mload(0x40)\n              dup1\n              swap2\n              sub\n              swap1\n              return\n                /* \"KYC.sol\":3373:3609  function getAadharPanHash(address rer) public view... */\n            tag_7:\n              tag_32\n              0x04\n              dup1\n              calldatasize\n              sub\n              dup2\n              add\n              swap1\n              tag_33\n              swap2\n              swap1\n              tag_17\n              jump\t// in\n            tag_33:\n              tag_34\n              jump\t// in\n            tag_32:\n              mload(0x40)\n              tag_35\n              swap3\n              swap2\n              swap1\n              tag_23\n              jump\t// in\n            tag_35:\n              mload(0x40)\n              dup1\n              swap2\n              sub\n              swap1\n              return\n                /* \"KYC.sol\":4096:4303  function getUserAadharPanHash(address rer) public view... */\n            tag_8:\n              tag_36\n              0x04\n              dup1\n              calldatasize\n              sub\n              dup2\n              add\n              swap1\n              tag_37\n              swap2\n              swap1\n              tag_17\n              jump\t// in\n            tag_37:\n              tag_38\n              jump\t// in\n            tag_36:\n              mload(0x40)\n              tag_39\n              swap3\n              swap2\n              swap1\n              tag_23\n              jump\t// in\n            tag_39:\n              mload(0x40)\n              dup1\n              swap2\n              sub\n              swap1\n              return\n                /* \"KYC.sol\":1545:1568  address public assigned */\n            tag_9:\n              tag_40\n              tag_41\n              jump\t// in\n            tag_40:\n              mload(0x40)\n              tag_42\n              swap2\n              swap1\n              tag_31\n              jump\t// in\n            tag_42:\n              mload(0x40)\n              dup1\n              swap2\n              sub\n              swap1\n              return\n                /* \"KYC.sol\":3644:4088  function getUserDetails(address ass) public view... */\n            tag_10:\n              tag_43\n              0x04\n              dup1\n              calldatasize\n              sub\n              dup2\n              add\n              swap1\n              tag_44\n              swap2\n              swap1\n              tag_17\n              jump\t// in\n            tag_44:\n              tag_45\n              jump\t// in\n            tag_43:\n              mload(0x40)\n              tag_46\n              swap10\n              swap9\n              swap8\n              swap7\n              swap6\n              swap5\n              swap4\n              swap3\n              swap2\n              swap1\n              tag_47\n              jump\t// in\n            tag_46:\n              mload(0x40)\n              dup1\n              swap2\n              sub\n              swap1\n              return\n                /* \"KYC.sol\":2586:2681  function getDeployedUsers() public view returns(address) {... */\n            tag_11:\n              tag_48\n              tag_49\n              jump\t// in\n            tag_48:\n              mload(0x40)\n              tag_50\n              swap2\n              swap1\n              tag_31\n              jump\t// in\n            tag_50:\n              mload(0x40)\n              dup1\n              swap2\n              sub\n              swap1\n              return\n                /* \"KYC.sol\":2712:3095  function getparticularUser(address rer) public view... */\n            tag_12:\n              tag_51\n              0x04\n              dup1\n              calldatasize\n              sub\n              dup2\n              add\n              swap1\n              tag_52\n              swap2\n              swap1\n              tag_17\n              jump\t// in\n            tag_52:\n              tag_53\n              jump\t// in\n            tag_51:\n              mload(0x40)\n              tag_54\n              swap8\n              swap7\n              swap6\n              swap5\n              swap4\n              swap3\n              swap2\n              swap1\n              tag_55\n              jump\t// in\n            tag_54:\n              mload(0x40)\n              dup1\n              swap2\n              sub\n              swap1\n              return\n                /* \"KYC.sol\":1421:1448  address public usersAddress */\n            tag_13:\n              tag_56\n              tag_57\n              jump\t// in\n            tag_56:\n              mload(0x40)\n              tag_58\n              swap2\n              swap1\n              tag_31\n              jump\t// in\n            tag_58:\n              mload(0x40)\n              dup1\n              swap2\n              sub\n              swap1\n              return\n                /* \"KYC.sol\":4311:4440  function approveRequest(address recepient) public{... */\n            tag_18:\n                /* \"KYC.sol\":4393:4400  manager */\n              0x02\n              0x00\n              swap1\n              sload\n              swap1\n              0x0100\n              exp\n              swap1\n              div\n              0xffffffffffffffffffffffffffffffffffffffff\n              and\n                /* \"KYC.sol\":4379:4400  msg.sender == manager */\n              0xffffffffffffffffffffffffffffffffffffffff\n              and\n                /* \"KYC.sol\":4379:4389  msg.sender */\n              caller\n                /* \"KYC.sol\":4379:4400  msg.sender == manager */\n              0xffffffffffffffffffffffffffffffffffffffff\n              and\n              eq\n                /* \"KYC.sol\":4371:4401  require(msg.sender == manager) */\n              tag_60\n              jumpi\n              0x00\n              dup1\n              revert\n            tag_60:\n                /* \"KYC.sol\":4423:4432  recepient */\n              dup1\n                /* \"KYC.sol\":4412:4420  assigned */\n              0x03\n              0x00\n                /* \"KYC.sol\":4412:4432  assigned = recepient */\n              0x0100\n              exp\n              dup2\n              sload\n              dup2\n              0xffffffffffffffffffffffffffffffffffffffff\n              mul\n              not\n              and\n              swap1\n              dup4\n              0xffffffffffffffffffffffffffffffffffffffff\n              and\n              mul\n              or\n              swap1\n              sstore\n              pop\n                /* \"KYC.sol\":4311:4440  function approveRequest(address recepient) public{... */\n              pop\n              jump\t// out\n                /* \"KYC.sol\":3126:3342  function getAadharPan(address rer) public view... */\n            tag_21:\n                /* \"KYC.sol\":3186:3199  string memory */\n              0x60\n                /* \"KYC.sol\":3200:3213  string memory */\n              dup1\n                /* \"KYC.sol\":3233:3238  users */\n              0x01\n                /* \"KYC.sol\":3233:3243  users[rer] */\n              0x00\n                /* \"KYC.sol\":3239:3242  rer */\n              dup5\n                /* \"KYC.sol\":3233:3243  users[rer] */\n              0xffffffffffffffffffffffffffffffffffffffff\n              and\n              0xffffffffffffffffffffffffffffffffffffffff\n              and\n              dup2\n              mstore\n              0x20\n              add\n              swap1\n              dup2\n              mstore\n              0x20\n              add\n              0x00\n              keccak256\n                /* \"KYC.sol\":3233:3247  users[rer].set */\n              0x09\n              add\n              0x00\n              swap1\n              sload\n              swap1\n              0x0100\n              exp\n              swap1\n              div\n              0xff\n              and\n                /* \"KYC.sol\":3225:3248  require(users[rer].set) */\n              tag_62\n              jumpi\n              0x00\n              dup1\n              revert\n            tag_62:\n                /* \"KYC.sol\":3274:3281  manager */\n              0x02\n              0x00\n              swap1\n              sload\n              swap1\n              0x0100\n              exp\n              swap1\n              div\n              0xffffffffffffffffffffffffffffffffffffffff\n              and\n                /* \"KYC.sol\":3267:3281  rer == manager */\n              0xffffffffffffffffffffffffffffffffffffffff\n              and\n                /* \"KYC.sol\":3267:3270  rer */\n              dup4\n                /* \"KYC.sol\":3267:3281  rer == manager */\n              0xffffffffffffffffffffffffffffffffffffffff\n              and\n              eq\n                /* \"KYC.sol\":3259:3282  require(rer == manager) */\n              tag_63\n              jumpi\n              0x00\n              dup1\n              revert\n            tag_63:\n                /* \"KYC.sol\":3301:3306  users */\n              0x01\n                /* \"KYC.sol\":3301:3311  users[rer] */\n              0x00\n                /* \"KYC.sol\":3307:3310  rer */\n              dup5\n                /* \"KYC.sol\":3301:3311  users[rer] */\n              0xffffffffffffffffffffffffffffffffffffffff\n              and\n              0xffffffffffffffffffffffffffffffffffffffff\n              and\n              dup2\n              mstore\n              0x20\n              add\n              swap1\n              dup2\n              mstore\n              0x20\n              add\n              0x00\n              keccak256\n                /* \"KYC.sol\":3301:3318  users[rer].aadhar */\n              0x07\n              add\n                /* \"KYC.sol\":3319:3324  users */\n              0x01\n                /* \"KYC.sol\":3319:3329  users[rer] */\n              0x00\n                /* \"KYC.sol\":3325:3328  rer */\n              dup6\n                /* \"KYC.sol\":3319:3329  users[rer] */\n              0xffffffffffffffffffffffffffffffffffffffff\n              and\n              0xffffffffffffffffffffffffffffffffffffffff\n              and\n              dup2\n              mstore\n              0x20\n              add\n              swap1\n              dup2\n              mstore\n              0x20\n              add\n              0x00\n              keccak256\n                /* \"KYC.sol\":3319:3333  users[rer].pan */\n              0x08\n              add\n                /* \"KYC.sol\":3293:3334  return (users[rer].aadhar,users[rer].pan) */\n              dup2\n              dup1\n              sload\n              tag_64\n              swap1\n              tag_65\n              jump\t// in\n            tag_64:\n              dup1\n              0x1f\n              add\n              0x20\n              dup1\n              swap2\n              div\n              mul\n              0x20\n              add\n              mload(0x40)\n              swap1\n              dup2\n              add\n              0x40\n              mstore\n              dup1\n              swap3\n              swap2\n              swap1\n              dup2\n              dup2\n              mstore\n              0x20\n              add\n              dup3\n              dup1\n              sload\n              tag_66\n              swap1\n              tag_65\n              jump\t// in\n            tag_66:\n              dup1\n              iszero\n              tag_67\n              jumpi\n              dup1\n              0x1f\n              lt\n              tag_68\n              jumpi\n              0x0100\n              dup1\n              dup4\n              sload\n              div\n              mul\n              dup4\n              mstore\n              swap2\n              0x20\n              add\n              swap2\n              jump(tag_67)\n            tag_68:\n              dup3\n              add\n              swap2\n              swap1\n              0x00\n              mstore\n              keccak256(0x00, 0x20)\n              swap1\n            tag_69:\n              dup2\n              sload\n              dup2\n              mstore\n              swap1\n              0x01\n              add\n              swap1\n              0x20\n              add\n              dup1\n              dup4\n              gt\n              tag_69\n              jumpi\n              dup3\n              swap1\n              sub\n              0x1f\n              and\n              dup3\n              add\n              swap2\n            tag_67:\n              pop\n              pop\n              pop\n              pop\n              pop\n              swap2\n              pop\n              dup1\n              dup1\n              sload\n              tag_70\n              swap1\n              tag_65\n              jump\t// in\n            tag_70:\n              dup1\n              0x1f\n              add\n              0x20\n              dup1\n              swap2\n              div\n              mul\n              0x20\n              add\n              mload(0x40)\n              swap1\n              dup2\n              add\n              0x40\n              mstore\n              dup1\n              swap3\n              swap2\n              swap1\n              dup2\n              dup2\n              mstore\n              0x20\n              add\n              dup3\n              dup1\n              sload\n              tag_71\n              swap1\n              tag_65\n              jump\t// in\n            tag_71:\n              dup1\n              iszero\n              tag_72\n              jumpi\n              dup1\n              0x1f\n              lt\n              tag_73\n              jumpi\n              0x0100\n              dup1\n              dup4\n              sload\n              div\n              mul\n              dup4\n              mstore\n              swap2\n              0x20\n              add\n              swap2\n              jump(tag_72)\n            tag_73:\n              dup3\n              add\n              swap2\n              swap1\n              0x00\n              mstore\n              keccak256(0x00, 0x20)\n              swap1\n            tag_74:\n              dup2\n              sload\n              dup2\n              mstore\n              swap1\n              0x01\n              add\n              swap1\n              0x20\n              add\n              dup1\n              dup4\n              gt\n              tag_74\n              jumpi\n              dup3\n              swap1\n              sub\n              0x1f\n              and\n              dup3\n              add\n              swap2\n            tag_72:\n              pop\n              pop\n              pop\n              pop\n              pop\n              swap1\n              pop\n              swap2\n              pop\n              swap2\n              pop\n                /* \"KYC.sol\":3126:3342  function getAadharPan(address rer) public view... */\n              swap2\n              pop\n              swap2\n              jump\t// out\n                /* \"KYC.sol\":1806:2578  function addUser(string memory n, string memory f, string memory m, string memory d, string memory ad,string memory mo,string memory e,string memory aadhar,string memory pan,string memory ah,string memory ph) ... */\n            tag_27:\n                /* \"KYC.sol\":1635:1642  manager */\n              0x02\n              0x00\n              swap1\n              sload\n              swap1\n              0x0100\n              exp\n              swap1\n              div\n              0xffffffffffffffffffffffffffffffffffffffff\n              and\n                /* \"KYC.sol\":1621:1642  msg.sender == manager */\n              0xffffffffffffffffffffffffffffffffffffffff\n              and\n                /* \"KYC.sol\":1621:1631  msg.sender */\n              caller\n                /* \"KYC.sol\":1621:1642  msg.sender == manager */\n              0xffffffffffffffffffffffffffffffffffffffff\n              and\n              eq\n                /* \"KYC.sol\":1613:1643  require(msg.sender == manager) */\n              tag_76\n              jumpi\n              0x00\n              dup1\n              revert\n            tag_76:\n                /* \"KYC.sol\":2053:2066  address entry */\n              0x00\n                /* \"KYC.sol\":2069:2079  msg.sender */\n              caller\n                /* \"KYC.sol\":2053:2079  address entry = msg.sender */\n              swap1\n              pop\n                /* \"KYC.sol\":2099:2104  users */\n              0x01\n                /* \"KYC.sol\":2099:2111  users[entry] */\n              0x00\n                /* \"KYC.sol\":2105:2110  entry */\n              dup3\n                /* \"KYC.sol\":2099:2111  users[entry] */\n              0xffffffffffffffffffffffffffffffffffffffff\n              and\n              0xffffffffffffffffffffffffffffffffffffffff\n              and\n              dup2\n              mstore\n              0x20\n              add\n              swap1\n              dup2\n              mstore\n              0x20\n              add\n              0x00\n              keccak256\n                /* \"KYC.sol\":2099:2115  users[entry].set */\n              0x09\n              add\n              0x00\n              swap1\n              sload\n              swap1\n              0x0100\n              exp\n              swap1\n              div\n              0xff\n              and\n                /* \"KYC.sol\":2098:2115  !users[entry].set */\n              iszero\n                /* \"KYC.sol\":2090:2116  require(!users[entry].set) */\n              tag_78\n              jumpi\n              0x00\n              dup1\n              revert\n            tag_78:\n                /* \"KYC.sol\":2142:2147  entry */\n              dup1\n                /* \"KYC.sol\":2127:2139  usersAddress */\n              0x00\n              dup1\n                /* \"KYC.sol\":2127:2147  usersAddress = entry */\n              0x0100\n              exp\n              dup2\n              sload\n              dup2\n              0xffffffffffffffffffffffffffffffffffffffff\n              mul\n              not\n              and\n              swap1\n              dup4\n              0xffffffffffffffffffffffffffffffffffffffff\n              and\n              mul\n              or\n              swap1\n              sstore\n              pop\n                /* \"KYC.sol\":2178:2179  n */\n              dup12\n                /* \"KYC.sol\":2158:2163  users */\n              0x01\n                /* \"KYC.sol\":2158:2170  users[entry] */\n              0x00\n                /* \"KYC.sol\":2164:2169  entry */\n              dup4\n                /* \"KYC.sol\":2158:2170  users[entry] */\n              0xffffffffffffffffffffffffffffffffffffffff\n              and\n              0xffffffffffffffffffffffffffffffffffffffff\n              and\n              dup2\n              mstore\n              0x20\n              add\n              swap1\n              dup2\n              mstore\n              0x20\n              add\n              0x00\n              keccak256\n                /* \"KYC.sol\":2158:2175  users[entry].name */\n              0x00\n              add\n                /* \"KYC.sol\":2158:2179  users[entry].name = n */\n              swap1\n              dup1\n              mload\n              swap1\n              0x20\n              add\n              swap1\n              tag_79\n              swap3\n              swap2\n              swap1\n              tag_80\n              jump\t// in\n            tag_79:\n              pop\n                /* \"KYC.sol\":2212:2213  f */\n              dup11\n                /* \"KYC.sol\":2190:2195  users */\n              0x01\n                /* \"KYC.sol\":2190:2202  users[entry] */\n              0x00\n                /* \"KYC.sol\":2196:2201  entry */\n              dup4\n                /* \"KYC.sol\":2190:2202  users[entry] */\n              0xffffffffffffffffffffffffffffffffffffffff\n              and\n              0xffffffffffffffffffffffffffffffffffffffff\n              and\n              dup2\n              mstore\n              0x20\n              add\n              swap1\n              dup2\n              mstore\n              0x20\n              add\n              0x00\n              keccak256\n                /* \"KYC.sol\":2190:2209  users[entry].father */\n              0x01\n              add\n                /* \"KYC.sol\":2190:2213  users[entry].father = f */\n              swap1\n              dup1\n              mload\n              swap1\n              0x20\n              add\n              swap1\n              tag_81\n              swap3\n              swap2\n              swap1\n              tag_80\n              jump\t// in\n            tag_81:\n              pop\n                /* \"KYC.sol\":2246:2247  m */\n              dup10\n                /* \"KYC.sol\":2224:2229  users */\n              0x01\n                /* \"KYC.sol\":2224:2236  users[entry] */\n              0x00\n                /* \"KYC.sol\":2230:2235  entry */\n              dup4\n                /* \"KYC.sol\":2224:2236  users[entry] */\n              0xffffffffffffffffffffffffffffffffffffffff\n              and\n              0xffffffffffffffffffffffffffffffffffffffff\n              and\n              dup2\n              mstore\n              0x20\n              add\n              swap1\n              dup2\n              mstore\n              0x20\n              add\n              0x00\n              keccak256\n                /* \"KYC.sol\":2224:2243  users[entry].mother */\n              0x02\n              add\n                /* \"KYC.sol\":2224:2247  users[entry].mother = m */\n              swap1\n              dup1\n              mload\n              swap1\n              0x20\n              add\n              swap1\n              tag_82\n              swap3\n              swap2\n              swap1\n              tag_80\n              jump\t// in\n            tag_82:\n              pop\n                /* \"KYC.sol\":2283:2284  d */\n              dup9\n                /* \"KYC.sol\":2258:2263  users */\n              0x01\n                /* \"KYC.sol\":2258:2270  users[entry] */\n              0x00\n                /* \"KYC.sol\":2264:2269  entry */\n              dup4\n                /* \"KYC.sol\":2258:2270  users[entry] */\n              0xffffffffffffffffffffffffffffffffffffffff\n              and\n              0xffffffffffffffffffffffffffffffffffffffff\n              and\n              dup2\n              mstore\n              0x20\n              add\n              swap1\n              dup2\n              mstore\n              0x20\n              add\n              0x00\n              keccak256\n                /* \"KYC.sol\":2258:2280  users[entry].birthdate */\n              0x03\n              add\n                /* \"KYC.sol\":2258:2284  users[entry].birthdate = d */\n              swap1\n              dup1\n              mload\n              swap1\n              0x20\n              add\n              swap1\n              tag_83\n              swap3\n              swap2\n              swap1\n              tag_80\n              jump\t// in\n            tag_83:\n              pop\n                /* \"KYC.sol\":2314:2316  ad */\n              dup8\n                /* \"KYC.sol\":2295:2300  users */\n              0x01\n                /* \"KYC.sol\":2295:2307  users[entry] */\n              0x00\n                /* \"KYC.sol\":2301:2306  entry */\n              dup4\n                /* \"KYC.sol\":2295:2307  users[entry] */\n              0xffffffffffffffffffffffffffffffffffffffff\n              and\n              0xffffffffffffffffffffffffffffffffffffffff\n              and\n              dup2\n              mstore\n              0x20\n              add\n              swap1\n              dup2\n              mstore\n              0x20\n              add\n              0x00\n              keccak256\n                /* \"KYC.sol\":2295:2311  users[entry].add */\n              0x04\n              add\n                /* \"KYC.sol\":2295:2316  users[entry].add = ad */\n              swap1\n              dup1\n              mload\n              swap1\n              0x20\n              add\n              swap1\n              tag_84\n              swap3\n              swap2\n              swap1\n              tag_80\n              jump\t// in\n            tag_84:\n              pop\n                /* \"KYC.sol\":2346:2348  mo */\n              dup7\n                /* \"KYC.sol\":2327:2332  users */\n              0x01\n                /* \"KYC.sol\":2327:2339  users[entry] */\n              0x00\n                /* \"KYC.sol\":2333:2338  entry */\n              dup4\n                /* \"KYC.sol\":2327:2339  users[entry] */\n              0xffffffffffffffffffffffffffffffffffffffff\n              and\n              0xffffffffffffffffffffffffffffffffffffffff\n              and\n              dup2\n              mstore\n              0x20\n              add\n              swap1\n              dup2\n              mstore\n              0x20\n              add\n              0x00\n              keccak256\n                /* \"KYC.sol\":2327:2343  users[entry].mob */\n              0x05\n              add\n                /* \"KYC.sol\":2327:2348  users[entry].mob = mo */\n              swap1\n              dup1\n              mload\n              swap1\n              0x20\n              add\n              swap1\n              tag_85\n              swap3\n              swap2\n              swap1\n              tag_80\n              jump\t// in\n            tag_85:\n              pop\n                /* \"KYC.sol\":2380:2381  e */\n              dup6\n                /* \"KYC.sol\":2359:2364  users */\n              0x01\n                /* \"KYC.sol\":2359:2371  users[entry] */\n              0x00\n                /* \"KYC.sol\":2365:2370  entry */\n              dup4\n                /* \"KYC.sol\":2359:2371  users[entry] */\n              0xffffffffffffffffffffffffffffffffffffffff\n              and\n              0xffffffffffffffffffffffffffffffffffffffff\n              and\n              dup2\n              mstore\n              0x20\n              add\n              swap1\n              dup2\n              mstore\n              0x20\n              add\n              0x00\n              keccak256\n                /* \"KYC.sol\":2359:2377  users[entry].email */\n              0x06\n              add\n                /* \"KYC.sol\":2359:2381  users[entry].email = e */\n              swap1\n              dup1\n              mload\n              swap1\n              0x20\n              add\n              swap1\n              tag_86\n              swap3\n              swap2\n              swap1\n              tag_80\n              jump\t// in\n            tag_86:\n              pop\n                /* \"KYC.sol\":2414:2420  aadhar */\n              dup5\n                /* \"KYC.sol\":2392:2397  users */\n              0x01\n                /* \"KYC.sol\":2392:2404  users[entry] */\n              0x00\n                /* \"KYC.sol\":2398:2403  entry */\n              dup4\n                /* \"KYC.sol\":2392:2404  users[entry] */\n              0xffffffffffffffffffffffffffffffffffffffff\n              and\n              0xffffffffffffffffffffffffffffffffffffffff\n              and\n              dup2\n              mstore\n              0x20\n              add\n              swap1\n              dup2\n              mstore\n              0x20\n              add\n              0x00\n              keccak256\n                /* \"KYC.sol\":2392:2411  users[entry].aadhar */\n              0x07\n              add\n                /* \"KYC.sol\":2392:2420  users[entry].aadhar = aadhar */\n              swap1\n              dup1\n              mload\n              swap1\n              0x20\n              add\n              swap1\n              tag_87\n              swap3\n              swap2\n              swap1\n              tag_80\n              jump\t// in\n            tag_87:\n              pop\n                /* \"KYC.sol\":2450:2453  pan */\n              dup4\n                /* \"KYC.sol\":2431:2436  users */\n              0x01\n                /* \"KYC.sol\":2431:2443  users[entry] */\n              0x00\n                /* \"KYC.sol\":2437:2442  entry */\n              dup4\n                /* \"KYC.sol\":2431:2443  users[entry] */\n              0xffffffffffffffffffffffffffffffffffffffff\n              and\n              0xffffffffffffffffffffffffffffffffffffffff\n              and\n              dup2\n              mstore\n              0x20\n              add\n              swap1\n              dup2\n              mstore\n              0x20\n              add\n              0x00\n              keccak256\n                /* \"KYC.sol\":2431:2447  users[entry].pan */\n              0x08\n              add\n                /* \"KYC.sol\":2431:2453  users[entry].pan = pan */\n              swap1\n              dup1\n              mload\n              swap1\n              0x20\n              add\n              swap1\n              tag_88\n              swap3\n              swap2\n              swap1\n              tag_80\n              jump\t// in\n            tag_88:\n              pop\n                /* \"KYC.sol\":2494:2496  ah */\n              dup3\n                /* \"KYC.sol\":2464:2469  users */\n              0x01\n                /* \"KYC.sol\":2464:2476  users[entry] */\n              0x00\n                /* \"KYC.sol\":2470:2475  entry */\n              dup4\n                /* \"KYC.sol\":2464:2476  users[entry] */\n              0xffffffffffffffffffffffffffffffffffffffff\n              and\n              0xffffffffffffffffffffffffffffffffffffffff\n              and\n              dup2\n              mstore\n              0x20\n              add\n              swap1\n              dup2\n              mstore\n              0x20\n              add\n              0x00\n              keccak256\n                /* \"KYC.sol\":2464:2491  users[entry].aadharipfsHash */\n              0x0a\n              add\n                /* \"KYC.sol\":2464:2496  users[entry].aadharipfsHash = ah */\n              swap1\n              dup1\n              mload\n              swap1\n              0x20\n              add\n              swap1\n              tag_89\n              swap3\n              swap2\n              swap1\n              tag_80\n              jump\t// in\n            tag_89:\n              pop\n                /* \"KYC.sol\":2534:2536  ph */\n              dup2\n                /* \"KYC.sol\":2507:2512  users */\n              0x01\n                /* \"KYC.sol\":2507:2519  users[entry] */\n              0x00\n                /* \"KYC.sol\":2513:2518  entry */\n              dup4\n                /* \"KYC.sol\":2507:2519  users[entry] */\n              0xffffffffffffffffffffffffffffffffffffffff\n              and\n              0xffffffffffffffffffffffffffffffffffffffff\n              and\n              dup2\n              mstore\n              0x20\n              add\n              swap1\n              dup2\n              mstore\n              0x20\n              add\n              0x00\n              keccak256\n                /* \"KYC.sol\":2507:2531  users[entry].panipfsHash */\n              0x0b\n              add\n                /* \"KYC.sol\":2507:2536  users[entry].panipfsHash = ph */\n              swap1\n              dup1\n              mload\n              swap1\n              0x20\n              add\n              swap1\n              tag_90\n              swap3\n              swap2\n              swap1\n              tag_80\n              jump\t// in\n            tag_90:\n              pop\n                /* \"KYC.sol\":2566:2570  true */\n              0x01\n                /* \"KYC.sol\":2547:2552  users */\n              dup1\n                /* \"KYC.sol\":2547:2559  users[entry] */\n              0x00\n                /* \"KYC.sol\":2553:2558  entry */\n              dup4\n                /* \"KYC.sol\":2547:2559  users[entry] */\n              0xffffffffffffffffffffffffffffffffffffffff\n              and\n              0xffffffffffffffffffffffffffffffffffffffff\n              and\n              dup2\n              mstore\n              0x20\n              add\n              swap1\n              dup2\n              mstore\n              0x20\n              add\n              0x00\n              keccak256\n                /* \"KYC.sol\":2547:2563  users[entry].set */\n              0x09\n              add\n              0x00\n                /* \"KYC.sol\":2547:2570  users[entry].set = true */\n              0x0100\n              exp\n              dup2\n              sload\n              dup2\n              0xff\n              mul\n              not\n              and\n              swap1\n              dup4\n              iszero\n              iszero\n              mul\n              or\n              swap1\n              sstore\n              pop\n                /* \"KYC.sol\":2042:2578  {... */\n              pop\n                /* \"KYC.sol\":1806:2578  function addUser(string memory n, string memory f, string memory m, string memory d, string memory ad,string memory mo,string memory e,string memory aadhar,string memory pan,string memory ah,string memory ph) ... */\n              pop\n              pop\n              pop\n              pop\n              pop\n              pop\n              pop\n              pop\n              pop\n              pop\n              pop\n              jump\t// out\n                /* \"KYC.sol\":1492:1514  address public manager */\n            tag_29:\n              0x02\n              0x00\n              swap1\n              sload\n              swap1\n              0x0100\n              exp\n              swap1\n              div\n              0xffffffffffffffffffffffffffffffffffffffff\n              and\n              dup2\n              jump\t// out\n                /* \"KYC.sol\":3373:3609  function getAadharPanHash(address rer) public view... */\n            tag_34:\n                /* \"KYC.sol\":3437:3450  string memory */\n              0x60\n                /* \"KYC.sol\":3451:3464  string memory */\n              dup1\n                /* \"KYC.sol\":3484:3489  users */\n              0x01\n                /* \"KYC.sol\":3484:3494  users[rer] */\n              0x00\n                /* \"KYC.sol\":3490:3493  rer */\n              dup5\n                /* \"KYC.sol\":3484:3494  users[rer] */\n              0xffffffffffffffffffffffffffffffffffffffff\n              and\n              0xffffffffffffffffffffffffffffffffffffffff\n              and\n              dup2\n              mstore\n              0x20\n              add\n              swap1\n              dup2\n              mstore\n              0x20\n              add\n              0x00\n              keccak256\n                /* \"KYC.sol\":3484:3498  users[rer].set */\n              0x09\n              add\n              0x00\n              swap1\n              sload\n              swap1\n              0x0100\n              exp\n              swap1\n              div\n              0xff\n              and\n                /* \"KYC.sol\":3476:3499  require(users[rer].set) */\n              tag_92\n              jumpi\n              0x00\n              dup1\n              revert\n            tag_92:\n                /* \"KYC.sol\":3525:3532  manager */\n              0x02\n              0x00\n              swap1\n              sload\n              swap1\n              0x0100\n              exp\n              swap1\n              div\n              0xffffffffffffffffffffffffffffffffffffffff\n              and\n                /* \"KYC.sol\":3518:3532  rer == manager */\n              0xffffffffffffffffffffffffffffffffffffffff\n              and\n                /* \"KYC.sol\":3518:3521  rer */\n              dup4\n                /* \"KYC.sol\":3518:3532  rer == manager */\n              0xffffffffffffffffffffffffffffffffffffffff\n              and\n              eq\n                /* \"KYC.sol\":3510:3533  require(rer == manager) */\n              tag_93\n              jumpi\n              0x00\n              dup1\n              revert\n            tag_93:\n                /* \"KYC.sol\":3552:3557  users */\n              0x01\n                /* \"KYC.sol\":3552:3562  users[rer] */\n              0x00\n                /* \"KYC.sol\":3558:3561  rer */\n              dup5\n                /* \"KYC.sol\":3552:3562  users[rer] */\n              0xffffffffffffffffffffffffffffffffffffffff\n              and\n              0xffffffffffffffffffffffffffffffffffffffff\n              and\n              dup2\n              mstore\n              0x20\n              add\n              swap1\n              dup2\n              mstore\n              0x20\n              add\n              0x00\n              keccak256\n                /* \"KYC.sol\":3552:3577  users[rer].aadharipfsHash */\n              0x0a\n              add\n                /* \"KYC.sol\":3578:3583  users */\n              0x01\n                /* \"KYC.sol\":3578:3588  users[rer] */\n              0x00\n                /* \"KYC.sol\":3584:3587  rer */\n              dup6\n                /* \"KYC.sol\":3578:3588  users[rer] */\n              0xffffffffffffffffffffffffffffffffffffffff\n              and\n              0xffffffffffffffffffffffffffffffffffffffff\n              and\n              dup2\n              mstore\n              0x20\n              add\n              swap1\n              dup2\n              mstore\n              0x20\n              add\n              0x00\n              keccak256\n                /* \"KYC.sol\":3578:3600  users[rer].panipfsHash */\n              0x0b\n              add\n                /* \"KYC.sol\":3544:3601  return (users[rer].aadharipfsHash,users[rer].panipfsHash) */\n              dup2\n              dup1\n              sload\n              tag_94\n              swap1\n              tag_65\n              jump\t// in\n            tag_94:\n              dup1\n              0x1f\n              add\n              0x20\n              dup1\n              swap2\n              div\n              mul\n              0x20\n              add\n              mload(0x40)\n              swap1\n              dup2\n              add\n              0x40\n              mstore\n              dup1\n              swap3\n              swap2\n              swap1\n              dup2\n              dup2\n              mstore\n              0x20\n              add\n              dup3\n              dup1\n              sload\n              tag_95\n              swap1\n              tag_65\n              jump\t// in\n            tag_95:\n              dup1\n              iszero\n              tag_96\n              jumpi\n              dup1\n              0x1f\n              lt\n              tag_97\n              jumpi\n              0x0100\n              dup1\n              dup4\n              sload\n              div\n              mul\n              dup4\n              mstore\n              swap2\n              0x20\n              add\n              swap2\n              jump(tag_96)\n            tag_97:\n              dup3\n              add\n              swap2\n              swap1\n              0x00\n              mstore\n              keccak256(0x00, 0x20)\n              swap1\n            tag_98:\n              dup2\n              sload\n              dup2\n              mstore\n              swap1\n              0x01\n              add\n              swap1\n              0x20\n              add\n              dup1\n              dup4\n              gt\n              tag_98\n              jumpi\n              dup3\n              swap1\n              sub\n              0x1f\n              and\n              dup3\n              add\n              swap2\n            tag_96:\n              pop\n              pop\n              pop\n              pop\n              pop\n              swap2\n              pop\n              dup1\n              dup1\n              sload\n              tag_99\n              swap1\n              tag_65\n              jump\t// in\n            tag_99:\n              dup1\n              0x1f\n              add\n              0x20\n              dup1\n              swap2\n              div\n              mul\n              0x20\n              add\n              mload(0x40)\n              swap1\n              dup2\n              add\n              0x40\n              mstore\n              dup1\n              swap3\n              swap2\n              swap1\n              dup2\n              dup2\n              mstore\n              0x20\n              add\n              dup3\n              dup1\n              sload\n              tag_100\n              swap1\n              tag_65\n              jump\t// in\n            tag_100:\n              dup1\n              iszero\n              tag_101\n              jumpi\n              dup1\n              0x1f\n              lt\n              tag_102\n              jumpi\n              0x0100\n              dup1\n              dup4\n              sload\n              div\n              mul\n              dup4\n              mstore\n              swap2\n              0x20\n              add\n              swap2\n              jump(tag_101)\n            tag_102:\n              dup3\n              add\n              swap2\n              swap1\n              0x00\n              mstore\n              keccak256(0x00, 0x20)\n              swap1\n            tag_103:\n              dup2\n              sload\n              dup2\n              mstore\n              swap1\n              0x01\n              add\n              swap1\n              0x20\n              add\n              dup1\n              dup4\n              gt\n              tag_103\n              jumpi\n              dup3\n              swap1\n              sub\n              0x1f\n              and\n              dup3\n              add\n              swap2\n            tag_101:\n              pop\n              pop\n              pop\n              pop\n              pop\n              swap1\n              pop\n              swap2\n              pop\n              swap2\n              pop\n                /* \"KYC.sol\":3373:3609  function getAadharPanHash(address rer) public view... */\n              swap2\n              pop\n              swap2\n              jump\t// out\n                /* \"KYC.sol\":4096:4303  function getUserAadharPanHash(address rer) public view... */\n            tag_38:\n                /* \"KYC.sol\":4164:4177  string memory */\n              0x60\n                /* \"KYC.sol\":4178:4191  string memory */\n              dup1\n                /* \"KYC.sol\":4223:4226  rer */\n              dup3\n                /* \"KYC.sol\":4211:4226  assigned == rer */\n              0xffffffffffffffffffffffffffffffffffffffff\n              and\n                /* \"KYC.sol\":4211:4219  assigned */\n              0x03\n              0x00\n              swap1\n              sload\n              swap1\n              0x0100\n              exp\n              swap1\n              div\n              0xffffffffffffffffffffffffffffffffffffffff\n              and\n                /* \"KYC.sol\":4211:4226  assigned == rer */\n              0xffffffffffffffffffffffffffffffffffffffff\n              and\n              eq\n                /* \"KYC.sol\":4203:4227  require(assigned == rer) */\n              tag_105\n              jumpi\n              0x00\n              dup1\n              revert\n            tag_105:\n                /* \"KYC.sol\":4246:4251  users */\n              0x01\n                /* \"KYC.sol\":4246:4256  users[rer] */\n              0x00\n                /* \"KYC.sol\":4252:4255  rer */\n              dup5\n                /* \"KYC.sol\":4246:4256  users[rer] */\n              0xffffffffffffffffffffffffffffffffffffffff\n              and\n              0xffffffffffffffffffffffffffffffffffffffff\n              and\n              dup2\n              mstore\n              0x20\n              add\n              swap1\n              dup2\n              mstore\n              0x20\n              add\n              0x00\n              keccak256\n                /* \"KYC.sol\":4246:4271  users[rer].aadharipfsHash */\n              0x0a\n              add\n                /* \"KYC.sol\":4272:4277  users */\n              0x01\n                /* \"KYC.sol\":4272:4282  users[rer] */\n              0x00\n                /* \"KYC.sol\":4278:4281  rer */\n              dup6\n                /* \"KYC.sol\":4272:4282  users[rer] */\n              0xffffffffffffffffffffffffffffffffffffffff\n              and\n              0xffffffffffffffffffffffffffffffffffffffff\n              and\n              dup2\n              mstore\n              0x20\n              add\n              swap1\n              dup2\n              mstore\n              0x20\n              add\n              0x00\n              keccak256\n                /* \"KYC.sol\":4272:4294  users[rer].panipfsHash */\n              0x0b\n              add\n                /* \"KYC.sol\":4238:4295  return (users[rer].aadharipfsHash,users[rer].panipfsHash) */\n              dup2\n              dup1\n              sload\n              tag_106\n              swap1\n              tag_65\n              jump\t// in\n            tag_106:\n              dup1\n              0x1f\n              add\n              0x20\n              dup1\n              swap2\n              div\n              mul\n              0x20\n              add\n              mload(0x40)\n              swap1\n              dup2\n              add\n              0x40\n              mstore\n              dup1\n              swap3\n              swap2\n              swap1\n              dup2\n              dup2\n              mstore\n              0x20\n              add\n              dup3\n              dup1\n              sload\n              tag_107\n              swap1\n              tag_65\n              jump\t// in\n            tag_107:\n              dup1\n              iszero\n              tag_108\n              jumpi\n              dup1\n              0x1f\n              lt\n              tag_109\n              jumpi\n              0x0100\n              dup1\n              dup4\n              sload\n              div\n              mul\n              dup4\n              mstore\n              swap2\n              0x20\n              add\n              swap2\n              jump(tag_108)\n            tag_109:\n              dup3\n              add\n              swap2\n              swap1\n              0x00\n              mstore\n              keccak256(0x00, 0x20)\n              swap1\n            tag_110:\n              dup2\n              sload\n              dup2\n              mstore\n              swap1\n              0x01\n              add\n              swap1\n              0x20\n              add\n              dup1\n              dup4\n              gt\n              tag_110\n              jumpi\n              dup3\n              swap1\n              sub\n              0x1f\n              and\n              dup3\n              add\n              swap2\n            tag_108:\n              pop\n              pop\n              pop\n              pop\n              pop\n              swap2\n              pop\n              dup1\n              dup1\n              sload\n              tag_111\n              swap1\n              tag_65\n              jump\t// in\n            tag_111:\n              dup1\n              0x1f\n              add\n              0x20\n              dup1\n              swap2\n              div\n              mul\n              0x20\n              add\n              mload(0x40)\n              swap1\n              dup2\n              add\n              0x40\n              mstore\n              dup1\n              swap3\n              swap2\n              swap1\n              dup2\n              dup2\n              mstore\n              0x20\n              add\n              dup3\n              dup1\n              sload\n              tag_112\n              swap1\n              tag_65\n              jump\t// in\n            tag_112:\n              dup1\n              iszero\n              tag_113\n              jumpi\n              dup1\n              0x1f\n              lt\n              tag_114\n              jumpi\n              0x0100\n              dup1\n              dup4\n              sload\n              div\n              mul\n              dup4\n              mstore\n              swap2\n              0x20\n              add\n              swap2\n              jump(tag_113)\n            tag_114:\n              dup3\n              add\n              swap2\n              swap1\n              0x00\n              mstore\n              keccak256(0x00, 0x20)\n              swap1\n            tag_115:\n              dup2\n              sload\n              dup2\n              mstore\n              swap1\n              0x01\n              add\n              swap1\n              0x20\n              add\n              dup1\n              dup4\n              gt\n              tag_115\n              jumpi\n              dup3\n              swap1\n              sub\n              0x1f\n              and\n              dup3\n              add\n              swap2\n            tag_113:\n              pop\n              pop\n              pop\n              pop\n              pop\n              swap1\n              pop\n              swap2\n              pop\n              swap2\n              pop\n                /* \"KYC.sol\":4096:4303  function getUserAadharPanHash(address rer) public view... */\n              swap2\n              pop\n              swap2\n              jump\t// out\n                /* \"KYC.sol\":1545:1568  address public assigned */\n            tag_41:\n              0x03\n              0x00\n              swap1\n              sload\n              swap1\n              0x0100\n              exp\n              swap1\n              div\n              0xffffffffffffffffffffffffffffffffffffffff\n              and\n              dup2\n              jump\t// out\n                /* \"KYC.sol\":3644:4088  function getUserDetails(address ass) public view... */\n            tag_45:\n                /* \"KYC.sol\":3706:3719  string memory */\n              0x60\n                /* \"KYC.sol\":3721:3734  string memory */\n              dup1\n                /* \"KYC.sol\":3736:3749  string memory */\n              0x60\n                /* \"KYC.sol\":3751:3764  string memory */\n              dup1\n                /* \"KYC.sol\":3766:3779  string memory */\n              0x60\n                /* \"KYC.sol\":3781:3794  string memory */\n              dup1\n                /* \"KYC.sol\":3795:3808  string memory */\n              0x60\n                /* \"KYC.sol\":3809:3822  string memory */\n              dup1\n                /* \"KYC.sol\":3823:3836  string memory */\n              0x60\n                /* \"KYC.sol\":3868:3871  ass */\n              dup10\n                /* \"KYC.sol\":3856:3871  assigned == ass */\n              0xffffffffffffffffffffffffffffffffffffffff\n              and\n                /* \"KYC.sol\":3856:3864  assigned */\n              0x03\n              0x00\n              swap1\n              sload\n              swap1\n              0x0100\n              exp\n              swap1\n              div\n              0xffffffffffffffffffffffffffffffffffffffff\n              and\n                /* \"KYC.sol\":3856:3871  assigned == ass */\n              0xffffffffffffffffffffffffffffffffffffffff\n              and\n              eq\n                /* \"KYC.sol\":3848:3872  require(assigned == ass) */\n              tag_117\n              jumpi\n              0x00\n              dup1\n              revert\n            tag_117:\n                /* \"KYC.sol\":3891:3896  users */\n              0x01\n                /* \"KYC.sol\":3891:3905  users[manager] */\n              0x00\n                /* \"KYC.sol\":3897:3904  manager */\n              0x02\n              0x00\n              swap1\n              sload\n              swap1\n              0x0100\n              exp\n              swap1\n              div\n              0xffffffffffffffffffffffffffffffffffffffff\n              and\n                /* \"KYC.sol\":3891:3905  users[manager] */\n              0xffffffffffffffffffffffffffffffffffffffff\n              and\n              0xffffffffffffffffffffffffffffffffffffffff\n              and\n              dup2\n              mstore\n              0x20\n              add\n              swap1\n              dup2\n              mstore\n              0x20\n              add\n              0x00\n              keccak256\n                /* \"KYC.sol\":3891:3910  users[manager].name */\n              0x00\n              add\n                /* \"KYC.sol\":3911:3916  users */\n              0x01\n                /* \"KYC.sol\":3911:3925  users[manager] */\n              0x00\n                /* \"KYC.sol\":3917:3924  manager */\n              0x02\n              0x00\n              swap1\n              sload\n              swap1\n              0x0100\n              exp\n              swap1\n              div\n              0xffffffffffffffffffffffffffffffffffffffff\n              and\n                /* \"KYC.sol\":3911:3925  users[manager] */\n              0xffffffffffffffffffffffffffffffffffffffff\n              and\n              0xffffffffffffffffffffffffffffffffffffffff\n              and\n              dup2\n              mstore\n              0x20\n              add\n              swap1\n              dup2\n              mstore\n              0x20\n              add\n              0x00\n              keccak256\n                /* \"KYC.sol\":3911:3932  users[manager].father */\n              0x01\n              add\n                /* \"KYC.sol\":3933:3938  users */\n              0x01\n                /* \"KYC.sol\":3933:3947  users[manager] */\n              0x00\n                /* \"KYC.sol\":3939:3946  manager */\n              0x02\n              0x00\n              swap1\n              sload\n              swap1\n              0x0100\n              exp\n              swap1\n              div\n              0xffffffffffffffffffffffffffffffffffffffff\n              and\n                /* \"KYC.sol\":3933:3947  users[manager] */\n              0xffffffffffffffffffffffffffffffffffffffff\n              and\n              0xffffffffffffffffffffffffffffffffffffffff\n              and\n              dup2\n              mstore\n              0x20\n              add\n              swap1\n              dup2\n              mstore\n              0x20\n              add\n              0x00\n              keccak256\n                /* \"KYC.sol\":3933:3954  users[manager].mother */\n              0x02\n              add\n                /* \"KYC.sol\":3955:3960  users */\n              0x01\n                /* \"KYC.sol\":3955:3969  users[manager] */\n              0x00\n                /* \"KYC.sol\":3961:3968  manager */\n              0x02\n              0x00\n              swap1\n              sload\n              swap1\n              0x0100\n              exp\n              swap1\n              div\n              0xffffffffffffffffffffffffffffffffffffffff\n              and\n                /* \"KYC.sol\":3955:3969  users[manager] */\n              0xffffffffffffffffffffffffffffffffffffffff\n              and\n              0xffffffffffffffffffffffffffffffffffffffff\n              and\n              dup2\n              mstore\n              0x20\n              add\n              swap1\n              dup2\n              mstore\n              0x20\n              add\n              0x00\n              keccak256\n                /* \"KYC.sol\":3955:3979  users[manager].birthdate */\n              0x03\n              add\n                /* \"KYC.sol\":3980:3985  users */\n              0x01\n                /* \"KYC.sol\":3980:3994  users[manager] */\n              0x00\n                /* \"KYC.sol\":3986:3993  manager */\n              0x02\n              0x00\n              swap1\n              sload\n              swap1\n              0x0100\n              exp\n              swap1\n              div\n              0xffffffffffffffffffffffffffffffffffffffff\n              and\n                /* \"KYC.sol\":3980:3994  users[manager] */\n              0xffffffffffffffffffffffffffffffffffffffff\n              and\n              0xffffffffffffffffffffffffffffffffffffffff\n              and\n              dup2\n              mstore\n              0x20\n              add\n              swap1\n              dup2\n              mstore\n              0x20\n              add\n              0x00\n              keccak256\n                /* \"KYC.sol\":3980:3998  users[manager].add */\n              0x04\n              add\n                /* \"KYC.sol\":3999:4004  users */\n              0x01\n                /* \"KYC.sol\":3999:4013  users[manager] */\n              0x00\n                /* \"KYC.sol\":4005:4012  manager */\n              0x02\n              0x00\n              swap1\n              sload\n              swap1\n              0x0100\n              exp\n              swap1\n              div\n              0xffffffffffffffffffffffffffffffffffffffff\n              and\n                /* \"KYC.sol\":3999:4013  users[manager] */\n              0xffffffffffffffffffffffffffffffffffffffff\n              and\n              0xffffffffffffffffffffffffffffffffffffffff\n              and\n              dup2\n              mstore\n              0x20\n              add\n              swap1\n              dup2\n              mstore\n              0x20\n              add\n              0x00\n              keccak256\n                /* \"KYC.sol\":3999:4017  users[manager].mob */\n              0x05\n              add\n                /* \"KYC.sol\":4018:4023  users */\n              0x01\n                /* \"KYC.sol\":4018:4032  users[manager] */\n              0x00\n                /* \"KYC.sol\":4024:4031  manager */\n              0x02\n              0x00\n              swap1\n              sload\n              swap1\n              0x0100\n              exp\n              swap1\n              div\n              0xffffffffffffffffffffffffffffffffffffffff\n              and\n                /* \"KYC.sol\":4018:4032  users[manager] */\n              0xffffffffffffffffffffffffffffffffffffffff\n              and\n              0xffffffffffffffffffffffffffffffffffffffff\n              and\n              dup2\n              mstore\n              0x20\n              add\n              swap1\n              dup2\n              mstore\n              0x20\n              add\n              0x00\n              keccak256\n                /* \"KYC.sol\":4018:4038  users[manager].email */\n              0x06\n              add\n                /* \"KYC.sol\":4039:4044  users */\n              0x01\n                /* \"KYC.sol\":4039:4053  users[manager] */\n              0x00\n                /* \"KYC.sol\":4045:4052  manager */\n              0x02\n              0x00\n              swap1\n              sload\n              swap1\n              0x0100\n              exp\n              swap1\n              div\n              0xffffffffffffffffffffffffffffffffffffffff\n              and\n                /* \"KYC.sol\":4039:4053  users[manager] */\n              0xffffffffffffffffffffffffffffffffffffffff\n              and\n              0xffffffffffffffffffffffffffffffffffffffff\n              and\n              dup2\n              mstore\n              0x20\n              add\n              swap1\n              dup2\n              mstore\n              0x20\n              add\n              0x00\n              keccak256\n                /* \"KYC.sol\":4039:4060  users[manager].aadhar */\n              0x07\n              add\n                /* \"KYC.sol\":4061:4066  users */\n              0x01\n                /* \"KYC.sol\":4061:4075  users[manager] */\n              0x00\n                /* \"KYC.sol\":4067:4074  manager */\n              0x02\n              0x00\n              swap1\n              sload\n              swap1\n              0x0100\n              exp\n              swap1\n              div\n              0xffffffffffffffffffffffffffffffffffffffff\n              and\n                /* \"KYC.sol\":4061:4075  users[manager] */\n              0xffffffffffffffffffffffffffffffffffffffff\n              and\n              0xffffffffffffffffffffffffffffffffffffffff\n              and\n              dup2\n              mstore\n              0x20\n              add\n              swap1\n              dup2\n              mstore\n              0x20\n              add\n              0x00\n              keccak256\n                /* \"KYC.sol\":4061:4079  users[manager].pan */\n              0x08\n              add\n                /* \"KYC.sol\":3883:4080  return (users[manager].name,users[manager].father,users[manager].mother,users[manager].birthdate,users[manager].add,users[manager].mob,users[manager].email,users[manager].aadhar,users[manager].pan) */\n              dup9\n              dup1\n              sload\n              tag_118\n              swap1\n              tag_65\n              jump\t// in\n            tag_118:\n              dup1\n              0x1f\n              add\n              0x20\n              dup1\n              swap2\n              div\n              mul\n              0x20\n              add\n              mload(0x40)\n              swap1\n              dup2\n              add\n              0x40\n              mstore\n              dup1\n              swap3\n              swap2\n              swap1\n              dup2\n              dup2\n              mstore\n              0x20\n              add\n              dup3\n              dup1\n              sload\n              tag_119\n              swap1\n              tag_65\n              jump\t// in\n            tag_119:\n              dup1\n              iszero\n              tag_120\n              jumpi\n              dup1\n              0x1f\n              lt\n              tag_121\n              jumpi\n              0x0100\n              dup1\n              dup4\n              sload\n              div\n              mul\n              dup4\n              mstore\n              swap2\n              0x20\n              add\n              swap2\n              jump(tag_120)\n            tag_121:\n              dup3\n              add\n              swap2\n              swap1\n              0x00\n              mstore\n              keccak256(0x00, 0x20)\n              swap1\n            tag_122:\n              dup2\n              sload\n              dup2\n              mstore\n              swap1\n              0x01\n              add\n              swap1\n              0x20\n              add\n              dup1\n              dup4\n              gt\n              tag_122\n              jumpi\n              dup3\n              swap1\n              sub\n              0x1f\n              and\n              dup3\n              add\n              swap2\n            tag_120:\n              pop\n              pop\n              pop\n              pop\n              pop\n              swap9\n              pop\n              dup8\n              dup1\n              sload\n              tag_123\n              swap1\n              tag_65\n              jump\t// in\n            tag_123:\n              dup1\n              0x1f\n              add\n              0x20\n              dup1\n              swap2\n              div\n              mul\n              0x20\n              add\n              mload(0x40)\n              swap1\n              dup2\n              add\n              0x40\n              mstore\n              dup1\n              swap3\n              swap2\n              swap1\n              dup2\n              dup2\n              mstore\n              0x20\n              add\n              dup3\n              dup1\n              sload\n              tag_124\n              swap1\n              tag_65\n              jump\t// in\n            tag_124:\n              dup1\n              iszero\n              tag_125\n              jumpi\n              dup1\n              0x1f\n              lt\n              tag_126\n              jumpi\n              0x0100\n              dup1\n              dup4\n              sload\n              div\n              mul\n              dup4\n              mstore\n              swap2\n              0x20\n              add\n              swap2\n              jump(tag_125)\n            tag_126:\n              dup3\n              add\n              swap2\n              swap1\n              0x00\n              mstore\n              keccak256(0x00, 0x20)\n              swap1\n            tag_127:\n              dup2\n              sload\n              dup2\n              mstore\n              swap1\n              0x01\n              add\n              swap1\n              0x20\n              add\n              dup1\n              dup4\n              gt\n              tag_127\n              jumpi\n              dup3\n              swap1\n              sub\n              0x1f\n              and\n              dup3\n              add\n              swap2\n            tag_125:\n              pop\n              pop\n              pop\n              pop\n              pop\n              swap8\n              pop\n              dup7\n              dup1\n              sload\n              tag_128\n              swap1\n              tag_65\n              jump\t// in\n            tag_128:\n              dup1\n              0x1f\n              add\n              0x20\n              dup1\n              swap2\n              div\n              mul\n              0x20\n              add\n              mload(0x40)\n              swap1\n              dup2\n              add\n              0x40\n              mstore\n              dup1\n              swap3\n              swap2\n              swap1\n              dup2\n              dup2\n              mstore\n              0x20\n              add\n              dup3\n              dup1\n              sload\n              tag_129\n              swap1\n              tag_65\n              jump\t// in\n            tag_129:\n              dup1\n              iszero\n              tag_130\n              jumpi\n              dup1\n              0x1f\n              lt\n              tag_131\n              jumpi\n              0x0100\n              dup1\n              dup4\n              sload\n              div\n              mul\n              dup4\n              mstore\n              swap2\n              0x20\n              add\n              swap2\n              jump(tag_130)\n            tag_131:\n              dup3\n              add\n              swap2\n              swap1\n              0x00\n              mstore\n              keccak256(0x00, 0x20)\n              swap1\n            tag_132:\n              dup2\n              sload\n              dup2\n              mstore\n              swap1\n              0x01\n              add\n              swap1\n              0x20\n              add\n              dup1\n              dup4\n              gt\n              tag_132\n              jumpi\n              dup3\n              swap1\n              sub\n              0x1f\n              and\n              dup3\n              add\n              swap2\n            tag_130:\n              pop\n              pop\n              pop\n              pop\n              pop\n              swap7\n              pop\n              dup6\n              dup1\n              sload\n              tag_133\n              swap1\n              tag_65\n              jump\t// in\n            tag_133:\n              dup1\n              0x1f\n              add\n              0x20\n              dup1\n              swap2\n              div\n              mul\n              0x20\n              add\n              mload(0x40)\n              swap1\n              dup2\n              add\n              0x40\n              mstore\n              dup1\n              swap3\n              swap2\n              swap1\n              dup2\n              dup2\n              mstore\n              0x20\n              add\n              dup3\n              dup1\n              sload\n              tag_134\n              swap1\n              tag_65\n              jump\t// in\n            tag_134:\n              dup1\n              iszero\n              tag_135\n              jumpi\n              dup1\n              0x1f\n              lt\n              tag_136\n              jumpi\n              0x0100\n              dup1\n              dup4\n              sload\n              div\n              mul\n              dup4\n              mstore\n              swap2\n              0x20\n              add\n              swap2\n              jump(tag_135)\n            tag_136:\n              dup3\n              add\n              swap2\n              swap1\n              0x00\n              mstore\n              keccak256(0x00, 0x20)\n              swap1\n            tag_137:\n              dup2\n              sload\n              dup2\n              mstore\n              swap1\n              0x01\n              add\n              swap1\n              0x20\n              add\n              dup1\n              dup4\n              gt\n              tag_137\n              jumpi\n              dup3\n              swap1\n              sub\n              0x1f\n              and\n              dup3\n              add\n              swap2\n            tag_135:\n              pop\n              pop\n              pop\n              pop\n              pop\n              swap6\n              pop\n              dup5\n              dup1\n              sload\n              tag_138\n              swap1\n              tag_65\n              jump\t// in\n            tag_138:\n              dup1\n              0x1f\n              add\n              0x20\n              dup1\n              swap2\n              div\n              mul\n              0x20\n              add\n              mload(0x40)\n              swap1\n              dup2\n              add\n              0x40\n              mstore\n              dup1\n              swap3\n              swap2\n              swap1\n              dup2\n              dup2\n              mstore\n              0x20\n              add\n              dup3\n              dup1\n              sload\n              tag_139\n              swap1\n              tag_65\n              jump\t// in\n            tag_139:\n              dup1\n              iszero\n              tag_140\n              jumpi\n              dup1\n              0x1f\n              lt\n              tag_141\n              jumpi\n              0x0100\n              dup1\n              dup4\n              sload\n              div\n              mul\n              dup4\n              mstore\n              swap2\n              0x20\n              add\n              swap2\n              jump(tag_140)\n            tag_141:\n              dup3\n              add\n              swap2\n              swap1\n              0x00\n              mstore\n              keccak256(0x00, 0x20)\n              swap1\n            tag_142:\n              dup2\n              sload\n              dup2\n              mstore\n              swap1\n              0x01\n              add\n              swap1\n              0x20\n              add\n              dup1\n              dup4\n              gt\n              tag_142\n              jumpi\n              dup3\n              swap1\n              sub\n              0x1f\n              and\n              dup3\n              add\n              swap2\n            tag_140:\n              pop\n              pop\n              pop\n              pop\n              pop\n              swap5\n              pop\n              dup4\n              dup1\n              sload\n              tag_143\n              swap1\n              tag_65\n              jump\t// in\n            tag_143:\n              dup1\n              0x1f\n              add\n              0x20\n              dup1\n              swap2\n              div\n              mul\n              0x20\n              add\n              mload(0x40)\n              swap1\n              dup2\n              add\n              0x40\n              mstore\n              dup1\n              swap3\n              swap2\n              swap1\n              dup2\n              dup2\n              mstore\n              0x20\n              add\n              dup3\n              dup1\n              sload\n              tag_144\n              swap1\n              tag_65\n              jump\t// in\n            tag_144:\n              dup1\n              iszero\n              tag_145\n              jumpi\n              dup1\n              0x1f\n              lt\n              tag_146\n              jumpi\n              0x0100\n              dup1\n              dup4\n              sload\n              div\n              mul\n              dup4\n              mstore\n              swap2\n              0x20\n              add\n              swap2\n              jump(tag_145)\n            tag_146:\n              dup3\n              add\n              swap2\n              swap1\n              0x00\n              mstore\n              keccak256(0x00, 0x20)\n              swap1\n            tag_147:\n              dup2\n              sload\n              dup2\n              mstore\n              swap1\n              0x01\n              add\n              swap1\n              0x20\n              add\n              dup1\n              dup4\n              gt\n              tag_147\n              jumpi\n              dup3\n              swap1\n              sub\n              0x1f\n              and\n              dup3\n              add\n              swap2\n            tag_145:\n              pop\n              pop\n              pop\n              pop\n              pop\n              swap4\n              pop\n              dup3\n              dup1\n              sload\n              tag_148\n              swap1\n              tag_65\n              jump\t// in\n            tag_148:\n              dup1\n              0x1f\n              add\n              0x20\n              dup1\n              swap2\n              div\n              mul\n              0x20\n              add\n              mload(0x40)\n              swap1\n              dup2\n              add\n              0x40\n              mstore\n              dup1\n              swap3\n              swap2\n              swap1\n              dup2\n              dup2\n              mstore\n              0x20\n              add\n              dup3\n              dup1\n              sload\n              tag_149\n              swap1\n              tag_65\n              jump\t// in\n            tag_149:\n              dup1\n              iszero\n              tag_150\n              jumpi\n              dup1\n              0x1f\n              lt\n              tag_151\n              jumpi\n              0x0100\n              dup1\n              dup4\n              sload\n              div\n              mul\n              dup4\n              mstore\n              swap2\n              0x20\n              add\n              swap2\n              jump(tag_150)\n            tag_151:\n              dup3\n              add\n              swap2\n              swap1\n              0x00\n              mstore\n              keccak256(0x00, 0x20)\n              swap1\n            tag_152:\n              dup2\n              sload\n              dup2\n              mstore\n              swap1\n              0x01\n              add\n              swap1\n              0x20\n              add\n              dup1\n              dup4\n              gt\n              tag_152\n              jumpi\n              dup3\n              swap1\n              sub\n              0x1f\n              and\n              dup3\n              add\n              swap2\n            tag_150:\n              pop\n              pop\n              pop\n              pop\n              pop\n              swap3\n              pop\n              dup2\n              dup1\n              sload\n              tag_153\n              swap1\n              tag_65\n              jump\t// in\n            tag_153:\n              dup1\n              0x1f\n              add\n              0x20\n              dup1\n              swap2\n              div\n              mul\n              0x20\n              add\n              mload(0x40)\n              swap1\n              dup2\n              add\n              0x40\n              mstore\n              dup1\n              swap3\n              swap2\n              swap1\n              dup2\n              dup2\n              mstore\n              0x20\n              add\n              dup3\n              dup1\n              sload\n              tag_154\n              swap1\n              tag_65\n              jump\t// in\n            tag_154:\n              dup1\n              iszero\n              tag_155\n              jumpi\n              dup1\n              0x1f\n              lt\n              tag_156\n              jumpi\n              0x0100\n              dup1\n              dup4\n              sload\n              div\n              mul\n              dup4\n              mstore\n              swap2\n              0x20\n              add\n              swap2\n              jump(tag_155)\n            tag_156:\n              dup3\n              add\n              swap2\n              swap1\n              0x00\n              mstore\n              keccak256(0x00, 0x20)\n              swap1\n            tag_157:\n              dup2\n              sload\n              dup2\n              mstore\n              swap1\n              0x01\n              add\n              swap1\n              0x20\n              add\n              dup1\n              dup4\n              gt\n              tag_157\n              jumpi\n              dup3\n              swap1\n              sub\n              0x1f\n              and\n              dup3\n              add\n              swap2\n            tag_155:\n              pop\n              pop\n              pop\n              pop\n              pop\n              swap2\n              pop\n              dup1\n              dup1\n              sload\n              tag_158\n              swap1\n              tag_65\n              jump\t// in\n            tag_158:\n              dup1\n              0x1f\n              add\n              0x20\n              dup1\n              swap2\n              div\n              mul\n              0x20\n              add\n              mload(0x40)\n              swap1\n              dup2\n              add\n              0x40\n              mstore\n              dup1\n              swap3\n              swap2\n              swap1\n              dup2\n              dup2\n              mstore\n              0x20\n              add\n              dup3\n              dup1\n              sload\n              tag_159\n              swap1\n              tag_65\n              jump\t// in\n            tag_159:\n              dup1\n              iszero\n              tag_160\n              jumpi\n              dup1\n              0x1f\n              lt\n              tag_161\n              jumpi\n              0x0100\n              dup1\n              dup4\n              sload\n              div\n              mul\n              dup4\n              mstore\n              swap2\n              0x20\n              add\n              swap2\n              jump(tag_160)\n            tag_161:\n              dup3\n              add\n              swap2\n              swap1\n              0x00\n              mstore\n              keccak256(0x00, 0x20)\n              swap1\n            tag_162:\n              dup2\n              sload\n              dup2\n              mstore\n              swap1\n              0x01\n              add\n              swap1\n              0x20\n              add\n              dup1\n              dup4\n              gt\n              tag_162\n              jumpi\n              dup3\n              swap1\n              sub\n              0x1f\n              and\n              dup3\n              add\n              swap2\n            tag_160:\n              pop\n              pop\n              pop\n              pop\n              pop\n              swap1\n              pop\n              swap9\n              pop\n              swap9\n              pop\n              swap9\n              pop\n              swap9\n              pop\n              swap9\n              pop\n              swap9\n              pop\n              swap9\n              pop\n              swap9\n              pop\n              swap9\n              pop\n                /* \"KYC.sol\":3644:4088  function getUserDetails(address ass) public view... */\n              swap2\n              swap4\n              swap6\n              swap8\n              swap10\n              swap1\n              swap3\n              swap5\n              swap7\n              swap9\n              pop\n              jump\t// out\n                /* \"KYC.sol\":2586:2681  function getDeployedUsers() public view returns(address) {... */\n            tag_49:\n                /* \"KYC.sol\":2634:2641  address */\n              0x00\n                /* \"KYC.sol\":2661:2673  usersAddress */\n              dup1\n              0x00\n              swap1\n              sload\n              swap1\n              0x0100\n              exp\n              swap1\n              div\n              0xffffffffffffffffffffffffffffffffffffffff\n              and\n                /* \"KYC.sol\":2654:2673  return usersAddress */\n              swap1\n              pop\n                /* \"KYC.sol\":2586:2681  function getDeployedUsers() public view returns(address) {... */\n              swap1\n              jump\t// out\n                /* \"KYC.sol\":2712:3095  function getparticularUser(address rer) public view... */\n            tag_53:\n                /* \"KYC.sol\":2777:2790  string memory */\n              0x60\n                /* \"KYC.sol\":2792:2805  string memory */\n              dup1\n                /* \"KYC.sol\":2807:2820  string memory */\n              0x60\n                /* \"KYC.sol\":2822:2835  string memory */\n              dup1\n                /* \"KYC.sol\":2837:2850  string memory */\n              0x60\n                /* \"KYC.sol\":2852:2865  string memory */\n              dup1\n                /* \"KYC.sol\":2866:2879  string memory */\n              0x60\n                /* \"KYC.sol\":2899:2904  users */\n              0x01\n                /* \"KYC.sol\":2899:2909  users[rer] */\n              0x00\n                /* \"KYC.sol\":2905:2908  rer */\n              dup10\n                /* \"KYC.sol\":2899:2909  users[rer] */\n              0xffffffffffffffffffffffffffffffffffffffff\n              and\n              0xffffffffffffffffffffffffffffffffffffffff\n              and\n              dup2\n              mstore\n              0x20\n              add\n              swap1\n              dup2\n              mstore\n              0x20\n              add\n              0x00\n              keccak256\n                /* \"KYC.sol\":2899:2913  users[rer].set */\n              0x09\n              add\n              0x00\n              swap1\n              sload\n              swap1\n              0x0100\n              exp\n              swap1\n              div\n              0xff\n              and\n                /* \"KYC.sol\":2891:2914  require(users[rer].set) */\n              tag_165\n              jumpi\n              0x00\n              dup1\n              revert\n            tag_165:\n                /* \"KYC.sol\":2940:2947  manager */\n              0x02\n              0x00\n              swap1\n              sload\n              swap1\n              0x0100\n              exp\n              swap1\n              div\n              0xffffffffffffffffffffffffffffffffffffffff\n              and\n                /* \"KYC.sol\":2933:2947  rer == manager */\n              0xffffffffffffffffffffffffffffffffffffffff\n              and\n                /* \"KYC.sol\":2933:2936  rer */\n              dup9\n                /* \"KYC.sol\":2933:2947  rer == manager */\n              0xffffffffffffffffffffffffffffffffffffffff\n              and\n              eq\n                /* \"KYC.sol\":2925:2948  require(rer == manager) */\n              tag_166\n              jumpi\n              0x00\n              dup1\n              revert\n            tag_166:\n                /* \"KYC.sol\":2967:2972  users */\n              0x01\n                /* \"KYC.sol\":2967:2977  users[rer] */\n              0x00\n                /* \"KYC.sol\":2973:2976  rer */\n              dup10\n                /* \"KYC.sol\":2967:2977  users[rer] */\n              0xffffffffffffffffffffffffffffffffffffffff\n              and\n              0xffffffffffffffffffffffffffffffffffffffff\n              and\n              dup2\n              mstore\n              0x20\n              add\n              swap1\n              dup2\n              mstore\n              0x20\n              add\n              0x00\n              keccak256\n                /* \"KYC.sol\":2967:2982  users[rer].name */\n              0x00\n              add\n                /* \"KYC.sol\":2983:2988  users */\n              0x01\n                /* \"KYC.sol\":2983:2993  users[rer] */\n              0x00\n                /* \"KYC.sol\":2989:2992  rer */\n              dup11\n                /* \"KYC.sol\":2983:2993  users[rer] */\n              0xffffffffffffffffffffffffffffffffffffffff\n              and\n              0xffffffffffffffffffffffffffffffffffffffff\n              and\n              dup2\n              mstore\n              0x20\n              add\n              swap1\n              dup2\n              mstore\n              0x20\n              add\n              0x00\n              keccak256\n                /* \"KYC.sol\":2983:3000  users[rer].father */\n              0x01\n              add\n                /* \"KYC.sol\":3001:3006  users */\n              0x01\n                /* \"KYC.sol\":3001:3011  users[rer] */\n              0x00\n                /* \"KYC.sol\":3007:3010  rer */\n              dup12\n                /* \"KYC.sol\":3001:3011  users[rer] */\n              0xffffffffffffffffffffffffffffffffffffffff\n              and\n              0xffffffffffffffffffffffffffffffffffffffff\n              and\n              dup2\n              mstore\n              0x20\n              add\n              swap1\n              dup2\n              mstore\n              0x20\n              add\n              0x00\n              keccak256\n                /* \"KYC.sol\":3001:3018  users[rer].mother */\n              0x02\n              add\n                /* \"KYC.sol\":3019:3024  users */\n              0x01\n                /* \"KYC.sol\":3019:3029  users[rer] */\n              0x00\n                /* \"KYC.sol\":3025:3028  rer */\n              dup13\n                /* \"KYC.sol\":3019:3029  users[rer] */\n              0xffffffffffffffffffffffffffffffffffffffff\n              and\n              0xffffffffffffffffffffffffffffffffffffffff\n              and\n              dup2\n              mstore\n              0x20\n              add\n              swap1\n              dup2\n              mstore\n              0x20\n              add\n              0x00\n              keccak256\n                /* \"KYC.sol\":3019:3039  users[rer].birthdate */\n              0x03\n              add\n                /* \"KYC.sol\":3040:3045  users */\n              0x01\n                /* \"KYC.sol\":3040:3050  users[rer] */\n              0x00\n                /* \"KYC.sol\":3046:3049  rer */\n              dup14\n                /* \"KYC.sol\":3040:3050  users[rer] */\n              0xffffffffffffffffffffffffffffffffffffffff\n              and\n              0xffffffffffffffffffffffffffffffffffffffff\n              and\n              dup2\n              mstore\n              0x20\n              add\n              swap1\n              dup2\n              mstore\n              0x20\n              add\n              0x00\n              keccak256\n                /* \"KYC.sol\":3040:3054  users[rer].add */\n              0x04\n              add\n                /* \"KYC.sol\":3055:3060  users */\n              0x01\n                /* \"KYC.sol\":3055:3065  users[rer] */\n              0x00\n                /* \"KYC.sol\":3061:3064  rer */\n              dup15\n                /* \"KYC.sol\":3055:3065  users[rer] */\n              0xffffffffffffffffffffffffffffffffffffffff\n              and\n              0xffffffffffffffffffffffffffffffffffffffff\n              and\n              dup2\n              mstore\n              0x20\n              add\n              swap1\n              dup2\n              mstore\n              0x20\n              add\n              0x00\n              keccak256\n                /* \"KYC.sol\":3055:3069  users[rer].mob */\n              0x05\n              add\n                /* \"KYC.sol\":3070:3075  users */\n              0x01\n                /* \"KYC.sol\":3070:3080  users[rer] */\n              0x00\n                /* \"KYC.sol\":3076:3079  rer */\n              dup16\n                /* \"KYC.sol\":3070:3080  users[rer] */\n              0xffffffffffffffffffffffffffffffffffffffff\n              and\n              0xffffffffffffffffffffffffffffffffffffffff\n              and\n              dup2\n              mstore\n              0x20\n              add\n              swap1\n              dup2\n              mstore\n              0x20\n              add\n              0x00\n              keccak256\n                /* \"KYC.sol\":3070:3086  users[rer].email */\n              0x06\n              add\n                /* \"KYC.sol\":2959:3087  return (users[rer].name,users[rer].father,users[rer].mother,users[rer].birthdate,users[rer].add,users[rer].mob,users[rer].email) */\n              dup7\n              dup1\n              sload\n              tag_167\n              swap1\n              tag_65\n              jump\t// in\n            tag_167:\n              dup1\n              0x1f\n              add\n              0x20\n              dup1\n              swap2\n              div\n              mul\n              0x20\n              add\n              mload(0x40)\n              swap1\n              dup2\n              add\n              0x40\n              mstore\n              dup1\n              swap3\n              swap2\n              swap1\n              dup2\n              dup2\n              mstore\n              0x20\n              add\n              dup3\n              dup1\n              sload\n              tag_168\n              swap1\n              tag_65\n              jump\t// in\n            tag_168:\n              dup1\n              iszero\n              tag_169\n              jumpi\n              dup1\n              0x1f\n              lt\n              tag_170\n              jumpi\n              0x0100\n              dup1\n              dup4\n              sload\n              div\n              mul\n              dup4\n              mstore\n              swap2\n              0x20\n              add\n              swap2\n              jump(tag_169)\n            tag_170:\n              dup3\n              add\n              swap2\n              swap1\n              0x00\n              mstore\n              keccak256(0x00, 0x20)\n              swap1\n            tag_171:\n              dup2\n              sload\n              dup2\n              mstore\n              swap1\n              0x01\n              add\n              swap1\n              0x20\n              add\n              dup1\n              dup4\n              gt\n              tag_171\n              jumpi\n              dup3\n              swap1\n              sub\n              0x1f\n              and\n              dup3\n              add\n              swap2\n            tag_169:\n              pop\n              pop\n              pop\n              pop\n              pop\n              swap7\n              pop\n              dup6\n              dup1\n              sload\n              tag_172\n              swap1\n              tag_65\n              jump\t// in\n            tag_172:\n              dup1\n              0x1f\n              add\n              0x20\n              dup1\n              swap2\n              div\n              mul\n              0x20\n              add\n              mload(0x40)\n              swap1\n              dup2\n              add\n              0x40\n              mstore\n              dup1\n              swap3\n              swap2\n              swap1\n              dup2\n              dup2\n              mstore\n              0x20\n              add\n              dup3\n              dup1\n              sload\n              tag_173\n              swap1\n              tag_65\n              jump\t// in\n            tag_173:\n              dup1\n              iszero\n              tag_174\n              jumpi\n              dup1\n              0x1f\n              lt\n              tag_175\n              jumpi\n              0x0100\n              dup1\n              dup4\n              sload\n              div\n              mul\n              dup4\n              mstore\n              swap2\n              0x20\n              add\n              swap2\n              jump(tag_174)\n            tag_175:\n              dup3\n              add\n              swap2\n              swap1\n              0x00\n              mstore\n              keccak256(0x00, 0x20)\n              swap1\n            tag_176:\n              dup2\n              sload\n              dup2\n              mstore\n              swap1\n              0x01\n              add\n              swap1\n              0x20\n              add\n              dup1\n              dup4\n              gt\n              tag_176\n              jumpi\n              dup3\n              swap1\n              sub\n              0x1f\n              and\n              dup3\n              add\n              swap2\n            tag_174:\n              pop\n              pop\n              pop\n              pop\n              pop\n              swap6\n              pop\n              dup5\n              dup1\n              sload\n              tag_177\n              swap1\n              tag_65\n              jump\t// in\n            tag_177:\n              dup1\n              0x1f\n              add\n              0x20\n              dup1\n              swap2\n              div\n              mul\n              0x20\n              add\n              mload(0x40)\n              swap1\n              dup2\n              add\n              0x40\n              mstore\n              dup1\n              swap3\n              swap2\n              swap1\n              dup2\n              dup2\n              mstore\n              0x20\n              add\n              dup3\n              dup1\n              sload\n              tag_178\n              swap1\n              tag_65\n              jump\t// in\n            tag_178:\n              dup1\n              iszero\n              tag_179\n              jumpi\n              dup1\n              0x1f\n              lt\n              tag_180\n              jumpi\n              0x0100\n              dup1\n              dup4\n              sload\n              div\n              mul\n              dup4\n              mstore\n              swap2\n              0x20\n              add\n              swap2\n              jump(tag_179)\n            tag_180:\n              dup3\n              add\n              swap2\n              swap1\n              0x00\n              mstore\n              keccak256(0x00, 0x20)\n              swap1\n            tag_181:\n              dup2\n              sload\n              dup2\n              mstore\n              swap1\n              0x01\n              add\n              swap1\n              0x20\n              add\n              dup1\n              dup4\n              gt\n              tag_181\n              jumpi\n              dup3\n              swap1\n              sub\n              0x1f\n              and\n              dup3\n              add\n              swap2\n            tag_179:\n              pop\n              pop\n              pop\n              pop\n              pop\n              swap5\n              pop\n              dup4\n              dup1\n              sload\n              tag_182\n              swap1\n              tag_65\n              jump\t// in\n            tag_182:\n              dup1\n              0x1f\n              add\n              0x20\n              dup1\n              swap2\n              div\n              mul\n              0x20\n              add\n              mload(0x40)\n              swap1\n              dup2\n              add\n              0x40\n              mstore\n              dup1\n              swap3\n              swap2\n              swap1\n              dup2\n              dup2\n              mstore\n              0x20\n              add\n              dup3\n              dup1\n              sload\n              tag_183\n              swap1\n              tag_65\n              jump\t// in\n            tag_183:\n              dup1\n              iszero\n              tag_184\n              jumpi\n              dup1\n              0x1f\n              lt\n              tag_185\n              jumpi\n              0x0100\n              dup1\n              dup4\n              sload\n              div\n              mul\n              dup4\n              mstore\n              swap2\n              0x20\n              add\n              swap2\n              jump(tag_184)\n            tag_185:\n              dup3\n              add\n              swap2\n              swap1\n              0x00\n              mstore\n              keccak256(0x00, 0x20)\n              swap1\n            tag_186:\n              dup2\n              sload\n              dup2\n              mstore\n              swap1\n              0x01\n              add\n              swap1\n              0x20\n              add\n              dup1\n              dup4\n              gt\n              tag_186\n              jumpi\n              dup3\n              swap1\n              sub\n              0x1f\n              and\n              dup3\n              add\n              swap2\n            tag_184:\n              pop\n              pop\n              pop\n              pop\n              pop\n              swap4\n              pop\n              dup3\n              dup1\n              sload\n              tag_187\n              swap1\n              tag_65\n              jump\t// in\n            tag_187:\n              dup1\n              0x1f\n              add\n              0x20\n              dup1\n              swap2\n              div\n              mul\n              0x20\n              add\n              mload(0x40)\n              swap1\n              dup2\n              add\n              0x40\n              mstore\n              dup1\n              swap3\n              swap2\n              swap1\n              dup2\n              dup2\n              mstore\n              0x20\n              add\n              dup3\n              dup1\n              sload\n              tag_188\n              swap1\n              tag_65\n              jump\t// in\n            tag_188:\n              dup1\n              iszero\n              tag_189\n              jumpi\n              dup1\n              0x1f\n              lt\n              tag_190\n              jumpi\n              0x0100\n              dup1\n              dup4\n              sload\n              div\n              mul\n              dup4\n              mstore\n              swap2\n              0x20\n              add\n              swap2\n              jump(tag_189)\n            tag_190:\n              dup3\n              add\n              swap2\n              swap1\n              0x00\n              mstore\n              keccak256(0x00, 0x20)\n              swap1\n            tag_191:\n              dup2\n              sload\n              dup2\n              mstore\n              swap1\n              0x01\n              add\n              swap1\n              0x20\n              add\n              dup1\n              dup4\n              gt\n              tag_191\n              jumpi\n              dup3\n              swap1\n              sub\n              0x1f\n              and\n              dup3\n              add\n              swap2\n            tag_189:\n              pop\n              pop\n              pop\n              pop\n              pop\n              swap3\n              pop\n              dup2\n              dup1\n              sload\n              tag_192\n              swap1\n              tag_65\n              jump\t// in\n            tag_192:\n              dup1\n              0x1f\n              add\n              0x20\n              dup1\n              swap2\n              div\n              mul\n              0x20\n              add\n              mload(0x40)\n              swap1\n              dup2\n              add\n              0x40\n              mstore\n              dup1\n              swap3\n              swap2\n              swap1\n              dup2\n              dup2\n              mstore\n              0x20\n              add\n              dup3\n              dup1\n              sload\n              tag_193\n              swap1\n              tag_65\n              jump\t// in\n            tag_193:\n              dup1\n              iszero\n              tag_194\n              jumpi\n              dup1\n              0x1f\n              lt\n              tag_195\n              jumpi\n              0x0100\n              dup1\n              dup4\n              sload\n              div\n              mul\n              dup4\n              mstore\n              swap2\n              0x20\n              add\n              swap2\n              jump(tag_194)\n            tag_195:\n              dup3\n              add\n              swap2\n              swap1\n              0x00\n              mstore\n              keccak256(0x00, 0x20)\n              swap1\n            tag_196:\n              dup2\n              sload\n              dup2\n              mstore\n              swap1\n              0x01\n              add\n              swap1\n              0x20\n              add\n              dup1\n              dup4\n              gt\n              tag_196\n              jumpi\n              dup3\n              swap1\n              sub\n              0x1f\n              and\n              dup3\n              add\n              swap2\n            tag_194:\n              pop\n              pop\n              pop\n              pop\n              pop\n              swap2\n              pop\n              dup1\n              dup1\n              sload\n              tag_197\n              swap1\n              tag_65\n              jump\t// in\n            tag_197:\n              dup1\n              0x1f\n              add\n              0x20\n              dup1\n              swap2\n              div\n              mul\n              0x20\n              add\n              mload(0x40)\n              swap1\n              dup2\n              add\n              0x40\n              mstore\n              dup1\n              swap3\n              swap2\n              swap1\n              dup2\n              dup2\n              mstore\n              0x20\n              add\n              dup3\n              dup1\n              sload\n              tag_198\n              swap1\n              tag_65\n              jump\t// in\n            tag_198:\n              dup1\n              iszero\n              tag_199\n              jumpi\n              dup1\n              0x1f\n              lt\n              tag_200\n              jumpi\n              0x0100\n              dup1\n              dup4\n              sload\n              div\n              mul\n              dup4\n              mstore\n              swap2\n              0x20\n              add\n              swap2\n              jump(tag_199)\n            tag_200:\n              dup3\n              add\n              swap2\n              swap1\n              0x00\n              mstore\n              keccak256(0x00, 0x20)\n              swap1\n            tag_201:\n              dup2\n              sload\n              dup2\n              mstore\n              swap1\n              0x01\n              add\n              swap1\n              0x20\n              add\n              dup1\n              dup4\n              gt\n              tag_201\n              jumpi\n              dup3\n              swap1\n              sub\n              0x1f\n              and\n              dup3\n              add\n              swap2\n            tag_199:\n              pop\n              pop\n              pop\n              pop\n              pop\n              swap1\n              pop\n              swap7\n              pop\n              swap7\n              pop\n              swap7\n              pop\n              swap7\n              pop\n              swap7\n              pop\n              swap7\n              pop\n              swap7\n              pop\n                /* \"KYC.sol\":2712:3095  function getparticularUser(address rer) public view... */\n              swap2\n              swap4\n              swap6\n              swap8\n              swap1\n              swap3\n              swap5\n              swap7\n              pop\n              jump\t// out\n                /* \"KYC.sol\":1421:1448  address public usersAddress */\n            tag_57:\n              0x00\n              dup1\n              sload\n              swap1\n              0x0100\n              exp\n              swap1\n              div\n              0xffffffffffffffffffffffffffffffffffffffff\n              and\n              dup2\n              jump\t// out\n            tag_80:\n              dup3\n              dup1\n              sload\n              tag_202\n              swap1\n              tag_65\n              jump\t// in\n            tag_202:\n              swap1\n              0x00\n              mstore\n              keccak256(0x00, 0x20)\n              swap1\n              0x1f\n              add\n              0x20\n              swap1\n              div\n              dup2\n              add\n              swap3\n              dup3\n              tag_204\n              jumpi\n              0x00\n              dup6\n              sstore\n              jump(tag_203)\n            tag_204:\n              dup3\n              0x1f\n              lt\n              tag_205\n              jumpi\n              dup1\n              mload\n              not(0xff)\n              and\n              dup4\n              dup1\n              add\n              or\n              dup6\n              sstore\n              jump(tag_203)\n            tag_205:\n              dup3\n              dup1\n              add\n              0x01\n              add\n              dup6\n              sstore\n              dup3\n              iszero\n              tag_203\n              jumpi\n              swap2\n              dup3\n              add\n            tag_206:\n              dup3\n              dup2\n              gt\n              iszero\n              tag_207\n              jumpi\n              dup3\n              mload\n              dup3\n              sstore\n              swap2\n              0x20\n              add\n              swap2\n              swap1\n              0x01\n              add\n              swap1\n              jump(tag_206)\n            tag_207:\n            tag_203:\n              pop\n              swap1\n              pop\n              tag_208\n              swap2\n              swap1\n              tag_209\n              jump\t// in\n            tag_208:\n              pop\n              swap1\n              jump\t// out\n            tag_209:\n            tag_210:\n              dup1\n              dup3\n              gt\n              iszero\n              tag_211\n              jumpi\n              0x00\n              dup2\n              0x00\n              swap1\n              sstore\n              pop\n              0x01\n              add\n              jump(tag_210)\n            tag_211:\n              pop\n              swap1\n              jump\t// out\n                /* \"#utility.yul\":7:82   */\n            tag_212:\n                /* \"#utility.yul\":40:46   */\n              0x00\n                /* \"#utility.yul\":73:75   */\n              0x40\n                /* \"#utility.yul\":67:76   */\n              mload\n                /* \"#utility.yul\":57:76   */\n              swap1\n              pop\n                /* \"#utility.yul\":7:82   */\n              swap1\n              jump\t// out\n                /* \"#utility.yul\":88:205   */\n            tag_213:\n                /* \"#utility.yul\":197:198   */\n              0x00\n                /* \"#utility.yul\":194:195   */\n              dup1\n                /* \"#utility.yul\":187:199   */\n              revert\n                /* \"#utility.yul\":211:328   */\n            tag_214:\n                /* \"#utility.yul\":320:321   */\n              0x00\n                /* \"#utility.yul\":317:318   */\n              dup1\n                /* \"#utility.yul\":310:322   */\n              revert\n                /* \"#utility.yul\":334:460   */\n            tag_215:\n                /* \"#utility.yul\":371:378   */\n              0x00\n                /* \"#utility.yul\":411:453   */\n              0xffffffffffffffffffffffffffffffffffffffff\n                /* \"#utility.yul\":404:409   */\n              dup3\n                /* \"#utility.yul\":400:454   */\n              and\n                /* \"#utility.yul\":389:454   */\n              swap1\n              pop\n                /* \"#utility.yul\":334:460   */\n              swap2\n              swap1\n              pop\n              jump\t// out\n                /* \"#utility.yul\":466:562   */\n            tag_216:\n                /* \"#utility.yul\":503:510   */\n              0x00\n                /* \"#utility.yul\":532:556   */\n              tag_241\n                /* \"#utility.yul\":550:555   */\n              dup3\n                /* \"#utility.yul\":532:556   */\n              tag_215\n              jump\t// in\n            tag_241:\n                /* \"#utility.yul\":521:556   */\n              swap1\n              pop\n                /* \"#utility.yul\":466:562   */\n              swap2\n              swap1\n              pop\n              jump\t// out\n                /* \"#utility.yul\":568:690   */\n            tag_217:\n                /* \"#utility.yul\":641:665   */\n              tag_243\n                /* \"#utility.yul\":659:664   */\n              dup2\n                /* \"#utility.yul\":641:665   */\n              tag_216\n              jump\t// in\n            tag_243:\n                /* \"#utility.yul\":634:639   */\n              dup2\n                /* \"#utility.yul\":631:666   */\n              eq\n                /* \"#utility.yul\":621:684   */\n              tag_244\n              jumpi\n                /* \"#utility.yul\":680:681   */\n              0x00\n                /* \"#utility.yul\":677:678   */\n              dup1\n                /* \"#utility.yul\":670:682   */\n              revert\n                /* \"#utility.yul\":621:684   */\n            tag_244:\n                /* \"#utility.yul\":568:690   */\n              pop\n              jump\t// out\n                /* \"#utility.yul\":696:835   */\n            tag_218:\n                /* \"#utility.yul\":742:747   */\n              0x00\n                /* \"#utility.yul\":780:786   */\n              dup2\n                /* \"#utility.yul\":767:787   */\n              calldataload\n                /* \"#utility.yul\":758:787   */\n              swap1\n              pop\n                /* \"#utility.yul\":796:829   */\n              tag_246\n                /* \"#utility.yul\":823:828   */\n              dup2\n                /* \"#utility.yul\":796:829   */\n              tag_217\n              jump\t// in\n            tag_246:\n                /* \"#utility.yul\":696:835   */\n              swap3\n              swap2\n              pop\n              pop\n              jump\t// out\n                /* \"#utility.yul\":841:1170   */\n            tag_17:\n                /* \"#utility.yul\":900:906   */\n              0x00\n                /* \"#utility.yul\":949:951   */\n              0x20\n                /* \"#utility.yul\":937:946   */\n              dup3\n                /* \"#utility.yul\":928:935   */\n              dup5\n                /* \"#utility.yul\":924:947   */\n              sub\n                /* \"#utility.yul\":920:952   */\n              slt\n                /* \"#utility.yul\":917:1036   */\n              iszero\n              tag_248\n              jumpi\n                /* \"#utility.yul\":955:1034   */\n              tag_249\n              tag_213\n              jump\t// in\n            tag_249:\n                /* \"#utility.yul\":917:1036   */\n            tag_248:\n                /* \"#utility.yul\":1075:1076   */\n              0x00\n                /* \"#utility.yul\":1100:1153   */\n              tag_250\n                /* \"#utility.yul\":1145:1152   */\n              dup5\n                /* \"#utility.yul\":1136:1142   */\n              dup3\n                /* \"#utility.yul\":1125:1134   */\n              dup6\n                /* \"#utility.yul\":1121:1143   */\n              add\n                /* \"#utility.yul\":1100:1153   */\n              tag_218\n              jump\t// in\n            tag_250:\n                /* \"#utility.yul\":1090:1153   */\n              swap2\n              pop\n                /* \"#utility.yul\":1046:1163   */\n              pop\n                /* \"#utility.yul\":841:1170   */\n              swap3\n              swap2\n              pop\n              pop\n              jump\t// out\n                /* \"#utility.yul\":1176:1275   */\n            tag_219:\n                /* \"#utility.yul\":1228:1234   */\n              0x00\n                /* \"#utility.yul\":1262:1267   */\n              dup2\n                /* \"#utility.yul\":1256:1268   */\n              mload\n                /* \"#utility.yul\":1246:1268   */\n              swap1\n              pop\n                /* \"#utility.yul\":1176:1275   */\n              swap2\n              swap1\n              pop\n              jump\t// out\n                /* \"#utility.yul\":1281:1450   */\n            tag_220:\n                /* \"#utility.yul\":1365:1376   */\n              0x00\n                /* \"#utility.yul\":1399:1405   */\n              dup3\n                /* \"#utility.yul\":1394:1397   */\n              dup3\n                /* \"#utility.yul\":1387:1406   */\n              mstore\n                /* \"#utility.yul\":1439:1443   */\n              0x20\n                /* \"#utility.yul\":1434:1437   */\n              dup3\n                /* \"#utility.yul\":1430:1444   */\n              add\n                /* \"#utility.yul\":1415:1444   */\n              swap1\n              pop\n                /* \"#utility.yul\":1281:1450   */\n              swap3\n              swap2\n              pop\n              pop\n              jump\t// out\n                /* \"#utility.yul\":1456:1763   */\n            tag_221:\n                /* \"#utility.yul\":1524:1525   */\n              0x00\n                /* \"#utility.yul\":1534:1647   */\n            tag_254:\n                /* \"#utility.yul\":1548:1554   */\n              dup4\n                /* \"#utility.yul\":1545:1546   */\n              dup2\n                /* \"#utility.yul\":1542:1555   */\n              lt\n                /* \"#utility.yul\":1534:1647   */\n              iszero\n              tag_256\n              jumpi\n                /* \"#utility.yul\":1633:1634   */\n              dup1\n                /* \"#utility.yul\":1628:1631   */\n              dup3\n                /* \"#utility.yul\":1624:1635   */\n              add\n                /* \"#utility.yul\":1618:1636   */\n              mload\n                /* \"#utility.yul\":1614:1615   */\n              dup2\n                /* \"#utility.yul\":1609:1612   */\n              dup5\n                /* \"#utility.yul\":1605:1616   */\n              add\n                /* \"#utility.yul\":1598:1637   */\n              mstore\n                /* \"#utility.yul\":1570:1572   */\n              0x20\n                /* \"#utility.yul\":1567:1568   */\n              dup2\n                /* \"#utility.yul\":1563:1573   */\n              add\n                /* \"#utility.yul\":1558:1573   */\n              swap1\n              pop\n                /* \"#utility.yul\":1534:1647   */\n              jump(tag_254)\n            tag_256:\n                /* \"#utility.yul\":1665:1671   */\n              dup4\n                /* \"#utility.yul\":1662:1663   */\n              dup2\n                /* \"#utility.yul\":1659:1672   */\n              gt\n                /* \"#utility.yul\":1656:1757   */\n              iszero\n              tag_257\n              jumpi\n                /* \"#utility.yul\":1745:1746   */\n              0x00\n                /* \"#utility.yul\":1736:1742   */\n              dup5\n                /* \"#utility.yul\":1731:1734   */\n              dup5\n                /* \"#utility.yul\":1727:1743   */\n              add\n                /* \"#utility.yul\":1720:1747   */\n              mstore\n                /* \"#utility.yul\":1656:1757   */\n            tag_257:\n                /* \"#utility.yul\":1505:1763   */\n              pop\n                /* \"#utility.yul\":1456:1763   */\n              pop\n              pop\n              pop\n              jump\t// out\n                /* \"#utility.yul\":1769:1871   */\n            tag_222:\n                /* \"#utility.yul\":1810:1816   */\n              0x00\n                /* \"#utility.yul\":1861:1863   */\n              0x1f\n                /* \"#utility.yul\":1857:1864   */\n              not\n                /* \"#utility.yul\":1852:1854   */\n              0x1f\n                /* \"#utility.yul\":1845:1850   */\n              dup4\n                /* \"#utility.yul\":1841:1855   */\n              add\n                /* \"#utility.yul\":1837:1865   */\n              and\n                /* \"#utility.yul\":1827:1865   */\n              swap1\n              pop\n                /* \"#utility.yul\":1769:1871   */\n              swap2\n              swap1\n              pop\n              jump\t// out\n                /* \"#utility.yul\":1877:2241   */\n            tag_223:\n                /* \"#utility.yul\":1965:1968   */\n              0x00\n                /* \"#utility.yul\":1993:2032   */\n              tag_260\n                /* \"#utility.yul\":2026:2031   */\n              dup3\n                /* \"#utility.yul\":1993:2032   */\n              tag_219\n              jump\t// in\n            tag_260:\n                /* \"#utility.yul\":2048:2119   */\n              tag_261\n                /* \"#utility.yul\":2112:2118   */\n              dup2\n                /* \"#utility.yul\":2107:2110   */\n              dup6\n                /* \"#utility.yul\":2048:2119   */\n              tag_220\n              jump\t// in\n            tag_261:\n                /* \"#utility.yul\":2041:2119   */\n              swap4\n              pop\n                /* \"#utility.yul\":2128:2180   */\n              tag_262\n                /* \"#utility.yul\":2173:2179   */\n              dup2\n                /* \"#utility.yul\":2168:2171   */\n              dup6\n                /* \"#utility.yul\":2161:2165   */\n              0x20\n                /* \"#utility.yul\":2154:2159   */\n              dup7\n                /* \"#utility.yul\":2150:2166   */\n              add\n                /* \"#utility.yul\":2128:2180   */\n              tag_221\n              jump\t// in\n            tag_262:\n                /* \"#utility.yul\":2205:2234   */\n              tag_263\n                /* \"#utility.yul\":2227:2233   */\n              dup2\n                /* \"#utility.yul\":2205:2234   */\n              tag_222\n              jump\t// in\n            tag_263:\n                /* \"#utility.yul\":2200:2203   */\n              dup5\n                /* \"#utility.yul\":2196:2235   */\n              add\n                /* \"#utility.yul\":2189:2235   */\n              swap2\n              pop\n                /* \"#utility.yul\":1969:2241   */\n              pop\n                /* \"#utility.yul\":1877:2241   */\n              swap3\n              swap2\n              pop\n              pop\n              jump\t// out\n                /* \"#utility.yul\":2247:2761   */\n            tag_23:\n                /* \"#utility.yul\":2408:2412   */\n              0x00\n                /* \"#utility.yul\":2446:2448   */\n              0x40\n                /* \"#utility.yul\":2435:2444   */\n              dup3\n                /* \"#utility.yul\":2431:2449   */\n              add\n                /* \"#utility.yul\":2423:2449   */\n              swap1\n              pop\n                /* \"#utility.yul\":2495:2504   */\n              dup2\n                /* \"#utility.yul\":2489:2493   */\n              dup2\n                /* \"#utility.yul\":2485:2505   */\n              sub\n                /* \"#utility.yul\":2481:2482   */\n              0x00\n                /* \"#utility.yul\":2470:2479   */\n              dup4\n                /* \"#utility.yul\":2466:2483   */\n              add\n                /* \"#utility.yul\":2459:2506   */\n              mstore\n                /* \"#utility.yul\":2523:2601   */\n              tag_265\n                /* \"#utility.yul\":2596:2600   */\n              dup2\n                /* \"#utility.yul\":2587:2593   */\n              dup6\n                /* \"#utility.yul\":2523:2601   */\n              tag_223\n              jump\t// in\n            tag_265:\n                /* \"#utility.yul\":2515:2601   */\n              swap1\n              pop\n                /* \"#utility.yul\":2648:2657   */\n              dup2\n                /* \"#utility.yul\":2642:2646   */\n              dup2\n                /* \"#utility.yul\":2638:2658   */\n              sub\n                /* \"#utility.yul\":2633:2635   */\n              0x20\n                /* \"#utility.yul\":2622:2631   */\n              dup4\n                /* \"#utility.yul\":2618:2636   */\n              add\n                /* \"#utility.yul\":2611:2659   */\n              mstore\n                /* \"#utility.yul\":2676:2754   */\n              tag_266\n                /* \"#utility.yul\":2749:2753   */\n              dup2\n                /* \"#utility.yul\":2740:2746   */\n              dup5\n                /* \"#utility.yul\":2676:2754   */\n              tag_223\n              jump\t// in\n            tag_266:\n                /* \"#utility.yul\":2668:2754   */\n              swap1\n              pop\n                /* \"#utility.yul\":2247:2761   */\n              swap4\n              swap3\n              pop\n              pop\n              pop\n              jump\t// out\n                /* \"#utility.yul\":2767:2884   */\n            tag_224:\n                /* \"#utility.yul\":2876:2877   */\n              0x00\n                /* \"#utility.yul\":2873:2874   */\n              dup1\n                /* \"#utility.yul\":2866:2878   */\n              revert\n                /* \"#utility.yul\":2890:3007   */\n            tag_225:\n                /* \"#utility.yul\":2999:3000   */\n              0x00\n                /* \"#utility.yul\":2996:2997   */\n              dup1\n                /* \"#utility.yul\":2989:3001   */\n              revert\n                /* \"#utility.yul\":3013:3193   */\n            tag_226:\n                /* \"#utility.yul\":3061:3138   */\n              0x4e487b7100000000000000000000000000000000000000000000000000000000\n                /* \"#utility.yul\":3058:3059   */\n              0x00\n                /* \"#utility.yul\":3051:3139   */\n              mstore\n                /* \"#utility.yul\":3158:3162   */\n              0x41\n                /* \"#utility.yul\":3155:3156   */\n              0x04\n                /* \"#utility.yul\":3148:3163   */\n              mstore\n                /* \"#utility.yul\":3182:3186   */\n              0x24\n                /* \"#utility.yul\":3179:3180   */\n              0x00\n                /* \"#utility.yul\":3172:3187   */\n              revert\n                /* \"#utility.yul\":3199:3480   */\n            tag_227:\n                /* \"#utility.yul\":3282:3309   */\n              tag_271\n                /* \"#utility.yul\":3304:3308   */\n              dup3\n                /* \"#utility.yul\":3282:3309   */\n              tag_222\n              jump\t// in\n            tag_271:\n                /* \"#utility.yul\":3274:3280   */\n              dup2\n                /* \"#utility.yul\":3270:3310   */\n              add\n                /* \"#utility.yul\":3412:3418   */\n              dup2\n                /* \"#utility.yul\":3400:3410   */\n              dup2\n                /* \"#utility.yul\":3397:3419   */\n              lt\n                /* \"#utility.yul\":3376:3394   */\n              0xffffffffffffffff\n                /* \"#utility.yul\":3364:3374   */\n              dup3\n                /* \"#utility.yul\":3361:3395   */\n              gt\n                /* \"#utility.yul\":3358:3420   */\n              or\n                /* \"#utility.yul\":3355:3443   */\n              iszero\n              tag_272\n              jumpi\n                /* \"#utility.yul\":3423:3441   */\n              tag_273\n              tag_226\n              jump\t// in\n            tag_273:\n                /* \"#utility.yul\":3355:3443   */\n            tag_272:\n                /* \"#utility.yul\":3463:3473   */\n              dup1\n                /* \"#utility.yul\":3459:3461   */\n              0x40\n                /* \"#utility.yul\":3452:3474   */\n              mstore\n                /* \"#utility.yul\":3242:3480   */\n              pop\n                /* \"#utility.yul\":3199:3480   */\n              pop\n              pop\n              jump\t// out\n                /* \"#utility.yul\":3486:3615   */\n            tag_228:\n                /* \"#utility.yul\":3520:3526   */\n              0x00\n                /* \"#utility.yul\":3547:3567   */\n              tag_275\n              tag_212\n              jump\t// in\n            tag_275:\n                /* \"#utility.yul\":3537:3567   */\n              swap1\n              pop\n                /* \"#utility.yul\":3576:3609   */\n              tag_276\n                /* \"#utility.yul\":3604:3608   */\n              dup3\n                /* \"#utility.yul\":3596:3602   */\n              dup3\n                /* \"#utility.yul\":3576:3609   */\n              tag_227\n              jump\t// in\n            tag_276:\n                /* \"#utility.yul\":3486:3615   */\n              swap2\n              swap1\n              pop\n              jump\t// out\n                /* \"#utility.yul\":3621:3929   */\n            tag_229:\n                /* \"#utility.yul\":3683:3687   */\n              0x00\n                /* \"#utility.yul\":3773:3791   */\n              0xffffffffffffffff\n                /* \"#utility.yul\":3765:3771   */\n              dup3\n                /* \"#utility.yul\":3762:3792   */\n              gt\n                /* \"#utility.yul\":3759:3815   */\n              iszero\n              tag_278\n              jumpi\n                /* \"#utility.yul\":3795:3813   */\n              tag_279\n              tag_226\n              jump\t// in\n            tag_279:\n                /* \"#utility.yul\":3759:3815   */\n            tag_278:\n                /* \"#utility.yul\":3833:3862   */\n              tag_280\n                /* \"#utility.yul\":3855:3861   */\n              dup3\n                /* \"#utility.yul\":3833:3862   */\n              tag_222\n              jump\t// in\n            tag_280:\n                /* \"#utility.yul\":3825:3862   */\n              swap1\n              pop\n                /* \"#utility.yul\":3917:3921   */\n              0x20\n                /* \"#utility.yul\":3911:3915   */\n              dup2\n                /* \"#utility.yul\":3907:3922   */\n              add\n                /* \"#utility.yul\":3899:3922   */\n              swap1\n              pop\n                /* \"#utility.yul\":3621:3929   */\n              swap2\n              swap1\n              pop\n              jump\t// out\n                /* \"#utility.yul\":3935:4089   */\n            tag_230:\n                /* \"#utility.yul\":4019:4025   */\n              dup3\n                /* \"#utility.yul\":4014:4017   */\n              dup2\n                /* \"#utility.yul\":4009:4012   */\n              dup4\n                /* \"#utility.yul\":3996:4026   */\n              calldatacopy\n                /* \"#utility.yul\":4081:4082   */\n              0x00\n                /* \"#utility.yul\":4072:4078   */\n              dup4\n                /* \"#utility.yul\":4067:4070   */\n              dup4\n                /* \"#utility.yul\":4063:4079   */\n              add\n                /* \"#utility.yul\":4056:4083   */\n              mstore\n                /* \"#utility.yul\":3935:4089   */\n              pop\n              pop\n              pop\n              jump\t// out\n                /* \"#utility.yul\":4095:4507   */\n            tag_231:\n                /* \"#utility.yul\":4173:4178   */\n              0x00\n                /* \"#utility.yul\":4198:4264   */\n              tag_283\n                /* \"#utility.yul\":4214:4263   */\n              tag_284\n                /* \"#utility.yul\":4256:4262   */\n              dup5\n                /* \"#utility.yul\":4214:4263   */\n              tag_229\n              jump\t// in\n            tag_284:\n                /* \"#utility.yul\":4198:4264   */\n              tag_228\n              jump\t// in\n            tag_283:\n                /* \"#utility.yul\":4189:4264   */\n              swap1\n              pop\n                /* \"#utility.yul\":4287:4293   */\n              dup3\n                /* \"#utility.yul\":4280:4285   */\n              dup2\n                /* \"#utility.yul\":4273:4294   */\n              mstore\n                /* \"#utility.yul\":4325:4329   */\n              0x20\n                /* \"#utility.yul\":4318:4323   */\n              dup2\n                /* \"#utility.yul\":4314:4330   */\n              add\n                /* \"#utility.yul\":4363:4366   */\n              dup5\n                /* \"#utility.yul\":4354:4360   */\n              dup5\n                /* \"#utility.yul\":4349:4352   */\n              dup5\n                /* \"#utility.yul\":4345:4361   */\n              add\n                /* \"#utility.yul\":4342:4367   */\n              gt\n                /* \"#utility.yul\":4339:4451   */\n              iszero\n              tag_285\n              jumpi\n                /* \"#utility.yul\":4370:4449   */\n              tag_286\n              tag_225\n              jump\t// in\n            tag_286:\n                /* \"#utility.yul\":4339:4451   */\n            tag_285:\n                /* \"#utility.yul\":4460:4501   */\n              tag_287\n                /* \"#utility.yul\":4494:4500   */\n              dup5\n                /* \"#utility.yul\":4489:4492   */\n              dup3\n                /* \"#utility.yul\":4484:4487   */\n              dup6\n                /* \"#utility.yul\":4460:4501   */\n              tag_230\n              jump\t// in\n            tag_287:\n                /* \"#utility.yul\":4179:4507   */\n              pop\n                /* \"#utility.yul\":4095:4507   */\n              swap4\n              swap3\n              pop\n              pop\n              pop\n              jump\t// out\n                /* \"#utility.yul\":4527:4867   */\n            tag_232:\n                /* \"#utility.yul\":4583:4588   */\n              0x00\n                /* \"#utility.yul\":4632:4635   */\n              dup3\n                /* \"#utility.yul\":4625:4629   */\n              0x1f\n                /* \"#utility.yul\":4617:4623   */\n              dup4\n                /* \"#utility.yul\":4613:4630   */\n              add\n                /* \"#utility.yul\":4609:4636   */\n              slt\n                /* \"#utility.yul\":4599:4721   */\n              tag_289\n              jumpi\n                /* \"#utility.yul\":4640:4719   */\n              tag_290\n              tag_224\n              jump\t// in\n            tag_290:\n                /* \"#utility.yul\":4599:4721   */\n            tag_289:\n                /* \"#utility.yul\":4757:4763   */\n              dup2\n                /* \"#utility.yul\":4744:4764   */\n              calldataload\n                /* \"#utility.yul\":4782:4861   */\n              tag_291\n                /* \"#utility.yul\":4857:4860   */\n              dup5\n                /* \"#utility.yul\":4849:4855   */\n              dup3\n                /* \"#utility.yul\":4842:4846   */\n              0x20\n                /* \"#utility.yul\":4834:4840   */\n              dup7\n                /* \"#utility.yul\":4830:4847   */\n              add\n                /* \"#utility.yul\":4782:4861   */\n              tag_231\n              jump\t// in\n            tag_291:\n                /* \"#utility.yul\":4773:4861   */\n              swap2\n              pop\n                /* \"#utility.yul\":4589:4867   */\n              pop\n                /* \"#utility.yul\":4527:4867   */\n              swap3\n              swap2\n              pop\n              pop\n              jump\t// out\n                /* \"#utility.yul\":4873:8642   */\n            tag_26:\n                /* \"#utility.yul\":5132:5138   */\n              0x00\n                /* \"#utility.yul\":5140:5146   */\n              dup1\n                /* \"#utility.yul\":5148:5154   */\n              0x00\n                /* \"#utility.yul\":5156:5162   */\n              dup1\n                /* \"#utility.yul\":5164:5170   */\n              0x00\n                /* \"#utility.yul\":5172:5178   */\n              dup1\n                /* \"#utility.yul\":5180:5186   */\n              0x00\n                /* \"#utility.yul\":5188:5194   */\n              dup1\n                /* \"#utility.yul\":5196:5202   */\n              0x00\n                /* \"#utility.yul\":5204:5210   */\n              dup1\n                /* \"#utility.yul\":5212:5219   */\n              0x00\n                /* \"#utility.yul\":5262:5265   */\n              0x0160\n                /* \"#utility.yul\":5250:5259   */\n              dup13\n                /* \"#utility.yul\":5241:5248   */\n              dup15\n                /* \"#utility.yul\":5237:5260   */\n              sub\n                /* \"#utility.yul\":5233:5266   */\n              slt\n                /* \"#utility.yul\":5230:5350   */\n              iszero\n              tag_293\n              jumpi\n                /* \"#utility.yul\":5269:5348   */\n              tag_294\n              tag_213\n              jump\t// in\n            tag_294:\n                /* \"#utility.yul\":5230:5350   */\n            tag_293:\n                /* \"#utility.yul\":5417:5418   */\n              0x00\n                /* \"#utility.yul\":5406:5415   */\n              dup13\n                /* \"#utility.yul\":5402:5419   */\n              add\n                /* \"#utility.yul\":5389:5420   */\n              calldataload\n                /* \"#utility.yul\":5447:5465   */\n              0xffffffffffffffff\n                /* \"#utility.yul\":5439:5445   */\n              dup2\n                /* \"#utility.yul\":5436:5466   */\n              gt\n                /* \"#utility.yul\":5433:5550   */\n              iszero\n              tag_295\n              jumpi\n                /* \"#utility.yul\":5469:5548   */\n              tag_296\n              tag_214\n              jump\t// in\n            tag_296:\n                /* \"#utility.yul\":5433:5550   */\n            tag_295:\n                /* \"#utility.yul\":5574:5637   */\n              tag_297\n                /* \"#utility.yul\":5629:5636   */\n              dup15\n                /* \"#utility.yul\":5620:5626   */\n              dup3\n                /* \"#utility.yul\":5609:5618   */\n              dup16\n                /* \"#utility.yul\":5605:5627   */\n              add\n                /* \"#utility.yul\":5574:5637   */\n              tag_232\n              jump\t// in\n            tag_297:\n                /* \"#utility.yul\":5564:5637   */\n              swap12\n              pop\n                /* \"#utility.yul\":5360:5647   */\n              pop\n                /* \"#utility.yul\":5714:5716   */\n              0x20\n                /* \"#utility.yul\":5703:5712   */\n              dup13\n                /* \"#utility.yul\":5699:5717   */\n              add\n                /* \"#utility.yul\":5686:5718   */\n              calldataload\n                /* \"#utility.yul\":5745:5763   */\n              0xffffffffffffffff\n                /* \"#utility.yul\":5737:5743   */\n              dup2\n                /* \"#utility.yul\":5734:5764   */\n              gt\n                /* \"#utility.yul\":5731:5848   */\n              iszero\n              tag_298\n              jumpi\n                /* \"#utility.yul\":5767:5846   */\n              tag_299\n              tag_214\n              jump\t// in\n            tag_299:\n                /* \"#utility.yul\":5731:5848   */\n            tag_298:\n                /* \"#utility.yul\":5872:5935   */\n              tag_300\n                /* \"#utility.yul\":5927:5934   */\n              dup15\n                /* \"#utility.yul\":5918:5924   */\n              dup3\n                /* \"#utility.yul\":5907:5916   */\n              dup16\n                /* \"#utility.yul\":5903:5925   */\n              add\n                /* \"#utility.yul\":5872:5935   */\n              tag_232\n              jump\t// in\n            tag_300:\n                /* \"#utility.yul\":5862:5935   */\n              swap11\n              pop\n                /* \"#utility.yul\":5657:5945   */\n              pop\n                /* \"#utility.yul\":6012:6014   */\n              0x40\n                /* \"#utility.yul\":6001:6010   */\n              dup13\n                /* \"#utility.yul\":5997:6015   */\n              add\n                /* \"#utility.yul\":5984:6016   */\n              calldataload\n                /* \"#utility.yul\":6043:6061   */\n              0xffffffffffffffff\n                /* \"#utility.yul\":6035:6041   */\n              dup2\n                /* \"#utility.yul\":6032:6062   */\n              gt\n                /* \"#utility.yul\":6029:6146   */\n              iszero\n              tag_301\n              jumpi\n                /* \"#utility.yul\":6065:6144   */\n              tag_302\n              tag_214\n              jump\t// in\n            tag_302:\n                /* \"#utility.yul\":6029:6146   */\n            tag_301:\n                /* \"#utility.yul\":6170:6233   */\n              tag_303\n                /* \"#utility.yul\":6225:6232   */\n              dup15\n                /* \"#utility.yul\":6216:6222   */\n              dup3\n                /* \"#utility.yul\":6205:6214   */\n              dup16\n                /* \"#utility.yul\":6201:6223   */\n              add\n                /* \"#utility.yul\":6170:6233   */\n              tag_232\n              jump\t// in\n            tag_303:\n                /* \"#utility.yul\":6160:6233   */\n              swap10\n              pop\n                /* \"#utility.yul\":5955:6243   */\n              pop\n                /* \"#utility.yul\":6310:6312   */\n              0x60\n                /* \"#utility.yul\":6299:6308   */\n              dup13\n                /* \"#utility.yul\":6295:6313   */\n              add\n                /* \"#utility.yul\":6282:6314   */\n              calldataload\n                /* \"#utility.yul\":6341:6359   */\n              0xffffffffffffffff\n                /* \"#utility.yul\":6333:6339   */\n              dup2\n                /* \"#utility.yul\":6330:6360   */\n              gt\n                /* \"#utility.yul\":6327:6444   */\n              iszero\n              tag_304\n              jumpi\n                /* \"#utility.yul\":6363:6442   */\n              tag_305\n              tag_214\n              jump\t// in\n            tag_305:\n                /* \"#utility.yul\":6327:6444   */\n            tag_304:\n                /* \"#utility.yul\":6468:6531   */\n              tag_306\n                /* \"#utility.yul\":6523:6530   */\n              dup15\n                /* \"#utility.yul\":6514:6520   */\n              dup3\n                /* \"#utility.yul\":6503:6512   */\n              dup16\n                /* \"#utility.yul\":6499:6521   */\n              add\n                /* \"#utility.yul\":6468:6531   */\n              tag_232\n              jump\t// in\n            tag_306:\n                /* \"#utility.yul\":6458:6531   */\n              swap9\n              pop\n                /* \"#utility.yul\":6253:6541   */\n              pop\n                /* \"#utility.yul\":6608:6611   */\n              0x80\n                /* \"#utility.yul\":6597:6606   */\n              dup13\n                /* \"#utility.yul\":6593:6612   */\n              add\n                /* \"#utility.yul\":6580:6613   */\n              calldataload\n                /* \"#utility.yul\":6640:6658   */\n              0xffffffffffffffff\n                /* \"#utility.yul\":6632:6638   */\n              dup2\n                /* \"#utility.yul\":6629:6659   */\n              gt\n                /* \"#utility.yul\":6626:6743   */\n              iszero\n              tag_307\n              jumpi\n                /* \"#utility.yul\":6662:6741   */\n              tag_308\n              tag_214\n              jump\t// in\n            tag_308:\n                /* \"#utility.yul\":6626:6743   */\n            tag_307:\n                /* \"#utility.yul\":6767:6830   */\n              tag_309\n                /* \"#utility.yul\":6822:6829   */\n              dup15\n                /* \"#utility.yul\":6813:6819   */\n              dup3\n                /* \"#utility.yul\":6802:6811   */\n              dup16\n                /* \"#utility.yul\":6798:6820   */\n              add\n                /* \"#utility.yul\":6767:6830   */\n              tag_232\n              jump\t// in\n            tag_309:\n                /* \"#utility.yul\":6757:6830   */\n              swap8\n              pop\n                /* \"#utility.yul\":6551:6840   */\n              pop\n                /* \"#utility.yul\":6907:6910   */\n              0xa0\n                /* \"#utility.yul\":6896:6905   */\n              dup13\n                /* \"#utility.yul\":6892:6911   */\n              add\n                /* \"#utility.yul\":6879:6912   */\n              calldataload\n                /* \"#utility.yul\":6939:6957   */\n              0xffffffffffffffff\n                /* \"#utility.yul\":6931:6937   */\n              dup2\n                /* \"#utility.yul\":6928:6958   */\n              gt\n                /* \"#utility.yul\":6925:7042   */\n              iszero\n              tag_310\n              jumpi\n                /* \"#utility.yul\":6961:7040   */\n              tag_311\n              tag_214\n              jump\t// in\n            tag_311:\n                /* \"#utility.yul\":6925:7042   */\n            tag_310:\n                /* \"#utility.yul\":7066:7129   */\n              tag_312\n                /* \"#utility.yul\":7121:7128   */\n              dup15\n                /* \"#utility.yul\":7112:7118   */\n              dup3\n                /* \"#utility.yul\":7101:7110   */\n              dup16\n                /* \"#utility.yul\":7097:7119   */\n              add\n                /* \"#utility.yul\":7066:7129   */\n              tag_232\n              jump\t// in\n            tag_312:\n                /* \"#utility.yul\":7056:7129   */\n              swap7\n              pop\n                /* \"#utility.yul\":6850:7139   */\n              pop\n                /* \"#utility.yul\":7206:7209   */\n              0xc0\n                /* \"#utility.yul\":7195:7204   */\n              dup13\n                /* \"#utility.yul\":7191:7210   */\n              add\n                /* \"#utility.yul\":7178:7211   */\n              calldataload\n                /* \"#utility.yul\":7238:7256   */\n              0xffffffffffffffff\n                /* \"#utility.yul\":7230:7236   */\n              dup2\n                /* \"#utility.yul\":7227:7257   */\n              gt\n                /* \"#utility.yul\":7224:7341   */\n              iszero\n              tag_313\n              jumpi\n                /* \"#utility.yul\":7260:7339   */\n              tag_314\n              tag_214\n              jump\t// in\n            tag_314:\n                /* \"#utility.yul\":7224:7341   */\n            tag_313:\n                /* \"#utility.yul\":7365:7428   */\n              tag_315\n                /* \"#utility.yul\":7420:7427   */\n              dup15\n                /* \"#utility.yul\":7411:7417   */\n              dup3\n                /* \"#utility.yul\":7400:7409   */\n              dup16\n                /* \"#utility.yul\":7396:7418   */\n              add\n                /* \"#utility.yul\":7365:7428   */\n              tag_232\n              jump\t// in\n            tag_315:\n                /* \"#utility.yul\":7355:7428   */\n              swap6\n              pop\n                /* \"#utility.yul\":7149:7438   */\n              pop\n                /* \"#utility.yul\":7505:7508   */\n              0xe0\n                /* \"#utility.yul\":7494:7503   */\n              dup13\n                /* \"#utility.yul\":7490:7509   */\n              add\n                /* \"#utility.yul\":7477:7510   */\n              calldataload\n                /* \"#utility.yul\":7537:7555   */\n              0xffffffffffffffff\n                /* \"#utility.yul\":7529:7535   */\n              dup2\n                /* \"#utility.yul\":7526:7556   */\n              gt\n                /* \"#utility.yul\":7523:7640   */\n              iszero\n              tag_316\n              jumpi\n                /* \"#utility.yul\":7559:7638   */\n              tag_317\n              tag_214\n              jump\t// in\n            tag_317:\n                /* \"#utility.yul\":7523:7640   */\n            tag_316:\n                /* \"#utility.yul\":7664:7727   */\n              tag_318\n                /* \"#utility.yul\":7719:7726   */\n              dup15\n                /* \"#utility.yul\":7710:7716   */\n              dup3\n                /* \"#utility.yul\":7699:7708   */\n              dup16\n                /* \"#utility.yul\":7695:7717   */\n              add\n                /* \"#utility.yul\":7664:7727   */\n              tag_232\n              jump\t// in\n            tag_318:\n                /* \"#utility.yul\":7654:7727   */\n              swap5\n              pop\n                /* \"#utility.yul\":7448:7737   */\n              pop\n                /* \"#utility.yul\":7804:7807   */\n              0x0100\n                /* \"#utility.yul\":7793:7802   */\n              dup13\n                /* \"#utility.yul\":7789:7808   */\n              add\n                /* \"#utility.yul\":7776:7809   */\n              calldataload\n                /* \"#utility.yul\":7836:7854   */\n              0xffffffffffffffff\n                /* \"#utility.yul\":7828:7834   */\n              dup2\n                /* \"#utility.yul\":7825:7855   */\n              gt\n                /* \"#utility.yul\":7822:7939   */\n              iszero\n              tag_319\n              jumpi\n                /* \"#utility.yul\":7858:7937   */\n              tag_320\n              tag_214\n              jump\t// in\n            tag_320:\n                /* \"#utility.yul\":7822:7939   */\n            tag_319:\n                /* \"#utility.yul\":7963:8026   */\n              tag_321\n                /* \"#utility.yul\":8018:8025   */\n              dup15\n                /* \"#utility.yul\":8009:8015   */\n              dup3\n                /* \"#utility.yul\":7998:8007   */\n              dup16\n                /* \"#utility.yul\":7994:8016   */\n              add\n                /* \"#utility.yul\":7963:8026   */\n              tag_232\n              jump\t// in\n            tag_321:\n                /* \"#utility.yul\":7953:8026   */\n              swap4\n              pop\n                /* \"#utility.yul\":7747:8036   */\n              pop\n                /* \"#utility.yul\":8103:8106   */\n              0x0120\n                /* \"#utility.yul\":8092:8101   */\n              dup13\n                /* \"#utility.yul\":8088:8107   */\n              add\n                /* \"#utility.yul\":8075:8108   */\n              calldataload\n                /* \"#utility.yul\":8135:8153   */\n              0xffffffffffffffff\n                /* \"#utility.yul\":8127:8133   */\n              dup2\n                /* \"#utility.yul\":8124:8154   */\n              gt\n                /* \"#utility.yul\":8121:8238   */\n              iszero\n              tag_322\n              jumpi\n                /* \"#utility.yul\":8157:8236   */\n              tag_323\n              tag_214\n              jump\t// in\n            tag_323:\n                /* \"#utility.yul\":8121:8238   */\n            tag_322:\n                /* \"#utility.yul\":8262:8325   */\n              tag_324\n                /* \"#utility.yul\":8317:8324   */\n              dup15\n                /* \"#utility.yul\":8308:8314   */\n              dup3\n                /* \"#utility.yul\":8297:8306   */\n              dup16\n                /* \"#utility.yul\":8293:8315   */\n              add\n                /* \"#utility.yul\":8262:8325   */\n              tag_232\n              jump\t// in\n            tag_324:\n                /* \"#utility.yul\":8252:8325   */\n              swap3\n              pop\n                /* \"#utility.yul\":8046:8335   */\n              pop\n                /* \"#utility.yul\":8402:8405   */\n              0x0140\n                /* \"#utility.yul\":8391:8400   */\n              dup13\n                /* \"#utility.yul\":8387:8406   */\n              add\n                /* \"#utility.yul\":8374:8407   */\n              calldataload\n                /* \"#utility.yul\":8434:8452   */\n              0xffffffffffffffff\n                /* \"#utility.yul\":8426:8432   */\n              dup2\n                /* \"#utility.yul\":8423:8453   */\n              gt\n                /* \"#utility.yul\":8420:8537   */\n              iszero\n              tag_325\n              jumpi\n                /* \"#utility.yul\":8456:8535   */\n              tag_326\n              tag_214\n              jump\t// in\n            tag_326:\n                /* \"#utility.yul\":8420:8537   */\n            tag_325:\n                /* \"#utility.yul\":8562:8625   */\n              tag_327\n                /* \"#utility.yul\":8617:8624   */\n              dup15\n                /* \"#utility.yul\":8608:8614   */\n              dup3\n                /* \"#utility.yul\":8597:8606   */\n              dup16\n                /* \"#utility.yul\":8593:8615   */\n              add\n                /* \"#utility.yul\":8562:8625   */\n              tag_232\n              jump\t// in\n            tag_327:\n                /* \"#utility.yul\":8551:8625   */\n              swap2\n              pop\n                /* \"#utility.yul\":8345:8635   */\n              pop\n                /* \"#utility.yul\":4873:8642   */\n              swap3\n              swap6\n              swap9\n              swap12\n              pop\n              swap3\n              swap6\n              swap9\n              swap12\n              swap1\n              swap4\n              swap7\n              swap10\n              pop\n              jump\t// out\n                /* \"#utility.yul\":8648:8766   */\n            tag_233:\n                /* \"#utility.yul\":8735:8759   */\n              tag_329\n                /* \"#utility.yul\":8753:8758   */\n              dup2\n                /* \"#utility.yul\":8735:8759   */\n              tag_216\n              jump\t// in\n            tag_329:\n                /* \"#utility.yul\":8730:8733   */\n              dup3\n                /* \"#utility.yul\":8723:8760   */\n              mstore\n                /* \"#utility.yul\":8648:8766   */\n              pop\n              pop\n              jump\t// out\n                /* \"#utility.yul\":8772:8994   */\n            tag_31:\n                /* \"#utility.yul\":8865:8869   */\n              0x00\n                /* \"#utility.yul\":8903:8905   */\n              0x20\n                /* \"#utility.yul\":8892:8901   */\n              dup3\n                /* \"#utility.yul\":8888:8906   */\n              add\n                /* \"#utility.yul\":8880:8906   */\n              swap1\n              pop\n                /* \"#utility.yul\":8916:8987   */\n              tag_331\n                /* \"#utility.yul\":8984:8985   */\n              0x00\n                /* \"#utility.yul\":8973:8982   */\n              dup4\n                /* \"#utility.yul\":8969:8986   */\n              add\n                /* \"#utility.yul\":8960:8966   */\n              dup5\n                /* \"#utility.yul\":8916:8987   */\n              tag_233\n              jump\t// in\n            tag_331:\n                /* \"#utility.yul\":8772:8994   */\n              swap3\n              swap2\n              pop\n              pop\n              jump\t// out\n                /* \"#utility.yul\":9000:10927   */\n            tag_47:\n                /* \"#utility.yul\":9497:9501   */\n              0x00\n                /* \"#utility.yul\":9535:9538   */\n              0x0120\n                /* \"#utility.yul\":9524:9533   */\n              dup3\n                /* \"#utility.yul\":9520:9539   */\n              add\n                /* \"#utility.yul\":9512:9539   */\n              swap1\n              pop\n                /* \"#utility.yul\":9585:9594   */\n              dup2\n                /* \"#utility.yul\":9579:9583   */\n              dup2\n                /* \"#utility.yul\":9575:9595   */\n              sub\n                /* \"#utility.yul\":9571:9572   */\n              0x00\n                /* \"#utility.yul\":9560:9569   */\n              dup4\n                /* \"#utility.yul\":9556:9573   */\n              add\n                /* \"#utility.yul\":9549:9596   */\n              mstore\n                /* \"#utility.yul\":9613:9691   */\n              tag_333\n                /* \"#utility.yul\":9686:9690   */\n              dup2\n                /* \"#utility.yul\":9677:9683   */\n              dup13\n                /* \"#utility.yul\":9613:9691   */\n              tag_223\n              jump\t// in\n            tag_333:\n                /* \"#utility.yul\":9605:9691   */\n              swap1\n              pop\n                /* \"#utility.yul\":9738:9747   */\n              dup2\n                /* \"#utility.yul\":9732:9736   */\n              dup2\n                /* \"#utility.yul\":9728:9748   */\n              sub\n                /* \"#utility.yul\":9723:9725   */\n              0x20\n                /* \"#utility.yul\":9712:9721   */\n              dup4\n                /* \"#utility.yul\":9708:9726   */\n              add\n                /* \"#utility.yul\":9701:9749   */\n              mstore\n                /* \"#utility.yul\":9766:9844   */\n              tag_334\n                /* \"#utility.yul\":9839:9843   */\n              dup2\n                /* \"#utility.yul\":9830:9836   */\n              dup12\n                /* \"#utility.yul\":9766:9844   */\n              tag_223\n              jump\t// in\n            tag_334:\n                /* \"#utility.yul\":9758:9844   */\n              swap1\n              pop\n                /* \"#utility.yul\":9891:9900   */\n              dup2\n                /* \"#utility.yul\":9885:9889   */\n              dup2\n                /* \"#utility.yul\":9881:9901   */\n              sub\n                /* \"#utility.yul\":9876:9878   */\n              0x40\n                /* \"#utility.yul\":9865:9874   */\n              dup4\n                /* \"#utility.yul\":9861:9879   */\n              add\n                /* \"#utility.yul\":9854:9902   */\n              mstore\n                /* \"#utility.yul\":9919:9997   */\n              tag_335\n                /* \"#utility.yul\":9992:9996   */\n              dup2\n                /* \"#utility.yul\":9983:9989   */\n              dup11\n                /* \"#utility.yul\":9919:9997   */\n              tag_223\n              jump\t// in\n            tag_335:\n                /* \"#utility.yul\":9911:9997   */\n              swap1\n              pop\n                /* \"#utility.yul\":10044:10053   */\n              dup2\n                /* \"#utility.yul\":10038:10042   */\n              dup2\n                /* \"#utility.yul\":10034:10054   */\n              sub\n                /* \"#utility.yul\":10029:10031   */\n              0x60\n                /* \"#utility.yul\":10018:10027   */\n              dup4\n                /* \"#utility.yul\":10014:10032   */\n              add\n                /* \"#utility.yul\":10007:10055   */\n              mstore\n                /* \"#utility.yul\":10072:10150   */\n              tag_336\n                /* \"#utility.yul\":10145:10149   */\n              dup2\n                /* \"#utility.yul\":10136:10142   */\n              dup10\n                /* \"#utility.yul\":10072:10150   */\n              tag_223\n              jump\t// in\n            tag_336:\n                /* \"#utility.yul\":10064:10150   */\n              swap1\n              pop\n                /* \"#utility.yul\":10198:10207   */\n              dup2\n                /* \"#utility.yul\":10192:10196   */\n              dup2\n                /* \"#utility.yul\":10188:10208   */\n              sub\n                /* \"#utility.yul\":10182:10185   */\n              0x80\n                /* \"#utility.yul\":10171:10180   */\n              dup4\n                /* \"#utility.yul\":10167:10186   */\n              add\n                /* \"#utility.yul\":10160:10209   */\n              mstore\n                /* \"#utility.yul\":10226:10304   */\n              tag_337\n                /* \"#utility.yul\":10299:10303   */\n              dup2\n                /* \"#utility.yul\":10290:10296   */\n              dup9\n                /* \"#utility.yul\":10226:10304   */\n              tag_223\n              jump\t// in\n            tag_337:\n                /* \"#utility.yul\":10218:10304   */\n              swap1\n              pop\n                /* \"#utility.yul\":10352:10361   */\n              dup2\n                /* \"#utility.yul\":10346:10350   */\n              dup2\n                /* \"#utility.yul\":10342:10362   */\n              sub\n                /* \"#utility.yul\":10336:10339   */\n              0xa0\n                /* \"#utility.yul\":10325:10334   */\n              dup4\n                /* \"#utility.yul\":10321:10340   */\n              add\n                /* \"#utility.yul\":10314:10363   */\n              mstore\n                /* \"#utility.yul\":10380:10458   */\n              tag_338\n                /* \"#utility.yul\":10453:10457   */\n              dup2\n                /* \"#utility.yul\":10444:10450   */\n              dup8\n                /* \"#utility.yul\":10380:10458   */\n              tag_223\n              jump\t// in\n            tag_338:\n                /* \"#utility.yul\":10372:10458   */\n              swap1\n              pop\n                /* \"#utility.yul\":10506:10515   */\n              dup2\n                /* \"#utility.yul\":10500:10504   */\n              dup2\n                /* \"#utility.yul\":10496:10516   */\n              sub\n                /* \"#utility.yul\":10490:10493   */\n              0xc0\n                /* \"#utility.yul\":10479:10488   */\n              dup4\n                /* \"#utility.yul\":10475:10494   */\n              add\n                /* \"#utility.yul\":10468:10517   */\n              mstore\n                /* \"#utility.yul\":10534:10612   */\n              tag_339\n                /* \"#utility.yul\":10607:10611   */\n              dup2\n                /* \"#utility.yul\":10598:10604   */\n              dup7\n                /* \"#utility.yul\":10534:10612   */\n              tag_223\n              jump\t// in\n            tag_339:\n                /* \"#utility.yul\":10526:10612   */\n              swap1\n              pop\n                /* \"#utility.yul\":10660:10669   */\n              dup2\n                /* \"#utility.yul\":10654:10658   */\n              dup2\n                /* \"#utility.yul\":10650:10670   */\n              sub\n                /* \"#utility.yul\":10644:10647   */\n              0xe0\n                /* \"#utility.yul\":10633:10642   */\n              dup4\n                /* \"#utility.yul\":10629:10648   */\n              add\n                /* \"#utility.yul\":10622:10671   */\n              mstore\n                /* \"#utility.yul\":10688:10766   */\n              tag_340\n                /* \"#utility.yul\":10761:10765   */\n              dup2\n                /* \"#utility.yul\":10752:10758   */\n              dup6\n                /* \"#utility.yul\":10688:10766   */\n              tag_223\n              jump\t// in\n            tag_340:\n                /* \"#utility.yul\":10680:10766   */\n              swap1\n              pop\n                /* \"#utility.yul\":10814:10823   */\n              dup2\n                /* \"#utility.yul\":10808:10812   */\n              dup2\n                /* \"#utility.yul\":10804:10824   */\n              sub\n                /* \"#utility.yul\":10798:10801   */\n              0x0100\n                /* \"#utility.yul\":10787:10796   */\n              dup4\n                /* \"#utility.yul\":10783:10802   */\n              add\n                /* \"#utility.yul\":10776:10825   */\n              mstore\n                /* \"#utility.yul\":10842:10920   */\n              tag_341\n                /* \"#utility.yul\":10915:10919   */\n              dup2\n                /* \"#utility.yul\":10906:10912   */\n              dup5\n                /* \"#utility.yul\":10842:10920   */\n              tag_223\n              jump\t// in\n            tag_341:\n                /* \"#utility.yul\":10834:10920   */\n              swap1\n              pop\n                /* \"#utility.yul\":9000:10927   */\n              swap11\n              swap10\n              pop\n              pop\n              pop\n              pop\n              pop\n              pop\n              pop\n              pop\n              pop\n              pop\n              jump\t// out\n                /* \"#utility.yul\":10933:12456   */\n            tag_55:\n                /* \"#utility.yul\":11334:11338   */\n              0x00\n                /* \"#utility.yul\":11372:11375   */\n              0xe0\n                /* \"#utility.yul\":11361:11370   */\n              dup3\n                /* \"#utility.yul\":11357:11376   */\n              add\n                /* \"#utility.yul\":11349:11376   */\n              swap1\n              pop\n                /* \"#utility.yul\":11422:11431   */\n              dup2\n                /* \"#utility.yul\":11416:11420   */\n              dup2\n                /* \"#utility.yul\":11412:11432   */\n              sub\n                /* \"#utility.yul\":11408:11409   */\n              0x00\n                /* \"#utility.yul\":11397:11406   */\n              dup4\n                /* \"#utility.yul\":11393:11410   */\n              add\n                /* \"#utility.yul\":11386:11433   */\n              mstore\n                /* \"#utility.yul\":11450:11528   */\n              tag_343\n                /* \"#utility.yul\":11523:11527   */\n              dup2\n                /* \"#utility.yul\":11514:11520   */\n              dup11\n                /* \"#utility.yul\":11450:11528   */\n              tag_223\n              jump\t// in\n            tag_343:\n                /* \"#utility.yul\":11442:11528   */\n              swap1\n              pop\n                /* \"#utility.yul\":11575:11584   */\n              dup2\n                /* \"#utility.yul\":11569:11573   */\n              dup2\n                /* \"#utility.yul\":11565:11585   */\n              sub\n                /* \"#utility.yul\":11560:11562   */\n              0x20\n                /* \"#utility.yul\":11549:11558   */\n              dup4\n                /* \"#utility.yul\":11545:11563   */\n              add\n                /* \"#utility.yul\":11538:11586   */\n              mstore\n                /* \"#utility.yul\":11603:11681   */\n              tag_344\n                /* \"#utility.yul\":11676:11680   */\n              dup2\n                /* \"#utility.yul\":11667:11673   */\n              dup10\n                /* \"#utility.yul\":11603:11681   */\n              tag_223\n              jump\t// in\n            tag_344:\n                /* \"#utility.yul\":11595:11681   */\n              swap1\n              pop\n                /* \"#utility.yul\":11728:11737   */\n              dup2\n                /* \"#utility.yul\":11722:11726   */\n              dup2\n                /* \"#utility.yul\":11718:11738   */\n              sub\n                /* \"#utility.yul\":11713:11715   */\n              0x40\n                /* \"#utility.yul\":11702:11711   */\n              dup4\n                /* \"#utility.yul\":11698:11716   */\n              add\n                /* \"#utility.yul\":11691:11739   */\n              mstore\n                /* \"#utility.yul\":11756:11834   */\n              tag_345\n                /* \"#utility.yul\":11829:11833   */\n              dup2\n                /* \"#utility.yul\":11820:11826   */\n              dup9\n                /* \"#utility.yul\":11756:11834   */\n              tag_223\n              jump\t// in\n            tag_345:\n                /* \"#utility.yul\":11748:11834   */\n              swap1\n              pop\n                /* \"#utility.yul\":11881:11890   */\n              dup2\n                /* \"#utility.yul\":11875:11879   */\n              dup2\n                /* \"#utility.yul\":11871:11891   */\n              sub\n                /* \"#utility.yul\":11866:11868   */\n              0x60\n                /* \"#utility.yul\":11855:11864   */\n              dup4\n                /* \"#utility.yul\":11851:11869   */\n              add\n                /* \"#utility.yul\":11844:11892   */\n              mstore\n                /* \"#utility.yul\":11909:11987   */\n              tag_346\n                /* \"#utility.yul\":11982:11986   */\n              dup2\n                /* \"#utility.yul\":11973:11979   */\n              dup8\n                /* \"#utility.yul\":11909:11987   */\n              tag_223\n              jump\t// in\n            tag_346:\n                /* \"#utility.yul\":11901:11987   */\n              swap1\n              pop\n                /* \"#utility.yul\":12035:12044   */\n              dup2\n                /* \"#utility.yul\":12029:12033   */\n              dup2\n                /* \"#utility.yul\":12025:12045   */\n              sub\n                /* \"#utility.yul\":12019:12022   */\n              0x80\n                /* \"#utility.yul\":12008:12017   */\n              dup4\n                /* \"#utility.yul\":12004:12023   */\n              add\n                /* \"#utility.yul\":11997:12046   */\n              mstore\n                /* \"#utility.yul\":12063:12141   */\n              tag_347\n                /* \"#utility.yul\":12136:12140   */\n              dup2\n                /* \"#utility.yul\":12127:12133   */\n              dup7\n                /* \"#utility.yul\":12063:12141   */\n              tag_223\n              jump\t// in\n            tag_347:\n                /* \"#utility.yul\":12055:12141   */\n              swap1\n              pop\n                /* \"#utility.yul\":12189:12198   */\n              dup2\n                /* \"#utility.yul\":12183:12187   */\n              dup2\n                /* \"#utility.yul\":12179:12199   */\n              sub\n                /* \"#utility.yul\":12173:12176   */\n              0xa0\n                /* \"#utility.yul\":12162:12171   */\n              dup4\n                /* \"#utility.yul\":12158:12177   */\n              add\n                /* \"#utility.yul\":12151:12200   */\n              mstore\n                /* \"#utility.yul\":12217:12295   */\n              tag_348\n                /* \"#utility.yul\":12290:12294   */\n              dup2\n                /* \"#utility.yul\":12281:12287   */\n              dup6\n                /* \"#utility.yul\":12217:12295   */\n              tag_223\n              jump\t// in\n            tag_348:\n                /* \"#utility.yul\":12209:12295   */\n              swap1\n              pop\n                /* \"#utility.yul\":12343:12352   */\n              dup2\n                /* \"#utility.yul\":12337:12341   */\n              dup2\n                /* \"#utility.yul\":12333:12353   */\n              sub\n                /* \"#utility.yul\":12327:12330   */\n              0xc0\n                /* \"#utility.yul\":12316:12325   */\n              dup4\n                /* \"#utility.yul\":12312:12331   */\n              add\n                /* \"#utility.yul\":12305:12354   */\n              mstore\n                /* \"#utility.yul\":12371:12449   */\n              tag_349\n                /* \"#utility.yul\":12444:12448   */\n              dup2\n                /* \"#utility.yul\":12435:12441   */\n              dup5\n                /* \"#utility.yul\":12371:12449   */\n              tag_223\n              jump\t// in\n            tag_349:\n                /* \"#utility.yul\":12363:12449   */\n              swap1\n              pop\n                /* \"#utility.yul\":10933:12456   */\n              swap9\n              swap8\n              pop\n              pop\n              pop\n              pop\n              pop\n              pop\n              pop\n              pop\n              jump\t// out\n                /* \"#utility.yul\":12462:12642   */\n            tag_234:\n                /* \"#utility.yul\":12510:12587   */\n              0x4e487b7100000000000000000000000000000000000000000000000000000000\n                /* \"#utility.yul\":12507:12508   */\n              0x00\n                /* \"#utility.yul\":12500:12588   */\n              mstore\n                /* \"#utility.yul\":12607:12611   */\n              0x22\n                /* \"#utility.yul\":12604:12605   */\n              0x04\n                /* \"#utility.yul\":12597:12612   */\n              mstore\n                /* \"#utility.yul\":12631:12635   */\n              0x24\n                /* \"#utility.yul\":12628:12629   */\n              0x00\n                /* \"#utility.yul\":12621:12636   */\n              revert\n                /* \"#utility.yul\":12648:12968   */\n            tag_65:\n                /* \"#utility.yul\":12692:12698   */\n              0x00\n                /* \"#utility.yul\":12729:12730   */\n              0x02\n                /* \"#utility.yul\":12723:12727   */\n              dup3\n                /* \"#utility.yul\":12719:12731   */\n              div\n                /* \"#utility.yul\":12709:12731   */\n              swap1\n              pop\n                /* \"#utility.yul\":12776:12777   */\n              0x01\n                /* \"#utility.yul\":12770:12774   */\n              dup3\n                /* \"#utility.yul\":12766:12778   */\n              and\n                /* \"#utility.yul\":12797:12815   */\n              dup1\n                /* \"#utility.yul\":12787:12868   */\n              tag_352\n              jumpi\n                /* \"#utility.yul\":12853:12857   */\n              0x7f\n                /* \"#utility.yul\":12845:12851   */\n              dup3\n                /* \"#utility.yul\":12841:12858   */\n              and\n                /* \"#utility.yul\":12831:12858   */\n              swap2\n              pop\n                /* \"#utility.yul\":12787:12868   */\n            tag_352:\n                /* \"#utility.yul\":12915:12917   */\n              0x20\n                /* \"#utility.yul\":12907:12913   */\n              dup3\n                /* \"#utility.yul\":12904:12918   */\n              lt\n                /* \"#utility.yul\":12884:12902   */\n              dup2\n                /* \"#utility.yul\":12881:12919   */\n              eq\n                /* \"#utility.yul\":12878:12962   */\n              iszero\n              tag_353\n              jumpi\n                /* \"#utility.yul\":12934:12952   */\n              tag_354\n              tag_234\n              jump\t// in\n            tag_354:\n                /* \"#utility.yul\":12878:12962   */\n            tag_353:\n                /* \"#utility.yul\":12699:12968   */\n              pop\n                /* \"#utility.yul\":12648:12968   */\n              swap2\n              swap1\n              pop\n              jump\t// out\n\n            auxdata: 0xa264697066735822122062345dcce11a7db5cd5f6178f6144d80f1a3ad0b489ad4b98ad8fe23d4cfdcad64736f6c634300080b0033\n        }\n    }\n\n    auxdata: 0xa2646970667358221220e612132e9b96ad25ffad7230191f7edd3757af3671cf9c9f73e7208f9f6d65b164736f6c634300080b0033\n}\n","bytecode":{"linkReferences":{},"object":"608060405234801561001057600080fd5b50612fff806100206000396000f3fe608060405234801561001057600080fd5b50600436106100625760003560e01c806335a6861a1461006757806373338081146100975780637e3c01d7146100c7578063826c4ae6146100f75780638379ec2f14610101578063b6cbab371461011f575b600080fd5b610081600480360381019061007c9190610612565b61013b565b60405161008e919061069e565b60405180910390f35b6100b160048036038101906100ac91906106ef565b610200565b6040516100be919061072b565b60405180910390f35b6100e160048036038101906100dc91906106ef565b61023f565b6040516100ee919061069e565b60405180910390f35b6100ff61027e565b005b6101096104b6565b6040516101169190610804565b60405180910390f35b61013960048036038101906101349190610612565b610544565b005b6000600260008373ffffffffffffffffffffffffffffffffffffffff1673ffffffffffffffffffffffffffffffffffffffff16815260200190815260200160002060000160149054906101000a900460ff1661019657600080fd5b600260008373ffffffffffffffffffffffffffffffffffffffff1673ffffffffffffffffffffffffffffffffffffffff16815260200190815260200160002060000160009054906101000a900473ffffffffffffffffffffffffffffffffffffffff169050919050565b6001818154811061021057600080fd5b906000526020600020016000915054906101000a900473ffffffffffffffffffffffffffffffffffffffff1681565b6000818154811061024f57600080fd5b906000526020600020016000915054906101000a900473ffffffffffffffffffffffffffffffffffffffff1681565b60003360405161028d906105a2565b610297919061072b565b604051809103906000f0801580156102b3573d6000803e3d6000fd5b50905080600260003373ffffffffffffffffffffffffffffffffffffffff1673ffffffffffffffffffffffffffffffffffffffff16815260200190815260200160002060000160006101000a81548173ffffffffffffffffffffffffffffffffffffffff021916908373ffffffffffffffffffffffffffffffffffffffff1602179055506001600260003373ffffffffffffffffffffffffffffffffffffffff1673ffffffffffffffffffffffffffffffffffffffff16815260200190815260200160002060000160146101000a81548160ff0219169083151502179055506000600260003373ffffffffffffffffffffffffffffffffffffffff1673ffffffffffffffffffffffffffffffffffffffff16815260200190815260200160002060000160156101000a81548160ff0219169083151502179055506001339080600181540180825580915050600190039060005260206000200160009091909190916101000a81548173ffffffffffffffffffffffffffffffffffffffff021916908373ffffffffffffffffffffffffffffffffffffffff1602179055506000819080600181540180825580915050600190039060005260206000200160009091909190916101000a81548173ffffffffffffffffffffffffffffffffffffffff021916908373ffffffffffffffffffffffffffffffffffffffff16021790555050565b6060600080548060200260200160405190810160405280929190818152602001828054801561053a57602002820191906000526020600020905b8160009054906101000a900473ffffffffffffffffffffffffffffffffffffffff1673ffffffffffffffffffffffffffffffffffffffff16815260200190600101908083116104f0575b5050505050905090565b6001600260008373ffffffffffffffffffffffffffffffffffffffff1673ffffffffffffffffffffffffffffffffffffffff16815260200190815260200160002060000160156101000a81548160ff02191690831515021790555050565b6127a38061082783390190565b600080fd5b600073ffffffffffffffffffffffffffffffffffffffff82169050919050565b60006105df826105b4565b9050919050565b6105ef816105d4565b81146105fa57600080fd5b50565b60008135905061060c816105e6565b92915050565b600060208284031215610628576106276105af565b5b6000610636848285016105fd565b91505092915050565b6000819050919050565b600061066461065f61065a846105b4565b61063f565b6105b4565b9050919050565b600061067682610649565b9050919050565b60006106888261066b565b9050919050565b6106988161067d565b82525050565b60006020820190506106b3600083018461068f565b92915050565b6000819050919050565b6106cc816106b9565b81146106d757600080fd5b50565b6000813590506106e9816106c3565b92915050565b600060208284031215610705576107046105af565b5b6000610713848285016106da565b91505092915050565b610725816105d4565b82525050565b6000602082019050610740600083018461071c565b92915050565b600081519050919050565b600082825260208201905092915050565b6000819050602082019050919050565b61077b8161067d565b82525050565b600061078d8383610772565b60208301905092915050565b6000602082019050919050565b60006107b182610746565b6107bb8185610751565b93506107c683610762565b8060005b838110156107f75781516107de8882610781565b97506107e983610799565b9250506001810190506107ca565b5085935050505092915050565b6000602082019050818103600083015261081e81846107a6565b90509291505056fe60806040523480156200001157600080fd5b50604051620027a3380380620027a38339818101604052810190620000379190620000e9565b80600260006101000a81548173ffffffffffffffffffffffffffffffffffffffff021916908373ffffffffffffffffffffffffffffffffffffffff160217905550506200011b565b600080fd5b600073ffffffffffffffffffffffffffffffffffffffff82169050919050565b6000620000b18262000084565b9050919050565b620000c381620000a4565b8114620000cf57600080fd5b50565b600081519050620000e381620000b8565b92915050565b6000602082840312156200010257620001016200007f565b5b60006200011284828501620000d2565b91505092915050565b612678806200012b6000396000f3fe608060405234801561001057600080fd5b50600436106100a95760003560e01c8063787fd70311610071578063787fd70314610166578063adb4d99014610197578063cc3d967b146101b5578063ea00962f146101ed578063ede3a6701461020b578063f203c19d14610241576100a9565b8063061dff9a146100ae578063091bac16146100ca578063311cc831146100fb578063481c6a7514610117578063509fda0e14610135575b600080fd5b6100c860048036038101906100c39190611ff1565b61025f565b005b6100e460048036038101906100df9190611ff1565b6102fd565b6040516100f29291906120b7565b60405180910390f35b61011560048036038101906101109190612223565b610558565b005b61011f610a76565b60405161012c919061245a565b60405180910390f35b61014f600480360381019061014a9190611ff1565b610a9c565b60405161015d9291906120b7565b60405180910390f35b610180600480360381019061017b9190611ff1565b610cf7565b60405161018e9291906120b7565b60405180910390f35b61019f610ef9565b6040516101ac919061245a565b60405180910390f35b6101cf60048036038101906101ca9190611ff1565b610f1f565b6040516101e499989796959493929190612475565b60405180910390f35b6101f5611816565b604051610202919061245a565b60405180910390f35b61022560048036038101906102209190611ff1565b61183f565b6040516102389796959493929190612541565b60405180910390f35b610249611eb8565b604051610256919061245a565b60405180910390f35b600260009054906101000a900473ffffffffffffffffffffffffffffffffffffffff1673ffffffffffffffffffffffffffffffffffffffff163373ffffffffffffffffffffffffffffffffffffffff16146102b957600080fd5b80600360006101000a81548173ffffffffffffffffffffffffffffffffffffffff021916908373ffffffffffffffffffffffffffffffffffffffff16021790555050565b606080600160008473ffffffffffffffffffffffffffffffffffffffff1673ffffffffffffffffffffffffffffffffffffffff16815260200190815260200160002060090160009054906101000a900460ff1661035957600080fd5b600260009054906101000a900473ffffffffffffffffffffffffffffffffffffffff1673ffffffffffffffffffffffffffffffffffffffff168373ffffffffffffffffffffffffffffffffffffffff16146103b357600080fd5b600160008473ffffffffffffffffffffffffffffffffffffffff1673ffffffffffffffffffffffffffffffffffffffff168152602001908152602001600020600701600160008573ffffffffffffffffffffffffffffffffffffffff1673ffffffffffffffffffffffffffffffffffffffff16815260200190815260200160002060080181805461044390612610565b80601f016020809104026020016040519081016040528092919081815260200182805461046f90612610565b80156104bc5780601f10610491576101008083540402835291602001916104bc565b820191906000526020600020905b81548152906001019060200180831161049f57829003601f168201915b505050505091508080546104cf90612610565b80601f01602080910402602001604051908101604052809291908181526020018280546104fb90612610565b80156105485780601f1061051d57610100808354040283529160200191610548565b820191906000526020600020905b81548152906001019060200180831161052b57829003601f168201915b5050505050905091509150915091565b600260009054906101000a900473ffffffffffffffffffffffffffffffffffffffff1673ffffffffffffffffffffffffffffffffffffffff163373ffffffffffffffffffffffffffffffffffffffff16146105b257600080fd5b6000339050600160008273ffffffffffffffffffffffffffffffffffffffff1673ffffffffffffffffffffffffffffffffffffffff16815260200190815260200160002060090160009054906101000a900460ff161561061157600080fd5b806000806101000a81548173ffffffffffffffffffffffffffffffffffffffff021916908373ffffffffffffffffffffffffffffffffffffffff1602179055508b600160008373ffffffffffffffffffffffffffffffffffffffff1673ffffffffffffffffffffffffffffffffffffffff16815260200190815260200160002060000190805190602001906106a7929190611edc565b508a600160008373ffffffffffffffffffffffffffffffffffffffff1673ffffffffffffffffffffffffffffffffffffffff16815260200190815260200160002060010190805190602001906106fe929190611edc565b5089600160008373ffffffffffffffffffffffffffffffffffffffff1673ffffffffffffffffffffffffffffffffffffffff1681526020019081526020016000206002019080519060200190610755929190611edc565b5088600160008373ffffffffffffffffffffffffffffffffffffffff1673ffffffffffffffffffffffffffffffffffffffff16815260200190815260200160002060030190805190602001906107ac929190611edc565b5087600160008373ffffffffffffffffffffffffffffffffffffffff1673ffffffffffffffffffffffffffffffffffffffff1681526020019081526020016000206004019080519060200190610803929190611edc565b5086600160008373ffffffffffffffffffffffffffffffffffffffff1673ffffffffffffffffffffffffffffffffffffffff168152602001908152602001600020600501908051906020019061085a929190611edc565b5085600160008373ffffffffffffffffffffffffffffffffffffffff1673ffffffffffffffffffffffffffffffffffffffff16815260200190815260200160002060060190805190602001906108b1929190611edc565b5084600160008373ffffffffffffffffffffffffffffffffffffffff1673ffffffffffffffffffffffffffffffffffffffff1681526020019081526020016000206007019080519060200190610908929190611edc565b5083600160008373ffffffffffffffffffffffffffffffffffffffff1673ffffffffffffffffffffffffffffffffffffffff168152602001908152602001600020600801908051906020019061095f929190611edc565b5082600160008373ffffffffffffffffffffffffffffffffffffffff1673ffffffffffffffffffffffffffffffffffffffff168152602001908152602001600020600a0190805190602001906109b6929190611edc565b5081600160008373ffffffffffffffffffffffffffffffffffffffff1673ffffffffffffffffffffffffffffffffffffffff168152602001908152602001600020600b019080519060200190610a0d929190611edc565b5060018060008373ffffffffffffffffffffffffffffffffffffffff1673ffffffffffffffffffffffffffffffffffffffff16815260200190815260200160002060090160006101000a81548160ff021916908315150217905550505050505050505050505050565b600260009054906101000a900473ffffffffffffffffffffffffffffffffffffffff1681565b606080600160008473ffffffffffffffffffffffffffffffffffffffff1673ffffffffffffffffffffffffffffffffffffffff16815260200190815260200160002060090160009054906101000a900460ff16610af857600080fd5b600260009054906101000a900473ffffffffffffffffffffffffffffffffffffffff1673ffffffffffffffffffffffffffffffffffffffff168373ffffffffffffffffffffffffffffffffffffffff1614610b5257600080fd5b600160008473ffffffffffffffffffffffffffffffffffffffff1673ffffffffffffffffffffffffffffffffffffffff168152602001908152602001600020600a01600160008573ffffffffffffffffffffffffffffffffffffffff1673ffffffffffffffffffffffffffffffffffffffff168152602001908152602001600020600b01818054610be290612610565b80601f0160208091040260200160405190810160405280929190818152602001828054610c0e90612610565b8015610c5b5780601f10610c3057610100808354040283529160200191610c5b565b820191906000526020600020905b815481529060010190602001808311610c3e57829003601f168201915b50505050509150808054610c6e90612610565b80601f0160208091040260200160405190810160405280929190818152602001828054610c9a90612610565b8015610ce75780601f10610cbc57610100808354040283529160200191610ce7565b820191906000526020600020905b815481529060010190602001808311610cca57829003601f168201915b5050505050905091509150915091565b6060808273ffffffffffffffffffffffffffffffffffffffff16600360009054906101000a900473ffffffffffffffffffffffffffffffffffffffff1673ffffffffffffffffffffffffffffffffffffffff1614610d5457600080fd5b600160008473ffffffffffffffffffffffffffffffffffffffff1673ffffffffffffffffffffffffffffffffffffffff168152602001908152602001600020600a01600160008573ffffffffffffffffffffffffffffffffffffffff1673ffffffffffffffffffffffffffffffffffffffff168152602001908152602001600020600b01818054610de490612610565b80601f0160208091040260200160405190810160405280929190818152602001828054610e1090612610565b8015610e5d5780601f10610e3257610100808354040283529160200191610e5d565b820191906000526020600020905b815481529060010190602001808311610e4057829003601f168201915b50505050509150808054610e7090612610565b80601f0160208091040260200160405190810160405280929190818152602001828054610e9c90612610565b8015610ee95780601f10610ebe57610100808354040283529160200191610ee9565b820191906000526020600020905b815481529060010190602001808311610ecc57829003601f168201915b5050505050905091509150915091565b600360009054906101000a900473ffffffffffffffffffffffffffffffffffffffff1681565b60608060608060608060608060608973ffffffffffffffffffffffffffffffffffffffff16600360009054906101000a900473ffffffffffffffffffffffffffffffffffffffff1673ffffffffffffffffffffffffffffffffffffffff1614610f8757600080fd5b60016000600260009054906101000a900473ffffffffffffffffffffffffffffffffffffffff1673ffffffffffffffffffffffffffffffffffffffff1673ffffffffffffffffffffffffffffffffffffffff16815260200190815260200160002060000160016000600260009054906101000a900473ffffffffffffffffffffffffffffffffffffffff1673ffffffffffffffffffffffffffffffffffffffff1673ffffffffffffffffffffffffffffffffffffffff16815260200190815260200160002060010160016000600260009054906101000a900473ffffffffffffffffffffffffffffffffffffffff1673ffffffffffffffffffffffffffffffffffffffff1673ffffffffffffffffffffffffffffffffffffffff16815260200190815260200160002060020160016000600260009054906101000a900473ffffffffffffffffffffffffffffffffffffffff1673ffffffffffffffffffffffffffffffffffffffff1673ffffffffffffffffffffffffffffffffffffffff16815260200190815260200160002060030160016000600260009054906101000a900473ffffffffffffffffffffffffffffffffffffffff1673ffffffffffffffffffffffffffffffffffffffff1673ffffffffffffffffffffffffffffffffffffffff16815260200190815260200160002060040160016000600260009054906101000a900473ffffffffffffffffffffffffffffffffffffffff1673ffffffffffffffffffffffffffffffffffffffff1673ffffffffffffffffffffffffffffffffffffffff16815260200190815260200160002060050160016000600260009054906101000a900473ffffffffffffffffffffffffffffffffffffffff1673ffffffffffffffffffffffffffffffffffffffff1673ffffffffffffffffffffffffffffffffffffffff16815260200190815260200160002060060160016000600260009054906101000a900473ffffffffffffffffffffffffffffffffffffffff1673ffffffffffffffffffffffffffffffffffffffff1673ffffffffffffffffffffffffffffffffffffffff16815260200190815260200160002060070160016000600260009054906101000a900473ffffffffffffffffffffffffffffffffffffffff1673ffffffffffffffffffffffffffffffffffffffff1673ffffffffffffffffffffffffffffffffffffffff16815260200190815260200160002060080188805461131790612610565b80601f016020809104026020016040519081016040528092919081815260200182805461134390612610565b80156113905780601f1061136557610100808354040283529160200191611390565b820191906000526020600020905b81548152906001019060200180831161137357829003601f168201915b505050505098508780546113a390612610565b80601f01602080910402602001604051908101604052809291908181526020018280546113cf90612610565b801561141c5780601f106113f15761010080835404028352916020019161141c565b820191906000526020600020905b8154815290600101906020018083116113ff57829003601f168201915b5050505050975086805461142f90612610565b80601f016020809104026020016040519081016040528092919081815260200182805461145b90612610565b80156114a85780601f1061147d576101008083540402835291602001916114a8565b820191906000526020600020905b81548152906001019060200180831161148b57829003601f168201915b505050505096508580546114bb90612610565b80601f01602080910402602001604051908101604052809291908181526020018280546114e790612610565b80156115345780601f1061150957610100808354040283529160200191611534565b820191906000526020600020905b81548152906001019060200180831161151757829003601f168201915b5050505050955084805461154790612610565b80601f016020809104026020016040519081016040528092919081815260200182805461157390612610565b80156115c05780601f10611595576101008083540402835291602001916115c0565b820191906000526020600020905b8154815290600101906020018083116115a357829003601f168201915b505050505094508380546115d390612610565b80601f01602080910402602001604051908101604052809291908181526020018280546115ff90612610565b801561164c5780601f106116215761010080835404028352916020019161164c565b820191906000526020600020905b81548152906001019060200180831161162f57829003601f168201915b5050505050935082805461165f90612610565b80601f016020809104026020016040519081016040528092919081815260200182805461168b90612610565b80156116d85780601f106116ad576101008083540402835291602001916116d8565b820191906000526020600020905b8154815290600101906020018083116116bb57829003601f168201915b505050505092508180546116eb90612610565b80601f016020809104026020016040519081016040528092919081815260200182805461171790612610565b80156117645780601f1061173957610100808354040283529160200191611764565b820191906000526020600020905b81548152906001019060200180831161174757829003601f168201915b5050505050915080805461177790612610565b80601f01602080910402602001604051908101604052809291908181526020018280546117a390612610565b80156117f05780601f106117c5576101008083540402835291602001916117f0565b820191906000526020600020905b8154815290600101906020018083116117d357829003601f168201915b505050505090509850985098509850985098509850985098509193959799909294969850565b60008060009054906101000a900473ffffffffffffffffffffffffffffffffffffffff16905090565b6060806060806060806060600160008973ffffffffffffffffffffffffffffffffffffffff1673ffffffffffffffffffffffffffffffffffffffff16815260200190815260200160002060090160009054906101000a900460ff166118a357600080fd5b600260009054906101000a900473ffffffffffffffffffffffffffffffffffffffff1673ffffffffffffffffffffffffffffffffffffffff168873ffffffffffffffffffffffffffffffffffffffff16146118fd57600080fd5b600160008973ffffffffffffffffffffffffffffffffffffffff1673ffffffffffffffffffffffffffffffffffffffff168152602001908152602001600020600001600160008a73ffffffffffffffffffffffffffffffffffffffff1673ffffffffffffffffffffffffffffffffffffffff168152602001908152602001600020600101600160008b73ffffffffffffffffffffffffffffffffffffffff1673ffffffffffffffffffffffffffffffffffffffff168152602001908152602001600020600201600160008c73ffffffffffffffffffffffffffffffffffffffff1673ffffffffffffffffffffffffffffffffffffffff168152602001908152602001600020600301600160008d73ffffffffffffffffffffffffffffffffffffffff1673ffffffffffffffffffffffffffffffffffffffff168152602001908152602001600020600401600160008e73ffffffffffffffffffffffffffffffffffffffff1673ffffffffffffffffffffffffffffffffffffffff168152602001908152602001600020600501600160008f73ffffffffffffffffffffffffffffffffffffffff1673ffffffffffffffffffffffffffffffffffffffff168152602001908152602001600020600601868054611ad790612610565b80601f0160208091040260200160405190810160405280929190818152602001828054611b0390612610565b8015611b505780601f10611b2557610100808354040283529160200191611b50565b820191906000526020600020905b815481529060010190602001808311611b3357829003601f168201915b50505050509650858054611b6390612610565b80601f0160208091040260200160405190810160405280929190818152602001828054611b8f90612610565b8015611bdc5780601f10611bb157610100808354040283529160200191611bdc565b820191906000526020600020905b815481529060010190602001808311611bbf57829003601f168201915b50505050509550848054611bef90612610565b80601f0160208091040260200160405190810160405280929190818152602001828054611c1b90612610565b8015611c685780601f10611c3d57610100808354040283529160200191611c68565b820191906000526020600020905b815481529060010190602001808311611c4b57829003601f168201915b50505050509450838054611c7b90612610565b80601f0160208091040260200160405190810160405280929190818152602001828054611ca790612610565b8015611cf45780601f10611cc957610100808354040283529160200191611cf4565b820191906000526020600020905b815481529060010190602001808311611cd757829003601f168201915b50505050509350828054611d0790612610565b80601f0160208091040260200160405190810160405280929190818152602001828054611d3390612610565b8015611d805780601f10611d5557610100808354040283529160200191611d80565b820191906000526020600020905b815481529060010190602001808311611d6357829003601f168201915b50505050509250818054611d9390612610565b80601f0160208091040260200160405190810160405280929190818152602001828054611dbf90612610565b8015611e0c5780601f10611de157610100808354040283529160200191611e0c565b820191906000526020600020905b815481529060010190602001808311611def57829003601f168201915b50505050509150808054611e1f90612610565b80601f0160208091040260200160405190810160405280929190818152602001828054611e4b90612610565b8015611e985780601f10611e6d57610100808354040283529160200191611e98565b820191906000526020600020905b815481529060010190602001808311611e7b57829003601f168201915b505050505090509650965096509650965096509650919395979092949650565b60008054906101000a900473ffffffffffffffffffffffffffffffffffffffff1681565b828054611ee890612610565b90600052602060002090601f016020900481019282611f0a5760008555611f51565b82601f10611f2357805160ff1916838001178555611f51565b82800160010185558215611f51579182015b82811115611f50578251825591602001919060010190611f35565b5b509050611f5e9190611f62565b5090565b5b80821115611f7b576000816000905550600101611f63565b5090565b6000604051905090565b600080fd5b600080fd5b600073ffffffffffffffffffffffffffffffffffffffff82169050919050565b6000611fbe82611f93565b9050919050565b611fce81611fb3565b8114611fd957600080fd5b50565b600081359050611feb81611fc5565b92915050565b60006020828403121561200757612006611f89565b5b600061201584828501611fdc565b91505092915050565b600081519050919050565b600082825260208201905092915050565b60005b8381101561205857808201518184015260208101905061203d565b83811115612067576000848401525b50505050565b6000601f19601f8301169050919050565b60006120898261201e565b6120938185612029565b93506120a381856020860161203a565b6120ac8161206d565b840191505092915050565b600060408201905081810360008301526120d1818561207e565b905081810360208301526120e5818461207e565b90509392505050565b600080fd5b600080fd5b7f4e487b7100000000000000000000000000000000000000000000000000000000600052604160045260246000fd5b6121308261206d565b810181811067ffffffffffffffff8211171561214f5761214e6120f8565b5b80604052505050565b6000612162611f7f565b905061216e8282612127565b919050565b600067ffffffffffffffff82111561218e5761218d6120f8565b5b6121978261206d565b9050602081019050919050565b82818337600083830152505050565b60006121c66121c184612173565b612158565b9050828152602081018484840111156121e2576121e16120f3565b5b6121ed8482856121a4565b509392505050565b600082601f83011261220a576122096120ee565b5b813561221a8482602086016121b3565b91505092915050565b60008060008060008060008060008060006101608c8e03121561224957612248611f89565b5b60008c013567ffffffffffffffff81111561226757612266611f8e565b5b6122738e828f016121f5565b9b505060208c013567ffffffffffffffff81111561229457612293611f8e565b5b6122a08e828f016121f5565b9a505060408c013567ffffffffffffffff8111156122c1576122c0611f8e565b5b6122cd8e828f016121f5565b99505060608c013567ffffffffffffffff8111156122ee576122ed611f8e565b5b6122fa8e828f016121f5565b98505060808c013567ffffffffffffffff81111561231b5761231a611f8e565b5b6123278e828f016121f5565b97505060a08c013567ffffffffffffffff81111561234857612347611f8e565b5b6123548e828f016121f5565b96505060c08c013567ffffffffffffffff81111561237557612374611f8e565b5b6123818e828f016121f5565b95505060e08c013567ffffffffffffffff8111156123a2576123a1611f8e565b5b6123ae8e828f016121f5565b9450506101008c013567ffffffffffffffff8111156123d0576123cf611f8e565b5b6123dc8e828f016121f5565b9350506101208c013567ffffffffffffffff8111156123fe576123fd611f8e565b5b61240a8e828f016121f5565b9250506101408c013567ffffffffffffffff81111561242c5761242b611f8e565b5b6124388e828f016121f5565b9150509295989b509295989b9093969950565b61245481611fb3565b82525050565b600060208201905061246f600083018461244b565b92915050565b6000610120820190508181036000830152612490818c61207e565b905081810360208301526124a4818b61207e565b905081810360408301526124b8818a61207e565b905081810360608301526124cc818961207e565b905081810360808301526124e0818861207e565b905081810360a08301526124f4818761207e565b905081810360c0830152612508818661207e565b905081810360e083015261251c818561207e565b9050818103610100830152612531818461207e565b90509a9950505050505050505050565b600060e082019050818103600083015261255b818a61207e565b9050818103602083015261256f818961207e565b90508181036040830152612583818861207e565b90508181036060830152612597818761207e565b905081810360808301526125ab818661207e565b905081810360a08301526125bf818561207e565b905081810360c08301526125d3818461207e565b905098975050505050505050565b7f4e487b7100000000000000000000000000000000000000000000000000000000600052602260045260246000fd5b6000600282049050600182168061262857607f821691505b6020821081141561263c5761263b6125e1565b5b5091905056fea264697066735822122062345dcce11a7db5cd5f6178f6144d80f1a3ad0b489ad4b98ad8fe23d4cfdcad64736f6c634300080b0033a2646970667358221220e612132e9b96ad25ffad7230191f7edd3757af3671cf9c9f73e7208f9f6d65b164736f6c634300080b0033","opcodes":"PUSH1 0x80 PUSH1 0x40 MSTORE CALLVALUE DUP1 ISZERO PUSH2 0x10 JUMPI PUSH1 0x0 DUP1 REVERT JUMPDEST POP PUSH2 0x2FFF DUP1 PUSH2 0x20 PUSH1 0x0 CODECOPY PUSH1 0x0 RETURN INVALID PUSH1 0x80 PUSH1 0x40 MSTORE CALLVALUE DUP1 ISZERO PUSH2 0x10 JUMPI PUSH1 0x0 DUP1 REVERT JUMPDEST POP PUSH1 0x4 CALLDATASIZE LT PUSH2 0x62 JUMPI PUSH1 0x0 CALLDATALOAD PUSH1 0xE0 SHR DUP1 PUSH4 0x35A6861A EQ PUSH2 0x67 JUMPI DUP1 PUSH4 0x73338081 EQ PUSH2 0x97 JUMPI DUP1 PUSH4 0x7E3C01D7 EQ PUSH2 0xC7 JUMPI DUP1 PUSH4 0x826C4AE6 EQ PUSH2 0xF7 JUMPI DUP1 PUSH4 0x8379EC2F EQ PUSH2 0x101 JUMPI DUP1 PUSH4 0xB6CBAB37 EQ PUSH2 0x11F JUMPI JUMPDEST PUSH1 0x0 DUP1 REVERT JUMPDEST PUSH2 0x81 PUSH1 0x4 DUP1 CALLDATASIZE SUB DUP2 ADD SWAP1 PUSH2 0x7C SWAP2 SWAP1 PUSH2 0x612 JUMP JUMPDEST PUSH2 0x13B JUMP JUMPDEST PUSH1 0x40 MLOAD PUSH2 0x8E SWAP2 SWAP1 PUSH2 0x69E JUMP JUMPDEST PUSH1 0x40 MLOAD DUP1 SWAP2 SUB SWAP1 RETURN JUMPDEST PUSH2 0xB1 PUSH1 0x4 DUP1 CALLDATASIZE SUB DUP2 ADD SWAP1 PUSH2 0xAC SWAP2 SWAP1 PUSH2 0x6EF JUMP JUMPDEST PUSH2 0x200 JUMP JUMPDEST PUSH1 0x40 MLOAD PUSH2 0xBE SWAP2 SWAP1 PUSH2 0x72B JUMP JUMPDEST PUSH1 0x40 MLOAD DUP1 SWAP2 SUB SWAP1 RETURN JUMPDEST PUSH2 0xE1 PUSH1 0x4 DUP1 CALLDATASIZE SUB DUP2 ADD SWAP1 PUSH2 0xDC SWAP2 SWAP1 PUSH2 0x6EF JUMP JUMPDEST PUSH2 0x23F JUMP JUMPDEST PUSH1 0x40 MLOAD PUSH2 0xEE SWAP2 SWAP1 PUSH2 0x69E JUMP JUMPDEST PUSH1 0x40 MLOAD DUP1 SWAP2 SUB SWAP1 RETURN JUMPDEST PUSH2 0xFF PUSH2 0x27E JUMP JUMPDEST STOP JUMPDEST PUSH2 0x109 PUSH2 0x4B6 JUMP JUMPDEST PUSH1 0x40 MLOAD PUSH2 0x116 SWAP2 SWAP1 PUSH2 0x804 JUMP JUMPDEST PUSH1 0x40 MLOAD DUP1 SWAP2 SUB SWAP1 RETURN JUMPDEST PUSH2 0x139 PUSH1 0x4 DUP1 CALLDATASIZE SUB DUP2 ADD SWAP1 PUSH2 0x134 SWAP2 SWAP1 PUSH2 0x612 JUMP JUMPDEST PUSH2 0x544 JUMP JUMPDEST STOP JUMPDEST PUSH1 0x0 PUSH1 0x2 PUSH1 0x0 DUP4 PUSH20 0xFFFFFFFFFFFFFFFFFFFFFFFFFFFFFFFFFFFFFFFF AND PUSH20 0xFFFFFFFFFFFFFFFFFFFFFFFFFFFFFFFFFFFFFFFF AND DUP2 MSTORE PUSH1 0x20 ADD SWAP1 DUP2 MSTORE PUSH1 0x20 ADD PUSH1 0x0 KECCAK256 PUSH1 0x0 ADD PUSH1 0x14 SWAP1 SLOAD SWAP1 PUSH2 0x100 EXP SWAP1 DIV PUSH1 0xFF AND PUSH2 0x196 JUMPI PUSH1 0x0 DUP1 REVERT JUMPDEST PUSH1 0x2 PUSH1 0x0 DUP4 PUSH20 0xFFFFFFFFFFFFFFFFFFFFFFFFFFFFFFFFFFFFFFFF AND PUSH20 0xFFFFFFFFFFFFFFFFFFFFFFFFFFFFFFFFFFFFFFFF AND DUP2 MSTORE PUSH1 0x20 ADD SWAP1 DUP2 MSTORE PUSH1 0x20 ADD PUSH1 0x0 KECCAK256 PUSH1 0x0 ADD PUSH1 0x0 SWAP1 SLOAD SWAP1 PUSH2 0x100 EXP SWAP1 DIV PUSH20 0xFFFFFFFFFFFFFFFFFFFFFFFFFFFFFFFFFFFFFFFF AND SWAP1 POP SWAP2 SWAP1 POP JUMP JUMPDEST PUSH1 0x1 DUP2 DUP2 SLOAD DUP2 LT PUSH2 0x210 JUMPI PUSH1 0x0 DUP1 REVERT JUMPDEST SWAP1 PUSH1 0x0 MSTORE PUSH1 0x20 PUSH1 0x0 KECCAK256 ADD PUSH1 0x0 SWAP2 POP SLOAD SWAP1 PUSH2 0x100 EXP SWAP1 DIV PUSH20 0xFFFFFFFFFFFFFFFFFFFFFFFFFFFFFFFFFFFFFFFF AND DUP2 JUMP JUMPDEST PUSH1 0x0 DUP2 DUP2 SLOAD DUP2 LT PUSH2 0x24F JUMPI PUSH1 0x0 DUP1 REVERT JUMPDEST SWAP1 PUSH1 0x0 MSTORE PUSH1 0x20 PUSH1 0x0 KECCAK256 ADD PUSH1 0x0 SWAP2 POP SLOAD SWAP1 PUSH2 0x100 EXP SWAP1 DIV PUSH20 0xFFFFFFFFFFFFFFFFFFFFFFFFFFFFFFFFFFFFFFFF AND DUP2 JUMP JUMPDEST PUSH1 0x0 CALLER PUSH1 0x40 MLOAD PUSH2 0x28D SWAP1 PUSH2 0x5A2 JUMP JUMPDEST PUSH2 0x297 SWAP2 SWAP1 PUSH2 0x72B JUMP JUMPDEST PUSH1 0x40 MLOAD DUP1 SWAP2 SUB SWAP1 PUSH1 0x0 CREATE DUP1 ISZERO DUP1 ISZERO PUSH2 0x2B3 JUMPI RETURNDATASIZE PUSH1 0x0 DUP1 RETURNDATACOPY RETURNDATASIZE PUSH1 0x0 REVERT JUMPDEST POP SWAP1 POP DUP1 PUSH1 0x2 PUSH1 0x0 CALLER PUSH20 0xFFFFFFFFFFFFFFFFFFFFFFFFFFFFFFFFFFFFFFFF AND PUSH20 0xFFFFFFFFFFFFFFFFFFFFFFFFFFFFFFFFFFFFFFFF AND DUP2 MSTORE PUSH1 0x20 ADD SWAP1 DUP2 MSTORE PUSH1 0x20 ADD PUSH1 0x0 KECCAK256 PUSH1 0x0 ADD PUSH1 0x0 PUSH2 0x100 EXP DUP2 SLOAD DUP2 PUSH20 0xFFFFFFFFFFFFFFFFFFFFFFFFFFFFFFFFFFFFFFFF MUL NOT AND SWAP1 DUP4 PUSH20 0xFFFFFFFFFFFFFFFFFFFFFFFFFFFFFFFFFFFFFFFF AND MUL OR SWAP1 SSTORE POP PUSH1 0x1 PUSH1 0x2 PUSH1 0x0 CALLER PUSH20 0xFFFFFFFFFFFFFFFFFFFFFFFFFFFFFFFFFFFFFFFF AND PUSH20 0xFFFFFFFFFFFFFFFFFFFFFFFFFFFFFFFFFFFFFFFF AND DUP2 MSTORE PUSH1 0x20 ADD SWAP1 DUP2 MSTORE PUSH1 0x20 ADD PUSH1 0x0 KECCAK256 PUSH1 0x0 ADD PUSH1 0x14 PUSH2 0x100 EXP DUP2 SLOAD DUP2 PUSH1 0xFF MUL NOT AND SWAP1 DUP4 ISZERO ISZERO MUL OR SWAP1 SSTORE POP PUSH1 0x0 PUSH1 0x2 PUSH1 0x0 CALLER PUSH20 0xFFFFFFFFFFFFFFFFFFFFFFFFFFFFFFFFFFFFFFFF AND PUSH20 0xFFFFFFFFFFFFFFFFFFFFFFFFFFFFFFFFFFFFFFFF AND DUP2 MSTORE PUSH1 0x20 ADD SWAP1 DUP2 MSTORE PUSH1 0x20 ADD PUSH1 0x0 KECCAK256 PUSH1 0x0 ADD PUSH1 0x15 PUSH2 0x100 EXP DUP2 SLOAD DUP2 PUSH1 0xFF MUL NOT AND SWAP1 DUP4 ISZERO ISZERO MUL OR SWAP1 SSTORE POP PUSH1 0x1 CALLER SWAP1 DUP1 PUSH1 0x1 DUP2 SLOAD ADD DUP1 DUP3 SSTORE DUP1 SWAP2 POP POP PUSH1 0x1 SWAP1 SUB SWAP1 PUSH1 0x0 MSTORE PUSH1 0x20 PUSH1 0x0 KECCAK256 ADD PUSH1 0x0 SWAP1 SWAP2 SWAP1 SWAP2 SWAP1 SWAP2 PUSH2 0x100 EXP DUP2 SLOAD DUP2 PUSH20 0xFFFFFFFFFFFFFFFFFFFFFFFFFFFFFFFFFFFFFFFF MUL NOT AND SWAP1 DUP4 PUSH20 0xFFFFFFFFFFFFFFFFFFFFFFFFFFFFFFFFFFFFFFFF AND MUL OR SWAP1 SSTORE POP PUSH1 0x0 DUP2 SWAP1 DUP1 PUSH1 0x1 DUP2 SLOAD ADD DUP1 DUP3 SSTORE DUP1 SWAP2 POP POP PUSH1 0x1 SWAP1 SUB SWAP1 PUSH1 0x0 MSTORE PUSH1 0x20 PUSH1 0x0 KECCAK256 ADD PUSH1 0x0 SWAP1 SWAP2 SWAP1 SWAP2 SWAP1 SWAP2 PUSH2 0x100 EXP DUP2 SLOAD DUP2 PUSH20 0xFFFFFFFFFFFFFFFFFFFFFFFFFFFFFFFFFFFFFFFF MUL NOT AND SWAP1 DUP4 PUSH20 0xFFFFFFFFFFFFFFFFFFFFFFFFFFFFFFFFFFFFFFFF AND MUL OR SWAP1 SSTORE POP POP JUMP JUMPDEST PUSH1 0x60 PUSH1 0x0 DUP1 SLOAD DUP1 PUSH1 0x20 MUL PUSH1 0x20 ADD PUSH1 0x40 MLOAD SWAP1 DUP2 ADD PUSH1 0x40 MSTORE DUP1 SWAP3 SWAP2 SWAP1 DUP2 DUP2 MSTORE PUSH1 0x20 ADD DUP3 DUP1 SLOAD DUP1 ISZERO PUSH2 0x53A JUMPI PUSH1 0x20 MUL DUP3 ADD SWAP2 SWAP1 PUSH1 0x0 MSTORE PUSH1 0x20 PUSH1 0x0 KECCAK256 SWAP1 JUMPDEST DUP2 PUSH1 0x0 SWAP1 SLOAD SWAP1 PUSH2 0x100 EXP SWAP1 DIV PUSH20 0xFFFFFFFFFFFFFFFFFFFFFFFFFFFFFFFFFFFFFFFF AND PUSH20 0xFFFFFFFFFFFFFFFFFFFFFFFFFFFFFFFFFFFFFFFF AND DUP2 MSTORE PUSH1 0x20 ADD SWAP1 PUSH1 0x1 ADD SWAP1 DUP1 DUP4 GT PUSH2 0x4F0 JUMPI JUMPDEST POP POP POP POP POP SWAP1 POP SWAP1 JUMP JUMPDEST PUSH1 0x1 PUSH1 0x2 PUSH1 0x0 DUP4 PUSH20 0xFFFFFFFFFFFFFFFFFFFFFFFFFFFFFFFFFFFFFFFF AND PUSH20 0xFFFFFFFFFFFFFFFFFFFFFFFFFFFFFFFFFFFFFFFF AND DUP2 MSTORE PUSH1 0x20 ADD SWAP1 DUP2 MSTORE PUSH1 0x20 ADD PUSH1 0x0 KECCAK256 PUSH1 0x0 ADD PUSH1 0x15 PUSH2 0x100 EXP DUP2 SLOAD DUP2 PUSH1 0xFF MUL NOT AND SWAP1 DUP4 ISZERO ISZERO MUL OR SWAP1 SSTORE POP POP JUMP JUMPDEST PUSH2 0x27A3 DUP1 PUSH2 0x827 DUP4 CODECOPY ADD SWAP1 JUMP JUMPDEST PUSH1 0x0 DUP1 REVERT JUMPDEST PUSH1 0x0 PUSH20 0xFFFFFFFFFFFFFFFFFFFFFFFFFFFFFFFFFFFFFFFF DUP3 AND SWAP1 POP SWAP2 SWAP1 POP JUMP JUMPDEST PUSH1 0x0 PUSH2 0x5DF DUP3 PUSH2 0x5B4 JUMP JUMPDEST SWAP1 POP SWAP2 SWAP1 POP JUMP JUMPDEST PUSH2 0x5EF DUP2 PUSH2 0x5D4 JUMP JUMPDEST DUP2 EQ PUSH2 0x5FA JUMPI PUSH1 0x0 DUP1 REVERT JUMPDEST POP JUMP JUMPDEST PUSH1 0x0 DUP2 CALLDATALOAD SWAP1 POP PUSH2 0x60C DUP2 PUSH2 0x5E6 JUMP JUMPDEST SWAP3 SWAP2 POP POP JUMP JUMPDEST PUSH1 0x0 PUSH1 0x20 DUP3 DUP5 SUB SLT ISZERO PUSH2 0x628 JUMPI PUSH2 0x627 PUSH2 0x5AF JUMP JUMPDEST JUMPDEST PUSH1 0x0 PUSH2 0x636 DUP5 DUP3 DUP6 ADD PUSH2 0x5FD JUMP JUMPDEST SWAP2 POP POP SWAP3 SWAP2 POP POP JUMP JUMPDEST PUSH1 0x0 DUP2 SWAP1 POP SWAP2 SWAP1 POP JUMP JUMPDEST PUSH1 0x0 PUSH2 0x664 PUSH2 0x65F PUSH2 0x65A DUP5 PUSH2 0x5B4 JUMP JUMPDEST PUSH2 0x63F JUMP JUMPDEST PUSH2 0x5B4 JUMP JUMPDEST SWAP1 POP SWAP2 SWAP1 POP JUMP JUMPDEST PUSH1 0x0 PUSH2 0x676 DUP3 PUSH2 0x649 JUMP JUMPDEST SWAP1 POP SWAP2 SWAP1 POP JUMP JUMPDEST PUSH1 0x0 PUSH2 0x688 DUP3 PUSH2 0x66B JUMP JUMPDEST SWAP1 POP SWAP2 SWAP1 POP JUMP JUMPDEST PUSH2 0x698 DUP2 PUSH2 0x67D JUMP JUMPDEST DUP3 MSTORE POP POP JUMP JUMPDEST PUSH1 0x0 PUSH1 0x20 DUP3 ADD SWAP1 POP PUSH2 0x6B3 PUSH1 0x0 DUP4 ADD DUP5 PUSH2 0x68F JUMP JUMPDEST SWAP3 SWAP2 POP POP JUMP JUMPDEST PUSH1 0x0 DUP2 SWAP1 POP SWAP2 SWAP1 POP JUMP JUMPDEST PUSH2 0x6CC DUP2 PUSH2 0x6B9 JUMP JUMPDEST DUP2 EQ PUSH2 0x6D7 JUMPI PUSH1 0x0 DUP1 REVERT JUMPDEST POP JUMP JUMPDEST PUSH1 0x0 DUP2 CALLDATALOAD SWAP1 POP PUSH2 0x6E9 DUP2 PUSH2 0x6C3 JUMP JUMPDEST SWAP3 SWAP2 POP POP JUMP JUMPDEST PUSH1 0x0 PUSH1 0x20 DUP3 DUP5 SUB SLT ISZERO PUSH2 0x705 JUMPI PUSH2 0x704 PUSH2 0x5AF JUMP JUMPDEST JUMPDEST PUSH1 0x0 PUSH2 0x713 DUP5 DUP3 DUP6 ADD PUSH2 0x6DA JUMP JUMPDEST SWAP2 POP POP SWAP3 SWAP2 POP POP JUMP JUMPDEST PUSH2 0x725 DUP2 PUSH2 0x5D4 JUMP JUMPDEST DUP3 MSTORE POP POP JUMP JUMPDEST PUSH1 0x0 PUSH1 0x20 DUP3 ADD SWAP1 POP PUSH2 0x740 PUSH1 0x0 DUP4 ADD DUP5 PUSH2 0x71C JUMP JUMPDEST SWAP3 SWAP2 POP POP JUMP JUMPDEST PUSH1 0x0 DUP2 MLOAD SWAP1 POP SWAP2 SWAP1 POP JUMP JUMPDEST PUSH1 0x0 DUP3 DUP3 MSTORE PUSH1 0x20 DUP3 ADD SWAP1 POP SWAP3 SWAP2 POP POP JUMP JUMPDEST PUSH1 0x0 DUP2 SWAP1 POP PUSH1 0x20 DUP3 ADD SWAP1 POP SWAP2 SWAP1 POP JUMP JUMPDEST PUSH2 0x77B DUP2 PUSH2 0x67D JUMP JUMPDEST DUP3 MSTORE POP POP JUMP JUMPDEST PUSH1 0x0 PUSH2 0x78D DUP4 DUP4 PUSH2 0x772 JUMP JUMPDEST PUSH1 0x20 DUP4 ADD SWAP1 POP SWAP3 SWAP2 POP POP JUMP JUMPDEST PUSH1 0x0 PUSH1 0x20 DUP3 ADD SWAP1 POP SWAP2 SWAP1 POP JUMP JUMPDEST PUSH1 0x0 PUSH2 0x7B1 DUP3 PUSH2 0x746 JUMP JUMPDEST PUSH2 0x7BB DUP2 DUP6 PUSH2 0x751 JUMP JUMPDEST SWAP4 POP PUSH2 0x7C6 DUP4 PUSH2 0x762 JUMP JUMPDEST DUP1 PUSH1 0x0 JUMPDEST DUP4 DUP2 LT ISZERO PUSH2 0x7F7 JUMPI DUP2 MLOAD PUSH2 0x7DE DUP9 DUP3 PUSH2 0x781 JUMP JUMPDEST SWAP8 POP PUSH2 0x7E9 DUP4 PUSH2 0x799 JUMP JUMPDEST SWAP3 POP POP PUSH1 0x1 DUP2 ADD SWAP1 POP PUSH2 0x7CA JUMP JUMPDEST POP DUP6 SWAP4 POP POP POP POP SWAP3 SWAP2 POP POP JUMP JUMPDEST PUSH1 0x0 PUSH1 0x20 DUP3 ADD SWAP1 POP DUP2 DUP2 SUB PUSH1 0x0 DUP4 ADD MSTORE PUSH2 0x81E DUP2 DUP5 PUSH2 0x7A6 JUMP JUMPDEST SWAP1 POP SWAP3 SWAP2 POP POP JUMP INVALID PUSH1 0x80 PUSH1 0x40 MSTORE CALLVALUE DUP1 ISZERO PUSH3 0x11 JUMPI PUSH1 0x0 DUP1 REVERT JUMPDEST POP PUSH1 0x40 MLOAD PUSH3 0x27A3 CODESIZE SUB DUP1 PUSH3 0x27A3 DUP4 CODECOPY DUP2 DUP2 ADD PUSH1 0x40 MSTORE DUP2 ADD SWAP1 PUSH3 0x37 SWAP2 SWAP1 PUSH3 0xE9 JUMP JUMPDEST DUP1 PUSH1 0x2 PUSH1 0x0 PUSH2 0x100 EXP DUP2 SLOAD DUP2 PUSH20 0xFFFFFFFFFFFFFFFFFFFFFFFFFFFFFFFFFFFFFFFF MUL NOT AND SWAP1 DUP4 PUSH20 0xFFFFFFFFFFFFFFFFFFFFFFFFFFFFFFFFFFFFFFFF AND MUL OR SWAP1 SSTORE POP POP PUSH3 0x11B JUMP JUMPDEST PUSH1 0x0 DUP1 REVERT JUMPDEST PUSH1 0x0 PUSH20 0xFFFFFFFFFFFFFFFFFFFFFFFFFFFFFFFFFFFFFFFF DUP3 AND SWAP1 POP SWAP2 SWAP1 POP JUMP JUMPDEST PUSH1 0x0 PUSH3 0xB1 DUP3 PUSH3 0x84 JUMP JUMPDEST SWAP1 POP SWAP2 SWAP1 POP JUMP JUMPDEST PUSH3 0xC3 DUP2 PUSH3 0xA4 JUMP JUMPDEST DUP2 EQ PUSH3 0xCF JUMPI PUSH1 0x0 DUP1 REVERT JUMPDEST POP JUMP JUMPDEST PUSH1 0x0 DUP2 MLOAD SWAP1 POP PUSH3 0xE3 DUP2 PUSH3 0xB8 JUMP JUMPDEST SWAP3 SWAP2 POP POP JUMP JUMPDEST PUSH1 0x0 PUSH1 0x20 DUP3 DUP5 SUB SLT ISZERO PUSH3 0x102 JUMPI PUSH3 0x101 PUSH3 0x7F JUMP JUMPDEST JUMPDEST PUSH1 0x0 PUSH3 0x112 DUP5 DUP3 DUP6 ADD PUSH3 0xD2 JUMP JUMPDEST SWAP2 POP POP SWAP3 SWAP2 POP POP JUMP JUMPDEST PUSH2 0x2678 DUP1 PUSH3 0x12B PUSH1 0x0 CODECOPY PUSH1 0x0 RETURN INVALID PUSH1 0x80 PUSH1 0x40 MSTORE CALLVALUE DUP1 ISZERO PUSH2 0x10 JUMPI PUSH1 0x0 DUP1 REVERT JUMPDEST POP PUSH1 0x4 CALLDATASIZE LT PUSH2 0xA9 JUMPI PUSH1 0x0 CALLDATALOAD PUSH1 0xE0 SHR DUP1 PUSH4 0x787FD703 GT PUSH2 0x71 JUMPI DUP1 PUSH4 0x787FD703 EQ PUSH2 0x166 JUMPI DUP1 PUSH4 0xADB4D990 EQ PUSH2 0x197 JUMPI DUP1 PUSH4 0xCC3D967B EQ PUSH2 0x1B5 JUMPI DUP1 PUSH4 0xEA00962F EQ PUSH2 0x1ED JUMPI DUP1 PUSH4 0xEDE3A670 EQ PUSH2 0x20B JUMPI DUP1 PUSH4 0xF203C19D EQ PUSH2 0x241 JUMPI PUSH2 0xA9 JUMP JUMPDEST DUP1 PUSH4 0x61DFF9A EQ PUSH2 0xAE JUMPI DUP1 PUSH4 0x91BAC16 EQ PUSH2 0xCA JUMPI DUP1 PUSH4 0x311CC831 EQ PUSH2 0xFB JUMPI DUP1 PUSH4 0x481C6A75 EQ PUSH2 0x117 JUMPI DUP1 PUSH4 0x509FDA0E EQ PUSH2 0x135 JUMPI JUMPDEST PUSH1 0x0 DUP1 REVERT JUMPDEST PUSH2 0xC8 PUSH1 0x4 DUP1 CALLDATASIZE SUB DUP2 ADD SWAP1 PUSH2 0xC3 SWAP2 SWAP1 PUSH2 0x1FF1 JUMP JUMPDEST PUSH2 0x25F JUMP JUMPDEST STOP JUMPDEST PUSH2 0xE4 PUSH1 0x4 DUP1 CALLDATASIZE SUB DUP2 ADD SWAP1 PUSH2 0xDF SWAP2 SWAP1 PUSH2 0x1FF1 JUMP JUMPDEST PUSH2 0x2FD JUMP JUMPDEST PUSH1 0x40 MLOAD PUSH2 0xF2 SWAP3 SWAP2 SWAP1 PUSH2 0x20B7 JUMP JUMPDEST PUSH1 0x40 MLOAD DUP1 SWAP2 SUB SWAP1 RETURN JUMPDEST PUSH2 0x115 PUSH1 0x4 DUP1 CALLDATASIZE SUB DUP2 ADD SWAP1 PUSH2 0x110 SWAP2 SWAP1 PUSH2 0x2223 JUMP JUMPDEST PUSH2 0x558 JUMP JUMPDEST STOP JUMPDEST PUSH2 0x11F PUSH2 0xA76 JUMP JUMPDEST PUSH1 0x40 MLOAD PUSH2 0x12C SWAP2 SWAP1 PUSH2 0x245A JUMP JUMPDEST PUSH1 0x40 MLOAD DUP1 SWAP2 SUB SWAP1 RETURN JUMPDEST PUSH2 0x14F PUSH1 0x4 DUP1 CALLDATASIZE SUB DUP2 ADD SWAP1 PUSH2 0x14A SWAP2 SWAP1 PUSH2 0x1FF1 JUMP JUMPDEST PUSH2 0xA9C JUMP JUMPDEST PUSH1 0x40 MLOAD PUSH2 0x15D SWAP3 SWAP2 SWAP1 PUSH2 0x20B7 JUMP JUMPDEST PUSH1 0x40 MLOAD DUP1 SWAP2 SUB SWAP1 RETURN JUMPDEST PUSH2 0x180 PUSH1 0x4 DUP1 CALLDATASIZE SUB DUP2 ADD SWAP1 PUSH2 0x17B SWAP2 SWAP1 PUSH2 0x1FF1 JUMP JUMPDEST PUSH2 0xCF7 JUMP JUMPDEST PUSH1 0x40 MLOAD PUSH2 0x18E SWAP3 SWAP2 SWAP1 PUSH2 0x20B7 JUMP JUMPDEST PUSH1 0x40 MLOAD DUP1 SWAP2 SUB SWAP1 RETURN JUMPDEST PUSH2 0x19F PUSH2 0xEF9 JUMP JUMPDEST PUSH1 0x40 MLOAD PUSH2 0x1AC SWAP2 SWAP1 PUSH2 0x245A JUMP JUMPDEST PUSH1 0x40 MLOAD DUP1 SWAP2 SUB SWAP1 RETURN JUMPDEST PUSH2 0x1CF PUSH1 0x4 DUP1 CALLDATASIZE SUB DUP2 ADD SWAP1 PUSH2 0x1CA SWAP2 SWAP1 PUSH2 0x1FF1 JUMP JUMPDEST PUSH2 0xF1F JUMP JUMPDEST PUSH1 0x40 MLOAD PUSH2 0x1E4 SWAP10 SWAP9 SWAP8 SWAP7 SWAP6 SWAP5 SWAP4 SWAP3 SWAP2 SWAP1 PUSH2 0x2475 JUMP JUMPDEST PUSH1 0x40 MLOAD DUP1 SWAP2 SUB SWAP1 RETURN JUMPDEST PUSH2 0x1F5 PUSH2 0x1816 JUMP JUMPDEST PUSH1 0x40 MLOAD PUSH2 0x202 SWAP2 SWAP1 PUSH2 0x245A JUMP JUMPDEST PUSH1 0x40 MLOAD DUP1 SWAP2 SUB SWAP1 RETURN JUMPDEST PUSH2 0x225 PUSH1 0x4 DUP1 CALLDATASIZE SUB DUP2 ADD SWAP1 PUSH2 0x220 SWAP2 SWAP1 PUSH2 0x1FF1 JUMP JUMPDEST PUSH2 0x183F JUMP JUMPDEST PUSH1 0x40 MLOAD PUSH2 0x238 SWAP8 SWAP7 SWAP6 SWAP5 SWAP4 SWAP3 SWAP2 SWAP1 PUSH2 0x2541 JUMP JUMPDEST PUSH1 0x40 MLOAD DUP1 SWAP2 SUB SWAP1 RETURN JUMPDEST PUSH2 0x249 PUSH2 0x1EB8 JUMP JUMPDEST PUSH1 0x40 MLOAD PUSH2 0x256 SWAP2 SWAP1 PUSH2 0x245A JUMP JUMPDEST PUSH1 0x40 MLOAD DUP1 SWAP2 SUB SWAP1 RETURN JUMPDEST PUSH1 0x2 PUSH1 0x0 SWAP1 SLOAD SWAP1 PUSH2 0x100 EXP SWAP1 DIV PUSH20 0xFFFFFFFFFFFFFFFFFFFFFFFFFFFFFFFFFFFFFFFF AND PUSH20 0xFFFFFFFFFFFFFFFFFFFFFFFFFFFFFFFFFFFFFFFF AND CALLER PUSH20 0xFFFFFFFFFFFFFFFFFFFFFFFFFFFFFFFFFFFFFFFF AND EQ PUSH2 0x2B9 JUMPI PUSH1 0x0 DUP1 REVERT JUMPDEST DUP1 PUSH1 0x3 PUSH1 0x0 PUSH2 0x100 EXP DUP2 SLOAD DUP2 PUSH20 0xFFFFFFFFFFFFFFFFFFFFFFFFFFFFFFFFFFFFFFFF MUL NOT AND SWAP1 DUP4 PUSH20 0xFFFFFFFFFFFFFFFFFFFFFFFFFFFFFFFFFFFFFFFF AND MUL OR SWAP1 SSTORE POP POP JUMP JUMPDEST PUSH1 0x60 DUP1 PUSH1 0x1 PUSH1 0x0 DUP5 PUSH20 0xFFFFFFFFFFFFFFFFFFFFFFFFFFFFFFFFFFFFFFFF AND PUSH20 0xFFFFFFFFFFFFFFFFFFFFFFFFFFFFFFFFFFFFFFFF AND DUP2 MSTORE PUSH1 0x20 ADD SWAP1 DUP2 MSTORE PUSH1 0x20 ADD PUSH1 0x0 KECCAK256 PUSH1 0x9 ADD PUSH1 0x0 SWAP1 SLOAD SWAP1 PUSH2 0x100 EXP SWAP1 DIV PUSH1 0xFF AND PUSH2 0x359 JUMPI PUSH1 0x0 DUP1 REVERT JUMPDEST PUSH1 0x2 PUSH1 0x0 SWAP1 SLOAD SWAP1 PUSH2 0x100 EXP SWAP1 DIV PUSH20 0xFFFFFFFFFFFFFFFFFFFFFFFFFFFFFFFFFFFFFFFF AND PUSH20 0xFFFFFFFFFFFFFFFFFFFFFFFFFFFFFFFFFFFFFFFF AND DUP4 PUSH20 0xFFFFFFFFFFFFFFFFFFFFFFFFFFFFFFFFFFFFFFFF AND EQ PUSH2 0x3B3 JUMPI PUSH1 0x0 DUP1 REVERT JUMPDEST PUSH1 0x1 PUSH1 0x0 DUP5 PUSH20 0xFFFFFFFFFFFFFFFFFFFFFFFFFFFFFFFFFFFFFFFF AND PUSH20 0xFFFFFFFFFFFFFFFFFFFFFFFFFFFFFFFFFFFFFFFF AND DUP2 MSTORE PUSH1 0x20 ADD SWAP1 DUP2 MSTORE PUSH1 0x20 ADD PUSH1 0x0 KECCAK256 PUSH1 0x7 ADD PUSH1 0x1 PUSH1 0x0 DUP6 PUSH20 0xFFFFFFFFFFFFFFFFFFFFFFFFFFFFFFFFFFFFFFFF AND PUSH20 0xFFFFFFFFFFFFFFFFFFFFFFFFFFFFFFFFFFFFFFFF AND DUP2 MSTORE PUSH1 0x20 ADD SWAP1 DUP2 MSTORE PUSH1 0x20 ADD PUSH1 0x0 KECCAK256 PUSH1 0x8 ADD DUP2 DUP1 SLOAD PUSH2 0x443 SWAP1 PUSH2 0x2610 JUMP JUMPDEST DUP1 PUSH1 0x1F ADD PUSH1 0x20 DUP1 SWAP2 DIV MUL PUSH1 0x20 ADD PUSH1 0x40 MLOAD SWAP1 DUP2 ADD PUSH1 0x40 MSTORE DUP1 SWAP3 SWAP2 SWAP1 DUP2 DUP2 MSTORE PUSH1 0x20 ADD DUP3 DUP1 SLOAD PUSH2 0x46F SWAP1 PUSH2 0x2610 JUMP JUMPDEST DUP1 ISZERO PUSH2 0x4BC JUMPI DUP1 PUSH1 0x1F LT PUSH2 0x491 JUMPI PUSH2 0x100 DUP1 DUP4 SLOAD DIV MUL DUP4 MSTORE SWAP2 PUSH1 0x20 ADD SWAP2 PUSH2 0x4BC JUMP JUMPDEST DUP3 ADD SWAP2 SWAP1 PUSH1 0x0 MSTORE PUSH1 0x20 PUSH1 0x0 KECCAK256 SWAP1 JUMPDEST DUP2 SLOAD DUP2 MSTORE SWAP1 PUSH1 0x1 ADD SWAP1 PUSH1 0x20 ADD DUP1 DUP4 GT PUSH2 0x49F JUMPI DUP3 SWAP1 SUB PUSH1 0x1F AND DUP3 ADD SWAP2 JUMPDEST POP POP POP POP POP SWAP2 POP DUP1 DUP1 SLOAD PUSH2 0x4CF SWAP1 PUSH2 0x2610 JUMP JUMPDEST DUP1 PUSH1 0x1F ADD PUSH1 0x20 DUP1 SWAP2 DIV MUL PUSH1 0x20 ADD PUSH1 0x40 MLOAD SWAP1 DUP2 ADD PUSH1 0x40 MSTORE DUP1 SWAP3 SWAP2 SWAP1 DUP2 DUP2 MSTORE PUSH1 0x20 ADD DUP3 DUP1 SLOAD PUSH2 0x4FB SWAP1 PUSH2 0x2610 JUMP JUMPDEST DUP1 ISZERO PUSH2 0x548 JUMPI DUP1 PUSH1 0x1F LT PUSH2 0x51D JUMPI PUSH2 0x100 DUP1 DUP4 SLOAD DIV MUL DUP4 MSTORE SWAP2 PUSH1 0x20 ADD SWAP2 PUSH2 0x548 JUMP JUMPDEST DUP3 ADD SWAP2 SWAP1 PUSH1 0x0 MSTORE PUSH1 0x20 PUSH1 0x0 KECCAK256 SWAP1 JUMPDEST DUP2 SLOAD DUP2 MSTORE SWAP1 PUSH1 0x1 ADD SWAP1 PUSH1 0x20 ADD DUP1 DUP4 GT PUSH2 0x52B JUMPI DUP3 SWAP1 SUB PUSH1 0x1F AND DUP3 ADD SWAP2 JUMPDEST POP POP POP POP POP SWAP1 POP SWAP2 POP SWAP2 POP SWAP2 POP SWAP2 JUMP JUMPDEST PUSH1 0x2 PUSH1 0x0 SWAP1 SLOAD SWAP1 PUSH2 0x100 EXP SWAP1 DIV PUSH20 0xFFFFFFFFFFFFFFFFFFFFFFFFFFFFFFFFFFFFFFFF AND PUSH20 0xFFFFFFFFFFFFFFFFFFFFFFFFFFFFFFFFFFFFFFFF AND CALLER PUSH20 0xFFFFFFFFFFFFFFFFFFFFFFFFFFFFFFFFFFFFFFFF AND EQ PUSH2 0x5B2 JUMPI PUSH1 0x0 DUP1 REVERT JUMPDEST PUSH1 0x0 CALLER SWAP1 POP PUSH1 0x1 PUSH1 0x0 DUP3 PUSH20 0xFFFFFFFFFFFFFFFFFFFFFFFFFFFFFFFFFFFFFFFF AND PUSH20 0xFFFFFFFFFFFFFFFFFFFFFFFFFFFFFFFFFFFFFFFF AND DUP2 MSTORE PUSH1 0x20 ADD SWAP1 DUP2 MSTORE PUSH1 0x20 ADD PUSH1 0x0 KECCAK256 PUSH1 0x9 ADD PUSH1 0x0 SWAP1 SLOAD SWAP1 PUSH2 0x100 EXP SWAP1 DIV PUSH1 0xFF AND ISZERO PUSH2 0x611 JUMPI PUSH1 0x0 DUP1 REVERT JUMPDEST DUP1 PUSH1 0x0 DUP1 PUSH2 0x100 EXP DUP2 SLOAD DUP2 PUSH20 0xFFFFFFFFFFFFFFFFFFFFFFFFFFFFFFFFFFFFFFFF MUL NOT AND SWAP1 DUP4 PUSH20 0xFFFFFFFFFFFFFFFFFFFFFFFFFFFFFFFFFFFFFFFF AND MUL OR SWAP1 SSTORE POP DUP12 PUSH1 0x1 PUSH1 0x0 DUP4 PUSH20 0xFFFFFFFFFFFFFFFFFFFFFFFFFFFFFFFFFFFFFFFF AND PUSH20 0xFFFFFFFFFFFFFFFFFFFFFFFFFFFFFFFFFFFFFFFF AND DUP2 MSTORE PUSH1 0x20 ADD SWAP1 DUP2 MSTORE PUSH1 0x20 ADD PUSH1 0x0 KECCAK256 PUSH1 0x0 ADD SWAP1 DUP1 MLOAD SWAP1 PUSH1 0x20 ADD SWAP1 PUSH2 0x6A7 SWAP3 SWAP2 SWAP1 PUSH2 0x1EDC JUMP JUMPDEST POP DUP11 PUSH1 0x1 PUSH1 0x0 DUP4 PUSH20 0xFFFFFFFFFFFFFFFFFFFFFFFFFFFFFFFFFFFFFFFF AND PUSH20 0xFFFFFFFFFFFFFFFFFFFFFFFFFFFFFFFFFFFFFFFF AND DUP2 MSTORE PUSH1 0x20 ADD SWAP1 DUP2 MSTORE PUSH1 0x20 ADD PUSH1 0x0 KECCAK256 PUSH1 0x1 ADD SWAP1 DUP1 MLOAD SWAP1 PUSH1 0x20 ADD SWAP1 PUSH2 0x6FE SWAP3 SWAP2 SWAP1 PUSH2 0x1EDC JUMP JUMPDEST POP DUP10 PUSH1 0x1 PUSH1 0x0 DUP4 PUSH20 0xFFFFFFFFFFFFFFFFFFFFFFFFFFFFFFFFFFFFFFFF AND PUSH20 0xFFFFFFFFFFFFFFFFFFFFFFFFFFFFFFFFFFFFFFFF AND DUP2 MSTORE PUSH1 0x20 ADD SWAP1 DUP2 MSTORE PUSH1 0x20 ADD PUSH1 0x0 KECCAK256 PUSH1 0x2 ADD SWAP1 DUP1 MLOAD SWAP1 PUSH1 0x20 ADD SWAP1 PUSH2 0x755 SWAP3 SWAP2 SWAP1 PUSH2 0x1EDC JUMP JUMPDEST POP DUP9 PUSH1 0x1 PUSH1 0x0 DUP4 PUSH20 0xFFFFFFFFFFFFFFFFFFFFFFFFFFFFFFFFFFFFFFFF AND PUSH20 0xFFFFFFFFFFFFFFFFFFFFFFFFFFFFFFFFFFFFFFFF AND DUP2 MSTORE PUSH1 0x20 ADD SWAP1 DUP2 MSTORE PUSH1 0x20 ADD PUSH1 0x0 KECCAK256 PUSH1 0x3 ADD SWAP1 DUP1 MLOAD SWAP1 PUSH1 0x20 ADD SWAP1 PUSH2 0x7AC SWAP3 SWAP2 SWAP1 PUSH2 0x1EDC JUMP JUMPDEST POP DUP8 PUSH1 0x1 PUSH1 0x0 DUP4 PUSH20 0xFFFFFFFFFFFFFFFFFFFFFFFFFFFFFFFFFFFFFFFF AND PUSH20 0xFFFFFFFFFFFFFFFFFFFFFFFFFFFFFFFFFFFFFFFF AND DUP2 MSTORE PUSH1 0x20 ADD SWAP1 DUP2 MSTORE PUSH1 0x20 ADD PUSH1 0x0 KECCAK256 PUSH1 0x4 ADD SWAP1 DUP1 MLOAD SWAP1 PUSH1 0x20 ADD SWAP1 PUSH2 0x803 SWAP3 SWAP2 SWAP1 PUSH2 0x1EDC JUMP JUMPDEST POP DUP7 PUSH1 0x1 PUSH1 0x0 DUP4 PUSH20 0xFFFFFFFFFFFFFFFFFFFFFFFFFFFFFFFFFFFFFFFF AND PUSH20 0xFFFFFFFFFFFFFFFFFFFFFFFFFFFFFFFFFFFFFFFF AND DUP2 MSTORE PUSH1 0x20 ADD SWAP1 DUP2 MSTORE PUSH1 0x20 ADD PUSH1 0x0 KECCAK256 PUSH1 0x5 ADD SWAP1 DUP1 MLOAD SWAP1 PUSH1 0x20 ADD SWAP1 PUSH2 0x85A SWAP3 SWAP2 SWAP1 PUSH2 0x1EDC JUMP JUMPDEST POP DUP6 PUSH1 0x1 PUSH1 0x0 DUP4 PUSH20 0xFFFFFFFFFFFFFFFFFFFFFFFFFFFFFFFFFFFFFFFF AND PUSH20 0xFFFFFFFFFFFFFFFFFFFFFFFFFFFFFFFFFFFFFFFF AND DUP2 MSTORE PUSH1 0x20 ADD SWAP1 DUP2 MSTORE PUSH1 0x20 ADD PUSH1 0x0 KECCAK256 PUSH1 0x6 ADD SWAP1 DUP1 MLOAD SWAP1 PUSH1 0x20 ADD SWAP1 PUSH2 0x8B1 SWAP3 SWAP2 SWAP1 PUSH2 0x1EDC JUMP JUMPDEST POP DUP5 PUSH1 0x1 PUSH1 0x0 DUP4 PUSH20 0xFFFFFFFFFFFFFFFFFFFFFFFFFFFFFFFFFFFFFFFF AND PUSH20 0xFFFFFFFFFFFFFFFFFFFFFFFFFFFFFFFFFFFFFFFF AND DUP2 MSTORE PUSH1 0x20 ADD SWAP1 DUP2 MSTORE PUSH1 0x20 ADD PUSH1 0x0 KECCAK256 PUSH1 0x7 ADD SWAP1 DUP1 MLOAD SWAP1 PUSH1 0x20 ADD SWAP1 PUSH2 0x908 SWAP3 SWAP2 SWAP1 PUSH2 0x1EDC JUMP JUMPDEST POP DUP4 PUSH1 0x1 PUSH1 0x0 DUP4 PUSH20 0xFFFFFFFFFFFFFFFFFFFFFFFFFFFFFFFFFFFFFFFF AND PUSH20 0xFFFFFFFFFFFFFFFFFFFFFFFFFFFFFFFFFFFFFFFF AND DUP2 MSTORE PUSH1 0x20 ADD SWAP1 DUP2 MSTORE PUSH1 0x20 ADD PUSH1 0x0 KECCAK256 PUSH1 0x8 ADD SWAP1 DUP1 MLOAD SWAP1 PUSH1 0x20 ADD SWAP1 PUSH2 0x95F SWAP3 SWAP2 SWAP1 PUSH2 0x1EDC JUMP JUMPDEST POP DUP3 PUSH1 0x1 PUSH1 0x0 DUP4 PUSH20 0xFFFFFFFFFFFFFFFFFFFFFFFFFFFFFFFFFFFFFFFF AND PUSH20 0xFFFFFFFFFFFFFFFFFFFFFFFFFFFFFFFFFFFFFFFF AND DUP2 MSTORE PUSH1 0x20 ADD SWAP1 DUP2 MSTORE PUSH1 0x20 ADD PUSH1 0x0 KECCAK256 PUSH1 0xA ADD SWAP1 DUP1 MLOAD SWAP1 PUSH1 0x20 ADD SWAP1 PUSH2 0x9B6 SWAP3 SWAP2 SWAP1 PUSH2 0x1EDC JUMP JUMPDEST POP DUP2 PUSH1 0x1 PUSH1 0x0 DUP4 PUSH20 0xFFFFFFFFFFFFFFFFFFFFFFFFFFFFFFFFFFFFFFFF AND PUSH20 0xFFFFFFFFFFFFFFFFFFFFFFFFFFFFFFFFFFFFFFFF AND DUP2 MSTORE PUSH1 0x20 ADD SWAP1 DUP2 MSTORE PUSH1 0x20 ADD PUSH1 0x0 KECCAK256 PUSH1 0xB ADD SWAP1 DUP1 MLOAD SWAP1 PUSH1 0x20 ADD SWAP1 PUSH2 0xA0D SWAP3 SWAP2 SWAP1 PUSH2 0x1EDC JUMP JUMPDEST POP PUSH1 0x1 DUP1 PUSH1 0x0 DUP4 PUSH20 0xFFFFFFFFFFFFFFFFFFFFFFFFFFFFFFFFFFFFFFFF AND PUSH20 0xFFFFFFFFFFFFFFFFFFFFFFFFFFFFFFFFFFFFFFFF AND DUP2 MSTORE PUSH1 0x20 ADD SWAP1 DUP2 MSTORE PUSH1 0x20 ADD PUSH1 0x0 KECCAK256 PUSH1 0x9 ADD PUSH1 0x0 PUSH2 0x100 EXP DUP2 SLOAD DUP2 PUSH1 0xFF MUL NOT AND SWAP1 DUP4 ISZERO ISZERO MUL OR SWAP1 SSTORE POP POP POP POP POP POP POP POP POP POP POP POP POP JUMP JUMPDEST PUSH1 0x2 PUSH1 0x0 SWAP1 SLOAD SWAP1 PUSH2 0x100 EXP SWAP1 DIV PUSH20 0xFFFFFFFFFFFFFFFFFFFFFFFFFFFFFFFFFFFFFFFF AND DUP2 JUMP JUMPDEST PUSH1 0x60 DUP1 PUSH1 0x1 PUSH1 0x0 DUP5 PUSH20 0xFFFFFFFFFFFFFFFFFFFFFFFFFFFFFFFFFFFFFFFF AND PUSH20 0xFFFFFFFFFFFFFFFFFFFFFFFFFFFFFFFFFFFFFFFF AND DUP2 MSTORE PUSH1 0x20 ADD SWAP1 DUP2 MSTORE PUSH1 0x20 ADD PUSH1 0x0 KECCAK256 PUSH1 0x9 ADD PUSH1 0x0 SWAP1 SLOAD SWAP1 PUSH2 0x100 EXP SWAP1 DIV PUSH1 0xFF AND PUSH2 0xAF8 JUMPI PUSH1 0x0 DUP1 REVERT JUMPDEST PUSH1 0x2 PUSH1 0x0 SWAP1 SLOAD SWAP1 PUSH2 0x100 EXP SWAP1 DIV PUSH20 0xFFFFFFFFFFFFFFFFFFFFFFFFFFFFFFFFFFFFFFFF AND PUSH20 0xFFFFFFFFFFFFFFFFFFFFFFFFFFFFFFFFFFFFFFFF AND DUP4 PUSH20 0xFFFFFFFFFFFFFFFFFFFFFFFFFFFFFFFFFFFFFFFF AND EQ PUSH2 0xB52 JUMPI PUSH1 0x0 DUP1 REVERT JUMPDEST PUSH1 0x1 PUSH1 0x0 DUP5 PUSH20 0xFFFFFFFFFFFFFFFFFFFFFFFFFFFFFFFFFFFFFFFF AND PUSH20 0xFFFFFFFFFFFFFFFFFFFFFFFFFFFFFFFFFFFFFFFF AND DUP2 MSTORE PUSH1 0x20 ADD SWAP1 DUP2 MSTORE PUSH1 0x20 ADD PUSH1 0x0 KECCAK256 PUSH1 0xA ADD PUSH1 0x1 PUSH1 0x0 DUP6 PUSH20 0xFFFFFFFFFFFFFFFFFFFFFFFFFFFFFFFFFFFFFFFF AND PUSH20 0xFFFFFFFFFFFFFFFFFFFFFFFFFFFFFFFFFFFFFFFF AND DUP2 MSTORE PUSH1 0x20 ADD SWAP1 DUP2 MSTORE PUSH1 0x20 ADD PUSH1 0x0 KECCAK256 PUSH1 0xB ADD DUP2 DUP1 SLOAD PUSH2 0xBE2 SWAP1 PUSH2 0x2610 JUMP JUMPDEST DUP1 PUSH1 0x1F ADD PUSH1 0x20 DUP1 SWAP2 DIV MUL PUSH1 0x20 ADD PUSH1 0x40 MLOAD SWAP1 DUP2 ADD PUSH1 0x40 MSTORE DUP1 SWAP3 SWAP2 SWAP1 DUP2 DUP2 MSTORE PUSH1 0x20 ADD DUP3 DUP1 SLOAD PUSH2 0xC0E SWAP1 PUSH2 0x2610 JUMP JUMPDEST DUP1 ISZERO PUSH2 0xC5B JUMPI DUP1 PUSH1 0x1F LT PUSH2 0xC30 JUMPI PUSH2 0x100 DUP1 DUP4 SLOAD DIV MUL DUP4 MSTORE SWAP2 PUSH1 0x20 ADD SWAP2 PUSH2 0xC5B JUMP JUMPDEST DUP3 ADD SWAP2 SWAP1 PUSH1 0x0 MSTORE PUSH1 0x20 PUSH1 0x0 KECCAK256 SWAP1 JUMPDEST DUP2 SLOAD DUP2 MSTORE SWAP1 PUSH1 0x1 ADD SWAP1 PUSH1 0x20 ADD DUP1 DUP4 GT PUSH2 0xC3E JUMPI DUP3 SWAP1 SUB PUSH1 0x1F AND DUP3 ADD SWAP2 JUMPDEST POP POP POP POP POP SWAP2 POP DUP1 DUP1 SLOAD PUSH2 0xC6E SWAP1 PUSH2 0x2610 JUMP JUMPDEST DUP1 PUSH1 0x1F ADD PUSH1 0x20 DUP1 SWAP2 DIV MUL PUSH1 0x20 ADD PUSH1 0x40 MLOAD SWAP1 DUP2 ADD PUSH1 0x40 MSTORE DUP1 SWAP3 SWAP2 SWAP1 DUP2 DUP2 MSTORE PUSH1 0x20 ADD DUP3 DUP1 SLOAD PUSH2 0xC9A SWAP1 PUSH2 0x2610 JUMP JUMPDEST DUP1 ISZERO PUSH2 0xCE7 JUMPI DUP1 PUSH1 0x1F LT PUSH2 0xCBC JUMPI PUSH2 0x100 DUP1 DUP4 SLOAD DIV MUL DUP4 MSTORE SWAP2 PUSH1 0x20 ADD SWAP2 PUSH2 0xCE7 JUMP JUMPDEST DUP3 ADD SWAP2 SWAP1 PUSH1 0x0 MSTORE PUSH1 0x20 PUSH1 0x0 KECCAK256 SWAP1 JUMPDEST DUP2 SLOAD DUP2 MSTORE SWAP1 PUSH1 0x1 ADD SWAP1 PUSH1 0x20 ADD DUP1 DUP4 GT PUSH2 0xCCA JUMPI DUP3 SWAP1 SUB PUSH1 0x1F AND DUP3 ADD SWAP2 JUMPDEST POP POP POP POP POP SWAP1 POP SWAP2 POP SWAP2 POP SWAP2 POP SWAP2 JUMP JUMPDEST PUSH1 0x60 DUP1 DUP3 PUSH20 0xFFFFFFFFFFFFFFFFFFFFFFFFFFFFFFFFFFFFFFFF AND PUSH1 0x3 PUSH1 0x0 SWAP1 SLOAD SWAP1 PUSH2 0x100 EXP SWAP1 DIV PUSH20 0xFFFFFFFFFFFFFFFFFFFFFFFFFFFFFFFFFFFFFFFF AND PUSH20 0xFFFFFFFFFFFFFFFFFFFFFFFFFFFFFFFFFFFFFFFF AND EQ PUSH2 0xD54 JUMPI PUSH1 0x0 DUP1 REVERT JUMPDEST PUSH1 0x1 PUSH1 0x0 DUP5 PUSH20 0xFFFFFFFFFFFFFFFFFFFFFFFFFFFFFFFFFFFFFFFF AND PUSH20 0xFFFFFFFFFFFFFFFFFFFFFFFFFFFFFFFFFFFFFFFF AND DUP2 MSTORE PUSH1 0x20 ADD SWAP1 DUP2 MSTORE PUSH1 0x20 ADD PUSH1 0x0 KECCAK256 PUSH1 0xA ADD PUSH1 0x1 PUSH1 0x0 DUP6 PUSH20 0xFFFFFFFFFFFFFFFFFFFFFFFFFFFFFFFFFFFFFFFF AND PUSH20 0xFFFFFFFFFFFFFFFFFFFFFFFFFFFFFFFFFFFFFFFF AND DUP2 MSTORE PUSH1 0x20 ADD SWAP1 DUP2 MSTORE PUSH1 0x20 ADD PUSH1 0x0 KECCAK256 PUSH1 0xB ADD DUP2 DUP1 SLOAD PUSH2 0xDE4 SWAP1 PUSH2 0x2610 JUMP JUMPDEST DUP1 PUSH1 0x1F ADD PUSH1 0x20 DUP1 SWAP2 DIV MUL PUSH1 0x20 ADD PUSH1 0x40 MLOAD SWAP1 DUP2 ADD PUSH1 0x40 MSTORE DUP1 SWAP3 SWAP2 SWAP1 DUP2 DUP2 MSTORE PUSH1 0x20 ADD DUP3 DUP1 SLOAD PUSH2 0xE10 SWAP1 PUSH2 0x2610 JUMP JUMPDEST DUP1 ISZERO PUSH2 0xE5D JUMPI DUP1 PUSH1 0x1F LT PUSH2 0xE32 JUMPI PUSH2 0x100 DUP1 DUP4 SLOAD DIV MUL DUP4 MSTORE SWAP2 PUSH1 0x20 ADD SWAP2 PUSH2 0xE5D JUMP JUMPDEST DUP3 ADD SWAP2 SWAP1 PUSH1 0x0 MSTORE PUSH1 0x20 PUSH1 0x0 KECCAK256 SWAP1 JUMPDEST DUP2 SLOAD DUP2 MSTORE SWAP1 PUSH1 0x1 ADD SWAP1 PUSH1 0x20 ADD DUP1 DUP4 GT PUSH2 0xE40 JUMPI DUP3 SWAP1 SUB PUSH1 0x1F AND DUP3 ADD SWAP2 JUMPDEST POP POP POP POP POP SWAP2 POP DUP1 DUP1 SLOAD PUSH2 0xE70 SWAP1 PUSH2 0x2610 JUMP JUMPDEST DUP1 PUSH1 0x1F ADD PUSH1 0x20 DUP1 SWAP2 DIV MUL PUSH1 0x20 ADD PUSH1 0x40 MLOAD SWAP1 DUP2 ADD PUSH1 0x40 MSTORE DUP1 SWAP3 SWAP2 SWAP1 DUP2 DUP2 MSTORE PUSH1 0x20 ADD DUP3 DUP1 SLOAD PUSH2 0xE9C SWAP1 PUSH2 0x2610 JUMP JUMPDEST DUP1 ISZERO PUSH2 0xEE9 JUMPI DUP1 PUSH1 0x1F LT PUSH2 0xEBE JUMPI PUSH2 0x100 DUP1 DUP4 SLOAD DIV MUL DUP4 MSTORE SWAP2 PUSH1 0x20 ADD SWAP2 PUSH2 0xEE9 JUMP JUMPDEST DUP3 ADD SWAP2 SWAP1 PUSH1 0x0 MSTORE PUSH1 0x20 PUSH1 0x0 KECCAK256 SWAP1 JUMPDEST DUP2 SLOAD DUP2 MSTORE SWAP1 PUSH1 0x1 ADD SWAP1 PUSH1 0x20 ADD DUP1 DUP4 GT PUSH2 0xECC JUMPI DUP3 SWAP1 SUB PUSH1 0x1F AND DUP3 ADD SWAP2 JUMPDEST POP POP POP POP POP SWAP1 POP SWAP2 POP SWAP2 POP SWAP2 POP SWAP2 JUMP JUMPDEST PUSH1 0x3 PUSH1 0x0 SWAP1 SLOAD SWAP1 PUSH2 0x100 EXP SWAP1 DIV PUSH20 0xFFFFFFFFFFFFFFFFFFFFFFFFFFFFFFFFFFFFFFFF AND DUP2 JUMP JUMPDEST PUSH1 0x60 DUP1 PUSH1 0x60 DUP1 PUSH1 0x60 DUP1 PUSH1 0x60 DUP1 PUSH1 0x60 DUP10 PUSH20 0xFFFFFFFFFFFFFFFFFFFFFFFFFFFFFFFFFFFFFFFF AND PUSH1 0x3 PUSH1 0x0 SWAP1 SLOAD SWAP1 PUSH2 0x100 EXP SWAP1 DIV PUSH20 0xFFFFFFFFFFFFFFFFFFFFFFFFFFFFFFFFFFFFFFFF AND PUSH20 0xFFFFFFFFFFFFFFFFFFFFFFFFFFFFFFFFFFFFFFFF AND EQ PUSH2 0xF87 JUMPI PUSH1 0x0 DUP1 REVERT JUMPDEST PUSH1 0x1 PUSH1 0x0 PUSH1 0x2 PUSH1 0x0 SWAP1 SLOAD SWAP1 PUSH2 0x100 EXP SWAP1 DIV PUSH20 0xFFFFFFFFFFFFFFFFFFFFFFFFFFFFFFFFFFFFFFFF AND PUSH20 0xFFFFFFFFFFFFFFFFFFFFFFFFFFFFFFFFFFFFFFFF AND PUSH20 0xFFFFFFFFFFFFFFFFFFFFFFFFFFFFFFFFFFFFFFFF AND DUP2 MSTORE PUSH1 0x20 ADD SWAP1 DUP2 MSTORE PUSH1 0x20 ADD PUSH1 0x0 KECCAK256 PUSH1 0x0 ADD PUSH1 0x1 PUSH1 0x0 PUSH1 0x2 PUSH1 0x0 SWAP1 SLOAD SWAP1 PUSH2 0x100 EXP SWAP1 DIV PUSH20 0xFFFFFFFFFFFFFFFFFFFFFFFFFFFFFFFFFFFFFFFF AND PUSH20 0xFFFFFFFFFFFFFFFFFFFFFFFFFFFFFFFFFFFFFFFF AND PUSH20 0xFFFFFFFFFFFFFFFFFFFFFFFFFFFFFFFFFFFFFFFF AND DUP2 MSTORE PUSH1 0x20 ADD SWAP1 DUP2 MSTORE PUSH1 0x20 ADD PUSH1 0x0 KECCAK256 PUSH1 0x1 ADD PUSH1 0x1 PUSH1 0x0 PUSH1 0x2 PUSH1 0x0 SWAP1 SLOAD SWAP1 PUSH2 0x100 EXP SWAP1 DIV PUSH20 0xFFFFFFFFFFFFFFFFFFFFFFFFFFFFFFFFFFFFFFFF AND PUSH20 0xFFFFFFFFFFFFFFFFFFFFFFFFFFFFFFFFFFFFFFFF AND PUSH20 0xFFFFFFFFFFFFFFFFFFFFFFFFFFFFFFFFFFFFFFFF AND DUP2 MSTORE PUSH1 0x20 ADD SWAP1 DUP2 MSTORE PUSH1 0x20 ADD PUSH1 0x0 KECCAK256 PUSH1 0x2 ADD PUSH1 0x1 PUSH1 0x0 PUSH1 0x2 PUSH1 0x0 SWAP1 SLOAD SWAP1 PUSH2 0x100 EXP SWAP1 DIV PUSH20 0xFFFFFFFFFFFFFFFFFFFFFFFFFFFFFFFFFFFFFFFF AND PUSH20 0xFFFFFFFFFFFFFFFFFFFFFFFFFFFFFFFFFFFFFFFF AND PUSH20 0xFFFFFFFFFFFFFFFFFFFFFFFFFFFFFFFFFFFFFFFF AND DUP2 MSTORE PUSH1 0x20 ADD SWAP1 DUP2 MSTORE PUSH1 0x20 ADD PUSH1 0x0 KECCAK256 PUSH1 0x3 ADD PUSH1 0x1 PUSH1 0x0 PUSH1 0x2 PUSH1 0x0 SWAP1 SLOAD SWAP1 PUSH2 0x100 EXP SWAP1 DIV PUSH20 0xFFFFFFFFFFFFFFFFFFFFFFFFFFFFFFFFFFFFFFFF AND PUSH20 0xFFFFFFFFFFFFFFFFFFFFFFFFFFFFFFFFFFFFFFFF AND PUSH20 0xFFFFFFFFFFFFFFFFFFFFFFFFFFFFFFFFFFFFFFFF AND DUP2 MSTORE PUSH1 0x20 ADD SWAP1 DUP2 MSTORE PUSH1 0x20 ADD PUSH1 0x0 KECCAK256 PUSH1 0x4 ADD PUSH1 0x1 PUSH1 0x0 PUSH1 0x2 PUSH1 0x0 SWAP1 SLOAD SWAP1 PUSH2 0x100 EXP SWAP1 DIV PUSH20 0xFFFFFFFFFFFFFFFFFFFFFFFFFFFFFFFFFFFFFFFF AND PUSH20 0xFFFFFFFFFFFFFFFFFFFFFFFFFFFFFFFFFFFFFFFF AND PUSH20 0xFFFFFFFFFFFFFFFFFFFFFFFFFFFFFFFFFFFFFFFF AND DUP2 MSTORE PUSH1 0x20 ADD SWAP1 DUP2 MSTORE PUSH1 0x20 ADD PUSH1 0x0 KECCAK256 PUSH1 0x5 ADD PUSH1 0x1 PUSH1 0x0 PUSH1 0x2 PUSH1 0x0 SWAP1 SLOAD SWAP1 PUSH2 0x100 EXP SWAP1 DIV PUSH20 0xFFFFFFFFFFFFFFFFFFFFFFFFFFFFFFFFFFFFFFFF AND PUSH20 0xFFFFFFFFFFFFFFFFFFFFFFFFFFFFFFFFFFFFFFFF AND PUSH20 0xFFFFFFFFFFFFFFFFFFFFFFFFFFFFFFFFFFFFFFFF AND DUP2 MSTORE PUSH1 0x20 ADD SWAP1 DUP2 MSTORE PUSH1 0x20 ADD PUSH1 0x0 KECCAK256 PUSH1 0x6 ADD PUSH1 0x1 PUSH1 0x0 PUSH1 0x2 PUSH1 0x0 SWAP1 SLOAD SWAP1 PUSH2 0x100 EXP SWAP1 DIV PUSH20 0xFFFFFFFFFFFFFFFFFFFFFFFFFFFFFFFFFFFFFFFF AND PUSH20 0xFFFFFFFFFFFFFFFFFFFFFFFFFFFFFFFFFFFFFFFF AND PUSH20 0xFFFFFFFFFFFFFFFFFFFFFFFFFFFFFFFFFFFFFFFF AND DUP2 MSTORE PUSH1 0x20 ADD SWAP1 DUP2 MSTORE PUSH1 0x20 ADD PUSH1 0x0 KECCAK256 PUSH1 0x7 ADD PUSH1 0x1 PUSH1 0x0 PUSH1 0x2 PUSH1 0x0 SWAP1 SLOAD SWAP1 PUSH2 0x100 EXP SWAP1 DIV PUSH20 0xFFFFFFFFFFFFFFFFFFFFFFFFFFFFFFFFFFFFFFFF AND PUSH20 0xFFFFFFFFFFFFFFFFFFFFFFFFFFFFFFFFFFFFFFFF AND PUSH20 0xFFFFFFFFFFFFFFFFFFFFFFFFFFFFFFFFFFFFFFFF AND DUP2 MSTORE PUSH1 0x20 ADD SWAP1 DUP2 MSTORE PUSH1 0x20 ADD PUSH1 0x0 KECCAK256 PUSH1 0x8 ADD DUP9 DUP1 SLOAD PUSH2 0x1317 SWAP1 PUSH2 0x2610 JUMP JUMPDEST DUP1 PUSH1 0x1F ADD PUSH1 0x20 DUP1 SWAP2 DIV MUL PUSH1 0x20 ADD PUSH1 0x40 MLOAD SWAP1 DUP2 ADD PUSH1 0x40 MSTORE DUP1 SWAP3 SWAP2 SWAP1 DUP2 DUP2 MSTORE PUSH1 0x20 ADD DUP3 DUP1 SLOAD PUSH2 0x1343 SWAP1 PUSH2 0x2610 JUMP JUMPDEST DUP1 ISZERO PUSH2 0x1390 JUMPI DUP1 PUSH1 0x1F LT PUSH2 0x1365 JUMPI PUSH2 0x100 DUP1 DUP4 SLOAD DIV MUL DUP4 MSTORE SWAP2 PUSH1 0x20 ADD SWAP2 PUSH2 0x1390 JUMP JUMPDEST DUP3 ADD SWAP2 SWAP1 PUSH1 0x0 MSTORE PUSH1 0x20 PUSH1 0x0 KECCAK256 SWAP1 JUMPDEST DUP2 SLOAD DUP2 MSTORE SWAP1 PUSH1 0x1 ADD SWAP1 PUSH1 0x20 ADD DUP1 DUP4 GT PUSH2 0x1373 JUMPI DUP3 SWAP1 SUB PUSH1 0x1F AND DUP3 ADD SWAP2 JUMPDEST POP POP POP POP POP SWAP9 POP DUP8 DUP1 SLOAD PUSH2 0x13A3 SWAP1 PUSH2 0x2610 JUMP JUMPDEST DUP1 PUSH1 0x1F ADD PUSH1 0x20 DUP1 SWAP2 DIV MUL PUSH1 0x20 ADD PUSH1 0x40 MLOAD SWAP1 DUP2 ADD PUSH1 0x40 MSTORE DUP1 SWAP3 SWAP2 SWAP1 DUP2 DUP2 MSTORE PUSH1 0x20 ADD DUP3 DUP1 SLOAD PUSH2 0x13CF SWAP1 PUSH2 0x2610 JUMP JUMPDEST DUP1 ISZERO PUSH2 0x141C JUMPI DUP1 PUSH1 0x1F LT PUSH2 0x13F1 JUMPI PUSH2 0x100 DUP1 DUP4 SLOAD DIV MUL DUP4 MSTORE SWAP2 PUSH1 0x20 ADD SWAP2 PUSH2 0x141C JUMP JUMPDEST DUP3 ADD SWAP2 SWAP1 PUSH1 0x0 MSTORE PUSH1 0x20 PUSH1 0x0 KECCAK256 SWAP1 JUMPDEST DUP2 SLOAD DUP2 MSTORE SWAP1 PUSH1 0x1 ADD SWAP1 PUSH1 0x20 ADD DUP1 DUP4 GT PUSH2 0x13FF JUMPI DUP3 SWAP1 SUB PUSH1 0x1F AND DUP3 ADD SWAP2 JUMPDEST POP POP POP POP POP SWAP8 POP DUP7 DUP1 SLOAD PUSH2 0x142F SWAP1 PUSH2 0x2610 JUMP JUMPDEST DUP1 PUSH1 0x1F ADD PUSH1 0x20 DUP1 SWAP2 DIV MUL PUSH1 0x20 ADD PUSH1 0x40 MLOAD SWAP1 DUP2 ADD PUSH1 0x40 MSTORE DUP1 SWAP3 SWAP2 SWAP1 DUP2 DUP2 MSTORE PUSH1 0x20 ADD DUP3 DUP1 SLOAD PUSH2 0x145B SWAP1 PUSH2 0x2610 JUMP JUMPDEST DUP1 ISZERO PUSH2 0x14A8 JUMPI DUP1 PUSH1 0x1F LT PUSH2 0x147D JUMPI PUSH2 0x100 DUP1 DUP4 SLOAD DIV MUL DUP4 MSTORE SWAP2 PUSH1 0x20 ADD SWAP2 PUSH2 0x14A8 JUMP JUMPDEST DUP3 ADD SWAP2 SWAP1 PUSH1 0x0 MSTORE PUSH1 0x20 PUSH1 0x0 KECCAK256 SWAP1 JUMPDEST DUP2 SLOAD DUP2 MSTORE SWAP1 PUSH1 0x1 ADD SWAP1 PUSH1 0x20 ADD DUP1 DUP4 GT PUSH2 0x148B JUMPI DUP3 SWAP1 SUB PUSH1 0x1F AND DUP3 ADD SWAP2 JUMPDEST POP POP POP POP POP SWAP7 POP DUP6 DUP1 SLOAD PUSH2 0x14BB SWAP1 PUSH2 0x2610 JUMP JUMPDEST DUP1 PUSH1 0x1F ADD PUSH1 0x20 DUP1 SWAP2 DIV MUL PUSH1 0x20 ADD PUSH1 0x40 MLOAD SWAP1 DUP2 ADD PUSH1 0x40 MSTORE DUP1 SWAP3 SWAP2 SWAP1 DUP2 DUP2 MSTORE PUSH1 0x20 ADD DUP3 DUP1 SLOAD PUSH2 0x14E7 SWAP1 PUSH2 0x2610 JUMP JUMPDEST DUP1 ISZERO PUSH2 0x1534 JUMPI DUP1 PUSH1 0x1F LT PUSH2 0x1509 JUMPI PUSH2 0x100 DUP1 DUP4 SLOAD DIV MUL DUP4 MSTORE SWAP2 PUSH1 0x20 ADD SWAP2 PUSH2 0x1534 JUMP JUMPDEST DUP3 ADD SWAP2 SWAP1 PUSH1 0x0 MSTORE PUSH1 0x20 PUSH1 0x0 KECCAK256 SWAP1 JUMPDEST DUP2 SLOAD DUP2 MSTORE SWAP1 PUSH1 0x1 ADD SWAP1 PUSH1 0x20 ADD DUP1 DUP4 GT PUSH2 0x1517 JUMPI DUP3 SWAP1 SUB PUSH1 0x1F AND DUP3 ADD SWAP2 JUMPDEST POP POP POP POP POP SWAP6 POP DUP5 DUP1 SLOAD PUSH2 0x1547 SWAP1 PUSH2 0x2610 JUMP JUMPDEST DUP1 PUSH1 0x1F ADD PUSH1 0x20 DUP1 SWAP2 DIV MUL PUSH1 0x20 ADD PUSH1 0x40 MLOAD SWAP1 DUP2 ADD PUSH1 0x40 MSTORE DUP1 SWAP3 SWAP2 SWAP1 DUP2 DUP2 MSTORE PUSH1 0x20 ADD DUP3 DUP1 SLOAD PUSH2 0x1573 SWAP1 PUSH2 0x2610 JUMP JUMPDEST DUP1 ISZERO PUSH2 0x15C0 JUMPI DUP1 PUSH1 0x1F LT PUSH2 0x1595 JUMPI PUSH2 0x100 DUP1 DUP4 SLOAD DIV MUL DUP4 MSTORE SWAP2 PUSH1 0x20 ADD SWAP2 PUSH2 0x15C0 JUMP JUMPDEST DUP3 ADD SWAP2 SWAP1 PUSH1 0x0 MSTORE PUSH1 0x20 PUSH1 0x0 KECCAK256 SWAP1 JUMPDEST DUP2 SLOAD DUP2 MSTORE SWAP1 PUSH1 0x1 ADD SWAP1 PUSH1 0x20 ADD DUP1 DUP4 GT PUSH2 0x15A3 JUMPI DUP3 SWAP1 SUB PUSH1 0x1F AND DUP3 ADD SWAP2 JUMPDEST POP POP POP POP POP SWAP5 POP DUP4 DUP1 SLOAD PUSH2 0x15D3 SWAP1 PUSH2 0x2610 JUMP JUMPDEST DUP1 PUSH1 0x1F ADD PUSH1 0x20 DUP1 SWAP2 DIV MUL PUSH1 0x20 ADD PUSH1 0x40 MLOAD SWAP1 DUP2 ADD PUSH1 0x40 MSTORE DUP1 SWAP3 SWAP2 SWAP1 DUP2 DUP2 MSTORE PUSH1 0x20 ADD DUP3 DUP1 SLOAD PUSH2 0x15FF SWAP1 PUSH2 0x2610 JUMP JUMPDEST DUP1 ISZERO PUSH2 0x164C JUMPI DUP1 PUSH1 0x1F LT PUSH2 0x1621 JUMPI PUSH2 0x100 DUP1 DUP4 SLOAD DIV MUL DUP4 MSTORE SWAP2 PUSH1 0x20 ADD SWAP2 PUSH2 0x164C JUMP JUMPDEST DUP3 ADD SWAP2 SWAP1 PUSH1 0x0 MSTORE PUSH1 0x20 PUSH1 0x0 KECCAK256 SWAP1 JUMPDEST DUP2 SLOAD DUP2 MSTORE SWAP1 PUSH1 0x1 ADD SWAP1 PUSH1 0x20 ADD DUP1 DUP4 GT PUSH2 0x162F JUMPI DUP3 SWAP1 SUB PUSH1 0x1F AND DUP3 ADD SWAP2 JUMPDEST POP POP POP POP POP SWAP4 POP DUP3 DUP1 SLOAD PUSH2 0x165F SWAP1 PUSH2 0x2610 JUMP JUMPDEST DUP1 PUSH1 0x1F ADD PUSH1 0x20 DUP1 SWAP2 DIV MUL PUSH1 0x20 ADD PUSH1 0x40 MLOAD SWAP1 DUP2 ADD PUSH1 0x40 MSTORE DUP1 SWAP3 SWAP2 SWAP1 DUP2 DUP2 MSTORE PUSH1 0x20 ADD DUP3 DUP1 SLOAD PUSH2 0x168B SWAP1 PUSH2 0x2610 JUMP JUMPDEST DUP1 ISZERO PUSH2 0x16D8 JUMPI DUP1 PUSH1 0x1F LT PUSH2 0x16AD JUMPI PUSH2 0x100 DUP1 DUP4 SLOAD DIV MUL DUP4 MSTORE SWAP2 PUSH1 0x20 ADD SWAP2 PUSH2 0x16D8 JUMP JUMPDEST DUP3 ADD SWAP2 SWAP1 PUSH1 0x0 MSTORE PUSH1 0x20 PUSH1 0x0 KECCAK256 SWAP1 JUMPDEST DUP2 SLOAD DUP2 MSTORE SWAP1 PUSH1 0x1 ADD SWAP1 PUSH1 0x20 ADD DUP1 DUP4 GT PUSH2 0x16BB JUMPI DUP3 SWAP1 SUB PUSH1 0x1F AND DUP3 ADD SWAP2 JUMPDEST POP POP POP POP POP SWAP3 POP DUP2 DUP1 SLOAD PUSH2 0x16EB SWAP1 PUSH2 0x2610 JUMP JUMPDEST DUP1 PUSH1 0x1F ADD PUSH1 0x20 DUP1 SWAP2 DIV MUL PUSH1 0x20 ADD PUSH1 0x40 MLOAD SWAP1 DUP2 ADD PUSH1 0x40 MSTORE DUP1 SWAP3 SWAP2 SWAP1 DUP2 DUP2 MSTORE PUSH1 0x20 ADD DUP3 DUP1 SLOAD PUSH2 0x1717 SWAP1 PUSH2 0x2610 JUMP JUMPDEST DUP1 ISZERO PUSH2 0x1764 JUMPI DUP1 PUSH1 0x1F LT PUSH2 0x1739 JUMPI PUSH2 0x100 DUP1 DUP4 SLOAD DIV MUL DUP4 MSTORE SWAP2 PUSH1 0x20 ADD SWAP2 PUSH2 0x1764 JUMP JUMPDEST DUP3 ADD SWAP2 SWAP1 PUSH1 0x0 MSTORE PUSH1 0x20 PUSH1 0x0 KECCAK256 SWAP1 JUMPDEST DUP2 SLOAD DUP2 MSTORE SWAP1 PUSH1 0x1 ADD SWAP1 PUSH1 0x20 ADD DUP1 DUP4 GT PUSH2 0x1747 JUMPI DUP3 SWAP1 SUB PUSH1 0x1F AND DUP3 ADD SWAP2 JUMPDEST POP POP POP POP POP SWAP2 POP DUP1 DUP1 SLOAD PUSH2 0x1777 SWAP1 PUSH2 0x2610 JUMP JUMPDEST DUP1 PUSH1 0x1F ADD PUSH1 0x20 DUP1 SWAP2 DIV MUL PUSH1 0x20 ADD PUSH1 0x40 MLOAD SWAP1 DUP2 ADD PUSH1 0x40 MSTORE DUP1 SWAP3 SWAP2 SWAP1 DUP2 DUP2 MSTORE PUSH1 0x20 ADD DUP3 DUP1 SLOAD PUSH2 0x17A3 SWAP1 PUSH2 0x2610 JUMP JUMPDEST DUP1 ISZERO PUSH2 0x17F0 JUMPI DUP1 PUSH1 0x1F LT PUSH2 0x17C5 JUMPI PUSH2 0x100 DUP1 DUP4 SLOAD DIV MUL DUP4 MSTORE SWAP2 PUSH1 0x20 ADD SWAP2 PUSH2 0x17F0 JUMP JUMPDEST DUP3 ADD SWAP2 SWAP1 PUSH1 0x0 MSTORE PUSH1 0x20 PUSH1 0x0 KECCAK256 SWAP1 JUMPDEST DUP2 SLOAD DUP2 MSTORE SWAP1 PUSH1 0x1 ADD SWAP1 PUSH1 0x20 ADD DUP1 DUP4 GT PUSH2 0x17D3 JUMPI DUP3 SWAP1 SUB PUSH1 0x1F AND DUP3 ADD SWAP2 JUMPDEST POP POP POP POP POP SWAP1 POP SWAP9 POP SWAP9 POP SWAP9 POP SWAP9 POP SWAP9 POP SWAP9 POP SWAP9 POP SWAP9 POP SWAP9 POP SWAP2 SWAP4 SWAP6 SWAP8 SWAP10 SWAP1 SWAP3 SWAP5 SWAP7 SWAP9 POP JUMP JUMPDEST PUSH1 0x0 DUP1 PUSH1 0x0 SWAP1 SLOAD SWAP1 PUSH2 0x100 EXP SWAP1 DIV PUSH20 0xFFFFFFFFFFFFFFFFFFFFFFFFFFFFFFFFFFFFFFFF AND SWAP1 POP SWAP1 JUMP JUMPDEST PUSH1 0x60 DUP1 PUSH1 0x60 DUP1 PUSH1 0x60 DUP1 PUSH1 0x60 PUSH1 0x1 PUSH1 0x0 DUP10 PUSH20 0xFFFFFFFFFFFFFFFFFFFFFFFFFFFFFFFFFFFFFFFF AND PUSH20 0xFFFFFFFFFFFFFFFFFFFFFFFFFFFFFFFFFFFFFFFF AND DUP2 MSTORE PUSH1 0x20 ADD SWAP1 DUP2 MSTORE PUSH1 0x20 ADD PUSH1 0x0 KECCAK256 PUSH1 0x9 ADD PUSH1 0x0 SWAP1 SLOAD SWAP1 PUSH2 0x100 EXP SWAP1 DIV PUSH1 0xFF AND PUSH2 0x18A3 JUMPI PUSH1 0x0 DUP1 REVERT JUMPDEST PUSH1 0x2 PUSH1 0x0 SWAP1 SLOAD SWAP1 PUSH2 0x100 EXP SWAP1 DIV PUSH20 0xFFFFFFFFFFFFFFFFFFFFFFFFFFFFFFFFFFFFFFFF AND PUSH20 0xFFFFFFFFFFFFFFFFFFFFFFFFFFFFFFFFFFFFFFFF AND DUP9 PUSH20 0xFFFFFFFFFFFFFFFFFFFFFFFFFFFFFFFFFFFFFFFF AND EQ PUSH2 0x18FD JUMPI PUSH1 0x0 DUP1 REVERT JUMPDEST PUSH1 0x1 PUSH1 0x0 DUP10 PUSH20 0xFFFFFFFFFFFFFFFFFFFFFFFFFFFFFFFFFFFFFFFF AND PUSH20 0xFFFFFFFFFFFFFFFFFFFFFFFFFFFFFFFFFFFFFFFF AND DUP2 MSTORE PUSH1 0x20 ADD SWAP1 DUP2 MSTORE PUSH1 0x20 ADD PUSH1 0x0 KECCAK256 PUSH1 0x0 ADD PUSH1 0x1 PUSH1 0x0 DUP11 PUSH20 0xFFFFFFFFFFFFFFFFFFFFFFFFFFFFFFFFFFFFFFFF AND PUSH20 0xFFFFFFFFFFFFFFFFFFFFFFFFFFFFFFFFFFFFFFFF AND DUP2 MSTORE PUSH1 0x20 ADD SWAP1 DUP2 MSTORE PUSH1 0x20 ADD PUSH1 0x0 KECCAK256 PUSH1 0x1 ADD PUSH1 0x1 PUSH1 0x0 DUP12 PUSH20 0xFFFFFFFFFFFFFFFFFFFFFFFFFFFFFFFFFFFFFFFF AND PUSH20 0xFFFFFFFFFFFFFFFFFFFFFFFFFFFFFFFFFFFFFFFF AND DUP2 MSTORE PUSH1 0x20 ADD SWAP1 DUP2 MSTORE PUSH1 0x20 ADD PUSH1 0x0 KECCAK256 PUSH1 0x2 ADD PUSH1 0x1 PUSH1 0x0 DUP13 PUSH20 0xFFFFFFFFFFFFFFFFFFFFFFFFFFFFFFFFFFFFFFFF AND PUSH20 0xFFFFFFFFFFFFFFFFFFFFFFFFFFFFFFFFFFFFFFFF AND DUP2 MSTORE PUSH1 0x20 ADD SWAP1 DUP2 MSTORE PUSH1 0x20 ADD PUSH1 0x0 KECCAK256 PUSH1 0x3 ADD PUSH1 0x1 PUSH1 0x0 DUP14 PUSH20 0xFFFFFFFFFFFFFFFFFFFFFFFFFFFFFFFFFFFFFFFF AND PUSH20 0xFFFFFFFFFFFFFFFFFFFFFFFFFFFFFFFFFFFFFFFF AND DUP2 MSTORE PUSH1 0x20 ADD SWAP1 DUP2 MSTORE PUSH1 0x20 ADD PUSH1 0x0 KECCAK256 PUSH1 0x4 ADD PUSH1 0x1 PUSH1 0x0 DUP15 PUSH20 0xFFFFFFFFFFFFFFFFFFFFFFFFFFFFFFFFFFFFFFFF AND PUSH20 0xFFFFFFFFFFFFFFFFFFFFFFFFFFFFFFFFFFFFFFFF AND DUP2 MSTORE PUSH1 0x20 ADD SWAP1 DUP2 MSTORE PUSH1 0x20 ADD PUSH1 0x0 KECCAK256 PUSH1 0x5 ADD PUSH1 0x1 PUSH1 0x0 DUP16 PUSH20 0xFFFFFFFFFFFFFFFFFFFFFFFFFFFFFFFFFFFFFFFF AND PUSH20 0xFFFFFFFFFFFFFFFFFFFFFFFFFFFFFFFFFFFFFFFF AND DUP2 MSTORE PUSH1 0x20 ADD SWAP1 DUP2 MSTORE PUSH1 0x20 ADD PUSH1 0x0 KECCAK256 PUSH1 0x6 ADD DUP7 DUP1 SLOAD PUSH2 0x1AD7 SWAP1 PUSH2 0x2610 JUMP JUMPDEST DUP1 PUSH1 0x1F ADD PUSH1 0x20 DUP1 SWAP2 DIV MUL PUSH1 0x20 ADD PUSH1 0x40 MLOAD SWAP1 DUP2 ADD PUSH1 0x40 MSTORE DUP1 SWAP3 SWAP2 SWAP1 DUP2 DUP2 MSTORE PUSH1 0x20 ADD DUP3 DUP1 SLOAD PUSH2 0x1B03 SWAP1 PUSH2 0x2610 JUMP JUMPDEST DUP1 ISZERO PUSH2 0x1B50 JUMPI DUP1 PUSH1 0x1F LT PUSH2 0x1B25 JUMPI PUSH2 0x100 DUP1 DUP4 SLOAD DIV MUL DUP4 MSTORE SWAP2 PUSH1 0x20 ADD SWAP2 PUSH2 0x1B50 JUMP JUMPDEST DUP3 ADD SWAP2 SWAP1 PUSH1 0x0 MSTORE PUSH1 0x20 PUSH1 0x0 KECCAK256 SWAP1 JUMPDEST DUP2 SLOAD DUP2 MSTORE SWAP1 PUSH1 0x1 ADD SWAP1 PUSH1 0x20 ADD DUP1 DUP4 GT PUSH2 0x1B33 JUMPI DUP3 SWAP1 SUB PUSH1 0x1F AND DUP3 ADD SWAP2 JUMPDEST POP POP POP POP POP SWAP7 POP DUP6 DUP1 SLOAD PUSH2 0x1B63 SWAP1 PUSH2 0x2610 JUMP JUMPDEST DUP1 PUSH1 0x1F ADD PUSH1 0x20 DUP1 SWAP2 DIV MUL PUSH1 0x20 ADD PUSH1 0x40 MLOAD SWAP1 DUP2 ADD PUSH1 0x40 MSTORE DUP1 SWAP3 SWAP2 SWAP1 DUP2 DUP2 MSTORE PUSH1 0x20 ADD DUP3 DUP1 SLOAD PUSH2 0x1B8F SWAP1 PUSH2 0x2610 JUMP JUMPDEST DUP1 ISZERO PUSH2 0x1BDC JUMPI DUP1 PUSH1 0x1F LT PUSH2 0x1BB1 JUMPI PUSH2 0x100 DUP1 DUP4 SLOAD DIV MUL DUP4 MSTORE SWAP2 PUSH1 0x20 ADD SWAP2 PUSH2 0x1BDC JUMP JUMPDEST DUP3 ADD SWAP2 SWAP1 PUSH1 0x0 MSTORE PUSH1 0x20 PUSH1 0x0 KECCAK256 SWAP1 JUMPDEST DUP2 SLOAD DUP2 MSTORE SWAP1 PUSH1 0x1 ADD SWAP1 PUSH1 0x20 ADD DUP1 DUP4 GT PUSH2 0x1BBF JUMPI DUP3 SWAP1 SUB PUSH1 0x1F AND DUP3 ADD SWAP2 JUMPDEST POP POP POP POP POP SWAP6 POP DUP5 DUP1 SLOAD PUSH2 0x1BEF SWAP1 PUSH2 0x2610 JUMP JUMPDEST DUP1 PUSH1 0x1F ADD PUSH1 0x20 DUP1 SWAP2 DIV MUL PUSH1 0x20 ADD PUSH1 0x40 MLOAD SWAP1 DUP2 ADD PUSH1 0x40 MSTORE DUP1 SWAP3 SWAP2 SWAP1 DUP2 DUP2 MSTORE PUSH1 0x20 ADD DUP3 DUP1 SLOAD PUSH2 0x1C1B SWAP1 PUSH2 0x2610 JUMP JUMPDEST DUP1 ISZERO PUSH2 0x1C68 JUMPI DUP1 PUSH1 0x1F LT PUSH2 0x1C3D JUMPI PUSH2 0x100 DUP1 DUP4 SLOAD DIV MUL DUP4 MSTORE SWAP2 PUSH1 0x20 ADD SWAP2 PUSH2 0x1C68 JUMP JUMPDEST DUP3 ADD SWAP2 SWAP1 PUSH1 0x0 MSTORE PUSH1 0x20 PUSH1 0x0 KECCAK256 SWAP1 JUMPDEST DUP2 SLOAD DUP2 MSTORE SWAP1 PUSH1 0x1 ADD SWAP1 PUSH1 0x20 ADD DUP1 DUP4 GT PUSH2 0x1C4B JUMPI DUP3 SWAP1 SUB PUSH1 0x1F AND DUP3 ADD SWAP2 JUMPDEST POP POP POP POP POP SWAP5 POP DUP4 DUP1 SLOAD PUSH2 0x1C7B SWAP1 PUSH2 0x2610 JUMP JUMPDEST DUP1 PUSH1 0x1F ADD PUSH1 0x20 DUP1 SWAP2 DIV MUL PUSH1 0x20 ADD PUSH1 0x40 MLOAD SWAP1 DUP2 ADD PUSH1 0x40 MSTORE DUP1 SWAP3 SWAP2 SWAP1 DUP2 DUP2 MSTORE PUSH1 0x20 ADD DUP3 DUP1 SLOAD PUSH2 0x1CA7 SWAP1 PUSH2 0x2610 JUMP JUMPDEST DUP1 ISZERO PUSH2 0x1CF4 JUMPI DUP1 PUSH1 0x1F LT PUSH2 0x1CC9 JUMPI PUSH2 0x100 DUP1 DUP4 SLOAD DIV MUL DUP4 MSTORE SWAP2 PUSH1 0x20 ADD SWAP2 PUSH2 0x1CF4 JUMP JUMPDEST DUP3 ADD SWAP2 SWAP1 PUSH1 0x0 MSTORE PUSH1 0x20 PUSH1 0x0 KECCAK256 SWAP1 JUMPDEST DUP2 SLOAD DUP2 MSTORE SWAP1 PUSH1 0x1 ADD SWAP1 PUSH1 0x20 ADD DUP1 DUP4 GT PUSH2 0x1CD7 JUMPI DUP3 SWAP1 SUB PUSH1 0x1F AND DUP3 ADD SWAP2 JUMPDEST POP POP POP POP POP SWAP4 POP DUP3 DUP1 SLOAD PUSH2 0x1D07 SWAP1 PUSH2 0x2610 JUMP JUMPDEST DUP1 PUSH1 0x1F ADD PUSH1 0x20 DUP1 SWAP2 DIV MUL PUSH1 0x20 ADD PUSH1 0x40 MLOAD SWAP1 DUP2 ADD PUSH1 0x40 MSTORE DUP1 SWAP3 SWAP2 SWAP1 DUP2 DUP2 MSTORE PUSH1 0x20 ADD DUP3 DUP1 SLOAD PUSH2 0x1D33 SWAP1 PUSH2 0x2610 JUMP JUMPDEST DUP1 ISZERO PUSH2 0x1D80 JUMPI DUP1 PUSH1 0x1F LT PUSH2 0x1D55 JUMPI PUSH2 0x100 DUP1 DUP4 SLOAD DIV MUL DUP4 MSTORE SWAP2 PUSH1 0x20 ADD SWAP2 PUSH2 0x1D80 JUMP JUMPDEST DUP3 ADD SWAP2 SWAP1 PUSH1 0x0 MSTORE PUSH1 0x20 PUSH1 0x0 KECCAK256 SWAP1 JUMPDEST DUP2 SLOAD DUP2 MSTORE SWAP1 PUSH1 0x1 ADD SWAP1 PUSH1 0x20 ADD DUP1 DUP4 GT PUSH2 0x1D63 JUMPI DUP3 SWAP1 SUB PUSH1 0x1F AND DUP3 ADD SWAP2 JUMPDEST POP POP POP POP POP SWAP3 POP DUP2 DUP1 SLOAD PUSH2 0x1D93 SWAP1 PUSH2 0x2610 JUMP JUMPDEST DUP1 PUSH1 0x1F ADD PUSH1 0x20 DUP1 SWAP2 DIV MUL PUSH1 0x20 ADD PUSH1 0x40 MLOAD SWAP1 DUP2 ADD PUSH1 0x40 MSTORE DUP1 SWAP3 SWAP2 SWAP1 DUP2 DUP2 MSTORE PUSH1 0x20 ADD DUP3 DUP1 SLOAD PUSH2 0x1DBF SWAP1 PUSH2 0x2610 JUMP JUMPDEST DUP1 ISZERO PUSH2 0x1E0C JUMPI DUP1 PUSH1 0x1F LT PUSH2 0x1DE1 JUMPI PUSH2 0x100 DUP1 DUP4 SLOAD DIV MUL DUP4 MSTORE SWAP2 PUSH1 0x20 ADD SWAP2 PUSH2 0x1E0C JUMP JUMPDEST DUP3 ADD SWAP2 SWAP1 PUSH1 0x0 MSTORE PUSH1 0x20 PUSH1 0x0 KECCAK256 SWAP1 JUMPDEST DUP2 SLOAD DUP2 MSTORE SWAP1 PUSH1 0x1 ADD SWAP1 PUSH1 0x20 ADD DUP1 DUP4 GT PUSH2 0x1DEF JUMPI DUP3 SWAP1 SUB PUSH1 0x1F AND DUP3 ADD SWAP2 JUMPDEST POP POP POP POP POP SWAP2 POP DUP1 DUP1 SLOAD PUSH2 0x1E1F SWAP1 PUSH2 0x2610 JUMP JUMPDEST DUP1 PUSH1 0x1F ADD PUSH1 0x20 DUP1 SWAP2 DIV MUL PUSH1 0x20 ADD PUSH1 0x40 MLOAD SWAP1 DUP2 ADD PUSH1 0x40 MSTORE DUP1 SWAP3 SWAP2 SWAP1 DUP2 DUP2 MSTORE PUSH1 0x20 ADD DUP3 DUP1 SLOAD PUSH2 0x1E4B SWAP1 PUSH2 0x2610 JUMP JUMPDEST DUP1 ISZERO PUSH2 0x1E98 JUMPI DUP1 PUSH1 0x1F LT PUSH2 0x1E6D JUMPI PUSH2 0x100 DUP1 DUP4 SLOAD DIV MUL DUP4 MSTORE SWAP2 PUSH1 0x20 ADD SWAP2 PUSH2 0x1E98 JUMP JUMPDEST DUP3 ADD SWAP2 SWAP1 PUSH1 0x0 MSTORE PUSH1 0x20 PUSH1 0x0 KECCAK256 SWAP1 JUMPDEST DUP2 SLOAD DUP2 MSTORE SWAP1 PUSH1 0x1 ADD SWAP1 PUSH1 0x20 ADD DUP1 DUP4 GT PUSH2 0x1E7B JUMPI DUP3 SWAP1 SUB PUSH1 0x1F AND DUP3 ADD SWAP2 JUMPDEST POP POP POP POP POP SWAP1 POP SWAP7 POP SWAP7 POP SWAP7 POP SWAP7 POP SWAP7 POP SWAP7 POP SWAP7 POP SWAP2 SWAP4 SWAP6 SWAP8 SWAP1 SWAP3 SWAP5 SWAP7 POP JUMP JUMPDEST PUSH1 0x0 DUP1 SLOAD SWAP1 PUSH2 0x100 EXP SWAP1 DIV PUSH20 0xFFFFFFFFFFFFFFFFFFFFFFFFFFFFFFFFFFFFFFFF AND DUP2 JUMP JUMPDEST DUP3 DUP1 SLOAD PUSH2 0x1EE8 SWAP1 PUSH2 0x2610 JUMP JUMPDEST SWAP1 PUSH1 0x0 MSTORE PUSH1 0x20 PUSH1 0x0 KECCAK256 SWAP1 PUSH1 0x1F ADD PUSH1 0x20 SWAP1 DIV DUP2 ADD SWAP3 DUP3 PUSH2 0x1F0A JUMPI PUSH1 0x0 DUP6 SSTORE PUSH2 0x1F51 JUMP JUMPDEST DUP3 PUSH1 0x1F LT PUSH2 0x1F23 JUMPI DUP1 MLOAD PUSH1 0xFF NOT AND DUP4 DUP1 ADD OR DUP6 SSTORE PUSH2 0x1F51 JUMP JUMPDEST DUP3 DUP1 ADD PUSH1 0x1 ADD DUP6 SSTORE DUP3 ISZERO PUSH2 0x1F51 JUMPI SWAP2 DUP3 ADD JUMPDEST DUP3 DUP2 GT ISZERO PUSH2 0x1F50 JUMPI DUP3 MLOAD DUP3 SSTORE SWAP2 PUSH1 0x20 ADD SWAP2 SWAP1 PUSH1 0x1 ADD SWAP1 PUSH2 0x1F35 JUMP JUMPDEST JUMPDEST POP SWAP1 POP PUSH2 0x1F5E SWAP2 SWAP1 PUSH2 0x1F62 JUMP JUMPDEST POP SWAP1 JUMP JUMPDEST JUMPDEST DUP1 DUP3 GT ISZERO PUSH2 0x1F7B JUMPI PUSH1 0x0 DUP2 PUSH1 0x0 SWAP1 SSTORE POP PUSH1 0x1 ADD PUSH2 0x1F63 JUMP JUMPDEST POP SWAP1 JUMP JUMPDEST PUSH1 0x0 PUSH1 0x40 MLOAD SWAP1 POP SWAP1 JUMP JUMPDEST PUSH1 0x0 DUP1 REVERT JUMPDEST PUSH1 0x0 DUP1 REVERT JUMPDEST PUSH1 0x0 PUSH20 0xFFFFFFFFFFFFFFFFFFFFFFFFFFFFFFFFFFFFFFFF DUP3 AND SWAP1 POP SWAP2 SWAP1 POP JUMP JUMPDEST PUSH1 0x0 PUSH2 0x1FBE DUP3 PUSH2 0x1F93 JUMP JUMPDEST SWAP1 POP SWAP2 SWAP1 POP JUMP JUMPDEST PUSH2 0x1FCE DUP2 PUSH2 0x1FB3 JUMP JUMPDEST DUP2 EQ PUSH2 0x1FD9 JUMPI PUSH1 0x0 DUP1 REVERT JUMPDEST POP JUMP JUMPDEST PUSH1 0x0 DUP2 CALLDATALOAD SWAP1 POP PUSH2 0x1FEB DUP2 PUSH2 0x1FC5 JUMP JUMPDEST SWAP3 SWAP2 POP POP JUMP JUMPDEST PUSH1 0x0 PUSH1 0x20 DUP3 DUP5 SUB SLT ISZERO PUSH2 0x2007 JUMPI PUSH2 0x2006 PUSH2 0x1F89 JUMP JUMPDEST JUMPDEST PUSH1 0x0 PUSH2 0x2015 DUP5 DUP3 DUP6 ADD PUSH2 0x1FDC JUMP JUMPDEST SWAP2 POP POP SWAP3 SWAP2 POP POP JUMP JUMPDEST PUSH1 0x0 DUP2 MLOAD SWAP1 POP SWAP2 SWAP1 POP JUMP JUMPDEST PUSH1 0x0 DUP3 DUP3 MSTORE PUSH1 0x20 DUP3 ADD SWAP1 POP SWAP3 SWAP2 POP POP JUMP JUMPDEST PUSH1 0x0 JUMPDEST DUP4 DUP2 LT ISZERO PUSH2 0x2058 JUMPI DUP1 DUP3 ADD MLOAD DUP2 DUP5 ADD MSTORE PUSH1 0x20 DUP2 ADD SWAP1 POP PUSH2 0x203D JUMP JUMPDEST DUP4 DUP2 GT ISZERO PUSH2 0x2067 JUMPI PUSH1 0x0 DUP5 DUP5 ADD MSTORE JUMPDEST POP POP POP POP JUMP JUMPDEST PUSH1 0x0 PUSH1 0x1F NOT PUSH1 0x1F DUP4 ADD AND SWAP1 POP SWAP2 SWAP1 POP JUMP JUMPDEST PUSH1 0x0 PUSH2 0x2089 DUP3 PUSH2 0x201E JUMP JUMPDEST PUSH2 0x2093 DUP2 DUP6 PUSH2 0x2029 JUMP JUMPDEST SWAP4 POP PUSH2 0x20A3 DUP2 DUP6 PUSH1 0x20 DUP7 ADD PUSH2 0x203A JUMP JUMPDEST PUSH2 0x20AC DUP2 PUSH2 0x206D JUMP JUMPDEST DUP5 ADD SWAP2 POP POP SWAP3 SWAP2 POP POP JUMP JUMPDEST PUSH1 0x0 PUSH1 0x40 DUP3 ADD SWAP1 POP DUP2 DUP2 SUB PUSH1 0x0 DUP4 ADD MSTORE PUSH2 0x20D1 DUP2 DUP6 PUSH2 0x207E JUMP JUMPDEST SWAP1 POP DUP2 DUP2 SUB PUSH1 0x20 DUP4 ADD MSTORE PUSH2 0x20E5 DUP2 DUP5 PUSH2 0x207E JUMP JUMPDEST SWAP1 POP SWAP4 SWAP3 POP POP POP JUMP JUMPDEST PUSH1 0x0 DUP1 REVERT JUMPDEST PUSH1 0x0 DUP1 REVERT JUMPDEST PUSH32 0x4E487B7100000000000000000000000000000000000000000000000000000000 PUSH1 0x0 MSTORE PUSH1 0x41 PUSH1 0x4 MSTORE PUSH1 0x24 PUSH1 0x0 REVERT JUMPDEST PUSH2 0x2130 DUP3 PUSH2 0x206D JUMP JUMPDEST DUP2 ADD DUP2 DUP2 LT PUSH8 0xFFFFFFFFFFFFFFFF DUP3 GT OR ISZERO PUSH2 0x214F JUMPI PUSH2 0x214E PUSH2 0x20F8 JUMP JUMPDEST JUMPDEST DUP1 PUSH1 0x40 MSTORE POP POP POP JUMP JUMPDEST PUSH1 0x0 PUSH2 0x2162 PUSH2 0x1F7F JUMP JUMPDEST SWAP1 POP PUSH2 0x216E DUP3 DUP3 PUSH2 0x2127 JUMP JUMPDEST SWAP2 SWAP1 POP JUMP JUMPDEST PUSH1 0x0 PUSH8 0xFFFFFFFFFFFFFFFF DUP3 GT ISZERO PUSH2 0x218E JUMPI PUSH2 0x218D PUSH2 0x20F8 JUMP JUMPDEST JUMPDEST PUSH2 0x2197 DUP3 PUSH2 0x206D JUMP JUMPDEST SWAP1 POP PUSH1 0x20 DUP2 ADD SWAP1 POP SWAP2 SWAP1 POP JUMP JUMPDEST DUP3 DUP2 DUP4 CALLDATACOPY PUSH1 0x0 DUP4 DUP4 ADD MSTORE POP POP POP JUMP JUMPDEST PUSH1 0x0 PUSH2 0x21C6 PUSH2 0x21C1 DUP5 PUSH2 0x2173 JUMP JUMPDEST PUSH2 0x2158 JUMP JUMPDEST SWAP1 POP DUP3 DUP2 MSTORE PUSH1 0x20 DUP2 ADD DUP5 DUP5 DUP5 ADD GT ISZERO PUSH2 0x21E2 JUMPI PUSH2 0x21E1 PUSH2 0x20F3 JUMP JUMPDEST JUMPDEST PUSH2 0x21ED DUP5 DUP3 DUP6 PUSH2 0x21A4 JUMP JUMPDEST POP SWAP4 SWAP3 POP POP POP JUMP JUMPDEST PUSH1 0x0 DUP3 PUSH1 0x1F DUP4 ADD SLT PUSH2 0x220A JUMPI PUSH2 0x2209 PUSH2 0x20EE JUMP JUMPDEST JUMPDEST DUP2 CALLDATALOAD PUSH2 0x221A DUP5 DUP3 PUSH1 0x20 DUP7 ADD PUSH2 0x21B3 JUMP JUMPDEST SWAP2 POP POP SWAP3 SWAP2 POP POP JUMP JUMPDEST PUSH1 0x0 DUP1 PUSH1 0x0 DUP1 PUSH1 0x0 DUP1 PUSH1 0x0 DUP1 PUSH1 0x0 DUP1 PUSH1 0x0 PUSH2 0x160 DUP13 DUP15 SUB SLT ISZERO PUSH2 0x2249 JUMPI PUSH2 0x2248 PUSH2 0x1F89 JUMP JUMPDEST JUMPDEST PUSH1 0x0 DUP13 ADD CALLDATALOAD PUSH8 0xFFFFFFFFFFFFFFFF DUP2 GT ISZERO PUSH2 0x2267 JUMPI PUSH2 0x2266 PUSH2 0x1F8E JUMP JUMPDEST JUMPDEST PUSH2 0x2273 DUP15 DUP3 DUP16 ADD PUSH2 0x21F5 JUMP JUMPDEST SWAP12 POP POP PUSH1 0x20 DUP13 ADD CALLDATALOAD PUSH8 0xFFFFFFFFFFFFFFFF DUP2 GT ISZERO PUSH2 0x2294 JUMPI PUSH2 0x2293 PUSH2 0x1F8E JUMP JUMPDEST JUMPDEST PUSH2 0x22A0 DUP15 DUP3 DUP16 ADD PUSH2 0x21F5 JUMP JUMPDEST SWAP11 POP POP PUSH1 0x40 DUP13 ADD CALLDATALOAD PUSH8 0xFFFFFFFFFFFFFFFF DUP2 GT ISZERO PUSH2 0x22C1 JUMPI PUSH2 0x22C0 PUSH2 0x1F8E JUMP JUMPDEST JUMPDEST PUSH2 0x22CD DUP15 DUP3 DUP16 ADD PUSH2 0x21F5 JUMP JUMPDEST SWAP10 POP POP PUSH1 0x60 DUP13 ADD CALLDATALOAD PUSH8 0xFFFFFFFFFFFFFFFF DUP2 GT ISZERO PUSH2 0x22EE JUMPI PUSH2 0x22ED PUSH2 0x1F8E JUMP JUMPDEST JUMPDEST PUSH2 0x22FA DUP15 DUP3 DUP16 ADD PUSH2 0x21F5 JUMP JUMPDEST SWAP9 POP POP PUSH1 0x80 DUP13 ADD CALLDATALOAD PUSH8 0xFFFFFFFFFFFFFFFF DUP2 GT ISZERO PUSH2 0x231B JUMPI PUSH2 0x231A PUSH2 0x1F8E JUMP JUMPDEST JUMPDEST PUSH2 0x2327 DUP15 DUP3 DUP16 ADD PUSH2 0x21F5 JUMP JUMPDEST SWAP8 POP POP PUSH1 0xA0 DUP13 ADD CALLDATALOAD PUSH8 0xFFFFFFFFFFFFFFFF DUP2 GT ISZERO PUSH2 0x2348 JUMPI PUSH2 0x2347 PUSH2 0x1F8E JUMP JUMPDEST JUMPDEST PUSH2 0x2354 DUP15 DUP3 DUP16 ADD PUSH2 0x21F5 JUMP JUMPDEST SWAP7 POP POP PUSH1 0xC0 DUP13 ADD CALLDATALOAD PUSH8 0xFFFFFFFFFFFFFFFF DUP2 GT ISZERO PUSH2 0x2375 JUMPI PUSH2 0x2374 PUSH2 0x1F8E JUMP JUMPDEST JUMPDEST PUSH2 0x2381 DUP15 DUP3 DUP16 ADD PUSH2 0x21F5 JUMP JUMPDEST SWAP6 POP POP PUSH1 0xE0 DUP13 ADD CALLDATALOAD PUSH8 0xFFFFFFFFFFFFFFFF DUP2 GT ISZERO PUSH2 0x23A2 JUMPI PUSH2 0x23A1 PUSH2 0x1F8E JUMP JUMPDEST JUMPDEST PUSH2 0x23AE DUP15 DUP3 DUP16 ADD PUSH2 0x21F5 JUMP JUMPDEST SWAP5 POP POP PUSH2 0x100 DUP13 ADD CALLDATALOAD PUSH8 0xFFFFFFFFFFFFFFFF DUP2 GT ISZERO PUSH2 0x23D0 JUMPI PUSH2 0x23CF PUSH2 0x1F8E JUMP JUMPDEST JUMPDEST PUSH2 0x23DC DUP15 DUP3 DUP16 ADD PUSH2 0x21F5 JUMP JUMPDEST SWAP4 POP POP PUSH2 0x120 DUP13 ADD CALLDATALOAD PUSH8 0xFFFFFFFFFFFFFFFF DUP2 GT ISZERO PUSH2 0x23FE JUMPI PUSH2 0x23FD PUSH2 0x1F8E JUMP JUMPDEST JUMPDEST PUSH2 0x240A DUP15 DUP3 DUP16 ADD PUSH2 0x21F5 JUMP JUMPDEST SWAP3 POP POP PUSH2 0x140 DUP13 ADD CALLDATALOAD PUSH8 0xFFFFFFFFFFFFFFFF DUP2 GT ISZERO PUSH2 0x242C JUMPI PUSH2 0x242B PUSH2 0x1F8E JUMP JUMPDEST JUMPDEST PUSH2 0x2438 DUP15 DUP3 DUP16 ADD PUSH2 0x21F5 JUMP JUMPDEST SWAP2 POP POP SWAP3 SWAP6 SWAP9 SWAP12 POP SWAP3 SWAP6 SWAP9 SWAP12 SWAP1 SWAP4 SWAP7 SWAP10 POP JUMP JUMPDEST PUSH2 0x2454 DUP2 PUSH2 0x1FB3 JUMP JUMPDEST DUP3 MSTORE POP POP JUMP JUMPDEST PUSH1 0x0 PUSH1 0x20 DUP3 ADD SWAP1 POP PUSH2 0x246F PUSH1 0x0 DUP4 ADD DUP5 PUSH2 0x244B JUMP JUMPDEST SWAP3 SWAP2 POP POP JUMP JUMPDEST PUSH1 0x0 PUSH2 0x120 DUP3 ADD SWAP1 POP DUP2 DUP2 SUB PUSH1 0x0 DUP4 ADD MSTORE PUSH2 0x2490 DUP2 DUP13 PUSH2 0x207E JUMP JUMPDEST SWAP1 POP DUP2 DUP2 SUB PUSH1 0x20 DUP4 ADD MSTORE PUSH2 0x24A4 DUP2 DUP12 PUSH2 0x207E JUMP JUMPDEST SWAP1 POP DUP2 DUP2 SUB PUSH1 0x40 DUP4 ADD MSTORE PUSH2 0x24B8 DUP2 DUP11 PUSH2 0x207E JUMP JUMPDEST SWAP1 POP DUP2 DUP2 SUB PUSH1 0x60 DUP4 ADD MSTORE PUSH2 0x24CC DUP2 DUP10 PUSH2 0x207E JUMP JUMPDEST SWAP1 POP DUP2 DUP2 SUB PUSH1 0x80 DUP4 ADD MSTORE PUSH2 0x24E0 DUP2 DUP9 PUSH2 0x207E JUMP JUMPDEST SWAP1 POP DUP2 DUP2 SUB PUSH1 0xA0 DUP4 ADD MSTORE PUSH2 0x24F4 DUP2 DUP8 PUSH2 0x207E JUMP JUMPDEST SWAP1 POP DUP2 DUP2 SUB PUSH1 0xC0 DUP4 ADD MSTORE PUSH2 0x2508 DUP2 DUP7 PUSH2 0x207E JUMP JUMPDEST SWAP1 POP DUP2 DUP2 SUB PUSH1 0xE0 DUP4 ADD MSTORE PUSH2 0x251C DUP2 DUP6 PUSH2 0x207E JUMP JUMPDEST SWAP1 POP DUP2 DUP2 SUB PUSH2 0x100 DUP4 ADD MSTORE PUSH2 0x2531 DUP2 DUP5 PUSH2 0x207E JUMP JUMPDEST SWAP1 POP SWAP11 SWAP10 POP POP POP POP POP POP POP POP POP POP JUMP JUMPDEST PUSH1 0x0 PUSH1 0xE0 DUP3 ADD SWAP1 POP DUP2 DUP2 SUB PUSH1 0x0 DUP4 ADD MSTORE PUSH2 0x255B DUP2 DUP11 PUSH2 0x207E JUMP JUMPDEST SWAP1 POP DUP2 DUP2 SUB PUSH1 0x20 DUP4 ADD MSTORE PUSH2 0x256F DUP2 DUP10 PUSH2 0x207E JUMP JUMPDEST SWAP1 POP DUP2 DUP2 SUB PUSH1 0x40 DUP4 ADD MSTORE PUSH2 0x2583 DUP2 DUP9 PUSH2 0x207E JUMP JUMPDEST SWAP1 POP DUP2 DUP2 SUB PUSH1 0x60 DUP4 ADD MSTORE PUSH2 0x2597 DUP2 DUP8 PUSH2 0x207E JUMP JUMPDEST SWAP1 POP DUP2 DUP2 SUB PUSH1 0x80 DUP4 ADD MSTORE PUSH2 0x25AB DUP2 DUP7 PUSH2 0x207E JUMP JUMPDEST SWAP1 POP DUP2 DUP2 SUB PUSH1 0xA0 DUP4 ADD MSTORE PUSH2 0x25BF DUP2 DUP6 PUSH2 0x207E JUMP JUMPDEST SWAP1 POP DUP2 DUP2 SUB PUSH1 0xC0 DUP4 ADD MSTORE PUSH2 0x25D3 DUP2 DUP5 PUSH2 0x207E JUMP JUMPDEST SWAP1 POP SWAP9 SWAP8 POP POP POP POP POP POP POP POP JUMP JUMPDEST PUSH32 0x4E487B7100000000000000000000000000000000000000000000000000000000 PUSH1 0x0 MSTORE PUSH1 0x22 PUSH1 0x4 MSTORE PUSH1 0x24 PUSH1 0x0 REVERT JUMPDEST PUSH1 0x0 PUSH1 0x2 DUP3 DIV SWAP1 POP PUSH1 0x1 DUP3 AND DUP1 PUSH2 0x2628 JUMPI PUSH1 0x7F DUP3 AND SWAP2 POP JUMPDEST PUSH1 0x20 DUP3 LT DUP2 EQ ISZERO PUSH2 0x263C JUMPI PUSH2 0x263B PUSH2 0x25E1 JUMP JUMPDEST JUMPDEST POP SWAP2 SWAP1 POP JUMP INVALID LOG2 PUSH5 0x6970667358 0x22 SLT KECCAK256 PUSH3 0x345DCC 0xE1 BYTE PUSH30 0xB5CD5F6178F6144D80F1A3AD0B489AD4B98AD8FE23D4CFDCAD64736F6C63 NUMBER STOP ADDMOD SIGNEXTEND STOP CALLER LOG2 PUSH5 0x6970667358 0x22 SLT KECCAK256 0xE6 SLT SGT 0x2E SWAP12 SWAP7 0xAD 0x25 SELFDESTRUCT 0xAD PUSH19 0x30191F7EDD3757AF3671CF9C9F73E7208F9F6D PUSH6 0xB164736F6C63 NUMBER STOP ADDMOD SIGNEXTEND STOP CALLER "},"gasEstimates":{"creation":{"codeDepositCost":"2457400","executionCost":"2643","totalCost":"2460043"},"external":{"createKyc()":"infinite","deployedKycs(uint256)":"infinite","getDeployedKycs()":"infinite","kycdone(address)":"24956","login(address)":"infinite","usersAddresses(uint256)":"4956"}},"methodIdentifiers":{"createKyc()":"826c4ae6","deployedKycs(uint256)":"7e3c01d7","getDeployedKycs()":"8379ec2f","kycdone(address)":"b6cbab37","login(address)":"35a6861a","usersAddresses(uint256)":"73338081"}},"storageLayout":{"storage":[{"astId":13,"contract":"KYC.sol:KycFactory","label":"deployedKycs","offset":0,"slot":"0","type":"t_array(t_contract(Userdef)552)dyn_storage"},{"astId":16,"contract":"KYC.sol:KycFactory","label":"usersAddresses","offset":0,"slot":"1","type":"t_array(t_address)dyn_storage"},{"astId":21,"contract":"KYC.sol:KycFactory","label":"particularUserKyc","offset":0,"slot":"2","type":"t_mapping(t_address,t_struct(Register)9_storage)"}],"types":{"t_address":{"encoding":"inplace","label":"address","numberOfBytes":"20"},"t_array(t_address)dyn_storage":{"base":"t_address","encoding":"dynamic_array","label":"address[]","numberOfBytes":"32"},"t_array(t_contract(Userdef)552)dyn_storage":{"base":"t_contract(Userdef)552","encoding":"dynamic_array","label":"contract Userdef[]","numberOfBytes":"32"},"t_bool":{"encoding":"inplace","label":"bool","numberOfBytes":"1"},"t_contract(Userdef)552":{"encoding":"inplace","label":"contract Userdef","numberOfBytes":"20"},"t_mapping(t_address,t_struct(Register)9_storage)":{"encoding":"mapping","key":"t_address","label":"mapping(address => struct KycFactory.Register)","numberOfBytes":"32","value":"t_struct(Register)9_storage"},"t_struct(Register)9_storage":{"encoding":"inplace","label":"struct KycFactory.Register","members":[{"astId":4,"contract":"KYC.sol:KycFactory","label":"kycContract","offset":0,"slot":"0","type":"t_contract(Userdef)552"},{"astId":6,"contract":"KYC.sol:KycFactory","label":"isRegistered","offset":20,"slot":"0","type":"t_bool"},{"astId":8,"contract":"KYC.sol:KycFactory","label":"kycdone","offset":21,"slot":"0","type":"t_bool"}],"numberOfBytes":"32"}}},"userdoc":{"kind":"user","methods":{},"version":1}}