{"abi":[{"inputs":[],"name":"createKyc","outputs":[],"stateMutability":"nonpayable","type":"function"},{"inputs":[{"internalType":"uint256","name":"","type":"uint256"}],"name":"deployedKycs","outputs":[{"internalType":"contract Userdef","name":"","type":"address"}],"stateMutability":"view","type":"function"},{"inputs":[],"name":"getDeployedKycs","outputs":[{"internalType":"contract Userdef[]","name":"","type":"address[]"}],"stateMutability":"view","type":"function"},{"inputs":[{"internalType":"address","name":"ooh","type":"address"}],"name":"kycdone","outputs":[],"stateMutability":"nonpayable","type":"function"},{"inputs":[{"internalType":"address","name":"ooh","type":"address"}],"name":"login","outputs":[{"internalType":"contract Userdef","name":"","type":"address"}],"stateMutability":"view","type":"function"},{"inputs":[{"internalType":"uint256","name":"","type":"uint256"}],"name":"usersAddresses","outputs":[{"internalType":"address","name":"","type":"address"}],"stateMutability":"view","type":"function"},{"inputs":[{"internalType":"address","name":"ooh","type":"address"}],"name":"viewKYCstatus","outputs":[{"internalType":"contract Userdef","name":"","type":"address"},{"internalType":"bool","name":"","type":"bool"},{"internalType":"bool","name":"","type":"bool"}],"stateMutability":"view","type":"function"}],"devdoc":{"kind":"dev","methods":{},"version":1},"evm":{"assembly":"    /* \"KYC.sol\":72:1402  contract KycFactory{... */\n  mstore(0x40, 0x80)\n  callvalue\n  dup1\n  iszero\n  tag_1\n  jumpi\n  0x00\n  dup1\n  revert\ntag_1:\n  pop\n  dataSize(sub_0)\n  dup1\n  dataOffset(sub_0)\n  0x00\n  codecopy\n  0x00\n  return\nstop\n\nsub_0: assembly {\n        /* \"KYC.sol\":72:1402  contract KycFactory{... */\n      mstore(0x40, 0x80)\n      callvalue\n      dup1\n      iszero\n      tag_1\n      jumpi\n      0x00\n      dup1\n      revert\n    tag_1:\n      pop\n      jumpi(tag_2, lt(calldatasize, 0x04))\n      shr(0xe0, calldataload(0x00))\n      dup1\n      0x7e3c01d7\n      gt\n      tag_10\n      jumpi\n      dup1\n      0x7e3c01d7\n      eq\n      tag_6\n      jumpi\n      dup1\n      0x826c4ae6\n      eq\n      tag_7\n      jumpi\n      dup1\n      0x8379ec2f\n      eq\n      tag_8\n      jumpi\n      dup1\n      0xb6cbab37\n      eq\n      tag_9\n      jumpi\n      jump(tag_2)\n    tag_10:\n      dup1\n      0x07f9d06d\n      eq\n      tag_3\n      jumpi\n      dup1\n      0x35a6861a\n      eq\n      tag_4\n      jumpi\n      dup1\n      0x73338081\n      eq\n      tag_5\n      jumpi\n    tag_2:\n      0x00\n      dup1\n      revert\n        /* \"KYC.sol\":1134:1397  function viewKYCstatus(address ooh) public view returns(Userdef, bool, bool) {... */\n    tag_3:\n      tag_11\n      0x04\n      dup1\n      calldatasize\n      sub\n      dup2\n      add\n      swap1\n      tag_12\n      swap2\n      swap1\n      tag_13\n      jump\t// in\n    tag_12:\n      tag_14\n      jump\t// in\n    tag_11:\n      mload(0x40)\n      tag_15\n      swap4\n      swap3\n      swap2\n      swap1\n      tag_16\n      jump\t// in\n    tag_15:\n      mload(0x40)\n      dup1\n      swap2\n      sub\n      swap1\n      return\n        /* \"KYC.sol\":688:859  function login(address ooh) public view returns(Userdef){... */\n    tag_4:\n      tag_17\n      0x04\n      dup1\n      calldatasize\n      sub\n      dup2\n      add\n      swap1\n      tag_18\n      swap2\n      swap1\n      tag_13\n      jump\t// in\n    tag_18:\n      tag_19\n      jump\t// in\n    tag_17:\n      mload(0x40)\n      tag_20\n      swap2\n      swap1\n      tag_21\n      jump\t// in\n    tag_20:\n      mload(0x40)\n      dup1\n      swap2\n      sub\n      swap1\n      return\n        /* \"KYC.sol\":246:277  address[] public usersAddresses */\n    tag_5:\n      tag_22\n      0x04\n      dup1\n      calldatasize\n      sub\n      dup2\n      add\n      swap1\n      tag_23\n      swap2\n      swap1\n      tag_24\n      jump\t// in\n    tag_23:\n      tag_25\n      jump\t// in\n    tag_22:\n      mload(0x40)\n      tag_26\n      swap2\n      swap1\n      tag_27\n      jump\t// in\n    tag_26:\n      mload(0x40)\n      dup1\n      swap2\n      sub\n      swap1\n      return\n        /* \"KYC.sol\":210:239  Userdef[] public deployedKycs */\n    tag_6:\n      tag_28\n      0x04\n      dup1\n      calldatasize\n      sub\n      dup2\n      add\n      swap1\n      tag_29\n      swap2\n      swap1\n      tag_24\n      jump\t// in\n    tag_29:\n      tag_30\n      jump\t// in\n    tag_28:\n      mload(0x40)\n      tag_31\n      swap2\n      swap1\n      tag_21\n      jump\t// in\n    tag_31:\n      mload(0x40)\n      dup1\n      swap2\n      sub\n      swap1\n      return\n        /* \"KYC.sol\":339:680  function createKyc() public{... */\n    tag_7:\n      tag_32\n      tag_33\n      jump\t// in\n    tag_32:\n      stop\n        /* \"KYC.sol\":867:970  function getDeployedKycs() public view returns(Userdef[] memory) {... */\n    tag_8:\n      tag_34\n      tag_35\n      jump\t// in\n    tag_34:\n      mload(0x40)\n      tag_36\n      swap2\n      swap1\n      tag_37\n      jump\t// in\n    tag_36:\n      mload(0x40)\n      dup1\n      swap2\n      sub\n      swap1\n      return\n        /* \"KYC.sol\":978:1126  function kycdone(address ooh) public {... */\n    tag_9:\n      tag_38\n      0x04\n      dup1\n      calldatasize\n      sub\n      dup2\n      add\n      swap1\n      tag_39\n      swap2\n      swap1\n      tag_13\n      jump\t// in\n    tag_39:\n      tag_40\n      jump\t// in\n    tag_38:\n      stop\n        /* \"KYC.sol\":1134:1397  function viewKYCstatus(address ooh) public view returns(Userdef, bool, bool) {... */\n    tag_14:\n        /* \"KYC.sol\":1190:1197  Userdef */\n      0x00\n        /* \"KYC.sol\":1199:1203  bool */\n      dup1\n        /* \"KYC.sol\":1205:1209  bool */\n      0x00\n        /* \"KYC.sol\":1230:1247  particularUserKyc */\n      0x02\n        /* \"KYC.sol\":1230:1252  particularUserKyc[ooh] */\n      0x00\n        /* \"KYC.sol\":1248:1251  ooh */\n      dup6\n        /* \"KYC.sol\":1230:1252  particularUserKyc[ooh] */\n      0xffffffffffffffffffffffffffffffffffffffff\n      and\n      0xffffffffffffffffffffffffffffffffffffffff\n      and\n      dup2\n      mstore\n      0x20\n      add\n      swap1\n      dup2\n      mstore\n      0x20\n      add\n      0x00\n      keccak256\n        /* \"KYC.sol\":1230:1265  particularUserKyc[ooh].isRegistered */\n      0x00\n      add\n      0x14\n      swap1\n      sload\n      swap1\n      0x0100\n      exp\n      swap1\n      div\n      0xff\n      and\n        /* \"KYC.sol\":1222:1266  require(particularUserKyc[ooh].isRegistered) */\n      tag_42\n      jumpi\n      0x00\n      dup1\n      revert\n    tag_42:\n        /* \"KYC.sol\":1285:1302  particularUserKyc */\n      0x02\n        /* \"KYC.sol\":1285:1307  particularUserKyc[ooh] */\n      0x00\n        /* \"KYC.sol\":1303:1306  ooh */\n      dup6\n        /* \"KYC.sol\":1285:1307  particularUserKyc[ooh] */\n      0xffffffffffffffffffffffffffffffffffffffff\n      and\n      0xffffffffffffffffffffffffffffffffffffffff\n      and\n      dup2\n      mstore\n      0x20\n      add\n      swap1\n      dup2\n      mstore\n      0x20\n      add\n      0x00\n      keccak256\n        /* \"KYC.sol\":1285:1319  particularUserKyc[ooh].kycContract */\n      0x00\n      add\n      0x00\n      swap1\n      sload\n      swap1\n      0x0100\n      exp\n      swap1\n      div\n      0xffffffffffffffffffffffffffffffffffffffff\n      and\n        /* \"KYC.sol\":1321:1338  particularUserKyc */\n      0x02\n        /* \"KYC.sol\":1321:1343  particularUserKyc[ooh] */\n      0x00\n        /* \"KYC.sol\":1339:1342  ooh */\n      dup7\n        /* \"KYC.sol\":1321:1343  particularUserKyc[ooh] */\n      0xffffffffffffffffffffffffffffffffffffffff\n      and\n      0xffffffffffffffffffffffffffffffffffffffff\n      and\n      dup2\n      mstore\n      0x20\n      add\n      swap1\n      dup2\n      mstore\n      0x20\n      add\n      0x00\n      keccak256\n        /* \"KYC.sol\":1321:1356  particularUserKyc[ooh].isRegistered */\n      0x00\n      add\n      0x14\n      swap1\n      sload\n      swap1\n      0x0100\n      exp\n      swap1\n      div\n      0xff\n      and\n        /* \"KYC.sol\":1358:1375  particularUserKyc */\n      0x02\n        /* \"KYC.sol\":1358:1380  particularUserKyc[ooh] */\n      0x00\n        /* \"KYC.sol\":1376:1379  ooh */\n      dup8\n        /* \"KYC.sol\":1358:1380  particularUserKyc[ooh] */\n      0xffffffffffffffffffffffffffffffffffffffff\n      and\n      0xffffffffffffffffffffffffffffffffffffffff\n      and\n      dup2\n      mstore\n      0x20\n      add\n      swap1\n      dup2\n      mstore\n      0x20\n      add\n      0x00\n      keccak256\n        /* \"KYC.sol\":1358:1388  particularUserKyc[ooh].kycdone */\n      0x00\n      add\n      0x15\n      swap1\n      sload\n      swap1\n      0x0100\n      exp\n      swap1\n      div\n      0xff\n      and\n        /* \"KYC.sol\":1277:1389  return (particularUserKyc[ooh].kycContract, particularUserKyc[ooh].isRegistered, particularUserKyc[ooh].kycdone) */\n      swap3\n      pop\n      swap3\n      pop\n      swap3\n      pop\n        /* \"KYC.sol\":1134:1397  function viewKYCstatus(address ooh) public view returns(Userdef, bool, bool) {... */\n      swap2\n      swap4\n      swap1\n      swap3\n      pop\n      jump\t// out\n        /* \"KYC.sol\":688:859  function login(address ooh) public view returns(Userdef){... */\n    tag_19:\n        /* \"KYC.sol\":736:743  Userdef */\n      0x00\n        /* \"KYC.sol\":763:780  particularUserKyc */\n      0x02\n        /* \"KYC.sol\":763:785  particularUserKyc[ooh] */\n      0x00\n        /* \"KYC.sol\":781:784  ooh */\n      dup4\n        /* \"KYC.sol\":763:785  particularUserKyc[ooh] */\n      0xffffffffffffffffffffffffffffffffffffffff\n      and\n      0xffffffffffffffffffffffffffffffffffffffff\n      and\n      dup2\n      mstore\n      0x20\n      add\n      swap1\n      dup2\n      mstore\n      0x20\n      add\n      0x00\n      keccak256\n        /* \"KYC.sol\":763:798  particularUserKyc[ooh].isRegistered */\n      0x00\n      add\n      0x14\n      swap1\n      sload\n      swap1\n      0x0100\n      exp\n      swap1\n      div\n      0xff\n      and\n        /* \"KYC.sol\":755:799  require(particularUserKyc[ooh].isRegistered) */\n      tag_44\n      jumpi\n      0x00\n      dup1\n      revert\n    tag_44:\n        /* \"KYC.sol\":817:834  particularUserKyc */\n      0x02\n        /* \"KYC.sol\":817:839  particularUserKyc[ooh] */\n      0x00\n        /* \"KYC.sol\":835:838  ooh */\n      dup4\n        /* \"KYC.sol\":817:839  particularUserKyc[ooh] */\n      0xffffffffffffffffffffffffffffffffffffffff\n      and\n      0xffffffffffffffffffffffffffffffffffffffff\n      and\n      dup2\n      mstore\n      0x20\n      add\n      swap1\n      dup2\n      mstore\n      0x20\n      add\n      0x00\n      keccak256\n        /* \"KYC.sol\":817:851  particularUserKyc[ooh].kycContract */\n      0x00\n      add\n      0x00\n      swap1\n      sload\n      swap1\n      0x0100\n      exp\n      swap1\n      div\n      0xffffffffffffffffffffffffffffffffffffffff\n      and\n        /* \"KYC.sol\":810:851  return particularUserKyc[ooh].kycContract */\n      swap1\n      pop\n        /* \"KYC.sol\":688:859  function login(address ooh) public view returns(Userdef){... */\n      swap2\n      swap1\n      pop\n      jump\t// out\n        /* \"KYC.sol\":246:277  address[] public usersAddresses */\n    tag_25:\n      0x01\n      dup2\n      dup2\n      sload\n      dup2\n      lt\n      tag_45\n      jumpi\n      0x00\n      dup1\n      revert\n    tag_45:\n      swap1\n      0x00\n      mstore\n      keccak256(0x00, 0x20)\n      add\n      0x00\n      swap2\n      pop\n      sload\n      swap1\n      0x0100\n      exp\n      swap1\n      div\n      0xffffffffffffffffffffffffffffffffffffffff\n      and\n      dup2\n      jump\t// out\n        /* \"KYC.sol\":210:239  Userdef[] public deployedKycs */\n    tag_30:\n      0x00\n      dup2\n      dup2\n      sload\n      dup2\n      lt\n      tag_47\n      jumpi\n      0x00\n      dup1\n      revert\n    tag_47:\n      swap1\n      0x00\n      mstore\n      keccak256(0x00, 0x20)\n      add\n      0x00\n      swap2\n      pop\n      sload\n      swap1\n      0x0100\n      exp\n      swap1\n      div\n      0xffffffffffffffffffffffffffffffffffffffff\n      and\n      dup2\n      jump\t// out\n        /* \"KYC.sol\":339:680  function createKyc() public{... */\n    tag_33:\n        /* \"KYC.sol\":377:391  Userdef newKyc */\n      0x00\n        /* \"KYC.sol\":406:416  msg.sender */\n      caller\n        /* \"KYC.sol\":394:417  new Userdef(msg.sender) */\n      mload(0x40)\n      tag_50\n      swap1\n      tag_51\n      jump\t// in\n    tag_50:\n      tag_52\n      swap2\n      swap1\n      tag_27\n      jump\t// in\n    tag_52:\n      mload(0x40)\n      dup1\n      swap2\n      sub\n      swap1\n      0x00\n      create\n      dup1\n      iszero\n      dup1\n      iszero\n      tag_53\n      jumpi\n      returndatasize\n      0x00\n      dup1\n      returndatacopy\n      revert(0x00, returndatasize)\n    tag_53:\n      pop\n        /* \"KYC.sol\":377:417  Userdef newKyc = new Userdef(msg.sender) */\n      swap1\n      pop\n        /* \"KYC.sol\":472:478  newKyc */\n      dup1\n        /* \"KYC.sol\":428:445  particularUserKyc */\n      0x02\n        /* \"KYC.sol\":428:457  particularUserKyc[msg.sender] */\n      0x00\n        /* \"KYC.sol\":446:456  msg.sender */\n      caller\n        /* \"KYC.sol\":428:457  particularUserKyc[msg.sender] */\n      0xffffffffffffffffffffffffffffffffffffffff\n      and\n      0xffffffffffffffffffffffffffffffffffffffff\n      and\n      dup2\n      mstore\n      0x20\n      add\n      swap1\n      dup2\n      mstore\n      0x20\n      add\n      0x00\n      keccak256\n        /* \"KYC.sol\":428:469  particularUserKyc[msg.sender].kycContract */\n      0x00\n      add\n      0x00\n        /* \"KYC.sol\":428:478  particularUserKyc[msg.sender].kycContract = newKyc */\n      0x0100\n      exp\n      dup2\n      sload\n      dup2\n      0xffffffffffffffffffffffffffffffffffffffff\n      mul\n      not\n      and\n      swap1\n      dup4\n      0xffffffffffffffffffffffffffffffffffffffff\n      and\n      mul\n      or\n      swap1\n      sstore\n      pop\n        /* \"KYC.sol\":534:538  true */\n      0x01\n        /* \"KYC.sol\":489:506  particularUserKyc */\n      0x02\n        /* \"KYC.sol\":489:518  particularUserKyc[msg.sender] */\n      0x00\n        /* \"KYC.sol\":507:517  msg.sender */\n      caller\n        /* \"KYC.sol\":489:518  particularUserKyc[msg.sender] */\n      0xffffffffffffffffffffffffffffffffffffffff\n      and\n      0xffffffffffffffffffffffffffffffffffffffff\n      and\n      dup2\n      mstore\n      0x20\n      add\n      swap1\n      dup2\n      mstore\n      0x20\n      add\n      0x00\n      keccak256\n        /* \"KYC.sol\":489:531  particularUserKyc[msg.sender].isRegistered */\n      0x00\n      add\n      0x14\n        /* \"KYC.sol\":489:538  particularUserKyc[msg.sender].isRegistered = true */\n      0x0100\n      exp\n      dup2\n      sload\n      dup2\n      0xff\n      mul\n      not\n      and\n      swap1\n      dup4\n      iszero\n      iszero\n      mul\n      or\n      swap1\n      sstore\n      pop\n        /* \"KYC.sol\":589:594  false */\n      0x00\n        /* \"KYC.sol\":549:566  particularUserKyc */\n      0x02\n        /* \"KYC.sol\":549:578  particularUserKyc[msg.sender] */\n      0x00\n        /* \"KYC.sol\":567:577  msg.sender */\n      caller\n        /* \"KYC.sol\":549:578  particularUserKyc[msg.sender] */\n      0xffffffffffffffffffffffffffffffffffffffff\n      and\n      0xffffffffffffffffffffffffffffffffffffffff\n      and\n      dup2\n      mstore\n      0x20\n      add\n      swap1\n      dup2\n      mstore\n      0x20\n      add\n      0x00\n      keccak256\n        /* \"KYC.sol\":549:586  particularUserKyc[msg.sender].kycdone */\n      0x00\n      add\n      0x15\n        /* \"KYC.sol\":549:594  particularUserKyc[msg.sender].kycdone = false */\n      0x0100\n      exp\n      dup2\n      sload\n      dup2\n      0xff\n      mul\n      not\n      and\n      swap1\n      dup4\n      iszero\n      iszero\n      mul\n      or\n      swap1\n      sstore\n      pop\n        /* \"KYC.sol\":605:619  usersAddresses */\n      0x01\n        /* \"KYC.sol\":625:635  msg.sender */\n      caller\n        /* \"KYC.sol\":605:636  usersAddresses.push(msg.sender) */\n      swap1\n      dup1\n      0x01\n      dup2\n      sload\n      add\n      dup1\n      dup3\n      sstore\n      dup1\n      swap2\n      pop\n      pop\n      0x01\n      swap1\n      sub\n      swap1\n      0x00\n      mstore\n      keccak256(0x00, 0x20)\n      add\n      0x00\n      swap1\n      swap2\n      swap1\n      swap2\n      swap1\n      swap2\n      0x0100\n      exp\n      dup2\n      sload\n      dup2\n      0xffffffffffffffffffffffffffffffffffffffff\n      mul\n      not\n      and\n      swap1\n      dup4\n      0xffffffffffffffffffffffffffffffffffffffff\n      and\n      mul\n      or\n      swap1\n      sstore\n      pop\n        /* \"KYC.sol\":647:659  deployedKycs */\n      0x00\n        /* \"KYC.sol\":665:671  newKyc */\n      dup2\n        /* \"KYC.sol\":647:672  deployedKycs.push(newKyc) */\n      swap1\n      dup1\n      0x01\n      dup2\n      sload\n      add\n      dup1\n      dup3\n      sstore\n      dup1\n      swap2\n      pop\n      pop\n      0x01\n      swap1\n      sub\n      swap1\n      0x00\n      mstore\n      keccak256(0x00, 0x20)\n      add\n      0x00\n      swap1\n      swap2\n      swap1\n      swap2\n      swap1\n      swap2\n      0x0100\n      exp\n      dup2\n      sload\n      dup2\n      0xffffffffffffffffffffffffffffffffffffffff\n      mul\n      not\n      and\n      swap1\n      dup4\n      0xffffffffffffffffffffffffffffffffffffffff\n      and\n      mul\n      or\n      swap1\n      sstore\n      pop\n        /* \"KYC.sol\":366:680  {... */\n      pop\n        /* \"KYC.sol\":339:680  function createKyc() public{... */\n      jump\t// out\n        /* \"KYC.sol\":867:970  function getDeployedKycs() public view returns(Userdef[] memory) {... */\n    tag_35:\n        /* \"KYC.sol\":914:930  Userdef[] memory */\n      0x60\n        /* \"KYC.sol\":950:962  deployedKycs */\n      0x00\n        /* \"KYC.sol\":943:962  return deployedKycs */\n      dup1\n      sload\n      dup1\n      0x20\n      mul\n      0x20\n      add\n      mload(0x40)\n      swap1\n      dup2\n      add\n      0x40\n      mstore\n      dup1\n      swap3\n      swap2\n      swap1\n      dup2\n      dup2\n      mstore\n      0x20\n      add\n      dup3\n      dup1\n      sload\n      dup1\n      iszero\n      tag_57\n      jumpi\n      0x20\n      mul\n      dup3\n      add\n      swap2\n      swap1\n      0x00\n      mstore\n      keccak256(0x00, 0x20)\n      swap1\n    tag_58:\n      dup2\n      0x00\n      swap1\n      sload\n      swap1\n      0x0100\n      exp\n      swap1\n      div\n      0xffffffffffffffffffffffffffffffffffffffff\n      and\n      0xffffffffffffffffffffffffffffffffffffffff\n      and\n      dup2\n      mstore\n      0x20\n      add\n      swap1\n      0x01\n      add\n      swap1\n      dup1\n      dup4\n      gt\n      tag_58\n      jumpi\n    tag_57:\n      pop\n      pop\n      pop\n      pop\n      pop\n      swap1\n      pop\n        /* \"KYC.sol\":867:970  function getDeployedKycs() public view returns(Userdef[] memory) {... */\n      swap1\n      jump\t// out\n        /* \"KYC.sol\":978:1126  function kycdone(address ooh) public {... */\n    tag_40:\n        /* \"KYC.sol\":1034:1051  particularUserKyc */\n      0x02\n        /* \"KYC.sol\":1034:1056  particularUserKyc[ooh] */\n      0x00\n        /* \"KYC.sol\":1052:1055  ooh */\n      dup3\n        /* \"KYC.sol\":1034:1056  particularUserKyc[ooh] */\n      0xffffffffffffffffffffffffffffffffffffffff\n      and\n      0xffffffffffffffffffffffffffffffffffffffff\n      and\n      dup2\n      mstore\n      0x20\n      add\n      swap1\n      dup2\n      mstore\n      0x20\n      add\n      0x00\n      keccak256\n        /* \"KYC.sol\":1034:1069  particularUserKyc[ooh].isRegistered */\n      0x00\n      add\n      0x14\n      swap1\n      sload\n      swap1\n      0x0100\n      exp\n      swap1\n      div\n      0xff\n      and\n        /* \"KYC.sol\":1026:1070  require(particularUserKyc[ooh].isRegistered) */\n      tag_60\n      jumpi\n      0x00\n      dup1\n      revert\n    tag_60:\n        /* \"KYC.sol\":1114:1118  true */\n      0x01\n        /* \"KYC.sol\":1081:1098  particularUserKyc */\n      0x02\n        /* \"KYC.sol\":1081:1103  particularUserKyc[ooh] */\n      0x00\n        /* \"KYC.sol\":1099:1102  ooh */\n      dup4\n        /* \"KYC.sol\":1081:1103  particularUserKyc[ooh] */\n      0xffffffffffffffffffffffffffffffffffffffff\n      and\n      0xffffffffffffffffffffffffffffffffffffffff\n      and\n      dup2\n      mstore\n      0x20\n      add\n      swap1\n      dup2\n      mstore\n      0x20\n      add\n      0x00\n      keccak256\n        /* \"KYC.sol\":1081:1111  particularUserKyc[ooh].kycdone */\n      0x00\n      add\n      0x15\n        /* \"KYC.sol\":1081:1118  particularUserKyc[ooh].kycdone = true */\n      0x0100\n      exp\n      dup2\n      sload\n      dup2\n      0xff\n      mul\n      not\n      and\n      swap1\n      dup4\n      iszero\n      iszero\n      mul\n      or\n      swap1\n      sstore\n      pop\n        /* \"KYC.sol\":978:1126  function kycdone(address ooh) public {... */\n      pop\n      jump\t// out\n    tag_51:\n      dataSize(sub_0)\n      dup1\n      dataOffset(sub_0)\n      dup4\n      codecopy\n      add\n      swap1\n      jump\t// out\n        /* \"#utility.yul\":88:205   */\n    tag_62:\n        /* \"#utility.yul\":197:198   */\n      0x00\n        /* \"#utility.yul\":194:195   */\n      dup1\n        /* \"#utility.yul\":187:199   */\n      revert\n        /* \"#utility.yul\":334:460   */\n    tag_64:\n        /* \"#utility.yul\":371:378   */\n      0x00\n        /* \"#utility.yul\":411:453   */\n      0xffffffffffffffffffffffffffffffffffffffff\n        /* \"#utility.yul\":404:409   */\n      dup3\n        /* \"#utility.yul\":400:454   */\n      and\n        /* \"#utility.yul\":389:454   */\n      swap1\n      pop\n        /* \"#utility.yul\":334:460   */\n      swap2\n      swap1\n      pop\n      jump\t// out\n        /* \"#utility.yul\":466:562   */\n    tag_65:\n        /* \"#utility.yul\":503:510   */\n      0x00\n        /* \"#utility.yul\":532:556   */\n      tag_92\n        /* \"#utility.yul\":550:555   */\n      dup3\n        /* \"#utility.yul\":532:556   */\n      tag_64\n      jump\t// in\n    tag_92:\n        /* \"#utility.yul\":521:556   */\n      swap1\n      pop\n        /* \"#utility.yul\":466:562   */\n      swap2\n      swap1\n      pop\n      jump\t// out\n        /* \"#utility.yul\":568:690   */\n    tag_66:\n        /* \"#utility.yul\":641:665   */\n      tag_94\n        /* \"#utility.yul\":659:664   */\n      dup2\n        /* \"#utility.yul\":641:665   */\n      tag_65\n      jump\t// in\n    tag_94:\n        /* \"#utility.yul\":634:639   */\n      dup2\n        /* \"#utility.yul\":631:666   */\n      eq\n        /* \"#utility.yul\":621:684   */\n      tag_95\n      jumpi\n        /* \"#utility.yul\":680:681   */\n      0x00\n        /* \"#utility.yul\":677:678   */\n      dup1\n        /* \"#utility.yul\":670:682   */\n      revert\n        /* \"#utility.yul\":621:684   */\n    tag_95:\n        /* \"#utility.yul\":568:690   */\n      pop\n      jump\t// out\n        /* \"#utility.yul\":696:835   */\n    tag_67:\n        /* \"#utility.yul\":742:747   */\n      0x00\n        /* \"#utility.yul\":780:786   */\n      dup2\n        /* \"#utility.yul\":767:787   */\n      calldataload\n        /* \"#utility.yul\":758:787   */\n      swap1\n      pop\n        /* \"#utility.yul\":796:829   */\n      tag_97\n        /* \"#utility.yul\":823:828   */\n      dup2\n        /* \"#utility.yul\":796:829   */\n      tag_66\n      jump\t// in\n    tag_97:\n        /* \"#utility.yul\":696:835   */\n      swap3\n      swap2\n      pop\n      pop\n      jump\t// out\n        /* \"#utility.yul\":841:1170   */\n    tag_13:\n        /* \"#utility.yul\":900:906   */\n      0x00\n        /* \"#utility.yul\":949:951   */\n      0x20\n        /* \"#utility.yul\":937:946   */\n      dup3\n        /* \"#utility.yul\":928:935   */\n      dup5\n        /* \"#utility.yul\":924:947   */\n      sub\n        /* \"#utility.yul\":920:952   */\n      slt\n        /* \"#utility.yul\":917:1036   */\n      iszero\n      tag_99\n      jumpi\n        /* \"#utility.yul\":955:1034   */\n      tag_100\n      tag_62\n      jump\t// in\n    tag_100:\n        /* \"#utility.yul\":917:1036   */\n    tag_99:\n        /* \"#utility.yul\":1075:1076   */\n      0x00\n        /* \"#utility.yul\":1100:1153   */\n      tag_101\n        /* \"#utility.yul\":1145:1152   */\n      dup5\n        /* \"#utility.yul\":1136:1142   */\n      dup3\n        /* \"#utility.yul\":1125:1134   */\n      dup6\n        /* \"#utility.yul\":1121:1143   */\n      add\n        /* \"#utility.yul\":1100:1153   */\n      tag_67\n      jump\t// in\n    tag_101:\n        /* \"#utility.yul\":1090:1153   */\n      swap2\n      pop\n        /* \"#utility.yul\":1046:1163   */\n      pop\n        /* \"#utility.yul\":841:1170   */\n      swap3\n      swap2\n      pop\n      pop\n      jump\t// out\n        /* \"#utility.yul\":1176:1236   */\n    tag_68:\n        /* \"#utility.yul\":1204:1207   */\n      0x00\n        /* \"#utility.yul\":1225:1230   */\n      dup2\n        /* \"#utility.yul\":1218:1230   */\n      swap1\n      pop\n        /* \"#utility.yul\":1176:1236   */\n      swap2\n      swap1\n      pop\n      jump\t// out\n        /* \"#utility.yul\":1242:1384   */\n    tag_69:\n        /* \"#utility.yul\":1292:1301   */\n      0x00\n        /* \"#utility.yul\":1325:1378   */\n      tag_104\n        /* \"#utility.yul\":1343:1377   */\n      tag_105\n        /* \"#utility.yul\":1352:1376   */\n      tag_106\n        /* \"#utility.yul\":1370:1375   */\n      dup5\n        /* \"#utility.yul\":1352:1376   */\n      tag_64\n      jump\t// in\n    tag_106:\n        /* \"#utility.yul\":1343:1377   */\n      tag_68\n      jump\t// in\n    tag_105:\n        /* \"#utility.yul\":1325:1378   */\n      tag_64\n      jump\t// in\n    tag_104:\n        /* \"#utility.yul\":1312:1378   */\n      swap1\n      pop\n        /* \"#utility.yul\":1242:1384   */\n      swap2\n      swap1\n      pop\n      jump\t// out\n        /* \"#utility.yul\":1390:1516   */\n    tag_70:\n        /* \"#utility.yul\":1440:1449   */\n      0x00\n        /* \"#utility.yul\":1473:1510   */\n      tag_108\n        /* \"#utility.yul\":1504:1509   */\n      dup3\n        /* \"#utility.yul\":1473:1510   */\n      tag_69\n      jump\t// in\n    tag_108:\n        /* \"#utility.yul\":1460:1510   */\n      swap1\n      pop\n        /* \"#utility.yul\":1390:1516   */\n      swap2\n      swap1\n      pop\n      jump\t// out\n        /* \"#utility.yul\":1522:1663   */\n    tag_71:\n        /* \"#utility.yul\":1587:1596   */\n      0x00\n        /* \"#utility.yul\":1620:1657   */\n      tag_110\n        /* \"#utility.yul\":1651:1656   */\n      dup3\n        /* \"#utility.yul\":1620:1657   */\n      tag_70\n      jump\t// in\n    tag_110:\n        /* \"#utility.yul\":1607:1657   */\n      swap1\n      pop\n        /* \"#utility.yul\":1522:1663   */\n      swap2\n      swap1\n      pop\n      jump\t// out\n        /* \"#utility.yul\":1669:1830   */\n    tag_72:\n        /* \"#utility.yul\":1771:1823   */\n      tag_112\n        /* \"#utility.yul\":1817:1822   */\n      dup2\n        /* \"#utility.yul\":1771:1823   */\n      tag_71\n      jump\t// in\n    tag_112:\n        /* \"#utility.yul\":1766:1769   */\n      dup3\n        /* \"#utility.yul\":1759:1824   */\n      mstore\n        /* \"#utility.yul\":1669:1830   */\n      pop\n      pop\n      jump\t// out\n        /* \"#utility.yul\":1836:1926   */\n    tag_73:\n        /* \"#utility.yul\":1870:1877   */\n      0x00\n        /* \"#utility.yul\":1913:1918   */\n      dup2\n        /* \"#utility.yul\":1906:1919   */\n      iszero\n        /* \"#utility.yul\":1899:1920   */\n      iszero\n        /* \"#utility.yul\":1888:1920   */\n      swap1\n      pop\n        /* \"#utility.yul\":1836:1926   */\n      swap2\n      swap1\n      pop\n      jump\t// out\n        /* \"#utility.yul\":1932:2041   */\n    tag_74:\n        /* \"#utility.yul\":2013:2034   */\n      tag_115\n        /* \"#utility.yul\":2028:2033   */\n      dup2\n        /* \"#utility.yul\":2013:2034   */\n      tag_73\n      jump\t// in\n    tag_115:\n        /* \"#utility.yul\":2008:2011   */\n      dup3\n        /* \"#utility.yul\":2001:2035   */\n      mstore\n        /* \"#utility.yul\":1932:2041   */\n      pop\n      pop\n      jump\t// out\n        /* \"#utility.yul\":2047:2495   */\n    tag_16:\n        /* \"#utility.yul\":2199:2203   */\n      0x00\n        /* \"#utility.yul\":2237:2239   */\n      0x60\n        /* \"#utility.yul\":2226:2235   */\n      dup3\n        /* \"#utility.yul\":2222:2240   */\n      add\n        /* \"#utility.yul\":2214:2240   */\n      swap1\n      pop\n        /* \"#utility.yul\":2250:2336   */\n      tag_117\n        /* \"#utility.yul\":2333:2334   */\n      0x00\n        /* \"#utility.yul\":2322:2331   */\n      dup4\n        /* \"#utility.yul\":2318:2335   */\n      add\n        /* \"#utility.yul\":2309:2315   */\n      dup7\n        /* \"#utility.yul\":2250:2336   */\n      tag_72\n      jump\t// in\n    tag_117:\n        /* \"#utility.yul\":2346:2412   */\n      tag_118\n        /* \"#utility.yul\":2408:2410   */\n      0x20\n        /* \"#utility.yul\":2397:2406   */\n      dup4\n        /* \"#utility.yul\":2393:2411   */\n      add\n        /* \"#utility.yul\":2384:2390   */\n      dup6\n        /* \"#utility.yul\":2346:2412   */\n      tag_74\n      jump\t// in\n    tag_118:\n        /* \"#utility.yul\":2422:2488   */\n      tag_119\n        /* \"#utility.yul\":2484:2486   */\n      0x40\n        /* \"#utility.yul\":2473:2482   */\n      dup4\n        /* \"#utility.yul\":2469:2487   */\n      add\n        /* \"#utility.yul\":2460:2466   */\n      dup5\n        /* \"#utility.yul\":2422:2488   */\n      tag_74\n      jump\t// in\n    tag_119:\n        /* \"#utility.yul\":2047:2495   */\n      swap5\n      swap4\n      pop\n      pop\n      pop\n      pop\n      jump\t// out\n        /* \"#utility.yul\":2501:2753   */\n    tag_21:\n        /* \"#utility.yul\":2609:2613   */\n      0x00\n        /* \"#utility.yul\":2647:2649   */\n      0x20\n        /* \"#utility.yul\":2636:2645   */\n      dup3\n        /* \"#utility.yul\":2632:2650   */\n      add\n        /* \"#utility.yul\":2624:2650   */\n      swap1\n      pop\n        /* \"#utility.yul\":2660:2746   */\n      tag_121\n        /* \"#utility.yul\":2743:2744   */\n      0x00\n        /* \"#utility.yul\":2732:2741   */\n      dup4\n        /* \"#utility.yul\":2728:2745   */\n      add\n        /* \"#utility.yul\":2719:2725   */\n      dup5\n        /* \"#utility.yul\":2660:2746   */\n      tag_72\n      jump\t// in\n    tag_121:\n        /* \"#utility.yul\":2501:2753   */\n      swap3\n      swap2\n      pop\n      pop\n      jump\t// out\n        /* \"#utility.yul\":2759:2836   */\n    tag_75:\n        /* \"#utility.yul\":2796:2803   */\n      0x00\n        /* \"#utility.yul\":2825:2830   */\n      dup2\n        /* \"#utility.yul\":2814:2830   */\n      swap1\n      pop\n        /* \"#utility.yul\":2759:2836   */\n      swap2\n      swap1\n      pop\n      jump\t// out\n        /* \"#utility.yul\":2842:2964   */\n    tag_76:\n        /* \"#utility.yul\":2915:2939   */\n      tag_124\n        /* \"#utility.yul\":2933:2938   */\n      dup2\n        /* \"#utility.yul\":2915:2939   */\n      tag_75\n      jump\t// in\n    tag_124:\n        /* \"#utility.yul\":2908:2913   */\n      dup2\n        /* \"#utility.yul\":2905:2940   */\n      eq\n        /* \"#utility.yul\":2895:2958   */\n      tag_125\n      jumpi\n        /* \"#utility.yul\":2954:2955   */\n      0x00\n        /* \"#utility.yul\":2951:2952   */\n      dup1\n        /* \"#utility.yul\":2944:2956   */\n      revert\n        /* \"#utility.yul\":2895:2958   */\n    tag_125:\n        /* \"#utility.yul\":2842:2964   */\n      pop\n      jump\t// out\n        /* \"#utility.yul\":2970:3109   */\n    tag_77:\n        /* \"#utility.yul\":3016:3021   */\n      0x00\n        /* \"#utility.yul\":3054:3060   */\n      dup2\n        /* \"#utility.yul\":3041:3061   */\n      calldataload\n        /* \"#utility.yul\":3032:3061   */\n      swap1\n      pop\n        /* \"#utility.yul\":3070:3103   */\n      tag_127\n        /* \"#utility.yul\":3097:3102   */\n      dup2\n        /* \"#utility.yul\":3070:3103   */\n      tag_76\n      jump\t// in\n    tag_127:\n        /* \"#utility.yul\":2970:3109   */\n      swap3\n      swap2\n      pop\n      pop\n      jump\t// out\n        /* \"#utility.yul\":3115:3444   */\n    tag_24:\n        /* \"#utility.yul\":3174:3180   */\n      0x00\n        /* \"#utility.yul\":3223:3225   */\n      0x20\n        /* \"#utility.yul\":3211:3220   */\n      dup3\n        /* \"#utility.yul\":3202:3209   */\n      dup5\n        /* \"#utility.yul\":3198:3221   */\n      sub\n        /* \"#utility.yul\":3194:3226   */\n      slt\n        /* \"#utility.yul\":3191:3310   */\n      iszero\n      tag_129\n      jumpi\n        /* \"#utility.yul\":3229:3308   */\n      tag_130\n      tag_62\n      jump\t// in\n    tag_130:\n        /* \"#utility.yul\":3191:3310   */\n    tag_129:\n        /* \"#utility.yul\":3349:3350   */\n      0x00\n        /* \"#utility.yul\":3374:3427   */\n      tag_131\n        /* \"#utility.yul\":3419:3426   */\n      dup5\n        /* \"#utility.yul\":3410:3416   */\n      dup3\n        /* \"#utility.yul\":3399:3408   */\n      dup6\n        /* \"#utility.yul\":3395:3417   */\n      add\n        /* \"#utility.yul\":3374:3427   */\n      tag_77\n      jump\t// in\n    tag_131:\n        /* \"#utility.yul\":3364:3427   */\n      swap2\n      pop\n        /* \"#utility.yul\":3320:3437   */\n      pop\n        /* \"#utility.yul\":3115:3444   */\n      swap3\n      swap2\n      pop\n      pop\n      jump\t// out\n        /* \"#utility.yul\":3450:3568   */\n    tag_78:\n        /* \"#utility.yul\":3537:3561   */\n      tag_133\n        /* \"#utility.yul\":3555:3560   */\n      dup2\n        /* \"#utility.yul\":3537:3561   */\n      tag_65\n      jump\t// in\n    tag_133:\n        /* \"#utility.yul\":3532:3535   */\n      dup3\n        /* \"#utility.yul\":3525:3562   */\n      mstore\n        /* \"#utility.yul\":3450:3568   */\n      pop\n      pop\n      jump\t// out\n        /* \"#utility.yul\":3574:3796   */\n    tag_27:\n        /* \"#utility.yul\":3667:3671   */\n      0x00\n        /* \"#utility.yul\":3705:3707   */\n      0x20\n        /* \"#utility.yul\":3694:3703   */\n      dup3\n        /* \"#utility.yul\":3690:3708   */\n      add\n        /* \"#utility.yul\":3682:3708   */\n      swap1\n      pop\n        /* \"#utility.yul\":3718:3789   */\n      tag_135\n        /* \"#utility.yul\":3786:3787   */\n      0x00\n        /* \"#utility.yul\":3775:3784   */\n      dup4\n        /* \"#utility.yul\":3771:3788   */\n      add\n        /* \"#utility.yul\":3762:3768   */\n      dup5\n        /* \"#utility.yul\":3718:3789   */\n      tag_78\n      jump\t// in\n    tag_135:\n        /* \"#utility.yul\":3574:3796   */\n      swap3\n      swap2\n      pop\n      pop\n      jump\t// out\n        /* \"#utility.yul\":3802:3931   */\n    tag_79:\n        /* \"#utility.yul\":3884:3890   */\n      0x00\n        /* \"#utility.yul\":3918:3923   */\n      dup2\n        /* \"#utility.yul\":3912:3924   */\n      mload\n        /* \"#utility.yul\":3902:3924   */\n      swap1\n      pop\n        /* \"#utility.yul\":3802:3931   */\n      swap2\n      swap1\n      pop\n      jump\t// out\n        /* \"#utility.yul\":3937:4121   */\n    tag_80:\n        /* \"#utility.yul\":4036:4047   */\n      0x00\n        /* \"#utility.yul\":4070:4076   */\n      dup3\n        /* \"#utility.yul\":4065:4068   */\n      dup3\n        /* \"#utility.yul\":4058:4077   */\n      mstore\n        /* \"#utility.yul\":4110:4114   */\n      0x20\n        /* \"#utility.yul\":4105:4108   */\n      dup3\n        /* \"#utility.yul\":4101:4115   */\n      add\n        /* \"#utility.yul\":4086:4115   */\n      swap1\n      pop\n        /* \"#utility.yul\":3937:4121   */\n      swap3\n      swap2\n      pop\n      pop\n      jump\t// out\n        /* \"#utility.yul\":4127:4274   */\n    tag_81:\n        /* \"#utility.yul\":4209:4213   */\n      0x00\n        /* \"#utility.yul\":4232:4235   */\n      dup2\n        /* \"#utility.yul\":4224:4235   */\n      swap1\n      pop\n        /* \"#utility.yul\":4262:4266   */\n      0x20\n        /* \"#utility.yul\":4257:4260   */\n      dup3\n        /* \"#utility.yul\":4253:4267   */\n      add\n        /* \"#utility.yul\":4245:4267   */\n      swap1\n      pop\n        /* \"#utility.yul\":4127:4274   */\n      swap2\n      swap1\n      pop\n      jump\t// out\n        /* \"#utility.yul\":4280:4431   */\n    tag_82:\n        /* \"#utility.yul\":4372:4424   */\n      tag_140\n        /* \"#utility.yul\":4418:4423   */\n      dup2\n        /* \"#utility.yul\":4372:4424   */\n      tag_71\n      jump\t// in\n    tag_140:\n        /* \"#utility.yul\":4367:4370   */\n      dup3\n        /* \"#utility.yul\":4360:4425   */\n      mstore\n        /* \"#utility.yul\":4280:4431   */\n      pop\n      pop\n      jump\t// out\n        /* \"#utility.yul\":4437:4646   */\n    tag_83:\n        /* \"#utility.yul\":4521:4531   */\n      0x00\n        /* \"#utility.yul\":4542:4603   */\n      tag_142\n        /* \"#utility.yul\":4599:4602   */\n      dup4\n        /* \"#utility.yul\":4591:4597   */\n      dup4\n        /* \"#utility.yul\":4542:4603   */\n      tag_82\n      jump\t// in\n    tag_142:\n        /* \"#utility.yul\":4635:4639   */\n      0x20\n        /* \"#utility.yul\":4630:4633   */\n      dup4\n        /* \"#utility.yul\":4626:4640   */\n      add\n        /* \"#utility.yul\":4612:4640   */\n      swap1\n      pop\n        /* \"#utility.yul\":4437:4646   */\n      swap3\n      swap2\n      pop\n      pop\n      jump\t// out\n        /* \"#utility.yul\":4652:4780   */\n    tag_84:\n        /* \"#utility.yul\":4737:4741   */\n      0x00\n        /* \"#utility.yul\":4769:4773   */\n      0x20\n        /* \"#utility.yul\":4764:4767   */\n      dup3\n        /* \"#utility.yul\":4760:4774   */\n      add\n        /* \"#utility.yul\":4752:4774   */\n      swap1\n      pop\n        /* \"#utility.yul\":4652:4780   */\n      swap2\n      swap1\n      pop\n      jump\t// out\n        /* \"#utility.yul\":4825:5632   */\n    tag_85:\n        /* \"#utility.yul\":4959:4962   */\n      0x00\n        /* \"#utility.yul\":4988:5057   */\n      tag_145\n        /* \"#utility.yul\":5051:5056   */\n      dup3\n        /* \"#utility.yul\":4988:5057   */\n      tag_79\n      jump\t// in\n    tag_145:\n        /* \"#utility.yul\":5073:5159   */\n      tag_146\n        /* \"#utility.yul\":5152:5158   */\n      dup2\n        /* \"#utility.yul\":5147:5150   */\n      dup6\n        /* \"#utility.yul\":5073:5159   */\n      tag_80\n      jump\t// in\n    tag_146:\n        /* \"#utility.yul\":5066:5159   */\n      swap4\n      pop\n        /* \"#utility.yul\":5183:5254   */\n      tag_147\n        /* \"#utility.yul\":5248:5253   */\n      dup4\n        /* \"#utility.yul\":5183:5254   */\n      tag_81\n      jump\t// in\n    tag_147:\n        /* \"#utility.yul\":5277:5284   */\n      dup1\n        /* \"#utility.yul\":5308:5309   */\n      0x00\n        /* \"#utility.yul\":5293:5607   */\n    tag_148:\n        /* \"#utility.yul\":5318:5324   */\n      dup4\n        /* \"#utility.yul\":5315:5316   */\n      dup2\n        /* \"#utility.yul\":5312:5325   */\n      lt\n        /* \"#utility.yul\":5293:5607   */\n      iszero\n      tag_150\n      jumpi\n        /* \"#utility.yul\":5394:5400   */\n      dup2\n        /* \"#utility.yul\":5388:5401   */\n      mload\n        /* \"#utility.yul\":5421:5499   */\n      tag_151\n        /* \"#utility.yul\":5495:5498   */\n      dup9\n        /* \"#utility.yul\":5480:5493   */\n      dup3\n        /* \"#utility.yul\":5421:5499   */\n      tag_83\n      jump\t// in\n    tag_151:\n        /* \"#utility.yul\":5414:5499   */\n      swap8\n      pop\n        /* \"#utility.yul\":5522:5597   */\n      tag_152\n        /* \"#utility.yul\":5590:5596   */\n      dup4\n        /* \"#utility.yul\":5522:5597   */\n      tag_84\n      jump\t// in\n    tag_152:\n        /* \"#utility.yul\":5512:5597   */\n      swap3\n      pop\n        /* \"#utility.yul\":5353:5607   */\n      pop\n        /* \"#utility.yul\":5340:5341   */\n      0x01\n        /* \"#utility.yul\":5337:5338   */\n      dup2\n        /* \"#utility.yul\":5333:5342   */\n      add\n        /* \"#utility.yul\":5328:5342   */\n      swap1\n      pop\n        /* \"#utility.yul\":5293:5607   */\n      jump(tag_148)\n    tag_150:\n        /* \"#utility.yul\":5297:5311   */\n      pop\n        /* \"#utility.yul\":5623:5626   */\n      dup6\n        /* \"#utility.yul\":5616:5626   */\n      swap4\n      pop\n        /* \"#utility.yul\":4964:5632   */\n      pop\n      pop\n      pop\n        /* \"#utility.yul\":4825:5632   */\n      swap3\n      swap2\n      pop\n      pop\n      jump\t// out\n        /* \"#utility.yul\":5638:6041   */\n    tag_37:\n        /* \"#utility.yul\":5796:5800   */\n      0x00\n        /* \"#utility.yul\":5834:5836   */\n      0x20\n        /* \"#utility.yul\":5823:5832   */\n      dup3\n        /* \"#utility.yul\":5819:5837   */\n      add\n        /* \"#utility.yul\":5811:5837   */\n      swap1\n      pop\n        /* \"#utility.yul\":5883:5892   */\n      dup2\n        /* \"#utility.yul\":5877:5881   */\n      dup2\n        /* \"#utility.yul\":5873:5893   */\n      sub\n        /* \"#utility.yul\":5869:5870   */\n      0x00\n        /* \"#utility.yul\":5858:5867   */\n      dup4\n        /* \"#utility.yul\":5854:5871   */\n      add\n        /* \"#utility.yul\":5847:5894   */\n      mstore\n        /* \"#utility.yul\":5911:6034   */\n      tag_154\n        /* \"#utility.yul\":6029:6033   */\n      dup2\n        /* \"#utility.yul\":6020:6026   */\n      dup5\n        /* \"#utility.yul\":5911:6034   */\n      tag_85\n      jump\t// in\n    tag_154:\n        /* \"#utility.yul\":5903:6034   */\n      swap1\n      pop\n        /* \"#utility.yul\":5638:6041   */\n      swap3\n      swap2\n      pop\n      pop\n      jump\t// out\n    stop\n\n    sub_0: assembly {\n            /* \"KYC.sol\":1406:4769  contract Userdef{... */\n          mstore(0x40, 0x80)\n            /* \"KYC.sol\":1999:2122  constructor(address creator){... */\n          callvalue\n          dup1\n          iszero\n          tag_1\n          jumpi\n          0x00\n          dup1\n          revert\n        tag_1:\n          pop\n          mload(0x40)\n          sub(codesize, bytecodeSize)\n          dup1\n          bytecodeSize\n          dup4\n          codecopy\n          dup2\n          dup2\n          add\n          0x40\n          mstore\n          dup2\n          add\n          swap1\n          tag_2\n          swap2\n          swap1\n          tag_3\n          jump\t// in\n        tag_2:\n            /* \"KYC.sol\":2048:2055  creator */\n          dup1\n            /* \"KYC.sol\":2038:2045  manager */\n          0x02\n          0x00\n            /* \"KYC.sol\":2038:2055  manager = creator */\n          0x0100\n          exp\n          dup2\n          sload\n          dup2\n          0xffffffffffffffffffffffffffffffffffffffff\n          mul\n          not\n          and\n          swap1\n          dup4\n          0xffffffffffffffffffffffffffffffffffffffff\n          and\n          mul\n          or\n          swap1\n          sstore\n          pop\n            /* \"KYC.sol\":1999:2122  constructor(address creator){... */\n          pop\n            /* \"KYC.sol\":1406:4769  contract Userdef{... */\n          jump(tag_6)\n            /* \"#utility.yul\":88:205   */\n        tag_8:\n            /* \"#utility.yul\":197:198   */\n          0x00\n            /* \"#utility.yul\":194:195   */\n          dup1\n            /* \"#utility.yul\":187:199   */\n          revert\n            /* \"#utility.yul\":334:460   */\n        tag_10:\n            /* \"#utility.yul\":371:378   */\n          0x00\n            /* \"#utility.yul\":411:453   */\n          0xffffffffffffffffffffffffffffffffffffffff\n            /* \"#utility.yul\":404:409   */\n          dup3\n            /* \"#utility.yul\":400:454   */\n          and\n            /* \"#utility.yul\":389:454   */\n          swap1\n          pop\n            /* \"#utility.yul\":334:460   */\n          swap2\n          swap1\n          pop\n          jump\t// out\n            /* \"#utility.yul\":466:562   */\n        tag_11:\n            /* \"#utility.yul\":503:510   */\n          0x00\n            /* \"#utility.yul\":532:556   */\n          tag_20\n            /* \"#utility.yul\":550:555   */\n          dup3\n            /* \"#utility.yul\":532:556   */\n          tag_10\n          jump\t// in\n        tag_20:\n            /* \"#utility.yul\":521:556   */\n          swap1\n          pop\n            /* \"#utility.yul\":466:562   */\n          swap2\n          swap1\n          pop\n          jump\t// out\n            /* \"#utility.yul\":568:690   */\n        tag_12:\n            /* \"#utility.yul\":641:665   */\n          tag_22\n            /* \"#utility.yul\":659:664   */\n          dup2\n            /* \"#utility.yul\":641:665   */\n          tag_11\n          jump\t// in\n        tag_22:\n            /* \"#utility.yul\":634:639   */\n          dup2\n            /* \"#utility.yul\":631:666   */\n          eq\n            /* \"#utility.yul\":621:684   */\n          tag_23\n          jumpi\n            /* \"#utility.yul\":680:681   */\n          0x00\n            /* \"#utility.yul\":677:678   */\n          dup1\n            /* \"#utility.yul\":670:682   */\n          revert\n            /* \"#utility.yul\":621:684   */\n        tag_23:\n            /* \"#utility.yul\":568:690   */\n          pop\n          jump\t// out\n            /* \"#utility.yul\":696:839   */\n        tag_13:\n            /* \"#utility.yul\":753:758   */\n          0x00\n            /* \"#utility.yul\":784:790   */\n          dup2\n            /* \"#utility.yul\":778:791   */\n          mload\n            /* \"#utility.yul\":769:791   */\n          swap1\n          pop\n            /* \"#utility.yul\":800:833   */\n          tag_25\n            /* \"#utility.yul\":827:832   */\n          dup2\n            /* \"#utility.yul\":800:833   */\n          tag_12\n          jump\t// in\n        tag_25:\n            /* \"#utility.yul\":696:839   */\n          swap3\n          swap2\n          pop\n          pop\n          jump\t// out\n            /* \"#utility.yul\":845:1196   */\n        tag_3:\n            /* \"#utility.yul\":915:921   */\n          0x00\n            /* \"#utility.yul\":964:966   */\n          0x20\n            /* \"#utility.yul\":952:961   */\n          dup3\n            /* \"#utility.yul\":943:950   */\n          dup5\n            /* \"#utility.yul\":939:962   */\n          sub\n            /* \"#utility.yul\":935:967   */\n          slt\n            /* \"#utility.yul\":932:1051   */\n          iszero\n          tag_27\n          jumpi\n            /* \"#utility.yul\":970:1049   */\n          tag_28\n          tag_8\n          jump\t// in\n        tag_28:\n            /* \"#utility.yul\":932:1051   */\n        tag_27:\n            /* \"#utility.yul\":1090:1091   */\n          0x00\n            /* \"#utility.yul\":1115:1179   */\n          tag_29\n            /* \"#utility.yul\":1171:1178   */\n          dup5\n            /* \"#utility.yul\":1162:1168   */\n          dup3\n            /* \"#utility.yul\":1151:1160   */\n          dup6\n            /* \"#utility.yul\":1147:1169   */\n          add\n            /* \"#utility.yul\":1115:1179   */\n          tag_13\n          jump\t// in\n        tag_29:\n            /* \"#utility.yul\":1105:1179   */\n          swap2\n          pop\n            /* \"#utility.yul\":1061:1189   */\n          pop\n            /* \"#utility.yul\":845:1196   */\n          swap3\n          swap2\n          pop\n          pop\n          jump\t// out\n            /* \"KYC.sol\":1406:4769  contract Userdef{... */\n        tag_6:\n          dataSize(sub_0)\n          dup1\n          dataOffset(sub_0)\n          0x00\n          codecopy\n          0x00\n          return\n        stop\n\n        sub_0: assembly {\n                /* \"KYC.sol\":1406:4769  contract Userdef{... */\n              mstore(0x40, 0x80)\n              callvalue\n              dup1\n              iszero\n              tag_1\n              jumpi\n              0x00\n              dup1\n              revert\n            tag_1:\n              pop\n              jumpi(tag_2, lt(calldatasize, 0x04))\n              shr(0xe0, calldataload(0x00))\n              dup1\n              0x787fd703\n              gt\n              tag_14\n              jumpi\n              dup1\n              0x787fd703\n              eq\n              tag_8\n              jumpi\n              dup1\n              0xadb4d990\n              eq\n              tag_9\n              jumpi\n              dup1\n              0xcc3d967b\n              eq\n              tag_10\n              jumpi\n              dup1\n              0xea00962f\n              eq\n              tag_11\n              jumpi\n              dup1\n              0xede3a670\n              eq\n              tag_12\n              jumpi\n              dup1\n              0xf203c19d\n              eq\n              tag_13\n              jumpi\n              jump(tag_2)\n            tag_14:\n              dup1\n              0x061dff9a\n              eq\n              tag_3\n              jumpi\n              dup1\n              0x091bac16\n              eq\n              tag_4\n              jumpi\n              dup1\n              0x311cc831\n              eq\n              tag_5\n              jumpi\n              dup1\n              0x481c6a75\n              eq\n              tag_6\n              jumpi\n              dup1\n              0x509fda0e\n              eq\n              tag_7\n              jumpi\n            tag_2:\n              0x00\n              dup1\n              revert\n                /* \"KYC.sol\":4635:4764  function approveRequest(address recepient) public{... */\n            tag_3:\n              tag_15\n              0x04\n              dup1\n              calldatasize\n              sub\n              dup2\n              add\n              swap1\n              tag_16\n              swap2\n              swap1\n              tag_17\n              jump\t// in\n            tag_16:\n              tag_18\n              jump\t// in\n            tag_15:\n              stop\n                /* \"KYC.sol\":3450:3666  function getAadharPan(address rer) public view... */\n            tag_4:\n              tag_19\n              0x04\n              dup1\n              calldatasize\n              sub\n              dup2\n              add\n              swap1\n              tag_20\n              swap2\n              swap1\n              tag_17\n              jump\t// in\n            tag_20:\n              tag_21\n              jump\t// in\n            tag_19:\n              mload(0x40)\n              tag_22\n              swap3\n              swap2\n              swap1\n              tag_23\n              jump\t// in\n            tag_22:\n              mload(0x40)\n              dup1\n              swap2\n              sub\n              swap1\n              return\n                /* \"KYC.sol\":2130:2902  function addUser(string memory n, string memory f, string memory m, string memory d, string memory ad,string memory mo,string memory e,string memory aadhar,string memory pan,string memory ah,string memory ph) ... */\n            tag_5:\n              tag_24\n              0x04\n              dup1\n              calldatasize\n              sub\n              dup2\n              add\n              swap1\n              tag_25\n              swap2\n              swap1\n              tag_26\n              jump\t// in\n            tag_25:\n              tag_27\n              jump\t// in\n            tag_24:\n              stop\n                /* \"KYC.sol\":1816:1838  address public manager */\n            tag_6:\n              tag_28\n              tag_29\n              jump\t// in\n            tag_28:\n              mload(0x40)\n              tag_30\n              swap2\n              swap1\n              tag_31\n              jump\t// in\n            tag_30:\n              mload(0x40)\n              dup1\n              swap2\n              sub\n              swap1\n              return\n                /* \"KYC.sol\":3697:3933  function getAadharPanHash(address rer) public view... */\n            tag_7:\n              tag_32\n              0x04\n              dup1\n              calldatasize\n              sub\n              dup2\n              add\n              swap1\n              tag_33\n              swap2\n              swap1\n              tag_17\n              jump\t// in\n            tag_33:\n              tag_34\n              jump\t// in\n            tag_32:\n              mload(0x40)\n              tag_35\n              swap3\n              swap2\n              swap1\n              tag_23\n              jump\t// in\n            tag_35:\n              mload(0x40)\n              dup1\n              swap2\n              sub\n              swap1\n              return\n                /* \"KYC.sol\":4420:4627  function getUserAadharPanHash(address rer) public view... */\n            tag_8:\n              tag_36\n              0x04\n              dup1\n              calldatasize\n              sub\n              dup2\n              add\n              swap1\n              tag_37\n              swap2\n              swap1\n              tag_17\n              jump\t// in\n            tag_37:\n              tag_38\n              jump\t// in\n            tag_36:\n              mload(0x40)\n              tag_39\n              swap3\n              swap2\n              swap1\n              tag_23\n              jump\t// in\n            tag_39:\n              mload(0x40)\n              dup1\n              swap2\n              sub\n              swap1\n              return\n                /* \"KYC.sol\":1869:1892  address public assigned */\n            tag_9:\n              tag_40\n              tag_41\n              jump\t// in\n            tag_40:\n              mload(0x40)\n              tag_42\n              swap2\n              swap1\n              tag_31\n              jump\t// in\n            tag_42:\n              mload(0x40)\n              dup1\n              swap2\n              sub\n              swap1\n              return\n                /* \"KYC.sol\":3968:4412  function getUserDetails(address ass) public view... */\n            tag_10:\n              tag_43\n              0x04\n              dup1\n              calldatasize\n              sub\n              dup2\n              add\n              swap1\n              tag_44\n              swap2\n              swap1\n              tag_17\n              jump\t// in\n            tag_44:\n              tag_45\n              jump\t// in\n            tag_43:\n              mload(0x40)\n              tag_46\n              swap10\n              swap9\n              swap8\n              swap7\n              swap6\n              swap5\n              swap4\n              swap3\n              swap2\n              swap1\n              tag_47\n              jump\t// in\n            tag_46:\n              mload(0x40)\n              dup1\n              swap2\n              sub\n              swap1\n              return\n                /* \"KYC.sol\":2910:3005  function getDeployedUsers() public view returns(address) {... */\n            tag_11:\n              tag_48\n              tag_49\n              jump\t// in\n            tag_48:\n              mload(0x40)\n              tag_50\n              swap2\n              swap1\n              tag_31\n              jump\t// in\n            tag_50:\n              mload(0x40)\n              dup1\n              swap2\n              sub\n              swap1\n              return\n                /* \"KYC.sol\":3036:3419  function getparticularUser(address rer) public view... */\n            tag_12:\n              tag_51\n              0x04\n              dup1\n              calldatasize\n              sub\n              dup2\n              add\n              swap1\n              tag_52\n              swap2\n              swap1\n              tag_17\n              jump\t// in\n            tag_52:\n              tag_53\n              jump\t// in\n            tag_51:\n              mload(0x40)\n              tag_54\n              swap8\n              swap7\n              swap6\n              swap5\n              swap4\n              swap3\n              swap2\n              swap1\n              tag_55\n              jump\t// in\n            tag_54:\n              mload(0x40)\n              dup1\n              swap2\n              sub\n              swap1\n              return\n                /* \"KYC.sol\":1745:1772  address public usersAddress */\n            tag_13:\n              tag_56\n              tag_57\n              jump\t// in\n            tag_56:\n              mload(0x40)\n              tag_58\n              swap2\n              swap1\n              tag_31\n              jump\t// in\n            tag_58:\n              mload(0x40)\n              dup1\n              swap2\n              sub\n              swap1\n              return\n                /* \"KYC.sol\":4635:4764  function approveRequest(address recepient) public{... */\n            tag_18:\n                /* \"KYC.sol\":4717:4724  manager */\n              0x02\n              0x00\n              swap1\n              sload\n              swap1\n              0x0100\n              exp\n              swap1\n              div\n              0xffffffffffffffffffffffffffffffffffffffff\n              and\n                /* \"KYC.sol\":4703:4724  msg.sender == manager */\n              0xffffffffffffffffffffffffffffffffffffffff\n              and\n                /* \"KYC.sol\":4703:4713  msg.sender */\n              caller\n                /* \"KYC.sol\":4703:4724  msg.sender == manager */\n              0xffffffffffffffffffffffffffffffffffffffff\n              and\n              eq\n                /* \"KYC.sol\":4695:4725  require(msg.sender == manager) */\n              tag_60\n              jumpi\n              0x00\n              dup1\n              revert\n            tag_60:\n                /* \"KYC.sol\":4747:4756  recepient */\n              dup1\n                /* \"KYC.sol\":4736:4744  assigned */\n              0x03\n              0x00\n                /* \"KYC.sol\":4736:4756  assigned = recepient */\n              0x0100\n              exp\n              dup2\n              sload\n              dup2\n              0xffffffffffffffffffffffffffffffffffffffff\n              mul\n              not\n              and\n              swap1\n              dup4\n              0xffffffffffffffffffffffffffffffffffffffff\n              and\n              mul\n              or\n              swap1\n              sstore\n              pop\n                /* \"KYC.sol\":4635:4764  function approveRequest(address recepient) public{... */\n              pop\n              jump\t// out\n                /* \"KYC.sol\":3450:3666  function getAadharPan(address rer) public view... */\n            tag_21:\n                /* \"KYC.sol\":3510:3523  string memory */\n              0x60\n                /* \"KYC.sol\":3524:3537  string memory */\n              dup1\n                /* \"KYC.sol\":3557:3562  users */\n              0x01\n                /* \"KYC.sol\":3557:3567  users[rer] */\n              0x00\n                /* \"KYC.sol\":3563:3566  rer */\n              dup5\n                /* \"KYC.sol\":3557:3567  users[rer] */\n              0xffffffffffffffffffffffffffffffffffffffff\n              and\n              0xffffffffffffffffffffffffffffffffffffffff\n              and\n              dup2\n              mstore\n              0x20\n              add\n              swap1\n              dup2\n              mstore\n              0x20\n              add\n              0x00\n              keccak256\n                /* \"KYC.sol\":3557:3571  users[rer].set */\n              0x09\n              add\n              0x00\n              swap1\n              sload\n              swap1\n              0x0100\n              exp\n              swap1\n              div\n              0xff\n              and\n                /* \"KYC.sol\":3549:3572  require(users[rer].set) */\n              tag_62\n              jumpi\n              0x00\n              dup1\n              revert\n            tag_62:\n                /* \"KYC.sol\":3598:3605  manager */\n              0x02\n              0x00\n              swap1\n              sload\n              swap1\n              0x0100\n              exp\n              swap1\n              div\n              0xffffffffffffffffffffffffffffffffffffffff\n              and\n                /* \"KYC.sol\":3591:3605  rer == manager */\n              0xffffffffffffffffffffffffffffffffffffffff\n              and\n                /* \"KYC.sol\":3591:3594  rer */\n              dup4\n                /* \"KYC.sol\":3591:3605  rer == manager */\n              0xffffffffffffffffffffffffffffffffffffffff\n              and\n              eq\n                /* \"KYC.sol\":3583:3606  require(rer == manager) */\n              tag_63\n              jumpi\n              0x00\n              dup1\n              revert\n            tag_63:\n                /* \"KYC.sol\":3625:3630  users */\n              0x01\n                /* \"KYC.sol\":3625:3635  users[rer] */\n              0x00\n                /* \"KYC.sol\":3631:3634  rer */\n              dup5\n                /* \"KYC.sol\":3625:3635  users[rer] */\n              0xffffffffffffffffffffffffffffffffffffffff\n              and\n              0xffffffffffffffffffffffffffffffffffffffff\n              and\n              dup2\n              mstore\n              0x20\n              add\n              swap1\n              dup2\n              mstore\n              0x20\n              add\n              0x00\n              keccak256\n                /* \"KYC.sol\":3625:3642  users[rer].aadhar */\n              0x07\n              add\n                /* \"KYC.sol\":3643:3648  users */\n              0x01\n                /* \"KYC.sol\":3643:3653  users[rer] */\n              0x00\n                /* \"KYC.sol\":3649:3652  rer */\n              dup6\n                /* \"KYC.sol\":3643:3653  users[rer] */\n              0xffffffffffffffffffffffffffffffffffffffff\n              and\n              0xffffffffffffffffffffffffffffffffffffffff\n              and\n              dup2\n              mstore\n              0x20\n              add\n              swap1\n              dup2\n              mstore\n              0x20\n              add\n              0x00\n              keccak256\n                /* \"KYC.sol\":3643:3657  users[rer].pan */\n              0x08\n              add\n                /* \"KYC.sol\":3617:3658  return (users[rer].aadhar,users[rer].pan) */\n              dup2\n              dup1\n              sload\n              tag_64\n              swap1\n              tag_65\n              jump\t// in\n            tag_64:\n              dup1\n              0x1f\n              add\n              0x20\n              dup1\n              swap2\n              div\n              mul\n              0x20\n              add\n              mload(0x40)\n              swap1\n              dup2\n              add\n              0x40\n              mstore\n              dup1\n              swap3\n              swap2\n              swap1\n              dup2\n              dup2\n              mstore\n              0x20\n              add\n              dup3\n              dup1\n              sload\n              tag_66\n              swap1\n              tag_65\n              jump\t// in\n            tag_66:\n              dup1\n              iszero\n              tag_67\n              jumpi\n              dup1\n              0x1f\n              lt\n              tag_68\n              jumpi\n              0x0100\n              dup1\n              dup4\n              sload\n              div\n              mul\n              dup4\n              mstore\n              swap2\n              0x20\n              add\n              swap2\n              jump(tag_67)\n            tag_68:\n              dup3\n              add\n              swap2\n              swap1\n              0x00\n              mstore\n              keccak256(0x00, 0x20)\n              swap1\n            tag_69:\n              dup2\n              sload\n              dup2\n              mstore\n              swap1\n              0x01\n              add\n              swap1\n              0x20\n              add\n              dup1\n              dup4\n              gt\n              tag_69\n              jumpi\n              dup3\n              swap1\n              sub\n              0x1f\n              and\n              dup3\n              add\n              swap2\n            tag_67:\n              pop\n              pop\n              pop\n              pop\n              pop\n              swap2\n              pop\n              dup1\n              dup1\n              sload\n              tag_70\n              swap1\n              tag_65\n              jump\t// in\n            tag_70:\n              dup1\n              0x1f\n              add\n              0x20\n              dup1\n              swap2\n              div\n              mul\n              0x20\n              add\n              mload(0x40)\n              swap1\n              dup2\n              add\n              0x40\n              mstore\n              dup1\n              swap3\n              swap2\n              swap1\n              dup2\n              dup2\n              mstore\n              0x20\n              add\n              dup3\n              dup1\n              sload\n              tag_71\n              swap1\n              tag_65\n              jump\t// in\n            tag_71:\n              dup1\n              iszero\n              tag_72\n              jumpi\n              dup1\n              0x1f\n              lt\n              tag_73\n              jumpi\n              0x0100\n              dup1\n              dup4\n              sload\n              div\n              mul\n              dup4\n              mstore\n              swap2\n              0x20\n              add\n              swap2\n              jump(tag_72)\n            tag_73:\n              dup3\n              add\n              swap2\n              swap1\n              0x00\n              mstore\n              keccak256(0x00, 0x20)\n              swap1\n            tag_74:\n              dup2\n              sload\n              dup2\n              mstore\n              swap1\n              0x01\n              add\n              swap1\n              0x20\n              add\n              dup1\n              dup4\n              gt\n              tag_74\n              jumpi\n              dup3\n              swap1\n              sub\n              0x1f\n              and\n              dup3\n              add\n              swap2\n            tag_72:\n              pop\n              pop\n              pop\n              pop\n              pop\n              swap1\n              pop\n              swap2\n              pop\n              swap2\n              pop\n                /* \"KYC.sol\":3450:3666  function getAadharPan(address rer) public view... */\n              swap2\n              pop\n              swap2\n              jump\t// out\n                /* \"KYC.sol\":2130:2902  function addUser(string memory n, string memory f, string memory m, string memory d, string memory ad,string memory mo,string memory e,string memory aadhar,string memory pan,string memory ah,string memory ph) ... */\n            tag_27:\n                /* \"KYC.sol\":1959:1966  manager */\n              0x02\n              0x00\n              swap1\n              sload\n              swap1\n              0x0100\n              exp\n              swap1\n              div\n              0xffffffffffffffffffffffffffffffffffffffff\n              and\n                /* \"KYC.sol\":1945:1966  msg.sender == manager */\n              0xffffffffffffffffffffffffffffffffffffffff\n              and\n                /* \"KYC.sol\":1945:1955  msg.sender */\n              caller\n                /* \"KYC.sol\":1945:1966  msg.sender == manager */\n              0xffffffffffffffffffffffffffffffffffffffff\n              and\n              eq\n                /* \"KYC.sol\":1937:1967  require(msg.sender == manager) */\n              tag_76\n              jumpi\n              0x00\n              dup1\n              revert\n            tag_76:\n                /* \"KYC.sol\":2377:2390  address entry */\n              0x00\n                /* \"KYC.sol\":2393:2403  msg.sender */\n              caller\n                /* \"KYC.sol\":2377:2403  address entry = msg.sender */\n              swap1\n              pop\n                /* \"KYC.sol\":2423:2428  users */\n              0x01\n                /* \"KYC.sol\":2423:2435  users[entry] */\n              0x00\n                /* \"KYC.sol\":2429:2434  entry */\n              dup3\n                /* \"KYC.sol\":2423:2435  users[entry] */\n              0xffffffffffffffffffffffffffffffffffffffff\n              and\n              0xffffffffffffffffffffffffffffffffffffffff\n              and\n              dup2\n              mstore\n              0x20\n              add\n              swap1\n              dup2\n              mstore\n              0x20\n              add\n              0x00\n              keccak256\n                /* \"KYC.sol\":2423:2439  users[entry].set */\n              0x09\n              add\n              0x00\n              swap1\n              sload\n              swap1\n              0x0100\n              exp\n              swap1\n              div\n              0xff\n              and\n                /* \"KYC.sol\":2422:2439  !users[entry].set */\n              iszero\n                /* \"KYC.sol\":2414:2440  require(!users[entry].set) */\n              tag_78\n              jumpi\n              0x00\n              dup1\n              revert\n            tag_78:\n                /* \"KYC.sol\":2466:2471  entry */\n              dup1\n                /* \"KYC.sol\":2451:2463  usersAddress */\n              0x00\n              dup1\n                /* \"KYC.sol\":2451:2471  usersAddress = entry */\n              0x0100\n              exp\n              dup2\n              sload\n              dup2\n              0xffffffffffffffffffffffffffffffffffffffff\n              mul\n              not\n              and\n              swap1\n              dup4\n              0xffffffffffffffffffffffffffffffffffffffff\n              and\n              mul\n              or\n              swap1\n              sstore\n              pop\n                /* \"KYC.sol\":2502:2503  n */\n              dup12\n                /* \"KYC.sol\":2482:2487  users */\n              0x01\n                /* \"KYC.sol\":2482:2494  users[entry] */\n              0x00\n                /* \"KYC.sol\":2488:2493  entry */\n              dup4\n                /* \"KYC.sol\":2482:2494  users[entry] */\n              0xffffffffffffffffffffffffffffffffffffffff\n              and\n              0xffffffffffffffffffffffffffffffffffffffff\n              and\n              dup2\n              mstore\n              0x20\n              add\n              swap1\n              dup2\n              mstore\n              0x20\n              add\n              0x00\n              keccak256\n                /* \"KYC.sol\":2482:2499  users[entry].name */\n              0x00\n              add\n                /* \"KYC.sol\":2482:2503  users[entry].name = n */\n              swap1\n              dup1\n              mload\n              swap1\n              0x20\n              add\n              swap1\n              tag_79\n              swap3\n              swap2\n              swap1\n              tag_80\n              jump\t// in\n            tag_79:\n              pop\n                /* \"KYC.sol\":2536:2537  f */\n              dup11\n                /* \"KYC.sol\":2514:2519  users */\n              0x01\n                /* \"KYC.sol\":2514:2526  users[entry] */\n              0x00\n                /* \"KYC.sol\":2520:2525  entry */\n              dup4\n                /* \"KYC.sol\":2514:2526  users[entry] */\n              0xffffffffffffffffffffffffffffffffffffffff\n              and\n              0xffffffffffffffffffffffffffffffffffffffff\n              and\n              dup2\n              mstore\n              0x20\n              add\n              swap1\n              dup2\n              mstore\n              0x20\n              add\n              0x00\n              keccak256\n                /* \"KYC.sol\":2514:2533  users[entry].father */\n              0x01\n              add\n                /* \"KYC.sol\":2514:2537  users[entry].father = f */\n              swap1\n              dup1\n              mload\n              swap1\n              0x20\n              add\n              swap1\n              tag_81\n              swap3\n              swap2\n              swap1\n              tag_80\n              jump\t// in\n            tag_81:\n              pop\n                /* \"KYC.sol\":2570:2571  m */\n              dup10\n                /* \"KYC.sol\":2548:2553  users */\n              0x01\n                /* \"KYC.sol\":2548:2560  users[entry] */\n              0x00\n                /* \"KYC.sol\":2554:2559  entry */\n              dup4\n                /* \"KYC.sol\":2548:2560  users[entry] */\n              0xffffffffffffffffffffffffffffffffffffffff\n              and\n              0xffffffffffffffffffffffffffffffffffffffff\n              and\n              dup2\n              mstore\n              0x20\n              add\n              swap1\n              dup2\n              mstore\n              0x20\n              add\n              0x00\n              keccak256\n                /* \"KYC.sol\":2548:2567  users[entry].mother */\n              0x02\n              add\n                /* \"KYC.sol\":2548:2571  users[entry].mother = m */\n              swap1\n              dup1\n              mload\n              swap1\n              0x20\n              add\n              swap1\n              tag_82\n              swap3\n              swap2\n              swap1\n              tag_80\n              jump\t// in\n            tag_82:\n              pop\n                /* \"KYC.sol\":2607:2608  d */\n              dup9\n                /* \"KYC.sol\":2582:2587  users */\n              0x01\n                /* \"KYC.sol\":2582:2594  users[entry] */\n              0x00\n                /* \"KYC.sol\":2588:2593  entry */\n              dup4\n                /* \"KYC.sol\":2582:2594  users[entry] */\n              0xffffffffffffffffffffffffffffffffffffffff\n              and\n              0xffffffffffffffffffffffffffffffffffffffff\n              and\n              dup2\n              mstore\n              0x20\n              add\n              swap1\n              dup2\n              mstore\n              0x20\n              add\n              0x00\n              keccak256\n                /* \"KYC.sol\":2582:2604  users[entry].birthdate */\n              0x03\n              add\n                /* \"KYC.sol\":2582:2608  users[entry].birthdate = d */\n              swap1\n              dup1\n              mload\n              swap1\n              0x20\n              add\n              swap1\n              tag_83\n              swap3\n              swap2\n              swap1\n              tag_80\n              jump\t// in\n            tag_83:\n              pop\n                /* \"KYC.sol\":2638:2640  ad */\n              dup8\n                /* \"KYC.sol\":2619:2624  users */\n              0x01\n                /* \"KYC.sol\":2619:2631  users[entry] */\n              0x00\n                /* \"KYC.sol\":2625:2630  entry */\n              dup4\n                /* \"KYC.sol\":2619:2631  users[entry] */\n              0xffffffffffffffffffffffffffffffffffffffff\n              and\n              0xffffffffffffffffffffffffffffffffffffffff\n              and\n              dup2\n              mstore\n              0x20\n              add\n              swap1\n              dup2\n              mstore\n              0x20\n              add\n              0x00\n              keccak256\n                /* \"KYC.sol\":2619:2635  users[entry].add */\n              0x04\n              add\n                /* \"KYC.sol\":2619:2640  users[entry].add = ad */\n              swap1\n              dup1\n              mload\n              swap1\n              0x20\n              add\n              swap1\n              tag_84\n              swap3\n              swap2\n              swap1\n              tag_80\n              jump\t// in\n            tag_84:\n              pop\n                /* \"KYC.sol\":2670:2672  mo */\n              dup7\n                /* \"KYC.sol\":2651:2656  users */\n              0x01\n                /* \"KYC.sol\":2651:2663  users[entry] */\n              0x00\n                /* \"KYC.sol\":2657:2662  entry */\n              dup4\n                /* \"KYC.sol\":2651:2663  users[entry] */\n              0xffffffffffffffffffffffffffffffffffffffff\n              and\n              0xffffffffffffffffffffffffffffffffffffffff\n              and\n              dup2\n              mstore\n              0x20\n              add\n              swap1\n              dup2\n              mstore\n              0x20\n              add\n              0x00\n              keccak256\n                /* \"KYC.sol\":2651:2667  users[entry].mob */\n              0x05\n              add\n                /* \"KYC.sol\":2651:2672  users[entry].mob = mo */\n              swap1\n              dup1\n              mload\n              swap1\n              0x20\n              add\n              swap1\n              tag_85\n              swap3\n              swap2\n              swap1\n              tag_80\n              jump\t// in\n            tag_85:\n              pop\n                /* \"KYC.sol\":2704:2705  e */\n              dup6\n                /* \"KYC.sol\":2683:2688  users */\n              0x01\n                /* \"KYC.sol\":2683:2695  users[entry] */\n              0x00\n                /* \"KYC.sol\":2689:2694  entry */\n              dup4\n                /* \"KYC.sol\":2683:2695  users[entry] */\n              0xffffffffffffffffffffffffffffffffffffffff\n              and\n              0xffffffffffffffffffffffffffffffffffffffff\n              and\n              dup2\n              mstore\n              0x20\n              add\n              swap1\n              dup2\n              mstore\n              0x20\n              add\n              0x00\n              keccak256\n                /* \"KYC.sol\":2683:2701  users[entry].email */\n              0x06\n              add\n                /* \"KYC.sol\":2683:2705  users[entry].email = e */\n              swap1\n              dup1\n              mload\n              swap1\n              0x20\n              add\n              swap1\n              tag_86\n              swap3\n              swap2\n              swap1\n              tag_80\n              jump\t// in\n            tag_86:\n              pop\n                /* \"KYC.sol\":2738:2744  aadhar */\n              dup5\n                /* \"KYC.sol\":2716:2721  users */\n              0x01\n                /* \"KYC.sol\":2716:2728  users[entry] */\n              0x00\n                /* \"KYC.sol\":2722:2727  entry */\n              dup4\n                /* \"KYC.sol\":2716:2728  users[entry] */\n              0xffffffffffffffffffffffffffffffffffffffff\n              and\n              0xffffffffffffffffffffffffffffffffffffffff\n              and\n              dup2\n              mstore\n              0x20\n              add\n              swap1\n              dup2\n              mstore\n              0x20\n              add\n              0x00\n              keccak256\n                /* \"KYC.sol\":2716:2735  users[entry].aadhar */\n              0x07\n              add\n                /* \"KYC.sol\":2716:2744  users[entry].aadhar = aadhar */\n              swap1\n              dup1\n              mload\n              swap1\n              0x20\n              add\n              swap1\n              tag_87\n              swap3\n              swap2\n              swap1\n              tag_80\n              jump\t// in\n            tag_87:\n              pop\n                /* \"KYC.sol\":2774:2777  pan */\n              dup4\n                /* \"KYC.sol\":2755:2760  users */\n              0x01\n                /* \"KYC.sol\":2755:2767  users[entry] */\n              0x00\n                /* \"KYC.sol\":2761:2766  entry */\n              dup4\n                /* \"KYC.sol\":2755:2767  users[entry] */\n              0xffffffffffffffffffffffffffffffffffffffff\n              and\n              0xffffffffffffffffffffffffffffffffffffffff\n              and\n              dup2\n              mstore\n              0x20\n              add\n              swap1\n              dup2\n              mstore\n              0x20\n              add\n              0x00\n              keccak256\n                /* \"KYC.sol\":2755:2771  users[entry].pan */\n              0x08\n              add\n                /* \"KYC.sol\":2755:2777  users[entry].pan = pan */\n              swap1\n              dup1\n              mload\n              swap1\n              0x20\n              add\n              swap1\n              tag_88\n              swap3\n              swap2\n              swap1\n              tag_80\n              jump\t// in\n            tag_88:\n              pop\n                /* \"KYC.sol\":2818:2820  ah */\n              dup3\n                /* \"KYC.sol\":2788:2793  users */\n              0x01\n                /* \"KYC.sol\":2788:2800  users[entry] */\n              0x00\n                /* \"KYC.sol\":2794:2799  entry */\n              dup4\n                /* \"KYC.sol\":2788:2800  users[entry] */\n              0xffffffffffffffffffffffffffffffffffffffff\n              and\n              0xffffffffffffffffffffffffffffffffffffffff\n              and\n              dup2\n              mstore\n              0x20\n              add\n              swap1\n              dup2\n              mstore\n              0x20\n              add\n              0x00\n              keccak256\n                /* \"KYC.sol\":2788:2815  users[entry].aadharipfsHash */\n              0x0a\n              add\n                /* \"KYC.sol\":2788:2820  users[entry].aadharipfsHash = ah */\n              swap1\n              dup1\n              mload\n              swap1\n              0x20\n              add\n              swap1\n              tag_89\n              swap3\n              swap2\n              swap1\n              tag_80\n              jump\t// in\n            tag_89:\n              pop\n                /* \"KYC.sol\":2858:2860  ph */\n              dup2\n                /* \"KYC.sol\":2831:2836  users */\n              0x01\n                /* \"KYC.sol\":2831:2843  users[entry] */\n              0x00\n                /* \"KYC.sol\":2837:2842  entry */\n              dup4\n                /* \"KYC.sol\":2831:2843  users[entry] */\n              0xffffffffffffffffffffffffffffffffffffffff\n              and\n              0xffffffffffffffffffffffffffffffffffffffff\n              and\n              dup2\n              mstore\n              0x20\n              add\n              swap1\n              dup2\n              mstore\n              0x20\n              add\n              0x00\n              keccak256\n                /* \"KYC.sol\":2831:2855  users[entry].panipfsHash */\n              0x0b\n              add\n                /* \"KYC.sol\":2831:2860  users[entry].panipfsHash = ph */\n              swap1\n              dup1\n              mload\n              swap1\n              0x20\n              add\n              swap1\n              tag_90\n              swap3\n              swap2\n              swap1\n              tag_80\n              jump\t// in\n            tag_90:\n              pop\n                /* \"KYC.sol\":2890:2894  true */\n              0x01\n                /* \"KYC.sol\":2871:2876  users */\n              dup1\n                /* \"KYC.sol\":2871:2883  users[entry] */\n              0x00\n                /* \"KYC.sol\":2877:2882  entry */\n              dup4\n                /* \"KYC.sol\":2871:2883  users[entry] */\n              0xffffffffffffffffffffffffffffffffffffffff\n              and\n              0xffffffffffffffffffffffffffffffffffffffff\n              and\n              dup2\n              mstore\n              0x20\n              add\n              swap1\n              dup2\n              mstore\n              0x20\n              add\n              0x00\n              keccak256\n                /* \"KYC.sol\":2871:2887  users[entry].set */\n              0x09\n              add\n              0x00\n                /* \"KYC.sol\":2871:2894  users[entry].set = true */\n              0x0100\n              exp\n              dup2\n              sload\n              dup2\n              0xff\n              mul\n              not\n              and\n              swap1\n              dup4\n              iszero\n              iszero\n              mul\n              or\n              swap1\n              sstore\n              pop\n                /* \"KYC.sol\":2366:2902  {... */\n              pop\n                /* \"KYC.sol\":2130:2902  function addUser(string memory n, string memory f, string memory m, string memory d, string memory ad,string memory mo,string memory e,string memory aadhar,string memory pan,string memory ah,string memory ph) ... */\n              pop\n              pop\n              pop\n              pop\n              pop\n              pop\n              pop\n              pop\n              pop\n              pop\n              pop\n              jump\t// out\n                /* \"KYC.sol\":1816:1838  address public manager */\n            tag_29:\n              0x02\n              0x00\n              swap1\n              sload\n              swap1\n              0x0100\n              exp\n              swap1\n              div\n              0xffffffffffffffffffffffffffffffffffffffff\n              and\n              dup2\n              jump\t// out\n                /* \"KYC.sol\":3697:3933  function getAadharPanHash(address rer) public view... */\n            tag_34:\n                /* \"KYC.sol\":3761:3774  string memory */\n              0x60\n                /* \"KYC.sol\":3775:3788  string memory */\n              dup1\n                /* \"KYC.sol\":3808:3813  users */\n              0x01\n                /* \"KYC.sol\":3808:3818  users[rer] */\n              0x00\n                /* \"KYC.sol\":3814:3817  rer */\n              dup5\n                /* \"KYC.sol\":3808:3818  users[rer] */\n              0xffffffffffffffffffffffffffffffffffffffff\n              and\n              0xffffffffffffffffffffffffffffffffffffffff\n              and\n              dup2\n              mstore\n              0x20\n              add\n              swap1\n              dup2\n              mstore\n              0x20\n              add\n              0x00\n              keccak256\n                /* \"KYC.sol\":3808:3822  users[rer].set */\n              0x09\n              add\n              0x00\n              swap1\n              sload\n              swap1\n              0x0100\n              exp\n              swap1\n              div\n              0xff\n              and\n                /* \"KYC.sol\":3800:3823  require(users[rer].set) */\n              tag_92\n              jumpi\n              0x00\n              dup1\n              revert\n            tag_92:\n                /* \"KYC.sol\":3849:3856  manager */\n              0x02\n              0x00\n              swap1\n              sload\n              swap1\n              0x0100\n              exp\n              swap1\n              div\n              0xffffffffffffffffffffffffffffffffffffffff\n              and\n                /* \"KYC.sol\":3842:3856  rer == manager */\n              0xffffffffffffffffffffffffffffffffffffffff\n              and\n                /* \"KYC.sol\":3842:3845  rer */\n              dup4\n                /* \"KYC.sol\":3842:3856  rer == manager */\n              0xffffffffffffffffffffffffffffffffffffffff\n              and\n              eq\n                /* \"KYC.sol\":3834:3857  require(rer == manager) */\n              tag_93\n              jumpi\n              0x00\n              dup1\n              revert\n            tag_93:\n                /* \"KYC.sol\":3876:3881  users */\n              0x01\n                /* \"KYC.sol\":3876:3886  users[rer] */\n              0x00\n                /* \"KYC.sol\":3882:3885  rer */\n              dup5\n                /* \"KYC.sol\":3876:3886  users[rer] */\n              0xffffffffffffffffffffffffffffffffffffffff\n              and\n              0xffffffffffffffffffffffffffffffffffffffff\n              and\n              dup2\n              mstore\n              0x20\n              add\n              swap1\n              dup2\n              mstore\n              0x20\n              add\n              0x00\n              keccak256\n                /* \"KYC.sol\":3876:3901  users[rer].aadharipfsHash */\n              0x0a\n              add\n                /* \"KYC.sol\":3902:3907  users */\n              0x01\n                /* \"KYC.sol\":3902:3912  users[rer] */\n              0x00\n                /* \"KYC.sol\":3908:3911  rer */\n              dup6\n                /* \"KYC.sol\":3902:3912  users[rer] */\n              0xffffffffffffffffffffffffffffffffffffffff\n              and\n              0xffffffffffffffffffffffffffffffffffffffff\n              and\n              dup2\n              mstore\n              0x20\n              add\n              swap1\n              dup2\n              mstore\n              0x20\n              add\n              0x00\n              keccak256\n                /* \"KYC.sol\":3902:3924  users[rer].panipfsHash */\n              0x0b\n              add\n                /* \"KYC.sol\":3868:3925  return (users[rer].aadharipfsHash,users[rer].panipfsHash) */\n              dup2\n              dup1\n              sload\n              tag_94\n              swap1\n              tag_65\n              jump\t// in\n            tag_94:\n              dup1\n              0x1f\n              add\n              0x20\n              dup1\n              swap2\n              div\n              mul\n              0x20\n              add\n              mload(0x40)\n              swap1\n              dup2\n              add\n              0x40\n              mstore\n              dup1\n              swap3\n              swap2\n              swap1\n              dup2\n              dup2\n              mstore\n              0x20\n              add\n              dup3\n              dup1\n              sload\n              tag_95\n              swap1\n              tag_65\n              jump\t// in\n            tag_95:\n              dup1\n              iszero\n              tag_96\n              jumpi\n              dup1\n              0x1f\n              lt\n              tag_97\n              jumpi\n              0x0100\n              dup1\n              dup4\n              sload\n              div\n              mul\n              dup4\n              mstore\n              swap2\n              0x20\n              add\n              swap2\n              jump(tag_96)\n            tag_97:\n              dup3\n              add\n              swap2\n              swap1\n              0x00\n              mstore\n              keccak256(0x00, 0x20)\n              swap1\n            tag_98:\n              dup2\n              sload\n              dup2\n              mstore\n              swap1\n              0x01\n              add\n              swap1\n              0x20\n              add\n              dup1\n              dup4\n              gt\n              tag_98\n              jumpi\n              dup3\n              swap1\n              sub\n              0x1f\n              and\n              dup3\n              add\n              swap2\n            tag_96:\n              pop\n              pop\n              pop\n              pop\n              pop\n              swap2\n              pop\n              dup1\n              dup1\n              sload\n              tag_99\n              swap1\n              tag_65\n              jump\t// in\n            tag_99:\n              dup1\n              0x1f\n              add\n              0x20\n              dup1\n              swap2\n              div\n              mul\n              0x20\n              add\n              mload(0x40)\n              swap1\n              dup2\n              add\n              0x40\n              mstore\n              dup1\n              swap3\n              swap2\n              swap1\n              dup2\n              dup2\n              mstore\n              0x20\n              add\n              dup3\n              dup1\n              sload\n              tag_100\n              swap1\n              tag_65\n              jump\t// in\n            tag_100:\n              dup1\n              iszero\n              tag_101\n              jumpi\n              dup1\n              0x1f\n              lt\n              tag_102\n              jumpi\n              0x0100\n              dup1\n              dup4\n              sload\n              div\n              mul\n              dup4\n              mstore\n              swap2\n              0x20\n              add\n              swap2\n              jump(tag_101)\n            tag_102:\n              dup3\n              add\n              swap2\n              swap1\n              0x00\n              mstore\n              keccak256(0x00, 0x20)\n              swap1\n            tag_103:\n              dup2\n              sload\n              dup2\n              mstore\n              swap1\n              0x01\n              add\n              swap1\n              0x20\n              add\n              dup1\n              dup4\n              gt\n              tag_103\n              jumpi\n              dup3\n              swap1\n              sub\n              0x1f\n              and\n              dup3\n              add\n              swap2\n            tag_101:\n              pop\n              pop\n              pop\n              pop\n              pop\n              swap1\n              pop\n              swap2\n              pop\n              swap2\n              pop\n                /* \"KYC.sol\":3697:3933  function getAadharPanHash(address rer) public view... */\n              swap2\n              pop\n              swap2\n              jump\t// out\n                /* \"KYC.sol\":4420:4627  function getUserAadharPanHash(address rer) public view... */\n            tag_38:\n                /* \"KYC.sol\":4488:4501  string memory */\n              0x60\n                /* \"KYC.sol\":4502:4515  string memory */\n              dup1\n                /* \"KYC.sol\":4547:4550  rer */\n              dup3\n                /* \"KYC.sol\":4535:4550  assigned == rer */\n              0xffffffffffffffffffffffffffffffffffffffff\n              and\n                /* \"KYC.sol\":4535:4543  assigned */\n              0x03\n              0x00\n              swap1\n              sload\n              swap1\n              0x0100\n              exp\n              swap1\n              div\n              0xffffffffffffffffffffffffffffffffffffffff\n              and\n                /* \"KYC.sol\":4535:4550  assigned == rer */\n              0xffffffffffffffffffffffffffffffffffffffff\n              and\n              eq\n                /* \"KYC.sol\":4527:4551  require(assigned == rer) */\n              tag_105\n              jumpi\n              0x00\n              dup1\n              revert\n            tag_105:\n                /* \"KYC.sol\":4570:4575  users */\n              0x01\n                /* \"KYC.sol\":4570:4580  users[rer] */\n              0x00\n                /* \"KYC.sol\":4576:4579  rer */\n              dup5\n                /* \"KYC.sol\":4570:4580  users[rer] */\n              0xffffffffffffffffffffffffffffffffffffffff\n              and\n              0xffffffffffffffffffffffffffffffffffffffff\n              and\n              dup2\n              mstore\n              0x20\n              add\n              swap1\n              dup2\n              mstore\n              0x20\n              add\n              0x00\n              keccak256\n                /* \"KYC.sol\":4570:4595  users[rer].aadharipfsHash */\n              0x0a\n              add\n                /* \"KYC.sol\":4596:4601  users */\n              0x01\n                /* \"KYC.sol\":4596:4606  users[rer] */\n              0x00\n                /* \"KYC.sol\":4602:4605  rer */\n              dup6\n                /* \"KYC.sol\":4596:4606  users[rer] */\n              0xffffffffffffffffffffffffffffffffffffffff\n              and\n              0xffffffffffffffffffffffffffffffffffffffff\n              and\n              dup2\n              mstore\n              0x20\n              add\n              swap1\n              dup2\n              mstore\n              0x20\n              add\n              0x00\n              keccak256\n                /* \"KYC.sol\":4596:4618  users[rer].panipfsHash */\n              0x0b\n              add\n                /* \"KYC.sol\":4562:4619  return (users[rer].aadharipfsHash,users[rer].panipfsHash) */\n              dup2\n              dup1\n              sload\n              tag_106\n              swap1\n              tag_65\n              jump\t// in\n            tag_106:\n              dup1\n              0x1f\n              add\n              0x20\n              dup1\n              swap2\n              div\n              mul\n              0x20\n              add\n              mload(0x40)\n              swap1\n              dup2\n              add\n              0x40\n              mstore\n              dup1\n              swap3\n              swap2\n              swap1\n              dup2\n              dup2\n              mstore\n              0x20\n              add\n              dup3\n              dup1\n              sload\n              tag_107\n              swap1\n              tag_65\n              jump\t// in\n            tag_107:\n              dup1\n              iszero\n              tag_108\n              jumpi\n              dup1\n              0x1f\n              lt\n              tag_109\n              jumpi\n              0x0100\n              dup1\n              dup4\n              sload\n              div\n              mul\n              dup4\n              mstore\n              swap2\n              0x20\n              add\n              swap2\n              jump(tag_108)\n            tag_109:\n              dup3\n              add\n              swap2\n              swap1\n              0x00\n              mstore\n              keccak256(0x00, 0x20)\n              swap1\n            tag_110:\n              dup2\n              sload\n              dup2\n              mstore\n              swap1\n              0x01\n              add\n              swap1\n              0x20\n              add\n              dup1\n              dup4\n              gt\n              tag_110\n              jumpi\n              dup3\n              swap1\n              sub\n              0x1f\n              and\n              dup3\n              add\n              swap2\n            tag_108:\n              pop\n              pop\n              pop\n              pop\n              pop\n              swap2\n              pop\n              dup1\n              dup1\n              sload\n              tag_111\n              swap1\n              tag_65\n              jump\t// in\n            tag_111:\n              dup1\n              0x1f\n              add\n              0x20\n              dup1\n              swap2\n              div\n              mul\n              0x20\n              add\n              mload(0x40)\n              swap1\n              dup2\n              add\n              0x40\n              mstore\n              dup1\n              swap3\n              swap2\n              swap1\n              dup2\n              dup2\n              mstore\n              0x20\n              add\n              dup3\n              dup1\n              sload\n              tag_112\n              swap1\n              tag_65\n              jump\t// in\n            tag_112:\n              dup1\n              iszero\n              tag_113\n              jumpi\n              dup1\n              0x1f\n              lt\n              tag_114\n              jumpi\n              0x0100\n              dup1\n              dup4\n              sload\n              div\n              mul\n              dup4\n              mstore\n              swap2\n              0x20\n              add\n              swap2\n              jump(tag_113)\n            tag_114:\n              dup3\n              add\n              swap2\n              swap1\n              0x00\n              mstore\n              keccak256(0x00, 0x20)\n              swap1\n            tag_115:\n              dup2\n              sload\n              dup2\n              mstore\n              swap1\n              0x01\n              add\n              swap1\n              0x20\n              add\n              dup1\n              dup4\n              gt\n              tag_115\n              jumpi\n              dup3\n              swap1\n              sub\n              0x1f\n              and\n              dup3\n              add\n              swap2\n            tag_113:\n              pop\n              pop\n              pop\n              pop\n              pop\n              swap1\n              pop\n              swap2\n              pop\n              swap2\n              pop\n                /* \"KYC.sol\":4420:4627  function getUserAadharPanHash(address rer) public view... */\n              swap2\n              pop\n              swap2\n              jump\t// out\n                /* \"KYC.sol\":1869:1892  address public assigned */\n            tag_41:\n              0x03\n              0x00\n              swap1\n              sload\n              swap1\n              0x0100\n              exp\n              swap1\n              div\n              0xffffffffffffffffffffffffffffffffffffffff\n              and\n              dup2\n              jump\t// out\n                /* \"KYC.sol\":3968:4412  function getUserDetails(address ass) public view... */\n            tag_45:\n                /* \"KYC.sol\":4030:4043  string memory */\n              0x60\n                /* \"KYC.sol\":4045:4058  string memory */\n              dup1\n                /* \"KYC.sol\":4060:4073  string memory */\n              0x60\n                /* \"KYC.sol\":4075:4088  string memory */\n              dup1\n                /* \"KYC.sol\":4090:4103  string memory */\n              0x60\n                /* \"KYC.sol\":4105:4118  string memory */\n              dup1\n                /* \"KYC.sol\":4119:4132  string memory */\n              0x60\n                /* \"KYC.sol\":4133:4146  string memory */\n              dup1\n                /* \"KYC.sol\":4147:4160  string memory */\n              0x60\n                /* \"KYC.sol\":4192:4195  ass */\n              dup10\n                /* \"KYC.sol\":4180:4195  assigned == ass */\n              0xffffffffffffffffffffffffffffffffffffffff\n              and\n                /* \"KYC.sol\":4180:4188  assigned */\n              0x03\n              0x00\n              swap1\n              sload\n              swap1\n              0x0100\n              exp\n              swap1\n              div\n              0xffffffffffffffffffffffffffffffffffffffff\n              and\n                /* \"KYC.sol\":4180:4195  assigned == ass */\n              0xffffffffffffffffffffffffffffffffffffffff\n              and\n              eq\n                /* \"KYC.sol\":4172:4196  require(assigned == ass) */\n              tag_117\n              jumpi\n              0x00\n              dup1\n              revert\n            tag_117:\n                /* \"KYC.sol\":4215:4220  users */\n              0x01\n                /* \"KYC.sol\":4215:4229  users[manager] */\n              0x00\n                /* \"KYC.sol\":4221:4228  manager */\n              0x02\n              0x00\n              swap1\n              sload\n              swap1\n              0x0100\n              exp\n              swap1\n              div\n              0xffffffffffffffffffffffffffffffffffffffff\n              and\n                /* \"KYC.sol\":4215:4229  users[manager] */\n              0xffffffffffffffffffffffffffffffffffffffff\n              and\n              0xffffffffffffffffffffffffffffffffffffffff\n              and\n              dup2\n              mstore\n              0x20\n              add\n              swap1\n              dup2\n              mstore\n              0x20\n              add\n              0x00\n              keccak256\n                /* \"KYC.sol\":4215:4234  users[manager].name */\n              0x00\n              add\n                /* \"KYC.sol\":4235:4240  users */\n              0x01\n                /* \"KYC.sol\":4235:4249  users[manager] */\n              0x00\n                /* \"KYC.sol\":4241:4248  manager */\n              0x02\n              0x00\n              swap1\n              sload\n              swap1\n              0x0100\n              exp\n              swap1\n              div\n              0xffffffffffffffffffffffffffffffffffffffff\n              and\n                /* \"KYC.sol\":4235:4249  users[manager] */\n              0xffffffffffffffffffffffffffffffffffffffff\n              and\n              0xffffffffffffffffffffffffffffffffffffffff\n              and\n              dup2\n              mstore\n              0x20\n              add\n              swap1\n              dup2\n              mstore\n              0x20\n              add\n              0x00\n              keccak256\n                /* \"KYC.sol\":4235:4256  users[manager].father */\n              0x01\n              add\n                /* \"KYC.sol\":4257:4262  users */\n              0x01\n                /* \"KYC.sol\":4257:4271  users[manager] */\n              0x00\n                /* \"KYC.sol\":4263:4270  manager */\n              0x02\n              0x00\n              swap1\n              sload\n              swap1\n              0x0100\n              exp\n              swap1\n              div\n              0xffffffffffffffffffffffffffffffffffffffff\n              and\n                /* \"KYC.sol\":4257:4271  users[manager] */\n              0xffffffffffffffffffffffffffffffffffffffff\n              and\n              0xffffffffffffffffffffffffffffffffffffffff\n              and\n              dup2\n              mstore\n              0x20\n              add\n              swap1\n              dup2\n              mstore\n              0x20\n              add\n              0x00\n              keccak256\n                /* \"KYC.sol\":4257:4278  users[manager].mother */\n              0x02\n              add\n                /* \"KYC.sol\":4279:4284  users */\n              0x01\n                /* \"KYC.sol\":4279:4293  users[manager] */\n              0x00\n                /* \"KYC.sol\":4285:4292  manager */\n              0x02\n              0x00\n              swap1\n              sload\n              swap1\n              0x0100\n              exp\n              swap1\n              div\n              0xffffffffffffffffffffffffffffffffffffffff\n              and\n                /* \"KYC.sol\":4279:4293  users[manager] */\n              0xffffffffffffffffffffffffffffffffffffffff\n              and\n              0xffffffffffffffffffffffffffffffffffffffff\n              and\n              dup2\n              mstore\n              0x20\n              add\n              swap1\n              dup2\n              mstore\n              0x20\n              add\n              0x00\n              keccak256\n                /* \"KYC.sol\":4279:4303  users[manager].birthdate */\n              0x03\n              add\n                /* \"KYC.sol\":4304:4309  users */\n              0x01\n                /* \"KYC.sol\":4304:4318  users[manager] */\n              0x00\n                /* \"KYC.sol\":4310:4317  manager */\n              0x02\n              0x00\n              swap1\n              sload\n              swap1\n              0x0100\n              exp\n              swap1\n              div\n              0xffffffffffffffffffffffffffffffffffffffff\n              and\n                /* \"KYC.sol\":4304:4318  users[manager] */\n              0xffffffffffffffffffffffffffffffffffffffff\n              and\n              0xffffffffffffffffffffffffffffffffffffffff\n              and\n              dup2\n              mstore\n              0x20\n              add\n              swap1\n              dup2\n              mstore\n              0x20\n              add\n              0x00\n              keccak256\n                /* \"KYC.sol\":4304:4322  users[manager].add */\n              0x04\n              add\n                /* \"KYC.sol\":4323:4328  users */\n              0x01\n                /* \"KYC.sol\":4323:4337  users[manager] */\n              0x00\n                /* \"KYC.sol\":4329:4336  manager */\n              0x02\n              0x00\n              swap1\n              sload\n              swap1\n              0x0100\n              exp\n              swap1\n              div\n              0xffffffffffffffffffffffffffffffffffffffff\n              and\n                /* \"KYC.sol\":4323:4337  users[manager] */\n              0xffffffffffffffffffffffffffffffffffffffff\n              and\n              0xffffffffffffffffffffffffffffffffffffffff\n              and\n              dup2\n              mstore\n              0x20\n              add\n              swap1\n              dup2\n              mstore\n              0x20\n              add\n              0x00\n              keccak256\n                /* \"KYC.sol\":4323:4341  users[manager].mob */\n              0x05\n              add\n                /* \"KYC.sol\":4342:4347  users */\n              0x01\n                /* \"KYC.sol\":4342:4356  users[manager] */\n              0x00\n                /* \"KYC.sol\":4348:4355  manager */\n              0x02\n              0x00\n              swap1\n              sload\n              swap1\n              0x0100\n              exp\n              swap1\n              div\n              0xffffffffffffffffffffffffffffffffffffffff\n              and\n                /* \"KYC.sol\":4342:4356  users[manager] */\n              0xffffffffffffffffffffffffffffffffffffffff\n              and\n              0xffffffffffffffffffffffffffffffffffffffff\n              and\n              dup2\n              mstore\n              0x20\n              add\n              swap1\n              dup2\n              mstore\n              0x20\n              add\n              0x00\n              keccak256\n                /* \"KYC.sol\":4342:4362  users[manager].email */\n              0x06\n              add\n                /* \"KYC.sol\":4363:4368  users */\n              0x01\n                /* \"KYC.sol\":4363:4377  users[manager] */\n              0x00\n                /* \"KYC.sol\":4369:4376  manager */\n              0x02\n              0x00\n              swap1\n              sload\n              swap1\n              0x0100\n              exp\n              swap1\n              div\n              0xffffffffffffffffffffffffffffffffffffffff\n              and\n                /* \"KYC.sol\":4363:4377  users[manager] */\n              0xffffffffffffffffffffffffffffffffffffffff\n              and\n              0xffffffffffffffffffffffffffffffffffffffff\n              and\n              dup2\n              mstore\n              0x20\n              add\n              swap1\n              dup2\n              mstore\n              0x20\n              add\n              0x00\n              keccak256\n                /* \"KYC.sol\":4363:4384  users[manager].aadhar */\n              0x07\n              add\n                /* \"KYC.sol\":4385:4390  users */\n              0x01\n                /* \"KYC.sol\":4385:4399  users[manager] */\n              0x00\n                /* \"KYC.sol\":4391:4398  manager */\n              0x02\n              0x00\n              swap1\n              sload\n              swap1\n              0x0100\n              exp\n              swap1\n              div\n              0xffffffffffffffffffffffffffffffffffffffff\n              and\n                /* \"KYC.sol\":4385:4399  users[manager] */\n              0xffffffffffffffffffffffffffffffffffffffff\n              and\n              0xffffffffffffffffffffffffffffffffffffffff\n              and\n              dup2\n              mstore\n              0x20\n              add\n              swap1\n              dup2\n              mstore\n              0x20\n              add\n              0x00\n              keccak256\n                /* \"KYC.sol\":4385:4403  users[manager].pan */\n              0x08\n              add\n                /* \"KYC.sol\":4207:4404  return (users[manager].name,users[manager].father,users[manager].mother,users[manager].birthdate,users[manager].add,users[manager].mob,users[manager].email,users[manager].aadhar,users[manager].pan) */\n              dup9\n              dup1\n              sload\n              tag_118\n              swap1\n              tag_65\n              jump\t// in\n            tag_118:\n              dup1\n              0x1f\n              add\n              0x20\n              dup1\n              swap2\n              div\n              mul\n              0x20\n              add\n              mload(0x40)\n              swap1\n              dup2\n              add\n              0x40\n              mstore\n              dup1\n              swap3\n              swap2\n              swap1\n              dup2\n              dup2\n              mstore\n              0x20\n              add\n              dup3\n              dup1\n              sload\n              tag_119\n              swap1\n              tag_65\n              jump\t// in\n            tag_119:\n              dup1\n              iszero\n              tag_120\n              jumpi\n              dup1\n              0x1f\n              lt\n              tag_121\n              jumpi\n              0x0100\n              dup1\n              dup4\n              sload\n              div\n              mul\n              dup4\n              mstore\n              swap2\n              0x20\n              add\n              swap2\n              jump(tag_120)\n            tag_121:\n              dup3\n              add\n              swap2\n              swap1\n              0x00\n              mstore\n              keccak256(0x00, 0x20)\n              swap1\n            tag_122:\n              dup2\n              sload\n              dup2\n              mstore\n              swap1\n              0x01\n              add\n              swap1\n              0x20\n              add\n              dup1\n              dup4\n              gt\n              tag_122\n              jumpi\n              dup3\n              swap1\n              sub\n              0x1f\n              and\n              dup3\n              add\n              swap2\n            tag_120:\n              pop\n              pop\n              pop\n              pop\n              pop\n              swap9\n              pop\n              dup8\n              dup1\n              sload\n              tag_123\n              swap1\n              tag_65\n              jump\t// in\n            tag_123:\n              dup1\n              0x1f\n              add\n              0x20\n              dup1\n              swap2\n              div\n              mul\n              0x20\n              add\n              mload(0x40)\n              swap1\n              dup2\n              add\n              0x40\n              mstore\n              dup1\n              swap3\n              swap2\n              swap1\n              dup2\n              dup2\n              mstore\n              0x20\n              add\n              dup3\n              dup1\n              sload\n              tag_124\n              swap1\n              tag_65\n              jump\t// in\n            tag_124:\n              dup1\n              iszero\n              tag_125\n              jumpi\n              dup1\n              0x1f\n              lt\n              tag_126\n              jumpi\n              0x0100\n              dup1\n              dup4\n              sload\n              div\n              mul\n              dup4\n              mstore\n              swap2\n              0x20\n              add\n              swap2\n              jump(tag_125)\n            tag_126:\n              dup3\n              add\n              swap2\n              swap1\n              0x00\n              mstore\n              keccak256(0x00, 0x20)\n              swap1\n            tag_127:\n              dup2\n              sload\n              dup2\n              mstore\n              swap1\n              0x01\n              add\n              swap1\n              0x20\n              add\n              dup1\n              dup4\n              gt\n              tag_127\n              jumpi\n              dup3\n              swap1\n              sub\n              0x1f\n              and\n              dup3\n              add\n              swap2\n            tag_125:\n              pop\n              pop\n              pop\n              pop\n              pop\n              swap8\n              pop\n              dup7\n              dup1\n              sload\n              tag_128\n              swap1\n              tag_65\n              jump\t// in\n            tag_128:\n              dup1\n              0x1f\n              add\n              0x20\n              dup1\n              swap2\n              div\n              mul\n              0x20\n              add\n              mload(0x40)\n              swap1\n              dup2\n              add\n              0x40\n              mstore\n              dup1\n              swap3\n              swap2\n              swap1\n              dup2\n              dup2\n              mstore\n              0x20\n              add\n              dup3\n              dup1\n              sload\n              tag_129\n              swap1\n              tag_65\n              jump\t// in\n            tag_129:\n              dup1\n              iszero\n              tag_130\n              jumpi\n              dup1\n              0x1f\n              lt\n              tag_131\n              jumpi\n              0x0100\n              dup1\n              dup4\n              sload\n              div\n              mul\n              dup4\n              mstore\n              swap2\n              0x20\n              add\n              swap2\n              jump(tag_130)\n            tag_131:\n              dup3\n              add\n              swap2\n              swap1\n              0x00\n              mstore\n              keccak256(0x00, 0x20)\n              swap1\n            tag_132:\n              dup2\n              sload\n              dup2\n              mstore\n              swap1\n              0x01\n              add\n              swap1\n              0x20\n              add\n              dup1\n              dup4\n              gt\n              tag_132\n              jumpi\n              dup3\n              swap1\n              sub\n              0x1f\n              and\n              dup3\n              add\n              swap2\n            tag_130:\n              pop\n              pop\n              pop\n              pop\n              pop\n              swap7\n              pop\n              dup6\n              dup1\n              sload\n              tag_133\n              swap1\n              tag_65\n              jump\t// in\n            tag_133:\n              dup1\n              0x1f\n              add\n              0x20\n              dup1\n              swap2\n              div\n              mul\n              0x20\n              add\n              mload(0x40)\n              swap1\n              dup2\n              add\n              0x40\n              mstore\n              dup1\n              swap3\n              swap2\n              swap1\n              dup2\n              dup2\n              mstore\n              0x20\n              add\n              dup3\n              dup1\n              sload\n              tag_134\n              swap1\n              tag_65\n              jump\t// in\n            tag_134:\n              dup1\n              iszero\n              tag_135\n              jumpi\n              dup1\n              0x1f\n              lt\n              tag_136\n              jumpi\n              0x0100\n              dup1\n              dup4\n              sload\n              div\n              mul\n              dup4\n              mstore\n              swap2\n              0x20\n              add\n              swap2\n              jump(tag_135)\n            tag_136:\n              dup3\n              add\n              swap2\n              swap1\n              0x00\n              mstore\n              keccak256(0x00, 0x20)\n              swap1\n            tag_137:\n              dup2\n              sload\n              dup2\n              mstore\n              swap1\n              0x01\n              add\n              swap1\n              0x20\n              add\n              dup1\n              dup4\n              gt\n              tag_137\n              jumpi\n              dup3\n              swap1\n              sub\n              0x1f\n              and\n              dup3\n              add\n              swap2\n            tag_135:\n              pop\n              pop\n              pop\n              pop\n              pop\n              swap6\n              pop\n              dup5\n              dup1\n              sload\n              tag_138\n              swap1\n              tag_65\n              jump\t// in\n            tag_138:\n              dup1\n              0x1f\n              add\n              0x20\n              dup1\n              swap2\n              div\n              mul\n              0x20\n              add\n              mload(0x40)\n              swap1\n              dup2\n              add\n              0x40\n              mstore\n              dup1\n              swap3\n              swap2\n              swap1\n              dup2\n              dup2\n              mstore\n              0x20\n              add\n              dup3\n              dup1\n              sload\n              tag_139\n              swap1\n              tag_65\n              jump\t// in\n            tag_139:\n              dup1\n              iszero\n              tag_140\n              jumpi\n              dup1\n              0x1f\n              lt\n              tag_141\n              jumpi\n              0x0100\n              dup1\n              dup4\n              sload\n              div\n              mul\n              dup4\n              mstore\n              swap2\n              0x20\n              add\n              swap2\n              jump(tag_140)\n            tag_141:\n              dup3\n              add\n              swap2\n              swap1\n              0x00\n              mstore\n              keccak256(0x00, 0x20)\n              swap1\n            tag_142:\n              dup2\n              sload\n              dup2\n              mstore\n              swap1\n              0x01\n              add\n              swap1\n              0x20\n              add\n              dup1\n              dup4\n              gt\n              tag_142\n              jumpi\n              dup3\n              swap1\n              sub\n              0x1f\n              and\n              dup3\n              add\n              swap2\n            tag_140:\n              pop\n              pop\n              pop\n              pop\n              pop\n              swap5\n              pop\n              dup4\n              dup1\n              sload\n              tag_143\n              swap1\n              tag_65\n              jump\t// in\n            tag_143:\n              dup1\n              0x1f\n              add\n              0x20\n              dup1\n              swap2\n              div\n              mul\n              0x20\n              add\n              mload(0x40)\n              swap1\n              dup2\n              add\n              0x40\n              mstore\n              dup1\n              swap3\n              swap2\n              swap1\n              dup2\n              dup2\n              mstore\n              0x20\n              add\n              dup3\n              dup1\n              sload\n              tag_144\n              swap1\n              tag_65\n              jump\t// in\n            tag_144:\n              dup1\n              iszero\n              tag_145\n              jumpi\n              dup1\n              0x1f\n              lt\n              tag_146\n              jumpi\n              0x0100\n              dup1\n              dup4\n              sload\n              div\n              mul\n              dup4\n              mstore\n              swap2\n              0x20\n              add\n              swap2\n              jump(tag_145)\n            tag_146:\n              dup3\n              add\n              swap2\n              swap1\n              0x00\n              mstore\n              keccak256(0x00, 0x20)\n              swap1\n            tag_147:\n              dup2\n              sload\n              dup2\n              mstore\n              swap1\n              0x01\n              add\n              swap1\n              0x20\n              add\n              dup1\n              dup4\n              gt\n              tag_147\n              jumpi\n              dup3\n              swap1\n              sub\n              0x1f\n              and\n              dup3\n              add\n              swap2\n            tag_145:\n              pop\n              pop\n              pop\n              pop\n              pop\n              swap4\n              pop\n              dup3\n              dup1\n              sload\n              tag_148\n              swap1\n              tag_65\n              jump\t// in\n            tag_148:\n              dup1\n              0x1f\n              add\n              0x20\n              dup1\n              swap2\n              div\n              mul\n              0x20\n              add\n              mload(0x40)\n              swap1\n              dup2\n              add\n              0x40\n              mstore\n              dup1\n              swap3\n              swap2\n              swap1\n              dup2\n              dup2\n              mstore\n              0x20\n              add\n              dup3\n              dup1\n              sload\n              tag_149\n              swap1\n              tag_65\n              jump\t// in\n            tag_149:\n              dup1\n              iszero\n              tag_150\n              jumpi\n              dup1\n              0x1f\n              lt\n              tag_151\n              jumpi\n              0x0100\n              dup1\n              dup4\n              sload\n              div\n              mul\n              dup4\n              mstore\n              swap2\n              0x20\n              add\n              swap2\n              jump(tag_150)\n            tag_151:\n              dup3\n              add\n              swap2\n              swap1\n              0x00\n              mstore\n              keccak256(0x00, 0x20)\n              swap1\n            tag_152:\n              dup2\n              sload\n              dup2\n              mstore\n              swap1\n              0x01\n              add\n              swap1\n              0x20\n              add\n              dup1\n              dup4\n              gt\n              tag_152\n              jumpi\n              dup3\n              swap1\n              sub\n              0x1f\n              and\n              dup3\n              add\n              swap2\n            tag_150:\n              pop\n              pop\n              pop\n              pop\n              pop\n              swap3\n              pop\n              dup2\n              dup1\n              sload\n              tag_153\n              swap1\n              tag_65\n              jump\t// in\n            tag_153:\n              dup1\n              0x1f\n              add\n              0x20\n              dup1\n              swap2\n              div\n              mul\n              0x20\n              add\n              mload(0x40)\n              swap1\n              dup2\n              add\n              0x40\n              mstore\n              dup1\n              swap3\n              swap2\n              swap1\n              dup2\n              dup2\n              mstore\n              0x20\n              add\n              dup3\n              dup1\n              sload\n              tag_154\n              swap1\n              tag_65\n              jump\t// in\n            tag_154:\n              dup1\n              iszero\n              tag_155\n              jumpi\n              dup1\n              0x1f\n              lt\n              tag_156\n              jumpi\n              0x0100\n              dup1\n              dup4\n              sload\n              div\n              mul\n              dup4\n              mstore\n              swap2\n              0x20\n              add\n              swap2\n              jump(tag_155)\n            tag_156:\n              dup3\n              add\n              swap2\n              swap1\n              0x00\n              mstore\n              keccak256(0x00, 0x20)\n              swap1\n            tag_157:\n              dup2\n              sload\n              dup2\n              mstore\n              swap1\n              0x01\n              add\n              swap1\n              0x20\n              add\n              dup1\n              dup4\n              gt\n              tag_157\n              jumpi\n              dup3\n              swap1\n              sub\n              0x1f\n              and\n              dup3\n              add\n              swap2\n            tag_155:\n              pop\n              pop\n              pop\n              pop\n              pop\n              swap2\n              pop\n              dup1\n              dup1\n              sload\n              tag_158\n              swap1\n              tag_65\n              jump\t// in\n            tag_158:\n              dup1\n              0x1f\n              add\n              0x20\n              dup1\n              swap2\n              div\n              mul\n              0x20\n              add\n              mload(0x40)\n              swap1\n              dup2\n              add\n              0x40\n              mstore\n              dup1\n              swap3\n              swap2\n              swap1\n              dup2\n              dup2\n              mstore\n              0x20\n              add\n              dup3\n              dup1\n              sload\n              tag_159\n              swap1\n              tag_65\n              jump\t// in\n            tag_159:\n              dup1\n              iszero\n              tag_160\n              jumpi\n              dup1\n              0x1f\n              lt\n              tag_161\n              jumpi\n              0x0100\n              dup1\n              dup4\n              sload\n              div\n              mul\n              dup4\n              mstore\n              swap2\n              0x20\n              add\n              swap2\n              jump(tag_160)\n            tag_161:\n              dup3\n              add\n              swap2\n              swap1\n              0x00\n              mstore\n              keccak256(0x00, 0x20)\n              swap1\n            tag_162:\n              dup2\n              sload\n              dup2\n              mstore\n              swap1\n              0x01\n              add\n              swap1\n              0x20\n              add\n              dup1\n              dup4\n              gt\n              tag_162\n              jumpi\n              dup3\n              swap1\n              sub\n              0x1f\n              and\n              dup3\n              add\n              swap2\n            tag_160:\n              pop\n              pop\n              pop\n              pop\n              pop\n              swap1\n              pop\n              swap9\n              pop\n              swap9\n              pop\n              swap9\n              pop\n              swap9\n              pop\n              swap9\n              pop\n              swap9\n              pop\n              swap9\n              pop\n              swap9\n              pop\n              swap9\n              pop\n                /* \"KYC.sol\":3968:4412  function getUserDetails(address ass) public view... */\n              swap2\n              swap4\n              swap6\n              swap8\n              swap10\n              swap1\n              swap3\n              swap5\n              swap7\n              swap9\n              pop\n              jump\t// out\n                /* \"KYC.sol\":2910:3005  function getDeployedUsers() public view returns(address) {... */\n            tag_49:\n                /* \"KYC.sol\":2958:2965  address */\n              0x00\n                /* \"KYC.sol\":2985:2997  usersAddress */\n              dup1\n              0x00\n              swap1\n              sload\n              swap1\n              0x0100\n              exp\n              swap1\n              div\n              0xffffffffffffffffffffffffffffffffffffffff\n              and\n                /* \"KYC.sol\":2978:2997  return usersAddress */\n              swap1\n              pop\n                /* \"KYC.sol\":2910:3005  function getDeployedUsers() public view returns(address) {... */\n              swap1\n              jump\t// out\n                /* \"KYC.sol\":3036:3419  function getparticularUser(address rer) public view... */\n            tag_53:\n                /* \"KYC.sol\":3101:3114  string memory */\n              0x60\n                /* \"KYC.sol\":3116:3129  string memory */\n              dup1\n                /* \"KYC.sol\":3131:3144  string memory */\n              0x60\n                /* \"KYC.sol\":3146:3159  string memory */\n              dup1\n                /* \"KYC.sol\":3161:3174  string memory */\n              0x60\n                /* \"KYC.sol\":3176:3189  string memory */\n              dup1\n                /* \"KYC.sol\":3190:3203  string memory */\n              0x60\n                /* \"KYC.sol\":3223:3228  users */\n              0x01\n                /* \"KYC.sol\":3223:3233  users[rer] */\n              0x00\n                /* \"KYC.sol\":3229:3232  rer */\n              dup10\n                /* \"KYC.sol\":3223:3233  users[rer] */\n              0xffffffffffffffffffffffffffffffffffffffff\n              and\n              0xffffffffffffffffffffffffffffffffffffffff\n              and\n              dup2\n              mstore\n              0x20\n              add\n              swap1\n              dup2\n              mstore\n              0x20\n              add\n              0x00\n              keccak256\n                /* \"KYC.sol\":3223:3237  users[rer].set */\n              0x09\n              add\n              0x00\n              swap1\n              sload\n              swap1\n              0x0100\n              exp\n              swap1\n              div\n              0xff\n              and\n                /* \"KYC.sol\":3215:3238  require(users[rer].set) */\n              tag_165\n              jumpi\n              0x00\n              dup1\n              revert\n            tag_165:\n                /* \"KYC.sol\":3264:3271  manager */\n              0x02\n              0x00\n              swap1\n              sload\n              swap1\n              0x0100\n              exp\n              swap1\n              div\n              0xffffffffffffffffffffffffffffffffffffffff\n              and\n                /* \"KYC.sol\":3257:3271  rer == manager */\n              0xffffffffffffffffffffffffffffffffffffffff\n              and\n                /* \"KYC.sol\":3257:3260  rer */\n              dup9\n                /* \"KYC.sol\":3257:3271  rer == manager */\n              0xffffffffffffffffffffffffffffffffffffffff\n              and\n              eq\n                /* \"KYC.sol\":3249:3272  require(rer == manager) */\n              tag_166\n              jumpi\n              0x00\n              dup1\n              revert\n            tag_166:\n                /* \"KYC.sol\":3291:3296  users */\n              0x01\n                /* \"KYC.sol\":3291:3301  users[rer] */\n              0x00\n                /* \"KYC.sol\":3297:3300  rer */\n              dup10\n                /* \"KYC.sol\":3291:3301  users[rer] */\n              0xffffffffffffffffffffffffffffffffffffffff\n              and\n              0xffffffffffffffffffffffffffffffffffffffff\n              and\n              dup2\n              mstore\n              0x20\n              add\n              swap1\n              dup2\n              mstore\n              0x20\n              add\n              0x00\n              keccak256\n                /* \"KYC.sol\":3291:3306  users[rer].name */\n              0x00\n              add\n                /* \"KYC.sol\":3307:3312  users */\n              0x01\n                /* \"KYC.sol\":3307:3317  users[rer] */\n              0x00\n                /* \"KYC.sol\":3313:3316  rer */\n              dup11\n                /* \"KYC.sol\":3307:3317  users[rer] */\n              0xffffffffffffffffffffffffffffffffffffffff\n              and\n              0xffffffffffffffffffffffffffffffffffffffff\n              and\n              dup2\n              mstore\n              0x20\n              add\n              swap1\n              dup2\n              mstore\n              0x20\n              add\n              0x00\n              keccak256\n                /* \"KYC.sol\":3307:3324  users[rer].father */\n              0x01\n              add\n                /* \"KYC.sol\":3325:3330  users */\n              0x01\n                /* \"KYC.sol\":3325:3335  users[rer] */\n              0x00\n                /* \"KYC.sol\":3331:3334  rer */\n              dup12\n                /* \"KYC.sol\":3325:3335  users[rer] */\n              0xffffffffffffffffffffffffffffffffffffffff\n              and\n              0xffffffffffffffffffffffffffffffffffffffff\n              and\n              dup2\n              mstore\n              0x20\n              add\n              swap1\n              dup2\n              mstore\n              0x20\n              add\n              0x00\n              keccak256\n                /* \"KYC.sol\":3325:3342  users[rer].mother */\n              0x02\n              add\n                /* \"KYC.sol\":3343:3348  users */\n              0x01\n                /* \"KYC.sol\":3343:3353  users[rer] */\n              0x00\n                /* \"KYC.sol\":3349:3352  rer */\n              dup13\n                /* \"KYC.sol\":3343:3353  users[rer] */\n              0xffffffffffffffffffffffffffffffffffffffff\n              and\n              0xffffffffffffffffffffffffffffffffffffffff\n              and\n              dup2\n              mstore\n              0x20\n              add\n              swap1\n              dup2\n              mstore\n              0x20\n              add\n              0x00\n              keccak256\n                /* \"KYC.sol\":3343:3363  users[rer].birthdate */\n              0x03\n              add\n                /* \"KYC.sol\":3364:3369  users */\n              0x01\n                /* \"KYC.sol\":3364:3374  users[rer] */\n              0x00\n                /* \"KYC.sol\":3370:3373  rer */\n              dup14\n                /* \"KYC.sol\":3364:3374  users[rer] */\n              0xffffffffffffffffffffffffffffffffffffffff\n              and\n              0xffffffffffffffffffffffffffffffffffffffff\n              and\n              dup2\n              mstore\n              0x20\n              add\n              swap1\n              dup2\n              mstore\n              0x20\n              add\n              0x00\n              keccak256\n                /* \"KYC.sol\":3364:3378  users[rer].add */\n              0x04\n              add\n                /* \"KYC.sol\":3379:3384  users */\n              0x01\n                /* \"KYC.sol\":3379:3389  users[rer] */\n              0x00\n                /* \"KYC.sol\":3385:3388  rer */\n              dup15\n                /* \"KYC.sol\":3379:3389  users[rer] */\n              0xffffffffffffffffffffffffffffffffffffffff\n              and\n              0xffffffffffffffffffffffffffffffffffffffff\n              and\n              dup2\n              mstore\n              0x20\n              add\n              swap1\n              dup2\n              mstore\n              0x20\n              add\n              0x00\n              keccak256\n                /* \"KYC.sol\":3379:3393  users[rer].mob */\n              0x05\n              add\n                /* \"KYC.sol\":3394:3399  users */\n              0x01\n                /* \"KYC.sol\":3394:3404  users[rer] */\n              0x00\n                /* \"KYC.sol\":3400:3403  rer */\n              dup16\n                /* \"KYC.sol\":3394:3404  users[rer] */\n              0xffffffffffffffffffffffffffffffffffffffff\n              and\n              0xffffffffffffffffffffffffffffffffffffffff\n              and\n              dup2\n              mstore\n              0x20\n              add\n              swap1\n              dup2\n              mstore\n              0x20\n              add\n              0x00\n              keccak256\n                /* \"KYC.sol\":3394:3410  users[rer].email */\n              0x06\n              add\n                /* \"KYC.sol\":3283:3411  return (users[rer].name,users[rer].father,users[rer].mother,users[rer].birthdate,users[rer].add,users[rer].mob,users[rer].email) */\n              dup7\n              dup1\n              sload\n              tag_167\n              swap1\n              tag_65\n              jump\t// in\n            tag_167:\n              dup1\n              0x1f\n              add\n              0x20\n              dup1\n              swap2\n              div\n              mul\n              0x20\n              add\n              mload(0x40)\n              swap1\n              dup2\n              add\n              0x40\n              mstore\n              dup1\n              swap3\n              swap2\n              swap1\n              dup2\n              dup2\n              mstore\n              0x20\n              add\n              dup3\n              dup1\n              sload\n              tag_168\n              swap1\n              tag_65\n              jump\t// in\n            tag_168:\n              dup1\n              iszero\n              tag_169\n              jumpi\n              dup1\n              0x1f\n              lt\n              tag_170\n              jumpi\n              0x0100\n              dup1\n              dup4\n              sload\n              div\n              mul\n              dup4\n              mstore\n              swap2\n              0x20\n              add\n              swap2\n              jump(tag_169)\n            tag_170:\n              dup3\n              add\n              swap2\n              swap1\n              0x00\n              mstore\n              keccak256(0x00, 0x20)\n              swap1\n            tag_171:\n              dup2\n              sload\n              dup2\n              mstore\n              swap1\n              0x01\n              add\n              swap1\n              0x20\n              add\n              dup1\n              dup4\n              gt\n              tag_171\n              jumpi\n              dup3\n              swap1\n              sub\n              0x1f\n              and\n              dup3\n              add\n              swap2\n            tag_169:\n              pop\n              pop\n              pop\n              pop\n              pop\n              swap7\n              pop\n              dup6\n              dup1\n              sload\n              tag_172\n              swap1\n              tag_65\n              jump\t// in\n            tag_172:\n              dup1\n              0x1f\n              add\n              0x20\n              dup1\n              swap2\n              div\n              mul\n              0x20\n              add\n              mload(0x40)\n              swap1\n              dup2\n              add\n              0x40\n              mstore\n              dup1\n              swap3\n              swap2\n              swap1\n              dup2\n              dup2\n              mstore\n              0x20\n              add\n              dup3\n              dup1\n              sload\n              tag_173\n              swap1\n              tag_65\n              jump\t// in\n            tag_173:\n              dup1\n              iszero\n              tag_174\n              jumpi\n              dup1\n              0x1f\n              lt\n              tag_175\n              jumpi\n              0x0100\n              dup1\n              dup4\n              sload\n              div\n              mul\n              dup4\n              mstore\n              swap2\n              0x20\n              add\n              swap2\n              jump(tag_174)\n            tag_175:\n              dup3\n              add\n              swap2\n              swap1\n              0x00\n              mstore\n              keccak256(0x00, 0x20)\n              swap1\n            tag_176:\n              dup2\n              sload\n              dup2\n              mstore\n              swap1\n              0x01\n              add\n              swap1\n              0x20\n              add\n              dup1\n              dup4\n              gt\n              tag_176\n              jumpi\n              dup3\n              swap1\n              sub\n              0x1f\n              and\n              dup3\n              add\n              swap2\n            tag_174:\n              pop\n              pop\n              pop\n              pop\n              pop\n              swap6\n              pop\n              dup5\n              dup1\n              sload\n              tag_177\n              swap1\n              tag_65\n              jump\t// in\n            tag_177:\n              dup1\n              0x1f\n              add\n              0x20\n              dup1\n              swap2\n              div\n              mul\n              0x20\n              add\n              mload(0x40)\n              swap1\n              dup2\n              add\n              0x40\n              mstore\n              dup1\n              swap3\n              swap2\n              swap1\n              dup2\n              dup2\n              mstore\n              0x20\n              add\n              dup3\n              dup1\n              sload\n              tag_178\n              swap1\n              tag_65\n              jump\t// in\n            tag_178:\n              dup1\n              iszero\n              tag_179\n              jumpi\n              dup1\n              0x1f\n              lt\n              tag_180\n              jumpi\n              0x0100\n              dup1\n              dup4\n              sload\n              div\n              mul\n              dup4\n              mstore\n              swap2\n              0x20\n              add\n              swap2\n              jump(tag_179)\n            tag_180:\n              dup3\n              add\n              swap2\n              swap1\n              0x00\n              mstore\n              keccak256(0x00, 0x20)\n              swap1\n            tag_181:\n              dup2\n              sload\n              dup2\n              mstore\n              swap1\n              0x01\n              add\n              swap1\n              0x20\n              add\n              dup1\n              dup4\n              gt\n              tag_181\n              jumpi\n              dup3\n              swap1\n              sub\n              0x1f\n              and\n              dup3\n              add\n              swap2\n            tag_179:\n              pop\n              pop\n              pop\n              pop\n              pop\n              swap5\n              pop\n              dup4\n              dup1\n              sload\n              tag_182\n              swap1\n              tag_65\n              jump\t// in\n            tag_182:\n              dup1\n              0x1f\n              add\n              0x20\n              dup1\n              swap2\n              div\n              mul\n              0x20\n              add\n              mload(0x40)\n              swap1\n              dup2\n              add\n              0x40\n              mstore\n              dup1\n              swap3\n              swap2\n              swap1\n              dup2\n              dup2\n              mstore\n              0x20\n              add\n              dup3\n              dup1\n              sload\n              tag_183\n              swap1\n              tag_65\n              jump\t// in\n            tag_183:\n              dup1\n              iszero\n              tag_184\n              jumpi\n              dup1\n              0x1f\n              lt\n              tag_185\n              jumpi\n              0x0100\n              dup1\n              dup4\n              sload\n              div\n              mul\n              dup4\n              mstore\n              swap2\n              0x20\n              add\n              swap2\n              jump(tag_184)\n            tag_185:\n              dup3\n              add\n              swap2\n              swap1\n              0x00\n              mstore\n              keccak256(0x00, 0x20)\n              swap1\n            tag_186:\n              dup2\n              sload\n              dup2\n              mstore\n              swap1\n              0x01\n              add\n              swap1\n              0x20\n              add\n              dup1\n              dup4\n              gt\n              tag_186\n              jumpi\n              dup3\n              swap1\n              sub\n              0x1f\n              and\n              dup3\n              add\n              swap2\n            tag_184:\n              pop\n              pop\n              pop\n              pop\n              pop\n              swap4\n              pop\n              dup3\n              dup1\n              sload\n              tag_187\n              swap1\n              tag_65\n              jump\t// in\n            tag_187:\n              dup1\n              0x1f\n              add\n              0x20\n              dup1\n              swap2\n              div\n              mul\n              0x20\n              add\n              mload(0x40)\n              swap1\n              dup2\n              add\n              0x40\n              mstore\n              dup1\n              swap3\n              swap2\n              swap1\n              dup2\n              dup2\n              mstore\n              0x20\n              add\n              dup3\n              dup1\n              sload\n              tag_188\n              swap1\n              tag_65\n              jump\t// in\n            tag_188:\n              dup1\n              iszero\n              tag_189\n              jumpi\n              dup1\n              0x1f\n              lt\n              tag_190\n              jumpi\n              0x0100\n              dup1\n              dup4\n              sload\n              div\n              mul\n              dup4\n              mstore\n              swap2\n              0x20\n              add\n              swap2\n              jump(tag_189)\n            tag_190:\n              dup3\n              add\n              swap2\n              swap1\n              0x00\n              mstore\n              keccak256(0x00, 0x20)\n              swap1\n            tag_191:\n              dup2\n              sload\n              dup2\n              mstore\n              swap1\n              0x01\n              add\n              swap1\n              0x20\n              add\n              dup1\n              dup4\n              gt\n              tag_191\n              jumpi\n              dup3\n              swap1\n              sub\n              0x1f\n              and\n              dup3\n              add\n              swap2\n            tag_189:\n              pop\n              pop\n              pop\n              pop\n              pop\n              swap3\n              pop\n              dup2\n              dup1\n              sload\n              tag_192\n              swap1\n              tag_65\n              jump\t// in\n            tag_192:\n              dup1\n              0x1f\n              add\n              0x20\n              dup1\n              swap2\n              div\n              mul\n              0x20\n              add\n              mload(0x40)\n              swap1\n              dup2\n              add\n              0x40\n              mstore\n              dup1\n              swap3\n              swap2\n              swap1\n              dup2\n              dup2\n              mstore\n              0x20\n              add\n              dup3\n              dup1\n              sload\n              tag_193\n              swap1\n              tag_65\n              jump\t// in\n            tag_193:\n              dup1\n              iszero\n              tag_194\n              jumpi\n              dup1\n              0x1f\n              lt\n              tag_195\n              jumpi\n              0x0100\n              dup1\n              dup4\n              sload\n              div\n              mul\n              dup4\n              mstore\n              swap2\n              0x20\n              add\n              swap2\n              jump(tag_194)\n            tag_195:\n              dup3\n              add\n              swap2\n              swap1\n              0x00\n              mstore\n              keccak256(0x00, 0x20)\n              swap1\n            tag_196:\n              dup2\n              sload\n              dup2\n              mstore\n              swap1\n              0x01\n              add\n              swap1\n              0x20\n              add\n              dup1\n              dup4\n              gt\n              tag_196\n              jumpi\n              dup3\n              swap1\n              sub\n              0x1f\n              and\n              dup3\n              add\n              swap2\n            tag_194:\n              pop\n              pop\n              pop\n              pop\n              pop\n              swap2\n              pop\n              dup1\n              dup1\n              sload\n              tag_197\n              swap1\n              tag_65\n              jump\t// in\n            tag_197:\n              dup1\n              0x1f\n              add\n              0x20\n              dup1\n              swap2\n              div\n              mul\n              0x20\n              add\n              mload(0x40)\n              swap1\n              dup2\n              add\n              0x40\n              mstore\n              dup1\n              swap3\n              swap2\n              swap1\n              dup2\n              dup2\n              mstore\n              0x20\n              add\n              dup3\n              dup1\n              sload\n              tag_198\n              swap1\n              tag_65\n              jump\t// in\n            tag_198:\n              dup1\n              iszero\n              tag_199\n              jumpi\n              dup1\n              0x1f\n              lt\n              tag_200\n              jumpi\n              0x0100\n              dup1\n              dup4\n              sload\n              div\n              mul\n              dup4\n              mstore\n              swap2\n              0x20\n              add\n              swap2\n              jump(tag_199)\n            tag_200:\n              dup3\n              add\n              swap2\n              swap1\n              0x00\n              mstore\n              keccak256(0x00, 0x20)\n              swap1\n            tag_201:\n              dup2\n              sload\n              dup2\n              mstore\n              swap1\n              0x01\n              add\n              swap1\n              0x20\n              add\n              dup1\n              dup4\n              gt\n              tag_201\n              jumpi\n              dup3\n              swap1\n              sub\n              0x1f\n              and\n              dup3\n              add\n              swap2\n            tag_199:\n              pop\n              pop\n              pop\n              pop\n              pop\n              swap1\n              pop\n              swap7\n              pop\n              swap7\n              pop\n              swap7\n              pop\n              swap7\n              pop\n              swap7\n              pop\n              swap7\n              pop\n              swap7\n              pop\n                /* \"KYC.sol\":3036:3419  function getparticularUser(address rer) public view... */\n              swap2\n              swap4\n              swap6\n              swap8\n              swap1\n              swap3\n              swap5\n              swap7\n              pop\n              jump\t// out\n                /* \"KYC.sol\":1745:1772  address public usersAddress */\n            tag_57:\n              0x00\n              dup1\n              sload\n              swap1\n              0x0100\n              exp\n              swap1\n              div\n              0xffffffffffffffffffffffffffffffffffffffff\n              and\n              dup2\n              jump\t// out\n            tag_80:\n              dup3\n              dup1\n              sload\n              tag_202\n              swap1\n              tag_65\n              jump\t// in\n            tag_202:\n              swap1\n              0x00\n              mstore\n              keccak256(0x00, 0x20)\n              swap1\n              0x1f\n              add\n              0x20\n              swap1\n              div\n              dup2\n              add\n              swap3\n              dup3\n              tag_204\n              jumpi\n              0x00\n              dup6\n              sstore\n              jump(tag_203)\n            tag_204:\n              dup3\n              0x1f\n              lt\n              tag_205\n              jumpi\n              dup1\n              mload\n              not(0xff)\n              and\n              dup4\n              dup1\n              add\n              or\n              dup6\n              sstore\n              jump(tag_203)\n            tag_205:\n              dup3\n              dup1\n              add\n              0x01\n              add\n              dup6\n              sstore\n              dup3\n              iszero\n              tag_203\n              jumpi\n              swap2\n              dup3\n              add\n            tag_206:\n              dup3\n              dup2\n              gt\n              iszero\n              tag_207\n              jumpi\n              dup3\n              mload\n              dup3\n              sstore\n              swap2\n              0x20\n              add\n              swap2\n              swap1\n              0x01\n              add\n              swap1\n              jump(tag_206)\n            tag_207:\n            tag_203:\n              pop\n              swap1\n              pop\n              tag_208\n              swap2\n              swap1\n              tag_209\n              jump\t// in\n            tag_208:\n              pop\n              swap1\n              jump\t// out\n            tag_209:\n            tag_210:\n              dup1\n              dup3\n              gt\n              iszero\n              tag_211\n              jumpi\n              0x00\n              dup2\n              0x00\n              swap1\n              sstore\n              pop\n              0x01\n              add\n              jump(tag_210)\n            tag_211:\n              pop\n              swap1\n              jump\t// out\n                /* \"#utility.yul\":7:82   */\n            tag_212:\n                /* \"#utility.yul\":40:46   */\n              0x00\n                /* \"#utility.yul\":73:75   */\n              0x40\n                /* \"#utility.yul\":67:76   */\n              mload\n                /* \"#utility.yul\":57:76   */\n              swap1\n              pop\n                /* \"#utility.yul\":7:82   */\n              swap1\n              jump\t// out\n                /* \"#utility.yul\":88:205   */\n            tag_213:\n                /* \"#utility.yul\":197:198   */\n              0x00\n                /* \"#utility.yul\":194:195   */\n              dup1\n                /* \"#utility.yul\":187:199   */\n              revert\n                /* \"#utility.yul\":211:328   */\n            tag_214:\n                /* \"#utility.yul\":320:321   */\n              0x00\n                /* \"#utility.yul\":317:318   */\n              dup1\n                /* \"#utility.yul\":310:322   */\n              revert\n                /* \"#utility.yul\":334:460   */\n            tag_215:\n                /* \"#utility.yul\":371:378   */\n              0x00\n                /* \"#utility.yul\":411:453   */\n              0xffffffffffffffffffffffffffffffffffffffff\n                /* \"#utility.yul\":404:409   */\n              dup3\n                /* \"#utility.yul\":400:454   */\n              and\n                /* \"#utility.yul\":389:454   */\n              swap1\n              pop\n                /* \"#utility.yul\":334:460   */\n              swap2\n              swap1\n              pop\n              jump\t// out\n                /* \"#utility.yul\":466:562   */\n            tag_216:\n                /* \"#utility.yul\":503:510   */\n              0x00\n                /* \"#utility.yul\":532:556   */\n              tag_241\n                /* \"#utility.yul\":550:555   */\n              dup3\n                /* \"#utility.yul\":532:556   */\n              tag_215\n              jump\t// in\n            tag_241:\n                /* \"#utility.yul\":521:556   */\n              swap1\n              pop\n                /* \"#utility.yul\":466:562   */\n              swap2\n              swap1\n              pop\n              jump\t// out\n                /* \"#utility.yul\":568:690   */\n            tag_217:\n                /* \"#utility.yul\":641:665   */\n              tag_243\n                /* \"#utility.yul\":659:664   */\n              dup2\n                /* \"#utility.yul\":641:665   */\n              tag_216\n              jump\t// in\n            tag_243:\n                /* \"#utility.yul\":634:639   */\n              dup2\n                /* \"#utility.yul\":631:666   */\n              eq\n                /* \"#utility.yul\":621:684   */\n              tag_244\n              jumpi\n                /* \"#utility.yul\":680:681   */\n              0x00\n                /* \"#utility.yul\":677:678   */\n              dup1\n                /* \"#utility.yul\":670:682   */\n              revert\n                /* \"#utility.yul\":621:684   */\n            tag_244:\n                /* \"#utility.yul\":568:690   */\n              pop\n              jump\t// out\n                /* \"#utility.yul\":696:835   */\n            tag_218:\n                /* \"#utility.yul\":742:747   */\n              0x00\n                /* \"#utility.yul\":780:786   */\n              dup2\n                /* \"#utility.yul\":767:787   */\n              calldataload\n                /* \"#utility.yul\":758:787   */\n              swap1\n              pop\n                /* \"#utility.yul\":796:829   */\n              tag_246\n                /* \"#utility.yul\":823:828   */\n              dup2\n                /* \"#utility.yul\":796:829   */\n              tag_217\n              jump\t// in\n            tag_246:\n                /* \"#utility.yul\":696:835   */\n              swap3\n              swap2\n              pop\n              pop\n              jump\t// out\n                /* \"#utility.yul\":841:1170   */\n            tag_17:\n                /* \"#utility.yul\":900:906   */\n              0x00\n                /* \"#utility.yul\":949:951   */\n              0x20\n                /* \"#utility.yul\":937:946   */\n              dup3\n                /* \"#utility.yul\":928:935   */\n              dup5\n                /* \"#utility.yul\":924:947   */\n              sub\n                /* \"#utility.yul\":920:952   */\n              slt\n                /* \"#utility.yul\":917:1036   */\n              iszero\n              tag_248\n              jumpi\n                /* \"#utility.yul\":955:1034   */\n              tag_249\n              tag_213\n              jump\t// in\n            tag_249:\n                /* \"#utility.yul\":917:1036   */\n            tag_248:\n                /* \"#utility.yul\":1075:1076   */\n              0x00\n                /* \"#utility.yul\":1100:1153   */\n              tag_250\n                /* \"#utility.yul\":1145:1152   */\n              dup5\n                /* \"#utility.yul\":1136:1142   */\n              dup3\n                /* \"#utility.yul\":1125:1134   */\n              dup6\n                /* \"#utility.yul\":1121:1143   */\n              add\n                /* \"#utility.yul\":1100:1153   */\n              tag_218\n              jump\t// in\n            tag_250:\n                /* \"#utility.yul\":1090:1153   */\n              swap2\n              pop\n                /* \"#utility.yul\":1046:1163   */\n              pop\n                /* \"#utility.yul\":841:1170   */\n              swap3\n              swap2\n              pop\n              pop\n              jump\t// out\n                /* \"#utility.yul\":1176:1275   */\n            tag_219:\n                /* \"#utility.yul\":1228:1234   */\n              0x00\n                /* \"#utility.yul\":1262:1267   */\n              dup2\n                /* \"#utility.yul\":1256:1268   */\n              mload\n                /* \"#utility.yul\":1246:1268   */\n              swap1\n              pop\n                /* \"#utility.yul\":1176:1275   */\n              swap2\n              swap1\n              pop\n              jump\t// out\n                /* \"#utility.yul\":1281:1450   */\n            tag_220:\n                /* \"#utility.yul\":1365:1376   */\n              0x00\n                /* \"#utility.yul\":1399:1405   */\n              dup3\n                /* \"#utility.yul\":1394:1397   */\n              dup3\n                /* \"#utility.yul\":1387:1406   */\n              mstore\n                /* \"#utility.yul\":1439:1443   */\n              0x20\n                /* \"#utility.yul\":1434:1437   */\n              dup3\n                /* \"#utility.yul\":1430:1444   */\n              add\n                /* \"#utility.yul\":1415:1444   */\n              swap1\n              pop\n                /* \"#utility.yul\":1281:1450   */\n              swap3\n              swap2\n              pop\n              pop\n              jump\t// out\n                /* \"#utility.yul\":1456:1763   */\n            tag_221:\n                /* \"#utility.yul\":1524:1525   */\n              0x00\n                /* \"#utility.yul\":1534:1647   */\n            tag_254:\n                /* \"#utility.yul\":1548:1554   */\n              dup4\n                /* \"#utility.yul\":1545:1546   */\n              dup2\n                /* \"#utility.yul\":1542:1555   */\n              lt\n                /* \"#utility.yul\":1534:1647   */\n              iszero\n              tag_256\n              jumpi\n                /* \"#utility.yul\":1633:1634   */\n              dup1\n                /* \"#utility.yul\":1628:1631   */\n              dup3\n                /* \"#utility.yul\":1624:1635   */\n              add\n                /* \"#utility.yul\":1618:1636   */\n              mload\n                /* \"#utility.yul\":1614:1615   */\n              dup2\n                /* \"#utility.yul\":1609:1612   */\n              dup5\n                /* \"#utility.yul\":1605:1616   */\n              add\n                /* \"#utility.yul\":1598:1637   */\n              mstore\n                /* \"#utility.yul\":1570:1572   */\n              0x20\n                /* \"#utility.yul\":1567:1568   */\n              dup2\n                /* \"#utility.yul\":1563:1573   */\n              add\n                /* \"#utility.yul\":1558:1573   */\n              swap1\n              pop\n                /* \"#utility.yul\":1534:1647   */\n              jump(tag_254)\n            tag_256:\n                /* \"#utility.yul\":1665:1671   */\n              dup4\n                /* \"#utility.yul\":1662:1663   */\n              dup2\n                /* \"#utility.yul\":1659:1672   */\n              gt\n                /* \"#utility.yul\":1656:1757   */\n              iszero\n              tag_257\n              jumpi\n                /* \"#utility.yul\":1745:1746   */\n              0x00\n                /* \"#utility.yul\":1736:1742   */\n              dup5\n                /* \"#utility.yul\":1731:1734   */\n              dup5\n                /* \"#utility.yul\":1727:1743   */\n              add\n                /* \"#utility.yul\":1720:1747   */\n              mstore\n                /* \"#utility.yul\":1656:1757   */\n            tag_257:\n                /* \"#utility.yul\":1505:1763   */\n              pop\n                /* \"#utility.yul\":1456:1763   */\n              pop\n              pop\n              pop\n              jump\t// out\n                /* \"#utility.yul\":1769:1871   */\n            tag_222:\n                /* \"#utility.yul\":1810:1816   */\n              0x00\n                /* \"#utility.yul\":1861:1863   */\n              0x1f\n                /* \"#utility.yul\":1857:1864   */\n              not\n                /* \"#utility.yul\":1852:1854   */\n              0x1f\n                /* \"#utility.yul\":1845:1850   */\n              dup4\n                /* \"#utility.yul\":1841:1855   */\n              add\n                /* \"#utility.yul\":1837:1865   */\n              and\n                /* \"#utility.yul\":1827:1865   */\n              swap1\n              pop\n                /* \"#utility.yul\":1769:1871   */\n              swap2\n              swap1\n              pop\n              jump\t// out\n                /* \"#utility.yul\":1877:2241   */\n            tag_223:\n                /* \"#utility.yul\":1965:1968   */\n              0x00\n                /* \"#utility.yul\":1993:2032   */\n              tag_260\n                /* \"#utility.yul\":2026:2031   */\n              dup3\n                /* \"#utility.yul\":1993:2032   */\n              tag_219\n              jump\t// in\n            tag_260:\n                /* \"#utility.yul\":2048:2119   */\n              tag_261\n                /* \"#utility.yul\":2112:2118   */\n              dup2\n                /* \"#utility.yul\":2107:2110   */\n              dup6\n                /* \"#utility.yul\":2048:2119   */\n              tag_220\n              jump\t// in\n            tag_261:\n                /* \"#utility.yul\":2041:2119   */\n              swap4\n              pop\n                /* \"#utility.yul\":2128:2180   */\n              tag_262\n                /* \"#utility.yul\":2173:2179   */\n              dup2\n                /* \"#utility.yul\":2168:2171   */\n              dup6\n                /* \"#utility.yul\":2161:2165   */\n              0x20\n                /* \"#utility.yul\":2154:2159   */\n              dup7\n                /* \"#utility.yul\":2150:2166   */\n              add\n                /* \"#utility.yul\":2128:2180   */\n              tag_221\n              jump\t// in\n            tag_262:\n                /* \"#utility.yul\":2205:2234   */\n              tag_263\n                /* \"#utility.yul\":2227:2233   */\n              dup2\n                /* \"#utility.yul\":2205:2234   */\n              tag_222\n              jump\t// in\n            tag_263:\n                /* \"#utility.yul\":2200:2203   */\n              dup5\n                /* \"#utility.yul\":2196:2235   */\n              add\n                /* \"#utility.yul\":2189:2235   */\n              swap2\n              pop\n                /* \"#utility.yul\":1969:2241   */\n              pop\n                /* \"#utility.yul\":1877:2241   */\n              swap3\n              swap2\n              pop\n              pop\n              jump\t// out\n                /* \"#utility.yul\":2247:2761   */\n            tag_23:\n                /* \"#utility.yul\":2408:2412   */\n              0x00\n                /* \"#utility.yul\":2446:2448   */\n              0x40\n                /* \"#utility.yul\":2435:2444   */\n              dup3\n                /* \"#utility.yul\":2431:2449   */\n              add\n                /* \"#utility.yul\":2423:2449   */\n              swap1\n              pop\n                /* \"#utility.yul\":2495:2504   */\n              dup2\n                /* \"#utility.yul\":2489:2493   */\n              dup2\n                /* \"#utility.yul\":2485:2505   */\n              sub\n                /* \"#utility.yul\":2481:2482   */\n              0x00\n                /* \"#utility.yul\":2470:2479   */\n              dup4\n                /* \"#utility.yul\":2466:2483   */\n              add\n                /* \"#utility.yul\":2459:2506   */\n              mstore\n                /* \"#utility.yul\":2523:2601   */\n              tag_265\n                /* \"#utility.yul\":2596:2600   */\n              dup2\n                /* \"#utility.yul\":2587:2593   */\n              dup6\n                /* \"#utility.yul\":2523:2601   */\n              tag_223\n              jump\t// in\n            tag_265:\n                /* \"#utility.yul\":2515:2601   */\n              swap1\n              pop\n                /* \"#utility.yul\":2648:2657   */\n              dup2\n                /* \"#utility.yul\":2642:2646   */\n              dup2\n                /* \"#utility.yul\":2638:2658   */\n              sub\n                /* \"#utility.yul\":2633:2635   */\n              0x20\n                /* \"#utility.yul\":2622:2631   */\n              dup4\n                /* \"#utility.yul\":2618:2636   */\n              add\n                /* \"#utility.yul\":2611:2659   */\n              mstore\n                /* \"#utility.yul\":2676:2754   */\n              tag_266\n                /* \"#utility.yul\":2749:2753   */\n              dup2\n                /* \"#utility.yul\":2740:2746   */\n              dup5\n                /* \"#utility.yul\":2676:2754   */\n              tag_223\n              jump\t// in\n            tag_266:\n                /* \"#utility.yul\":2668:2754   */\n              swap1\n              pop\n                /* \"#utility.yul\":2247:2761   */\n              swap4\n              swap3\n              pop\n              pop\n              pop\n              jump\t// out\n                /* \"#utility.yul\":2767:2884   */\n            tag_224:\n                /* \"#utility.yul\":2876:2877   */\n              0x00\n                /* \"#utility.yul\":2873:2874   */\n              dup1\n                /* \"#utility.yul\":2866:2878   */\n              revert\n                /* \"#utility.yul\":2890:3007   */\n            tag_225:\n                /* \"#utility.yul\":2999:3000   */\n              0x00\n                /* \"#utility.yul\":2996:2997   */\n              dup1\n                /* \"#utility.yul\":2989:3001   */\n              revert\n                /* \"#utility.yul\":3013:3193   */\n            tag_226:\n                /* \"#utility.yul\":3061:3138   */\n              0x4e487b7100000000000000000000000000000000000000000000000000000000\n                /* \"#utility.yul\":3058:3059   */\n              0x00\n                /* \"#utility.yul\":3051:3139   */\n              mstore\n                /* \"#utility.yul\":3158:3162   */\n              0x41\n                /* \"#utility.yul\":3155:3156   */\n              0x04\n                /* \"#utility.yul\":3148:3163   */\n              mstore\n                /* \"#utility.yul\":3182:3186   */\n              0x24\n                /* \"#utility.yul\":3179:3180   */\n              0x00\n                /* \"#utility.yul\":3172:3187   */\n              revert\n                /* \"#utility.yul\":3199:3480   */\n            tag_227:\n                /* \"#utility.yul\":3282:3309   */\n              tag_271\n                /* \"#utility.yul\":3304:3308   */\n              dup3\n                /* \"#utility.yul\":3282:3309   */\n              tag_222\n              jump\t// in\n            tag_271:\n                /* \"#utility.yul\":3274:3280   */\n              dup2\n                /* \"#utility.yul\":3270:3310   */\n              add\n                /* \"#utility.yul\":3412:3418   */\n              dup2\n                /* \"#utility.yul\":3400:3410   */\n              dup2\n                /* \"#utility.yul\":3397:3419   */\n              lt\n                /* \"#utility.yul\":3376:3394   */\n              0xffffffffffffffff\n                /* \"#utility.yul\":3364:3374   */\n              dup3\n                /* \"#utility.yul\":3361:3395   */\n              gt\n                /* \"#utility.yul\":3358:3420   */\n              or\n                /* \"#utility.yul\":3355:3443   */\n              iszero\n              tag_272\n              jumpi\n                /* \"#utility.yul\":3423:3441   */\n              tag_273\n              tag_226\n              jump\t// in\n            tag_273:\n                /* \"#utility.yul\":3355:3443   */\n            tag_272:\n                /* \"#utility.yul\":3463:3473   */\n              dup1\n                /* \"#utility.yul\":3459:3461   */\n              0x40\n                /* \"#utility.yul\":3452:3474   */\n              mstore\n                /* \"#utility.yul\":3242:3480   */\n              pop\n                /* \"#utility.yul\":3199:3480   */\n              pop\n              pop\n              jump\t// out\n                /* \"#utility.yul\":3486:3615   */\n            tag_228:\n                /* \"#utility.yul\":3520:3526   */\n              0x00\n                /* \"#utility.yul\":3547:3567   */\n              tag_275\n              tag_212\n              jump\t// in\n            tag_275:\n                /* \"#utility.yul\":3537:3567   */\n              swap1\n              pop\n                /* \"#utility.yul\":3576:3609   */\n              tag_276\n                /* \"#utility.yul\":3604:3608   */\n              dup3\n                /* \"#utility.yul\":3596:3602   */\n              dup3\n                /* \"#utility.yul\":3576:3609   */\n              tag_227\n              jump\t// in\n            tag_276:\n                /* \"#utility.yul\":3486:3615   */\n              swap2\n              swap1\n              pop\n              jump\t// out\n                /* \"#utility.yul\":3621:3929   */\n            tag_229:\n                /* \"#utility.yul\":3683:3687   */\n              0x00\n                /* \"#utility.yul\":3773:3791   */\n              0xffffffffffffffff\n                /* \"#utility.yul\":3765:3771   */\n              dup3\n                /* \"#utility.yul\":3762:3792   */\n              gt\n                /* \"#utility.yul\":3759:3815   */\n              iszero\n              tag_278\n              jumpi\n                /* \"#utility.yul\":3795:3813   */\n              tag_279\n              tag_226\n              jump\t// in\n            tag_279:\n                /* \"#utility.yul\":3759:3815   */\n            tag_278:\n                /* \"#utility.yul\":3833:3862   */\n              tag_280\n                /* \"#utility.yul\":3855:3861   */\n              dup3\n                /* \"#utility.yul\":3833:3862   */\n              tag_222\n              jump\t// in\n            tag_280:\n                /* \"#utility.yul\":3825:3862   */\n              swap1\n              pop\n                /* \"#utility.yul\":3917:3921   */\n              0x20\n                /* \"#utility.yul\":3911:3915   */\n              dup2\n                /* \"#utility.yul\":3907:3922   */\n              add\n                /* \"#utility.yul\":3899:3922   */\n              swap1\n              pop\n                /* \"#utility.yul\":3621:3929   */\n              swap2\n              swap1\n              pop\n              jump\t// out\n                /* \"#utility.yul\":3935:4089   */\n            tag_230:\n                /* \"#utility.yul\":4019:4025   */\n              dup3\n                /* \"#utility.yul\":4014:4017   */\n              dup2\n                /* \"#utility.yul\":4009:4012   */\n              dup4\n                /* \"#utility.yul\":3996:4026   */\n              calldatacopy\n                /* \"#utility.yul\":4081:4082   */\n              0x00\n                /* \"#utility.yul\":4072:4078   */\n              dup4\n                /* \"#utility.yul\":4067:4070   */\n              dup4\n                /* \"#utility.yul\":4063:4079   */\n              add\n                /* \"#utility.yul\":4056:4083   */\n              mstore\n                /* \"#utility.yul\":3935:4089   */\n              pop\n              pop\n              pop\n              jump\t// out\n                /* \"#utility.yul\":4095:4507   */\n            tag_231:\n                /* \"#utility.yul\":4173:4178   */\n              0x00\n                /* \"#utility.yul\":4198:4264   */\n              tag_283\n                /* \"#utility.yul\":4214:4263   */\n              tag_284\n                /* \"#utility.yul\":4256:4262   */\n              dup5\n                /* \"#utility.yul\":4214:4263   */\n              tag_229\n              jump\t// in\n            tag_284:\n                /* \"#utility.yul\":4198:4264   */\n              tag_228\n              jump\t// in\n            tag_283:\n                /* \"#utility.yul\":4189:4264   */\n              swap1\n              pop\n                /* \"#utility.yul\":4287:4293   */\n              dup3\n                /* \"#utility.yul\":4280:4285   */\n              dup2\n                /* \"#utility.yul\":4273:4294   */\n              mstore\n                /* \"#utility.yul\":4325:4329   */\n              0x20\n                /* \"#utility.yul\":4318:4323   */\n              dup2\n                /* \"#utility.yul\":4314:4330   */\n              add\n                /* \"#utility.yul\":4363:4366   */\n              dup5\n                /* \"#utility.yul\":4354:4360   */\n              dup5\n                /* \"#utility.yul\":4349:4352   */\n              dup5\n                /* \"#utility.yul\":4345:4361   */\n              add\n                /* \"#utility.yul\":4342:4367   */\n              gt\n                /* \"#utility.yul\":4339:4451   */\n              iszero\n              tag_285\n              jumpi\n                /* \"#utility.yul\":4370:4449   */\n              tag_286\n              tag_225\n              jump\t// in\n            tag_286:\n                /* \"#utility.yul\":4339:4451   */\n            tag_285:\n                /* \"#utility.yul\":4460:4501   */\n              tag_287\n                /* \"#utility.yul\":4494:4500   */\n              dup5\n                /* \"#utility.yul\":4489:4492   */\n              dup3\n                /* \"#utility.yul\":4484:4487   */\n              dup6\n                /* \"#utility.yul\":4460:4501   */\n              tag_230\n              jump\t// in\n            tag_287:\n                /* \"#utility.yul\":4179:4507   */\n              pop\n                /* \"#utility.yul\":4095:4507   */\n              swap4\n              swap3\n              pop\n              pop\n              pop\n              jump\t// out\n                /* \"#utility.yul\":4527:4867   */\n            tag_232:\n                /* \"#utility.yul\":4583:4588   */\n              0x00\n                /* \"#utility.yul\":4632:4635   */\n              dup3\n                /* \"#utility.yul\":4625:4629   */\n              0x1f\n                /* \"#utility.yul\":4617:4623   */\n              dup4\n                /* \"#utility.yul\":4613:4630   */\n              add\n                /* \"#utility.yul\":4609:4636   */\n              slt\n                /* \"#utility.yul\":4599:4721   */\n              tag_289\n              jumpi\n                /* \"#utility.yul\":4640:4719   */\n              tag_290\n              tag_224\n              jump\t// in\n            tag_290:\n                /* \"#utility.yul\":4599:4721   */\n            tag_289:\n                /* \"#utility.yul\":4757:4763   */\n              dup2\n                /* \"#utility.yul\":4744:4764   */\n              calldataload\n                /* \"#utility.yul\":4782:4861   */\n              tag_291\n                /* \"#utility.yul\":4857:4860   */\n              dup5\n                /* \"#utility.yul\":4849:4855   */\n              dup3\n                /* \"#utility.yul\":4842:4846   */\n              0x20\n                /* \"#utility.yul\":4834:4840   */\n              dup7\n                /* \"#utility.yul\":4830:4847   */\n              add\n                /* \"#utility.yul\":4782:4861   */\n              tag_231\n              jump\t// in\n            tag_291:\n                /* \"#utility.yul\":4773:4861   */\n              swap2\n              pop\n                /* \"#utility.yul\":4589:4867   */\n              pop\n                /* \"#utility.yul\":4527:4867   */\n              swap3\n              swap2\n              pop\n              pop\n              jump\t// out\n                /* \"#utility.yul\":4873:8642   */\n            tag_26:\n                /* \"#utility.yul\":5132:5138   */\n              0x00\n                /* \"#utility.yul\":5140:5146   */\n              dup1\n                /* \"#utility.yul\":5148:5154   */\n              0x00\n                /* \"#utility.yul\":5156:5162   */\n              dup1\n                /* \"#utility.yul\":5164:5170   */\n              0x00\n                /* \"#utility.yul\":5172:5178   */\n              dup1\n                /* \"#utility.yul\":5180:5186   */\n              0x00\n                /* \"#utility.yul\":5188:5194   */\n              dup1\n                /* \"#utility.yul\":5196:5202   */\n              0x00\n                /* \"#utility.yul\":5204:5210   */\n              dup1\n                /* \"#utility.yul\":5212:5219   */\n              0x00\n                /* \"#utility.yul\":5262:5265   */\n              0x0160\n                /* \"#utility.yul\":5250:5259   */\n              dup13\n                /* \"#utility.yul\":5241:5248   */\n              dup15\n                /* \"#utility.yul\":5237:5260   */\n              sub\n                /* \"#utility.yul\":5233:5266   */\n              slt\n                /* \"#utility.yul\":5230:5350   */\n              iszero\n              tag_293\n              jumpi\n                /* \"#utility.yul\":5269:5348   */\n              tag_294\n              tag_213\n              jump\t// in\n            tag_294:\n                /* \"#utility.yul\":5230:5350   */\n            tag_293:\n                /* \"#utility.yul\":5417:5418   */\n              0x00\n                /* \"#utility.yul\":5406:5415   */\n              dup13\n                /* \"#utility.yul\":5402:5419   */\n              add\n                /* \"#utility.yul\":5389:5420   */\n              calldataload\n                /* \"#utility.yul\":5447:5465   */\n              0xffffffffffffffff\n                /* \"#utility.yul\":5439:5445   */\n              dup2\n                /* \"#utility.yul\":5436:5466   */\n              gt\n                /* \"#utility.yul\":5433:5550   */\n              iszero\n              tag_295\n              jumpi\n                /* \"#utility.yul\":5469:5548   */\n              tag_296\n              tag_214\n              jump\t// in\n            tag_296:\n                /* \"#utility.yul\":5433:5550   */\n            tag_295:\n                /* \"#utility.yul\":5574:5637   */\n              tag_297\n                /* \"#utility.yul\":5629:5636   */\n              dup15\n                /* \"#utility.yul\":5620:5626   */\n              dup3\n                /* \"#utility.yul\":5609:5618   */\n              dup16\n                /* \"#utility.yul\":5605:5627   */\n              add\n                /* \"#utility.yul\":5574:5637   */\n              tag_232\n              jump\t// in\n            tag_297:\n                /* \"#utility.yul\":5564:5637   */\n              swap12\n              pop\n                /* \"#utility.yul\":5360:5647   */\n              pop\n                /* \"#utility.yul\":5714:5716   */\n              0x20\n                /* \"#utility.yul\":5703:5712   */\n              dup13\n                /* \"#utility.yul\":5699:5717   */\n              add\n                /* \"#utility.yul\":5686:5718   */\n              calldataload\n                /* \"#utility.yul\":5745:5763   */\n              0xffffffffffffffff\n                /* \"#utility.yul\":5737:5743   */\n              dup2\n                /* \"#utility.yul\":5734:5764   */\n              gt\n                /* \"#utility.yul\":5731:5848   */\n              iszero\n              tag_298\n              jumpi\n                /* \"#utility.yul\":5767:5846   */\n              tag_299\n              tag_214\n              jump\t// in\n            tag_299:\n                /* \"#utility.yul\":5731:5848   */\n            tag_298:\n                /* \"#utility.yul\":5872:5935   */\n              tag_300\n                /* \"#utility.yul\":5927:5934   */\n              dup15\n                /* \"#utility.yul\":5918:5924   */\n              dup3\n                /* \"#utility.yul\":5907:5916   */\n              dup16\n                /* \"#utility.yul\":5903:5925   */\n              add\n                /* \"#utility.yul\":5872:5935   */\n              tag_232\n              jump\t// in\n            tag_300:\n                /* \"#utility.yul\":5862:5935   */\n              swap11\n              pop\n                /* \"#utility.yul\":5657:5945   */\n              pop\n                /* \"#utility.yul\":6012:6014   */\n              0x40\n                /* \"#utility.yul\":6001:6010   */\n              dup13\n                /* \"#utility.yul\":5997:6015   */\n              add\n                /* \"#utility.yul\":5984:6016   */\n              calldataload\n                /* \"#utility.yul\":6043:6061   */\n              0xffffffffffffffff\n                /* \"#utility.yul\":6035:6041   */\n              dup2\n                /* \"#utility.yul\":6032:6062   */\n              gt\n                /* \"#utility.yul\":6029:6146   */\n              iszero\n              tag_301\n              jumpi\n                /* \"#utility.yul\":6065:6144   */\n              tag_302\n              tag_214\n              jump\t// in\n            tag_302:\n                /* \"#utility.yul\":6029:6146   */\n            tag_301:\n                /* \"#utility.yul\":6170:6233   */\n              tag_303\n                /* \"#utility.yul\":6225:6232   */\n              dup15\n                /* \"#utility.yul\":6216:6222   */\n              dup3\n                /* \"#utility.yul\":6205:6214   */\n              dup16\n                /* \"#utility.yul\":6201:6223   */\n              add\n                /* \"#utility.yul\":6170:6233   */\n              tag_232\n              jump\t// in\n            tag_303:\n                /* \"#utility.yul\":6160:6233   */\n              swap10\n              pop\n                /* \"#utility.yul\":5955:6243   */\n              pop\n                /* \"#utility.yul\":6310:6312   */\n              0x60\n                /* \"#utility.yul\":6299:6308   */\n              dup13\n                /* \"#utility.yul\":6295:6313   */\n              add\n                /* \"#utility.yul\":6282:6314   */\n              calldataload\n                /* \"#utility.yul\":6341:6359   */\n              0xffffffffffffffff\n                /* \"#utility.yul\":6333:6339   */\n              dup2\n                /* \"#utility.yul\":6330:6360   */\n              gt\n                /* \"#utility.yul\":6327:6444   */\n              iszero\n              tag_304\n              jumpi\n                /* \"#utility.yul\":6363:6442   */\n              tag_305\n              tag_214\n              jump\t// in\n            tag_305:\n                /* \"#utility.yul\":6327:6444   */\n            tag_304:\n                /* \"#utility.yul\":6468:6531   */\n              tag_306\n                /* \"#utility.yul\":6523:6530   */\n              dup15\n                /* \"#utility.yul\":6514:6520   */\n              dup3\n                /* \"#utility.yul\":6503:6512   */\n              dup16\n                /* \"#utility.yul\":6499:6521   */\n              add\n                /* \"#utility.yul\":6468:6531   */\n              tag_232\n              jump\t// in\n            tag_306:\n                /* \"#utility.yul\":6458:6531   */\n              swap9\n              pop\n                /* \"#utility.yul\":6253:6541   */\n              pop\n                /* \"#utility.yul\":6608:6611   */\n              0x80\n                /* \"#utility.yul\":6597:6606   */\n              dup13\n                /* \"#utility.yul\":6593:6612   */\n              add\n                /* \"#utility.yul\":6580:6613   */\n              calldataload\n                /* \"#utility.yul\":6640:6658   */\n              0xffffffffffffffff\n                /* \"#utility.yul\":6632:6638   */\n              dup2\n                /* \"#utility.yul\":6629:6659   */\n              gt\n                /* \"#utility.yul\":6626:6743   */\n              iszero\n              tag_307\n              jumpi\n                /* \"#utility.yul\":6662:6741   */\n              tag_308\n              tag_214\n              jump\t// in\n            tag_308:\n                /* \"#utility.yul\":6626:6743   */\n            tag_307:\n                /* \"#utility.yul\":6767:6830   */\n              tag_309\n                /* \"#utility.yul\":6822:6829   */\n              dup15\n                /* \"#utility.yul\":6813:6819   */\n              dup3\n                /* \"#utility.yul\":6802:6811   */\n              dup16\n                /* \"#utility.yul\":6798:6820   */\n              add\n                /* \"#utility.yul\":6767:6830   */\n              tag_232\n              jump\t// in\n            tag_309:\n                /* \"#utility.yul\":6757:6830   */\n              swap8\n              pop\n                /* \"#utility.yul\":6551:6840   */\n              pop\n                /* \"#utility.yul\":6907:6910   */\n              0xa0\n                /* \"#utility.yul\":6896:6905   */\n              dup13\n                /* \"#utility.yul\":6892:6911   */\n              add\n                /* \"#utility.yul\":6879:6912   */\n              calldataload\n                /* \"#utility.yul\":6939:6957   */\n              0xffffffffffffffff\n                /* \"#utility.yul\":6931:6937   */\n              dup2\n                /* \"#utility.yul\":6928:6958   */\n              gt\n                /* \"#utility.yul\":6925:7042   */\n              iszero\n              tag_310\n              jumpi\n                /* \"#utility.yul\":6961:7040   */\n              tag_311\n              tag_214\n              jump\t// in\n            tag_311:\n                /* \"#utility.yul\":6925:7042   */\n            tag_310:\n                /* \"#utility.yul\":7066:7129   */\n              tag_312\n                /* \"#utility.yul\":7121:7128   */\n              dup15\n                /* \"#utility.yul\":7112:7118   */\n              dup3\n                /* \"#utility.yul\":7101:7110   */\n              dup16\n                /* \"#utility.yul\":7097:7119   */\n              add\n                /* \"#utility.yul\":7066:7129   */\n              tag_232\n              jump\t// in\n            tag_312:\n                /* \"#utility.yul\":7056:7129   */\n              swap7\n              pop\n                /* \"#utility.yul\":6850:7139   */\n              pop\n                /* \"#utility.yul\":7206:7209   */\n              0xc0\n                /* \"#utility.yul\":7195:7204   */\n              dup13\n                /* \"#utility.yul\":7191:7210   */\n              add\n                /* \"#utility.yul\":7178:7211   */\n              calldataload\n                /* \"#utility.yul\":7238:7256   */\n              0xffffffffffffffff\n                /* \"#utility.yul\":7230:7236   */\n              dup2\n                /* \"#utility.yul\":7227:7257   */\n              gt\n                /* \"#utility.yul\":7224:7341   */\n              iszero\n              tag_313\n              jumpi\n                /* \"#utility.yul\":7260:7339   */\n              tag_314\n              tag_214\n              jump\t// in\n            tag_314:\n                /* \"#utility.yul\":7224:7341   */\n            tag_313:\n                /* \"#utility.yul\":7365:7428   */\n              tag_315\n                /* \"#utility.yul\":7420:7427   */\n              dup15\n                /* \"#utility.yul\":7411:7417   */\n              dup3\n                /* \"#utility.yul\":7400:7409   */\n              dup16\n                /* \"#utility.yul\":7396:7418   */\n              add\n                /* \"#utility.yul\":7365:7428   */\n              tag_232\n              jump\t// in\n            tag_315:\n                /* \"#utility.yul\":7355:7428   */\n              swap6\n              pop\n                /* \"#utility.yul\":7149:7438   */\n              pop\n                /* \"#utility.yul\":7505:7508   */\n              0xe0\n                /* \"#utility.yul\":7494:7503   */\n              dup13\n                /* \"#utility.yul\":7490:7509   */\n              add\n                /* \"#utility.yul\":7477:7510   */\n              calldataload\n                /* \"#utility.yul\":7537:7555   */\n              0xffffffffffffffff\n                /* \"#utility.yul\":7529:7535   */\n              dup2\n                /* \"#utility.yul\":7526:7556   */\n              gt\n                /* \"#utility.yul\":7523:7640   */\n              iszero\n              tag_316\n              jumpi\n                /* \"#utility.yul\":7559:7638   */\n              tag_317\n              tag_214\n              jump\t// in\n            tag_317:\n                /* \"#utility.yul\":7523:7640   */\n            tag_316:\n                /* \"#utility.yul\":7664:7727   */\n              tag_318\n                /* \"#utility.yul\":7719:7726   */\n              dup15\n                /* \"#utility.yul\":7710:7716   */\n              dup3\n                /* \"#utility.yul\":7699:7708   */\n              dup16\n                /* \"#utility.yul\":7695:7717   */\n              add\n                /* \"#utility.yul\":7664:7727   */\n              tag_232\n              jump\t// in\n            tag_318:\n                /* \"#utility.yul\":7654:7727   */\n              swap5\n              pop\n                /* \"#utility.yul\":7448:7737   */\n              pop\n                /* \"#utility.yul\":7804:7807   */\n              0x0100\n                /* \"#utility.yul\":7793:7802   */\n              dup13\n                /* \"#utility.yul\":7789:7808   */\n              add\n                /* \"#utility.yul\":7776:7809   */\n              calldataload\n                /* \"#utility.yul\":7836:7854   */\n              0xffffffffffffffff\n                /* \"#utility.yul\":7828:7834   */\n              dup2\n                /* \"#utility.yul\":7825:7855   */\n              gt\n                /* \"#utility.yul\":7822:7939   */\n              iszero\n              tag_319\n              jumpi\n                /* \"#utility.yul\":7858:7937   */\n              tag_320\n              tag_214\n              jump\t// in\n            tag_320:\n                /* \"#utility.yul\":7822:7939   */\n            tag_319:\n                /* \"#utility.yul\":7963:8026   */\n              tag_321\n                /* \"#utility.yul\":8018:8025   */\n              dup15\n                /* \"#utility.yul\":8009:8015   */\n              dup3\n                /* \"#utility.yul\":7998:8007   */\n              dup16\n                /* \"#utility.yul\":7994:8016   */\n              add\n                /* \"#utility.yul\":7963:8026   */\n              tag_232\n              jump\t// in\n            tag_321:\n                /* \"#utility.yul\":7953:8026   */\n              swap4\n              pop\n                /* \"#utility.yul\":7747:8036   */\n              pop\n                /* \"#utility.yul\":8103:8106   */\n              0x0120\n                /* \"#utility.yul\":8092:8101   */\n              dup13\n                /* \"#utility.yul\":8088:8107   */\n              add\n                /* \"#utility.yul\":8075:8108   */\n              calldataload\n                /* \"#utility.yul\":8135:8153   */\n              0xffffffffffffffff\n                /* \"#utility.yul\":8127:8133   */\n              dup2\n                /* \"#utility.yul\":8124:8154   */\n              gt\n                /* \"#utility.yul\":8121:8238   */\n              iszero\n              tag_322\n              jumpi\n                /* \"#utility.yul\":8157:8236   */\n              tag_323\n              tag_214\n              jump\t// in\n            tag_323:\n                /* \"#utility.yul\":8121:8238   */\n            tag_322:\n                /* \"#utility.yul\":8262:8325   */\n              tag_324\n                /* \"#utility.yul\":8317:8324   */\n              dup15\n                /* \"#utility.yul\":8308:8314   */\n              dup3\n                /* \"#utility.yul\":8297:8306   */\n              dup16\n                /* \"#utility.yul\":8293:8315   */\n              add\n                /* \"#utility.yul\":8262:8325   */\n              tag_232\n              jump\t// in\n            tag_324:\n                /* \"#utility.yul\":8252:8325   */\n              swap3\n              pop\n                /* \"#utility.yul\":8046:8335   */\n              pop\n                /* \"#utility.yul\":8402:8405   */\n              0x0140\n                /* \"#utility.yul\":8391:8400   */\n              dup13\n                /* \"#utility.yul\":8387:8406   */\n              add\n                /* \"#utility.yul\":8374:8407   */\n              calldataload\n                /* \"#utility.yul\":8434:8452   */\n              0xffffffffffffffff\n                /* \"#utility.yul\":8426:8432   */\n              dup2\n                /* \"#utility.yul\":8423:8453   */\n              gt\n                /* \"#utility.yul\":8420:8537   */\n              iszero\n              tag_325\n              jumpi\n                /* \"#utility.yul\":8456:8535   */\n              tag_326\n              tag_214\n              jump\t// in\n            tag_326:\n                /* \"#utility.yul\":8420:8537   */\n            tag_325:\n                /* \"#utility.yul\":8562:8625   */\n              tag_327\n                /* \"#utility.yul\":8617:8624   */\n              dup15\n                /* \"#utility.yul\":8608:8614   */\n              dup3\n                /* \"#utility.yul\":8597:8606   */\n              dup16\n                /* \"#utility.yul\":8593:8615   */\n              add\n                /* \"#utility.yul\":8562:8625   */\n              tag_232\n              jump\t// in\n            tag_327:\n                /* \"#utility.yul\":8551:8625   */\n              swap2\n              pop\n                /* \"#utility.yul\":8345:8635   */\n              pop\n                /* \"#utility.yul\":4873:8642   */\n              swap3\n              swap6\n              swap9\n              swap12\n              pop\n              swap3\n              swap6\n              swap9\n              swap12\n              swap1\n              swap4\n              swap7\n              swap10\n              pop\n              jump\t// out\n                /* \"#utility.yul\":8648:8766   */\n            tag_233:\n                /* \"#utility.yul\":8735:8759   */\n              tag_329\n                /* \"#utility.yul\":8753:8758   */\n              dup2\n                /* \"#utility.yul\":8735:8759   */\n              tag_216\n              jump\t// in\n            tag_329:\n                /* \"#utility.yul\":8730:8733   */\n              dup3\n                /* \"#utility.yul\":8723:8760   */\n              mstore\n                /* \"#utility.yul\":8648:8766   */\n              pop\n              pop\n              jump\t// out\n                /* \"#utility.yul\":8772:8994   */\n            tag_31:\n                /* \"#utility.yul\":8865:8869   */\n              0x00\n                /* \"#utility.yul\":8903:8905   */\n              0x20\n                /* \"#utility.yul\":8892:8901   */\n              dup3\n                /* \"#utility.yul\":8888:8906   */\n              add\n                /* \"#utility.yul\":8880:8906   */\n              swap1\n              pop\n                /* \"#utility.yul\":8916:8987   */\n              tag_331\n                /* \"#utility.yul\":8984:8985   */\n              0x00\n                /* \"#utility.yul\":8973:8982   */\n              dup4\n                /* \"#utility.yul\":8969:8986   */\n              add\n                /* \"#utility.yul\":8960:8966   */\n              dup5\n                /* \"#utility.yul\":8916:8987   */\n              tag_233\n              jump\t// in\n            tag_331:\n                /* \"#utility.yul\":8772:8994   */\n              swap3\n              swap2\n              pop\n              pop\n              jump\t// out\n                /* \"#utility.yul\":9000:10927   */\n            tag_47:\n                /* \"#utility.yul\":9497:9501   */\n              0x00\n                /* \"#utility.yul\":9535:9538   */\n              0x0120\n                /* \"#utility.yul\":9524:9533   */\n              dup3\n                /* \"#utility.yul\":9520:9539   */\n              add\n                /* \"#utility.yul\":9512:9539   */\n              swap1\n              pop\n                /* \"#utility.yul\":9585:9594   */\n              dup2\n                /* \"#utility.yul\":9579:9583   */\n              dup2\n                /* \"#utility.yul\":9575:9595   */\n              sub\n                /* \"#utility.yul\":9571:9572   */\n              0x00\n                /* \"#utility.yul\":9560:9569   */\n              dup4\n                /* \"#utility.yul\":9556:9573   */\n              add\n                /* \"#utility.yul\":9549:9596   */\n              mstore\n                /* \"#utility.yul\":9613:9691   */\n              tag_333\n                /* \"#utility.yul\":9686:9690   */\n              dup2\n                /* \"#utility.yul\":9677:9683   */\n              dup13\n                /* \"#utility.yul\":9613:9691   */\n              tag_223\n              jump\t// in\n            tag_333:\n                /* \"#utility.yul\":9605:9691   */\n              swap1\n              pop\n                /* \"#utility.yul\":9738:9747   */\n              dup2\n                /* \"#utility.yul\":9732:9736   */\n              dup2\n                /* \"#utility.yul\":9728:9748   */\n              sub\n                /* \"#utility.yul\":9723:9725   */\n              0x20\n                /* \"#utility.yul\":9712:9721   */\n              dup4\n                /* \"#utility.yul\":9708:9726   */\n              add\n                /* \"#utility.yul\":9701:9749   */\n              mstore\n                /* \"#utility.yul\":9766:9844   */\n              tag_334\n                /* \"#utility.yul\":9839:9843   */\n              dup2\n                /* \"#utility.yul\":9830:9836   */\n              dup12\n                /* \"#utility.yul\":9766:9844   */\n              tag_223\n              jump\t// in\n            tag_334:\n                /* \"#utility.yul\":9758:9844   */\n              swap1\n              pop\n                /* \"#utility.yul\":9891:9900   */\n              dup2\n                /* \"#utility.yul\":9885:9889   */\n              dup2\n                /* \"#utility.yul\":9881:9901   */\n              sub\n                /* \"#utility.yul\":9876:9878   */\n              0x40\n                /* \"#utility.yul\":9865:9874   */\n              dup4\n                /* \"#utility.yul\":9861:9879   */\n              add\n                /* \"#utility.yul\":9854:9902   */\n              mstore\n                /* \"#utility.yul\":9919:9997   */\n              tag_335\n                /* \"#utility.yul\":9992:9996   */\n              dup2\n                /* \"#utility.yul\":9983:9989   */\n              dup11\n                /* \"#utility.yul\":9919:9997   */\n              tag_223\n              jump\t// in\n            tag_335:\n                /* \"#utility.yul\":9911:9997   */\n              swap1\n              pop\n                /* \"#utility.yul\":10044:10053   */\n              dup2\n                /* \"#utility.yul\":10038:10042   */\n              dup2\n                /* \"#utility.yul\":10034:10054   */\n              sub\n                /* \"#utility.yul\":10029:10031   */\n              0x60\n                /* \"#utility.yul\":10018:10027   */\n              dup4\n                /* \"#utility.yul\":10014:10032   */\n              add\n                /* \"#utility.yul\":10007:10055   */\n              mstore\n                /* \"#utility.yul\":10072:10150   */\n              tag_336\n                /* \"#utility.yul\":10145:10149   */\n              dup2\n                /* \"#utility.yul\":10136:10142   */\n              dup10\n                /* \"#utility.yul\":10072:10150   */\n              tag_223\n              jump\t// in\n            tag_336:\n                /* \"#utility.yul\":10064:10150   */\n              swap1\n              pop\n                /* \"#utility.yul\":10198:10207   */\n              dup2\n                /* \"#utility.yul\":10192:10196   */\n              dup2\n                /* \"#utility.yul\":10188:10208   */\n              sub\n                /* \"#utility.yul\":10182:10185   */\n              0x80\n                /* \"#utility.yul\":10171:10180   */\n              dup4\n                /* \"#utility.yul\":10167:10186   */\n              add\n                /* \"#utility.yul\":10160:10209   */\n              mstore\n                /* \"#utility.yul\":10226:10304   */\n              tag_337\n                /* \"#utility.yul\":10299:10303   */\n              dup2\n                /* \"#utility.yul\":10290:10296   */\n              dup9\n                /* \"#utility.yul\":10226:10304   */\n              tag_223\n              jump\t// in\n            tag_337:\n                /* \"#utility.yul\":10218:10304   */\n              swap1\n              pop\n                /* \"#utility.yul\":10352:10361   */\n              dup2\n                /* \"#utility.yul\":10346:10350   */\n              dup2\n                /* \"#utility.yul\":10342:10362   */\n              sub\n                /* \"#utility.yul\":10336:10339   */\n              0xa0\n                /* \"#utility.yul\":10325:10334   */\n              dup4\n                /* \"#utility.yul\":10321:10340   */\n              add\n                /* \"#utility.yul\":10314:10363   */\n              mstore\n                /* \"#utility.yul\":10380:10458   */\n              tag_338\n                /* \"#utility.yul\":10453:10457   */\n              dup2\n                /* \"#utility.yul\":10444:10450   */\n              dup8\n                /* \"#utility.yul\":10380:10458   */\n              tag_223\n              jump\t// in\n            tag_338:\n                /* \"#utility.yul\":10372:10458   */\n              swap1\n              pop\n                /* \"#utility.yul\":10506:10515   */\n              dup2\n                /* \"#utility.yul\":10500:10504   */\n              dup2\n                /* \"#utility.yul\":10496:10516   */\n              sub\n                /* \"#utility.yul\":10490:10493   */\n              0xc0\n                /* \"#utility.yul\":10479:10488   */\n              dup4\n                /* \"#utility.yul\":10475:10494   */\n              add\n                /* \"#utility.yul\":10468:10517   */\n              mstore\n                /* \"#utility.yul\":10534:10612   */\n              tag_339\n                /* \"#utility.yul\":10607:10611   */\n              dup2\n                /* \"#utility.yul\":10598:10604   */\n              dup7\n                /* \"#utility.yul\":10534:10612   */\n              tag_223\n              jump\t// in\n            tag_339:\n                /* \"#utility.yul\":10526:10612   */\n              swap1\n              pop\n                /* \"#utility.yul\":10660:10669   */\n              dup2\n                /* \"#utility.yul\":10654:10658   */\n              dup2\n                /* \"#utility.yul\":10650:10670   */\n              sub\n                /* \"#utility.yul\":10644:10647   */\n              0xe0\n                /* \"#utility.yul\":10633:10642   */\n              dup4\n                /* \"#utility.yul\":10629:10648   */\n              add\n                /* \"#utility.yul\":10622:10671   */\n              mstore\n                /* \"#utility.yul\":10688:10766   */\n              tag_340\n                /* \"#utility.yul\":10761:10765   */\n              dup2\n                /* \"#utility.yul\":10752:10758   */\n              dup6\n                /* \"#utility.yul\":10688:10766   */\n              tag_223\n              jump\t// in\n            tag_340:\n                /* \"#utility.yul\":10680:10766   */\n              swap1\n              pop\n                /* \"#utility.yul\":10814:10823   */\n              dup2\n                /* \"#utility.yul\":10808:10812   */\n              dup2\n                /* \"#utility.yul\":10804:10824   */\n              sub\n                /* \"#utility.yul\":10798:10801   */\n              0x0100\n                /* \"#utility.yul\":10787:10796   */\n              dup4\n                /* \"#utility.yul\":10783:10802   */\n              add\n                /* \"#utility.yul\":10776:10825   */\n              mstore\n                /* \"#utility.yul\":10842:10920   */\n              tag_341\n                /* \"#utility.yul\":10915:10919   */\n              dup2\n                /* \"#utility.yul\":10906:10912   */\n              dup5\n                /* \"#utility.yul\":10842:10920   */\n              tag_223\n              jump\t// in\n            tag_341:\n                /* \"#utility.yul\":10834:10920   */\n              swap1\n              pop\n                /* \"#utility.yul\":9000:10927   */\n              swap11\n              swap10\n              pop\n              pop\n              pop\n              pop\n              pop\n              pop\n              pop\n              pop\n              pop\n              pop\n              jump\t// out\n                /* \"#utility.yul\":10933:12456   */\n            tag_55:\n                /* \"#utility.yul\":11334:11338   */\n              0x00\n                /* \"#utility.yul\":11372:11375   */\n              0xe0\n                /* \"#utility.yul\":11361:11370   */\n              dup3\n                /* \"#utility.yul\":11357:11376   */\n              add\n                /* \"#utility.yul\":11349:11376   */\n              swap1\n              pop\n                /* \"#utility.yul\":11422:11431   */\n              dup2\n                /* \"#utility.yul\":11416:11420   */\n              dup2\n                /* \"#utility.yul\":11412:11432   */\n              sub\n                /* \"#utility.yul\":11408:11409   */\n              0x00\n                /* \"#utility.yul\":11397:11406   */\n              dup4\n                /* \"#utility.yul\":11393:11410   */\n              add\n                /* \"#utility.yul\":11386:11433   */\n              mstore\n                /* \"#utility.yul\":11450:11528   */\n              tag_343\n                /* \"#utility.yul\":11523:11527   */\n              dup2\n                /* \"#utility.yul\":11514:11520   */\n              dup11\n                /* \"#utility.yul\":11450:11528   */\n              tag_223\n              jump\t// in\n            tag_343:\n                /* \"#utility.yul\":11442:11528   */\n              swap1\n              pop\n                /* \"#utility.yul\":11575:11584   */\n              dup2\n                /* \"#utility.yul\":11569:11573   */\n              dup2\n                /* \"#utility.yul\":11565:11585   */\n              sub\n                /* \"#utility.yul\":11560:11562   */\n              0x20\n                /* \"#utility.yul\":11549:11558   */\n              dup4\n                /* \"#utility.yul\":11545:11563   */\n              add\n                /* \"#utility.yul\":11538:11586   */\n              mstore\n                /* \"#utility.yul\":11603:11681   */\n              tag_344\n                /* \"#utility.yul\":11676:11680   */\n              dup2\n                /* \"#utility.yul\":11667:11673   */\n              dup10\n                /* \"#utility.yul\":11603:11681   */\n              tag_223\n              jump\t// in\n            tag_344:\n                /* \"#utility.yul\":11595:11681   */\n              swap1\n              pop\n                /* \"#utility.yul\":11728:11737   */\n              dup2\n                /* \"#utility.yul\":11722:11726   */\n              dup2\n                /* \"#utility.yul\":11718:11738   */\n              sub\n                /* \"#utility.yul\":11713:11715   */\n              0x40\n                /* \"#utility.yul\":11702:11711   */\n              dup4\n                /* \"#utility.yul\":11698:11716   */\n              add\n                /* \"#utility.yul\":11691:11739   */\n              mstore\n                /* \"#utility.yul\":11756:11834   */\n              tag_345\n                /* \"#utility.yul\":11829:11833   */\n              dup2\n                /* \"#utility.yul\":11820:11826   */\n              dup9\n                /* \"#utility.yul\":11756:11834   */\n              tag_223\n              jump\t// in\n            tag_345:\n                /* \"#utility.yul\":11748:11834   */\n              swap1\n              pop\n                /* \"#utility.yul\":11881:11890   */\n              dup2\n                /* \"#utility.yul\":11875:11879   */\n              dup2\n                /* \"#utility.yul\":11871:11891   */\n              sub\n                /* \"#utility.yul\":11866:11868   */\n              0x60\n                /* \"#utility.yul\":11855:11864   */\n              dup4\n                /* \"#utility.yul\":11851:11869   */\n              add\n                /* \"#utility.yul\":11844:11892   */\n              mstore\n                /* \"#utility.yul\":11909:11987   */\n              tag_346\n                /* \"#utility.yul\":11982:11986   */\n              dup2\n                /* \"#utility.yul\":11973:11979   */\n              dup8\n                /* \"#utility.yul\":11909:11987   */\n              tag_223\n              jump\t// in\n            tag_346:\n                /* \"#utility.yul\":11901:11987   */\n              swap1\n              pop\n                /* \"#utility.yul\":12035:12044   */\n              dup2\n                /* \"#utility.yul\":12029:12033   */\n              dup2\n                /* \"#utility.yul\":12025:12045   */\n              sub\n                /* \"#utility.yul\":12019:12022   */\n              0x80\n                /* \"#utility.yul\":12008:12017   */\n              dup4\n                /* \"#utility.yul\":12004:12023   */\n              add\n                /* \"#utility.yul\":11997:12046   */\n              mstore\n                /* \"#utility.yul\":12063:12141   */\n              tag_347\n                /* \"#utility.yul\":12136:12140   */\n              dup2\n                /* \"#utility.yul\":12127:12133   */\n              dup7\n                /* \"#utility.yul\":12063:12141   */\n              tag_223\n              jump\t// in\n            tag_347:\n                /* \"#utility.yul\":12055:12141   */\n              swap1\n              pop\n                /* \"#utility.yul\":12189:12198   */\n              dup2\n                /* \"#utility.yul\":12183:12187   */\n              dup2\n                /* \"#utility.yul\":12179:12199   */\n              sub\n                /* \"#utility.yul\":12173:12176   */\n              0xa0\n                /* \"#utility.yul\":12162:12171   */\n              dup4\n                /* \"#utility.yul\":12158:12177   */\n              add\n                /* \"#utility.yul\":12151:12200   */\n              mstore\n                /* \"#utility.yul\":12217:12295   */\n              tag_348\n                /* \"#utility.yul\":12290:12294   */\n              dup2\n                /* \"#utility.yul\":12281:12287   */\n              dup6\n                /* \"#utility.yul\":12217:12295   */\n              tag_223\n              jump\t// in\n            tag_348:\n                /* \"#utility.yul\":12209:12295   */\n              swap1\n              pop\n                /* \"#utility.yul\":12343:12352   */\n              dup2\n                /* \"#utility.yul\":12337:12341   */\n              dup2\n                /* \"#utility.yul\":12333:12353   */\n              sub\n                /* \"#utility.yul\":12327:12330   */\n              0xc0\n                /* \"#utility.yul\":12316:12325   */\n              dup4\n                /* \"#utility.yul\":12312:12331   */\n              add\n                /* \"#utility.yul\":12305:12354   */\n              mstore\n                /* \"#utility.yul\":12371:12449   */\n              tag_349\n                /* \"#utility.yul\":12444:12448   */\n              dup2\n                /* \"#utility.yul\":12435:12441   */\n              dup5\n                /* \"#utility.yul\":12371:12449   */\n              tag_223\n              jump\t// in\n            tag_349:\n                /* \"#utility.yul\":12363:12449   */\n              swap1\n              pop\n                /* \"#utility.yul\":10933:12456   */\n              swap9\n              swap8\n              pop\n              pop\n              pop\n              pop\n              pop\n              pop\n              pop\n              pop\n              jump\t// out\n                /* \"#utility.yul\":12462:12642   */\n            tag_234:\n                /* \"#utility.yul\":12510:12587   */\n              0x4e487b7100000000000000000000000000000000000000000000000000000000\n                /* \"#utility.yul\":12507:12508   */\n              0x00\n                /* \"#utility.yul\":12500:12588   */\n              mstore\n                /* \"#utility.yul\":12607:12611   */\n              0x22\n                /* \"#utility.yul\":12604:12605   */\n              0x04\n                /* \"#utility.yul\":12597:12612   */\n              mstore\n                /* \"#utility.yul\":12631:12635   */\n              0x24\n                /* \"#utility.yul\":12628:12629   */\n              0x00\n                /* \"#utility.yul\":12621:12636   */\n              revert\n                /* \"#utility.yul\":12648:12968   */\n            tag_65:\n                /* \"#utility.yul\":12692:12698   */\n              0x00\n                /* \"#utility.yul\":12729:12730   */\n              0x02\n                /* \"#utility.yul\":12723:12727   */\n              dup3\n                /* \"#utility.yul\":12719:12731   */\n              div\n                /* \"#utility.yul\":12709:12731   */\n              swap1\n              pop\n                /* \"#utility.yul\":12776:12777   */\n              0x01\n                /* \"#utility.yul\":12770:12774   */\n              dup3\n                /* \"#utility.yul\":12766:12778   */\n              and\n                /* \"#utility.yul\":12797:12815   */\n              dup1\n                /* \"#utility.yul\":12787:12868   */\n              tag_352\n              jumpi\n                /* \"#utility.yul\":12853:12857   */\n              0x7f\n                /* \"#utility.yul\":12845:12851   */\n              dup3\n                /* \"#utility.yul\":12841:12858   */\n              and\n                /* \"#utility.yul\":12831:12858   */\n              swap2\n              pop\n                /* \"#utility.yul\":12787:12868   */\n            tag_352:\n                /* \"#utility.yul\":12915:12917   */\n              0x20\n                /* \"#utility.yul\":12907:12913   */\n              dup3\n                /* \"#utility.yul\":12904:12918   */\n              lt\n                /* \"#utility.yul\":12884:12902   */\n              dup2\n                /* \"#utility.yul\":12881:12919   */\n              eq\n                /* \"#utility.yul\":12878:12962   */\n              iszero\n              tag_353\n              jumpi\n                /* \"#utility.yul\":12934:12952   */\n              tag_354\n              tag_234\n              jump\t// in\n            tag_354:\n                /* \"#utility.yul\":12878:12962   */\n            tag_353:\n                /* \"#utility.yul\":12699:12968   */\n              pop\n                /* \"#utility.yul\":12648:12968   */\n              swap2\n              swap1\n              pop\n              jump\t// out\n\n            auxdata: 0xa2646970667358221220130e0f0ced1b76bddfa81a0996ff099b8d1ea3c3e9a24ed22a5cd14ae18d848b64736f6c634300080b0033\n        }\n    }\n\n    auxdata: 0xa2646970667358221220d48bc04c6e43d63c660c77e8139753185d5dbb19f8a4e5b5631ac4423be194dc64736f6c634300080b0033\n}\n","bytecode":{"linkReferences":{},"object":"608060405234801561001057600080fd5b50613265806100206000396000f3fe608060405234801561001057600080fd5b506004361061007d5760003560e01c80637e3c01d71161005b5780637e3c01d714610114578063826c4ae6146101445780638379ec2f1461014e578063b6cbab371461016c5761007d565b806307f9d06d1461008257806335a6861a146100b457806373338081146100e4575b600080fd5b61009c60048036038101906100979190610826565b610188565b6040516100ab939291906108cd565b60405180910390f35b6100ce60048036038101906100c99190610826565b6102f6565b6040516100db9190610904565b60405180910390f35b6100fe60048036038101906100f99190610955565b6103bb565b60405161010b9190610991565b60405180910390f35b61012e60048036038101906101299190610955565b6103fa565b60405161013b9190610904565b60405180910390f35b61014c610439565b005b610156610671565b6040516101639190610a6a565b60405180910390f35b61018660048036038101906101819190610826565b6106ff565b005b6000806000600260008573ffffffffffffffffffffffffffffffffffffffff1673ffffffffffffffffffffffffffffffffffffffff16815260200190815260200160002060000160149054906101000a900460ff166101e657600080fd5b600260008573ffffffffffffffffffffffffffffffffffffffff1673ffffffffffffffffffffffffffffffffffffffff16815260200190815260200160002060000160009054906101000a900473ffffffffffffffffffffffffffffffffffffffff16600260008673ffffffffffffffffffffffffffffffffffffffff1673ffffffffffffffffffffffffffffffffffffffff16815260200190815260200160002060000160149054906101000a900460ff16600260008773ffffffffffffffffffffffffffffffffffffffff1673ffffffffffffffffffffffffffffffffffffffff16815260200190815260200160002060000160159054906101000a900460ff169250925092509193909250565b6000600260008373ffffffffffffffffffffffffffffffffffffffff1673ffffffffffffffffffffffffffffffffffffffff16815260200190815260200160002060000160149054906101000a900460ff1661035157600080fd5b600260008373ffffffffffffffffffffffffffffffffffffffff1673ffffffffffffffffffffffffffffffffffffffff16815260200190815260200160002060000160009054906101000a900473ffffffffffffffffffffffffffffffffffffffff169050919050565b600181815481106103cb57600080fd5b906000526020600020016000915054906101000a900473ffffffffffffffffffffffffffffffffffffffff1681565b6000818154811061040a57600080fd5b906000526020600020016000915054906101000a900473ffffffffffffffffffffffffffffffffffffffff1681565b600033604051610448906107b6565b6104529190610991565b604051809103906000f08015801561046e573d6000803e3d6000fd5b50905080600260003373ffffffffffffffffffffffffffffffffffffffff1673ffffffffffffffffffffffffffffffffffffffff16815260200190815260200160002060000160006101000a81548173ffffffffffffffffffffffffffffffffffffffff021916908373ffffffffffffffffffffffffffffffffffffffff1602179055506001600260003373ffffffffffffffffffffffffffffffffffffffff1673ffffffffffffffffffffffffffffffffffffffff16815260200190815260200160002060000160146101000a81548160ff0219169083151502179055506000600260003373ffffffffffffffffffffffffffffffffffffffff1673ffffffffffffffffffffffffffffffffffffffff16815260200190815260200160002060000160156101000a81548160ff0219169083151502179055506001339080600181540180825580915050600190039060005260206000200160009091909190916101000a81548173ffffffffffffffffffffffffffffffffffffffff021916908373ffffffffffffffffffffffffffffffffffffffff1602179055506000819080600181540180825580915050600190039060005260206000200160009091909190916101000a81548173ffffffffffffffffffffffffffffffffffffffff021916908373ffffffffffffffffffffffffffffffffffffffff16021790555050565b606060008054806020026020016040519081016040528092919081815260200182805480156106f557602002820191906000526020600020905b8160009054906101000a900473ffffffffffffffffffffffffffffffffffffffff1673ffffffffffffffffffffffffffffffffffffffff16815260200190600101908083116106ab575b5050505050905090565b600260008273ffffffffffffffffffffffffffffffffffffffff1673ffffffffffffffffffffffffffffffffffffffff16815260200190815260200160002060000160149054906101000a900460ff1661075857600080fd5b6001600260008373ffffffffffffffffffffffffffffffffffffffff1673ffffffffffffffffffffffffffffffffffffffff16815260200190815260200160002060000160156101000a81548160ff02191690831515021790555050565b6127a380610a8d83390190565b600080fd5b600073ffffffffffffffffffffffffffffffffffffffff82169050919050565b60006107f3826107c8565b9050919050565b610803816107e8565b811461080e57600080fd5b50565b600081359050610820816107fa565b92915050565b60006020828403121561083c5761083b6107c3565b5b600061084a84828501610811565b91505092915050565b6000819050919050565b600061087861087361086e846107c8565b610853565b6107c8565b9050919050565b600061088a8261085d565b9050919050565b600061089c8261087f565b9050919050565b6108ac81610891565b82525050565b60008115159050919050565b6108c7816108b2565b82525050565b60006060820190506108e260008301866108a3565b6108ef60208301856108be565b6108fc60408301846108be565b949350505050565b600060208201905061091960008301846108a3565b92915050565b6000819050919050565b6109328161091f565b811461093d57600080fd5b50565b60008135905061094f81610929565b92915050565b60006020828403121561096b5761096a6107c3565b5b600061097984828501610940565b91505092915050565b61098b816107e8565b82525050565b60006020820190506109a66000830184610982565b92915050565b600081519050919050565b600082825260208201905092915050565b6000819050602082019050919050565b6109e181610891565b82525050565b60006109f383836109d8565b60208301905092915050565b6000602082019050919050565b6000610a17826109ac565b610a2181856109b7565b9350610a2c836109c8565b8060005b83811015610a5d578151610a4488826109e7565b9750610a4f836109ff565b925050600181019050610a30565b5085935050505092915050565b60006020820190508181036000830152610a848184610a0c565b90509291505056fe60806040523480156200001157600080fd5b50604051620027a3380380620027a38339818101604052810190620000379190620000e9565b80600260006101000a81548173ffffffffffffffffffffffffffffffffffffffff021916908373ffffffffffffffffffffffffffffffffffffffff160217905550506200011b565b600080fd5b600073ffffffffffffffffffffffffffffffffffffffff82169050919050565b6000620000b18262000084565b9050919050565b620000c381620000a4565b8114620000cf57600080fd5b50565b600081519050620000e381620000b8565b92915050565b6000602082840312156200010257620001016200007f565b5b60006200011284828501620000d2565b91505092915050565b612678806200012b6000396000f3fe608060405234801561001057600080fd5b50600436106100a95760003560e01c8063787fd70311610071578063787fd70314610166578063adb4d99014610197578063cc3d967b146101b5578063ea00962f146101ed578063ede3a6701461020b578063f203c19d14610241576100a9565b8063061dff9a146100ae578063091bac16146100ca578063311cc831146100fb578063481c6a7514610117578063509fda0e14610135575b600080fd5b6100c860048036038101906100c39190611ff1565b61025f565b005b6100e460048036038101906100df9190611ff1565b6102fd565b6040516100f29291906120b7565b60405180910390f35b61011560048036038101906101109190612223565b610558565b005b61011f610a76565b60405161012c919061245a565b60405180910390f35b61014f600480360381019061014a9190611ff1565b610a9c565b60405161015d9291906120b7565b60405180910390f35b610180600480360381019061017b9190611ff1565b610cf7565b60405161018e9291906120b7565b60405180910390f35b61019f610ef9565b6040516101ac919061245a565b60405180910390f35b6101cf60048036038101906101ca9190611ff1565b610f1f565b6040516101e499989796959493929190612475565b60405180910390f35b6101f5611816565b604051610202919061245a565b60405180910390f35b61022560048036038101906102209190611ff1565b61183f565b6040516102389796959493929190612541565b60405180910390f35b610249611eb8565b604051610256919061245a565b60405180910390f35b600260009054906101000a900473ffffffffffffffffffffffffffffffffffffffff1673ffffffffffffffffffffffffffffffffffffffff163373ffffffffffffffffffffffffffffffffffffffff16146102b957600080fd5b80600360006101000a81548173ffffffffffffffffffffffffffffffffffffffff021916908373ffffffffffffffffffffffffffffffffffffffff16021790555050565b606080600160008473ffffffffffffffffffffffffffffffffffffffff1673ffffffffffffffffffffffffffffffffffffffff16815260200190815260200160002060090160009054906101000a900460ff1661035957600080fd5b600260009054906101000a900473ffffffffffffffffffffffffffffffffffffffff1673ffffffffffffffffffffffffffffffffffffffff168373ffffffffffffffffffffffffffffffffffffffff16146103b357600080fd5b600160008473ffffffffffffffffffffffffffffffffffffffff1673ffffffffffffffffffffffffffffffffffffffff168152602001908152602001600020600701600160008573ffffffffffffffffffffffffffffffffffffffff1673ffffffffffffffffffffffffffffffffffffffff16815260200190815260200160002060080181805461044390612610565b80601f016020809104026020016040519081016040528092919081815260200182805461046f90612610565b80156104bc5780601f10610491576101008083540402835291602001916104bc565b820191906000526020600020905b81548152906001019060200180831161049f57829003601f168201915b505050505091508080546104cf90612610565b80601f01602080910402602001604051908101604052809291908181526020018280546104fb90612610565b80156105485780601f1061051d57610100808354040283529160200191610548565b820191906000526020600020905b81548152906001019060200180831161052b57829003601f168201915b5050505050905091509150915091565b600260009054906101000a900473ffffffffffffffffffffffffffffffffffffffff1673ffffffffffffffffffffffffffffffffffffffff163373ffffffffffffffffffffffffffffffffffffffff16146105b257600080fd5b6000339050600160008273ffffffffffffffffffffffffffffffffffffffff1673ffffffffffffffffffffffffffffffffffffffff16815260200190815260200160002060090160009054906101000a900460ff161561061157600080fd5b806000806101000a81548173ffffffffffffffffffffffffffffffffffffffff021916908373ffffffffffffffffffffffffffffffffffffffff1602179055508b600160008373ffffffffffffffffffffffffffffffffffffffff1673ffffffffffffffffffffffffffffffffffffffff16815260200190815260200160002060000190805190602001906106a7929190611edc565b508a600160008373ffffffffffffffffffffffffffffffffffffffff1673ffffffffffffffffffffffffffffffffffffffff16815260200190815260200160002060010190805190602001906106fe929190611edc565b5089600160008373ffffffffffffffffffffffffffffffffffffffff1673ffffffffffffffffffffffffffffffffffffffff1681526020019081526020016000206002019080519060200190610755929190611edc565b5088600160008373ffffffffffffffffffffffffffffffffffffffff1673ffffffffffffffffffffffffffffffffffffffff16815260200190815260200160002060030190805190602001906107ac929190611edc565b5087600160008373ffffffffffffffffffffffffffffffffffffffff1673ffffffffffffffffffffffffffffffffffffffff1681526020019081526020016000206004019080519060200190610803929190611edc565b5086600160008373ffffffffffffffffffffffffffffffffffffffff1673ffffffffffffffffffffffffffffffffffffffff168152602001908152602001600020600501908051906020019061085a929190611edc565b5085600160008373ffffffffffffffffffffffffffffffffffffffff1673ffffffffffffffffffffffffffffffffffffffff16815260200190815260200160002060060190805190602001906108b1929190611edc565b5084600160008373ffffffffffffffffffffffffffffffffffffffff1673ffffffffffffffffffffffffffffffffffffffff1681526020019081526020016000206007019080519060200190610908929190611edc565b5083600160008373ffffffffffffffffffffffffffffffffffffffff1673ffffffffffffffffffffffffffffffffffffffff168152602001908152602001600020600801908051906020019061095f929190611edc565b5082600160008373ffffffffffffffffffffffffffffffffffffffff1673ffffffffffffffffffffffffffffffffffffffff168152602001908152602001600020600a0190805190602001906109b6929190611edc565b5081600160008373ffffffffffffffffffffffffffffffffffffffff1673ffffffffffffffffffffffffffffffffffffffff168152602001908152602001600020600b019080519060200190610a0d929190611edc565b5060018060008373ffffffffffffffffffffffffffffffffffffffff1673ffffffffffffffffffffffffffffffffffffffff16815260200190815260200160002060090160006101000a81548160ff021916908315150217905550505050505050505050505050565b600260009054906101000a900473ffffffffffffffffffffffffffffffffffffffff1681565b606080600160008473ffffffffffffffffffffffffffffffffffffffff1673ffffffffffffffffffffffffffffffffffffffff16815260200190815260200160002060090160009054906101000a900460ff16610af857600080fd5b600260009054906101000a900473ffffffffffffffffffffffffffffffffffffffff1673ffffffffffffffffffffffffffffffffffffffff168373ffffffffffffffffffffffffffffffffffffffff1614610b5257600080fd5b600160008473ffffffffffffffffffffffffffffffffffffffff1673ffffffffffffffffffffffffffffffffffffffff168152602001908152602001600020600a01600160008573ffffffffffffffffffffffffffffffffffffffff1673ffffffffffffffffffffffffffffffffffffffff168152602001908152602001600020600b01818054610be290612610565b80601f0160208091040260200160405190810160405280929190818152602001828054610c0e90612610565b8015610c5b5780601f10610c3057610100808354040283529160200191610c5b565b820191906000526020600020905b815481529060010190602001808311610c3e57829003601f168201915b50505050509150808054610c6e90612610565b80601f0160208091040260200160405190810160405280929190818152602001828054610c9a90612610565b8015610ce75780601f10610cbc57610100808354040283529160200191610ce7565b820191906000526020600020905b815481529060010190602001808311610cca57829003601f168201915b5050505050905091509150915091565b6060808273ffffffffffffffffffffffffffffffffffffffff16600360009054906101000a900473ffffffffffffffffffffffffffffffffffffffff1673ffffffffffffffffffffffffffffffffffffffff1614610d5457600080fd5b600160008473ffffffffffffffffffffffffffffffffffffffff1673ffffffffffffffffffffffffffffffffffffffff168152602001908152602001600020600a01600160008573ffffffffffffffffffffffffffffffffffffffff1673ffffffffffffffffffffffffffffffffffffffff168152602001908152602001600020600b01818054610de490612610565b80601f0160208091040260200160405190810160405280929190818152602001828054610e1090612610565b8015610e5d5780601f10610e3257610100808354040283529160200191610e5d565b820191906000526020600020905b815481529060010190602001808311610e4057829003601f168201915b50505050509150808054610e7090612610565b80601f0160208091040260200160405190810160405280929190818152602001828054610e9c90612610565b8015610ee95780601f10610ebe57610100808354040283529160200191610ee9565b820191906000526020600020905b815481529060010190602001808311610ecc57829003601f168201915b5050505050905091509150915091565b600360009054906101000a900473ffffffffffffffffffffffffffffffffffffffff1681565b60608060608060608060608060608973ffffffffffffffffffffffffffffffffffffffff16600360009054906101000a900473ffffffffffffffffffffffffffffffffffffffff1673ffffffffffffffffffffffffffffffffffffffff1614610f8757600080fd5b60016000600260009054906101000a900473ffffffffffffffffffffffffffffffffffffffff1673ffffffffffffffffffffffffffffffffffffffff1673ffffffffffffffffffffffffffffffffffffffff16815260200190815260200160002060000160016000600260009054906101000a900473ffffffffffffffffffffffffffffffffffffffff1673ffffffffffffffffffffffffffffffffffffffff1673ffffffffffffffffffffffffffffffffffffffff16815260200190815260200160002060010160016000600260009054906101000a900473ffffffffffffffffffffffffffffffffffffffff1673ffffffffffffffffffffffffffffffffffffffff1673ffffffffffffffffffffffffffffffffffffffff16815260200190815260200160002060020160016000600260009054906101000a900473ffffffffffffffffffffffffffffffffffffffff1673ffffffffffffffffffffffffffffffffffffffff1673ffffffffffffffffffffffffffffffffffffffff16815260200190815260200160002060030160016000600260009054906101000a900473ffffffffffffffffffffffffffffffffffffffff1673ffffffffffffffffffffffffffffffffffffffff1673ffffffffffffffffffffffffffffffffffffffff16815260200190815260200160002060040160016000600260009054906101000a900473ffffffffffffffffffffffffffffffffffffffff1673ffffffffffffffffffffffffffffffffffffffff1673ffffffffffffffffffffffffffffffffffffffff16815260200190815260200160002060050160016000600260009054906101000a900473ffffffffffffffffffffffffffffffffffffffff1673ffffffffffffffffffffffffffffffffffffffff1673ffffffffffffffffffffffffffffffffffffffff16815260200190815260200160002060060160016000600260009054906101000a900473ffffffffffffffffffffffffffffffffffffffff1673ffffffffffffffffffffffffffffffffffffffff1673ffffffffffffffffffffffffffffffffffffffff16815260200190815260200160002060070160016000600260009054906101000a900473ffffffffffffffffffffffffffffffffffffffff1673ffffffffffffffffffffffffffffffffffffffff1673ffffffffffffffffffffffffffffffffffffffff16815260200190815260200160002060080188805461131790612610565b80601f016020809104026020016040519081016040528092919081815260200182805461134390612610565b80156113905780601f1061136557610100808354040283529160200191611390565b820191906000526020600020905b81548152906001019060200180831161137357829003601f168201915b505050505098508780546113a390612610565b80601f01602080910402602001604051908101604052809291908181526020018280546113cf90612610565b801561141c5780601f106113f15761010080835404028352916020019161141c565b820191906000526020600020905b8154815290600101906020018083116113ff57829003601f168201915b5050505050975086805461142f90612610565b80601f016020809104026020016040519081016040528092919081815260200182805461145b90612610565b80156114a85780601f1061147d576101008083540402835291602001916114a8565b820191906000526020600020905b81548152906001019060200180831161148b57829003601f168201915b505050505096508580546114bb90612610565b80601f01602080910402602001604051908101604052809291908181526020018280546114e790612610565b80156115345780601f1061150957610100808354040283529160200191611534565b820191906000526020600020905b81548152906001019060200180831161151757829003601f168201915b5050505050955084805461154790612610565b80601f016020809104026020016040519081016040528092919081815260200182805461157390612610565b80156115c05780601f10611595576101008083540402835291602001916115c0565b820191906000526020600020905b8154815290600101906020018083116115a357829003601f168201915b505050505094508380546115d390612610565b80601f01602080910402602001604051908101604052809291908181526020018280546115ff90612610565b801561164c5780601f106116215761010080835404028352916020019161164c565b820191906000526020600020905b81548152906001019060200180831161162f57829003601f168201915b5050505050935082805461165f90612610565b80601f016020809104026020016040519081016040528092919081815260200182805461168b90612610565b80156116d85780601f106116ad576101008083540402835291602001916116d8565b820191906000526020600020905b8154815290600101906020018083116116bb57829003601f168201915b505050505092508180546116eb90612610565b80601f016020809104026020016040519081016040528092919081815260200182805461171790612610565b80156117645780601f1061173957610100808354040283529160200191611764565b820191906000526020600020905b81548152906001019060200180831161174757829003601f168201915b5050505050915080805461177790612610565b80601f01602080910402602001604051908101604052809291908181526020018280546117a390612610565b80156117f05780601f106117c5576101008083540402835291602001916117f0565b820191906000526020600020905b8154815290600101906020018083116117d357829003601f168201915b505050505090509850985098509850985098509850985098509193959799909294969850565b60008060009054906101000a900473ffffffffffffffffffffffffffffffffffffffff16905090565b6060806060806060806060600160008973ffffffffffffffffffffffffffffffffffffffff1673ffffffffffffffffffffffffffffffffffffffff16815260200190815260200160002060090160009054906101000a900460ff166118a357600080fd5b600260009054906101000a900473ffffffffffffffffffffffffffffffffffffffff1673ffffffffffffffffffffffffffffffffffffffff168873ffffffffffffffffffffffffffffffffffffffff16146118fd57600080fd5b600160008973ffffffffffffffffffffffffffffffffffffffff1673ffffffffffffffffffffffffffffffffffffffff168152602001908152602001600020600001600160008a73ffffffffffffffffffffffffffffffffffffffff1673ffffffffffffffffffffffffffffffffffffffff168152602001908152602001600020600101600160008b73ffffffffffffffffffffffffffffffffffffffff1673ffffffffffffffffffffffffffffffffffffffff168152602001908152602001600020600201600160008c73ffffffffffffffffffffffffffffffffffffffff1673ffffffffffffffffffffffffffffffffffffffff168152602001908152602001600020600301600160008d73ffffffffffffffffffffffffffffffffffffffff1673ffffffffffffffffffffffffffffffffffffffff168152602001908152602001600020600401600160008e73ffffffffffffffffffffffffffffffffffffffff1673ffffffffffffffffffffffffffffffffffffffff168152602001908152602001600020600501600160008f73ffffffffffffffffffffffffffffffffffffffff1673ffffffffffffffffffffffffffffffffffffffff168152602001908152602001600020600601868054611ad790612610565b80601f0160208091040260200160405190810160405280929190818152602001828054611b0390612610565b8015611b505780601f10611b2557610100808354040283529160200191611b50565b820191906000526020600020905b815481529060010190602001808311611b3357829003601f168201915b50505050509650858054611b6390612610565b80601f0160208091040260200160405190810160405280929190818152602001828054611b8f90612610565b8015611bdc5780601f10611bb157610100808354040283529160200191611bdc565b820191906000526020600020905b815481529060010190602001808311611bbf57829003601f168201915b50505050509550848054611bef90612610565b80601f0160208091040260200160405190810160405280929190818152602001828054611c1b90612610565b8015611c685780601f10611c3d57610100808354040283529160200191611c68565b820191906000526020600020905b815481529060010190602001808311611c4b57829003601f168201915b50505050509450838054611c7b90612610565b80601f0160208091040260200160405190810160405280929190818152602001828054611ca790612610565b8015611cf45780601f10611cc957610100808354040283529160200191611cf4565b820191906000526020600020905b815481529060010190602001808311611cd757829003601f168201915b50505050509350828054611d0790612610565b80601f0160208091040260200160405190810160405280929190818152602001828054611d3390612610565b8015611d805780601f10611d5557610100808354040283529160200191611d80565b820191906000526020600020905b815481529060010190602001808311611d6357829003601f168201915b50505050509250818054611d9390612610565b80601f0160208091040260200160405190810160405280929190818152602001828054611dbf90612610565b8015611e0c5780601f10611de157610100808354040283529160200191611e0c565b820191906000526020600020905b815481529060010190602001808311611def57829003601f168201915b50505050509150808054611e1f90612610565b80601f0160208091040260200160405190810160405280929190818152602001828054611e4b90612610565b8015611e985780601f10611e6d57610100808354040283529160200191611e98565b820191906000526020600020905b815481529060010190602001808311611e7b57829003601f168201915b505050505090509650965096509650965096509650919395979092949650565b60008054906101000a900473ffffffffffffffffffffffffffffffffffffffff1681565b828054611ee890612610565b90600052602060002090601f016020900481019282611f0a5760008555611f51565b82601f10611f2357805160ff1916838001178555611f51565b82800160010185558215611f51579182015b82811115611f50578251825591602001919060010190611f35565b5b509050611f5e9190611f62565b5090565b5b80821115611f7b576000816000905550600101611f63565b5090565b6000604051905090565b600080fd5b600080fd5b600073ffffffffffffffffffffffffffffffffffffffff82169050919050565b6000611fbe82611f93565b9050919050565b611fce81611fb3565b8114611fd957600080fd5b50565b600081359050611feb81611fc5565b92915050565b60006020828403121561200757612006611f89565b5b600061201584828501611fdc565b91505092915050565b600081519050919050565b600082825260208201905092915050565b60005b8381101561205857808201518184015260208101905061203d565b83811115612067576000848401525b50505050565b6000601f19601f8301169050919050565b60006120898261201e565b6120938185612029565b93506120a381856020860161203a565b6120ac8161206d565b840191505092915050565b600060408201905081810360008301526120d1818561207e565b905081810360208301526120e5818461207e565b90509392505050565b600080fd5b600080fd5b7f4e487b7100000000000000000000000000000000000000000000000000000000600052604160045260246000fd5b6121308261206d565b810181811067ffffffffffffffff8211171561214f5761214e6120f8565b5b80604052505050565b6000612162611f7f565b905061216e8282612127565b919050565b600067ffffffffffffffff82111561218e5761218d6120f8565b5b6121978261206d565b9050602081019050919050565b82818337600083830152505050565b60006121c66121c184612173565b612158565b9050828152602081018484840111156121e2576121e16120f3565b5b6121ed8482856121a4565b509392505050565b600082601f83011261220a576122096120ee565b5b813561221a8482602086016121b3565b91505092915050565b60008060008060008060008060008060006101608c8e03121561224957612248611f89565b5b60008c013567ffffffffffffffff81111561226757612266611f8e565b5b6122738e828f016121f5565b9b505060208c013567ffffffffffffffff81111561229457612293611f8e565b5b6122a08e828f016121f5565b9a505060408c013567ffffffffffffffff8111156122c1576122c0611f8e565b5b6122cd8e828f016121f5565b99505060608c013567ffffffffffffffff8111156122ee576122ed611f8e565b5b6122fa8e828f016121f5565b98505060808c013567ffffffffffffffff81111561231b5761231a611f8e565b5b6123278e828f016121f5565b97505060a08c013567ffffffffffffffff81111561234857612347611f8e565b5b6123548e828f016121f5565b96505060c08c013567ffffffffffffffff81111561237557612374611f8e565b5b6123818e828f016121f5565b95505060e08c013567ffffffffffffffff8111156123a2576123a1611f8e565b5b6123ae8e828f016121f5565b9450506101008c013567ffffffffffffffff8111156123d0576123cf611f8e565b5b6123dc8e828f016121f5565b9350506101208c013567ffffffffffffffff8111156123fe576123fd611f8e565b5b61240a8e828f016121f5565b9250506101408c013567ffffffffffffffff81111561242c5761242b611f8e565b5b6124388e828f016121f5565b9150509295989b509295989b9093969950565b61245481611fb3565b82525050565b600060208201905061246f600083018461244b565b92915050565b6000610120820190508181036000830152612490818c61207e565b905081810360208301526124a4818b61207e565b905081810360408301526124b8818a61207e565b905081810360608301526124cc818961207e565b905081810360808301526124e0818861207e565b905081810360a08301526124f4818761207e565b905081810360c0830152612508818661207e565b905081810360e083015261251c818561207e565b9050818103610100830152612531818461207e565b90509a9950505050505050505050565b600060e082019050818103600083015261255b818a61207e565b9050818103602083015261256f818961207e565b90508181036040830152612583818861207e565b90508181036060830152612597818761207e565b905081810360808301526125ab818661207e565b905081810360a08301526125bf818561207e565b905081810360c08301526125d3818461207e565b905098975050505050505050565b7f4e487b7100000000000000000000000000000000000000000000000000000000600052602260045260246000fd5b6000600282049050600182168061262857607f821691505b6020821081141561263c5761263b6125e1565b5b5091905056fea2646970667358221220130e0f0ced1b76bddfa81a0996ff099b8d1ea3c3e9a24ed22a5cd14ae18d848b64736f6c634300080b0033a2646970667358221220d48bc04c6e43d63c660c77e8139753185d5dbb19f8a4e5b5631ac4423be194dc64736f6c634300080b0033","opcodes":"PUSH1 0x80 PUSH1 0x40 MSTORE CALLVALUE DUP1 ISZERO PUSH2 0x10 JUMPI PUSH1 0x0 DUP1 REVERT JUMPDEST POP PUSH2 0x3265 DUP1 PUSH2 0x20 PUSH1 0x0 CODECOPY PUSH1 0x0 RETURN INVALID PUSH1 0x80 PUSH1 0x40 MSTORE CALLVALUE DUP1 ISZERO PUSH2 0x10 JUMPI PUSH1 0x0 DUP1 REVERT JUMPDEST POP PUSH1 0x4 CALLDATASIZE LT PUSH2 0x7D JUMPI PUSH1 0x0 CALLDATALOAD PUSH1 0xE0 SHR DUP1 PUSH4 0x7E3C01D7 GT PUSH2 0x5B JUMPI DUP1 PUSH4 0x7E3C01D7 EQ PUSH2 0x114 JUMPI DUP1 PUSH4 0x826C4AE6 EQ PUSH2 0x144 JUMPI DUP1 PUSH4 0x8379EC2F EQ PUSH2 0x14E JUMPI DUP1 PUSH4 0xB6CBAB37 EQ PUSH2 0x16C JUMPI PUSH2 0x7D JUMP JUMPDEST DUP1 PUSH4 0x7F9D06D EQ PUSH2 0x82 JUMPI DUP1 PUSH4 0x35A6861A EQ PUSH2 0xB4 JUMPI DUP1 PUSH4 0x73338081 EQ PUSH2 0xE4 JUMPI JUMPDEST PUSH1 0x0 DUP1 REVERT JUMPDEST PUSH2 0x9C PUSH1 0x4 DUP1 CALLDATASIZE SUB DUP2 ADD SWAP1 PUSH2 0x97 SWAP2 SWAP1 PUSH2 0x826 JUMP JUMPDEST PUSH2 0x188 JUMP JUMPDEST PUSH1 0x40 MLOAD PUSH2 0xAB SWAP4 SWAP3 SWAP2 SWAP1 PUSH2 0x8CD JUMP JUMPDEST PUSH1 0x40 MLOAD DUP1 SWAP2 SUB SWAP1 RETURN JUMPDEST PUSH2 0xCE PUSH1 0x4 DUP1 CALLDATASIZE SUB DUP2 ADD SWAP1 PUSH2 0xC9 SWAP2 SWAP1 PUSH2 0x826 JUMP JUMPDEST PUSH2 0x2F6 JUMP JUMPDEST PUSH1 0x40 MLOAD PUSH2 0xDB SWAP2 SWAP1 PUSH2 0x904 JUMP JUMPDEST PUSH1 0x40 MLOAD DUP1 SWAP2 SUB SWAP1 RETURN JUMPDEST PUSH2 0xFE PUSH1 0x4 DUP1 CALLDATASIZE SUB DUP2 ADD SWAP1 PUSH2 0xF9 SWAP2 SWAP1 PUSH2 0x955 JUMP JUMPDEST PUSH2 0x3BB JUMP JUMPDEST PUSH1 0x40 MLOAD PUSH2 0x10B SWAP2 SWAP1 PUSH2 0x991 JUMP JUMPDEST PUSH1 0x40 MLOAD DUP1 SWAP2 SUB SWAP1 RETURN JUMPDEST PUSH2 0x12E PUSH1 0x4 DUP1 CALLDATASIZE SUB DUP2 ADD SWAP1 PUSH2 0x129 SWAP2 SWAP1 PUSH2 0x955 JUMP JUMPDEST PUSH2 0x3FA JUMP JUMPDEST PUSH1 0x40 MLOAD PUSH2 0x13B SWAP2 SWAP1 PUSH2 0x904 JUMP JUMPDEST PUSH1 0x40 MLOAD DUP1 SWAP2 SUB SWAP1 RETURN JUMPDEST PUSH2 0x14C PUSH2 0x439 JUMP JUMPDEST STOP JUMPDEST PUSH2 0x156 PUSH2 0x671 JUMP JUMPDEST PUSH1 0x40 MLOAD PUSH2 0x163 SWAP2 SWAP1 PUSH2 0xA6A JUMP JUMPDEST PUSH1 0x40 MLOAD DUP1 SWAP2 SUB SWAP1 RETURN JUMPDEST PUSH2 0x186 PUSH1 0x4 DUP1 CALLDATASIZE SUB DUP2 ADD SWAP1 PUSH2 0x181 SWAP2 SWAP1 PUSH2 0x826 JUMP JUMPDEST PUSH2 0x6FF JUMP JUMPDEST STOP JUMPDEST PUSH1 0x0 DUP1 PUSH1 0x0 PUSH1 0x2 PUSH1 0x0 DUP6 PUSH20 0xFFFFFFFFFFFFFFFFFFFFFFFFFFFFFFFFFFFFFFFF AND PUSH20 0xFFFFFFFFFFFFFFFFFFFFFFFFFFFFFFFFFFFFFFFF AND DUP2 MSTORE PUSH1 0x20 ADD SWAP1 DUP2 MSTORE PUSH1 0x20 ADD PUSH1 0x0 KECCAK256 PUSH1 0x0 ADD PUSH1 0x14 SWAP1 SLOAD SWAP1 PUSH2 0x100 EXP SWAP1 DIV PUSH1 0xFF AND PUSH2 0x1E6 JUMPI PUSH1 0x0 DUP1 REVERT JUMPDEST PUSH1 0x2 PUSH1 0x0 DUP6 PUSH20 0xFFFFFFFFFFFFFFFFFFFFFFFFFFFFFFFFFFFFFFFF AND PUSH20 0xFFFFFFFFFFFFFFFFFFFFFFFFFFFFFFFFFFFFFFFF AND DUP2 MSTORE PUSH1 0x20 ADD SWAP1 DUP2 MSTORE PUSH1 0x20 ADD PUSH1 0x0 KECCAK256 PUSH1 0x0 ADD PUSH1 0x0 SWAP1 SLOAD SWAP1 PUSH2 0x100 EXP SWAP1 DIV PUSH20 0xFFFFFFFFFFFFFFFFFFFFFFFFFFFFFFFFFFFFFFFF AND PUSH1 0x2 PUSH1 0x0 DUP7 PUSH20 0xFFFFFFFFFFFFFFFFFFFFFFFFFFFFFFFFFFFFFFFF AND PUSH20 0xFFFFFFFFFFFFFFFFFFFFFFFFFFFFFFFFFFFFFFFF AND DUP2 MSTORE PUSH1 0x20 ADD SWAP1 DUP2 MSTORE PUSH1 0x20 ADD PUSH1 0x0 KECCAK256 PUSH1 0x0 ADD PUSH1 0x14 SWAP1 SLOAD SWAP1 PUSH2 0x100 EXP SWAP1 DIV PUSH1 0xFF AND PUSH1 0x2 PUSH1 0x0 DUP8 PUSH20 0xFFFFFFFFFFFFFFFFFFFFFFFFFFFFFFFFFFFFFFFF AND PUSH20 0xFFFFFFFFFFFFFFFFFFFFFFFFFFFFFFFFFFFFFFFF AND DUP2 MSTORE PUSH1 0x20 ADD SWAP1 DUP2 MSTORE PUSH1 0x20 ADD PUSH1 0x0 KECCAK256 PUSH1 0x0 ADD PUSH1 0x15 SWAP1 SLOAD SWAP1 PUSH2 0x100 EXP SWAP1 DIV PUSH1 0xFF AND SWAP3 POP SWAP3 POP SWAP3 POP SWAP2 SWAP4 SWAP1 SWAP3 POP JUMP JUMPDEST PUSH1 0x0 PUSH1 0x2 PUSH1 0x0 DUP4 PUSH20 0xFFFFFFFFFFFFFFFFFFFFFFFFFFFFFFFFFFFFFFFF AND PUSH20 0xFFFFFFFFFFFFFFFFFFFFFFFFFFFFFFFFFFFFFFFF AND DUP2 MSTORE PUSH1 0x20 ADD SWAP1 DUP2 MSTORE PUSH1 0x20 ADD PUSH1 0x0 KECCAK256 PUSH1 0x0 ADD PUSH1 0x14 SWAP1 SLOAD SWAP1 PUSH2 0x100 EXP SWAP1 DIV PUSH1 0xFF AND PUSH2 0x351 JUMPI PUSH1 0x0 DUP1 REVERT JUMPDEST PUSH1 0x2 PUSH1 0x0 DUP4 PUSH20 0xFFFFFFFFFFFFFFFFFFFFFFFFFFFFFFFFFFFFFFFF AND PUSH20 0xFFFFFFFFFFFFFFFFFFFFFFFFFFFFFFFFFFFFFFFF AND DUP2 MSTORE PUSH1 0x20 ADD SWAP1 DUP2 MSTORE PUSH1 0x20 ADD PUSH1 0x0 KECCAK256 PUSH1 0x0 ADD PUSH1 0x0 SWAP1 SLOAD SWAP1 PUSH2 0x100 EXP SWAP1 DIV PUSH20 0xFFFFFFFFFFFFFFFFFFFFFFFFFFFFFFFFFFFFFFFF AND SWAP1 POP SWAP2 SWAP1 POP JUMP JUMPDEST PUSH1 0x1 DUP2 DUP2 SLOAD DUP2 LT PUSH2 0x3CB JUMPI PUSH1 0x0 DUP1 REVERT JUMPDEST SWAP1 PUSH1 0x0 MSTORE PUSH1 0x20 PUSH1 0x0 KECCAK256 ADD PUSH1 0x0 SWAP2 POP SLOAD SWAP1 PUSH2 0x100 EXP SWAP1 DIV PUSH20 0xFFFFFFFFFFFFFFFFFFFFFFFFFFFFFFFFFFFFFFFF AND DUP2 JUMP JUMPDEST PUSH1 0x0 DUP2 DUP2 SLOAD DUP2 LT PUSH2 0x40A JUMPI PUSH1 0x0 DUP1 REVERT JUMPDEST SWAP1 PUSH1 0x0 MSTORE PUSH1 0x20 PUSH1 0x0 KECCAK256 ADD PUSH1 0x0 SWAP2 POP SLOAD SWAP1 PUSH2 0x100 EXP SWAP1 DIV PUSH20 0xFFFFFFFFFFFFFFFFFFFFFFFFFFFFFFFFFFFFFFFF AND DUP2 JUMP JUMPDEST PUSH1 0x0 CALLER PUSH1 0x40 MLOAD PUSH2 0x448 SWAP1 PUSH2 0x7B6 JUMP JUMPDEST PUSH2 0x452 SWAP2 SWAP1 PUSH2 0x991 JUMP JUMPDEST PUSH1 0x40 MLOAD DUP1 SWAP2 SUB SWAP1 PUSH1 0x0 CREATE DUP1 ISZERO DUP1 ISZERO PUSH2 0x46E JUMPI RETURNDATASIZE PUSH1 0x0 DUP1 RETURNDATACOPY RETURNDATASIZE PUSH1 0x0 REVERT JUMPDEST POP SWAP1 POP DUP1 PUSH1 0x2 PUSH1 0x0 CALLER PUSH20 0xFFFFFFFFFFFFFFFFFFFFFFFFFFFFFFFFFFFFFFFF AND PUSH20 0xFFFFFFFFFFFFFFFFFFFFFFFFFFFFFFFFFFFFFFFF AND DUP2 MSTORE PUSH1 0x20 ADD SWAP1 DUP2 MSTORE PUSH1 0x20 ADD PUSH1 0x0 KECCAK256 PUSH1 0x0 ADD PUSH1 0x0 PUSH2 0x100 EXP DUP2 SLOAD DUP2 PUSH20 0xFFFFFFFFFFFFFFFFFFFFFFFFFFFFFFFFFFFFFFFF MUL NOT AND SWAP1 DUP4 PUSH20 0xFFFFFFFFFFFFFFFFFFFFFFFFFFFFFFFFFFFFFFFF AND MUL OR SWAP1 SSTORE POP PUSH1 0x1 PUSH1 0x2 PUSH1 0x0 CALLER PUSH20 0xFFFFFFFFFFFFFFFFFFFFFFFFFFFFFFFFFFFFFFFF AND PUSH20 0xFFFFFFFFFFFFFFFFFFFFFFFFFFFFFFFFFFFFFFFF AND DUP2 MSTORE PUSH1 0x20 ADD SWAP1 DUP2 MSTORE PUSH1 0x20 ADD PUSH1 0x0 KECCAK256 PUSH1 0x0 ADD PUSH1 0x14 PUSH2 0x100 EXP DUP2 SLOAD DUP2 PUSH1 0xFF MUL NOT AND SWAP1 DUP4 ISZERO ISZERO MUL OR SWAP1 SSTORE POP PUSH1 0x0 PUSH1 0x2 PUSH1 0x0 CALLER PUSH20 0xFFFFFFFFFFFFFFFFFFFFFFFFFFFFFFFFFFFFFFFF AND PUSH20 0xFFFFFFFFFFFFFFFFFFFFFFFFFFFFFFFFFFFFFFFF AND DUP2 MSTORE PUSH1 0x20 ADD SWAP1 DUP2 MSTORE PUSH1 0x20 ADD PUSH1 0x0 KECCAK256 PUSH1 0x0 ADD PUSH1 0x15 PUSH2 0x100 EXP DUP2 SLOAD DUP2 PUSH1 0xFF MUL NOT AND SWAP1 DUP4 ISZERO ISZERO MUL OR SWAP1 SSTORE POP PUSH1 0x1 CALLER SWAP1 DUP1 PUSH1 0x1 DUP2 SLOAD ADD DUP1 DUP3 SSTORE DUP1 SWAP2 POP POP PUSH1 0x1 SWAP1 SUB SWAP1 PUSH1 0x0 MSTORE PUSH1 0x20 PUSH1 0x0 KECCAK256 ADD PUSH1 0x0 SWAP1 SWAP2 SWAP1 SWAP2 SWAP1 SWAP2 PUSH2 0x100 EXP DUP2 SLOAD DUP2 PUSH20 0xFFFFFFFFFFFFFFFFFFFFFFFFFFFFFFFFFFFFFFFF MUL NOT AND SWAP1 DUP4 PUSH20 0xFFFFFFFFFFFFFFFFFFFFFFFFFFFFFFFFFFFFFFFF AND MUL OR SWAP1 SSTORE POP PUSH1 0x0 DUP2 SWAP1 DUP1 PUSH1 0x1 DUP2 SLOAD ADD DUP1 DUP3 SSTORE DUP1 SWAP2 POP POP PUSH1 0x1 SWAP1 SUB SWAP1 PUSH1 0x0 MSTORE PUSH1 0x20 PUSH1 0x0 KECCAK256 ADD PUSH1 0x0 SWAP1 SWAP2 SWAP1 SWAP2 SWAP1 SWAP2 PUSH2 0x100 EXP DUP2 SLOAD DUP2 PUSH20 0xFFFFFFFFFFFFFFFFFFFFFFFFFFFFFFFFFFFFFFFF MUL NOT AND SWAP1 DUP4 PUSH20 0xFFFFFFFFFFFFFFFFFFFFFFFFFFFFFFFFFFFFFFFF AND MUL OR SWAP1 SSTORE POP POP JUMP JUMPDEST PUSH1 0x60 PUSH1 0x0 DUP1 SLOAD DUP1 PUSH1 0x20 MUL PUSH1 0x20 ADD PUSH1 0x40 MLOAD SWAP1 DUP2 ADD PUSH1 0x40 MSTORE DUP1 SWAP3 SWAP2 SWAP1 DUP2 DUP2 MSTORE PUSH1 0x20 ADD DUP3 DUP1 SLOAD DUP1 ISZERO PUSH2 0x6F5 JUMPI PUSH1 0x20 MUL DUP3 ADD SWAP2 SWAP1 PUSH1 0x0 MSTORE PUSH1 0x20 PUSH1 0x0 KECCAK256 SWAP1 JUMPDEST DUP2 PUSH1 0x0 SWAP1 SLOAD SWAP1 PUSH2 0x100 EXP SWAP1 DIV PUSH20 0xFFFFFFFFFFFFFFFFFFFFFFFFFFFFFFFFFFFFFFFF AND PUSH20 0xFFFFFFFFFFFFFFFFFFFFFFFFFFFFFFFFFFFFFFFF AND DUP2 MSTORE PUSH1 0x20 ADD SWAP1 PUSH1 0x1 ADD SWAP1 DUP1 DUP4 GT PUSH2 0x6AB JUMPI JUMPDEST POP POP POP POP POP SWAP1 POP SWAP1 JUMP JUMPDEST PUSH1 0x2 PUSH1 0x0 DUP3 PUSH20 0xFFFFFFFFFFFFFFFFFFFFFFFFFFFFFFFFFFFFFFFF AND PUSH20 0xFFFFFFFFFFFFFFFFFFFFFFFFFFFFFFFFFFFFFFFF AND DUP2 MSTORE PUSH1 0x20 ADD SWAP1 DUP2 MSTORE PUSH1 0x20 ADD PUSH1 0x0 KECCAK256 PUSH1 0x0 ADD PUSH1 0x14 SWAP1 SLOAD SWAP1 PUSH2 0x100 EXP SWAP1 DIV PUSH1 0xFF AND PUSH2 0x758 JUMPI PUSH1 0x0 DUP1 REVERT JUMPDEST PUSH1 0x1 PUSH1 0x2 PUSH1 0x0 DUP4 PUSH20 0xFFFFFFFFFFFFFFFFFFFFFFFFFFFFFFFFFFFFFFFF AND PUSH20 0xFFFFFFFFFFFFFFFFFFFFFFFFFFFFFFFFFFFFFFFF AND DUP2 MSTORE PUSH1 0x20 ADD SWAP1 DUP2 MSTORE PUSH1 0x20 ADD PUSH1 0x0 KECCAK256 PUSH1 0x0 ADD PUSH1 0x15 PUSH2 0x100 EXP DUP2 SLOAD DUP2 PUSH1 0xFF MUL NOT AND SWAP1 DUP4 ISZERO ISZERO MUL OR SWAP1 SSTORE POP POP JUMP JUMPDEST PUSH2 0x27A3 DUP1 PUSH2 0xA8D DUP4 CODECOPY ADD SWAP1 JUMP JUMPDEST PUSH1 0x0 DUP1 REVERT JUMPDEST PUSH1 0x0 PUSH20 0xFFFFFFFFFFFFFFFFFFFFFFFFFFFFFFFFFFFFFFFF DUP3 AND SWAP1 POP SWAP2 SWAP1 POP JUMP JUMPDEST PUSH1 0x0 PUSH2 0x7F3 DUP3 PUSH2 0x7C8 JUMP JUMPDEST SWAP1 POP SWAP2 SWAP1 POP JUMP JUMPDEST PUSH2 0x803 DUP2 PUSH2 0x7E8 JUMP JUMPDEST DUP2 EQ PUSH2 0x80E JUMPI PUSH1 0x0 DUP1 REVERT JUMPDEST POP JUMP JUMPDEST PUSH1 0x0 DUP2 CALLDATALOAD SWAP1 POP PUSH2 0x820 DUP2 PUSH2 0x7FA JUMP JUMPDEST SWAP3 SWAP2 POP POP JUMP JUMPDEST PUSH1 0x0 PUSH1 0x20 DUP3 DUP5 SUB SLT ISZERO PUSH2 0x83C JUMPI PUSH2 0x83B PUSH2 0x7C3 JUMP JUMPDEST JUMPDEST PUSH1 0x0 PUSH2 0x84A DUP5 DUP3 DUP6 ADD PUSH2 0x811 JUMP JUMPDEST SWAP2 POP POP SWAP3 SWAP2 POP POP JUMP JUMPDEST PUSH1 0x0 DUP2 SWAP1 POP SWAP2 SWAP1 POP JUMP JUMPDEST PUSH1 0x0 PUSH2 0x878 PUSH2 0x873 PUSH2 0x86E DUP5 PUSH2 0x7C8 JUMP JUMPDEST PUSH2 0x853 JUMP JUMPDEST PUSH2 0x7C8 JUMP JUMPDEST SWAP1 POP SWAP2 SWAP1 POP JUMP JUMPDEST PUSH1 0x0 PUSH2 0x88A DUP3 PUSH2 0x85D JUMP JUMPDEST SWAP1 POP SWAP2 SWAP1 POP JUMP JUMPDEST PUSH1 0x0 PUSH2 0x89C DUP3 PUSH2 0x87F JUMP JUMPDEST SWAP1 POP SWAP2 SWAP1 POP JUMP JUMPDEST PUSH2 0x8AC DUP2 PUSH2 0x891 JUMP JUMPDEST DUP3 MSTORE POP POP JUMP JUMPDEST PUSH1 0x0 DUP2 ISZERO ISZERO SWAP1 POP SWAP2 SWAP1 POP JUMP JUMPDEST PUSH2 0x8C7 DUP2 PUSH2 0x8B2 JUMP JUMPDEST DUP3 MSTORE POP POP JUMP JUMPDEST PUSH1 0x0 PUSH1 0x60 DUP3 ADD SWAP1 POP PUSH2 0x8E2 PUSH1 0x0 DUP4 ADD DUP7 PUSH2 0x8A3 JUMP JUMPDEST PUSH2 0x8EF PUSH1 0x20 DUP4 ADD DUP6 PUSH2 0x8BE JUMP JUMPDEST PUSH2 0x8FC PUSH1 0x40 DUP4 ADD DUP5 PUSH2 0x8BE JUMP JUMPDEST SWAP5 SWAP4 POP POP POP POP JUMP JUMPDEST PUSH1 0x0 PUSH1 0x20 DUP3 ADD SWAP1 POP PUSH2 0x919 PUSH1 0x0 DUP4 ADD DUP5 PUSH2 0x8A3 JUMP JUMPDEST SWAP3 SWAP2 POP POP JUMP JUMPDEST PUSH1 0x0 DUP2 SWAP1 POP SWAP2 SWAP1 POP JUMP JUMPDEST PUSH2 0x932 DUP2 PUSH2 0x91F JUMP JUMPDEST DUP2 EQ PUSH2 0x93D JUMPI PUSH1 0x0 DUP1 REVERT JUMPDEST POP JUMP JUMPDEST PUSH1 0x0 DUP2 CALLDATALOAD SWAP1 POP PUSH2 0x94F DUP2 PUSH2 0x929 JUMP JUMPDEST SWAP3 SWAP2 POP POP JUMP JUMPDEST PUSH1 0x0 PUSH1 0x20 DUP3 DUP5 SUB SLT ISZERO PUSH2 0x96B JUMPI PUSH2 0x96A PUSH2 0x7C3 JUMP JUMPDEST JUMPDEST PUSH1 0x0 PUSH2 0x979 DUP5 DUP3 DUP6 ADD PUSH2 0x940 JUMP JUMPDEST SWAP2 POP POP SWAP3 SWAP2 POP POP JUMP JUMPDEST PUSH2 0x98B DUP2 PUSH2 0x7E8 JUMP JUMPDEST DUP3 MSTORE POP POP JUMP JUMPDEST PUSH1 0x0 PUSH1 0x20 DUP3 ADD SWAP1 POP PUSH2 0x9A6 PUSH1 0x0 DUP4 ADD DUP5 PUSH2 0x982 JUMP JUMPDEST SWAP3 SWAP2 POP POP JUMP JUMPDEST PUSH1 0x0 DUP2 MLOAD SWAP1 POP SWAP2 SWAP1 POP JUMP JUMPDEST PUSH1 0x0 DUP3 DUP3 MSTORE PUSH1 0x20 DUP3 ADD SWAP1 POP SWAP3 SWAP2 POP POP JUMP JUMPDEST PUSH1 0x0 DUP2 SWAP1 POP PUSH1 0x20 DUP3 ADD SWAP1 POP SWAP2 SWAP1 POP JUMP JUMPDEST PUSH2 0x9E1 DUP2 PUSH2 0x891 JUMP JUMPDEST DUP3 MSTORE POP POP JUMP JUMPDEST PUSH1 0x0 PUSH2 0x9F3 DUP4 DUP4 PUSH2 0x9D8 JUMP JUMPDEST PUSH1 0x20 DUP4 ADD SWAP1 POP SWAP3 SWAP2 POP POP JUMP JUMPDEST PUSH1 0x0 PUSH1 0x20 DUP3 ADD SWAP1 POP SWAP2 SWAP1 POP JUMP JUMPDEST PUSH1 0x0 PUSH2 0xA17 DUP3 PUSH2 0x9AC JUMP JUMPDEST PUSH2 0xA21 DUP2 DUP6 PUSH2 0x9B7 JUMP JUMPDEST SWAP4 POP PUSH2 0xA2C DUP4 PUSH2 0x9C8 JUMP JUMPDEST DUP1 PUSH1 0x0 JUMPDEST DUP4 DUP2 LT ISZERO PUSH2 0xA5D JUMPI DUP2 MLOAD PUSH2 0xA44 DUP9 DUP3 PUSH2 0x9E7 JUMP JUMPDEST SWAP8 POP PUSH2 0xA4F DUP4 PUSH2 0x9FF JUMP JUMPDEST SWAP3 POP POP PUSH1 0x1 DUP2 ADD SWAP1 POP PUSH2 0xA30 JUMP JUMPDEST POP DUP6 SWAP4 POP POP POP POP SWAP3 SWAP2 POP POP JUMP JUMPDEST PUSH1 0x0 PUSH1 0x20 DUP3 ADD SWAP1 POP DUP2 DUP2 SUB PUSH1 0x0 DUP4 ADD MSTORE PUSH2 0xA84 DUP2 DUP5 PUSH2 0xA0C JUMP JUMPDEST SWAP1 POP SWAP3 SWAP2 POP POP JUMP INVALID PUSH1 0x80 PUSH1 0x40 MSTORE CALLVALUE DUP1 ISZERO PUSH3 0x11 JUMPI PUSH1 0x0 DUP1 REVERT JUMPDEST POP PUSH1 0x40 MLOAD PUSH3 0x27A3 CODESIZE SUB DUP1 PUSH3 0x27A3 DUP4 CODECOPY DUP2 DUP2 ADD PUSH1 0x40 MSTORE DUP2 ADD SWAP1 PUSH3 0x37 SWAP2 SWAP1 PUSH3 0xE9 JUMP JUMPDEST DUP1 PUSH1 0x2 PUSH1 0x0 PUSH2 0x100 EXP DUP2 SLOAD DUP2 PUSH20 0xFFFFFFFFFFFFFFFFFFFFFFFFFFFFFFFFFFFFFFFF MUL NOT AND SWAP1 DUP4 PUSH20 0xFFFFFFFFFFFFFFFFFFFFFFFFFFFFFFFFFFFFFFFF AND MUL OR SWAP1 SSTORE POP POP PUSH3 0x11B JUMP JUMPDEST PUSH1 0x0 DUP1 REVERT JUMPDEST PUSH1 0x0 PUSH20 0xFFFFFFFFFFFFFFFFFFFFFFFFFFFFFFFFFFFFFFFF DUP3 AND SWAP1 POP SWAP2 SWAP1 POP JUMP JUMPDEST PUSH1 0x0 PUSH3 0xB1 DUP3 PUSH3 0x84 JUMP JUMPDEST SWAP1 POP SWAP2 SWAP1 POP JUMP JUMPDEST PUSH3 0xC3 DUP2 PUSH3 0xA4 JUMP JUMPDEST DUP2 EQ PUSH3 0xCF JUMPI PUSH1 0x0 DUP1 REVERT JUMPDEST POP JUMP JUMPDEST PUSH1 0x0 DUP2 MLOAD SWAP1 POP PUSH3 0xE3 DUP2 PUSH3 0xB8 JUMP JUMPDEST SWAP3 SWAP2 POP POP JUMP JUMPDEST PUSH1 0x0 PUSH1 0x20 DUP3 DUP5 SUB SLT ISZERO PUSH3 0x102 JUMPI PUSH3 0x101 PUSH3 0x7F JUMP JUMPDEST JUMPDEST PUSH1 0x0 PUSH3 0x112 DUP5 DUP3 DUP6 ADD PUSH3 0xD2 JUMP JUMPDEST SWAP2 POP POP SWAP3 SWAP2 POP POP JUMP JUMPDEST PUSH2 0x2678 DUP1 PUSH3 0x12B PUSH1 0x0 CODECOPY PUSH1 0x0 RETURN INVALID PUSH1 0x80 PUSH1 0x40 MSTORE CALLVALUE DUP1 ISZERO PUSH2 0x10 JUMPI PUSH1 0x0 DUP1 REVERT JUMPDEST POP PUSH1 0x4 CALLDATASIZE LT PUSH2 0xA9 JUMPI PUSH1 0x0 CALLDATALOAD PUSH1 0xE0 SHR DUP1 PUSH4 0x787FD703 GT PUSH2 0x71 JUMPI DUP1 PUSH4 0x787FD703 EQ PUSH2 0x166 JUMPI DUP1 PUSH4 0xADB4D990 EQ PUSH2 0x197 JUMPI DUP1 PUSH4 0xCC3D967B EQ PUSH2 0x1B5 JUMPI DUP1 PUSH4 0xEA00962F EQ PUSH2 0x1ED JUMPI DUP1 PUSH4 0xEDE3A670 EQ PUSH2 0x20B JUMPI DUP1 PUSH4 0xF203C19D EQ PUSH2 0x241 JUMPI PUSH2 0xA9 JUMP JUMPDEST DUP1 PUSH4 0x61DFF9A EQ PUSH2 0xAE JUMPI DUP1 PUSH4 0x91BAC16 EQ PUSH2 0xCA JUMPI DUP1 PUSH4 0x311CC831 EQ PUSH2 0xFB JUMPI DUP1 PUSH4 0x481C6A75 EQ PUSH2 0x117 JUMPI DUP1 PUSH4 0x509FDA0E EQ PUSH2 0x135 JUMPI JUMPDEST PUSH1 0x0 DUP1 REVERT JUMPDEST PUSH2 0xC8 PUSH1 0x4 DUP1 CALLDATASIZE SUB DUP2 ADD SWAP1 PUSH2 0xC3 SWAP2 SWAP1 PUSH2 0x1FF1 JUMP JUMPDEST PUSH2 0x25F JUMP JUMPDEST STOP JUMPDEST PUSH2 0xE4 PUSH1 0x4 DUP1 CALLDATASIZE SUB DUP2 ADD SWAP1 PUSH2 0xDF SWAP2 SWAP1 PUSH2 0x1FF1 JUMP JUMPDEST PUSH2 0x2FD JUMP JUMPDEST PUSH1 0x40 MLOAD PUSH2 0xF2 SWAP3 SWAP2 SWAP1 PUSH2 0x20B7 JUMP JUMPDEST PUSH1 0x40 MLOAD DUP1 SWAP2 SUB SWAP1 RETURN JUMPDEST PUSH2 0x115 PUSH1 0x4 DUP1 CALLDATASIZE SUB DUP2 ADD SWAP1 PUSH2 0x110 SWAP2 SWAP1 PUSH2 0x2223 JUMP JUMPDEST PUSH2 0x558 JUMP JUMPDEST STOP JUMPDEST PUSH2 0x11F PUSH2 0xA76 JUMP JUMPDEST PUSH1 0x40 MLOAD PUSH2 0x12C SWAP2 SWAP1 PUSH2 0x245A JUMP JUMPDEST PUSH1 0x40 MLOAD DUP1 SWAP2 SUB SWAP1 RETURN JUMPDEST PUSH2 0x14F PUSH1 0x4 DUP1 CALLDATASIZE SUB DUP2 ADD SWAP1 PUSH2 0x14A SWAP2 SWAP1 PUSH2 0x1FF1 JUMP JUMPDEST PUSH2 0xA9C JUMP JUMPDEST PUSH1 0x40 MLOAD PUSH2 0x15D SWAP3 SWAP2 SWAP1 PUSH2 0x20B7 JUMP JUMPDEST PUSH1 0x40 MLOAD DUP1 SWAP2 SUB SWAP1 RETURN JUMPDEST PUSH2 0x180 PUSH1 0x4 DUP1 CALLDATASIZE SUB DUP2 ADD SWAP1 PUSH2 0x17B SWAP2 SWAP1 PUSH2 0x1FF1 JUMP JUMPDEST PUSH2 0xCF7 JUMP JUMPDEST PUSH1 0x40 MLOAD PUSH2 0x18E SWAP3 SWAP2 SWAP1 PUSH2 0x20B7 JUMP JUMPDEST PUSH1 0x40 MLOAD DUP1 SWAP2 SUB SWAP1 RETURN JUMPDEST PUSH2 0x19F PUSH2 0xEF9 JUMP JUMPDEST PUSH1 0x40 MLOAD PUSH2 0x1AC SWAP2 SWAP1 PUSH2 0x245A JUMP JUMPDEST PUSH1 0x40 MLOAD DUP1 SWAP2 SUB SWAP1 RETURN JUMPDEST PUSH2 0x1CF PUSH1 0x4 DUP1 CALLDATASIZE SUB DUP2 ADD SWAP1 PUSH2 0x1CA SWAP2 SWAP1 PUSH2 0x1FF1 JUMP JUMPDEST PUSH2 0xF1F JUMP JUMPDEST PUSH1 0x40 MLOAD PUSH2 0x1E4 SWAP10 SWAP9 SWAP8 SWAP7 SWAP6 SWAP5 SWAP4 SWAP3 SWAP2 SWAP1 PUSH2 0x2475 JUMP JUMPDEST PUSH1 0x40 MLOAD DUP1 SWAP2 SUB SWAP1 RETURN JUMPDEST PUSH2 0x1F5 PUSH2 0x1816 JUMP JUMPDEST PUSH1 0x40 MLOAD PUSH2 0x202 SWAP2 SWAP1 PUSH2 0x245A JUMP JUMPDEST PUSH1 0x40 MLOAD DUP1 SWAP2 SUB SWAP1 RETURN JUMPDEST PUSH2 0x225 PUSH1 0x4 DUP1 CALLDATASIZE SUB DUP2 ADD SWAP1 PUSH2 0x220 SWAP2 SWAP1 PUSH2 0x1FF1 JUMP JUMPDEST PUSH2 0x183F JUMP JUMPDEST PUSH1 0x40 MLOAD PUSH2 0x238 SWAP8 SWAP7 SWAP6 SWAP5 SWAP4 SWAP3 SWAP2 SWAP1 PUSH2 0x2541 JUMP JUMPDEST PUSH1 0x40 MLOAD DUP1 SWAP2 SUB SWAP1 RETURN JUMPDEST PUSH2 0x249 PUSH2 0x1EB8 JUMP JUMPDEST PUSH1 0x40 MLOAD PUSH2 0x256 SWAP2 SWAP1 PUSH2 0x245A JUMP JUMPDEST PUSH1 0x40 MLOAD DUP1 SWAP2 SUB SWAP1 RETURN JUMPDEST PUSH1 0x2 PUSH1 0x0 SWAP1 SLOAD SWAP1 PUSH2 0x100 EXP SWAP1 DIV PUSH20 0xFFFFFFFFFFFFFFFFFFFFFFFFFFFFFFFFFFFFFFFF AND PUSH20 0xFFFFFFFFFFFFFFFFFFFFFFFFFFFFFFFFFFFFFFFF AND CALLER PUSH20 0xFFFFFFFFFFFFFFFFFFFFFFFFFFFFFFFFFFFFFFFF AND EQ PUSH2 0x2B9 JUMPI PUSH1 0x0 DUP1 REVERT JUMPDEST DUP1 PUSH1 0x3 PUSH1 0x0 PUSH2 0x100 EXP DUP2 SLOAD DUP2 PUSH20 0xFFFFFFFFFFFFFFFFFFFFFFFFFFFFFFFFFFFFFFFF MUL NOT AND SWAP1 DUP4 PUSH20 0xFFFFFFFFFFFFFFFFFFFFFFFFFFFFFFFFFFFFFFFF AND MUL OR SWAP1 SSTORE POP POP JUMP JUMPDEST PUSH1 0x60 DUP1 PUSH1 0x1 PUSH1 0x0 DUP5 PUSH20 0xFFFFFFFFFFFFFFFFFFFFFFFFFFFFFFFFFFFFFFFF AND PUSH20 0xFFFFFFFFFFFFFFFFFFFFFFFFFFFFFFFFFFFFFFFF AND DUP2 MSTORE PUSH1 0x20 ADD SWAP1 DUP2 MSTORE PUSH1 0x20 ADD PUSH1 0x0 KECCAK256 PUSH1 0x9 ADD PUSH1 0x0 SWAP1 SLOAD SWAP1 PUSH2 0x100 EXP SWAP1 DIV PUSH1 0xFF AND PUSH2 0x359 JUMPI PUSH1 0x0 DUP1 REVERT JUMPDEST PUSH1 0x2 PUSH1 0x0 SWAP1 SLOAD SWAP1 PUSH2 0x100 EXP SWAP1 DIV PUSH20 0xFFFFFFFFFFFFFFFFFFFFFFFFFFFFFFFFFFFFFFFF AND PUSH20 0xFFFFFFFFFFFFFFFFFFFFFFFFFFFFFFFFFFFFFFFF AND DUP4 PUSH20 0xFFFFFFFFFFFFFFFFFFFFFFFFFFFFFFFFFFFFFFFF AND EQ PUSH2 0x3B3 JUMPI PUSH1 0x0 DUP1 REVERT JUMPDEST PUSH1 0x1 PUSH1 0x0 DUP5 PUSH20 0xFFFFFFFFFFFFFFFFFFFFFFFFFFFFFFFFFFFFFFFF AND PUSH20 0xFFFFFFFFFFFFFFFFFFFFFFFFFFFFFFFFFFFFFFFF AND DUP2 MSTORE PUSH1 0x20 ADD SWAP1 DUP2 MSTORE PUSH1 0x20 ADD PUSH1 0x0 KECCAK256 PUSH1 0x7 ADD PUSH1 0x1 PUSH1 0x0 DUP6 PUSH20 0xFFFFFFFFFFFFFFFFFFFFFFFFFFFFFFFFFFFFFFFF AND PUSH20 0xFFFFFFFFFFFFFFFFFFFFFFFFFFFFFFFFFFFFFFFF AND DUP2 MSTORE PUSH1 0x20 ADD SWAP1 DUP2 MSTORE PUSH1 0x20 ADD PUSH1 0x0 KECCAK256 PUSH1 0x8 ADD DUP2 DUP1 SLOAD PUSH2 0x443 SWAP1 PUSH2 0x2610 JUMP JUMPDEST DUP1 PUSH1 0x1F ADD PUSH1 0x20 DUP1 SWAP2 DIV MUL PUSH1 0x20 ADD PUSH1 0x40 MLOAD SWAP1 DUP2 ADD PUSH1 0x40 MSTORE DUP1 SWAP3 SWAP2 SWAP1 DUP2 DUP2 MSTORE PUSH1 0x20 ADD DUP3 DUP1 SLOAD PUSH2 0x46F SWAP1 PUSH2 0x2610 JUMP JUMPDEST DUP1 ISZERO PUSH2 0x4BC JUMPI DUP1 PUSH1 0x1F LT PUSH2 0x491 JUMPI PUSH2 0x100 DUP1 DUP4 SLOAD DIV MUL DUP4 MSTORE SWAP2 PUSH1 0x20 ADD SWAP2 PUSH2 0x4BC JUMP JUMPDEST DUP3 ADD SWAP2 SWAP1 PUSH1 0x0 MSTORE PUSH1 0x20 PUSH1 0x0 KECCAK256 SWAP1 JUMPDEST DUP2 SLOAD DUP2 MSTORE SWAP1 PUSH1 0x1 ADD SWAP1 PUSH1 0x20 ADD DUP1 DUP4 GT PUSH2 0x49F JUMPI DUP3 SWAP1 SUB PUSH1 0x1F AND DUP3 ADD SWAP2 JUMPDEST POP POP POP POP POP SWAP2 POP DUP1 DUP1 SLOAD PUSH2 0x4CF SWAP1 PUSH2 0x2610 JUMP JUMPDEST DUP1 PUSH1 0x1F ADD PUSH1 0x20 DUP1 SWAP2 DIV MUL PUSH1 0x20 ADD PUSH1 0x40 MLOAD SWAP1 DUP2 ADD PUSH1 0x40 MSTORE DUP1 SWAP3 SWAP2 SWAP1 DUP2 DUP2 MSTORE PUSH1 0x20 ADD DUP3 DUP1 SLOAD PUSH2 0x4FB SWAP1 PUSH2 0x2610 JUMP JUMPDEST DUP1 ISZERO PUSH2 0x548 JUMPI DUP1 PUSH1 0x1F LT PUSH2 0x51D JUMPI PUSH2 0x100 DUP1 DUP4 SLOAD DIV MUL DUP4 MSTORE SWAP2 PUSH1 0x20 ADD SWAP2 PUSH2 0x548 JUMP JUMPDEST DUP3 ADD SWAP2 SWAP1 PUSH1 0x0 MSTORE PUSH1 0x20 PUSH1 0x0 KECCAK256 SWAP1 JUMPDEST DUP2 SLOAD DUP2 MSTORE SWAP1 PUSH1 0x1 ADD SWAP1 PUSH1 0x20 ADD DUP1 DUP4 GT PUSH2 0x52B JUMPI DUP3 SWAP1 SUB PUSH1 0x1F AND DUP3 ADD SWAP2 JUMPDEST POP POP POP POP POP SWAP1 POP SWAP2 POP SWAP2 POP SWAP2 POP SWAP2 JUMP JUMPDEST PUSH1 0x2 PUSH1 0x0 SWAP1 SLOAD SWAP1 PUSH2 0x100 EXP SWAP1 DIV PUSH20 0xFFFFFFFFFFFFFFFFFFFFFFFFFFFFFFFFFFFFFFFF AND PUSH20 0xFFFFFFFFFFFFFFFFFFFFFFFFFFFFFFFFFFFFFFFF AND CALLER PUSH20 0xFFFFFFFFFFFFFFFFFFFFFFFFFFFFFFFFFFFFFFFF AND EQ PUSH2 0x5B2 JUMPI PUSH1 0x0 DUP1 REVERT JUMPDEST PUSH1 0x0 CALLER SWAP1 POP PUSH1 0x1 PUSH1 0x0 DUP3 PUSH20 0xFFFFFFFFFFFFFFFFFFFFFFFFFFFFFFFFFFFFFFFF AND PUSH20 0xFFFFFFFFFFFFFFFFFFFFFFFFFFFFFFFFFFFFFFFF AND DUP2 MSTORE PUSH1 0x20 ADD SWAP1 DUP2 MSTORE PUSH1 0x20 ADD PUSH1 0x0 KECCAK256 PUSH1 0x9 ADD PUSH1 0x0 SWAP1 SLOAD SWAP1 PUSH2 0x100 EXP SWAP1 DIV PUSH1 0xFF AND ISZERO PUSH2 0x611 JUMPI PUSH1 0x0 DUP1 REVERT JUMPDEST DUP1 PUSH1 0x0 DUP1 PUSH2 0x100 EXP DUP2 SLOAD DUP2 PUSH20 0xFFFFFFFFFFFFFFFFFFFFFFFFFFFFFFFFFFFFFFFF MUL NOT AND SWAP1 DUP4 PUSH20 0xFFFFFFFFFFFFFFFFFFFFFFFFFFFFFFFFFFFFFFFF AND MUL OR SWAP1 SSTORE POP DUP12 PUSH1 0x1 PUSH1 0x0 DUP4 PUSH20 0xFFFFFFFFFFFFFFFFFFFFFFFFFFFFFFFFFFFFFFFF AND PUSH20 0xFFFFFFFFFFFFFFFFFFFFFFFFFFFFFFFFFFFFFFFF AND DUP2 MSTORE PUSH1 0x20 ADD SWAP1 DUP2 MSTORE PUSH1 0x20 ADD PUSH1 0x0 KECCAK256 PUSH1 0x0 ADD SWAP1 DUP1 MLOAD SWAP1 PUSH1 0x20 ADD SWAP1 PUSH2 0x6A7 SWAP3 SWAP2 SWAP1 PUSH2 0x1EDC JUMP JUMPDEST POP DUP11 PUSH1 0x1 PUSH1 0x0 DUP4 PUSH20 0xFFFFFFFFFFFFFFFFFFFFFFFFFFFFFFFFFFFFFFFF AND PUSH20 0xFFFFFFFFFFFFFFFFFFFFFFFFFFFFFFFFFFFFFFFF AND DUP2 MSTORE PUSH1 0x20 ADD SWAP1 DUP2 MSTORE PUSH1 0x20 ADD PUSH1 0x0 KECCAK256 PUSH1 0x1 ADD SWAP1 DUP1 MLOAD SWAP1 PUSH1 0x20 ADD SWAP1 PUSH2 0x6FE SWAP3 SWAP2 SWAP1 PUSH2 0x1EDC JUMP JUMPDEST POP DUP10 PUSH1 0x1 PUSH1 0x0 DUP4 PUSH20 0xFFFFFFFFFFFFFFFFFFFFFFFFFFFFFFFFFFFFFFFF AND PUSH20 0xFFFFFFFFFFFFFFFFFFFFFFFFFFFFFFFFFFFFFFFF AND DUP2 MSTORE PUSH1 0x20 ADD SWAP1 DUP2 MSTORE PUSH1 0x20 ADD PUSH1 0x0 KECCAK256 PUSH1 0x2 ADD SWAP1 DUP1 MLOAD SWAP1 PUSH1 0x20 ADD SWAP1 PUSH2 0x755 SWAP3 SWAP2 SWAP1 PUSH2 0x1EDC JUMP JUMPDEST POP DUP9 PUSH1 0x1 PUSH1 0x0 DUP4 PUSH20 0xFFFFFFFFFFFFFFFFFFFFFFFFFFFFFFFFFFFFFFFF AND PUSH20 0xFFFFFFFFFFFFFFFFFFFFFFFFFFFFFFFFFFFFFFFF AND DUP2 MSTORE PUSH1 0x20 ADD SWAP1 DUP2 MSTORE PUSH1 0x20 ADD PUSH1 0x0 KECCAK256 PUSH1 0x3 ADD SWAP1 DUP1 MLOAD SWAP1 PUSH1 0x20 ADD SWAP1 PUSH2 0x7AC SWAP3 SWAP2 SWAP1 PUSH2 0x1EDC JUMP JUMPDEST POP DUP8 PUSH1 0x1 PUSH1 0x0 DUP4 PUSH20 0xFFFFFFFFFFFFFFFFFFFFFFFFFFFFFFFFFFFFFFFF AND PUSH20 0xFFFFFFFFFFFFFFFFFFFFFFFFFFFFFFFFFFFFFFFF AND DUP2 MSTORE PUSH1 0x20 ADD SWAP1 DUP2 MSTORE PUSH1 0x20 ADD PUSH1 0x0 KECCAK256 PUSH1 0x4 ADD SWAP1 DUP1 MLOAD SWAP1 PUSH1 0x20 ADD SWAP1 PUSH2 0x803 SWAP3 SWAP2 SWAP1 PUSH2 0x1EDC JUMP JUMPDEST POP DUP7 PUSH1 0x1 PUSH1 0x0 DUP4 PUSH20 0xFFFFFFFFFFFFFFFFFFFFFFFFFFFFFFFFFFFFFFFF AND PUSH20 0xFFFFFFFFFFFFFFFFFFFFFFFFFFFFFFFFFFFFFFFF AND DUP2 MSTORE PUSH1 0x20 ADD SWAP1 DUP2 MSTORE PUSH1 0x20 ADD PUSH1 0x0 KECCAK256 PUSH1 0x5 ADD SWAP1 DUP1 MLOAD SWAP1 PUSH1 0x20 ADD SWAP1 PUSH2 0x85A SWAP3 SWAP2 SWAP1 PUSH2 0x1EDC JUMP JUMPDEST POP DUP6 PUSH1 0x1 PUSH1 0x0 DUP4 PUSH20 0xFFFFFFFFFFFFFFFFFFFFFFFFFFFFFFFFFFFFFFFF AND PUSH20 0xFFFFFFFFFFFFFFFFFFFFFFFFFFFFFFFFFFFFFFFF AND DUP2 MSTORE PUSH1 0x20 ADD SWAP1 DUP2 MSTORE PUSH1 0x20 ADD PUSH1 0x0 KECCAK256 PUSH1 0x6 ADD SWAP1 DUP1 MLOAD SWAP1 PUSH1 0x20 ADD SWAP1 PUSH2 0x8B1 SWAP3 SWAP2 SWAP1 PUSH2 0x1EDC JUMP JUMPDEST POP DUP5 PUSH1 0x1 PUSH1 0x0 DUP4 PUSH20 0xFFFFFFFFFFFFFFFFFFFFFFFFFFFFFFFFFFFFFFFF AND PUSH20 0xFFFFFFFFFFFFFFFFFFFFFFFFFFFFFFFFFFFFFFFF AND DUP2 MSTORE PUSH1 0x20 ADD SWAP1 DUP2 MSTORE PUSH1 0x20 ADD PUSH1 0x0 KECCAK256 PUSH1 0x7 ADD SWAP1 DUP1 MLOAD SWAP1 PUSH1 0x20 ADD SWAP1 PUSH2 0x908 SWAP3 SWAP2 SWAP1 PUSH2 0x1EDC JUMP JUMPDEST POP DUP4 PUSH1 0x1 PUSH1 0x0 DUP4 PUSH20 0xFFFFFFFFFFFFFFFFFFFFFFFFFFFFFFFFFFFFFFFF AND PUSH20 0xFFFFFFFFFFFFFFFFFFFFFFFFFFFFFFFFFFFFFFFF AND DUP2 MSTORE PUSH1 0x20 ADD SWAP1 DUP2 MSTORE PUSH1 0x20 ADD PUSH1 0x0 KECCAK256 PUSH1 0x8 ADD SWAP1 DUP1 MLOAD SWAP1 PUSH1 0x20 ADD SWAP1 PUSH2 0x95F SWAP3 SWAP2 SWAP1 PUSH2 0x1EDC JUMP JUMPDEST POP DUP3 PUSH1 0x1 PUSH1 0x0 DUP4 PUSH20 0xFFFFFFFFFFFFFFFFFFFFFFFFFFFFFFFFFFFFFFFF AND PUSH20 0xFFFFFFFFFFFFFFFFFFFFFFFFFFFFFFFFFFFFFFFF AND DUP2 MSTORE PUSH1 0x20 ADD SWAP1 DUP2 MSTORE PUSH1 0x20 ADD PUSH1 0x0 KECCAK256 PUSH1 0xA ADD SWAP1 DUP1 MLOAD SWAP1 PUSH1 0x20 ADD SWAP1 PUSH2 0x9B6 SWAP3 SWAP2 SWAP1 PUSH2 0x1EDC JUMP JUMPDEST POP DUP2 PUSH1 0x1 PUSH1 0x0 DUP4 PUSH20 0xFFFFFFFFFFFFFFFFFFFFFFFFFFFFFFFFFFFFFFFF AND PUSH20 0xFFFFFFFFFFFFFFFFFFFFFFFFFFFFFFFFFFFFFFFF AND DUP2 MSTORE PUSH1 0x20 ADD SWAP1 DUP2 MSTORE PUSH1 0x20 ADD PUSH1 0x0 KECCAK256 PUSH1 0xB ADD SWAP1 DUP1 MLOAD SWAP1 PUSH1 0x20 ADD SWAP1 PUSH2 0xA0D SWAP3 SWAP2 SWAP1 PUSH2 0x1EDC JUMP JUMPDEST POP PUSH1 0x1 DUP1 PUSH1 0x0 DUP4 PUSH20 0xFFFFFFFFFFFFFFFFFFFFFFFFFFFFFFFFFFFFFFFF AND PUSH20 0xFFFFFFFFFFFFFFFFFFFFFFFFFFFFFFFFFFFFFFFF AND DUP2 MSTORE PUSH1 0x20 ADD SWAP1 DUP2 MSTORE PUSH1 0x20 ADD PUSH1 0x0 KECCAK256 PUSH1 0x9 ADD PUSH1 0x0 PUSH2 0x100 EXP DUP2 SLOAD DUP2 PUSH1 0xFF MUL NOT AND SWAP1 DUP4 ISZERO ISZERO MUL OR SWAP1 SSTORE POP POP POP POP POP POP POP POP POP POP POP POP POP JUMP JUMPDEST PUSH1 0x2 PUSH1 0x0 SWAP1 SLOAD SWAP1 PUSH2 0x100 EXP SWAP1 DIV PUSH20 0xFFFFFFFFFFFFFFFFFFFFFFFFFFFFFFFFFFFFFFFF AND DUP2 JUMP JUMPDEST PUSH1 0x60 DUP1 PUSH1 0x1 PUSH1 0x0 DUP5 PUSH20 0xFFFFFFFFFFFFFFFFFFFFFFFFFFFFFFFFFFFFFFFF AND PUSH20 0xFFFFFFFFFFFFFFFFFFFFFFFFFFFFFFFFFFFFFFFF AND DUP2 MSTORE PUSH1 0x20 ADD SWAP1 DUP2 MSTORE PUSH1 0x20 ADD PUSH1 0x0 KECCAK256 PUSH1 0x9 ADD PUSH1 0x0 SWAP1 SLOAD SWAP1 PUSH2 0x100 EXP SWAP1 DIV PUSH1 0xFF AND PUSH2 0xAF8 JUMPI PUSH1 0x0 DUP1 REVERT JUMPDEST PUSH1 0x2 PUSH1 0x0 SWAP1 SLOAD SWAP1 PUSH2 0x100 EXP SWAP1 DIV PUSH20 0xFFFFFFFFFFFFFFFFFFFFFFFFFFFFFFFFFFFFFFFF AND PUSH20 0xFFFFFFFFFFFFFFFFFFFFFFFFFFFFFFFFFFFFFFFF AND DUP4 PUSH20 0xFFFFFFFFFFFFFFFFFFFFFFFFFFFFFFFFFFFFFFFF AND EQ PUSH2 0xB52 JUMPI PUSH1 0x0 DUP1 REVERT JUMPDEST PUSH1 0x1 PUSH1 0x0 DUP5 PUSH20 0xFFFFFFFFFFFFFFFFFFFFFFFFFFFFFFFFFFFFFFFF AND PUSH20 0xFFFFFFFFFFFFFFFFFFFFFFFFFFFFFFFFFFFFFFFF AND DUP2 MSTORE PUSH1 0x20 ADD SWAP1 DUP2 MSTORE PUSH1 0x20 ADD PUSH1 0x0 KECCAK256 PUSH1 0xA ADD PUSH1 0x1 PUSH1 0x0 DUP6 PUSH20 0xFFFFFFFFFFFFFFFFFFFFFFFFFFFFFFFFFFFFFFFF AND PUSH20 0xFFFFFFFFFFFFFFFFFFFFFFFFFFFFFFFFFFFFFFFF AND DUP2 MSTORE PUSH1 0x20 ADD SWAP1 DUP2 MSTORE PUSH1 0x20 ADD PUSH1 0x0 KECCAK256 PUSH1 0xB ADD DUP2 DUP1 SLOAD PUSH2 0xBE2 SWAP1 PUSH2 0x2610 JUMP JUMPDEST DUP1 PUSH1 0x1F ADD PUSH1 0x20 DUP1 SWAP2 DIV MUL PUSH1 0x20 ADD PUSH1 0x40 MLOAD SWAP1 DUP2 ADD PUSH1 0x40 MSTORE DUP1 SWAP3 SWAP2 SWAP1 DUP2 DUP2 MSTORE PUSH1 0x20 ADD DUP3 DUP1 SLOAD PUSH2 0xC0E SWAP1 PUSH2 0x2610 JUMP JUMPDEST DUP1 ISZERO PUSH2 0xC5B JUMPI DUP1 PUSH1 0x1F LT PUSH2 0xC30 JUMPI PUSH2 0x100 DUP1 DUP4 SLOAD DIV MUL DUP4 MSTORE SWAP2 PUSH1 0x20 ADD SWAP2 PUSH2 0xC5B JUMP JUMPDEST DUP3 ADD SWAP2 SWAP1 PUSH1 0x0 MSTORE PUSH1 0x20 PUSH1 0x0 KECCAK256 SWAP1 JUMPDEST DUP2 SLOAD DUP2 MSTORE SWAP1 PUSH1 0x1 ADD SWAP1 PUSH1 0x20 ADD DUP1 DUP4 GT PUSH2 0xC3E JUMPI DUP3 SWAP1 SUB PUSH1 0x1F AND DUP3 ADD SWAP2 JUMPDEST POP POP POP POP POP SWAP2 POP DUP1 DUP1 SLOAD PUSH2 0xC6E SWAP1 PUSH2 0x2610 JUMP JUMPDEST DUP1 PUSH1 0x1F ADD PUSH1 0x20 DUP1 SWAP2 DIV MUL PUSH1 0x20 ADD PUSH1 0x40 MLOAD SWAP1 DUP2 ADD PUSH1 0x40 MSTORE DUP1 SWAP3 SWAP2 SWAP1 DUP2 DUP2 MSTORE PUSH1 0x20 ADD DUP3 DUP1 SLOAD PUSH2 0xC9A SWAP1 PUSH2 0x2610 JUMP JUMPDEST DUP1 ISZERO PUSH2 0xCE7 JUMPI DUP1 PUSH1 0x1F LT PUSH2 0xCBC JUMPI PUSH2 0x100 DUP1 DUP4 SLOAD DIV MUL DUP4 MSTORE SWAP2 PUSH1 0x20 ADD SWAP2 PUSH2 0xCE7 JUMP JUMPDEST DUP3 ADD SWAP2 SWAP1 PUSH1 0x0 MSTORE PUSH1 0x20 PUSH1 0x0 KECCAK256 SWAP1 JUMPDEST DUP2 SLOAD DUP2 MSTORE SWAP1 PUSH1 0x1 ADD SWAP1 PUSH1 0x20 ADD DUP1 DUP4 GT PUSH2 0xCCA JUMPI DUP3 SWAP1 SUB PUSH1 0x1F AND DUP3 ADD SWAP2 JUMPDEST POP POP POP POP POP SWAP1 POP SWAP2 POP SWAP2 POP SWAP2 POP SWAP2 JUMP JUMPDEST PUSH1 0x60 DUP1 DUP3 PUSH20 0xFFFFFFFFFFFFFFFFFFFFFFFFFFFFFFFFFFFFFFFF AND PUSH1 0x3 PUSH1 0x0 SWAP1 SLOAD SWAP1 PUSH2 0x100 EXP SWAP1 DIV PUSH20 0xFFFFFFFFFFFFFFFFFFFFFFFFFFFFFFFFFFFFFFFF AND PUSH20 0xFFFFFFFFFFFFFFFFFFFFFFFFFFFFFFFFFFFFFFFF AND EQ PUSH2 0xD54 JUMPI PUSH1 0x0 DUP1 REVERT JUMPDEST PUSH1 0x1 PUSH1 0x0 DUP5 PUSH20 0xFFFFFFFFFFFFFFFFFFFFFFFFFFFFFFFFFFFFFFFF AND PUSH20 0xFFFFFFFFFFFFFFFFFFFFFFFFFFFFFFFFFFFFFFFF AND DUP2 MSTORE PUSH1 0x20 ADD SWAP1 DUP2 MSTORE PUSH1 0x20 ADD PUSH1 0x0 KECCAK256 PUSH1 0xA ADD PUSH1 0x1 PUSH1 0x0 DUP6 PUSH20 0xFFFFFFFFFFFFFFFFFFFFFFFFFFFFFFFFFFFFFFFF AND PUSH20 0xFFFFFFFFFFFFFFFFFFFFFFFFFFFFFFFFFFFFFFFF AND DUP2 MSTORE PUSH1 0x20 ADD SWAP1 DUP2 MSTORE PUSH1 0x20 ADD PUSH1 0x0 KECCAK256 PUSH1 0xB ADD DUP2 DUP1 SLOAD PUSH2 0xDE4 SWAP1 PUSH2 0x2610 JUMP JUMPDEST DUP1 PUSH1 0x1F ADD PUSH1 0x20 DUP1 SWAP2 DIV MUL PUSH1 0x20 ADD PUSH1 0x40 MLOAD SWAP1 DUP2 ADD PUSH1 0x40 MSTORE DUP1 SWAP3 SWAP2 SWAP1 DUP2 DUP2 MSTORE PUSH1 0x20 ADD DUP3 DUP1 SLOAD PUSH2 0xE10 SWAP1 PUSH2 0x2610 JUMP JUMPDEST DUP1 ISZERO PUSH2 0xE5D JUMPI DUP1 PUSH1 0x1F LT PUSH2 0xE32 JUMPI PUSH2 0x100 DUP1 DUP4 SLOAD DIV MUL DUP4 MSTORE SWAP2 PUSH1 0x20 ADD SWAP2 PUSH2 0xE5D JUMP JUMPDEST DUP3 ADD SWAP2 SWAP1 PUSH1 0x0 MSTORE PUSH1 0x20 PUSH1 0x0 KECCAK256 SWAP1 JUMPDEST DUP2 SLOAD DUP2 MSTORE SWAP1 PUSH1 0x1 ADD SWAP1 PUSH1 0x20 ADD DUP1 DUP4 GT PUSH2 0xE40 JUMPI DUP3 SWAP1 SUB PUSH1 0x1F AND DUP3 ADD SWAP2 JUMPDEST POP POP POP POP POP SWAP2 POP DUP1 DUP1 SLOAD PUSH2 0xE70 SWAP1 PUSH2 0x2610 JUMP JUMPDEST DUP1 PUSH1 0x1F ADD PUSH1 0x20 DUP1 SWAP2 DIV MUL PUSH1 0x20 ADD PUSH1 0x40 MLOAD SWAP1 DUP2 ADD PUSH1 0x40 MSTORE DUP1 SWAP3 SWAP2 SWAP1 DUP2 DUP2 MSTORE PUSH1 0x20 ADD DUP3 DUP1 SLOAD PUSH2 0xE9C SWAP1 PUSH2 0x2610 JUMP JUMPDEST DUP1 ISZERO PUSH2 0xEE9 JUMPI DUP1 PUSH1 0x1F LT PUSH2 0xEBE JUMPI PUSH2 0x100 DUP1 DUP4 SLOAD DIV MUL DUP4 MSTORE SWAP2 PUSH1 0x20 ADD SWAP2 PUSH2 0xEE9 JUMP JUMPDEST DUP3 ADD SWAP2 SWAP1 PUSH1 0x0 MSTORE PUSH1 0x20 PUSH1 0x0 KECCAK256 SWAP1 JUMPDEST DUP2 SLOAD DUP2 MSTORE SWAP1 PUSH1 0x1 ADD SWAP1 PUSH1 0x20 ADD DUP1 DUP4 GT PUSH2 0xECC JUMPI DUP3 SWAP1 SUB PUSH1 0x1F AND DUP3 ADD SWAP2 JUMPDEST POP POP POP POP POP SWAP1 POP SWAP2 POP SWAP2 POP SWAP2 POP SWAP2 JUMP JUMPDEST PUSH1 0x3 PUSH1 0x0 SWAP1 SLOAD SWAP1 PUSH2 0x100 EXP SWAP1 DIV PUSH20 0xFFFFFFFFFFFFFFFFFFFFFFFFFFFFFFFFFFFFFFFF AND DUP2 JUMP JUMPDEST PUSH1 0x60 DUP1 PUSH1 0x60 DUP1 PUSH1 0x60 DUP1 PUSH1 0x60 DUP1 PUSH1 0x60 DUP10 PUSH20 0xFFFFFFFFFFFFFFFFFFFFFFFFFFFFFFFFFFFFFFFF AND PUSH1 0x3 PUSH1 0x0 SWAP1 SLOAD SWAP1 PUSH2 0x100 EXP SWAP1 DIV PUSH20 0xFFFFFFFFFFFFFFFFFFFFFFFFFFFFFFFFFFFFFFFF AND PUSH20 0xFFFFFFFFFFFFFFFFFFFFFFFFFFFFFFFFFFFFFFFF AND EQ PUSH2 0xF87 JUMPI PUSH1 0x0 DUP1 REVERT JUMPDEST PUSH1 0x1 PUSH1 0x0 PUSH1 0x2 PUSH1 0x0 SWAP1 SLOAD SWAP1 PUSH2 0x100 EXP SWAP1 DIV PUSH20 0xFFFFFFFFFFFFFFFFFFFFFFFFFFFFFFFFFFFFFFFF AND PUSH20 0xFFFFFFFFFFFFFFFFFFFFFFFFFFFFFFFFFFFFFFFF AND PUSH20 0xFFFFFFFFFFFFFFFFFFFFFFFFFFFFFFFFFFFFFFFF AND DUP2 MSTORE PUSH1 0x20 ADD SWAP1 DUP2 MSTORE PUSH1 0x20 ADD PUSH1 0x0 KECCAK256 PUSH1 0x0 ADD PUSH1 0x1 PUSH1 0x0 PUSH1 0x2 PUSH1 0x0 SWAP1 SLOAD SWAP1 PUSH2 0x100 EXP SWAP1 DIV PUSH20 0xFFFFFFFFFFFFFFFFFFFFFFFFFFFFFFFFFFFFFFFF AND PUSH20 0xFFFFFFFFFFFFFFFFFFFFFFFFFFFFFFFFFFFFFFFF AND PUSH20 0xFFFFFFFFFFFFFFFFFFFFFFFFFFFFFFFFFFFFFFFF AND DUP2 MSTORE PUSH1 0x20 ADD SWAP1 DUP2 MSTORE PUSH1 0x20 ADD PUSH1 0x0 KECCAK256 PUSH1 0x1 ADD PUSH1 0x1 PUSH1 0x0 PUSH1 0x2 PUSH1 0x0 SWAP1 SLOAD SWAP1 PUSH2 0x100 EXP SWAP1 DIV PUSH20 0xFFFFFFFFFFFFFFFFFFFFFFFFFFFFFFFFFFFFFFFF AND PUSH20 0xFFFFFFFFFFFFFFFFFFFFFFFFFFFFFFFFFFFFFFFF AND PUSH20 0xFFFFFFFFFFFFFFFFFFFFFFFFFFFFFFFFFFFFFFFF AND DUP2 MSTORE PUSH1 0x20 ADD SWAP1 DUP2 MSTORE PUSH1 0x20 ADD PUSH1 0x0 KECCAK256 PUSH1 0x2 ADD PUSH1 0x1 PUSH1 0x0 PUSH1 0x2 PUSH1 0x0 SWAP1 SLOAD SWAP1 PUSH2 0x100 EXP SWAP1 DIV PUSH20 0xFFFFFFFFFFFFFFFFFFFFFFFFFFFFFFFFFFFFFFFF AND PUSH20 0xFFFFFFFFFFFFFFFFFFFFFFFFFFFFFFFFFFFFFFFF AND PUSH20 0xFFFFFFFFFFFFFFFFFFFFFFFFFFFFFFFFFFFFFFFF AND DUP2 MSTORE PUSH1 0x20 ADD SWAP1 DUP2 MSTORE PUSH1 0x20 ADD PUSH1 0x0 KECCAK256 PUSH1 0x3 ADD PUSH1 0x1 PUSH1 0x0 PUSH1 0x2 PUSH1 0x0 SWAP1 SLOAD SWAP1 PUSH2 0x100 EXP SWAP1 DIV PUSH20 0xFFFFFFFFFFFFFFFFFFFFFFFFFFFFFFFFFFFFFFFF AND PUSH20 0xFFFFFFFFFFFFFFFFFFFFFFFFFFFFFFFFFFFFFFFF AND PUSH20 0xFFFFFFFFFFFFFFFFFFFFFFFFFFFFFFFFFFFFFFFF AND DUP2 MSTORE PUSH1 0x20 ADD SWAP1 DUP2 MSTORE PUSH1 0x20 ADD PUSH1 0x0 KECCAK256 PUSH1 0x4 ADD PUSH1 0x1 PUSH1 0x0 PUSH1 0x2 PUSH1 0x0 SWAP1 SLOAD SWAP1 PUSH2 0x100 EXP SWAP1 DIV PUSH20 0xFFFFFFFFFFFFFFFFFFFFFFFFFFFFFFFFFFFFFFFF AND PUSH20 0xFFFFFFFFFFFFFFFFFFFFFFFFFFFFFFFFFFFFFFFF AND PUSH20 0xFFFFFFFFFFFFFFFFFFFFFFFFFFFFFFFFFFFFFFFF AND DUP2 MSTORE PUSH1 0x20 ADD SWAP1 DUP2 MSTORE PUSH1 0x20 ADD PUSH1 0x0 KECCAK256 PUSH1 0x5 ADD PUSH1 0x1 PUSH1 0x0 PUSH1 0x2 PUSH1 0x0 SWAP1 SLOAD SWAP1 PUSH2 0x100 EXP SWAP1 DIV PUSH20 0xFFFFFFFFFFFFFFFFFFFFFFFFFFFFFFFFFFFFFFFF AND PUSH20 0xFFFFFFFFFFFFFFFFFFFFFFFFFFFFFFFFFFFFFFFF AND PUSH20 0xFFFFFFFFFFFFFFFFFFFFFFFFFFFFFFFFFFFFFFFF AND DUP2 MSTORE PUSH1 0x20 ADD SWAP1 DUP2 MSTORE PUSH1 0x20 ADD PUSH1 0x0 KECCAK256 PUSH1 0x6 ADD PUSH1 0x1 PUSH1 0x0 PUSH1 0x2 PUSH1 0x0 SWAP1 SLOAD SWAP1 PUSH2 0x100 EXP SWAP1 DIV PUSH20 0xFFFFFFFFFFFFFFFFFFFFFFFFFFFFFFFFFFFFFFFF AND PUSH20 0xFFFFFFFFFFFFFFFFFFFFFFFFFFFFFFFFFFFFFFFF AND PUSH20 0xFFFFFFFFFFFFFFFFFFFFFFFFFFFFFFFFFFFFFFFF AND DUP2 MSTORE PUSH1 0x20 ADD SWAP1 DUP2 MSTORE PUSH1 0x20 ADD PUSH1 0x0 KECCAK256 PUSH1 0x7 ADD PUSH1 0x1 PUSH1 0x0 PUSH1 0x2 PUSH1 0x0 SWAP1 SLOAD SWAP1 PUSH2 0x100 EXP SWAP1 DIV PUSH20 0xFFFFFFFFFFFFFFFFFFFFFFFFFFFFFFFFFFFFFFFF AND PUSH20 0xFFFFFFFFFFFFFFFFFFFFFFFFFFFFFFFFFFFFFFFF AND PUSH20 0xFFFFFFFFFFFFFFFFFFFFFFFFFFFFFFFFFFFFFFFF AND DUP2 MSTORE PUSH1 0x20 ADD SWAP1 DUP2 MSTORE PUSH1 0x20 ADD PUSH1 0x0 KECCAK256 PUSH1 0x8 ADD DUP9 DUP1 SLOAD PUSH2 0x1317 SWAP1 PUSH2 0x2610 JUMP JUMPDEST DUP1 PUSH1 0x1F ADD PUSH1 0x20 DUP1 SWAP2 DIV MUL PUSH1 0x20 ADD PUSH1 0x40 MLOAD SWAP1 DUP2 ADD PUSH1 0x40 MSTORE DUP1 SWAP3 SWAP2 SWAP1 DUP2 DUP2 MSTORE PUSH1 0x20 ADD DUP3 DUP1 SLOAD PUSH2 0x1343 SWAP1 PUSH2 0x2610 JUMP JUMPDEST DUP1 ISZERO PUSH2 0x1390 JUMPI DUP1 PUSH1 0x1F LT PUSH2 0x1365 JUMPI PUSH2 0x100 DUP1 DUP4 SLOAD DIV MUL DUP4 MSTORE SWAP2 PUSH1 0x20 ADD SWAP2 PUSH2 0x1390 JUMP JUMPDEST DUP3 ADD SWAP2 SWAP1 PUSH1 0x0 MSTORE PUSH1 0x20 PUSH1 0x0 KECCAK256 SWAP1 JUMPDEST DUP2 SLOAD DUP2 MSTORE SWAP1 PUSH1 0x1 ADD SWAP1 PUSH1 0x20 ADD DUP1 DUP4 GT PUSH2 0x1373 JUMPI DUP3 SWAP1 SUB PUSH1 0x1F AND DUP3 ADD SWAP2 JUMPDEST POP POP POP POP POP SWAP9 POP DUP8 DUP1 SLOAD PUSH2 0x13A3 SWAP1 PUSH2 0x2610 JUMP JUMPDEST DUP1 PUSH1 0x1F ADD PUSH1 0x20 DUP1 SWAP2 DIV MUL PUSH1 0x20 ADD PUSH1 0x40 MLOAD SWAP1 DUP2 ADD PUSH1 0x40 MSTORE DUP1 SWAP3 SWAP2 SWAP1 DUP2 DUP2 MSTORE PUSH1 0x20 ADD DUP3 DUP1 SLOAD PUSH2 0x13CF SWAP1 PUSH2 0x2610 JUMP JUMPDEST DUP1 ISZERO PUSH2 0x141C JUMPI DUP1 PUSH1 0x1F LT PUSH2 0x13F1 JUMPI PUSH2 0x100 DUP1 DUP4 SLOAD DIV MUL DUP4 MSTORE SWAP2 PUSH1 0x20 ADD SWAP2 PUSH2 0x141C JUMP JUMPDEST DUP3 ADD SWAP2 SWAP1 PUSH1 0x0 MSTORE PUSH1 0x20 PUSH1 0x0 KECCAK256 SWAP1 JUMPDEST DUP2 SLOAD DUP2 MSTORE SWAP1 PUSH1 0x1 ADD SWAP1 PUSH1 0x20 ADD DUP1 DUP4 GT PUSH2 0x13FF JUMPI DUP3 SWAP1 SUB PUSH1 0x1F AND DUP3 ADD SWAP2 JUMPDEST POP POP POP POP POP SWAP8 POP DUP7 DUP1 SLOAD PUSH2 0x142F SWAP1 PUSH2 0x2610 JUMP JUMPDEST DUP1 PUSH1 0x1F ADD PUSH1 0x20 DUP1 SWAP2 DIV MUL PUSH1 0x20 ADD PUSH1 0x40 MLOAD SWAP1 DUP2 ADD PUSH1 0x40 MSTORE DUP1 SWAP3 SWAP2 SWAP1 DUP2 DUP2 MSTORE PUSH1 0x20 ADD DUP3 DUP1 SLOAD PUSH2 0x145B SWAP1 PUSH2 0x2610 JUMP JUMPDEST DUP1 ISZERO PUSH2 0x14A8 JUMPI DUP1 PUSH1 0x1F LT PUSH2 0x147D JUMPI PUSH2 0x100 DUP1 DUP4 SLOAD DIV MUL DUP4 MSTORE SWAP2 PUSH1 0x20 ADD SWAP2 PUSH2 0x14A8 JUMP JUMPDEST DUP3 ADD SWAP2 SWAP1 PUSH1 0x0 MSTORE PUSH1 0x20 PUSH1 0x0 KECCAK256 SWAP1 JUMPDEST DUP2 SLOAD DUP2 MSTORE SWAP1 PUSH1 0x1 ADD SWAP1 PUSH1 0x20 ADD DUP1 DUP4 GT PUSH2 0x148B JUMPI DUP3 SWAP1 SUB PUSH1 0x1F AND DUP3 ADD SWAP2 JUMPDEST POP POP POP POP POP SWAP7 POP DUP6 DUP1 SLOAD PUSH2 0x14BB SWAP1 PUSH2 0x2610 JUMP JUMPDEST DUP1 PUSH1 0x1F ADD PUSH1 0x20 DUP1 SWAP2 DIV MUL PUSH1 0x20 ADD PUSH1 0x40 MLOAD SWAP1 DUP2 ADD PUSH1 0x40 MSTORE DUP1 SWAP3 SWAP2 SWAP1 DUP2 DUP2 MSTORE PUSH1 0x20 ADD DUP3 DUP1 SLOAD PUSH2 0x14E7 SWAP1 PUSH2 0x2610 JUMP JUMPDEST DUP1 ISZERO PUSH2 0x1534 JUMPI DUP1 PUSH1 0x1F LT PUSH2 0x1509 JUMPI PUSH2 0x100 DUP1 DUP4 SLOAD DIV MUL DUP4 MSTORE SWAP2 PUSH1 0x20 ADD SWAP2 PUSH2 0x1534 JUMP JUMPDEST DUP3 ADD SWAP2 SWAP1 PUSH1 0x0 MSTORE PUSH1 0x20 PUSH1 0x0 KECCAK256 SWAP1 JUMPDEST DUP2 SLOAD DUP2 MSTORE SWAP1 PUSH1 0x1 ADD SWAP1 PUSH1 0x20 ADD DUP1 DUP4 GT PUSH2 0x1517 JUMPI DUP3 SWAP1 SUB PUSH1 0x1F AND DUP3 ADD SWAP2 JUMPDEST POP POP POP POP POP SWAP6 POP DUP5 DUP1 SLOAD PUSH2 0x1547 SWAP1 PUSH2 0x2610 JUMP JUMPDEST DUP1 PUSH1 0x1F ADD PUSH1 0x20 DUP1 SWAP2 DIV MUL PUSH1 0x20 ADD PUSH1 0x40 MLOAD SWAP1 DUP2 ADD PUSH1 0x40 MSTORE DUP1 SWAP3 SWAP2 SWAP1 DUP2 DUP2 MSTORE PUSH1 0x20 ADD DUP3 DUP1 SLOAD PUSH2 0x1573 SWAP1 PUSH2 0x2610 JUMP JUMPDEST DUP1 ISZERO PUSH2 0x15C0 JUMPI DUP1 PUSH1 0x1F LT PUSH2 0x1595 JUMPI PUSH2 0x100 DUP1 DUP4 SLOAD DIV MUL DUP4 MSTORE SWAP2 PUSH1 0x20 ADD SWAP2 PUSH2 0x15C0 JUMP JUMPDEST DUP3 ADD SWAP2 SWAP1 PUSH1 0x0 MSTORE PUSH1 0x20 PUSH1 0x0 KECCAK256 SWAP1 JUMPDEST DUP2 SLOAD DUP2 MSTORE SWAP1 PUSH1 0x1 ADD SWAP1 PUSH1 0x20 ADD DUP1 DUP4 GT PUSH2 0x15A3 JUMPI DUP3 SWAP1 SUB PUSH1 0x1F AND DUP3 ADD SWAP2 JUMPDEST POP POP POP POP POP SWAP5 POP DUP4 DUP1 SLOAD PUSH2 0x15D3 SWAP1 PUSH2 0x2610 JUMP JUMPDEST DUP1 PUSH1 0x1F ADD PUSH1 0x20 DUP1 SWAP2 DIV MUL PUSH1 0x20 ADD PUSH1 0x40 MLOAD SWAP1 DUP2 ADD PUSH1 0x40 MSTORE DUP1 SWAP3 SWAP2 SWAP1 DUP2 DUP2 MSTORE PUSH1 0x20 ADD DUP3 DUP1 SLOAD PUSH2 0x15FF SWAP1 PUSH2 0x2610 JUMP JUMPDEST DUP1 ISZERO PUSH2 0x164C JUMPI DUP1 PUSH1 0x1F LT PUSH2 0x1621 JUMPI PUSH2 0x100 DUP1 DUP4 SLOAD DIV MUL DUP4 MSTORE SWAP2 PUSH1 0x20 ADD SWAP2 PUSH2 0x164C JUMP JUMPDEST DUP3 ADD SWAP2 SWAP1 PUSH1 0x0 MSTORE PUSH1 0x20 PUSH1 0x0 KECCAK256 SWAP1 JUMPDEST DUP2 SLOAD DUP2 MSTORE SWAP1 PUSH1 0x1 ADD SWAP1 PUSH1 0x20 ADD DUP1 DUP4 GT PUSH2 0x162F JUMPI DUP3 SWAP1 SUB PUSH1 0x1F AND DUP3 ADD SWAP2 JUMPDEST POP POP POP POP POP SWAP4 POP DUP3 DUP1 SLOAD PUSH2 0x165F SWAP1 PUSH2 0x2610 JUMP JUMPDEST DUP1 PUSH1 0x1F ADD PUSH1 0x20 DUP1 SWAP2 DIV MUL PUSH1 0x20 ADD PUSH1 0x40 MLOAD SWAP1 DUP2 ADD PUSH1 0x40 MSTORE DUP1 SWAP3 SWAP2 SWAP1 DUP2 DUP2 MSTORE PUSH1 0x20 ADD DUP3 DUP1 SLOAD PUSH2 0x168B SWAP1 PUSH2 0x2610 JUMP JUMPDEST DUP1 ISZERO PUSH2 0x16D8 JUMPI DUP1 PUSH1 0x1F LT PUSH2 0x16AD JUMPI PUSH2 0x100 DUP1 DUP4 SLOAD DIV MUL DUP4 MSTORE SWAP2 PUSH1 0x20 ADD SWAP2 PUSH2 0x16D8 JUMP JUMPDEST DUP3 ADD SWAP2 SWAP1 PUSH1 0x0 MSTORE PUSH1 0x20 PUSH1 0x0 KECCAK256 SWAP1 JUMPDEST DUP2 SLOAD DUP2 MSTORE SWAP1 PUSH1 0x1 ADD SWAP1 PUSH1 0x20 ADD DUP1 DUP4 GT PUSH2 0x16BB JUMPI DUP3 SWAP1 SUB PUSH1 0x1F AND DUP3 ADD SWAP2 JUMPDEST POP POP POP POP POP SWAP3 POP DUP2 DUP1 SLOAD PUSH2 0x16EB SWAP1 PUSH2 0x2610 JUMP JUMPDEST DUP1 PUSH1 0x1F ADD PUSH1 0x20 DUP1 SWAP2 DIV MUL PUSH1 0x20 ADD PUSH1 0x40 MLOAD SWAP1 DUP2 ADD PUSH1 0x40 MSTORE DUP1 SWAP3 SWAP2 SWAP1 DUP2 DUP2 MSTORE PUSH1 0x20 ADD DUP3 DUP1 SLOAD PUSH2 0x1717 SWAP1 PUSH2 0x2610 JUMP JUMPDEST DUP1 ISZERO PUSH2 0x1764 JUMPI DUP1 PUSH1 0x1F LT PUSH2 0x1739 JUMPI PUSH2 0x100 DUP1 DUP4 SLOAD DIV MUL DUP4 MSTORE SWAP2 PUSH1 0x20 ADD SWAP2 PUSH2 0x1764 JUMP JUMPDEST DUP3 ADD SWAP2 SWAP1 PUSH1 0x0 MSTORE PUSH1 0x20 PUSH1 0x0 KECCAK256 SWAP1 JUMPDEST DUP2 SLOAD DUP2 MSTORE SWAP1 PUSH1 0x1 ADD SWAP1 PUSH1 0x20 ADD DUP1 DUP4 GT PUSH2 0x1747 JUMPI DUP3 SWAP1 SUB PUSH1 0x1F AND DUP3 ADD SWAP2 JUMPDEST POP POP POP POP POP SWAP2 POP DUP1 DUP1 SLOAD PUSH2 0x1777 SWAP1 PUSH2 0x2610 JUMP JUMPDEST DUP1 PUSH1 0x1F ADD PUSH1 0x20 DUP1 SWAP2 DIV MUL PUSH1 0x20 ADD PUSH1 0x40 MLOAD SWAP1 DUP2 ADD PUSH1 0x40 MSTORE DUP1 SWAP3 SWAP2 SWAP1 DUP2 DUP2 MSTORE PUSH1 0x20 ADD DUP3 DUP1 SLOAD PUSH2 0x17A3 SWAP1 PUSH2 0x2610 JUMP JUMPDEST DUP1 ISZERO PUSH2 0x17F0 JUMPI DUP1 PUSH1 0x1F LT PUSH2 0x17C5 JUMPI PUSH2 0x100 DUP1 DUP4 SLOAD DIV MUL DUP4 MSTORE SWAP2 PUSH1 0x20 ADD SWAP2 PUSH2 0x17F0 JUMP JUMPDEST DUP3 ADD SWAP2 SWAP1 PUSH1 0x0 MSTORE PUSH1 0x20 PUSH1 0x0 KECCAK256 SWAP1 JUMPDEST DUP2 SLOAD DUP2 MSTORE SWAP1 PUSH1 0x1 ADD SWAP1 PUSH1 0x20 ADD DUP1 DUP4 GT PUSH2 0x17D3 JUMPI DUP3 SWAP1 SUB PUSH1 0x1F AND DUP3 ADD SWAP2 JUMPDEST POP POP POP POP POP SWAP1 POP SWAP9 POP SWAP9 POP SWAP9 POP SWAP9 POP SWAP9 POP SWAP9 POP SWAP9 POP SWAP9 POP SWAP9 POP SWAP2 SWAP4 SWAP6 SWAP8 SWAP10 SWAP1 SWAP3 SWAP5 SWAP7 SWAP9 POP JUMP JUMPDEST PUSH1 0x0 DUP1 PUSH1 0x0 SWAP1 SLOAD SWAP1 PUSH2 0x100 EXP SWAP1 DIV PUSH20 0xFFFFFFFFFFFFFFFFFFFFFFFFFFFFFFFFFFFFFFFF AND SWAP1 POP SWAP1 JUMP JUMPDEST PUSH1 0x60 DUP1 PUSH1 0x60 DUP1 PUSH1 0x60 DUP1 PUSH1 0x60 PUSH1 0x1 PUSH1 0x0 DUP10 PUSH20 0xFFFFFFFFFFFFFFFFFFFFFFFFFFFFFFFFFFFFFFFF AND PUSH20 0xFFFFFFFFFFFFFFFFFFFFFFFFFFFFFFFFFFFFFFFF AND DUP2 MSTORE PUSH1 0x20 ADD SWAP1 DUP2 MSTORE PUSH1 0x20 ADD PUSH1 0x0 KECCAK256 PUSH1 0x9 ADD PUSH1 0x0 SWAP1 SLOAD SWAP1 PUSH2 0x100 EXP SWAP1 DIV PUSH1 0xFF AND PUSH2 0x18A3 JUMPI PUSH1 0x0 DUP1 REVERT JUMPDEST PUSH1 0x2 PUSH1 0x0 SWAP1 SLOAD SWAP1 PUSH2 0x100 EXP SWAP1 DIV PUSH20 0xFFFFFFFFFFFFFFFFFFFFFFFFFFFFFFFFFFFFFFFF AND PUSH20 0xFFFFFFFFFFFFFFFFFFFFFFFFFFFFFFFFFFFFFFFF AND DUP9 PUSH20 0xFFFFFFFFFFFFFFFFFFFFFFFFFFFFFFFFFFFFFFFF AND EQ PUSH2 0x18FD JUMPI PUSH1 0x0 DUP1 REVERT JUMPDEST PUSH1 0x1 PUSH1 0x0 DUP10 PUSH20 0xFFFFFFFFFFFFFFFFFFFFFFFFFFFFFFFFFFFFFFFF AND PUSH20 0xFFFFFFFFFFFFFFFFFFFFFFFFFFFFFFFFFFFFFFFF AND DUP2 MSTORE PUSH1 0x20 ADD SWAP1 DUP2 MSTORE PUSH1 0x20 ADD PUSH1 0x0 KECCAK256 PUSH1 0x0 ADD PUSH1 0x1 PUSH1 0x0 DUP11 PUSH20 0xFFFFFFFFFFFFFFFFFFFFFFFFFFFFFFFFFFFFFFFF AND PUSH20 0xFFFFFFFFFFFFFFFFFFFFFFFFFFFFFFFFFFFFFFFF AND DUP2 MSTORE PUSH1 0x20 ADD SWAP1 DUP2 MSTORE PUSH1 0x20 ADD PUSH1 0x0 KECCAK256 PUSH1 0x1 ADD PUSH1 0x1 PUSH1 0x0 DUP12 PUSH20 0xFFFFFFFFFFFFFFFFFFFFFFFFFFFFFFFFFFFFFFFF AND PUSH20 0xFFFFFFFFFFFFFFFFFFFFFFFFFFFFFFFFFFFFFFFF AND DUP2 MSTORE PUSH1 0x20 ADD SWAP1 DUP2 MSTORE PUSH1 0x20 ADD PUSH1 0x0 KECCAK256 PUSH1 0x2 ADD PUSH1 0x1 PUSH1 0x0 DUP13 PUSH20 0xFFFFFFFFFFFFFFFFFFFFFFFFFFFFFFFFFFFFFFFF AND PUSH20 0xFFFFFFFFFFFFFFFFFFFFFFFFFFFFFFFFFFFFFFFF AND DUP2 MSTORE PUSH1 0x20 ADD SWAP1 DUP2 MSTORE PUSH1 0x20 ADD PUSH1 0x0 KECCAK256 PUSH1 0x3 ADD PUSH1 0x1 PUSH1 0x0 DUP14 PUSH20 0xFFFFFFFFFFFFFFFFFFFFFFFFFFFFFFFFFFFFFFFF AND PUSH20 0xFFFFFFFFFFFFFFFFFFFFFFFFFFFFFFFFFFFFFFFF AND DUP2 MSTORE PUSH1 0x20 ADD SWAP1 DUP2 MSTORE PUSH1 0x20 ADD PUSH1 0x0 KECCAK256 PUSH1 0x4 ADD PUSH1 0x1 PUSH1 0x0 DUP15 PUSH20 0xFFFFFFFFFFFFFFFFFFFFFFFFFFFFFFFFFFFFFFFF AND PUSH20 0xFFFFFFFFFFFFFFFFFFFFFFFFFFFFFFFFFFFFFFFF AND DUP2 MSTORE PUSH1 0x20 ADD SWAP1 DUP2 MSTORE PUSH1 0x20 ADD PUSH1 0x0 KECCAK256 PUSH1 0x5 ADD PUSH1 0x1 PUSH1 0x0 DUP16 PUSH20 0xFFFFFFFFFFFFFFFFFFFFFFFFFFFFFFFFFFFFFFFF AND PUSH20 0xFFFFFFFFFFFFFFFFFFFFFFFFFFFFFFFFFFFFFFFF AND DUP2 MSTORE PUSH1 0x20 ADD SWAP1 DUP2 MSTORE PUSH1 0x20 ADD PUSH1 0x0 KECCAK256 PUSH1 0x6 ADD DUP7 DUP1 SLOAD PUSH2 0x1AD7 SWAP1 PUSH2 0x2610 JUMP JUMPDEST DUP1 PUSH1 0x1F ADD PUSH1 0x20 DUP1 SWAP2 DIV MUL PUSH1 0x20 ADD PUSH1 0x40 MLOAD SWAP1 DUP2 ADD PUSH1 0x40 MSTORE DUP1 SWAP3 SWAP2 SWAP1 DUP2 DUP2 MSTORE PUSH1 0x20 ADD DUP3 DUP1 SLOAD PUSH2 0x1B03 SWAP1 PUSH2 0x2610 JUMP JUMPDEST DUP1 ISZERO PUSH2 0x1B50 JUMPI DUP1 PUSH1 0x1F LT PUSH2 0x1B25 JUMPI PUSH2 0x100 DUP1 DUP4 SLOAD DIV MUL DUP4 MSTORE SWAP2 PUSH1 0x20 ADD SWAP2 PUSH2 0x1B50 JUMP JUMPDEST DUP3 ADD SWAP2 SWAP1 PUSH1 0x0 MSTORE PUSH1 0x20 PUSH1 0x0 KECCAK256 SWAP1 JUMPDEST DUP2 SLOAD DUP2 MSTORE SWAP1 PUSH1 0x1 ADD SWAP1 PUSH1 0x20 ADD DUP1 DUP4 GT PUSH2 0x1B33 JUMPI DUP3 SWAP1 SUB PUSH1 0x1F AND DUP3 ADD SWAP2 JUMPDEST POP POP POP POP POP SWAP7 POP DUP6 DUP1 SLOAD PUSH2 0x1B63 SWAP1 PUSH2 0x2610 JUMP JUMPDEST DUP1 PUSH1 0x1F ADD PUSH1 0x20 DUP1 SWAP2 DIV MUL PUSH1 0x20 ADD PUSH1 0x40 MLOAD SWAP1 DUP2 ADD PUSH1 0x40 MSTORE DUP1 SWAP3 SWAP2 SWAP1 DUP2 DUP2 MSTORE PUSH1 0x20 ADD DUP3 DUP1 SLOAD PUSH2 0x1B8F SWAP1 PUSH2 0x2610 JUMP JUMPDEST DUP1 ISZERO PUSH2 0x1BDC JUMPI DUP1 PUSH1 0x1F LT PUSH2 0x1BB1 JUMPI PUSH2 0x100 DUP1 DUP4 SLOAD DIV MUL DUP4 MSTORE SWAP2 PUSH1 0x20 ADD SWAP2 PUSH2 0x1BDC JUMP JUMPDEST DUP3 ADD SWAP2 SWAP1 PUSH1 0x0 MSTORE PUSH1 0x20 PUSH1 0x0 KECCAK256 SWAP1 JUMPDEST DUP2 SLOAD DUP2 MSTORE SWAP1 PUSH1 0x1 ADD SWAP1 PUSH1 0x20 ADD DUP1 DUP4 GT PUSH2 0x1BBF JUMPI DUP3 SWAP1 SUB PUSH1 0x1F AND DUP3 ADD SWAP2 JUMPDEST POP POP POP POP POP SWAP6 POP DUP5 DUP1 SLOAD PUSH2 0x1BEF SWAP1 PUSH2 0x2610 JUMP JUMPDEST DUP1 PUSH1 0x1F ADD PUSH1 0x20 DUP1 SWAP2 DIV MUL PUSH1 0x20 ADD PUSH1 0x40 MLOAD SWAP1 DUP2 ADD PUSH1 0x40 MSTORE DUP1 SWAP3 SWAP2 SWAP1 DUP2 DUP2 MSTORE PUSH1 0x20 ADD DUP3 DUP1 SLOAD PUSH2 0x1C1B SWAP1 PUSH2 0x2610 JUMP JUMPDEST DUP1 ISZERO PUSH2 0x1C68 JUMPI DUP1 PUSH1 0x1F LT PUSH2 0x1C3D JUMPI PUSH2 0x100 DUP1 DUP4 SLOAD DIV MUL DUP4 MSTORE SWAP2 PUSH1 0x20 ADD SWAP2 PUSH2 0x1C68 JUMP JUMPDEST DUP3 ADD SWAP2 SWAP1 PUSH1 0x0 MSTORE PUSH1 0x20 PUSH1 0x0 KECCAK256 SWAP1 JUMPDEST DUP2 SLOAD DUP2 MSTORE SWAP1 PUSH1 0x1 ADD SWAP1 PUSH1 0x20 ADD DUP1 DUP4 GT PUSH2 0x1C4B JUMPI DUP3 SWAP1 SUB PUSH1 0x1F AND DUP3 ADD SWAP2 JUMPDEST POP POP POP POP POP SWAP5 POP DUP4 DUP1 SLOAD PUSH2 0x1C7B SWAP1 PUSH2 0x2610 JUMP JUMPDEST DUP1 PUSH1 0x1F ADD PUSH1 0x20 DUP1 SWAP2 DIV MUL PUSH1 0x20 ADD PUSH1 0x40 MLOAD SWAP1 DUP2 ADD PUSH1 0x40 MSTORE DUP1 SWAP3 SWAP2 SWAP1 DUP2 DUP2 MSTORE PUSH1 0x20 ADD DUP3 DUP1 SLOAD PUSH2 0x1CA7 SWAP1 PUSH2 0x2610 JUMP JUMPDEST DUP1 ISZERO PUSH2 0x1CF4 JUMPI DUP1 PUSH1 0x1F LT PUSH2 0x1CC9 JUMPI PUSH2 0x100 DUP1 DUP4 SLOAD DIV MUL DUP4 MSTORE SWAP2 PUSH1 0x20 ADD SWAP2 PUSH2 0x1CF4 JUMP JUMPDEST DUP3 ADD SWAP2 SWAP1 PUSH1 0x0 MSTORE PUSH1 0x20 PUSH1 0x0 KECCAK256 SWAP1 JUMPDEST DUP2 SLOAD DUP2 MSTORE SWAP1 PUSH1 0x1 ADD SWAP1 PUSH1 0x20 ADD DUP1 DUP4 GT PUSH2 0x1CD7 JUMPI DUP3 SWAP1 SUB PUSH1 0x1F AND DUP3 ADD SWAP2 JUMPDEST POP POP POP POP POP SWAP4 POP DUP3 DUP1 SLOAD PUSH2 0x1D07 SWAP1 PUSH2 0x2610 JUMP JUMPDEST DUP1 PUSH1 0x1F ADD PUSH1 0x20 DUP1 SWAP2 DIV MUL PUSH1 0x20 ADD PUSH1 0x40 MLOAD SWAP1 DUP2 ADD PUSH1 0x40 MSTORE DUP1 SWAP3 SWAP2 SWAP1 DUP2 DUP2 MSTORE PUSH1 0x20 ADD DUP3 DUP1 SLOAD PUSH2 0x1D33 SWAP1 PUSH2 0x2610 JUMP JUMPDEST DUP1 ISZERO PUSH2 0x1D80 JUMPI DUP1 PUSH1 0x1F LT PUSH2 0x1D55 JUMPI PUSH2 0x100 DUP1 DUP4 SLOAD DIV MUL DUP4 MSTORE SWAP2 PUSH1 0x20 ADD SWAP2 PUSH2 0x1D80 JUMP JUMPDEST DUP3 ADD SWAP2 SWAP1 PUSH1 0x0 MSTORE PUSH1 0x20 PUSH1 0x0 KECCAK256 SWAP1 JUMPDEST DUP2 SLOAD DUP2 MSTORE SWAP1 PUSH1 0x1 ADD SWAP1 PUSH1 0x20 ADD DUP1 DUP4 GT PUSH2 0x1D63 JUMPI DUP3 SWAP1 SUB PUSH1 0x1F AND DUP3 ADD SWAP2 JUMPDEST POP POP POP POP POP SWAP3 POP DUP2 DUP1 SLOAD PUSH2 0x1D93 SWAP1 PUSH2 0x2610 JUMP JUMPDEST DUP1 PUSH1 0x1F ADD PUSH1 0x20 DUP1 SWAP2 DIV MUL PUSH1 0x20 ADD PUSH1 0x40 MLOAD SWAP1 DUP2 ADD PUSH1 0x40 MSTORE DUP1 SWAP3 SWAP2 SWAP1 DUP2 DUP2 MSTORE PUSH1 0x20 ADD DUP3 DUP1 SLOAD PUSH2 0x1DBF SWAP1 PUSH2 0x2610 JUMP JUMPDEST DUP1 ISZERO PUSH2 0x1E0C JUMPI DUP1 PUSH1 0x1F LT PUSH2 0x1DE1 JUMPI PUSH2 0x100 DUP1 DUP4 SLOAD DIV MUL DUP4 MSTORE SWAP2 PUSH1 0x20 ADD SWAP2 PUSH2 0x1E0C JUMP JUMPDEST DUP3 ADD SWAP2 SWAP1 PUSH1 0x0 MSTORE PUSH1 0x20 PUSH1 0x0 KECCAK256 SWAP1 JUMPDEST DUP2 SLOAD DUP2 MSTORE SWAP1 PUSH1 0x1 ADD SWAP1 PUSH1 0x20 ADD DUP1 DUP4 GT PUSH2 0x1DEF JUMPI DUP3 SWAP1 SUB PUSH1 0x1F AND DUP3 ADD SWAP2 JUMPDEST POP POP POP POP POP SWAP2 POP DUP1 DUP1 SLOAD PUSH2 0x1E1F SWAP1 PUSH2 0x2610 JUMP JUMPDEST DUP1 PUSH1 0x1F ADD PUSH1 0x20 DUP1 SWAP2 DIV MUL PUSH1 0x20 ADD PUSH1 0x40 MLOAD SWAP1 DUP2 ADD PUSH1 0x40 MSTORE DUP1 SWAP3 SWAP2 SWAP1 DUP2 DUP2 MSTORE PUSH1 0x20 ADD DUP3 DUP1 SLOAD PUSH2 0x1E4B SWAP1 PUSH2 0x2610 JUMP JUMPDEST DUP1 ISZERO PUSH2 0x1E98 JUMPI DUP1 PUSH1 0x1F LT PUSH2 0x1E6D JUMPI PUSH2 0x100 DUP1 DUP4 SLOAD DIV MUL DUP4 MSTORE SWAP2 PUSH1 0x20 ADD SWAP2 PUSH2 0x1E98 JUMP JUMPDEST DUP3 ADD SWAP2 SWAP1 PUSH1 0x0 MSTORE PUSH1 0x20 PUSH1 0x0 KECCAK256 SWAP1 JUMPDEST DUP2 SLOAD DUP2 MSTORE SWAP1 PUSH1 0x1 ADD SWAP1 PUSH1 0x20 ADD DUP1 DUP4 GT PUSH2 0x1E7B JUMPI DUP3 SWAP1 SUB PUSH1 0x1F AND DUP3 ADD SWAP2 JUMPDEST POP POP POP POP POP SWAP1 POP SWAP7 POP SWAP7 POP SWAP7 POP SWAP7 POP SWAP7 POP SWAP7 POP SWAP7 POP SWAP2 SWAP4 SWAP6 SWAP8 SWAP1 SWAP3 SWAP5 SWAP7 POP JUMP JUMPDEST PUSH1 0x0 DUP1 SLOAD SWAP1 PUSH2 0x100 EXP SWAP1 DIV PUSH20 0xFFFFFFFFFFFFFFFFFFFFFFFFFFFFFFFFFFFFFFFF AND DUP2 JUMP JUMPDEST DUP3 DUP1 SLOAD PUSH2 0x1EE8 SWAP1 PUSH2 0x2610 JUMP JUMPDEST SWAP1 PUSH1 0x0 MSTORE PUSH1 0x20 PUSH1 0x0 KECCAK256 SWAP1 PUSH1 0x1F ADD PUSH1 0x20 SWAP1 DIV DUP2 ADD SWAP3 DUP3 PUSH2 0x1F0A JUMPI PUSH1 0x0 DUP6 SSTORE PUSH2 0x1F51 JUMP JUMPDEST DUP3 PUSH1 0x1F LT PUSH2 0x1F23 JUMPI DUP1 MLOAD PUSH1 0xFF NOT AND DUP4 DUP1 ADD OR DUP6 SSTORE PUSH2 0x1F51 JUMP JUMPDEST DUP3 DUP1 ADD PUSH1 0x1 ADD DUP6 SSTORE DUP3 ISZERO PUSH2 0x1F51 JUMPI SWAP2 DUP3 ADD JUMPDEST DUP3 DUP2 GT ISZERO PUSH2 0x1F50 JUMPI DUP3 MLOAD DUP3 SSTORE SWAP2 PUSH1 0x20 ADD SWAP2 SWAP1 PUSH1 0x1 ADD SWAP1 PUSH2 0x1F35 JUMP JUMPDEST JUMPDEST POP SWAP1 POP PUSH2 0x1F5E SWAP2 SWAP1 PUSH2 0x1F62 JUMP JUMPDEST POP SWAP1 JUMP JUMPDEST JUMPDEST DUP1 DUP3 GT ISZERO PUSH2 0x1F7B JUMPI PUSH1 0x0 DUP2 PUSH1 0x0 SWAP1 SSTORE POP PUSH1 0x1 ADD PUSH2 0x1F63 JUMP JUMPDEST POP SWAP1 JUMP JUMPDEST PUSH1 0x0 PUSH1 0x40 MLOAD SWAP1 POP SWAP1 JUMP JUMPDEST PUSH1 0x0 DUP1 REVERT JUMPDEST PUSH1 0x0 DUP1 REVERT JUMPDEST PUSH1 0x0 PUSH20 0xFFFFFFFFFFFFFFFFFFFFFFFFFFFFFFFFFFFFFFFF DUP3 AND SWAP1 POP SWAP2 SWAP1 POP JUMP JUMPDEST PUSH1 0x0 PUSH2 0x1FBE DUP3 PUSH2 0x1F93 JUMP JUMPDEST SWAP1 POP SWAP2 SWAP1 POP JUMP JUMPDEST PUSH2 0x1FCE DUP2 PUSH2 0x1FB3 JUMP JUMPDEST DUP2 EQ PUSH2 0x1FD9 JUMPI PUSH1 0x0 DUP1 REVERT JUMPDEST POP JUMP JUMPDEST PUSH1 0x0 DUP2 CALLDATALOAD SWAP1 POP PUSH2 0x1FEB DUP2 PUSH2 0x1FC5 JUMP JUMPDEST SWAP3 SWAP2 POP POP JUMP JUMPDEST PUSH1 0x0 PUSH1 0x20 DUP3 DUP5 SUB SLT ISZERO PUSH2 0x2007 JUMPI PUSH2 0x2006 PUSH2 0x1F89 JUMP JUMPDEST JUMPDEST PUSH1 0x0 PUSH2 0x2015 DUP5 DUP3 DUP6 ADD PUSH2 0x1FDC JUMP JUMPDEST SWAP2 POP POP SWAP3 SWAP2 POP POP JUMP JUMPDEST PUSH1 0x0 DUP2 MLOAD SWAP1 POP SWAP2 SWAP1 POP JUMP JUMPDEST PUSH1 0x0 DUP3 DUP3 MSTORE PUSH1 0x20 DUP3 ADD SWAP1 POP SWAP3 SWAP2 POP POP JUMP JUMPDEST PUSH1 0x0 JUMPDEST DUP4 DUP2 LT ISZERO PUSH2 0x2058 JUMPI DUP1 DUP3 ADD MLOAD DUP2 DUP5 ADD MSTORE PUSH1 0x20 DUP2 ADD SWAP1 POP PUSH2 0x203D JUMP JUMPDEST DUP4 DUP2 GT ISZERO PUSH2 0x2067 JUMPI PUSH1 0x0 DUP5 DUP5 ADD MSTORE JUMPDEST POP POP POP POP JUMP JUMPDEST PUSH1 0x0 PUSH1 0x1F NOT PUSH1 0x1F DUP4 ADD AND SWAP1 POP SWAP2 SWAP1 POP JUMP JUMPDEST PUSH1 0x0 PUSH2 0x2089 DUP3 PUSH2 0x201E JUMP JUMPDEST PUSH2 0x2093 DUP2 DUP6 PUSH2 0x2029 JUMP JUMPDEST SWAP4 POP PUSH2 0x20A3 DUP2 DUP6 PUSH1 0x20 DUP7 ADD PUSH2 0x203A JUMP JUMPDEST PUSH2 0x20AC DUP2 PUSH2 0x206D JUMP JUMPDEST DUP5 ADD SWAP2 POP POP SWAP3 SWAP2 POP POP JUMP JUMPDEST PUSH1 0x0 PUSH1 0x40 DUP3 ADD SWAP1 POP DUP2 DUP2 SUB PUSH1 0x0 DUP4 ADD MSTORE PUSH2 0x20D1 DUP2 DUP6 PUSH2 0x207E JUMP JUMPDEST SWAP1 POP DUP2 DUP2 SUB PUSH1 0x20 DUP4 ADD MSTORE PUSH2 0x20E5 DUP2 DUP5 PUSH2 0x207E JUMP JUMPDEST SWAP1 POP SWAP4 SWAP3 POP POP POP JUMP JUMPDEST PUSH1 0x0 DUP1 REVERT JUMPDEST PUSH1 0x0 DUP1 REVERT JUMPDEST PUSH32 0x4E487B7100000000000000000000000000000000000000000000000000000000 PUSH1 0x0 MSTORE PUSH1 0x41 PUSH1 0x4 MSTORE PUSH1 0x24 PUSH1 0x0 REVERT JUMPDEST PUSH2 0x2130 DUP3 PUSH2 0x206D JUMP JUMPDEST DUP2 ADD DUP2 DUP2 LT PUSH8 0xFFFFFFFFFFFFFFFF DUP3 GT OR ISZERO PUSH2 0x214F JUMPI PUSH2 0x214E PUSH2 0x20F8 JUMP JUMPDEST JUMPDEST DUP1 PUSH1 0x40 MSTORE POP POP POP JUMP JUMPDEST PUSH1 0x0 PUSH2 0x2162 PUSH2 0x1F7F JUMP JUMPDEST SWAP1 POP PUSH2 0x216E DUP3 DUP3 PUSH2 0x2127 JUMP JUMPDEST SWAP2 SWAP1 POP JUMP JUMPDEST PUSH1 0x0 PUSH8 0xFFFFFFFFFFFFFFFF DUP3 GT ISZERO PUSH2 0x218E JUMPI PUSH2 0x218D PUSH2 0x20F8 JUMP JUMPDEST JUMPDEST PUSH2 0x2197 DUP3 PUSH2 0x206D JUMP JUMPDEST SWAP1 POP PUSH1 0x20 DUP2 ADD SWAP1 POP SWAP2 SWAP1 POP JUMP JUMPDEST DUP3 DUP2 DUP4 CALLDATACOPY PUSH1 0x0 DUP4 DUP4 ADD MSTORE POP POP POP JUMP JUMPDEST PUSH1 0x0 PUSH2 0x21C6 PUSH2 0x21C1 DUP5 PUSH2 0x2173 JUMP JUMPDEST PUSH2 0x2158 JUMP JUMPDEST SWAP1 POP DUP3 DUP2 MSTORE PUSH1 0x20 DUP2 ADD DUP5 DUP5 DUP5 ADD GT ISZERO PUSH2 0x21E2 JUMPI PUSH2 0x21E1 PUSH2 0x20F3 JUMP JUMPDEST JUMPDEST PUSH2 0x21ED DUP5 DUP3 DUP6 PUSH2 0x21A4 JUMP JUMPDEST POP SWAP4 SWAP3 POP POP POP JUMP JUMPDEST PUSH1 0x0 DUP3 PUSH1 0x1F DUP4 ADD SLT PUSH2 0x220A JUMPI PUSH2 0x2209 PUSH2 0x20EE JUMP JUMPDEST JUMPDEST DUP2 CALLDATALOAD PUSH2 0x221A DUP5 DUP3 PUSH1 0x20 DUP7 ADD PUSH2 0x21B3 JUMP JUMPDEST SWAP2 POP POP SWAP3 SWAP2 POP POP JUMP JUMPDEST PUSH1 0x0 DUP1 PUSH1 0x0 DUP1 PUSH1 0x0 DUP1 PUSH1 0x0 DUP1 PUSH1 0x0 DUP1 PUSH1 0x0 PUSH2 0x160 DUP13 DUP15 SUB SLT ISZERO PUSH2 0x2249 JUMPI PUSH2 0x2248 PUSH2 0x1F89 JUMP JUMPDEST JUMPDEST PUSH1 0x0 DUP13 ADD CALLDATALOAD PUSH8 0xFFFFFFFFFFFFFFFF DUP2 GT ISZERO PUSH2 0x2267 JUMPI PUSH2 0x2266 PUSH2 0x1F8E JUMP JUMPDEST JUMPDEST PUSH2 0x2273 DUP15 DUP3 DUP16 ADD PUSH2 0x21F5 JUMP JUMPDEST SWAP12 POP POP PUSH1 0x20 DUP13 ADD CALLDATALOAD PUSH8 0xFFFFFFFFFFFFFFFF DUP2 GT ISZERO PUSH2 0x2294 JUMPI PUSH2 0x2293 PUSH2 0x1F8E JUMP JUMPDEST JUMPDEST PUSH2 0x22A0 DUP15 DUP3 DUP16 ADD PUSH2 0x21F5 JUMP JUMPDEST SWAP11 POP POP PUSH1 0x40 DUP13 ADD CALLDATALOAD PUSH8 0xFFFFFFFFFFFFFFFF DUP2 GT ISZERO PUSH2 0x22C1 JUMPI PUSH2 0x22C0 PUSH2 0x1F8E JUMP JUMPDEST JUMPDEST PUSH2 0x22CD DUP15 DUP3 DUP16 ADD PUSH2 0x21F5 JUMP JUMPDEST SWAP10 POP POP PUSH1 0x60 DUP13 ADD CALLDATALOAD PUSH8 0xFFFFFFFFFFFFFFFF DUP2 GT ISZERO PUSH2 0x22EE JUMPI PUSH2 0x22ED PUSH2 0x1F8E JUMP JUMPDEST JUMPDEST PUSH2 0x22FA DUP15 DUP3 DUP16 ADD PUSH2 0x21F5 JUMP JUMPDEST SWAP9 POP POP PUSH1 0x80 DUP13 ADD CALLDATALOAD PUSH8 0xFFFFFFFFFFFFFFFF DUP2 GT ISZERO PUSH2 0x231B JUMPI PUSH2 0x231A PUSH2 0x1F8E JUMP JUMPDEST JUMPDEST PUSH2 0x2327 DUP15 DUP3 DUP16 ADD PUSH2 0x21F5 JUMP JUMPDEST SWAP8 POP POP PUSH1 0xA0 DUP13 ADD CALLDATALOAD PUSH8 0xFFFFFFFFFFFFFFFF DUP2 GT ISZERO PUSH2 0x2348 JUMPI PUSH2 0x2347 PUSH2 0x1F8E JUMP JUMPDEST JUMPDEST PUSH2 0x2354 DUP15 DUP3 DUP16 ADD PUSH2 0x21F5 JUMP JUMPDEST SWAP7 POP POP PUSH1 0xC0 DUP13 ADD CALLDATALOAD PUSH8 0xFFFFFFFFFFFFFFFF DUP2 GT ISZERO PUSH2 0x2375 JUMPI PUSH2 0x2374 PUSH2 0x1F8E JUMP JUMPDEST JUMPDEST PUSH2 0x2381 DUP15 DUP3 DUP16 ADD PUSH2 0x21F5 JUMP JUMPDEST SWAP6 POP POP PUSH1 0xE0 DUP13 ADD CALLDATALOAD PUSH8 0xFFFFFFFFFFFFFFFF DUP2 GT ISZERO PUSH2 0x23A2 JUMPI PUSH2 0x23A1 PUSH2 0x1F8E JUMP JUMPDEST JUMPDEST PUSH2 0x23AE DUP15 DUP3 DUP16 ADD PUSH2 0x21F5 JUMP JUMPDEST SWAP5 POP POP PUSH2 0x100 DUP13 ADD CALLDATALOAD PUSH8 0xFFFFFFFFFFFFFFFF DUP2 GT ISZERO PUSH2 0x23D0 JUMPI PUSH2 0x23CF PUSH2 0x1F8E JUMP JUMPDEST JUMPDEST PUSH2 0x23DC DUP15 DUP3 DUP16 ADD PUSH2 0x21F5 JUMP JUMPDEST SWAP4 POP POP PUSH2 0x120 DUP13 ADD CALLDATALOAD PUSH8 0xFFFFFFFFFFFFFFFF DUP2 GT ISZERO PUSH2 0x23FE JUMPI PUSH2 0x23FD PUSH2 0x1F8E JUMP JUMPDEST JUMPDEST PUSH2 0x240A DUP15 DUP3 DUP16 ADD PUSH2 0x21F5 JUMP JUMPDEST SWAP3 POP POP PUSH2 0x140 DUP13 ADD CALLDATALOAD PUSH8 0xFFFFFFFFFFFFFFFF DUP2 GT ISZERO PUSH2 0x242C JUMPI PUSH2 0x242B PUSH2 0x1F8E JUMP JUMPDEST JUMPDEST PUSH2 0x2438 DUP15 DUP3 DUP16 ADD PUSH2 0x21F5 JUMP JUMPDEST SWAP2 POP POP SWAP3 SWAP6 SWAP9 SWAP12 POP SWAP3 SWAP6 SWAP9 SWAP12 SWAP1 SWAP4 SWAP7 SWAP10 POP JUMP JUMPDEST PUSH2 0x2454 DUP2 PUSH2 0x1FB3 JUMP JUMPDEST DUP3 MSTORE POP POP JUMP JUMPDEST PUSH1 0x0 PUSH1 0x20 DUP3 ADD SWAP1 POP PUSH2 0x246F PUSH1 0x0 DUP4 ADD DUP5 PUSH2 0x244B JUMP JUMPDEST SWAP3 SWAP2 POP POP JUMP JUMPDEST PUSH1 0x0 PUSH2 0x120 DUP3 ADD SWAP1 POP DUP2 DUP2 SUB PUSH1 0x0 DUP4 ADD MSTORE PUSH2 0x2490 DUP2 DUP13 PUSH2 0x207E JUMP JUMPDEST SWAP1 POP DUP2 DUP2 SUB PUSH1 0x20 DUP4 ADD MSTORE PUSH2 0x24A4 DUP2 DUP12 PUSH2 0x207E JUMP JUMPDEST SWAP1 POP DUP2 DUP2 SUB PUSH1 0x40 DUP4 ADD MSTORE PUSH2 0x24B8 DUP2 DUP11 PUSH2 0x207E JUMP JUMPDEST SWAP1 POP DUP2 DUP2 SUB PUSH1 0x60 DUP4 ADD MSTORE PUSH2 0x24CC DUP2 DUP10 PUSH2 0x207E JUMP JUMPDEST SWAP1 POP DUP2 DUP2 SUB PUSH1 0x80 DUP4 ADD MSTORE PUSH2 0x24E0 DUP2 DUP9 PUSH2 0x207E JUMP JUMPDEST SWAP1 POP DUP2 DUP2 SUB PUSH1 0xA0 DUP4 ADD MSTORE PUSH2 0x24F4 DUP2 DUP8 PUSH2 0x207E JUMP JUMPDEST SWAP1 POP DUP2 DUP2 SUB PUSH1 0xC0 DUP4 ADD MSTORE PUSH2 0x2508 DUP2 DUP7 PUSH2 0x207E JUMP JUMPDEST SWAP1 POP DUP2 DUP2 SUB PUSH1 0xE0 DUP4 ADD MSTORE PUSH2 0x251C DUP2 DUP6 PUSH2 0x207E JUMP JUMPDEST SWAP1 POP DUP2 DUP2 SUB PUSH2 0x100 DUP4 ADD MSTORE PUSH2 0x2531 DUP2 DUP5 PUSH2 0x207E JUMP JUMPDEST SWAP1 POP SWAP11 SWAP10 POP POP POP POP POP POP POP POP POP POP JUMP JUMPDEST PUSH1 0x0 PUSH1 0xE0 DUP3 ADD SWAP1 POP DUP2 DUP2 SUB PUSH1 0x0 DUP4 ADD MSTORE PUSH2 0x255B DUP2 DUP11 PUSH2 0x207E JUMP JUMPDEST SWAP1 POP DUP2 DUP2 SUB PUSH1 0x20 DUP4 ADD MSTORE PUSH2 0x256F DUP2 DUP10 PUSH2 0x207E JUMP JUMPDEST SWAP1 POP DUP2 DUP2 SUB PUSH1 0x40 DUP4 ADD MSTORE PUSH2 0x2583 DUP2 DUP9 PUSH2 0x207E JUMP JUMPDEST SWAP1 POP DUP2 DUP2 SUB PUSH1 0x60 DUP4 ADD MSTORE PUSH2 0x2597 DUP2 DUP8 PUSH2 0x207E JUMP JUMPDEST SWAP1 POP DUP2 DUP2 SUB PUSH1 0x80 DUP4 ADD MSTORE PUSH2 0x25AB DUP2 DUP7 PUSH2 0x207E JUMP JUMPDEST SWAP1 POP DUP2 DUP2 SUB PUSH1 0xA0 DUP4 ADD MSTORE PUSH2 0x25BF DUP2 DUP6 PUSH2 0x207E JUMP JUMPDEST SWAP1 POP DUP2 DUP2 SUB PUSH1 0xC0 DUP4 ADD MSTORE PUSH2 0x25D3 DUP2 DUP5 PUSH2 0x207E JUMP JUMPDEST SWAP1 POP SWAP9 SWAP8 POP POP POP POP POP POP POP POP JUMP JUMPDEST PUSH32 0x4E487B7100000000000000000000000000000000000000000000000000000000 PUSH1 0x0 MSTORE PUSH1 0x22 PUSH1 0x4 MSTORE PUSH1 0x24 PUSH1 0x0 REVERT JUMPDEST PUSH1 0x0 PUSH1 0x2 DUP3 DIV SWAP1 POP PUSH1 0x1 DUP3 AND DUP1 PUSH2 0x2628 JUMPI PUSH1 0x7F DUP3 AND SWAP2 POP JUMPDEST PUSH1 0x20 DUP3 LT DUP2 EQ ISZERO PUSH2 0x263C JUMPI PUSH2 0x263B PUSH2 0x25E1 JUMP JUMPDEST JUMPDEST POP SWAP2 SWAP1 POP JUMP INVALID LOG2 PUSH5 0x6970667358 0x22 SLT KECCAK256 SGT 0xE 0xF 0xC 0xED SHL PUSH23 0xBDDFA81A0996FF099B8D1EA3C3E9A24ED22A5CD14AE18D DUP5 DUP12 PUSH5 0x736F6C6343 STOP ADDMOD SIGNEXTEND STOP CALLER LOG2 PUSH5 0x6970667358 0x22 SLT KECCAK256 0xD4 DUP12 0xC0 0x4C PUSH15 0x43D63C660C77E8139753185D5DBB19 0xF8 LOG4 0xE5 0xB5 PUSH4 0x1AC4423B 0xE1 SWAP5 0xDC PUSH5 0x736F6C6343 STOP ADDMOD SIGNEXTEND STOP CALLER "},"gasEstimates":{"creation":{"codeDepositCost":"2580200","executionCost":"2793","totalCost":"2582993"},"external":{"createKyc()":"infinite","deployedKycs(uint256)":"infinite","getDeployedKycs()":"infinite","kycdone(address)":"27233","login(address)":"infinite","usersAddresses(uint256)":"5001","viewKYCstatus(address)":"infinite"}},"methodIdentifiers":{"createKyc()":"826c4ae6","deployedKycs(uint256)":"7e3c01d7","getDeployedKycs()":"8379ec2f","kycdone(address)":"b6cbab37","login(address)":"35a6861a","usersAddresses(uint256)":"73338081","viewKYCstatus(address)":"07f9d06d"}},"storageLayout":{"storage":[{"astId":13,"contract":"KYC.sol:KycFactory","label":"deployedKycs","offset":0,"slot":"0","type":"t_array(t_contract(Userdef)593)dyn_storage"},{"astId":16,"contract":"KYC.sol:KycFactory","label":"usersAddresses","offset":0,"slot":"1","type":"t_array(t_address)dyn_storage"},{"astId":21,"contract":"KYC.sol:KycFactory","label":"particularUserKyc","offset":0,"slot":"2","type":"t_mapping(t_address,t_struct(Register)9_storage)"}],"types":{"t_address":{"encoding":"inplace","label":"address","numberOfBytes":"20"},"t_array(t_address)dyn_storage":{"base":"t_address","encoding":"dynamic_array","label":"address[]","numberOfBytes":"32"},"t_array(t_contract(Userdef)593)dyn_storage":{"base":"t_contract(Userdef)593","encoding":"dynamic_array","label":"contract Userdef[]","numberOfBytes":"32"},"t_bool":{"encoding":"inplace","label":"bool","numberOfBytes":"1"},"t_contract(Userdef)593":{"encoding":"inplace","label":"contract Userdef","numberOfBytes":"20"},"t_mapping(t_address,t_struct(Register)9_storage)":{"encoding":"mapping","key":"t_address","label":"mapping(address => struct KycFactory.Register)","numberOfBytes":"32","value":"t_struct(Register)9_storage"},"t_struct(Register)9_storage":{"encoding":"inplace","label":"struct KycFactory.Register","members":[{"astId":4,"contract":"KYC.sol:KycFactory","label":"kycContract","offset":0,"slot":"0","type":"t_contract(Userdef)593"},{"astId":6,"contract":"KYC.sol:KycFactory","label":"isRegistered","offset":20,"slot":"0","type":"t_bool"},{"astId":8,"contract":"KYC.sol:KycFactory","label":"kycdone","offset":21,"slot":"0","type":"t_bool"}],"numberOfBytes":"32"}}},"userdoc":{"kind":"user","methods":{},"version":1}}