{"abi":[{"inputs":[],"name":"createKyc","outputs":[],"stateMutability":"nonpayable","type":"function"},{"inputs":[{"internalType":"uint256","name":"","type":"uint256"}],"name":"deployedKycs","outputs":[{"internalType":"contract Userdef","name":"","type":"address"}],"stateMutability":"view","type":"function"},{"inputs":[],"name":"getDeployedKycs","outputs":[{"internalType":"contract Userdef[]","name":"","type":"address[]"}],"stateMutability":"view","type":"function"},{"inputs":[],"name":"getRandomUser","outputs":[{"internalType":"contract Userdef","name":"","type":"address"}],"stateMutability":"view","type":"function"},{"inputs":[],"name":"getparticularUser","outputs":[{"internalType":"contract Userdef","name":"","type":"address"}],"stateMutability":"view","type":"function"},{"inputs":[{"internalType":"address","name":"ooh","type":"address"}],"name":"login","outputs":[{"internalType":"contract Userdef","name":"","type":"address"}],"stateMutability":"view","type":"function"}],"devdoc":{"kind":"dev","methods":{},"version":1},"evm":{"assembly":"    /* \"KYC.sol\":72:1623  contract KycFactory{... */\n  mstore(0x40, 0x80)\n  callvalue\n  dup1\n  iszero\n  tag_1\n  jumpi\n  0x00\n  dup1\n  revert\ntag_1:\n  pop\n  dataSize(sub_0)\n  dup1\n  dataOffset(sub_0)\n  0x00\n  codecopy\n  0x00\n  return\nstop\n\nsub_0: assembly {\n        /* \"KYC.sol\":72:1623  contract KycFactory{... */\n      mstore(0x40, 0x80)\n      callvalue\n      dup1\n      iszero\n      tag_1\n      jumpi\n      0x00\n      dup1\n      revert\n    tag_1:\n      pop\n      jumpi(tag_2, lt(calldatasize, 0x04))\n      shr(0xe0, calldataload(0x00))\n      dup1\n      0x1d522d1d\n      eq\n      tag_3\n      jumpi\n      dup1\n      0x35a6861a\n      eq\n      tag_4\n      jumpi\n      dup1\n      0x7e3c01d7\n      eq\n      tag_5\n      jumpi\n      dup1\n      0x826c4ae6\n      eq\n      tag_6\n      jumpi\n      dup1\n      0x8379ec2f\n      eq\n      tag_7\n      jumpi\n      dup1\n      0xbdb37313\n      eq\n      tag_8\n      jumpi\n    tag_2:\n      0x00\n      dup1\n      revert\n        /* \"KYC.sol\":991:1486  function getRandomUser() public view returns(Userdef) {... */\n    tag_3:\n      tag_9\n      tag_10\n      jump\t// in\n    tag_9:\n      mload(0x40)\n      tag_11\n      swap2\n      swap1\n      tag_12\n      jump\t// in\n    tag_11:\n      mload(0x40)\n      dup1\n      swap2\n      sub\n      swap1\n      return\n        /* \"KYC.sol\":699:870  function login(address ooh) public view returns(Userdef){... */\n    tag_4:\n      tag_13\n      0x04\n      dup1\n      calldatasize\n      sub\n      dup2\n      add\n      swap1\n      tag_14\n      swap2\n      swap1\n      tag_15\n      jump\t// in\n    tag_14:\n      tag_16\n      jump\t// in\n    tag_13:\n      mload(0x40)\n      tag_17\n      swap2\n      swap1\n      tag_12\n      jump\t// in\n    tag_17:\n      mload(0x40)\n      dup1\n      swap2\n      sub\n      swap1\n      return\n        /* \"KYC.sol\":208:237  Userdef[] public deployedKycs */\n    tag_5:\n      tag_18\n      0x04\n      dup1\n      calldatasize\n      sub\n      dup2\n      add\n      swap1\n      tag_19\n      swap2\n      swap1\n      tag_20\n      jump\t// in\n    tag_19:\n      tag_21\n      jump\t// in\n    tag_18:\n      mload(0x40)\n      tag_22\n      swap2\n      swap1\n      tag_12\n      jump\t// in\n    tag_22:\n      mload(0x40)\n      dup1\n      swap2\n      sub\n      swap1\n      return\n        /* \"KYC.sol\":348:691  function createKyc() public{... */\n    tag_6:\n      tag_23\n      tag_24\n      jump\t// in\n    tag_23:\n      stop\n        /* \"KYC.sol\":878:981  function getDeployedKycs() public view returns(Userdef[] memory) {... */\n    tag_7:\n      tag_25\n      tag_26\n      jump\t// in\n    tag_25:\n      mload(0x40)\n      tag_27\n      swap2\n      swap1\n      tag_28\n      jump\t// in\n    tag_27:\n      mload(0x40)\n      dup1\n      swap2\n      sub\n      swap1\n      return\n        /* \"KYC.sol\":1494:1618  function getparticularUser() public view returns(Userdef){... */\n    tag_8:\n      tag_29\n      tag_30\n      jump\t// in\n    tag_29:\n      mload(0x40)\n      tag_31\n      swap2\n      swap1\n      tag_12\n      jump\t// in\n    tag_31:\n      mload(0x40)\n      dup1\n      swap2\n      sub\n      swap1\n      return\n        /* \"KYC.sol\":991:1486  function getRandomUser() public view returns(Userdef) {... */\n    tag_10:\n        /* \"KYC.sol\":1036:1043  Userdef */\n      0x00\n        /* \"KYC.sol\":1056:1086  Userdef[] memory falsedeployed */\n      0x60\n        /* \"KYC.sol\":1097:1103  uint j */\n      0x00\n        /* \"KYC.sol\":1120:1126  uint i */\n      dup1\n        /* \"KYC.sol\":1116:1313  for(uint i=0; i<deployedKycs.length; i++){... */\n    tag_33:\n        /* \"KYC.sol\":1132:1144  deployedKycs */\n      0x00\n        /* \"KYC.sol\":1132:1151  deployedKycs.length */\n      dup1\n      sload\n      swap1\n      pop\n        /* \"KYC.sol\":1130:1131  i */\n      dup2\n        /* \"KYC.sol\":1130:1151  i<deployedKycs.length */\n      lt\n        /* \"KYC.sol\":1116:1313  for(uint i=0; i<deployedKycs.length; i++){... */\n      iszero\n      tag_34\n      jumpi\n        /* \"KYC.sol\":1176:1193  agentdeployedKycs */\n      0x01\n        /* \"KYC.sol\":1176:1210  agentdeployedKycs[deployedKycs[i]] */\n      0x00\n        /* \"KYC.sol\":1194:1206  deployedKycs */\n      dup1\n        /* \"KYC.sol\":1207:1208  i */\n      dup4\n        /* \"KYC.sol\":1194:1209  deployedKycs[i] */\n      dup2\n      sload\n      dup2\n      lt\n      tag_36\n      jumpi\n      tag_37\n      tag_38\n      jump\t// in\n    tag_37:\n    tag_36:\n      swap1\n      0x00\n      mstore\n      keccak256(0x00, 0x20)\n      add\n      0x00\n      swap1\n      sload\n      swap1\n      0x0100\n      exp\n      swap1\n      div\n      0xffffffffffffffffffffffffffffffffffffffff\n      and\n        /* \"KYC.sol\":1176:1210  agentdeployedKycs[deployedKycs[i]] */\n      0xffffffffffffffffffffffffffffffffffffffff\n      and\n      0xffffffffffffffffffffffffffffffffffffffff\n      and\n      dup2\n      mstore\n      0x20\n      add\n      swap1\n      dup2\n      mstore\n      0x20\n      add\n      0x00\n      keccak256\n      0x00\n      swap1\n      sload\n      swap1\n      0x0100\n      exp\n      swap1\n      div\n      0xff\n      and\n        /* \"KYC.sol\":1172:1302  if(!agentdeployedKycs[deployedKycs[i]]){... */\n      tag_40\n      jumpi\n        /* \"KYC.sol\":1249:1261  deployedKycs */\n      0x00\n        /* \"KYC.sol\":1262:1263  i */\n      dup2\n        /* \"KYC.sol\":1249:1264  deployedKycs[i] */\n      dup2\n      sload\n      dup2\n      lt\n      tag_41\n      jumpi\n      tag_42\n      tag_38\n      jump\t// in\n    tag_42:\n    tag_41:\n      swap1\n      0x00\n      mstore\n      keccak256(0x00, 0x20)\n      add\n      0x00\n      swap1\n      sload\n      swap1\n      0x0100\n      exp\n      swap1\n      div\n      0xffffffffffffffffffffffffffffffffffffffff\n      and\n        /* \"KYC.sol\":1230:1243  falsedeployed */\n      dup4\n        /* \"KYC.sol\":1244:1245  j */\n      dup4\n        /* \"KYC.sol\":1230:1246  falsedeployed[j] */\n      dup2\n      mload\n      dup2\n      lt\n      tag_44\n      jumpi\n      tag_45\n      tag_38\n      jump\t// in\n    tag_45:\n    tag_44:\n      0x20\n      mul\n      0x20\n      add\n      add\n        /* \"KYC.sol\":1230:1264  falsedeployed[j] = deployedKycs[i] */\n      swap1\n      0xffffffffffffffffffffffffffffffffffffffff\n      and\n      swap1\n      dup2\n      0xffffffffffffffffffffffffffffffffffffffff\n      and\n      dup2\n      mstore\n      pop\n      pop\n        /* \"KYC.sol\":1283:1286  j++ */\n      dup2\n      dup1\n      tag_46\n      swap1\n      tag_47\n      jump\t// in\n    tag_46:\n      swap3\n      pop\n      pop\n        /* \"KYC.sol\":1172:1302  if(!agentdeployedKycs[deployedKycs[i]]){... */\n    tag_40:\n        /* \"KYC.sol\":1153:1156  i++ */\n      dup1\n      dup1\n      tag_48\n      swap1\n      tag_47\n      jump\t// in\n    tag_48:\n      swap2\n      pop\n      pop\n        /* \"KYC.sol\":1116:1313  for(uint i=0; i<deployedKycs.length; i++){... */\n      jump(tag_33)\n    tag_34:\n      pop\n        /* \"KYC.sol\":1323:1333  uint index */\n      0x00\n        /* \"KYC.sol\":1420:1433  falsedeployed */\n      dup3\n        /* \"KYC.sol\":1420:1440  falsedeployed.length */\n      mload\n        /* \"KYC.sol\":1368:1384  block.difficulty */\n      difficulty\n        /* \"KYC.sol\":1386:1401  block.timestamp */\n      timestamp\n        /* \"KYC.sol\":1403:1416  falsedeployed */\n      dup6\n        /* \"KYC.sol\":1351:1417  abi.encodePacked(block.difficulty, block.timestamp, falsedeployed) */\n      add(0x20, mload(0x40))\n      tag_49\n      swap4\n      swap3\n      swap2\n      swap1\n      tag_50\n      jump\t// in\n    tag_49:\n      mload(0x40)\n      0x20\n      dup2\n      dup4\n      sub\n      sub\n      dup2\n      mstore\n      swap1\n      0x40\n      mstore\n        /* \"KYC.sol\":1341:1418  keccak256(abi.encodePacked(block.difficulty, block.timestamp, falsedeployed)) */\n      dup1\n      mload\n      swap1\n      0x20\n      add\n      keccak256\n        /* \"KYC.sol\":1336:1419  uint(keccak256(abi.encodePacked(block.difficulty, block.timestamp, falsedeployed))) */\n      0x00\n      shr\n        /* \"KYC.sol\":1336:1440  uint(keccak256(abi.encodePacked(block.difficulty, block.timestamp, falsedeployed)))%falsedeployed.length */\n      tag_51\n      swap2\n      swap1\n      tag_52\n      jump\t// in\n    tag_51:\n        /* \"KYC.sol\":1323:1440  uint index = uint(keccak256(abi.encodePacked(block.difficulty, block.timestamp, falsedeployed)))%falsedeployed.length */\n      swap1\n      pop\n        /* \"KYC.sol\":1458:1471  falsedeployed */\n      dup3\n        /* \"KYC.sol\":1472:1477  index */\n      dup2\n        /* \"KYC.sol\":1458:1478  falsedeployed[index] */\n      dup2\n      mload\n      dup2\n      lt\n      tag_53\n      jumpi\n      tag_54\n      tag_38\n      jump\t// in\n    tag_54:\n    tag_53:\n      0x20\n      mul\n      0x20\n      add\n      add\n      mload\n        /* \"KYC.sol\":1451:1478  return falsedeployed[index] */\n      swap4\n      pop\n      pop\n      pop\n      pop\n        /* \"KYC.sol\":991:1486  function getRandomUser() public view returns(Userdef) {... */\n      swap1\n      jump\t// out\n        /* \"KYC.sol\":699:870  function login(address ooh) public view returns(Userdef){... */\n    tag_16:\n        /* \"KYC.sol\":747:754  Userdef */\n      0x00\n        /* \"KYC.sol\":774:791  particularUserKyc */\n      0x02\n        /* \"KYC.sol\":774:796  particularUserKyc[ooh] */\n      0x00\n        /* \"KYC.sol\":792:795  ooh */\n      dup4\n        /* \"KYC.sol\":774:796  particularUserKyc[ooh] */\n      0xffffffffffffffffffffffffffffffffffffffff\n      and\n      0xffffffffffffffffffffffffffffffffffffffff\n      and\n      dup2\n      mstore\n      0x20\n      add\n      swap1\n      dup2\n      mstore\n      0x20\n      add\n      0x00\n      keccak256\n        /* \"KYC.sol\":774:809  particularUserKyc[ooh].isRegistered */\n      0x00\n      add\n      0x14\n      swap1\n      sload\n      swap1\n      0x0100\n      exp\n      swap1\n      div\n      0xff\n      and\n        /* \"KYC.sol\":766:810  require(particularUserKyc[ooh].isRegistered) */\n      tag_56\n      jumpi\n      0x00\n      dup1\n      revert\n    tag_56:\n        /* \"KYC.sol\":828:845  particularUserKyc */\n      0x02\n        /* \"KYC.sol\":828:850  particularUserKyc[ooh] */\n      0x00\n        /* \"KYC.sol\":846:849  ooh */\n      dup4\n        /* \"KYC.sol\":828:850  particularUserKyc[ooh] */\n      0xffffffffffffffffffffffffffffffffffffffff\n      and\n      0xffffffffffffffffffffffffffffffffffffffff\n      and\n      dup2\n      mstore\n      0x20\n      add\n      swap1\n      dup2\n      mstore\n      0x20\n      add\n      0x00\n      keccak256\n        /* \"KYC.sol\":828:862  particularUserKyc[ooh].kycContract */\n      0x00\n      add\n      0x00\n      swap1\n      sload\n      swap1\n      0x0100\n      exp\n      swap1\n      div\n      0xffffffffffffffffffffffffffffffffffffffff\n      and\n        /* \"KYC.sol\":821:862  return particularUserKyc[ooh].kycContract */\n      swap1\n      pop\n        /* \"KYC.sol\":699:870  function login(address ooh) public view returns(Userdef){... */\n      swap2\n      swap1\n      pop\n      jump\t// out\n        /* \"KYC.sol\":208:237  Userdef[] public deployedKycs */\n    tag_21:\n      0x00\n      dup2\n      dup2\n      sload\n      dup2\n      lt\n      tag_57\n      jumpi\n      0x00\n      dup1\n      revert\n    tag_57:\n      swap1\n      0x00\n      mstore\n      keccak256(0x00, 0x20)\n      add\n      0x00\n      swap2\n      pop\n      sload\n      swap1\n      0x0100\n      exp\n      swap1\n      div\n      0xffffffffffffffffffffffffffffffffffffffff\n      and\n      dup2\n      jump\t// out\n        /* \"KYC.sol\":348:691  function createKyc() public{... */\n    tag_24:\n        /* \"KYC.sol\":386:400  Userdef newKyc */\n      0x00\n        /* \"KYC.sol\":415:425  msg.sender */\n      caller\n        /* \"KYC.sol\":403:426  new Userdef(msg.sender) */\n      mload(0x40)\n      tag_60\n      swap1\n      tag_61\n      jump\t// in\n    tag_60:\n      tag_62\n      swap2\n      swap1\n      tag_63\n      jump\t// in\n    tag_62:\n      mload(0x40)\n      dup1\n      swap2\n      sub\n      swap1\n      0x00\n      create\n      dup1\n      iszero\n      dup1\n      iszero\n      tag_64\n      jumpi\n      returndatasize\n      0x00\n      dup1\n      returndatacopy\n      revert(0x00, returndatasize)\n    tag_64:\n      pop\n        /* \"KYC.sol\":386:426  Userdef newKyc = new Userdef(msg.sender) */\n      swap1\n      pop\n        /* \"KYC.sol\":481:487  newKyc */\n      dup1\n        /* \"KYC.sol\":437:454  particularUserKyc */\n      0x02\n        /* \"KYC.sol\":437:466  particularUserKyc[msg.sender] */\n      0x00\n        /* \"KYC.sol\":455:465  msg.sender */\n      caller\n        /* \"KYC.sol\":437:466  particularUserKyc[msg.sender] */\n      0xffffffffffffffffffffffffffffffffffffffff\n      and\n      0xffffffffffffffffffffffffffffffffffffffff\n      and\n      dup2\n      mstore\n      0x20\n      add\n      swap1\n      dup2\n      mstore\n      0x20\n      add\n      0x00\n      keccak256\n        /* \"KYC.sol\":437:478  particularUserKyc[msg.sender].kycContract */\n      0x00\n      add\n      0x00\n        /* \"KYC.sol\":437:487  particularUserKyc[msg.sender].kycContract = newKyc */\n      0x0100\n      exp\n      dup2\n      sload\n      dup2\n      0xffffffffffffffffffffffffffffffffffffffff\n      mul\n      not\n      and\n      swap1\n      dup4\n      0xffffffffffffffffffffffffffffffffffffffff\n      and\n      mul\n      or\n      swap1\n      sstore\n      pop\n        /* \"KYC.sol\":543:547  true */\n      0x01\n        /* \"KYC.sol\":498:515  particularUserKyc */\n      0x02\n        /* \"KYC.sol\":498:527  particularUserKyc[msg.sender] */\n      0x00\n        /* \"KYC.sol\":516:526  msg.sender */\n      caller\n        /* \"KYC.sol\":498:527  particularUserKyc[msg.sender] */\n      0xffffffffffffffffffffffffffffffffffffffff\n      and\n      0xffffffffffffffffffffffffffffffffffffffff\n      and\n      dup2\n      mstore\n      0x20\n      add\n      swap1\n      dup2\n      mstore\n      0x20\n      add\n      0x00\n      keccak256\n        /* \"KYC.sol\":498:540  particularUserKyc[msg.sender].isRegistered */\n      0x00\n      add\n      0x14\n        /* \"KYC.sol\":498:547  particularUserKyc[msg.sender].isRegistered = true */\n      0x0100\n      exp\n      dup2\n      sload\n      dup2\n      0xff\n      mul\n      not\n      and\n      swap1\n      dup4\n      iszero\n      iszero\n      mul\n      or\n      swap1\n      sstore\n      pop\n        /* \"KYC.sol\":598:603  false */\n      0x00\n        /* \"KYC.sol\":558:575  particularUserKyc */\n      0x02\n        /* \"KYC.sol\":558:587  particularUserKyc[msg.sender] */\n      0x00\n        /* \"KYC.sol\":576:586  msg.sender */\n      caller\n        /* \"KYC.sol\":558:587  particularUserKyc[msg.sender] */\n      0xffffffffffffffffffffffffffffffffffffffff\n      and\n      0xffffffffffffffffffffffffffffffffffffffff\n      and\n      dup2\n      mstore\n      0x20\n      add\n      swap1\n      dup2\n      mstore\n      0x20\n      add\n      0x00\n      keccak256\n        /* \"KYC.sol\":558:595  particularUserKyc[msg.sender].kycdone */\n      0x00\n      add\n      0x15\n        /* \"KYC.sol\":558:603  particularUserKyc[msg.sender].kycdone = false */\n      0x0100\n      exp\n      dup2\n      sload\n      dup2\n      0xff\n      mul\n      not\n      and\n      swap1\n      dup4\n      iszero\n      iszero\n      mul\n      or\n      swap1\n      sstore\n      pop\n        /* \"KYC.sol\":642:647  false */\n      0x00\n        /* \"KYC.sol\":614:631  agentdeployedKycs */\n      0x01\n        /* \"KYC.sol\":614:639  agentdeployedKycs[newKyc] */\n      0x00\n        /* \"KYC.sol\":632:638  newKyc */\n      dup4\n        /* \"KYC.sol\":614:639  agentdeployedKycs[newKyc] */\n      0xffffffffffffffffffffffffffffffffffffffff\n      and\n      0xffffffffffffffffffffffffffffffffffffffff\n      and\n      dup2\n      mstore\n      0x20\n      add\n      swap1\n      dup2\n      mstore\n      0x20\n      add\n      0x00\n      keccak256\n      0x00\n        /* \"KYC.sol\":614:647  agentdeployedKycs[newKyc] = false */\n      0x0100\n      exp\n      dup2\n      sload\n      dup2\n      0xff\n      mul\n      not\n      and\n      swap1\n      dup4\n      iszero\n      iszero\n      mul\n      or\n      swap1\n      sstore\n      pop\n        /* \"KYC.sol\":658:670  deployedKycs */\n      0x00\n        /* \"KYC.sol\":676:682  newKyc */\n      dup2\n        /* \"KYC.sol\":658:683  deployedKycs.push(newKyc) */\n      swap1\n      dup1\n      0x01\n      dup2\n      sload\n      add\n      dup1\n      dup3\n      sstore\n      dup1\n      swap2\n      pop\n      pop\n      0x01\n      swap1\n      sub\n      swap1\n      0x00\n      mstore\n      keccak256(0x00, 0x20)\n      add\n      0x00\n      swap1\n      swap2\n      swap1\n      swap2\n      swap1\n      swap2\n      0x0100\n      exp\n      dup2\n      sload\n      dup2\n      0xffffffffffffffffffffffffffffffffffffffff\n      mul\n      not\n      and\n      swap1\n      dup4\n      0xffffffffffffffffffffffffffffffffffffffff\n      and\n      mul\n      or\n      swap1\n      sstore\n      pop\n        /* \"KYC.sol\":375:691  {... */\n      pop\n        /* \"KYC.sol\":348:691  function createKyc() public{... */\n      jump\t// out\n        /* \"KYC.sol\":878:981  function getDeployedKycs() public view returns(Userdef[] memory) {... */\n    tag_26:\n        /* \"KYC.sol\":925:941  Userdef[] memory */\n      0x60\n        /* \"KYC.sol\":961:973  deployedKycs */\n      0x00\n        /* \"KYC.sol\":954:973  return deployedKycs */\n      dup1\n      sload\n      dup1\n      0x20\n      mul\n      0x20\n      add\n      mload(0x40)\n      swap1\n      dup2\n      add\n      0x40\n      mstore\n      dup1\n      swap3\n      swap2\n      swap1\n      dup2\n      dup2\n      mstore\n      0x20\n      add\n      dup3\n      dup1\n      sload\n      dup1\n      iszero\n      tag_67\n      jumpi\n      0x20\n      mul\n      dup3\n      add\n      swap2\n      swap1\n      0x00\n      mstore\n      keccak256(0x00, 0x20)\n      swap1\n    tag_68:\n      dup2\n      0x00\n      swap1\n      sload\n      swap1\n      0x0100\n      exp\n      swap1\n      div\n      0xffffffffffffffffffffffffffffffffffffffff\n      and\n      0xffffffffffffffffffffffffffffffffffffffff\n      and\n      dup2\n      mstore\n      0x20\n      add\n      swap1\n      0x01\n      add\n      swap1\n      dup1\n      dup4\n      gt\n      tag_68\n      jumpi\n    tag_67:\n      pop\n      pop\n      pop\n      pop\n      pop\n      swap1\n      pop\n        /* \"KYC.sol\":878:981  function getDeployedKycs() public view returns(Userdef[] memory) {... */\n      swap1\n      jump\t// out\n        /* \"KYC.sol\":1494:1618  function getparticularUser() public view returns(Userdef){... */\n    tag_30:\n        /* \"KYC.sol\":1543:1550  Userdef */\n      0x00\n        /* \"KYC.sol\":1569:1586  particularUserKyc */\n      0x02\n        /* \"KYC.sol\":1569:1598  particularUserKyc[msg.sender] */\n      0x00\n        /* \"KYC.sol\":1587:1597  msg.sender */\n      caller\n        /* \"KYC.sol\":1569:1598  particularUserKyc[msg.sender] */\n      0xffffffffffffffffffffffffffffffffffffffff\n      and\n      0xffffffffffffffffffffffffffffffffffffffff\n      and\n      dup2\n      mstore\n      0x20\n      add\n      swap1\n      dup2\n      mstore\n      0x20\n      add\n      0x00\n      keccak256\n        /* \"KYC.sol\":1569:1610  particularUserKyc[msg.sender].kycContract */\n      0x00\n      add\n      0x00\n      swap1\n      sload\n      swap1\n      0x0100\n      exp\n      swap1\n      div\n      0xffffffffffffffffffffffffffffffffffffffff\n      and\n        /* \"KYC.sol\":1562:1610  return particularUserKyc[msg.sender].kycContract */\n      swap1\n      pop\n        /* \"KYC.sol\":1494:1618  function getparticularUser() public view returns(Userdef){... */\n      swap1\n      jump\t// out\n    tag_61:\n      dataSize(sub_0)\n      dup1\n      dataOffset(sub_0)\n      dup4\n      codecopy\n      add\n      swap1\n      jump\t// out\n        /* \"#utility.yul\":7:133   */\n    tag_70:\n        /* \"#utility.yul\":44:51   */\n      0x00\n        /* \"#utility.yul\":84:126   */\n      0xffffffffffffffffffffffffffffffffffffffff\n        /* \"#utility.yul\":77:82   */\n      dup3\n        /* \"#utility.yul\":73:127   */\n      and\n        /* \"#utility.yul\":62:127   */\n      swap1\n      pop\n        /* \"#utility.yul\":7:133   */\n      swap2\n      swap1\n      pop\n      jump\t// out\n        /* \"#utility.yul\":139:199   */\n    tag_71:\n        /* \"#utility.yul\":167:170   */\n      0x00\n        /* \"#utility.yul\":188:193   */\n      dup2\n        /* \"#utility.yul\":181:193   */\n      swap1\n      pop\n        /* \"#utility.yul\":139:199   */\n      swap2\n      swap1\n      pop\n      jump\t// out\n        /* \"#utility.yul\":205:347   */\n    tag_72:\n        /* \"#utility.yul\":255:264   */\n      0x00\n        /* \"#utility.yul\":288:341   */\n      tag_105\n        /* \"#utility.yul\":306:340   */\n      tag_106\n        /* \"#utility.yul\":315:339   */\n      tag_107\n        /* \"#utility.yul\":333:338   */\n      dup5\n        /* \"#utility.yul\":315:339   */\n      tag_70\n      jump\t// in\n    tag_107:\n        /* \"#utility.yul\":306:340   */\n      tag_71\n      jump\t// in\n    tag_106:\n        /* \"#utility.yul\":288:341   */\n      tag_70\n      jump\t// in\n    tag_105:\n        /* \"#utility.yul\":275:341   */\n      swap1\n      pop\n        /* \"#utility.yul\":205:347   */\n      swap2\n      swap1\n      pop\n      jump\t// out\n        /* \"#utility.yul\":353:479   */\n    tag_73:\n        /* \"#utility.yul\":403:412   */\n      0x00\n        /* \"#utility.yul\":436:473   */\n      tag_109\n        /* \"#utility.yul\":467:472   */\n      dup3\n        /* \"#utility.yul\":436:473   */\n      tag_72\n      jump\t// in\n    tag_109:\n        /* \"#utility.yul\":423:473   */\n      swap1\n      pop\n        /* \"#utility.yul\":353:479   */\n      swap2\n      swap1\n      pop\n      jump\t// out\n        /* \"#utility.yul\":485:626   */\n    tag_74:\n        /* \"#utility.yul\":550:559   */\n      0x00\n        /* \"#utility.yul\":583:620   */\n      tag_111\n        /* \"#utility.yul\":614:619   */\n      dup3\n        /* \"#utility.yul\":583:620   */\n      tag_73\n      jump\t// in\n    tag_111:\n        /* \"#utility.yul\":570:620   */\n      swap1\n      pop\n        /* \"#utility.yul\":485:626   */\n      swap2\n      swap1\n      pop\n      jump\t// out\n        /* \"#utility.yul\":632:793   */\n    tag_75:\n        /* \"#utility.yul\":734:786   */\n      tag_113\n        /* \"#utility.yul\":780:785   */\n      dup2\n        /* \"#utility.yul\":734:786   */\n      tag_74\n      jump\t// in\n    tag_113:\n        /* \"#utility.yul\":729:732   */\n      dup3\n        /* \"#utility.yul\":722:787   */\n      mstore\n        /* \"#utility.yul\":632:793   */\n      pop\n      pop\n      jump\t// out\n        /* \"#utility.yul\":799:1051   */\n    tag_12:\n        /* \"#utility.yul\":907:911   */\n      0x00\n        /* \"#utility.yul\":945:947   */\n      0x20\n        /* \"#utility.yul\":934:943   */\n      dup3\n        /* \"#utility.yul\":930:948   */\n      add\n        /* \"#utility.yul\":922:948   */\n      swap1\n      pop\n        /* \"#utility.yul\":958:1044   */\n      tag_115\n        /* \"#utility.yul\":1041:1042   */\n      0x00\n        /* \"#utility.yul\":1030:1039   */\n      dup4\n        /* \"#utility.yul\":1026:1043   */\n      add\n        /* \"#utility.yul\":1017:1023   */\n      dup5\n        /* \"#utility.yul\":958:1044   */\n      tag_75\n      jump\t// in\n    tag_115:\n        /* \"#utility.yul\":799:1051   */\n      swap3\n      swap2\n      pop\n      pop\n      jump\t// out\n        /* \"#utility.yul\":1138:1255   */\n    tag_77:\n        /* \"#utility.yul\":1247:1248   */\n      0x00\n        /* \"#utility.yul\":1244:1245   */\n      dup1\n        /* \"#utility.yul\":1237:1249   */\n      revert\n        /* \"#utility.yul\":1384:1480   */\n    tag_79:\n        /* \"#utility.yul\":1421:1428   */\n      0x00\n        /* \"#utility.yul\":1450:1474   */\n      tag_120\n        /* \"#utility.yul\":1468:1473   */\n      dup3\n        /* \"#utility.yul\":1450:1474   */\n      tag_70\n      jump\t// in\n    tag_120:\n        /* \"#utility.yul\":1439:1474   */\n      swap1\n      pop\n        /* \"#utility.yul\":1384:1480   */\n      swap2\n      swap1\n      pop\n      jump\t// out\n        /* \"#utility.yul\":1486:1608   */\n    tag_80:\n        /* \"#utility.yul\":1559:1583   */\n      tag_122\n        /* \"#utility.yul\":1577:1582   */\n      dup2\n        /* \"#utility.yul\":1559:1583   */\n      tag_79\n      jump\t// in\n    tag_122:\n        /* \"#utility.yul\":1552:1557   */\n      dup2\n        /* \"#utility.yul\":1549:1584   */\n      eq\n        /* \"#utility.yul\":1539:1602   */\n      tag_123\n      jumpi\n        /* \"#utility.yul\":1598:1599   */\n      0x00\n        /* \"#utility.yul\":1595:1596   */\n      dup1\n        /* \"#utility.yul\":1588:1600   */\n      revert\n        /* \"#utility.yul\":1539:1602   */\n    tag_123:\n        /* \"#utility.yul\":1486:1608   */\n      pop\n      jump\t// out\n        /* \"#utility.yul\":1614:1753   */\n    tag_81:\n        /* \"#utility.yul\":1660:1665   */\n      0x00\n        /* \"#utility.yul\":1698:1704   */\n      dup2\n        /* \"#utility.yul\":1685:1705   */\n      calldataload\n        /* \"#utility.yul\":1676:1705   */\n      swap1\n      pop\n        /* \"#utility.yul\":1714:1747   */\n      tag_125\n        /* \"#utility.yul\":1741:1746   */\n      dup2\n        /* \"#utility.yul\":1714:1747   */\n      tag_80\n      jump\t// in\n    tag_125:\n        /* \"#utility.yul\":1614:1753   */\n      swap3\n      swap2\n      pop\n      pop\n      jump\t// out\n        /* \"#utility.yul\":1759:2088   */\n    tag_15:\n        /* \"#utility.yul\":1818:1824   */\n      0x00\n        /* \"#utility.yul\":1867:1869   */\n      0x20\n        /* \"#utility.yul\":1855:1864   */\n      dup3\n        /* \"#utility.yul\":1846:1853   */\n      dup5\n        /* \"#utility.yul\":1842:1865   */\n      sub\n        /* \"#utility.yul\":1838:1870   */\n      slt\n        /* \"#utility.yul\":1835:1954   */\n      iszero\n      tag_127\n      jumpi\n        /* \"#utility.yul\":1873:1952   */\n      tag_128\n      tag_77\n      jump\t// in\n    tag_128:\n        /* \"#utility.yul\":1835:1954   */\n    tag_127:\n        /* \"#utility.yul\":1993:1994   */\n      0x00\n        /* \"#utility.yul\":2018:2071   */\n      tag_129\n        /* \"#utility.yul\":2063:2070   */\n      dup5\n        /* \"#utility.yul\":2054:2060   */\n      dup3\n        /* \"#utility.yul\":2043:2052   */\n      dup6\n        /* \"#utility.yul\":2039:2061   */\n      add\n        /* \"#utility.yul\":2018:2071   */\n      tag_81\n      jump\t// in\n    tag_129:\n        /* \"#utility.yul\":2008:2071   */\n      swap2\n      pop\n        /* \"#utility.yul\":1964:2081   */\n      pop\n        /* \"#utility.yul\":1759:2088   */\n      swap3\n      swap2\n      pop\n      pop\n      jump\t// out\n        /* \"#utility.yul\":2094:2171   */\n    tag_82:\n        /* \"#utility.yul\":2131:2138   */\n      0x00\n        /* \"#utility.yul\":2160:2165   */\n      dup2\n        /* \"#utility.yul\":2149:2165   */\n      swap1\n      pop\n        /* \"#utility.yul\":2094:2171   */\n      swap2\n      swap1\n      pop\n      jump\t// out\n        /* \"#utility.yul\":2177:2299   */\n    tag_83:\n        /* \"#utility.yul\":2250:2274   */\n      tag_132\n        /* \"#utility.yul\":2268:2273   */\n      dup2\n        /* \"#utility.yul\":2250:2274   */\n      tag_82\n      jump\t// in\n    tag_132:\n        /* \"#utility.yul\":2243:2248   */\n      dup2\n        /* \"#utility.yul\":2240:2275   */\n      eq\n        /* \"#utility.yul\":2230:2293   */\n      tag_133\n      jumpi\n        /* \"#utility.yul\":2289:2290   */\n      0x00\n        /* \"#utility.yul\":2286:2287   */\n      dup1\n        /* \"#utility.yul\":2279:2291   */\n      revert\n        /* \"#utility.yul\":2230:2293   */\n    tag_133:\n        /* \"#utility.yul\":2177:2299   */\n      pop\n      jump\t// out\n        /* \"#utility.yul\":2305:2444   */\n    tag_84:\n        /* \"#utility.yul\":2351:2356   */\n      0x00\n        /* \"#utility.yul\":2389:2395   */\n      dup2\n        /* \"#utility.yul\":2376:2396   */\n      calldataload\n        /* \"#utility.yul\":2367:2396   */\n      swap1\n      pop\n        /* \"#utility.yul\":2405:2438   */\n      tag_135\n        /* \"#utility.yul\":2432:2437   */\n      dup2\n        /* \"#utility.yul\":2405:2438   */\n      tag_83\n      jump\t// in\n    tag_135:\n        /* \"#utility.yul\":2305:2444   */\n      swap3\n      swap2\n      pop\n      pop\n      jump\t// out\n        /* \"#utility.yul\":2450:2779   */\n    tag_20:\n        /* \"#utility.yul\":2509:2515   */\n      0x00\n        /* \"#utility.yul\":2558:2560   */\n      0x20\n        /* \"#utility.yul\":2546:2555   */\n      dup3\n        /* \"#utility.yul\":2537:2544   */\n      dup5\n        /* \"#utility.yul\":2533:2556   */\n      sub\n        /* \"#utility.yul\":2529:2561   */\n      slt\n        /* \"#utility.yul\":2526:2645   */\n      iszero\n      tag_137\n      jumpi\n        /* \"#utility.yul\":2564:2643   */\n      tag_138\n      tag_77\n      jump\t// in\n    tag_138:\n        /* \"#utility.yul\":2526:2645   */\n    tag_137:\n        /* \"#utility.yul\":2684:2685   */\n      0x00\n        /* \"#utility.yul\":2709:2762   */\n      tag_139\n        /* \"#utility.yul\":2754:2761   */\n      dup5\n        /* \"#utility.yul\":2745:2751   */\n      dup3\n        /* \"#utility.yul\":2734:2743   */\n      dup6\n        /* \"#utility.yul\":2730:2752   */\n      add\n        /* \"#utility.yul\":2709:2762   */\n      tag_84\n      jump\t// in\n    tag_139:\n        /* \"#utility.yul\":2699:2762   */\n      swap2\n      pop\n        /* \"#utility.yul\":2655:2772   */\n      pop\n        /* \"#utility.yul\":2450:2779   */\n      swap3\n      swap2\n      pop\n      pop\n      jump\t// out\n        /* \"#utility.yul\":2785:2914   */\n    tag_85:\n        /* \"#utility.yul\":2867:2873   */\n      0x00\n        /* \"#utility.yul\":2901:2906   */\n      dup2\n        /* \"#utility.yul\":2895:2907   */\n      mload\n        /* \"#utility.yul\":2885:2907   */\n      swap1\n      pop\n        /* \"#utility.yul\":2785:2914   */\n      swap2\n      swap1\n      pop\n      jump\t// out\n        /* \"#utility.yul\":2920:3104   */\n    tag_86:\n        /* \"#utility.yul\":3019:3030   */\n      0x00\n        /* \"#utility.yul\":3053:3059   */\n      dup3\n        /* \"#utility.yul\":3048:3051   */\n      dup3\n        /* \"#utility.yul\":3041:3060   */\n      mstore\n        /* \"#utility.yul\":3093:3097   */\n      0x20\n        /* \"#utility.yul\":3088:3091   */\n      dup3\n        /* \"#utility.yul\":3084:3098   */\n      add\n        /* \"#utility.yul\":3069:3098   */\n      swap1\n      pop\n        /* \"#utility.yul\":2920:3104   */\n      swap3\n      swap2\n      pop\n      pop\n      jump\t// out\n        /* \"#utility.yul\":3110:3257   */\n    tag_87:\n        /* \"#utility.yul\":3192:3196   */\n      0x00\n        /* \"#utility.yul\":3215:3218   */\n      dup2\n        /* \"#utility.yul\":3207:3218   */\n      swap1\n      pop\n        /* \"#utility.yul\":3245:3249   */\n      0x20\n        /* \"#utility.yul\":3240:3243   */\n      dup3\n        /* \"#utility.yul\":3236:3250   */\n      add\n        /* \"#utility.yul\":3228:3250   */\n      swap1\n      pop\n        /* \"#utility.yul\":3110:3257   */\n      swap2\n      swap1\n      pop\n      jump\t// out\n        /* \"#utility.yul\":3263:3414   */\n    tag_88:\n        /* \"#utility.yul\":3355:3407   */\n      tag_144\n        /* \"#utility.yul\":3401:3406   */\n      dup2\n        /* \"#utility.yul\":3355:3407   */\n      tag_74\n      jump\t// in\n    tag_144:\n        /* \"#utility.yul\":3350:3353   */\n      dup3\n        /* \"#utility.yul\":3343:3408   */\n      mstore\n        /* \"#utility.yul\":3263:3414   */\n      pop\n      pop\n      jump\t// out\n        /* \"#utility.yul\":3420:3629   */\n    tag_89:\n        /* \"#utility.yul\":3504:3514   */\n      0x00\n        /* \"#utility.yul\":3525:3586   */\n      tag_146\n        /* \"#utility.yul\":3582:3585   */\n      dup4\n        /* \"#utility.yul\":3574:3580   */\n      dup4\n        /* \"#utility.yul\":3525:3586   */\n      tag_88\n      jump\t// in\n    tag_146:\n        /* \"#utility.yul\":3618:3622   */\n      0x20\n        /* \"#utility.yul\":3613:3616   */\n      dup4\n        /* \"#utility.yul\":3609:3623   */\n      add\n        /* \"#utility.yul\":3595:3623   */\n      swap1\n      pop\n        /* \"#utility.yul\":3420:3629   */\n      swap3\n      swap2\n      pop\n      pop\n      jump\t// out\n        /* \"#utility.yul\":3635:3763   */\n    tag_90:\n        /* \"#utility.yul\":3720:3724   */\n      0x00\n        /* \"#utility.yul\":3752:3756   */\n      0x20\n        /* \"#utility.yul\":3747:3750   */\n      dup3\n        /* \"#utility.yul\":3743:3757   */\n      add\n        /* \"#utility.yul\":3735:3757   */\n      swap1\n      pop\n        /* \"#utility.yul\":3635:3763   */\n      swap2\n      swap1\n      pop\n      jump\t// out\n        /* \"#utility.yul\":3808:4615   */\n    tag_91:\n        /* \"#utility.yul\":3942:3945   */\n      0x00\n        /* \"#utility.yul\":3971:4040   */\n      tag_149\n        /* \"#utility.yul\":4034:4039   */\n      dup3\n        /* \"#utility.yul\":3971:4040   */\n      tag_85\n      jump\t// in\n    tag_149:\n        /* \"#utility.yul\":4056:4142   */\n      tag_150\n        /* \"#utility.yul\":4135:4141   */\n      dup2\n        /* \"#utility.yul\":4130:4133   */\n      dup6\n        /* \"#utility.yul\":4056:4142   */\n      tag_86\n      jump\t// in\n    tag_150:\n        /* \"#utility.yul\":4049:4142   */\n      swap4\n      pop\n        /* \"#utility.yul\":4166:4237   */\n      tag_151\n        /* \"#utility.yul\":4231:4236   */\n      dup4\n        /* \"#utility.yul\":4166:4237   */\n      tag_87\n      jump\t// in\n    tag_151:\n        /* \"#utility.yul\":4260:4267   */\n      dup1\n        /* \"#utility.yul\":4291:4292   */\n      0x00\n        /* \"#utility.yul\":4276:4590   */\n    tag_152:\n        /* \"#utility.yul\":4301:4307   */\n      dup4\n        /* \"#utility.yul\":4298:4299   */\n      dup2\n        /* \"#utility.yul\":4295:4308   */\n      lt\n        /* \"#utility.yul\":4276:4590   */\n      iszero\n      tag_154\n      jumpi\n        /* \"#utility.yul\":4377:4383   */\n      dup2\n        /* \"#utility.yul\":4371:4384   */\n      mload\n        /* \"#utility.yul\":4404:4482   */\n      tag_155\n        /* \"#utility.yul\":4478:4481   */\n      dup9\n        /* \"#utility.yul\":4463:4476   */\n      dup3\n        /* \"#utility.yul\":4404:4482   */\n      tag_89\n      jump\t// in\n    tag_155:\n        /* \"#utility.yul\":4397:4482   */\n      swap8\n      pop\n        /* \"#utility.yul\":4505:4580   */\n      tag_156\n        /* \"#utility.yul\":4573:4579   */\n      dup4\n        /* \"#utility.yul\":4505:4580   */\n      tag_90\n      jump\t// in\n    tag_156:\n        /* \"#utility.yul\":4495:4580   */\n      swap3\n      pop\n        /* \"#utility.yul\":4336:4590   */\n      pop\n        /* \"#utility.yul\":4323:4324   */\n      0x01\n        /* \"#utility.yul\":4320:4321   */\n      dup2\n        /* \"#utility.yul\":4316:4325   */\n      add\n        /* \"#utility.yul\":4311:4325   */\n      swap1\n      pop\n        /* \"#utility.yul\":4276:4590   */\n      jump(tag_152)\n    tag_154:\n        /* \"#utility.yul\":4280:4294   */\n      pop\n        /* \"#utility.yul\":4606:4609   */\n      dup6\n        /* \"#utility.yul\":4599:4609   */\n      swap4\n      pop\n        /* \"#utility.yul\":3947:4615   */\n      pop\n      pop\n      pop\n        /* \"#utility.yul\":3808:4615   */\n      swap3\n      swap2\n      pop\n      pop\n      jump\t// out\n        /* \"#utility.yul\":4621:5024   */\n    tag_28:\n        /* \"#utility.yul\":4779:4783   */\n      0x00\n        /* \"#utility.yul\":4817:4819   */\n      0x20\n        /* \"#utility.yul\":4806:4815   */\n      dup3\n        /* \"#utility.yul\":4802:4820   */\n      add\n        /* \"#utility.yul\":4794:4820   */\n      swap1\n      pop\n        /* \"#utility.yul\":4866:4875   */\n      dup2\n        /* \"#utility.yul\":4860:4864   */\n      dup2\n        /* \"#utility.yul\":4856:4876   */\n      sub\n        /* \"#utility.yul\":4852:4853   */\n      0x00\n        /* \"#utility.yul\":4841:4850   */\n      dup4\n        /* \"#utility.yul\":4837:4854   */\n      add\n        /* \"#utility.yul\":4830:4877   */\n      mstore\n        /* \"#utility.yul\":4894:5017   */\n      tag_158\n        /* \"#utility.yul\":5012:5016   */\n      dup2\n        /* \"#utility.yul\":5003:5009   */\n      dup5\n        /* \"#utility.yul\":4894:5017   */\n      tag_91\n      jump\t// in\n    tag_158:\n        /* \"#utility.yul\":4886:5017   */\n      swap1\n      pop\n        /* \"#utility.yul\":4621:5024   */\n      swap3\n      swap2\n      pop\n      pop\n      jump\t// out\n        /* \"#utility.yul\":5030:5210   */\n    tag_38:\n        /* \"#utility.yul\":5078:5155   */\n      0x4e487b7100000000000000000000000000000000000000000000000000000000\n        /* \"#utility.yul\":5075:5076   */\n      0x00\n        /* \"#utility.yul\":5068:5156   */\n      mstore\n        /* \"#utility.yul\":5175:5179   */\n      0x32\n        /* \"#utility.yul\":5172:5173   */\n      0x04\n        /* \"#utility.yul\":5165:5180   */\n      mstore\n        /* \"#utility.yul\":5199:5203   */\n      0x24\n        /* \"#utility.yul\":5196:5197   */\n      0x00\n        /* \"#utility.yul\":5189:5204   */\n      revert\n        /* \"#utility.yul\":5216:5396   */\n    tag_92:\n        /* \"#utility.yul\":5264:5341   */\n      0x4e487b7100000000000000000000000000000000000000000000000000000000\n        /* \"#utility.yul\":5261:5262   */\n      0x00\n        /* \"#utility.yul\":5254:5342   */\n      mstore\n        /* \"#utility.yul\":5361:5365   */\n      0x11\n        /* \"#utility.yul\":5358:5359   */\n      0x04\n        /* \"#utility.yul\":5351:5366   */\n      mstore\n        /* \"#utility.yul\":5385:5389   */\n      0x24\n        /* \"#utility.yul\":5382:5383   */\n      0x00\n        /* \"#utility.yul\":5375:5390   */\n      revert\n        /* \"#utility.yul\":5402:5635   */\n    tag_47:\n        /* \"#utility.yul\":5441:5444   */\n      0x00\n        /* \"#utility.yul\":5464:5488   */\n      tag_162\n        /* \"#utility.yul\":5482:5487   */\n      dup3\n        /* \"#utility.yul\":5464:5488   */\n      tag_82\n      jump\t// in\n    tag_162:\n        /* \"#utility.yul\":5455:5488   */\n      swap2\n      pop\n        /* \"#utility.yul\":5510:5576   */\n      0xffffffffffffffffffffffffffffffffffffffffffffffffffffffffffffffff\n        /* \"#utility.yul\":5503:5508   */\n      dup3\n        /* \"#utility.yul\":5500:5577   */\n      eq\n        /* \"#utility.yul\":5497:5600   */\n      iszero\n      tag_163\n      jumpi\n        /* \"#utility.yul\":5580:5598   */\n      tag_164\n      tag_92\n      jump\t// in\n    tag_164:\n        /* \"#utility.yul\":5497:5600   */\n    tag_163:\n        /* \"#utility.yul\":5627:5628   */\n      0x01\n        /* \"#utility.yul\":5620:5625   */\n      dup3\n        /* \"#utility.yul\":5616:5629   */\n      add\n        /* \"#utility.yul\":5609:5629   */\n      swap1\n      pop\n        /* \"#utility.yul\":5402:5635   */\n      swap2\n      swap1\n      pop\n      jump\t// out\n        /* \"#utility.yul\":5641:5720   */\n    tag_93:\n        /* \"#utility.yul\":5680:5687   */\n      0x00\n        /* \"#utility.yul\":5709:5714   */\n      dup2\n        /* \"#utility.yul\":5698:5714   */\n      swap1\n      pop\n        /* \"#utility.yul\":5641:5720   */\n      swap2\n      swap1\n      pop\n      jump\t// out\n        /* \"#utility.yul\":5726:5883   */\n    tag_94:\n        /* \"#utility.yul\":5831:5876   */\n      tag_167\n        /* \"#utility.yul\":5851:5875   */\n      tag_168\n        /* \"#utility.yul\":5869:5874   */\n      dup3\n        /* \"#utility.yul\":5851:5875   */\n      tag_82\n      jump\t// in\n    tag_168:\n        /* \"#utility.yul\":5831:5876   */\n      tag_93\n      jump\t// in\n    tag_167:\n        /* \"#utility.yul\":5826:5829   */\n      dup3\n        /* \"#utility.yul\":5819:5877   */\n      mstore\n        /* \"#utility.yul\":5726:5883   */\n      pop\n      pop\n      jump\t// out\n        /* \"#utility.yul\":5889:6052   */\n    tag_95:\n        /* \"#utility.yul\":6006:6017   */\n      0x00\n        /* \"#utility.yul\":6043:6046   */\n      dup2\n        /* \"#utility.yul\":6028:6046   */\n      swap1\n      pop\n        /* \"#utility.yul\":5889:6052   */\n      swap3\n      swap2\n      pop\n      pop\n      jump\t// out\n        /* \"#utility.yul\":6058:6217   */\n    tag_96:\n        /* \"#utility.yul\":6158:6210   */\n      tag_171\n        /* \"#utility.yul\":6204:6209   */\n      dup2\n        /* \"#utility.yul\":6158:6210   */\n      tag_74\n      jump\t// in\n    tag_171:\n        /* \"#utility.yul\":6153:6156   */\n      dup3\n        /* \"#utility.yul\":6146:6211   */\n      mstore\n        /* \"#utility.yul\":6058:6217   */\n      pop\n      pop\n      jump\t// out\n        /* \"#utility.yul\":6223:6448   */\n    tag_97:\n        /* \"#utility.yul\":6315:6325   */\n      0x00\n        /* \"#utility.yul\":6336:6405   */\n      tag_173\n        /* \"#utility.yul\":6401:6404   */\n      dup4\n        /* \"#utility.yul\":6393:6399   */\n      dup4\n        /* \"#utility.yul\":6336:6405   */\n      tag_96\n      jump\t// in\n    tag_173:\n        /* \"#utility.yul\":6437:6441   */\n      0x20\n        /* \"#utility.yul\":6432:6435   */\n      dup4\n        /* \"#utility.yul\":6428:6442   */\n      add\n        /* \"#utility.yul\":6414:6442   */\n      swap1\n      pop\n        /* \"#utility.yul\":6223:6448   */\n      swap3\n      swap2\n      pop\n      pop\n      jump\t// out\n        /* \"#utility.yul\":6493:7344   */\n    tag_98:\n        /* \"#utility.yul\":6645:6648   */\n      0x00\n        /* \"#utility.yul\":6674:6743   */\n      tag_175\n        /* \"#utility.yul\":6737:6742   */\n      dup3\n        /* \"#utility.yul\":6674:6743   */\n      tag_85\n      jump\t// in\n    tag_175:\n        /* \"#utility.yul\":6759:6863   */\n      tag_176\n        /* \"#utility.yul\":6856:6862   */\n      dup2\n        /* \"#utility.yul\":6851:6854   */\n      dup6\n        /* \"#utility.yul\":6759:6863   */\n      tag_95\n      jump\t// in\n    tag_176:\n        /* \"#utility.yul\":6752:6863   */\n      swap4\n      pop\n        /* \"#utility.yul\":6887:6958   */\n      tag_177\n        /* \"#utility.yul\":6952:6957   */\n      dup4\n        /* \"#utility.yul\":6887:6958   */\n      tag_87\n      jump\t// in\n    tag_177:\n        /* \"#utility.yul\":6981:6988   */\n      dup1\n        /* \"#utility.yul\":7012:7013   */\n      0x00\n        /* \"#utility.yul\":6997:7319   */\n    tag_178:\n        /* \"#utility.yul\":7022:7028   */\n      dup4\n        /* \"#utility.yul\":7019:7020   */\n      dup2\n        /* \"#utility.yul\":7016:7029   */\n      lt\n        /* \"#utility.yul\":6997:7319   */\n      iszero\n      tag_180\n      jumpi\n        /* \"#utility.yul\":7098:7104   */\n      dup2\n        /* \"#utility.yul\":7092:7105   */\n      mload\n        /* \"#utility.yul\":7125:7211   */\n      tag_181\n        /* \"#utility.yul\":7207:7210   */\n      dup9\n        /* \"#utility.yul\":7192:7205   */\n      dup3\n        /* \"#utility.yul\":7125:7211   */\n      tag_97\n      jump\t// in\n    tag_181:\n        /* \"#utility.yul\":7118:7211   */\n      swap8\n      pop\n        /* \"#utility.yul\":7234:7309   */\n      tag_182\n        /* \"#utility.yul\":7302:7308   */\n      dup4\n        /* \"#utility.yul\":7234:7309   */\n      tag_90\n      jump\t// in\n    tag_182:\n        /* \"#utility.yul\":7224:7309   */\n      swap3\n      pop\n        /* \"#utility.yul\":7057:7319   */\n      pop\n        /* \"#utility.yul\":7044:7045   */\n      0x01\n        /* \"#utility.yul\":7041:7042   */\n      dup2\n        /* \"#utility.yul\":7037:7046   */\n      add\n        /* \"#utility.yul\":7032:7046   */\n      swap1\n      pop\n        /* \"#utility.yul\":6997:7319   */\n      jump(tag_178)\n    tag_180:\n        /* \"#utility.yul\":7001:7015   */\n      pop\n        /* \"#utility.yul\":7335:7338   */\n      dup6\n        /* \"#utility.yul\":7328:7338   */\n      swap4\n      pop\n        /* \"#utility.yul\":6650:7344   */\n      pop\n      pop\n      pop\n        /* \"#utility.yul\":6493:7344   */\n      swap3\n      swap2\n      pop\n      pop\n      jump\t// out\n        /* \"#utility.yul\":7350:7997   */\n    tag_50:\n        /* \"#utility.yul\":7583:7586   */\n      0x00\n        /* \"#utility.yul\":7598:7673   */\n      tag_184\n        /* \"#utility.yul\":7669:7672   */\n      dup3\n        /* \"#utility.yul\":7660:7666   */\n      dup7\n        /* \"#utility.yul\":7598:7673   */\n      tag_94\n      jump\t// in\n    tag_184:\n        /* \"#utility.yul\":7698:7700   */\n      0x20\n        /* \"#utility.yul\":7693:7696   */\n      dup3\n        /* \"#utility.yul\":7689:7701   */\n      add\n        /* \"#utility.yul\":7682:7701   */\n      swap2\n      pop\n        /* \"#utility.yul\":7711:7786   */\n      tag_185\n        /* \"#utility.yul\":7782:7785   */\n      dup3\n        /* \"#utility.yul\":7773:7779   */\n      dup6\n        /* \"#utility.yul\":7711:7786   */\n      tag_94\n      jump\t// in\n    tag_185:\n        /* \"#utility.yul\":7811:7813   */\n      0x20\n        /* \"#utility.yul\":7806:7809   */\n      dup3\n        /* \"#utility.yul\":7802:7814   */\n      add\n        /* \"#utility.yul\":7795:7814   */\n      swap2\n      pop\n        /* \"#utility.yul\":7831:7971   */\n      tag_186\n        /* \"#utility.yul\":7967:7970   */\n      dup3\n        /* \"#utility.yul\":7958:7964   */\n      dup5\n        /* \"#utility.yul\":7831:7971   */\n      tag_98\n      jump\t// in\n    tag_186:\n        /* \"#utility.yul\":7824:7971   */\n      swap2\n      pop\n        /* \"#utility.yul\":7988:7991   */\n      dup2\n        /* \"#utility.yul\":7981:7991   */\n      swap1\n      pop\n        /* \"#utility.yul\":7350:7997   */\n      swap5\n      swap4\n      pop\n      pop\n      pop\n      pop\n      jump\t// out\n        /* \"#utility.yul\":8003:8183   */\n    tag_99:\n        /* \"#utility.yul\":8051:8128   */\n      0x4e487b7100000000000000000000000000000000000000000000000000000000\n        /* \"#utility.yul\":8048:8049   */\n      0x00\n        /* \"#utility.yul\":8041:8129   */\n      mstore\n        /* \"#utility.yul\":8148:8152   */\n      0x12\n        /* \"#utility.yul\":8145:8146   */\n      0x04\n        /* \"#utility.yul\":8138:8153   */\n      mstore\n        /* \"#utility.yul\":8172:8176   */\n      0x24\n        /* \"#utility.yul\":8169:8170   */\n      0x00\n        /* \"#utility.yul\":8162:8177   */\n      revert\n        /* \"#utility.yul\":8189:8365   */\n    tag_52:\n        /* \"#utility.yul\":8221:8222   */\n      0x00\n        /* \"#utility.yul\":8238:8258   */\n      tag_189\n        /* \"#utility.yul\":8256:8257   */\n      dup3\n        /* \"#utility.yul\":8238:8258   */\n      tag_82\n      jump\t// in\n    tag_189:\n        /* \"#utility.yul\":8233:8258   */\n      swap2\n      pop\n        /* \"#utility.yul\":8272:8292   */\n      tag_190\n        /* \"#utility.yul\":8290:8291   */\n      dup4\n        /* \"#utility.yul\":8272:8292   */\n      tag_82\n      jump\t// in\n    tag_190:\n        /* \"#utility.yul\":8267:8292   */\n      swap3\n      pop\n        /* \"#utility.yul\":8311:8312   */\n      dup3\n        /* \"#utility.yul\":8301:8336   */\n      tag_191\n      jumpi\n        /* \"#utility.yul\":8316:8334   */\n      tag_192\n      tag_99\n      jump\t// in\n    tag_192:\n        /* \"#utility.yul\":8301:8336   */\n    tag_191:\n        /* \"#utility.yul\":8357:8358   */\n      dup3\n        /* \"#utility.yul\":8354:8355   */\n      dup3\n        /* \"#utility.yul\":8350:8359   */\n      mod\n        /* \"#utility.yul\":8345:8359   */\n      swap1\n      pop\n        /* \"#utility.yul\":8189:8365   */\n      swap3\n      swap2\n      pop\n      pop\n      jump\t// out\n        /* \"#utility.yul\":8371:8489   */\n    tag_100:\n        /* \"#utility.yul\":8458:8482   */\n      tag_194\n        /* \"#utility.yul\":8476:8481   */\n      dup2\n        /* \"#utility.yul\":8458:8482   */\n      tag_79\n      jump\t// in\n    tag_194:\n        /* \"#utility.yul\":8453:8456   */\n      dup3\n        /* \"#utility.yul\":8446:8483   */\n      mstore\n        /* \"#utility.yul\":8371:8489   */\n      pop\n      pop\n      jump\t// out\n        /* \"#utility.yul\":8495:8717   */\n    tag_63:\n        /* \"#utility.yul\":8588:8592   */\n      0x00\n        /* \"#utility.yul\":8626:8628   */\n      0x20\n        /* \"#utility.yul\":8615:8624   */\n      dup3\n        /* \"#utility.yul\":8611:8629   */\n      add\n        /* \"#utility.yul\":8603:8629   */\n      swap1\n      pop\n        /* \"#utility.yul\":8639:8710   */\n      tag_196\n        /* \"#utility.yul\":8707:8708   */\n      0x00\n        /* \"#utility.yul\":8696:8705   */\n      dup4\n        /* \"#utility.yul\":8692:8709   */\n      add\n        /* \"#utility.yul\":8683:8689   */\n      dup5\n        /* \"#utility.yul\":8639:8710   */\n      tag_100\n      jump\t// in\n    tag_196:\n        /* \"#utility.yul\":8495:8717   */\n      swap3\n      swap2\n      pop\n      pop\n      jump\t// out\n    stop\n\n    sub_0: assembly {\n            /* \"KYC.sol\":1627:5511  contract Userdef{... */\n          mstore(0x40, 0x80)\n            /* \"KYC.sol\":2312:2435  constructor(address creator){... */\n          callvalue\n          dup1\n          iszero\n          tag_1\n          jumpi\n          0x00\n          dup1\n          revert\n        tag_1:\n          pop\n          mload(0x40)\n          sub(codesize, bytecodeSize)\n          dup1\n          bytecodeSize\n          dup4\n          codecopy\n          dup2\n          dup2\n          add\n          0x40\n          mstore\n          dup2\n          add\n          swap1\n          tag_2\n          swap2\n          swap1\n          tag_3\n          jump\t// in\n        tag_2:\n            /* \"KYC.sol\":2361:2368  creator */\n          dup1\n            /* \"KYC.sol\":2351:2358  manager */\n          0x02\n          0x00\n            /* \"KYC.sol\":2351:2368  manager = creator */\n          0x0100\n          exp\n          dup2\n          sload\n          dup2\n          0xffffffffffffffffffffffffffffffffffffffff\n          mul\n          not\n          and\n          swap1\n          dup4\n          0xffffffffffffffffffffffffffffffffffffffff\n          and\n          mul\n          or\n          swap1\n          sstore\n          pop\n            /* \"KYC.sol\":2312:2435  constructor(address creator){... */\n          pop\n            /* \"KYC.sol\":1627:5511  contract Userdef{... */\n          jump(tag_6)\n            /* \"#utility.yul\":88:205   */\n        tag_8:\n            /* \"#utility.yul\":197:198   */\n          0x00\n            /* \"#utility.yul\":194:195   */\n          dup1\n            /* \"#utility.yul\":187:199   */\n          revert\n            /* \"#utility.yul\":334:460   */\n        tag_10:\n            /* \"#utility.yul\":371:378   */\n          0x00\n            /* \"#utility.yul\":411:453   */\n          0xffffffffffffffffffffffffffffffffffffffff\n            /* \"#utility.yul\":404:409   */\n          dup3\n            /* \"#utility.yul\":400:454   */\n          and\n            /* \"#utility.yul\":389:454   */\n          swap1\n          pop\n            /* \"#utility.yul\":334:460   */\n          swap2\n          swap1\n          pop\n          jump\t// out\n            /* \"#utility.yul\":466:562   */\n        tag_11:\n            /* \"#utility.yul\":503:510   */\n          0x00\n            /* \"#utility.yul\":532:556   */\n          tag_20\n            /* \"#utility.yul\":550:555   */\n          dup3\n            /* \"#utility.yul\":532:556   */\n          tag_10\n          jump\t// in\n        tag_20:\n            /* \"#utility.yul\":521:556   */\n          swap1\n          pop\n            /* \"#utility.yul\":466:562   */\n          swap2\n          swap1\n          pop\n          jump\t// out\n            /* \"#utility.yul\":568:690   */\n        tag_12:\n            /* \"#utility.yul\":641:665   */\n          tag_22\n            /* \"#utility.yul\":659:664   */\n          dup2\n            /* \"#utility.yul\":641:665   */\n          tag_11\n          jump\t// in\n        tag_22:\n            /* \"#utility.yul\":634:639   */\n          dup2\n            /* \"#utility.yul\":631:666   */\n          eq\n            /* \"#utility.yul\":621:684   */\n          tag_23\n          jumpi\n            /* \"#utility.yul\":680:681   */\n          0x00\n            /* \"#utility.yul\":677:678   */\n          dup1\n            /* \"#utility.yul\":670:682   */\n          revert\n            /* \"#utility.yul\":621:684   */\n        tag_23:\n            /* \"#utility.yul\":568:690   */\n          pop\n          jump\t// out\n            /* \"#utility.yul\":696:839   */\n        tag_13:\n            /* \"#utility.yul\":753:758   */\n          0x00\n            /* \"#utility.yul\":784:790   */\n          dup2\n            /* \"#utility.yul\":778:791   */\n          mload\n            /* \"#utility.yul\":769:791   */\n          swap1\n          pop\n            /* \"#utility.yul\":800:833   */\n          tag_25\n            /* \"#utility.yul\":827:832   */\n          dup2\n            /* \"#utility.yul\":800:833   */\n          tag_12\n          jump\t// in\n        tag_25:\n            /* \"#utility.yul\":696:839   */\n          swap3\n          swap2\n          pop\n          pop\n          jump\t// out\n            /* \"#utility.yul\":845:1196   */\n        tag_3:\n            /* \"#utility.yul\":915:921   */\n          0x00\n            /* \"#utility.yul\":964:966   */\n          0x20\n            /* \"#utility.yul\":952:961   */\n          dup3\n            /* \"#utility.yul\":943:950   */\n          dup5\n            /* \"#utility.yul\":939:962   */\n          sub\n            /* \"#utility.yul\":935:967   */\n          slt\n            /* \"#utility.yul\":932:1051   */\n          iszero\n          tag_27\n          jumpi\n            /* \"#utility.yul\":970:1049   */\n          tag_28\n          tag_8\n          jump\t// in\n        tag_28:\n            /* \"#utility.yul\":932:1051   */\n        tag_27:\n            /* \"#utility.yul\":1090:1091   */\n          0x00\n            /* \"#utility.yul\":1115:1179   */\n          tag_29\n            /* \"#utility.yul\":1171:1178   */\n          dup5\n            /* \"#utility.yul\":1162:1168   */\n          dup3\n            /* \"#utility.yul\":1151:1160   */\n          dup6\n            /* \"#utility.yul\":1147:1169   */\n          add\n            /* \"#utility.yul\":1115:1179   */\n          tag_13\n          jump\t// in\n        tag_29:\n            /* \"#utility.yul\":1105:1179   */\n          swap2\n          pop\n            /* \"#utility.yul\":1061:1189   */\n          pop\n            /* \"#utility.yul\":845:1196   */\n          swap3\n          swap2\n          pop\n          pop\n          jump\t// out\n            /* \"KYC.sol\":1627:5511  contract Userdef{... */\n        tag_6:\n          dataSize(sub_0)\n          dup1\n          dataOffset(sub_0)\n          0x00\n          codecopy\n          0x00\n          return\n        stop\n\n        sub_0: assembly {\n                /* \"KYC.sol\":1627:5511  contract Userdef{... */\n              mstore(0x40, 0x80)\n              callvalue\n              dup1\n              iszero\n              tag_1\n              jumpi\n              0x00\n              dup1\n              revert\n            tag_1:\n              pop\n              jumpi(tag_2, lt(calldatasize, 0x04))\n              shr(0xe0, calldataload(0x00))\n              dup1\n              0xc2bb515f\n              gt\n              tag_15\n              jumpi\n              dup1\n              0xc2bb515f\n              eq\n              tag_9\n              jumpi\n              dup1\n              0xcc3d967b\n              eq\n              tag_10\n              jumpi\n              dup1\n              0xdf89f819\n              eq\n              tag_11\n              jumpi\n              dup1\n              0xea00962f\n              eq\n              tag_12\n              jumpi\n              dup1\n              0xede3a670\n              eq\n              tag_13\n              jumpi\n              dup1\n              0xf203c19d\n              eq\n              tag_14\n              jumpi\n              jump(tag_2)\n            tag_15:\n              dup1\n              0x091bac16\n              eq\n              tag_3\n              jumpi\n              dup1\n              0x263b81c9\n              eq\n              tag_4\n              jumpi\n              dup1\n              0x311cc831\n              eq\n              tag_5\n              jumpi\n              dup1\n              0x481c6a75\n              eq\n              tag_6\n              jumpi\n              dup1\n              0x509fda0e\n              eq\n              tag_7\n              jumpi\n              dup1\n              0xadb4d990\n              eq\n              tag_8\n              jumpi\n            tag_2:\n              0x00\n              dup1\n              revert\n                /* \"KYC.sol\":3737:3953  function getAadharPan(address rer) public view... */\n            tag_3:\n              tag_16\n              0x04\n              dup1\n              calldatasize\n              sub\n              dup2\n              add\n              swap1\n              tag_17\n              swap2\n              swap1\n              tag_18\n              jump\t// in\n            tag_17:\n              tag_19\n              jump\t// in\n            tag_16:\n              mload(0x40)\n              tag_20\n              swap3\n              swap2\n              swap1\n              tag_21\n              jump\t// in\n            tag_20:\n              mload(0x40)\n              dup1\n              swap2\n              sub\n              swap1\n              return\n                /* \"KYC.sol\":5312:5506  function approveRequest() public{... */\n            tag_4:\n              tag_22\n              tag_23\n              jump\t// in\n            tag_22:\n              stop\n                /* \"KYC.sol\":2443:3215  function addUser(string memory n, string memory f, string memory m, string memory d, string memory ad,string memory mo,string memory e,string memory aadhar,string memory pan,string memory ah,string memory ph) ... */\n            tag_5:\n              tag_24\n              0x04\n              dup1\n              calldatasize\n              sub\n              dup2\n              add\n              swap1\n              tag_25\n              swap2\n              swap1\n              tag_26\n              jump\t// in\n            tag_25:\n              tag_27\n              jump\t// in\n            tag_24:\n              stop\n                /* \"KYC.sol\":2037:2059  address public manager */\n            tag_6:\n              tag_28\n              tag_29\n              jump\t// in\n            tag_28:\n              mload(0x40)\n              tag_30\n              swap2\n              swap1\n              tag_31\n              jump\t// in\n            tag_30:\n              mload(0x40)\n              dup1\n              swap2\n              sub\n              swap1\n              return\n                /* \"KYC.sol\":3961:4163  function getAadharPanHash(address rer) public view... */\n            tag_7:\n              tag_32\n              0x04\n              dup1\n              calldatasize\n              sub\n              dup2\n              add\n              swap1\n              tag_33\n              swap2\n              swap1\n              tag_18\n              jump\t// in\n            tag_33:\n              tag_34\n              jump\t// in\n            tag_32:\n              mload(0x40)\n              tag_35\n              swap3\n              swap2\n              swap1\n              tag_21\n              jump\t// in\n            tag_35:\n              mload(0x40)\n              dup1\n              swap2\n              sub\n              swap1\n              return\n                /* \"KYC.sol\":2090:2113  address public assigned */\n            tag_8:\n              tag_36\n              tag_37\n              jump\t// in\n            tag_36:\n              mload(0x40)\n              tag_38\n              swap2\n              swap1\n              tag_31\n              jump\t// in\n            tag_38:\n              mload(0x40)\n              dup1\n              swap2\n              sub\n              swap1\n              return\n                /* \"KYC.sol\":5212:5304  function getRequest() public view returns(Request memory) {... */\n            tag_9:\n              tag_39\n              tag_40\n              jump\t// in\n            tag_39:\n              mload(0x40)\n              tag_41\n              swap2\n              swap1\n              tag_42\n              jump\t// in\n            tag_41:\n              mload(0x40)\n              dup1\n              swap2\n              sub\n              swap1\n              return\n                /* \"KYC.sol\":4171:4631  function getUserDetails(address ass) public view agentRestricted... */\n            tag_10:\n              tag_43\n              0x04\n              dup1\n              calldatasize\n              sub\n              dup2\n              add\n              swap1\n              tag_44\n              swap2\n              swap1\n              tag_18\n              jump\t// in\n            tag_44:\n              tag_45\n              jump\t// in\n            tag_43:\n              mload(0x40)\n              tag_46\n              swap10\n              swap9\n              swap8\n              swap7\n              swap6\n              swap5\n              swap4\n              swap3\n              swap2\n              swap1\n              tag_47\n              jump\t// in\n            tag_46:\n              mload(0x40)\n              dup1\n              swap2\n              sub\n              swap1\n              return\n                /* \"KYC.sol\":4795:5204  function createRequest(string memory describe,string memory link) public{... */\n            tag_11:\n              tag_48\n              0x04\n              dup1\n              calldatasize\n              sub\n              dup2\n              add\n              swap1\n              tag_49\n              swap2\n              swap1\n              tag_50\n              jump\t// in\n            tag_49:\n              tag_51\n              jump\t// in\n            tag_48:\n              stop\n                /* \"KYC.sol\":3223:3318  function getDeployedUsers() public view returns(address) {... */\n            tag_12:\n              tag_52\n              tag_53\n              jump\t// in\n            tag_52:\n              mload(0x40)\n              tag_54\n              swap2\n              swap1\n              tag_31\n              jump\t// in\n            tag_54:\n              mload(0x40)\n              dup1\n              swap2\n              sub\n              swap1\n              return\n                /* \"KYC.sol\":3346:3729  function getparticularUser(address rer) public view... */\n            tag_13:\n              tag_55\n              0x04\n              dup1\n              calldatasize\n              sub\n              dup2\n              add\n              swap1\n              tag_56\n              swap2\n              swap1\n              tag_18\n              jump\t// in\n            tag_56:\n              tag_57\n              jump\t// in\n            tag_55:\n              mload(0x40)\n              tag_58\n              swap8\n              swap7\n              swap6\n              swap5\n              swap4\n              swap3\n              swap2\n              swap1\n              tag_59\n              jump\t// in\n            tag_58:\n              mload(0x40)\n              dup1\n              swap2\n              sub\n              swap1\n              return\n                /* \"KYC.sol\":1966:1993  address public usersAddress */\n            tag_14:\n              tag_60\n              tag_61\n              jump\t// in\n            tag_60:\n              mload(0x40)\n              tag_62\n              swap2\n              swap1\n              tag_31\n              jump\t// in\n            tag_62:\n              mload(0x40)\n              dup1\n              swap2\n              sub\n              swap1\n              return\n                /* \"KYC.sol\":3737:3953  function getAadharPan(address rer) public view... */\n            tag_19:\n                /* \"KYC.sol\":3797:3810  string memory */\n              0x60\n                /* \"KYC.sol\":3811:3824  string memory */\n              dup1\n                /* \"KYC.sol\":3844:3849  users */\n              0x01\n                /* \"KYC.sol\":3844:3854  users[rer] */\n              0x00\n                /* \"KYC.sol\":3850:3853  rer */\n              dup5\n                /* \"KYC.sol\":3844:3854  users[rer] */\n              0xffffffffffffffffffffffffffffffffffffffff\n              and\n              0xffffffffffffffffffffffffffffffffffffffff\n              and\n              dup2\n              mstore\n              0x20\n              add\n              swap1\n              dup2\n              mstore\n              0x20\n              add\n              0x00\n              keccak256\n                /* \"KYC.sol\":3844:3858  users[rer].set */\n              0x09\n              add\n              0x00\n              swap1\n              sload\n              swap1\n              0x0100\n              exp\n              swap1\n              div\n              0xff\n              and\n                /* \"KYC.sol\":3836:3859  require(users[rer].set) */\n              tag_64\n              jumpi\n              0x00\n              dup1\n              revert\n            tag_64:\n                /* \"KYC.sol\":3885:3892  manager */\n              0x02\n              0x00\n              swap1\n              sload\n              swap1\n              0x0100\n              exp\n              swap1\n              div\n              0xffffffffffffffffffffffffffffffffffffffff\n              and\n                /* \"KYC.sol\":3878:3892  rer == manager */\n              0xffffffffffffffffffffffffffffffffffffffff\n              and\n                /* \"KYC.sol\":3878:3881  rer */\n              dup4\n                /* \"KYC.sol\":3878:3892  rer == manager */\n              0xffffffffffffffffffffffffffffffffffffffff\n              and\n              eq\n                /* \"KYC.sol\":3870:3893  require(rer == manager) */\n              tag_65\n              jumpi\n              0x00\n              dup1\n              revert\n            tag_65:\n                /* \"KYC.sol\":3912:3917  users */\n              0x01\n                /* \"KYC.sol\":3912:3922  users[rer] */\n              0x00\n                /* \"KYC.sol\":3918:3921  rer */\n              dup5\n                /* \"KYC.sol\":3912:3922  users[rer] */\n              0xffffffffffffffffffffffffffffffffffffffff\n              and\n              0xffffffffffffffffffffffffffffffffffffffff\n              and\n              dup2\n              mstore\n              0x20\n              add\n              swap1\n              dup2\n              mstore\n              0x20\n              add\n              0x00\n              keccak256\n                /* \"KYC.sol\":3912:3929  users[rer].aadhar */\n              0x07\n              add\n                /* \"KYC.sol\":3930:3935  users */\n              0x01\n                /* \"KYC.sol\":3930:3940  users[rer] */\n              0x00\n                /* \"KYC.sol\":3936:3939  rer */\n              dup6\n                /* \"KYC.sol\":3930:3940  users[rer] */\n              0xffffffffffffffffffffffffffffffffffffffff\n              and\n              0xffffffffffffffffffffffffffffffffffffffff\n              and\n              dup2\n              mstore\n              0x20\n              add\n              swap1\n              dup2\n              mstore\n              0x20\n              add\n              0x00\n              keccak256\n                /* \"KYC.sol\":3930:3944  users[rer].pan */\n              0x08\n              add\n                /* \"KYC.sol\":3904:3945  return (users[rer].aadhar,users[rer].pan) */\n              dup2\n              dup1\n              sload\n              tag_66\n              swap1\n              tag_67\n              jump\t// in\n            tag_66:\n              dup1\n              0x1f\n              add\n              0x20\n              dup1\n              swap2\n              div\n              mul\n              0x20\n              add\n              mload(0x40)\n              swap1\n              dup2\n              add\n              0x40\n              mstore\n              dup1\n              swap3\n              swap2\n              swap1\n              dup2\n              dup2\n              mstore\n              0x20\n              add\n              dup3\n              dup1\n              sload\n              tag_68\n              swap1\n              tag_67\n              jump\t// in\n            tag_68:\n              dup1\n              iszero\n              tag_69\n              jumpi\n              dup1\n              0x1f\n              lt\n              tag_70\n              jumpi\n              0x0100\n              dup1\n              dup4\n              sload\n              div\n              mul\n              dup4\n              mstore\n              swap2\n              0x20\n              add\n              swap2\n              jump(tag_69)\n            tag_70:\n              dup3\n              add\n              swap2\n              swap1\n              0x00\n              mstore\n              keccak256(0x00, 0x20)\n              swap1\n            tag_71:\n              dup2\n              sload\n              dup2\n              mstore\n              swap1\n              0x01\n              add\n              swap1\n              0x20\n              add\n              dup1\n              dup4\n              gt\n              tag_71\n              jumpi\n              dup3\n              swap1\n              sub\n              0x1f\n              and\n              dup3\n              add\n              swap2\n            tag_69:\n              pop\n              pop\n              pop\n              pop\n              pop\n              swap2\n              pop\n              dup1\n              dup1\n              sload\n              tag_72\n              swap1\n              tag_67\n              jump\t// in\n            tag_72:\n              dup1\n              0x1f\n              add\n              0x20\n              dup1\n              swap2\n              div\n              mul\n              0x20\n              add\n              mload(0x40)\n              swap1\n              dup2\n              add\n              0x40\n              mstore\n              dup1\n              swap3\n              swap2\n              swap1\n              dup2\n              dup2\n              mstore\n              0x20\n              add\n              dup3\n              dup1\n              sload\n              tag_73\n              swap1\n              tag_67\n              jump\t// in\n            tag_73:\n              dup1\n              iszero\n              tag_74\n              jumpi\n              dup1\n              0x1f\n              lt\n              tag_75\n              jumpi\n              0x0100\n              dup1\n              dup4\n              sload\n              div\n              mul\n              dup4\n              mstore\n              swap2\n              0x20\n              add\n              swap2\n              jump(tag_74)\n            tag_75:\n              dup3\n              add\n              swap2\n              swap1\n              0x00\n              mstore\n              keccak256(0x00, 0x20)\n              swap1\n            tag_76:\n              dup2\n              sload\n              dup2\n              mstore\n              swap1\n              0x01\n              add\n              swap1\n              0x20\n              add\n              dup1\n              dup4\n              gt\n              tag_76\n              jumpi\n              dup3\n              swap1\n              sub\n              0x1f\n              and\n              dup3\n              add\n              swap2\n            tag_74:\n              pop\n              pop\n              pop\n              pop\n              pop\n              swap1\n              pop\n              swap2\n              pop\n              swap2\n              pop\n                /* \"KYC.sol\":3737:3953  function getAadharPan(address rer) public view... */\n              swap2\n              pop\n              swap2\n              jump\t// out\n                /* \"KYC.sol\":5312:5506  function approveRequest() public{... */\n            tag_23:\n                /* \"KYC.sol\":5377:5384  manager */\n              0x02\n              0x00\n              swap1\n              sload\n              swap1\n              0x0100\n              exp\n              swap1\n              div\n              0xffffffffffffffffffffffffffffffffffffffff\n              and\n                /* \"KYC.sol\":5363:5384  msg.sender == manager */\n              0xffffffffffffffffffffffffffffffffffffffff\n              and\n                /* \"KYC.sol\":5363:5373  msg.sender */\n              caller\n                /* \"KYC.sol\":5363:5384  msg.sender == manager */\n              0xffffffffffffffffffffffffffffffffffffffff\n              and\n              eq\n                /* \"KYC.sol\":5355:5385  require(msg.sender == manager) */\n              tag_78\n              jumpi\n              0x00\n              dup1\n              revert\n            tag_78:\n                /* \"KYC.sol\":5405:5413  requests */\n              0x04\n                /* \"KYC.sol\":5405:5422  requests.complete */\n              0x02\n              add\n              0x14\n              swap1\n              sload\n              swap1\n              0x0100\n              exp\n              swap1\n              div\n              0xff\n              and\n                /* \"KYC.sol\":5404:5422  !requests.complete */\n              iszero\n                /* \"KYC.sol\":5396:5423  require(!requests.complete) */\n              tag_79\n              jumpi\n              0x00\n              dup1\n              revert\n            tag_79:\n                /* \"KYC.sol\":5445:5453  requests */\n              0x04\n                /* \"KYC.sol\":5445:5463  requests.recepient */\n              0x02\n              add\n              0x00\n              swap1\n              sload\n              swap1\n              0x0100\n              exp\n              swap1\n              div\n              0xffffffffffffffffffffffffffffffffffffffff\n              and\n                /* \"KYC.sol\":5434:5442  assigned */\n              0x03\n              0x00\n                /* \"KYC.sol\":5434:5463  assigned = requests.recepient */\n              0x0100\n              exp\n              dup2\n              sload\n              dup2\n              0xffffffffffffffffffffffffffffffffffffffff\n              mul\n              not\n              and\n              swap1\n              dup4\n              0xffffffffffffffffffffffffffffffffffffffff\n              and\n              mul\n              or\n              swap1\n              sstore\n              pop\n                /* \"KYC.sol\":5494:5498  true */\n              0x01\n                /* \"KYC.sol\":5474:5482  requests */\n              0x04\n                /* \"KYC.sol\":5474:5491  requests.complete */\n              0x02\n              add\n              0x14\n                /* \"KYC.sol\":5474:5498  requests.complete = true */\n              0x0100\n              exp\n              dup2\n              sload\n              dup2\n              0xff\n              mul\n              not\n              and\n              swap1\n              dup4\n              iszero\n              iszero\n              mul\n              or\n              swap1\n              sstore\n              pop\n                /* \"KYC.sol\":5312:5506  function approveRequest() public{... */\n              jump\t// out\n                /* \"KYC.sol\":2443:3215  function addUser(string memory n, string memory f, string memory m, string memory d, string memory ad,string memory mo,string memory e,string memory aadhar,string memory pan,string memory ah,string memory ph) ... */\n            tag_27:\n                /* \"KYC.sol\":2180:2187  manager */\n              0x02\n              0x00\n              swap1\n              sload\n              swap1\n              0x0100\n              exp\n              swap1\n              div\n              0xffffffffffffffffffffffffffffffffffffffff\n              and\n                /* \"KYC.sol\":2166:2187  msg.sender == manager */\n              0xffffffffffffffffffffffffffffffffffffffff\n              and\n                /* \"KYC.sol\":2166:2176  msg.sender */\n              caller\n                /* \"KYC.sol\":2166:2187  msg.sender == manager */\n              0xffffffffffffffffffffffffffffffffffffffff\n              and\n              eq\n                /* \"KYC.sol\":2158:2188  require(msg.sender == manager) */\n              tag_81\n              jumpi\n              0x00\n              dup1\n              revert\n            tag_81:\n                /* \"KYC.sol\":2690:2703  address entry */\n              0x00\n                /* \"KYC.sol\":2706:2716  msg.sender */\n              caller\n                /* \"KYC.sol\":2690:2716  address entry = msg.sender */\n              swap1\n              pop\n                /* \"KYC.sol\":2736:2741  users */\n              0x01\n                /* \"KYC.sol\":2736:2748  users[entry] */\n              0x00\n                /* \"KYC.sol\":2742:2747  entry */\n              dup3\n                /* \"KYC.sol\":2736:2748  users[entry] */\n              0xffffffffffffffffffffffffffffffffffffffff\n              and\n              0xffffffffffffffffffffffffffffffffffffffff\n              and\n              dup2\n              mstore\n              0x20\n              add\n              swap1\n              dup2\n              mstore\n              0x20\n              add\n              0x00\n              keccak256\n                /* \"KYC.sol\":2736:2752  users[entry].set */\n              0x09\n              add\n              0x00\n              swap1\n              sload\n              swap1\n              0x0100\n              exp\n              swap1\n              div\n              0xff\n              and\n                /* \"KYC.sol\":2735:2752  !users[entry].set */\n              iszero\n                /* \"KYC.sol\":2727:2753  require(!users[entry].set) */\n              tag_83\n              jumpi\n              0x00\n              dup1\n              revert\n            tag_83:\n                /* \"KYC.sol\":2779:2784  entry */\n              dup1\n                /* \"KYC.sol\":2764:2776  usersAddress */\n              0x00\n              dup1\n                /* \"KYC.sol\":2764:2784  usersAddress = entry */\n              0x0100\n              exp\n              dup2\n              sload\n              dup2\n              0xffffffffffffffffffffffffffffffffffffffff\n              mul\n              not\n              and\n              swap1\n              dup4\n              0xffffffffffffffffffffffffffffffffffffffff\n              and\n              mul\n              or\n              swap1\n              sstore\n              pop\n                /* \"KYC.sol\":2815:2816  n */\n              dup12\n                /* \"KYC.sol\":2795:2800  users */\n              0x01\n                /* \"KYC.sol\":2795:2807  users[entry] */\n              0x00\n                /* \"KYC.sol\":2801:2806  entry */\n              dup4\n                /* \"KYC.sol\":2795:2807  users[entry] */\n              0xffffffffffffffffffffffffffffffffffffffff\n              and\n              0xffffffffffffffffffffffffffffffffffffffff\n              and\n              dup2\n              mstore\n              0x20\n              add\n              swap1\n              dup2\n              mstore\n              0x20\n              add\n              0x00\n              keccak256\n                /* \"KYC.sol\":2795:2812  users[entry].name */\n              0x00\n              add\n                /* \"KYC.sol\":2795:2816  users[entry].name = n */\n              swap1\n              dup1\n              mload\n              swap1\n              0x20\n              add\n              swap1\n              tag_84\n              swap3\n              swap2\n              swap1\n              tag_85\n              jump\t// in\n            tag_84:\n              pop\n                /* \"KYC.sol\":2849:2850  f */\n              dup11\n                /* \"KYC.sol\":2827:2832  users */\n              0x01\n                /* \"KYC.sol\":2827:2839  users[entry] */\n              0x00\n                /* \"KYC.sol\":2833:2838  entry */\n              dup4\n                /* \"KYC.sol\":2827:2839  users[entry] */\n              0xffffffffffffffffffffffffffffffffffffffff\n              and\n              0xffffffffffffffffffffffffffffffffffffffff\n              and\n              dup2\n              mstore\n              0x20\n              add\n              swap1\n              dup2\n              mstore\n              0x20\n              add\n              0x00\n              keccak256\n                /* \"KYC.sol\":2827:2846  users[entry].father */\n              0x01\n              add\n                /* \"KYC.sol\":2827:2850  users[entry].father = f */\n              swap1\n              dup1\n              mload\n              swap1\n              0x20\n              add\n              swap1\n              tag_86\n              swap3\n              swap2\n              swap1\n              tag_85\n              jump\t// in\n            tag_86:\n              pop\n                /* \"KYC.sol\":2883:2884  m */\n              dup10\n                /* \"KYC.sol\":2861:2866  users */\n              0x01\n                /* \"KYC.sol\":2861:2873  users[entry] */\n              0x00\n                /* \"KYC.sol\":2867:2872  entry */\n              dup4\n                /* \"KYC.sol\":2861:2873  users[entry] */\n              0xffffffffffffffffffffffffffffffffffffffff\n              and\n              0xffffffffffffffffffffffffffffffffffffffff\n              and\n              dup2\n              mstore\n              0x20\n              add\n              swap1\n              dup2\n              mstore\n              0x20\n              add\n              0x00\n              keccak256\n                /* \"KYC.sol\":2861:2880  users[entry].mother */\n              0x02\n              add\n                /* \"KYC.sol\":2861:2884  users[entry].mother = m */\n              swap1\n              dup1\n              mload\n              swap1\n              0x20\n              add\n              swap1\n              tag_87\n              swap3\n              swap2\n              swap1\n              tag_85\n              jump\t// in\n            tag_87:\n              pop\n                /* \"KYC.sol\":2920:2921  d */\n              dup9\n                /* \"KYC.sol\":2895:2900  users */\n              0x01\n                /* \"KYC.sol\":2895:2907  users[entry] */\n              0x00\n                /* \"KYC.sol\":2901:2906  entry */\n              dup4\n                /* \"KYC.sol\":2895:2907  users[entry] */\n              0xffffffffffffffffffffffffffffffffffffffff\n              and\n              0xffffffffffffffffffffffffffffffffffffffff\n              and\n              dup2\n              mstore\n              0x20\n              add\n              swap1\n              dup2\n              mstore\n              0x20\n              add\n              0x00\n              keccak256\n                /* \"KYC.sol\":2895:2917  users[entry].birthdate */\n              0x03\n              add\n                /* \"KYC.sol\":2895:2921  users[entry].birthdate = d */\n              swap1\n              dup1\n              mload\n              swap1\n              0x20\n              add\n              swap1\n              tag_88\n              swap3\n              swap2\n              swap1\n              tag_85\n              jump\t// in\n            tag_88:\n              pop\n                /* \"KYC.sol\":2951:2953  ad */\n              dup8\n                /* \"KYC.sol\":2932:2937  users */\n              0x01\n                /* \"KYC.sol\":2932:2944  users[entry] */\n              0x00\n                /* \"KYC.sol\":2938:2943  entry */\n              dup4\n                /* \"KYC.sol\":2932:2944  users[entry] */\n              0xffffffffffffffffffffffffffffffffffffffff\n              and\n              0xffffffffffffffffffffffffffffffffffffffff\n              and\n              dup2\n              mstore\n              0x20\n              add\n              swap1\n              dup2\n              mstore\n              0x20\n              add\n              0x00\n              keccak256\n                /* \"KYC.sol\":2932:2948  users[entry].add */\n              0x04\n              add\n                /* \"KYC.sol\":2932:2953  users[entry].add = ad */\n              swap1\n              dup1\n              mload\n              swap1\n              0x20\n              add\n              swap1\n              tag_89\n              swap3\n              swap2\n              swap1\n              tag_85\n              jump\t// in\n            tag_89:\n              pop\n                /* \"KYC.sol\":2983:2985  mo */\n              dup7\n                /* \"KYC.sol\":2964:2969  users */\n              0x01\n                /* \"KYC.sol\":2964:2976  users[entry] */\n              0x00\n                /* \"KYC.sol\":2970:2975  entry */\n              dup4\n                /* \"KYC.sol\":2964:2976  users[entry] */\n              0xffffffffffffffffffffffffffffffffffffffff\n              and\n              0xffffffffffffffffffffffffffffffffffffffff\n              and\n              dup2\n              mstore\n              0x20\n              add\n              swap1\n              dup2\n              mstore\n              0x20\n              add\n              0x00\n              keccak256\n                /* \"KYC.sol\":2964:2980  users[entry].mob */\n              0x05\n              add\n                /* \"KYC.sol\":2964:2985  users[entry].mob = mo */\n              swap1\n              dup1\n              mload\n              swap1\n              0x20\n              add\n              swap1\n              tag_90\n              swap3\n              swap2\n              swap1\n              tag_85\n              jump\t// in\n            tag_90:\n              pop\n                /* \"KYC.sol\":3017:3018  e */\n              dup6\n                /* \"KYC.sol\":2996:3001  users */\n              0x01\n                /* \"KYC.sol\":2996:3008  users[entry] */\n              0x00\n                /* \"KYC.sol\":3002:3007  entry */\n              dup4\n                /* \"KYC.sol\":2996:3008  users[entry] */\n              0xffffffffffffffffffffffffffffffffffffffff\n              and\n              0xffffffffffffffffffffffffffffffffffffffff\n              and\n              dup2\n              mstore\n              0x20\n              add\n              swap1\n              dup2\n              mstore\n              0x20\n              add\n              0x00\n              keccak256\n                /* \"KYC.sol\":2996:3014  users[entry].email */\n              0x06\n              add\n                /* \"KYC.sol\":2996:3018  users[entry].email = e */\n              swap1\n              dup1\n              mload\n              swap1\n              0x20\n              add\n              swap1\n              tag_91\n              swap3\n              swap2\n              swap1\n              tag_85\n              jump\t// in\n            tag_91:\n              pop\n                /* \"KYC.sol\":3051:3057  aadhar */\n              dup5\n                /* \"KYC.sol\":3029:3034  users */\n              0x01\n                /* \"KYC.sol\":3029:3041  users[entry] */\n              0x00\n                /* \"KYC.sol\":3035:3040  entry */\n              dup4\n                /* \"KYC.sol\":3029:3041  users[entry] */\n              0xffffffffffffffffffffffffffffffffffffffff\n              and\n              0xffffffffffffffffffffffffffffffffffffffff\n              and\n              dup2\n              mstore\n              0x20\n              add\n              swap1\n              dup2\n              mstore\n              0x20\n              add\n              0x00\n              keccak256\n                /* \"KYC.sol\":3029:3048  users[entry].aadhar */\n              0x07\n              add\n                /* \"KYC.sol\":3029:3057  users[entry].aadhar = aadhar */\n              swap1\n              dup1\n              mload\n              swap1\n              0x20\n              add\n              swap1\n              tag_92\n              swap3\n              swap2\n              swap1\n              tag_85\n              jump\t// in\n            tag_92:\n              pop\n                /* \"KYC.sol\":3087:3090  pan */\n              dup4\n                /* \"KYC.sol\":3068:3073  users */\n              0x01\n                /* \"KYC.sol\":3068:3080  users[entry] */\n              0x00\n                /* \"KYC.sol\":3074:3079  entry */\n              dup4\n                /* \"KYC.sol\":3068:3080  users[entry] */\n              0xffffffffffffffffffffffffffffffffffffffff\n              and\n              0xffffffffffffffffffffffffffffffffffffffff\n              and\n              dup2\n              mstore\n              0x20\n              add\n              swap1\n              dup2\n              mstore\n              0x20\n              add\n              0x00\n              keccak256\n                /* \"KYC.sol\":3068:3084  users[entry].pan */\n              0x08\n              add\n                /* \"KYC.sol\":3068:3090  users[entry].pan = pan */\n              swap1\n              dup1\n              mload\n              swap1\n              0x20\n              add\n              swap1\n              tag_93\n              swap3\n              swap2\n              swap1\n              tag_85\n              jump\t// in\n            tag_93:\n              pop\n                /* \"KYC.sol\":3131:3133  ah */\n              dup3\n                /* \"KYC.sol\":3101:3106  users */\n              0x01\n                /* \"KYC.sol\":3101:3113  users[entry] */\n              0x00\n                /* \"KYC.sol\":3107:3112  entry */\n              dup4\n                /* \"KYC.sol\":3101:3113  users[entry] */\n              0xffffffffffffffffffffffffffffffffffffffff\n              and\n              0xffffffffffffffffffffffffffffffffffffffff\n              and\n              dup2\n              mstore\n              0x20\n              add\n              swap1\n              dup2\n              mstore\n              0x20\n              add\n              0x00\n              keccak256\n                /* \"KYC.sol\":3101:3128  users[entry].aadharipfsHash */\n              0x0a\n              add\n                /* \"KYC.sol\":3101:3133  users[entry].aadharipfsHash = ah */\n              swap1\n              dup1\n              mload\n              swap1\n              0x20\n              add\n              swap1\n              tag_94\n              swap3\n              swap2\n              swap1\n              tag_85\n              jump\t// in\n            tag_94:\n              pop\n                /* \"KYC.sol\":3171:3173  ph */\n              dup2\n                /* \"KYC.sol\":3144:3149  users */\n              0x01\n                /* \"KYC.sol\":3144:3156  users[entry] */\n              0x00\n                /* \"KYC.sol\":3150:3155  entry */\n              dup4\n                /* \"KYC.sol\":3144:3156  users[entry] */\n              0xffffffffffffffffffffffffffffffffffffffff\n              and\n              0xffffffffffffffffffffffffffffffffffffffff\n              and\n              dup2\n              mstore\n              0x20\n              add\n              swap1\n              dup2\n              mstore\n              0x20\n              add\n              0x00\n              keccak256\n                /* \"KYC.sol\":3144:3168  users[entry].panipfsHash */\n              0x0b\n              add\n                /* \"KYC.sol\":3144:3173  users[entry].panipfsHash = ph */\n              swap1\n              dup1\n              mload\n              swap1\n              0x20\n              add\n              swap1\n              tag_95\n              swap3\n              swap2\n              swap1\n              tag_85\n              jump\t// in\n            tag_95:\n              pop\n                /* \"KYC.sol\":3203:3207  true */\n              0x01\n                /* \"KYC.sol\":3184:3189  users */\n              dup1\n                /* \"KYC.sol\":3184:3196  users[entry] */\n              0x00\n                /* \"KYC.sol\":3190:3195  entry */\n              dup4\n                /* \"KYC.sol\":3184:3196  users[entry] */\n              0xffffffffffffffffffffffffffffffffffffffff\n              and\n              0xffffffffffffffffffffffffffffffffffffffff\n              and\n              dup2\n              mstore\n              0x20\n              add\n              swap1\n              dup2\n              mstore\n              0x20\n              add\n              0x00\n              keccak256\n                /* \"KYC.sol\":3184:3200  users[entry].set */\n              0x09\n              add\n              0x00\n                /* \"KYC.sol\":3184:3207  users[entry].set = true */\n              0x0100\n              exp\n              dup2\n              sload\n              dup2\n              0xff\n              mul\n              not\n              and\n              swap1\n              dup4\n              iszero\n              iszero\n              mul\n              or\n              swap1\n              sstore\n              pop\n                /* \"KYC.sol\":2679:3215  {... */\n              pop\n                /* \"KYC.sol\":2443:3215  function addUser(string memory n, string memory f, string memory m, string memory d, string memory ad,string memory mo,string memory e,string memory aadhar,string memory pan,string memory ah,string memory ph) ... */\n              pop\n              pop\n              pop\n              pop\n              pop\n              pop\n              pop\n              pop\n              pop\n              pop\n              pop\n              jump\t// out\n                /* \"KYC.sol\":2037:2059  address public manager */\n            tag_29:\n              0x02\n              0x00\n              swap1\n              sload\n              swap1\n              0x0100\n              exp\n              swap1\n              div\n              0xffffffffffffffffffffffffffffffffffffffff\n              and\n              dup2\n              jump\t// out\n                /* \"KYC.sol\":3961:4163  function getAadharPanHash(address rer) public view... */\n            tag_34:\n                /* \"KYC.sol\":4025:4038  string memory */\n              0x60\n                /* \"KYC.sol\":4039:4052  string memory */\n              dup1\n                /* \"KYC.sol\":4072:4077  users */\n              0x01\n                /* \"KYC.sol\":4072:4082  users[rer] */\n              0x00\n                /* \"KYC.sol\":4078:4081  rer */\n              dup5\n                /* \"KYC.sol\":4072:4082  users[rer] */\n              0xffffffffffffffffffffffffffffffffffffffff\n              and\n              0xffffffffffffffffffffffffffffffffffffffff\n              and\n              dup2\n              mstore\n              0x20\n              add\n              swap1\n              dup2\n              mstore\n              0x20\n              add\n              0x00\n              keccak256\n                /* \"KYC.sol\":4072:4086  users[rer].set */\n              0x09\n              add\n              0x00\n              swap1\n              sload\n              swap1\n              0x0100\n              exp\n              swap1\n              div\n              0xff\n              and\n                /* \"KYC.sol\":4064:4087  require(users[rer].set) */\n              tag_97\n              jumpi\n              0x00\n              dup1\n              revert\n            tag_97:\n                /* \"KYC.sol\":4106:4111  users */\n              0x01\n                /* \"KYC.sol\":4106:4116  users[rer] */\n              0x00\n                /* \"KYC.sol\":4112:4115  rer */\n              dup5\n                /* \"KYC.sol\":4106:4116  users[rer] */\n              0xffffffffffffffffffffffffffffffffffffffff\n              and\n              0xffffffffffffffffffffffffffffffffffffffff\n              and\n              dup2\n              mstore\n              0x20\n              add\n              swap1\n              dup2\n              mstore\n              0x20\n              add\n              0x00\n              keccak256\n                /* \"KYC.sol\":4106:4131  users[rer].aadharipfsHash */\n              0x0a\n              add\n                /* \"KYC.sol\":4132:4137  users */\n              0x01\n                /* \"KYC.sol\":4132:4142  users[rer] */\n              0x00\n                /* \"KYC.sol\":4138:4141  rer */\n              dup6\n                /* \"KYC.sol\":4132:4142  users[rer] */\n              0xffffffffffffffffffffffffffffffffffffffff\n              and\n              0xffffffffffffffffffffffffffffffffffffffff\n              and\n              dup2\n              mstore\n              0x20\n              add\n              swap1\n              dup2\n              mstore\n              0x20\n              add\n              0x00\n              keccak256\n                /* \"KYC.sol\":4132:4154  users[rer].panipfsHash */\n              0x0b\n              add\n                /* \"KYC.sol\":4098:4155  return (users[rer].aadharipfsHash,users[rer].panipfsHash) */\n              dup2\n              dup1\n              sload\n              tag_98\n              swap1\n              tag_67\n              jump\t// in\n            tag_98:\n              dup1\n              0x1f\n              add\n              0x20\n              dup1\n              swap2\n              div\n              mul\n              0x20\n              add\n              mload(0x40)\n              swap1\n              dup2\n              add\n              0x40\n              mstore\n              dup1\n              swap3\n              swap2\n              swap1\n              dup2\n              dup2\n              mstore\n              0x20\n              add\n              dup3\n              dup1\n              sload\n              tag_99\n              swap1\n              tag_67\n              jump\t// in\n            tag_99:\n              dup1\n              iszero\n              tag_100\n              jumpi\n              dup1\n              0x1f\n              lt\n              tag_101\n              jumpi\n              0x0100\n              dup1\n              dup4\n              sload\n              div\n              mul\n              dup4\n              mstore\n              swap2\n              0x20\n              add\n              swap2\n              jump(tag_100)\n            tag_101:\n              dup3\n              add\n              swap2\n              swap1\n              0x00\n              mstore\n              keccak256(0x00, 0x20)\n              swap1\n            tag_102:\n              dup2\n              sload\n              dup2\n              mstore\n              swap1\n              0x01\n              add\n              swap1\n              0x20\n              add\n              dup1\n              dup4\n              gt\n              tag_102\n              jumpi\n              dup3\n              swap1\n              sub\n              0x1f\n              and\n              dup3\n              add\n              swap2\n            tag_100:\n              pop\n              pop\n              pop\n              pop\n              pop\n              swap2\n              pop\n              dup1\n              dup1\n              sload\n              tag_103\n              swap1\n              tag_67\n              jump\t// in\n            tag_103:\n              dup1\n              0x1f\n              add\n              0x20\n              dup1\n              swap2\n              div\n              mul\n              0x20\n              add\n              mload(0x40)\n              swap1\n              dup2\n              add\n              0x40\n              mstore\n              dup1\n              swap3\n              swap2\n              swap1\n              dup2\n              dup2\n              mstore\n              0x20\n              add\n              dup3\n              dup1\n              sload\n              tag_104\n              swap1\n              tag_67\n              jump\t// in\n            tag_104:\n              dup1\n              iszero\n              tag_105\n              jumpi\n              dup1\n              0x1f\n              lt\n              tag_106\n              jumpi\n              0x0100\n              dup1\n              dup4\n              sload\n              div\n              mul\n              dup4\n              mstore\n              swap2\n              0x20\n              add\n              swap2\n              jump(tag_105)\n            tag_106:\n              dup3\n              add\n              swap2\n              swap1\n              0x00\n              mstore\n              keccak256(0x00, 0x20)\n              swap1\n            tag_107:\n              dup2\n              sload\n              dup2\n              mstore\n              swap1\n              0x01\n              add\n              swap1\n              0x20\n              add\n              dup1\n              dup4\n              gt\n              tag_107\n              jumpi\n              dup3\n              swap1\n              sub\n              0x1f\n              and\n              dup3\n              add\n              swap2\n            tag_105:\n              pop\n              pop\n              pop\n              pop\n              pop\n              swap1\n              pop\n              swap2\n              pop\n              swap2\n              pop\n                /* \"KYC.sol\":3961:4163  function getAadharPanHash(address rer) public view... */\n              swap2\n              pop\n              swap2\n              jump\t// out\n                /* \"KYC.sol\":2090:2113  address public assigned */\n            tag_37:\n              0x03\n              0x00\n              swap1\n              sload\n              swap1\n              0x0100\n              exp\n              swap1\n              div\n              0xffffffffffffffffffffffffffffffffffffffff\n              and\n              dup2\n              jump\t// out\n                /* \"KYC.sol\":5212:5304  function getRequest() public view returns(Request memory) {... */\n            tag_40:\n                /* \"KYC.sol\":5254:5268  Request memory */\n              tag_108\n              tag_109\n              jump\t// in\n            tag_108:\n                /* \"KYC.sol\":5288:5296  requests */\n              0x04\n                /* \"KYC.sol\":5281:5296  return requests */\n              mload(0x40)\n              dup1\n              0x80\n              add\n              0x40\n              mstore\n              swap1\n              dup2\n              0x00\n              dup3\n              add\n              dup1\n              sload\n              tag_111\n              swap1\n              tag_67\n              jump\t// in\n            tag_111:\n              dup1\n              0x1f\n              add\n              0x20\n              dup1\n              swap2\n              div\n              mul\n              0x20\n              add\n              mload(0x40)\n              swap1\n              dup2\n              add\n              0x40\n              mstore\n              dup1\n              swap3\n              swap2\n              swap1\n              dup2\n              dup2\n              mstore\n              0x20\n              add\n              dup3\n              dup1\n              sload\n              tag_112\n              swap1\n              tag_67\n              jump\t// in\n            tag_112:\n              dup1\n              iszero\n              tag_113\n              jumpi\n              dup1\n              0x1f\n              lt\n              tag_114\n              jumpi\n              0x0100\n              dup1\n              dup4\n              sload\n              div\n              mul\n              dup4\n              mstore\n              swap2\n              0x20\n              add\n              swap2\n              jump(tag_113)\n            tag_114:\n              dup3\n              add\n              swap2\n              swap1\n              0x00\n              mstore\n              keccak256(0x00, 0x20)\n              swap1\n            tag_115:\n              dup2\n              sload\n              dup2\n              mstore\n              swap1\n              0x01\n              add\n              swap1\n              0x20\n              add\n              dup1\n              dup4\n              gt\n              tag_115\n              jumpi\n              dup3\n              swap1\n              sub\n              0x1f\n              and\n              dup3\n              add\n              swap2\n            tag_113:\n              pop\n              pop\n              pop\n              pop\n              pop\n              dup2\n              mstore\n              0x20\n              add\n              0x01\n              dup3\n              add\n              dup1\n              sload\n              tag_116\n              swap1\n              tag_67\n              jump\t// in\n            tag_116:\n              dup1\n              0x1f\n              add\n              0x20\n              dup1\n              swap2\n              div\n              mul\n              0x20\n              add\n              mload(0x40)\n              swap1\n              dup2\n              add\n              0x40\n              mstore\n              dup1\n              swap3\n              swap2\n              swap1\n              dup2\n              dup2\n              mstore\n              0x20\n              add\n              dup3\n              dup1\n              sload\n              tag_117\n              swap1\n              tag_67\n              jump\t// in\n            tag_117:\n              dup1\n              iszero\n              tag_118\n              jumpi\n              dup1\n              0x1f\n              lt\n              tag_119\n              jumpi\n              0x0100\n              dup1\n              dup4\n              sload\n              div\n              mul\n              dup4\n              mstore\n              swap2\n              0x20\n              add\n              swap2\n              jump(tag_118)\n            tag_119:\n              dup3\n              add\n              swap2\n              swap1\n              0x00\n              mstore\n              keccak256(0x00, 0x20)\n              swap1\n            tag_120:\n              dup2\n              sload\n              dup2\n              mstore\n              swap1\n              0x01\n              add\n              swap1\n              0x20\n              add\n              dup1\n              dup4\n              gt\n              tag_120\n              jumpi\n              dup3\n              swap1\n              sub\n              0x1f\n              and\n              dup3\n              add\n              swap2\n            tag_118:\n              pop\n              pop\n              pop\n              pop\n              pop\n              dup2\n              mstore\n              0x20\n              add\n              0x02\n              dup3\n              add\n              0x00\n              swap1\n              sload\n              swap1\n              0x0100\n              exp\n              swap1\n              div\n              0xffffffffffffffffffffffffffffffffffffffff\n              and\n              0xffffffffffffffffffffffffffffffffffffffff\n              and\n              0xffffffffffffffffffffffffffffffffffffffff\n              and\n              dup2\n              mstore\n              0x20\n              add\n              0x02\n              dup3\n              add\n              0x14\n              swap1\n              sload\n              swap1\n              0x0100\n              exp\n              swap1\n              div\n              0xff\n              and\n              iszero\n              iszero\n              iszero\n              iszero\n              dup2\n              mstore\n              pop\n              pop\n              swap1\n              pop\n                /* \"KYC.sol\":5212:5304  function getRequest() public view returns(Request memory) {... */\n              swap1\n              jump\t// out\n                /* \"KYC.sol\":4171:4631  function getUserDetails(address ass) public view agentRestricted... */\n            tag_45:\n                /* \"KYC.sol\":4249:4262  string memory */\n              0x60\n                /* \"KYC.sol\":4264:4277  string memory */\n              dup1\n                /* \"KYC.sol\":4279:4292  string memory */\n              0x60\n                /* \"KYC.sol\":4294:4307  string memory */\n              dup1\n                /* \"KYC.sol\":4309:4322  string memory */\n              0x60\n                /* \"KYC.sol\":4324:4337  string memory */\n              dup1\n                /* \"KYC.sol\":4338:4351  string memory */\n              0x60\n                /* \"KYC.sol\":4352:4365  string memory */\n              dup1\n                /* \"KYC.sol\":4366:4379  string memory */\n              0x60\n                /* \"KYC.sol\":2275:2283  assigned */\n              0x03\n              0x00\n              swap1\n              sload\n              swap1\n              0x0100\n              exp\n              swap1\n              div\n              0xffffffffffffffffffffffffffffffffffffffff\n              and\n                /* \"KYC.sol\":2261:2283  msg.sender == assigned */\n              0xffffffffffffffffffffffffffffffffffffffff\n              and\n                /* \"KYC.sol\":2261:2271  msg.sender */\n              caller\n                /* \"KYC.sol\":2261:2283  msg.sender == assigned */\n              0xffffffffffffffffffffffffffffffffffffffff\n              and\n              eq\n                /* \"KYC.sol\":2253:2284  require(msg.sender == assigned) */\n              tag_122\n              jumpi\n              0x00\n              dup1\n              revert\n            tag_122:\n                /* \"KYC.sol\":4411:4414  ass */\n              dup10\n                /* \"KYC.sol\":4399:4414  assigned == ass */\n              0xffffffffffffffffffffffffffffffffffffffff\n              and\n                /* \"KYC.sol\":4399:4407  assigned */\n              0x03\n              0x00\n              swap1\n              sload\n              swap1\n              0x0100\n              exp\n              swap1\n              div\n              0xffffffffffffffffffffffffffffffffffffffff\n              and\n                /* \"KYC.sol\":4399:4414  assigned == ass */\n              0xffffffffffffffffffffffffffffffffffffffff\n              and\n              eq\n                /* \"KYC.sol\":4391:4415  require(assigned == ass) */\n              tag_124\n              jumpi\n              0x00\n              dup1\n              revert\n            tag_124:\n                /* \"KYC.sol\":4434:4439  users */\n              0x01\n                /* \"KYC.sol\":4434:4448  users[manager] */\n              0x00\n                /* \"KYC.sol\":4440:4447  manager */\n              0x02\n              0x00\n              swap1\n              sload\n              swap1\n              0x0100\n              exp\n              swap1\n              div\n              0xffffffffffffffffffffffffffffffffffffffff\n              and\n                /* \"KYC.sol\":4434:4448  users[manager] */\n              0xffffffffffffffffffffffffffffffffffffffff\n              and\n              0xffffffffffffffffffffffffffffffffffffffff\n              and\n              dup2\n              mstore\n              0x20\n              add\n              swap1\n              dup2\n              mstore\n              0x20\n              add\n              0x00\n              keccak256\n                /* \"KYC.sol\":4434:4453  users[manager].name */\n              0x00\n              add\n                /* \"KYC.sol\":4454:4459  users */\n              0x01\n                /* \"KYC.sol\":4454:4468  users[manager] */\n              0x00\n                /* \"KYC.sol\":4460:4467  manager */\n              0x02\n              0x00\n              swap1\n              sload\n              swap1\n              0x0100\n              exp\n              swap1\n              div\n              0xffffffffffffffffffffffffffffffffffffffff\n              and\n                /* \"KYC.sol\":4454:4468  users[manager] */\n              0xffffffffffffffffffffffffffffffffffffffff\n              and\n              0xffffffffffffffffffffffffffffffffffffffff\n              and\n              dup2\n              mstore\n              0x20\n              add\n              swap1\n              dup2\n              mstore\n              0x20\n              add\n              0x00\n              keccak256\n                /* \"KYC.sol\":4454:4475  users[manager].father */\n              0x01\n              add\n                /* \"KYC.sol\":4476:4481  users */\n              0x01\n                /* \"KYC.sol\":4476:4490  users[manager] */\n              0x00\n                /* \"KYC.sol\":4482:4489  manager */\n              0x02\n              0x00\n              swap1\n              sload\n              swap1\n              0x0100\n              exp\n              swap1\n              div\n              0xffffffffffffffffffffffffffffffffffffffff\n              and\n                /* \"KYC.sol\":4476:4490  users[manager] */\n              0xffffffffffffffffffffffffffffffffffffffff\n              and\n              0xffffffffffffffffffffffffffffffffffffffff\n              and\n              dup2\n              mstore\n              0x20\n              add\n              swap1\n              dup2\n              mstore\n              0x20\n              add\n              0x00\n              keccak256\n                /* \"KYC.sol\":4476:4497  users[manager].mother */\n              0x02\n              add\n                /* \"KYC.sol\":4498:4503  users */\n              0x01\n                /* \"KYC.sol\":4498:4512  users[manager] */\n              0x00\n                /* \"KYC.sol\":4504:4511  manager */\n              0x02\n              0x00\n              swap1\n              sload\n              swap1\n              0x0100\n              exp\n              swap1\n              div\n              0xffffffffffffffffffffffffffffffffffffffff\n              and\n                /* \"KYC.sol\":4498:4512  users[manager] */\n              0xffffffffffffffffffffffffffffffffffffffff\n              and\n              0xffffffffffffffffffffffffffffffffffffffff\n              and\n              dup2\n              mstore\n              0x20\n              add\n              swap1\n              dup2\n              mstore\n              0x20\n              add\n              0x00\n              keccak256\n                /* \"KYC.sol\":4498:4522  users[manager].birthdate */\n              0x03\n              add\n                /* \"KYC.sol\":4523:4528  users */\n              0x01\n                /* \"KYC.sol\":4523:4537  users[manager] */\n              0x00\n                /* \"KYC.sol\":4529:4536  manager */\n              0x02\n              0x00\n              swap1\n              sload\n              swap1\n              0x0100\n              exp\n              swap1\n              div\n              0xffffffffffffffffffffffffffffffffffffffff\n              and\n                /* \"KYC.sol\":4523:4537  users[manager] */\n              0xffffffffffffffffffffffffffffffffffffffff\n              and\n              0xffffffffffffffffffffffffffffffffffffffff\n              and\n              dup2\n              mstore\n              0x20\n              add\n              swap1\n              dup2\n              mstore\n              0x20\n              add\n              0x00\n              keccak256\n                /* \"KYC.sol\":4523:4541  users[manager].add */\n              0x04\n              add\n                /* \"KYC.sol\":4542:4547  users */\n              0x01\n                /* \"KYC.sol\":4542:4556  users[manager] */\n              0x00\n                /* \"KYC.sol\":4548:4555  manager */\n              0x02\n              0x00\n              swap1\n              sload\n              swap1\n              0x0100\n              exp\n              swap1\n              div\n              0xffffffffffffffffffffffffffffffffffffffff\n              and\n                /* \"KYC.sol\":4542:4556  users[manager] */\n              0xffffffffffffffffffffffffffffffffffffffff\n              and\n              0xffffffffffffffffffffffffffffffffffffffff\n              and\n              dup2\n              mstore\n              0x20\n              add\n              swap1\n              dup2\n              mstore\n              0x20\n              add\n              0x00\n              keccak256\n                /* \"KYC.sol\":4542:4560  users[manager].mob */\n              0x05\n              add\n                /* \"KYC.sol\":4561:4566  users */\n              0x01\n                /* \"KYC.sol\":4561:4575  users[manager] */\n              0x00\n                /* \"KYC.sol\":4567:4574  manager */\n              0x02\n              0x00\n              swap1\n              sload\n              swap1\n              0x0100\n              exp\n              swap1\n              div\n              0xffffffffffffffffffffffffffffffffffffffff\n              and\n                /* \"KYC.sol\":4561:4575  users[manager] */\n              0xffffffffffffffffffffffffffffffffffffffff\n              and\n              0xffffffffffffffffffffffffffffffffffffffff\n              and\n              dup2\n              mstore\n              0x20\n              add\n              swap1\n              dup2\n              mstore\n              0x20\n              add\n              0x00\n              keccak256\n                /* \"KYC.sol\":4561:4581  users[manager].email */\n              0x06\n              add\n                /* \"KYC.sol\":4582:4587  users */\n              0x01\n                /* \"KYC.sol\":4582:4596  users[manager] */\n              0x00\n                /* \"KYC.sol\":4588:4595  manager */\n              0x02\n              0x00\n              swap1\n              sload\n              swap1\n              0x0100\n              exp\n              swap1\n              div\n              0xffffffffffffffffffffffffffffffffffffffff\n              and\n                /* \"KYC.sol\":4582:4596  users[manager] */\n              0xffffffffffffffffffffffffffffffffffffffff\n              and\n              0xffffffffffffffffffffffffffffffffffffffff\n              and\n              dup2\n              mstore\n              0x20\n              add\n              swap1\n              dup2\n              mstore\n              0x20\n              add\n              0x00\n              keccak256\n                /* \"KYC.sol\":4582:4603  users[manager].aadhar */\n              0x07\n              add\n                /* \"KYC.sol\":4604:4609  users */\n              0x01\n                /* \"KYC.sol\":4604:4618  users[manager] */\n              0x00\n                /* \"KYC.sol\":4610:4617  manager */\n              0x02\n              0x00\n              swap1\n              sload\n              swap1\n              0x0100\n              exp\n              swap1\n              div\n              0xffffffffffffffffffffffffffffffffffffffff\n              and\n                /* \"KYC.sol\":4604:4618  users[manager] */\n              0xffffffffffffffffffffffffffffffffffffffff\n              and\n              0xffffffffffffffffffffffffffffffffffffffff\n              and\n              dup2\n              mstore\n              0x20\n              add\n              swap1\n              dup2\n              mstore\n              0x20\n              add\n              0x00\n              keccak256\n                /* \"KYC.sol\":4604:4622  users[manager].pan */\n              0x08\n              add\n                /* \"KYC.sol\":4426:4623  return (users[manager].name,users[manager].father,users[manager].mother,users[manager].birthdate,users[manager].add,users[manager].mob,users[manager].email,users[manager].aadhar,users[manager].pan) */\n              dup9\n              dup1\n              sload\n              tag_125\n              swap1\n              tag_67\n              jump\t// in\n            tag_125:\n              dup1\n              0x1f\n              add\n              0x20\n              dup1\n              swap2\n              div\n              mul\n              0x20\n              add\n              mload(0x40)\n              swap1\n              dup2\n              add\n              0x40\n              mstore\n              dup1\n              swap3\n              swap2\n              swap1\n              dup2\n              dup2\n              mstore\n              0x20\n              add\n              dup3\n              dup1\n              sload\n              tag_126\n              swap1\n              tag_67\n              jump\t// in\n            tag_126:\n              dup1\n              iszero\n              tag_127\n              jumpi\n              dup1\n              0x1f\n              lt\n              tag_128\n              jumpi\n              0x0100\n              dup1\n              dup4\n              sload\n              div\n              mul\n              dup4\n              mstore\n              swap2\n              0x20\n              add\n              swap2\n              jump(tag_127)\n            tag_128:\n              dup3\n              add\n              swap2\n              swap1\n              0x00\n              mstore\n              keccak256(0x00, 0x20)\n              swap1\n            tag_129:\n              dup2\n              sload\n              dup2\n              mstore\n              swap1\n              0x01\n              add\n              swap1\n              0x20\n              add\n              dup1\n              dup4\n              gt\n              tag_129\n              jumpi\n              dup3\n              swap1\n              sub\n              0x1f\n              and\n              dup3\n              add\n              swap2\n            tag_127:\n              pop\n              pop\n              pop\n              pop\n              pop\n              swap9\n              pop\n              dup8\n              dup1\n              sload\n              tag_130\n              swap1\n              tag_67\n              jump\t// in\n            tag_130:\n              dup1\n              0x1f\n              add\n              0x20\n              dup1\n              swap2\n              div\n              mul\n              0x20\n              add\n              mload(0x40)\n              swap1\n              dup2\n              add\n              0x40\n              mstore\n              dup1\n              swap3\n              swap2\n              swap1\n              dup2\n              dup2\n              mstore\n              0x20\n              add\n              dup3\n              dup1\n              sload\n              tag_131\n              swap1\n              tag_67\n              jump\t// in\n            tag_131:\n              dup1\n              iszero\n              tag_132\n              jumpi\n              dup1\n              0x1f\n              lt\n              tag_133\n              jumpi\n              0x0100\n              dup1\n              dup4\n              sload\n              div\n              mul\n              dup4\n              mstore\n              swap2\n              0x20\n              add\n              swap2\n              jump(tag_132)\n            tag_133:\n              dup3\n              add\n              swap2\n              swap1\n              0x00\n              mstore\n              keccak256(0x00, 0x20)\n              swap1\n            tag_134:\n              dup2\n              sload\n              dup2\n              mstore\n              swap1\n              0x01\n              add\n              swap1\n              0x20\n              add\n              dup1\n              dup4\n              gt\n              tag_134\n              jumpi\n              dup3\n              swap1\n              sub\n              0x1f\n              and\n              dup3\n              add\n              swap2\n            tag_132:\n              pop\n              pop\n              pop\n              pop\n              pop\n              swap8\n              pop\n              dup7\n              dup1\n              sload\n              tag_135\n              swap1\n              tag_67\n              jump\t// in\n            tag_135:\n              dup1\n              0x1f\n              add\n              0x20\n              dup1\n              swap2\n              div\n              mul\n              0x20\n              add\n              mload(0x40)\n              swap1\n              dup2\n              add\n              0x40\n              mstore\n              dup1\n              swap3\n              swap2\n              swap1\n              dup2\n              dup2\n              mstore\n              0x20\n              add\n              dup3\n              dup1\n              sload\n              tag_136\n              swap1\n              tag_67\n              jump\t// in\n            tag_136:\n              dup1\n              iszero\n              tag_137\n              jumpi\n              dup1\n              0x1f\n              lt\n              tag_138\n              jumpi\n              0x0100\n              dup1\n              dup4\n              sload\n              div\n              mul\n              dup4\n              mstore\n              swap2\n              0x20\n              add\n              swap2\n              jump(tag_137)\n            tag_138:\n              dup3\n              add\n              swap2\n              swap1\n              0x00\n              mstore\n              keccak256(0x00, 0x20)\n              swap1\n            tag_139:\n              dup2\n              sload\n              dup2\n              mstore\n              swap1\n              0x01\n              add\n              swap1\n              0x20\n              add\n              dup1\n              dup4\n              gt\n              tag_139\n              jumpi\n              dup3\n              swap1\n              sub\n              0x1f\n              and\n              dup3\n              add\n              swap2\n            tag_137:\n              pop\n              pop\n              pop\n              pop\n              pop\n              swap7\n              pop\n              dup6\n              dup1\n              sload\n              tag_140\n              swap1\n              tag_67\n              jump\t// in\n            tag_140:\n              dup1\n              0x1f\n              add\n              0x20\n              dup1\n              swap2\n              div\n              mul\n              0x20\n              add\n              mload(0x40)\n              swap1\n              dup2\n              add\n              0x40\n              mstore\n              dup1\n              swap3\n              swap2\n              swap1\n              dup2\n              dup2\n              mstore\n              0x20\n              add\n              dup3\n              dup1\n              sload\n              tag_141\n              swap1\n              tag_67\n              jump\t// in\n            tag_141:\n              dup1\n              iszero\n              tag_142\n              jumpi\n              dup1\n              0x1f\n              lt\n              tag_143\n              jumpi\n              0x0100\n              dup1\n              dup4\n              sload\n              div\n              mul\n              dup4\n              mstore\n              swap2\n              0x20\n              add\n              swap2\n              jump(tag_142)\n            tag_143:\n              dup3\n              add\n              swap2\n              swap1\n              0x00\n              mstore\n              keccak256(0x00, 0x20)\n              swap1\n            tag_144:\n              dup2\n              sload\n              dup2\n              mstore\n              swap1\n              0x01\n              add\n              swap1\n              0x20\n              add\n              dup1\n              dup4\n              gt\n              tag_144\n              jumpi\n              dup3\n              swap1\n              sub\n              0x1f\n              and\n              dup3\n              add\n              swap2\n            tag_142:\n              pop\n              pop\n              pop\n              pop\n              pop\n              swap6\n              pop\n              dup5\n              dup1\n              sload\n              tag_145\n              swap1\n              tag_67\n              jump\t// in\n            tag_145:\n              dup1\n              0x1f\n              add\n              0x20\n              dup1\n              swap2\n              div\n              mul\n              0x20\n              add\n              mload(0x40)\n              swap1\n              dup2\n              add\n              0x40\n              mstore\n              dup1\n              swap3\n              swap2\n              swap1\n              dup2\n              dup2\n              mstore\n              0x20\n              add\n              dup3\n              dup1\n              sload\n              tag_146\n              swap1\n              tag_67\n              jump\t// in\n            tag_146:\n              dup1\n              iszero\n              tag_147\n              jumpi\n              dup1\n              0x1f\n              lt\n              tag_148\n              jumpi\n              0x0100\n              dup1\n              dup4\n              sload\n              div\n              mul\n              dup4\n              mstore\n              swap2\n              0x20\n              add\n              swap2\n              jump(tag_147)\n            tag_148:\n              dup3\n              add\n              swap2\n              swap1\n              0x00\n              mstore\n              keccak256(0x00, 0x20)\n              swap1\n            tag_149:\n              dup2\n              sload\n              dup2\n              mstore\n              swap1\n              0x01\n              add\n              swap1\n              0x20\n              add\n              dup1\n              dup4\n              gt\n              tag_149\n              jumpi\n              dup3\n              swap1\n              sub\n              0x1f\n              and\n              dup3\n              add\n              swap2\n            tag_147:\n              pop\n              pop\n              pop\n              pop\n              pop\n              swap5\n              pop\n              dup4\n              dup1\n              sload\n              tag_150\n              swap1\n              tag_67\n              jump\t// in\n            tag_150:\n              dup1\n              0x1f\n              add\n              0x20\n              dup1\n              swap2\n              div\n              mul\n              0x20\n              add\n              mload(0x40)\n              swap1\n              dup2\n              add\n              0x40\n              mstore\n              dup1\n              swap3\n              swap2\n              swap1\n              dup2\n              dup2\n              mstore\n              0x20\n              add\n              dup3\n              dup1\n              sload\n              tag_151\n              swap1\n              tag_67\n              jump\t// in\n            tag_151:\n              dup1\n              iszero\n              tag_152\n              jumpi\n              dup1\n              0x1f\n              lt\n              tag_153\n              jumpi\n              0x0100\n              dup1\n              dup4\n              sload\n              div\n              mul\n              dup4\n              mstore\n              swap2\n              0x20\n              add\n              swap2\n              jump(tag_152)\n            tag_153:\n              dup3\n              add\n              swap2\n              swap1\n              0x00\n              mstore\n              keccak256(0x00, 0x20)\n              swap1\n            tag_154:\n              dup2\n              sload\n              dup2\n              mstore\n              swap1\n              0x01\n              add\n              swap1\n              0x20\n              add\n              dup1\n              dup4\n              gt\n              tag_154\n              jumpi\n              dup3\n              swap1\n              sub\n              0x1f\n              and\n              dup3\n              add\n              swap2\n            tag_152:\n              pop\n              pop\n              pop\n              pop\n              pop\n              swap4\n              pop\n              dup3\n              dup1\n              sload\n              tag_155\n              swap1\n              tag_67\n              jump\t// in\n            tag_155:\n              dup1\n              0x1f\n              add\n              0x20\n              dup1\n              swap2\n              div\n              mul\n              0x20\n              add\n              mload(0x40)\n              swap1\n              dup2\n              add\n              0x40\n              mstore\n              dup1\n              swap3\n              swap2\n              swap1\n              dup2\n              dup2\n              mstore\n              0x20\n              add\n              dup3\n              dup1\n              sload\n              tag_156\n              swap1\n              tag_67\n              jump\t// in\n            tag_156:\n              dup1\n              iszero\n              tag_157\n              jumpi\n              dup1\n              0x1f\n              lt\n              tag_158\n              jumpi\n              0x0100\n              dup1\n              dup4\n              sload\n              div\n              mul\n              dup4\n              mstore\n              swap2\n              0x20\n              add\n              swap2\n              jump(tag_157)\n            tag_158:\n              dup3\n              add\n              swap2\n              swap1\n              0x00\n              mstore\n              keccak256(0x00, 0x20)\n              swap1\n            tag_159:\n              dup2\n              sload\n              dup2\n              mstore\n              swap1\n              0x01\n              add\n              swap1\n              0x20\n              add\n              dup1\n              dup4\n              gt\n              tag_159\n              jumpi\n              dup3\n              swap1\n              sub\n              0x1f\n              and\n              dup3\n              add\n              swap2\n            tag_157:\n              pop\n              pop\n              pop\n              pop\n              pop\n              swap3\n              pop\n              dup2\n              dup1\n              sload\n              tag_160\n              swap1\n              tag_67\n              jump\t// in\n            tag_160:\n              dup1\n              0x1f\n              add\n              0x20\n              dup1\n              swap2\n              div\n              mul\n              0x20\n              add\n              mload(0x40)\n              swap1\n              dup2\n              add\n              0x40\n              mstore\n              dup1\n              swap3\n              swap2\n              swap1\n              dup2\n              dup2\n              mstore\n              0x20\n              add\n              dup3\n              dup1\n              sload\n              tag_161\n              swap1\n              tag_67\n              jump\t// in\n            tag_161:\n              dup1\n              iszero\n              tag_162\n              jumpi\n              dup1\n              0x1f\n              lt\n              tag_163\n              jumpi\n              0x0100\n              dup1\n              dup4\n              sload\n              div\n              mul\n              dup4\n              mstore\n              swap2\n              0x20\n              add\n              swap2\n              jump(tag_162)\n            tag_163:\n              dup3\n              add\n              swap2\n              swap1\n              0x00\n              mstore\n              keccak256(0x00, 0x20)\n              swap1\n            tag_164:\n              dup2\n              sload\n              dup2\n              mstore\n              swap1\n              0x01\n              add\n              swap1\n              0x20\n              add\n              dup1\n              dup4\n              gt\n              tag_164\n              jumpi\n              dup3\n              swap1\n              sub\n              0x1f\n              and\n              dup3\n              add\n              swap2\n            tag_162:\n              pop\n              pop\n              pop\n              pop\n              pop\n              swap2\n              pop\n              dup1\n              dup1\n              sload\n              tag_165\n              swap1\n              tag_67\n              jump\t// in\n            tag_165:\n              dup1\n              0x1f\n              add\n              0x20\n              dup1\n              swap2\n              div\n              mul\n              0x20\n              add\n              mload(0x40)\n              swap1\n              dup2\n              add\n              0x40\n              mstore\n              dup1\n              swap3\n              swap2\n              swap1\n              dup2\n              dup2\n              mstore\n              0x20\n              add\n              dup3\n              dup1\n              sload\n              tag_166\n              swap1\n              tag_67\n              jump\t// in\n            tag_166:\n              dup1\n              iszero\n              tag_167\n              jumpi\n              dup1\n              0x1f\n              lt\n              tag_168\n              jumpi\n              0x0100\n              dup1\n              dup4\n              sload\n              div\n              mul\n              dup4\n              mstore\n              swap2\n              0x20\n              add\n              swap2\n              jump(tag_167)\n            tag_168:\n              dup3\n              add\n              swap2\n              swap1\n              0x00\n              mstore\n              keccak256(0x00, 0x20)\n              swap1\n            tag_169:\n              dup2\n              sload\n              dup2\n              mstore\n              swap1\n              0x01\n              add\n              swap1\n              0x20\n              add\n              dup1\n              dup4\n              gt\n              tag_169\n              jumpi\n              dup3\n              swap1\n              sub\n              0x1f\n              and\n              dup3\n              add\n              swap2\n            tag_167:\n              pop\n              pop\n              pop\n              pop\n              pop\n              swap1\n              pop\n              swap9\n              pop\n              swap9\n              pop\n              swap9\n              pop\n              swap9\n              pop\n              swap9\n              pop\n              swap9\n              pop\n              swap9\n              pop\n              swap9\n              pop\n              swap9\n              pop\n                /* \"KYC.sol\":4171:4631  function getUserDetails(address ass) public view agentRestricted... */\n              swap2\n              swap4\n              swap6\n              swap8\n              swap10\n              swap1\n              swap3\n              swap5\n              swap7\n              swap9\n              pop\n              jump\t// out\n                /* \"KYC.sol\":4795:5204  function createRequest(string memory describe,string memory link) public{... */\n            tag_51:\n                /* \"KYC.sol\":4889:5196  Request({                    // Agent will create a request for accessing documents of user/manager.... */\n              mload(0x40)\n              dup1\n              0x80\n              add\n              0x40\n              mstore\n              dup1\n                /* \"KYC.sol\":5016:5024  describe */\n              dup4\n                /* \"KYC.sol\":4889:5196  Request({                    // Agent will create a request for accessing documents of user/manager.... */\n              dup2\n              mstore\n              0x20\n              add\n                /* \"KYC.sol\":5045:5049  link */\n              dup3\n                /* \"KYC.sol\":4889:5196  Request({                    // Agent will create a request for accessing documents of user/manager.... */\n              dup2\n              mstore\n              0x20\n              add\n                /* \"KYC.sol\":5075:5085  msg.sender */\n              caller\n                /* \"KYC.sol\":4889:5196  Request({                    // Agent will create a request for accessing documents of user/manager.... */\n              0xffffffffffffffffffffffffffffffffffffffff\n              and\n              dup2\n              mstore\n              0x20\n              add\n                /* \"KYC.sol\":5179:5184  false */\n              0x00\n                /* \"KYC.sol\":4889:5196  Request({                    // Agent will create a request for accessing documents of user/manager.... */\n              iszero\n              iszero\n              dup2\n              mstore\n              pop\n                /* \"KYC.sol\":4878:4886  requests */\n              0x04\n                /* \"KYC.sol\":4878:5196  requests = Request({                    // Agent will create a request for accessing documents of user/manager.... */\n              0x00\n              dup3\n              add\n              mload\n              dup2\n              0x00\n              add\n              swap1\n              dup1\n              mload\n              swap1\n              0x20\n              add\n              swap1\n              tag_171\n              swap3\n              swap2\n              swap1\n              tag_85\n              jump\t// in\n            tag_171:\n              pop\n              0x20\n              dup3\n              add\n              mload\n              dup2\n              0x01\n              add\n              swap1\n              dup1\n              mload\n              swap1\n              0x20\n              add\n              swap1\n              tag_172\n              swap3\n              swap2\n              swap1\n              tag_85\n              jump\t// in\n            tag_172:\n              pop\n              0x40\n              dup3\n              add\n              mload\n              dup2\n              0x02\n              add\n              exp(0x0100, 0x00)\n              dup2\n              sload\n              dup2\n              0xffffffffffffffffffffffffffffffffffffffff\n              mul\n              not\n              and\n              swap1\n              dup4\n              0xffffffffffffffffffffffffffffffffffffffff\n              and\n              mul\n              or\n              swap1\n              sstore\n              pop\n              0x60\n              dup3\n              add\n              mload\n              dup2\n              0x02\n              add\n              exp(0x0100, 0x14)\n              dup2\n              sload\n              dup2\n              0xff\n              mul\n              not\n              and\n              swap1\n              dup4\n              iszero\n              iszero\n              mul\n              or\n              swap1\n              sstore\n              pop\n              swap1\n              pop\n              pop\n                /* \"KYC.sol\":4795:5204  function createRequest(string memory describe,string memory link) public{... */\n              pop\n              pop\n              jump\t// out\n                /* \"KYC.sol\":3223:3318  function getDeployedUsers() public view returns(address) {... */\n            tag_53:\n                /* \"KYC.sol\":3271:3278  address */\n              0x00\n                /* \"KYC.sol\":3298:3310  usersAddress */\n              dup1\n              0x00\n              swap1\n              sload\n              swap1\n              0x0100\n              exp\n              swap1\n              div\n              0xffffffffffffffffffffffffffffffffffffffff\n              and\n                /* \"KYC.sol\":3291:3310  return usersAddress */\n              swap1\n              pop\n                /* \"KYC.sol\":3223:3318  function getDeployedUsers() public view returns(address) {... */\n              swap1\n              jump\t// out\n                /* \"KYC.sol\":3346:3729  function getparticularUser(address rer) public view... */\n            tag_57:\n                /* \"KYC.sol\":3411:3424  string memory */\n              0x60\n                /* \"KYC.sol\":3426:3439  string memory */\n              dup1\n                /* \"KYC.sol\":3441:3454  string memory */\n              0x60\n                /* \"KYC.sol\":3456:3469  string memory */\n              dup1\n                /* \"KYC.sol\":3471:3484  string memory */\n              0x60\n                /* \"KYC.sol\":3486:3499  string memory */\n              dup1\n                /* \"KYC.sol\":3500:3513  string memory */\n              0x60\n                /* \"KYC.sol\":3533:3538  users */\n              0x01\n                /* \"KYC.sol\":3533:3543  users[rer] */\n              0x00\n                /* \"KYC.sol\":3539:3542  rer */\n              dup10\n                /* \"KYC.sol\":3533:3543  users[rer] */\n              0xffffffffffffffffffffffffffffffffffffffff\n              and\n              0xffffffffffffffffffffffffffffffffffffffff\n              and\n              dup2\n              mstore\n              0x20\n              add\n              swap1\n              dup2\n              mstore\n              0x20\n              add\n              0x00\n              keccak256\n                /* \"KYC.sol\":3533:3547  users[rer].set */\n              0x09\n              add\n              0x00\n              swap1\n              sload\n              swap1\n              0x0100\n              exp\n              swap1\n              div\n              0xff\n              and\n                /* \"KYC.sol\":3525:3548  require(users[rer].set) */\n              tag_175\n              jumpi\n              0x00\n              dup1\n              revert\n            tag_175:\n                /* \"KYC.sol\":3574:3581  manager */\n              0x02\n              0x00\n              swap1\n              sload\n              swap1\n              0x0100\n              exp\n              swap1\n              div\n              0xffffffffffffffffffffffffffffffffffffffff\n              and\n                /* \"KYC.sol\":3567:3581  rer == manager */\n              0xffffffffffffffffffffffffffffffffffffffff\n              and\n                /* \"KYC.sol\":3567:3570  rer */\n              dup9\n                /* \"KYC.sol\":3567:3581  rer == manager */\n              0xffffffffffffffffffffffffffffffffffffffff\n              and\n              eq\n                /* \"KYC.sol\":3559:3582  require(rer == manager) */\n              tag_176\n              jumpi\n              0x00\n              dup1\n              revert\n            tag_176:\n                /* \"KYC.sol\":3601:3606  users */\n              0x01\n                /* \"KYC.sol\":3601:3611  users[rer] */\n              0x00\n                /* \"KYC.sol\":3607:3610  rer */\n              dup10\n                /* \"KYC.sol\":3601:3611  users[rer] */\n              0xffffffffffffffffffffffffffffffffffffffff\n              and\n              0xffffffffffffffffffffffffffffffffffffffff\n              and\n              dup2\n              mstore\n              0x20\n              add\n              swap1\n              dup2\n              mstore\n              0x20\n              add\n              0x00\n              keccak256\n                /* \"KYC.sol\":3601:3616  users[rer].name */\n              0x00\n              add\n                /* \"KYC.sol\":3617:3622  users */\n              0x01\n                /* \"KYC.sol\":3617:3627  users[rer] */\n              0x00\n                /* \"KYC.sol\":3623:3626  rer */\n              dup11\n                /* \"KYC.sol\":3617:3627  users[rer] */\n              0xffffffffffffffffffffffffffffffffffffffff\n              and\n              0xffffffffffffffffffffffffffffffffffffffff\n              and\n              dup2\n              mstore\n              0x20\n              add\n              swap1\n              dup2\n              mstore\n              0x20\n              add\n              0x00\n              keccak256\n                /* \"KYC.sol\":3617:3634  users[rer].father */\n              0x01\n              add\n                /* \"KYC.sol\":3635:3640  users */\n              0x01\n                /* \"KYC.sol\":3635:3645  users[rer] */\n              0x00\n                /* \"KYC.sol\":3641:3644  rer */\n              dup12\n                /* \"KYC.sol\":3635:3645  users[rer] */\n              0xffffffffffffffffffffffffffffffffffffffff\n              and\n              0xffffffffffffffffffffffffffffffffffffffff\n              and\n              dup2\n              mstore\n              0x20\n              add\n              swap1\n              dup2\n              mstore\n              0x20\n              add\n              0x00\n              keccak256\n                /* \"KYC.sol\":3635:3652  users[rer].mother */\n              0x02\n              add\n                /* \"KYC.sol\":3653:3658  users */\n              0x01\n                /* \"KYC.sol\":3653:3663  users[rer] */\n              0x00\n                /* \"KYC.sol\":3659:3662  rer */\n              dup13\n                /* \"KYC.sol\":3653:3663  users[rer] */\n              0xffffffffffffffffffffffffffffffffffffffff\n              and\n              0xffffffffffffffffffffffffffffffffffffffff\n              and\n              dup2\n              mstore\n              0x20\n              add\n              swap1\n              dup2\n              mstore\n              0x20\n              add\n              0x00\n              keccak256\n                /* \"KYC.sol\":3653:3673  users[rer].birthdate */\n              0x03\n              add\n                /* \"KYC.sol\":3674:3679  users */\n              0x01\n                /* \"KYC.sol\":3674:3684  users[rer] */\n              0x00\n                /* \"KYC.sol\":3680:3683  rer */\n              dup14\n                /* \"KYC.sol\":3674:3684  users[rer] */\n              0xffffffffffffffffffffffffffffffffffffffff\n              and\n              0xffffffffffffffffffffffffffffffffffffffff\n              and\n              dup2\n              mstore\n              0x20\n              add\n              swap1\n              dup2\n              mstore\n              0x20\n              add\n              0x00\n              keccak256\n                /* \"KYC.sol\":3674:3688  users[rer].add */\n              0x04\n              add\n                /* \"KYC.sol\":3689:3694  users */\n              0x01\n                /* \"KYC.sol\":3689:3699  users[rer] */\n              0x00\n                /* \"KYC.sol\":3695:3698  rer */\n              dup15\n                /* \"KYC.sol\":3689:3699  users[rer] */\n              0xffffffffffffffffffffffffffffffffffffffff\n              and\n              0xffffffffffffffffffffffffffffffffffffffff\n              and\n              dup2\n              mstore\n              0x20\n              add\n              swap1\n              dup2\n              mstore\n              0x20\n              add\n              0x00\n              keccak256\n                /* \"KYC.sol\":3689:3703  users[rer].mob */\n              0x05\n              add\n                /* \"KYC.sol\":3704:3709  users */\n              0x01\n                /* \"KYC.sol\":3704:3714  users[rer] */\n              0x00\n                /* \"KYC.sol\":3710:3713  rer */\n              dup16\n                /* \"KYC.sol\":3704:3714  users[rer] */\n              0xffffffffffffffffffffffffffffffffffffffff\n              and\n              0xffffffffffffffffffffffffffffffffffffffff\n              and\n              dup2\n              mstore\n              0x20\n              add\n              swap1\n              dup2\n              mstore\n              0x20\n              add\n              0x00\n              keccak256\n                /* \"KYC.sol\":3704:3720  users[rer].email */\n              0x06\n              add\n                /* \"KYC.sol\":3593:3721  return (users[rer].name,users[rer].father,users[rer].mother,users[rer].birthdate,users[rer].add,users[rer].mob,users[rer].email) */\n              dup7\n              dup1\n              sload\n              tag_177\n              swap1\n              tag_67\n              jump\t// in\n            tag_177:\n              dup1\n              0x1f\n              add\n              0x20\n              dup1\n              swap2\n              div\n              mul\n              0x20\n              add\n              mload(0x40)\n              swap1\n              dup2\n              add\n              0x40\n              mstore\n              dup1\n              swap3\n              swap2\n              swap1\n              dup2\n              dup2\n              mstore\n              0x20\n              add\n              dup3\n              dup1\n              sload\n              tag_178\n              swap1\n              tag_67\n              jump\t// in\n            tag_178:\n              dup1\n              iszero\n              tag_179\n              jumpi\n              dup1\n              0x1f\n              lt\n              tag_180\n              jumpi\n              0x0100\n              dup1\n              dup4\n              sload\n              div\n              mul\n              dup4\n              mstore\n              swap2\n              0x20\n              add\n              swap2\n              jump(tag_179)\n            tag_180:\n              dup3\n              add\n              swap2\n              swap1\n              0x00\n              mstore\n              keccak256(0x00, 0x20)\n              swap1\n            tag_181:\n              dup2\n              sload\n              dup2\n              mstore\n              swap1\n              0x01\n              add\n              swap1\n              0x20\n              add\n              dup1\n              dup4\n              gt\n              tag_181\n              jumpi\n              dup3\n              swap1\n              sub\n              0x1f\n              and\n              dup3\n              add\n              swap2\n            tag_179:\n              pop\n              pop\n              pop\n              pop\n              pop\n              swap7\n              pop\n              dup6\n              dup1\n              sload\n              tag_182\n              swap1\n              tag_67\n              jump\t// in\n            tag_182:\n              dup1\n              0x1f\n              add\n              0x20\n              dup1\n              swap2\n              div\n              mul\n              0x20\n              add\n              mload(0x40)\n              swap1\n              dup2\n              add\n              0x40\n              mstore\n              dup1\n              swap3\n              swap2\n              swap1\n              dup2\n              dup2\n              mstore\n              0x20\n              add\n              dup3\n              dup1\n              sload\n              tag_183\n              swap1\n              tag_67\n              jump\t// in\n            tag_183:\n              dup1\n              iszero\n              tag_184\n              jumpi\n              dup1\n              0x1f\n              lt\n              tag_185\n              jumpi\n              0x0100\n              dup1\n              dup4\n              sload\n              div\n              mul\n              dup4\n              mstore\n              swap2\n              0x20\n              add\n              swap2\n              jump(tag_184)\n            tag_185:\n              dup3\n              add\n              swap2\n              swap1\n              0x00\n              mstore\n              keccak256(0x00, 0x20)\n              swap1\n            tag_186:\n              dup2\n              sload\n              dup2\n              mstore\n              swap1\n              0x01\n              add\n              swap1\n              0x20\n              add\n              dup1\n              dup4\n              gt\n              tag_186\n              jumpi\n              dup3\n              swap1\n              sub\n              0x1f\n              and\n              dup3\n              add\n              swap2\n            tag_184:\n              pop\n              pop\n              pop\n              pop\n              pop\n              swap6\n              pop\n              dup5\n              dup1\n              sload\n              tag_187\n              swap1\n              tag_67\n              jump\t// in\n            tag_187:\n              dup1\n              0x1f\n              add\n              0x20\n              dup1\n              swap2\n              div\n              mul\n              0x20\n              add\n              mload(0x40)\n              swap1\n              dup2\n              add\n              0x40\n              mstore\n              dup1\n              swap3\n              swap2\n              swap1\n              dup2\n              dup2\n              mstore\n              0x20\n              add\n              dup3\n              dup1\n              sload\n              tag_188\n              swap1\n              tag_67\n              jump\t// in\n            tag_188:\n              dup1\n              iszero\n              tag_189\n              jumpi\n              dup1\n              0x1f\n              lt\n              tag_190\n              jumpi\n              0x0100\n              dup1\n              dup4\n              sload\n              div\n              mul\n              dup4\n              mstore\n              swap2\n              0x20\n              add\n              swap2\n              jump(tag_189)\n            tag_190:\n              dup3\n              add\n              swap2\n              swap1\n              0x00\n              mstore\n              keccak256(0x00, 0x20)\n              swap1\n            tag_191:\n              dup2\n              sload\n              dup2\n              mstore\n              swap1\n              0x01\n              add\n              swap1\n              0x20\n              add\n              dup1\n              dup4\n              gt\n              tag_191\n              jumpi\n              dup3\n              swap1\n              sub\n              0x1f\n              and\n              dup3\n              add\n              swap2\n            tag_189:\n              pop\n              pop\n              pop\n              pop\n              pop\n              swap5\n              pop\n              dup4\n              dup1\n              sload\n              tag_192\n              swap1\n              tag_67\n              jump\t// in\n            tag_192:\n              dup1\n              0x1f\n              add\n              0x20\n              dup1\n              swap2\n              div\n              mul\n              0x20\n              add\n              mload(0x40)\n              swap1\n              dup2\n              add\n              0x40\n              mstore\n              dup1\n              swap3\n              swap2\n              swap1\n              dup2\n              dup2\n              mstore\n              0x20\n              add\n              dup3\n              dup1\n              sload\n              tag_193\n              swap1\n              tag_67\n              jump\t// in\n            tag_193:\n              dup1\n              iszero\n              tag_194\n              jumpi\n              dup1\n              0x1f\n              lt\n              tag_195\n              jumpi\n              0x0100\n              dup1\n              dup4\n              sload\n              div\n              mul\n              dup4\n              mstore\n              swap2\n              0x20\n              add\n              swap2\n              jump(tag_194)\n            tag_195:\n              dup3\n              add\n              swap2\n              swap1\n              0x00\n              mstore\n              keccak256(0x00, 0x20)\n              swap1\n            tag_196:\n              dup2\n              sload\n              dup2\n              mstore\n              swap1\n              0x01\n              add\n              swap1\n              0x20\n              add\n              dup1\n              dup4\n              gt\n              tag_196\n              jumpi\n              dup3\n              swap1\n              sub\n              0x1f\n              and\n              dup3\n              add\n              swap2\n            tag_194:\n              pop\n              pop\n              pop\n              pop\n              pop\n              swap4\n              pop\n              dup3\n              dup1\n              sload\n              tag_197\n              swap1\n              tag_67\n              jump\t// in\n            tag_197:\n              dup1\n              0x1f\n              add\n              0x20\n              dup1\n              swap2\n              div\n              mul\n              0x20\n              add\n              mload(0x40)\n              swap1\n              dup2\n              add\n              0x40\n              mstore\n              dup1\n              swap3\n              swap2\n              swap1\n              dup2\n              dup2\n              mstore\n              0x20\n              add\n              dup3\n              dup1\n              sload\n              tag_198\n              swap1\n              tag_67\n              jump\t// in\n            tag_198:\n              dup1\n              iszero\n              tag_199\n              jumpi\n              dup1\n              0x1f\n              lt\n              tag_200\n              jumpi\n              0x0100\n              dup1\n              dup4\n              sload\n              div\n              mul\n              dup4\n              mstore\n              swap2\n              0x20\n              add\n              swap2\n              jump(tag_199)\n            tag_200:\n              dup3\n              add\n              swap2\n              swap1\n              0x00\n              mstore\n              keccak256(0x00, 0x20)\n              swap1\n            tag_201:\n              dup2\n              sload\n              dup2\n              mstore\n              swap1\n              0x01\n              add\n              swap1\n              0x20\n              add\n              dup1\n              dup4\n              gt\n              tag_201\n              jumpi\n              dup3\n              swap1\n              sub\n              0x1f\n              and\n              dup3\n              add\n              swap2\n            tag_199:\n              pop\n              pop\n              pop\n              pop\n              pop\n              swap3\n              pop\n              dup2\n              dup1\n              sload\n              tag_202\n              swap1\n              tag_67\n              jump\t// in\n            tag_202:\n              dup1\n              0x1f\n              add\n              0x20\n              dup1\n              swap2\n              div\n              mul\n              0x20\n              add\n              mload(0x40)\n              swap1\n              dup2\n              add\n              0x40\n              mstore\n              dup1\n              swap3\n              swap2\n              swap1\n              dup2\n              dup2\n              mstore\n              0x20\n              add\n              dup3\n              dup1\n              sload\n              tag_203\n              swap1\n              tag_67\n              jump\t// in\n            tag_203:\n              dup1\n              iszero\n              tag_204\n              jumpi\n              dup1\n              0x1f\n              lt\n              tag_205\n              jumpi\n              0x0100\n              dup1\n              dup4\n              sload\n              div\n              mul\n              dup4\n              mstore\n              swap2\n              0x20\n              add\n              swap2\n              jump(tag_204)\n            tag_205:\n              dup3\n              add\n              swap2\n              swap1\n              0x00\n              mstore\n              keccak256(0x00, 0x20)\n              swap1\n            tag_206:\n              dup2\n              sload\n              dup2\n              mstore\n              swap1\n              0x01\n              add\n              swap1\n              0x20\n              add\n              dup1\n              dup4\n              gt\n              tag_206\n              jumpi\n              dup3\n              swap1\n              sub\n              0x1f\n              and\n              dup3\n              add\n              swap2\n            tag_204:\n              pop\n              pop\n              pop\n              pop\n              pop\n              swap2\n              pop\n              dup1\n              dup1\n              sload\n              tag_207\n              swap1\n              tag_67\n              jump\t// in\n            tag_207:\n              dup1\n              0x1f\n              add\n              0x20\n              dup1\n              swap2\n              div\n              mul\n              0x20\n              add\n              mload(0x40)\n              swap1\n              dup2\n              add\n              0x40\n              mstore\n              dup1\n              swap3\n              swap2\n              swap1\n              dup2\n              dup2\n              mstore\n              0x20\n              add\n              dup3\n              dup1\n              sload\n              tag_208\n              swap1\n              tag_67\n              jump\t// in\n            tag_208:\n              dup1\n              iszero\n              tag_209\n              jumpi\n              dup1\n              0x1f\n              lt\n              tag_210\n              jumpi\n              0x0100\n              dup1\n              dup4\n              sload\n              div\n              mul\n              dup4\n              mstore\n              swap2\n              0x20\n              add\n              swap2\n              jump(tag_209)\n            tag_210:\n              dup3\n              add\n              swap2\n              swap1\n              0x00\n              mstore\n              keccak256(0x00, 0x20)\n              swap1\n            tag_211:\n              dup2\n              sload\n              dup2\n              mstore\n              swap1\n              0x01\n              add\n              swap1\n              0x20\n              add\n              dup1\n              dup4\n              gt\n              tag_211\n              jumpi\n              dup3\n              swap1\n              sub\n              0x1f\n              and\n              dup3\n              add\n              swap2\n            tag_209:\n              pop\n              pop\n              pop\n              pop\n              pop\n              swap1\n              pop\n              swap7\n              pop\n              swap7\n              pop\n              swap7\n              pop\n              swap7\n              pop\n              swap7\n              pop\n              swap7\n              pop\n              swap7\n              pop\n                /* \"KYC.sol\":3346:3729  function getparticularUser(address rer) public view... */\n              swap2\n              swap4\n              swap6\n              swap8\n              swap1\n              swap3\n              swap5\n              swap7\n              pop\n              jump\t// out\n                /* \"KYC.sol\":1966:1993  address public usersAddress */\n            tag_61:\n              0x00\n              dup1\n              sload\n              swap1\n              0x0100\n              exp\n              swap1\n              div\n              0xffffffffffffffffffffffffffffffffffffffff\n              and\n              dup2\n              jump\t// out\n            tag_85:\n              dup3\n              dup1\n              sload\n              tag_212\n              swap1\n              tag_67\n              jump\t// in\n            tag_212:\n              swap1\n              0x00\n              mstore\n              keccak256(0x00, 0x20)\n              swap1\n              0x1f\n              add\n              0x20\n              swap1\n              div\n              dup2\n              add\n              swap3\n              dup3\n              tag_214\n              jumpi\n              0x00\n              dup6\n              sstore\n              jump(tag_213)\n            tag_214:\n              dup3\n              0x1f\n              lt\n              tag_215\n              jumpi\n              dup1\n              mload\n              not(0xff)\n              and\n              dup4\n              dup1\n              add\n              or\n              dup6\n              sstore\n              jump(tag_213)\n            tag_215:\n              dup3\n              dup1\n              add\n              0x01\n              add\n              dup6\n              sstore\n              dup3\n              iszero\n              tag_213\n              jumpi\n              swap2\n              dup3\n              add\n            tag_216:\n              dup3\n              dup2\n              gt\n              iszero\n              tag_217\n              jumpi\n              dup3\n              mload\n              dup3\n              sstore\n              swap2\n              0x20\n              add\n              swap2\n              swap1\n              0x01\n              add\n              swap1\n              jump(tag_216)\n            tag_217:\n            tag_213:\n              pop\n              swap1\n              pop\n              tag_218\n              swap2\n              swap1\n              tag_219\n              jump\t// in\n            tag_218:\n              pop\n              swap1\n              jump\t// out\n            tag_109:\n              mload(0x40)\n              dup1\n              0x80\n              add\n              0x40\n              mstore\n              dup1\n              0x60\n              dup2\n              mstore\n              0x20\n              add\n              0x60\n              dup2\n              mstore\n              0x20\n              add\n              and(0xffffffffffffffffffffffffffffffffffffffff, 0x00)\n              dup2\n              mstore\n              0x20\n              add\n              iszero(iszero(0x00))\n              dup2\n              mstore\n              pop\n              swap1\n              jump\t// out\n            tag_219:\n            tag_220:\n              dup1\n              dup3\n              gt\n              iszero\n              tag_221\n              jumpi\n              0x00\n              dup2\n              0x00\n              swap1\n              sstore\n              pop\n              0x01\n              add\n              jump(tag_220)\n            tag_221:\n              pop\n              swap1\n              jump\t// out\n                /* \"#utility.yul\":7:82   */\n            tag_222:\n                /* \"#utility.yul\":40:46   */\n              0x00\n                /* \"#utility.yul\":73:75   */\n              0x40\n                /* \"#utility.yul\":67:76   */\n              mload\n                /* \"#utility.yul\":57:76   */\n              swap1\n              pop\n                /* \"#utility.yul\":7:82   */\n              swap1\n              jump\t// out\n                /* \"#utility.yul\":88:205   */\n            tag_223:\n                /* \"#utility.yul\":197:198   */\n              0x00\n                /* \"#utility.yul\":194:195   */\n              dup1\n                /* \"#utility.yul\":187:199   */\n              revert\n                /* \"#utility.yul\":211:328   */\n            tag_224:\n                /* \"#utility.yul\":320:321   */\n              0x00\n                /* \"#utility.yul\":317:318   */\n              dup1\n                /* \"#utility.yul\":310:322   */\n              revert\n                /* \"#utility.yul\":334:460   */\n            tag_225:\n                /* \"#utility.yul\":371:378   */\n              0x00\n                /* \"#utility.yul\":411:453   */\n              0xffffffffffffffffffffffffffffffffffffffff\n                /* \"#utility.yul\":404:409   */\n              dup3\n                /* \"#utility.yul\":400:454   */\n              and\n                /* \"#utility.yul\":389:454   */\n              swap1\n              pop\n                /* \"#utility.yul\":334:460   */\n              swap2\n              swap1\n              pop\n              jump\t// out\n                /* \"#utility.yul\":466:562   */\n            tag_226:\n                /* \"#utility.yul\":503:510   */\n              0x00\n                /* \"#utility.yul\":532:556   */\n              tag_257\n                /* \"#utility.yul\":550:555   */\n              dup3\n                /* \"#utility.yul\":532:556   */\n              tag_225\n              jump\t// in\n            tag_257:\n                /* \"#utility.yul\":521:556   */\n              swap1\n              pop\n                /* \"#utility.yul\":466:562   */\n              swap2\n              swap1\n              pop\n              jump\t// out\n                /* \"#utility.yul\":568:690   */\n            tag_227:\n                /* \"#utility.yul\":641:665   */\n              tag_259\n                /* \"#utility.yul\":659:664   */\n              dup2\n                /* \"#utility.yul\":641:665   */\n              tag_226\n              jump\t// in\n            tag_259:\n                /* \"#utility.yul\":634:639   */\n              dup2\n                /* \"#utility.yul\":631:666   */\n              eq\n                /* \"#utility.yul\":621:684   */\n              tag_260\n              jumpi\n                /* \"#utility.yul\":680:681   */\n              0x00\n                /* \"#utility.yul\":677:678   */\n              dup1\n                /* \"#utility.yul\":670:682   */\n              revert\n                /* \"#utility.yul\":621:684   */\n            tag_260:\n                /* \"#utility.yul\":568:690   */\n              pop\n              jump\t// out\n                /* \"#utility.yul\":696:835   */\n            tag_228:\n                /* \"#utility.yul\":742:747   */\n              0x00\n                /* \"#utility.yul\":780:786   */\n              dup2\n                /* \"#utility.yul\":767:787   */\n              calldataload\n                /* \"#utility.yul\":758:787   */\n              swap1\n              pop\n                /* \"#utility.yul\":796:829   */\n              tag_262\n                /* \"#utility.yul\":823:828   */\n              dup2\n                /* \"#utility.yul\":796:829   */\n              tag_227\n              jump\t// in\n            tag_262:\n                /* \"#utility.yul\":696:835   */\n              swap3\n              swap2\n              pop\n              pop\n              jump\t// out\n                /* \"#utility.yul\":841:1170   */\n            tag_18:\n                /* \"#utility.yul\":900:906   */\n              0x00\n                /* \"#utility.yul\":949:951   */\n              0x20\n                /* \"#utility.yul\":937:946   */\n              dup3\n                /* \"#utility.yul\":928:935   */\n              dup5\n                /* \"#utility.yul\":924:947   */\n              sub\n                /* \"#utility.yul\":920:952   */\n              slt\n                /* \"#utility.yul\":917:1036   */\n              iszero\n              tag_264\n              jumpi\n                /* \"#utility.yul\":955:1034   */\n              tag_265\n              tag_223\n              jump\t// in\n            tag_265:\n                /* \"#utility.yul\":917:1036   */\n            tag_264:\n                /* \"#utility.yul\":1075:1076   */\n              0x00\n                /* \"#utility.yul\":1100:1153   */\n              tag_266\n                /* \"#utility.yul\":1145:1152   */\n              dup5\n                /* \"#utility.yul\":1136:1142   */\n              dup3\n                /* \"#utility.yul\":1125:1134   */\n              dup6\n                /* \"#utility.yul\":1121:1143   */\n              add\n                /* \"#utility.yul\":1100:1153   */\n              tag_228\n              jump\t// in\n            tag_266:\n                /* \"#utility.yul\":1090:1153   */\n              swap2\n              pop\n                /* \"#utility.yul\":1046:1163   */\n              pop\n                /* \"#utility.yul\":841:1170   */\n              swap3\n              swap2\n              pop\n              pop\n              jump\t// out\n                /* \"#utility.yul\":1176:1275   */\n            tag_229:\n                /* \"#utility.yul\":1228:1234   */\n              0x00\n                /* \"#utility.yul\":1262:1267   */\n              dup2\n                /* \"#utility.yul\":1256:1268   */\n              mload\n                /* \"#utility.yul\":1246:1268   */\n              swap1\n              pop\n                /* \"#utility.yul\":1176:1275   */\n              swap2\n              swap1\n              pop\n              jump\t// out\n                /* \"#utility.yul\":1281:1450   */\n            tag_230:\n                /* \"#utility.yul\":1365:1376   */\n              0x00\n                /* \"#utility.yul\":1399:1405   */\n              dup3\n                /* \"#utility.yul\":1394:1397   */\n              dup3\n                /* \"#utility.yul\":1387:1406   */\n              mstore\n                /* \"#utility.yul\":1439:1443   */\n              0x20\n                /* \"#utility.yul\":1434:1437   */\n              dup3\n                /* \"#utility.yul\":1430:1444   */\n              add\n                /* \"#utility.yul\":1415:1444   */\n              swap1\n              pop\n                /* \"#utility.yul\":1281:1450   */\n              swap3\n              swap2\n              pop\n              pop\n              jump\t// out\n                /* \"#utility.yul\":1456:1763   */\n            tag_231:\n                /* \"#utility.yul\":1524:1525   */\n              0x00\n                /* \"#utility.yul\":1534:1647   */\n            tag_270:\n                /* \"#utility.yul\":1548:1554   */\n              dup4\n                /* \"#utility.yul\":1545:1546   */\n              dup2\n                /* \"#utility.yul\":1542:1555   */\n              lt\n                /* \"#utility.yul\":1534:1647   */\n              iszero\n              tag_272\n              jumpi\n                /* \"#utility.yul\":1633:1634   */\n              dup1\n                /* \"#utility.yul\":1628:1631   */\n              dup3\n                /* \"#utility.yul\":1624:1635   */\n              add\n                /* \"#utility.yul\":1618:1636   */\n              mload\n                /* \"#utility.yul\":1614:1615   */\n              dup2\n                /* \"#utility.yul\":1609:1612   */\n              dup5\n                /* \"#utility.yul\":1605:1616   */\n              add\n                /* \"#utility.yul\":1598:1637   */\n              mstore\n                /* \"#utility.yul\":1570:1572   */\n              0x20\n                /* \"#utility.yul\":1567:1568   */\n              dup2\n                /* \"#utility.yul\":1563:1573   */\n              add\n                /* \"#utility.yul\":1558:1573   */\n              swap1\n              pop\n                /* \"#utility.yul\":1534:1647   */\n              jump(tag_270)\n            tag_272:\n                /* \"#utility.yul\":1665:1671   */\n              dup4\n                /* \"#utility.yul\":1662:1663   */\n              dup2\n                /* \"#utility.yul\":1659:1672   */\n              gt\n                /* \"#utility.yul\":1656:1757   */\n              iszero\n              tag_273\n              jumpi\n                /* \"#utility.yul\":1745:1746   */\n              0x00\n                /* \"#utility.yul\":1736:1742   */\n              dup5\n                /* \"#utility.yul\":1731:1734   */\n              dup5\n                /* \"#utility.yul\":1727:1743   */\n              add\n                /* \"#utility.yul\":1720:1747   */\n              mstore\n                /* \"#utility.yul\":1656:1757   */\n            tag_273:\n                /* \"#utility.yul\":1505:1763   */\n              pop\n                /* \"#utility.yul\":1456:1763   */\n              pop\n              pop\n              pop\n              jump\t// out\n                /* \"#utility.yul\":1769:1871   */\n            tag_232:\n                /* \"#utility.yul\":1810:1816   */\n              0x00\n                /* \"#utility.yul\":1861:1863   */\n              0x1f\n                /* \"#utility.yul\":1857:1864   */\n              not\n                /* \"#utility.yul\":1852:1854   */\n              0x1f\n                /* \"#utility.yul\":1845:1850   */\n              dup4\n                /* \"#utility.yul\":1841:1855   */\n              add\n                /* \"#utility.yul\":1837:1865   */\n              and\n                /* \"#utility.yul\":1827:1865   */\n              swap1\n              pop\n                /* \"#utility.yul\":1769:1871   */\n              swap2\n              swap1\n              pop\n              jump\t// out\n                /* \"#utility.yul\":1877:2241   */\n            tag_233:\n                /* \"#utility.yul\":1965:1968   */\n              0x00\n                /* \"#utility.yul\":1993:2032   */\n              tag_276\n                /* \"#utility.yul\":2026:2031   */\n              dup3\n                /* \"#utility.yul\":1993:2032   */\n              tag_229\n              jump\t// in\n            tag_276:\n                /* \"#utility.yul\":2048:2119   */\n              tag_277\n                /* \"#utility.yul\":2112:2118   */\n              dup2\n                /* \"#utility.yul\":2107:2110   */\n              dup6\n                /* \"#utility.yul\":2048:2119   */\n              tag_230\n              jump\t// in\n            tag_277:\n                /* \"#utility.yul\":2041:2119   */\n              swap4\n              pop\n                /* \"#utility.yul\":2128:2180   */\n              tag_278\n                /* \"#utility.yul\":2173:2179   */\n              dup2\n                /* \"#utility.yul\":2168:2171   */\n              dup6\n                /* \"#utility.yul\":2161:2165   */\n              0x20\n                /* \"#utility.yul\":2154:2159   */\n              dup7\n                /* \"#utility.yul\":2150:2166   */\n              add\n                /* \"#utility.yul\":2128:2180   */\n              tag_231\n              jump\t// in\n            tag_278:\n                /* \"#utility.yul\":2205:2234   */\n              tag_279\n                /* \"#utility.yul\":2227:2233   */\n              dup2\n                /* \"#utility.yul\":2205:2234   */\n              tag_232\n              jump\t// in\n            tag_279:\n                /* \"#utility.yul\":2200:2203   */\n              dup5\n                /* \"#utility.yul\":2196:2235   */\n              add\n                /* \"#utility.yul\":2189:2235   */\n              swap2\n              pop\n                /* \"#utility.yul\":1969:2241   */\n              pop\n                /* \"#utility.yul\":1877:2241   */\n              swap3\n              swap2\n              pop\n              pop\n              jump\t// out\n                /* \"#utility.yul\":2247:2761   */\n            tag_21:\n                /* \"#utility.yul\":2408:2412   */\n              0x00\n                /* \"#utility.yul\":2446:2448   */\n              0x40\n                /* \"#utility.yul\":2435:2444   */\n              dup3\n                /* \"#utility.yul\":2431:2449   */\n              add\n                /* \"#utility.yul\":2423:2449   */\n              swap1\n              pop\n                /* \"#utility.yul\":2495:2504   */\n              dup2\n                /* \"#utility.yul\":2489:2493   */\n              dup2\n                /* \"#utility.yul\":2485:2505   */\n              sub\n                /* \"#utility.yul\":2481:2482   */\n              0x00\n                /* \"#utility.yul\":2470:2479   */\n              dup4\n                /* \"#utility.yul\":2466:2483   */\n              add\n                /* \"#utility.yul\":2459:2506   */\n              mstore\n                /* \"#utility.yul\":2523:2601   */\n              tag_281\n                /* \"#utility.yul\":2596:2600   */\n              dup2\n                /* \"#utility.yul\":2587:2593   */\n              dup6\n                /* \"#utility.yul\":2523:2601   */\n              tag_233\n              jump\t// in\n            tag_281:\n                /* \"#utility.yul\":2515:2601   */\n              swap1\n              pop\n                /* \"#utility.yul\":2648:2657   */\n              dup2\n                /* \"#utility.yul\":2642:2646   */\n              dup2\n                /* \"#utility.yul\":2638:2658   */\n              sub\n                /* \"#utility.yul\":2633:2635   */\n              0x20\n                /* \"#utility.yul\":2622:2631   */\n              dup4\n                /* \"#utility.yul\":2618:2636   */\n              add\n                /* \"#utility.yul\":2611:2659   */\n              mstore\n                /* \"#utility.yul\":2676:2754   */\n              tag_282\n                /* \"#utility.yul\":2749:2753   */\n              dup2\n                /* \"#utility.yul\":2740:2746   */\n              dup5\n                /* \"#utility.yul\":2676:2754   */\n              tag_233\n              jump\t// in\n            tag_282:\n                /* \"#utility.yul\":2668:2754   */\n              swap1\n              pop\n                /* \"#utility.yul\":2247:2761   */\n              swap4\n              swap3\n              pop\n              pop\n              pop\n              jump\t// out\n                /* \"#utility.yul\":2767:2884   */\n            tag_234:\n                /* \"#utility.yul\":2876:2877   */\n              0x00\n                /* \"#utility.yul\":2873:2874   */\n              dup1\n                /* \"#utility.yul\":2866:2878   */\n              revert\n                /* \"#utility.yul\":2890:3007   */\n            tag_235:\n                /* \"#utility.yul\":2999:3000   */\n              0x00\n                /* \"#utility.yul\":2996:2997   */\n              dup1\n                /* \"#utility.yul\":2989:3001   */\n              revert\n                /* \"#utility.yul\":3013:3193   */\n            tag_236:\n                /* \"#utility.yul\":3061:3138   */\n              0x4e487b7100000000000000000000000000000000000000000000000000000000\n                /* \"#utility.yul\":3058:3059   */\n              0x00\n                /* \"#utility.yul\":3051:3139   */\n              mstore\n                /* \"#utility.yul\":3158:3162   */\n              0x41\n                /* \"#utility.yul\":3155:3156   */\n              0x04\n                /* \"#utility.yul\":3148:3163   */\n              mstore\n                /* \"#utility.yul\":3182:3186   */\n              0x24\n                /* \"#utility.yul\":3179:3180   */\n              0x00\n                /* \"#utility.yul\":3172:3187   */\n              revert\n                /* \"#utility.yul\":3199:3480   */\n            tag_237:\n                /* \"#utility.yul\":3282:3309   */\n              tag_287\n                /* \"#utility.yul\":3304:3308   */\n              dup3\n                /* \"#utility.yul\":3282:3309   */\n              tag_232\n              jump\t// in\n            tag_287:\n                /* \"#utility.yul\":3274:3280   */\n              dup2\n                /* \"#utility.yul\":3270:3310   */\n              add\n                /* \"#utility.yul\":3412:3418   */\n              dup2\n                /* \"#utility.yul\":3400:3410   */\n              dup2\n                /* \"#utility.yul\":3397:3419   */\n              lt\n                /* \"#utility.yul\":3376:3394   */\n              0xffffffffffffffff\n                /* \"#utility.yul\":3364:3374   */\n              dup3\n                /* \"#utility.yul\":3361:3395   */\n              gt\n                /* \"#utility.yul\":3358:3420   */\n              or\n                /* \"#utility.yul\":3355:3443   */\n              iszero\n              tag_288\n              jumpi\n                /* \"#utility.yul\":3423:3441   */\n              tag_289\n              tag_236\n              jump\t// in\n            tag_289:\n                /* \"#utility.yul\":3355:3443   */\n            tag_288:\n                /* \"#utility.yul\":3463:3473   */\n              dup1\n                /* \"#utility.yul\":3459:3461   */\n              0x40\n                /* \"#utility.yul\":3452:3474   */\n              mstore\n                /* \"#utility.yul\":3242:3480   */\n              pop\n                /* \"#utility.yul\":3199:3480   */\n              pop\n              pop\n              jump\t// out\n                /* \"#utility.yul\":3486:3615   */\n            tag_238:\n                /* \"#utility.yul\":3520:3526   */\n              0x00\n                /* \"#utility.yul\":3547:3567   */\n              tag_291\n              tag_222\n              jump\t// in\n            tag_291:\n                /* \"#utility.yul\":3537:3567   */\n              swap1\n              pop\n                /* \"#utility.yul\":3576:3609   */\n              tag_292\n                /* \"#utility.yul\":3604:3608   */\n              dup3\n                /* \"#utility.yul\":3596:3602   */\n              dup3\n                /* \"#utility.yul\":3576:3609   */\n              tag_237\n              jump\t// in\n            tag_292:\n                /* \"#utility.yul\":3486:3615   */\n              swap2\n              swap1\n              pop\n              jump\t// out\n                /* \"#utility.yul\":3621:3929   */\n            tag_239:\n                /* \"#utility.yul\":3683:3687   */\n              0x00\n                /* \"#utility.yul\":3773:3791   */\n              0xffffffffffffffff\n                /* \"#utility.yul\":3765:3771   */\n              dup3\n                /* \"#utility.yul\":3762:3792   */\n              gt\n                /* \"#utility.yul\":3759:3815   */\n              iszero\n              tag_294\n              jumpi\n                /* \"#utility.yul\":3795:3813   */\n              tag_295\n              tag_236\n              jump\t// in\n            tag_295:\n                /* \"#utility.yul\":3759:3815   */\n            tag_294:\n                /* \"#utility.yul\":3833:3862   */\n              tag_296\n                /* \"#utility.yul\":3855:3861   */\n              dup3\n                /* \"#utility.yul\":3833:3862   */\n              tag_232\n              jump\t// in\n            tag_296:\n                /* \"#utility.yul\":3825:3862   */\n              swap1\n              pop\n                /* \"#utility.yul\":3917:3921   */\n              0x20\n                /* \"#utility.yul\":3911:3915   */\n              dup2\n                /* \"#utility.yul\":3907:3922   */\n              add\n                /* \"#utility.yul\":3899:3922   */\n              swap1\n              pop\n                /* \"#utility.yul\":3621:3929   */\n              swap2\n              swap1\n              pop\n              jump\t// out\n                /* \"#utility.yul\":3935:4089   */\n            tag_240:\n                /* \"#utility.yul\":4019:4025   */\n              dup3\n                /* \"#utility.yul\":4014:4017   */\n              dup2\n                /* \"#utility.yul\":4009:4012   */\n              dup4\n                /* \"#utility.yul\":3996:4026   */\n              calldatacopy\n                /* \"#utility.yul\":4081:4082   */\n              0x00\n                /* \"#utility.yul\":4072:4078   */\n              dup4\n                /* \"#utility.yul\":4067:4070   */\n              dup4\n                /* \"#utility.yul\":4063:4079   */\n              add\n                /* \"#utility.yul\":4056:4083   */\n              mstore\n                /* \"#utility.yul\":3935:4089   */\n              pop\n              pop\n              pop\n              jump\t// out\n                /* \"#utility.yul\":4095:4507   */\n            tag_241:\n                /* \"#utility.yul\":4173:4178   */\n              0x00\n                /* \"#utility.yul\":4198:4264   */\n              tag_299\n                /* \"#utility.yul\":4214:4263   */\n              tag_300\n                /* \"#utility.yul\":4256:4262   */\n              dup5\n                /* \"#utility.yul\":4214:4263   */\n              tag_239\n              jump\t// in\n            tag_300:\n                /* \"#utility.yul\":4198:4264   */\n              tag_238\n              jump\t// in\n            tag_299:\n                /* \"#utility.yul\":4189:4264   */\n              swap1\n              pop\n                /* \"#utility.yul\":4287:4293   */\n              dup3\n                /* \"#utility.yul\":4280:4285   */\n              dup2\n                /* \"#utility.yul\":4273:4294   */\n              mstore\n                /* \"#utility.yul\":4325:4329   */\n              0x20\n                /* \"#utility.yul\":4318:4323   */\n              dup2\n                /* \"#utility.yul\":4314:4330   */\n              add\n                /* \"#utility.yul\":4363:4366   */\n              dup5\n                /* \"#utility.yul\":4354:4360   */\n              dup5\n                /* \"#utility.yul\":4349:4352   */\n              dup5\n                /* \"#utility.yul\":4345:4361   */\n              add\n                /* \"#utility.yul\":4342:4367   */\n              gt\n                /* \"#utility.yul\":4339:4451   */\n              iszero\n              tag_301\n              jumpi\n                /* \"#utility.yul\":4370:4449   */\n              tag_302\n              tag_235\n              jump\t// in\n            tag_302:\n                /* \"#utility.yul\":4339:4451   */\n            tag_301:\n                /* \"#utility.yul\":4460:4501   */\n              tag_303\n                /* \"#utility.yul\":4494:4500   */\n              dup5\n                /* \"#utility.yul\":4489:4492   */\n              dup3\n                /* \"#utility.yul\":4484:4487   */\n              dup6\n                /* \"#utility.yul\":4460:4501   */\n              tag_240\n              jump\t// in\n            tag_303:\n                /* \"#utility.yul\":4179:4507   */\n              pop\n                /* \"#utility.yul\":4095:4507   */\n              swap4\n              swap3\n              pop\n              pop\n              pop\n              jump\t// out\n                /* \"#utility.yul\":4527:4867   */\n            tag_242:\n                /* \"#utility.yul\":4583:4588   */\n              0x00\n                /* \"#utility.yul\":4632:4635   */\n              dup3\n                /* \"#utility.yul\":4625:4629   */\n              0x1f\n                /* \"#utility.yul\":4617:4623   */\n              dup4\n                /* \"#utility.yul\":4613:4630   */\n              add\n                /* \"#utility.yul\":4609:4636   */\n              slt\n                /* \"#utility.yul\":4599:4721   */\n              tag_305\n              jumpi\n                /* \"#utility.yul\":4640:4719   */\n              tag_306\n              tag_234\n              jump\t// in\n            tag_306:\n                /* \"#utility.yul\":4599:4721   */\n            tag_305:\n                /* \"#utility.yul\":4757:4763   */\n              dup2\n                /* \"#utility.yul\":4744:4764   */\n              calldataload\n                /* \"#utility.yul\":4782:4861   */\n              tag_307\n                /* \"#utility.yul\":4857:4860   */\n              dup5\n                /* \"#utility.yul\":4849:4855   */\n              dup3\n                /* \"#utility.yul\":4842:4846   */\n              0x20\n                /* \"#utility.yul\":4834:4840   */\n              dup7\n                /* \"#utility.yul\":4830:4847   */\n              add\n                /* \"#utility.yul\":4782:4861   */\n              tag_241\n              jump\t// in\n            tag_307:\n                /* \"#utility.yul\":4773:4861   */\n              swap2\n              pop\n                /* \"#utility.yul\":4589:4867   */\n              pop\n                /* \"#utility.yul\":4527:4867   */\n              swap3\n              swap2\n              pop\n              pop\n              jump\t// out\n                /* \"#utility.yul\":4873:8642   */\n            tag_26:\n                /* \"#utility.yul\":5132:5138   */\n              0x00\n                /* \"#utility.yul\":5140:5146   */\n              dup1\n                /* \"#utility.yul\":5148:5154   */\n              0x00\n                /* \"#utility.yul\":5156:5162   */\n              dup1\n                /* \"#utility.yul\":5164:5170   */\n              0x00\n                /* \"#utility.yul\":5172:5178   */\n              dup1\n                /* \"#utility.yul\":5180:5186   */\n              0x00\n                /* \"#utility.yul\":5188:5194   */\n              dup1\n                /* \"#utility.yul\":5196:5202   */\n              0x00\n                /* \"#utility.yul\":5204:5210   */\n              dup1\n                /* \"#utility.yul\":5212:5219   */\n              0x00\n                /* \"#utility.yul\":5262:5265   */\n              0x0160\n                /* \"#utility.yul\":5250:5259   */\n              dup13\n                /* \"#utility.yul\":5241:5248   */\n              dup15\n                /* \"#utility.yul\":5237:5260   */\n              sub\n                /* \"#utility.yul\":5233:5266   */\n              slt\n                /* \"#utility.yul\":5230:5350   */\n              iszero\n              tag_309\n              jumpi\n                /* \"#utility.yul\":5269:5348   */\n              tag_310\n              tag_223\n              jump\t// in\n            tag_310:\n                /* \"#utility.yul\":5230:5350   */\n            tag_309:\n                /* \"#utility.yul\":5417:5418   */\n              0x00\n                /* \"#utility.yul\":5406:5415   */\n              dup13\n                /* \"#utility.yul\":5402:5419   */\n              add\n                /* \"#utility.yul\":5389:5420   */\n              calldataload\n                /* \"#utility.yul\":5447:5465   */\n              0xffffffffffffffff\n                /* \"#utility.yul\":5439:5445   */\n              dup2\n                /* \"#utility.yul\":5436:5466   */\n              gt\n                /* \"#utility.yul\":5433:5550   */\n              iszero\n              tag_311\n              jumpi\n                /* \"#utility.yul\":5469:5548   */\n              tag_312\n              tag_224\n              jump\t// in\n            tag_312:\n                /* \"#utility.yul\":5433:5550   */\n            tag_311:\n                /* \"#utility.yul\":5574:5637   */\n              tag_313\n                /* \"#utility.yul\":5629:5636   */\n              dup15\n                /* \"#utility.yul\":5620:5626   */\n              dup3\n                /* \"#utility.yul\":5609:5618   */\n              dup16\n                /* \"#utility.yul\":5605:5627   */\n              add\n                /* \"#utility.yul\":5574:5637   */\n              tag_242\n              jump\t// in\n            tag_313:\n                /* \"#utility.yul\":5564:5637   */\n              swap12\n              pop\n                /* \"#utility.yul\":5360:5647   */\n              pop\n                /* \"#utility.yul\":5714:5716   */\n              0x20\n                /* \"#utility.yul\":5703:5712   */\n              dup13\n                /* \"#utility.yul\":5699:5717   */\n              add\n                /* \"#utility.yul\":5686:5718   */\n              calldataload\n                /* \"#utility.yul\":5745:5763   */\n              0xffffffffffffffff\n                /* \"#utility.yul\":5737:5743   */\n              dup2\n                /* \"#utility.yul\":5734:5764   */\n              gt\n                /* \"#utility.yul\":5731:5848   */\n              iszero\n              tag_314\n              jumpi\n                /* \"#utility.yul\":5767:5846   */\n              tag_315\n              tag_224\n              jump\t// in\n            tag_315:\n                /* \"#utility.yul\":5731:5848   */\n            tag_314:\n                /* \"#utility.yul\":5872:5935   */\n              tag_316\n                /* \"#utility.yul\":5927:5934   */\n              dup15\n                /* \"#utility.yul\":5918:5924   */\n              dup3\n                /* \"#utility.yul\":5907:5916   */\n              dup16\n                /* \"#utility.yul\":5903:5925   */\n              add\n                /* \"#utility.yul\":5872:5935   */\n              tag_242\n              jump\t// in\n            tag_316:\n                /* \"#utility.yul\":5862:5935   */\n              swap11\n              pop\n                /* \"#utility.yul\":5657:5945   */\n              pop\n                /* \"#utility.yul\":6012:6014   */\n              0x40\n                /* \"#utility.yul\":6001:6010   */\n              dup13\n                /* \"#utility.yul\":5997:6015   */\n              add\n                /* \"#utility.yul\":5984:6016   */\n              calldataload\n                /* \"#utility.yul\":6043:6061   */\n              0xffffffffffffffff\n                /* \"#utility.yul\":6035:6041   */\n              dup2\n                /* \"#utility.yul\":6032:6062   */\n              gt\n                /* \"#utility.yul\":6029:6146   */\n              iszero\n              tag_317\n              jumpi\n                /* \"#utility.yul\":6065:6144   */\n              tag_318\n              tag_224\n              jump\t// in\n            tag_318:\n                /* \"#utility.yul\":6029:6146   */\n            tag_317:\n                /* \"#utility.yul\":6170:6233   */\n              tag_319\n                /* \"#utility.yul\":6225:6232   */\n              dup15\n                /* \"#utility.yul\":6216:6222   */\n              dup3\n                /* \"#utility.yul\":6205:6214   */\n              dup16\n                /* \"#utility.yul\":6201:6223   */\n              add\n                /* \"#utility.yul\":6170:6233   */\n              tag_242\n              jump\t// in\n            tag_319:\n                /* \"#utility.yul\":6160:6233   */\n              swap10\n              pop\n                /* \"#utility.yul\":5955:6243   */\n              pop\n                /* \"#utility.yul\":6310:6312   */\n              0x60\n                /* \"#utility.yul\":6299:6308   */\n              dup13\n                /* \"#utility.yul\":6295:6313   */\n              add\n                /* \"#utility.yul\":6282:6314   */\n              calldataload\n                /* \"#utility.yul\":6341:6359   */\n              0xffffffffffffffff\n                /* \"#utility.yul\":6333:6339   */\n              dup2\n                /* \"#utility.yul\":6330:6360   */\n              gt\n                /* \"#utility.yul\":6327:6444   */\n              iszero\n              tag_320\n              jumpi\n                /* \"#utility.yul\":6363:6442   */\n              tag_321\n              tag_224\n              jump\t// in\n            tag_321:\n                /* \"#utility.yul\":6327:6444   */\n            tag_320:\n                /* \"#utility.yul\":6468:6531   */\n              tag_322\n                /* \"#utility.yul\":6523:6530   */\n              dup15\n                /* \"#utility.yul\":6514:6520   */\n              dup3\n                /* \"#utility.yul\":6503:6512   */\n              dup16\n                /* \"#utility.yul\":6499:6521   */\n              add\n                /* \"#utility.yul\":6468:6531   */\n              tag_242\n              jump\t// in\n            tag_322:\n                /* \"#utility.yul\":6458:6531   */\n              swap9\n              pop\n                /* \"#utility.yul\":6253:6541   */\n              pop\n                /* \"#utility.yul\":6608:6611   */\n              0x80\n                /* \"#utility.yul\":6597:6606   */\n              dup13\n                /* \"#utility.yul\":6593:6612   */\n              add\n                /* \"#utility.yul\":6580:6613   */\n              calldataload\n                /* \"#utility.yul\":6640:6658   */\n              0xffffffffffffffff\n                /* \"#utility.yul\":6632:6638   */\n              dup2\n                /* \"#utility.yul\":6629:6659   */\n              gt\n                /* \"#utility.yul\":6626:6743   */\n              iszero\n              tag_323\n              jumpi\n                /* \"#utility.yul\":6662:6741   */\n              tag_324\n              tag_224\n              jump\t// in\n            tag_324:\n                /* \"#utility.yul\":6626:6743   */\n            tag_323:\n                /* \"#utility.yul\":6767:6830   */\n              tag_325\n                /* \"#utility.yul\":6822:6829   */\n              dup15\n                /* \"#utility.yul\":6813:6819   */\n              dup3\n                /* \"#utility.yul\":6802:6811   */\n              dup16\n                /* \"#utility.yul\":6798:6820   */\n              add\n                /* \"#utility.yul\":6767:6830   */\n              tag_242\n              jump\t// in\n            tag_325:\n                /* \"#utility.yul\":6757:6830   */\n              swap8\n              pop\n                /* \"#utility.yul\":6551:6840   */\n              pop\n                /* \"#utility.yul\":6907:6910   */\n              0xa0\n                /* \"#utility.yul\":6896:6905   */\n              dup13\n                /* \"#utility.yul\":6892:6911   */\n              add\n                /* \"#utility.yul\":6879:6912   */\n              calldataload\n                /* \"#utility.yul\":6939:6957   */\n              0xffffffffffffffff\n                /* \"#utility.yul\":6931:6937   */\n              dup2\n                /* \"#utility.yul\":6928:6958   */\n              gt\n                /* \"#utility.yul\":6925:7042   */\n              iszero\n              tag_326\n              jumpi\n                /* \"#utility.yul\":6961:7040   */\n              tag_327\n              tag_224\n              jump\t// in\n            tag_327:\n                /* \"#utility.yul\":6925:7042   */\n            tag_326:\n                /* \"#utility.yul\":7066:7129   */\n              tag_328\n                /* \"#utility.yul\":7121:7128   */\n              dup15\n                /* \"#utility.yul\":7112:7118   */\n              dup3\n                /* \"#utility.yul\":7101:7110   */\n              dup16\n                /* \"#utility.yul\":7097:7119   */\n              add\n                /* \"#utility.yul\":7066:7129   */\n              tag_242\n              jump\t// in\n            tag_328:\n                /* \"#utility.yul\":7056:7129   */\n              swap7\n              pop\n                /* \"#utility.yul\":6850:7139   */\n              pop\n                /* \"#utility.yul\":7206:7209   */\n              0xc0\n                /* \"#utility.yul\":7195:7204   */\n              dup13\n                /* \"#utility.yul\":7191:7210   */\n              add\n                /* \"#utility.yul\":7178:7211   */\n              calldataload\n                /* \"#utility.yul\":7238:7256   */\n              0xffffffffffffffff\n                /* \"#utility.yul\":7230:7236   */\n              dup2\n                /* \"#utility.yul\":7227:7257   */\n              gt\n                /* \"#utility.yul\":7224:7341   */\n              iszero\n              tag_329\n              jumpi\n                /* \"#utility.yul\":7260:7339   */\n              tag_330\n              tag_224\n              jump\t// in\n            tag_330:\n                /* \"#utility.yul\":7224:7341   */\n            tag_329:\n                /* \"#utility.yul\":7365:7428   */\n              tag_331\n                /* \"#utility.yul\":7420:7427   */\n              dup15\n                /* \"#utility.yul\":7411:7417   */\n              dup3\n                /* \"#utility.yul\":7400:7409   */\n              dup16\n                /* \"#utility.yul\":7396:7418   */\n              add\n                /* \"#utility.yul\":7365:7428   */\n              tag_242\n              jump\t// in\n            tag_331:\n                /* \"#utility.yul\":7355:7428   */\n              swap6\n              pop\n                /* \"#utility.yul\":7149:7438   */\n              pop\n                /* \"#utility.yul\":7505:7508   */\n              0xe0\n                /* \"#utility.yul\":7494:7503   */\n              dup13\n                /* \"#utility.yul\":7490:7509   */\n              add\n                /* \"#utility.yul\":7477:7510   */\n              calldataload\n                /* \"#utility.yul\":7537:7555   */\n              0xffffffffffffffff\n                /* \"#utility.yul\":7529:7535   */\n              dup2\n                /* \"#utility.yul\":7526:7556   */\n              gt\n                /* \"#utility.yul\":7523:7640   */\n              iszero\n              tag_332\n              jumpi\n                /* \"#utility.yul\":7559:7638   */\n              tag_333\n              tag_224\n              jump\t// in\n            tag_333:\n                /* \"#utility.yul\":7523:7640   */\n            tag_332:\n                /* \"#utility.yul\":7664:7727   */\n              tag_334\n                /* \"#utility.yul\":7719:7726   */\n              dup15\n                /* \"#utility.yul\":7710:7716   */\n              dup3\n                /* \"#utility.yul\":7699:7708   */\n              dup16\n                /* \"#utility.yul\":7695:7717   */\n              add\n                /* \"#utility.yul\":7664:7727   */\n              tag_242\n              jump\t// in\n            tag_334:\n                /* \"#utility.yul\":7654:7727   */\n              swap5\n              pop\n                /* \"#utility.yul\":7448:7737   */\n              pop\n                /* \"#utility.yul\":7804:7807   */\n              0x0100\n                /* \"#utility.yul\":7793:7802   */\n              dup13\n                /* \"#utility.yul\":7789:7808   */\n              add\n                /* \"#utility.yul\":7776:7809   */\n              calldataload\n                /* \"#utility.yul\":7836:7854   */\n              0xffffffffffffffff\n                /* \"#utility.yul\":7828:7834   */\n              dup2\n                /* \"#utility.yul\":7825:7855   */\n              gt\n                /* \"#utility.yul\":7822:7939   */\n              iszero\n              tag_335\n              jumpi\n                /* \"#utility.yul\":7858:7937   */\n              tag_336\n              tag_224\n              jump\t// in\n            tag_336:\n                /* \"#utility.yul\":7822:7939   */\n            tag_335:\n                /* \"#utility.yul\":7963:8026   */\n              tag_337\n                /* \"#utility.yul\":8018:8025   */\n              dup15\n                /* \"#utility.yul\":8009:8015   */\n              dup3\n                /* \"#utility.yul\":7998:8007   */\n              dup16\n                /* \"#utility.yul\":7994:8016   */\n              add\n                /* \"#utility.yul\":7963:8026   */\n              tag_242\n              jump\t// in\n            tag_337:\n                /* \"#utility.yul\":7953:8026   */\n              swap4\n              pop\n                /* \"#utility.yul\":7747:8036   */\n              pop\n                /* \"#utility.yul\":8103:8106   */\n              0x0120\n                /* \"#utility.yul\":8092:8101   */\n              dup13\n                /* \"#utility.yul\":8088:8107   */\n              add\n                /* \"#utility.yul\":8075:8108   */\n              calldataload\n                /* \"#utility.yul\":8135:8153   */\n              0xffffffffffffffff\n                /* \"#utility.yul\":8127:8133   */\n              dup2\n                /* \"#utility.yul\":8124:8154   */\n              gt\n                /* \"#utility.yul\":8121:8238   */\n              iszero\n              tag_338\n              jumpi\n                /* \"#utility.yul\":8157:8236   */\n              tag_339\n              tag_224\n              jump\t// in\n            tag_339:\n                /* \"#utility.yul\":8121:8238   */\n            tag_338:\n                /* \"#utility.yul\":8262:8325   */\n              tag_340\n                /* \"#utility.yul\":8317:8324   */\n              dup15\n                /* \"#utility.yul\":8308:8314   */\n              dup3\n                /* \"#utility.yul\":8297:8306   */\n              dup16\n                /* \"#utility.yul\":8293:8315   */\n              add\n                /* \"#utility.yul\":8262:8325   */\n              tag_242\n              jump\t// in\n            tag_340:\n                /* \"#utility.yul\":8252:8325   */\n              swap3\n              pop\n                /* \"#utility.yul\":8046:8335   */\n              pop\n                /* \"#utility.yul\":8402:8405   */\n              0x0140\n                /* \"#utility.yul\":8391:8400   */\n              dup13\n                /* \"#utility.yul\":8387:8406   */\n              add\n                /* \"#utility.yul\":8374:8407   */\n              calldataload\n                /* \"#utility.yul\":8434:8452   */\n              0xffffffffffffffff\n                /* \"#utility.yul\":8426:8432   */\n              dup2\n                /* \"#utility.yul\":8423:8453   */\n              gt\n                /* \"#utility.yul\":8420:8537   */\n              iszero\n              tag_341\n              jumpi\n                /* \"#utility.yul\":8456:8535   */\n              tag_342\n              tag_224\n              jump\t// in\n            tag_342:\n                /* \"#utility.yul\":8420:8537   */\n            tag_341:\n                /* \"#utility.yul\":8562:8625   */\n              tag_343\n                /* \"#utility.yul\":8617:8624   */\n              dup15\n                /* \"#utility.yul\":8608:8614   */\n              dup3\n                /* \"#utility.yul\":8597:8606   */\n              dup16\n                /* \"#utility.yul\":8593:8615   */\n              add\n                /* \"#utility.yul\":8562:8625   */\n              tag_242\n              jump\t// in\n            tag_343:\n                /* \"#utility.yul\":8551:8625   */\n              swap2\n              pop\n                /* \"#utility.yul\":8345:8635   */\n              pop\n                /* \"#utility.yul\":4873:8642   */\n              swap3\n              swap6\n              swap9\n              swap12\n              pop\n              swap3\n              swap6\n              swap9\n              swap12\n              swap1\n              swap4\n              swap7\n              swap10\n              pop\n              jump\t// out\n                /* \"#utility.yul\":8648:8766   */\n            tag_243:\n                /* \"#utility.yul\":8735:8759   */\n              tag_345\n                /* \"#utility.yul\":8753:8758   */\n              dup2\n                /* \"#utility.yul\":8735:8759   */\n              tag_226\n              jump\t// in\n            tag_345:\n                /* \"#utility.yul\":8730:8733   */\n              dup3\n                /* \"#utility.yul\":8723:8760   */\n              mstore\n                /* \"#utility.yul\":8648:8766   */\n              pop\n              pop\n              jump\t// out\n                /* \"#utility.yul\":8772:8994   */\n            tag_31:\n                /* \"#utility.yul\":8865:8869   */\n              0x00\n                /* \"#utility.yul\":8903:8905   */\n              0x20\n                /* \"#utility.yul\":8892:8901   */\n              dup3\n                /* \"#utility.yul\":8888:8906   */\n              add\n                /* \"#utility.yul\":8880:8906   */\n              swap1\n              pop\n                /* \"#utility.yul\":8916:8987   */\n              tag_347\n                /* \"#utility.yul\":8984:8985   */\n              0x00\n                /* \"#utility.yul\":8973:8982   */\n              dup4\n                /* \"#utility.yul\":8969:8986   */\n              add\n                /* \"#utility.yul\":8960:8966   */\n              dup5\n                /* \"#utility.yul\":8916:8987   */\n              tag_243\n              jump\t// in\n            tag_347:\n                /* \"#utility.yul\":8772:8994   */\n              swap3\n              swap2\n              pop\n              pop\n              jump\t// out\n                /* \"#utility.yul\":9000:9159   */\n            tag_244:\n                /* \"#utility.yul\":9074:9085   */\n              0x00\n                /* \"#utility.yul\":9108:9114   */\n              dup3\n                /* \"#utility.yul\":9103:9106   */\n              dup3\n                /* \"#utility.yul\":9096:9115   */\n              mstore\n                /* \"#utility.yul\":9148:9152   */\n              0x20\n                /* \"#utility.yul\":9143:9146   */\n              dup3\n                /* \"#utility.yul\":9139:9153   */\n              add\n                /* \"#utility.yul\":9124:9153   */\n              swap1\n              pop\n                /* \"#utility.yul\":9000:9159   */\n              swap3\n              swap2\n              pop\n              pop\n              jump\t// out\n                /* \"#utility.yul\":9165:9509   */\n            tag_245:\n                /* \"#utility.yul\":9243:9246   */\n              0x00\n                /* \"#utility.yul\":9271:9310   */\n              tag_350\n                /* \"#utility.yul\":9304:9309   */\n              dup3\n                /* \"#utility.yul\":9271:9310   */\n              tag_229\n              jump\t// in\n            tag_350:\n                /* \"#utility.yul\":9326:9387   */\n              tag_351\n                /* \"#utility.yul\":9380:9386   */\n              dup2\n                /* \"#utility.yul\":9375:9378   */\n              dup6\n                /* \"#utility.yul\":9326:9387   */\n              tag_244\n              jump\t// in\n            tag_351:\n                /* \"#utility.yul\":9319:9387   */\n              swap4\n              pop\n                /* \"#utility.yul\":9396:9448   */\n              tag_352\n                /* \"#utility.yul\":9441:9447   */\n              dup2\n                /* \"#utility.yul\":9436:9439   */\n              dup6\n                /* \"#utility.yul\":9429:9433   */\n              0x20\n                /* \"#utility.yul\":9422:9427   */\n              dup7\n                /* \"#utility.yul\":9418:9434   */\n              add\n                /* \"#utility.yul\":9396:9448   */\n              tag_231\n              jump\t// in\n            tag_352:\n                /* \"#utility.yul\":9473:9502   */\n              tag_353\n                /* \"#utility.yul\":9495:9501   */\n              dup2\n                /* \"#utility.yul\":9473:9502   */\n              tag_232\n              jump\t// in\n            tag_353:\n                /* \"#utility.yul\":9468:9471   */\n              dup5\n                /* \"#utility.yul\":9464:9503   */\n              add\n                /* \"#utility.yul\":9457:9503   */\n              swap2\n              pop\n                /* \"#utility.yul\":9247:9509   */\n              pop\n                /* \"#utility.yul\":9165:9509   */\n              swap3\n              swap2\n              pop\n              pop\n              jump\t// out\n                /* \"#utility.yul\":9515:9623   */\n            tag_246:\n                /* \"#utility.yul\":9592:9616   */\n              tag_355\n                /* \"#utility.yul\":9610:9615   */\n              dup2\n                /* \"#utility.yul\":9592:9616   */\n              tag_226\n              jump\t// in\n            tag_355:\n                /* \"#utility.yul\":9587:9590   */\n              dup3\n                /* \"#utility.yul\":9580:9617   */\n              mstore\n                /* \"#utility.yul\":9515:9623   */\n              pop\n              pop\n              jump\t// out\n                /* \"#utility.yul\":9629:9719   */\n            tag_247:\n                /* \"#utility.yul\":9663:9670   */\n              0x00\n                /* \"#utility.yul\":9706:9711   */\n              dup2\n                /* \"#utility.yul\":9699:9712   */\n              iszero\n                /* \"#utility.yul\":9692:9713   */\n              iszero\n                /* \"#utility.yul\":9681:9713   */\n              swap1\n              pop\n                /* \"#utility.yul\":9629:9719   */\n              swap2\n              swap1\n              pop\n              jump\t// out\n                /* \"#utility.yul\":9725:9824   */\n            tag_248:\n                /* \"#utility.yul\":9796:9817   */\n              tag_358\n                /* \"#utility.yul\":9811:9816   */\n              dup2\n                /* \"#utility.yul\":9796:9817   */\n              tag_247\n              jump\t// in\n            tag_358:\n                /* \"#utility.yul\":9791:9794   */\n              dup3\n                /* \"#utility.yul\":9784:9818   */\n              mstore\n                /* \"#utility.yul\":9725:9824   */\n              pop\n              pop\n              jump\t// out\n                /* \"#utility.yul\":9886:10919   */\n            tag_249:\n                /* \"#utility.yul\":10003:10006   */\n              0x00\n                /* \"#utility.yul\":10039:10043   */\n              0x80\n                /* \"#utility.yul\":10034:10037   */\n              dup4\n                /* \"#utility.yul\":10030:10044   */\n              add\n                /* \"#utility.yul\":10133:10137   */\n              0x00\n                /* \"#utility.yul\":10126:10131   */\n              dup4\n                /* \"#utility.yul\":10122:10138   */\n              add\n                /* \"#utility.yul\":10116:10139   */\n              mload\n                /* \"#utility.yul\":10186:10189   */\n              dup5\n                /* \"#utility.yul\":10180:10184   */\n              dup3\n                /* \"#utility.yul\":10176:10190   */\n              sub\n                /* \"#utility.yul\":10169:10173   */\n              0x00\n                /* \"#utility.yul\":10164:10167   */\n              dup7\n                /* \"#utility.yul\":10160:10174   */\n              add\n                /* \"#utility.yul\":10153:10191   */\n              mstore\n                /* \"#utility.yul\":10212:10285   */\n              tag_360\n                /* \"#utility.yul\":10280:10284   */\n              dup3\n                /* \"#utility.yul\":10266:10278   */\n              dup3\n                /* \"#utility.yul\":10212:10285   */\n              tag_245\n              jump\t// in\n            tag_360:\n                /* \"#utility.yul\":10204:10285   */\n              swap2\n              pop\n                /* \"#utility.yul\":10054:10296   */\n              pop\n                /* \"#utility.yul\":10378:10382   */\n              0x20\n                /* \"#utility.yul\":10371:10376   */\n              dup4\n                /* \"#utility.yul\":10367:10383   */\n              add\n                /* \"#utility.yul\":10361:10384   */\n              mload\n                /* \"#utility.yul\":10431:10434   */\n              dup5\n                /* \"#utility.yul\":10425:10429   */\n              dup3\n                /* \"#utility.yul\":10421:10435   */\n              sub\n                /* \"#utility.yul\":10414:10418   */\n              0x20\n                /* \"#utility.yul\":10409:10412   */\n              dup7\n                /* \"#utility.yul\":10405:10419   */\n              add\n                /* \"#utility.yul\":10398:10436   */\n              mstore\n                /* \"#utility.yul\":10457:10530   */\n              tag_361\n                /* \"#utility.yul\":10525:10529   */\n              dup3\n                /* \"#utility.yul\":10511:10523   */\n              dup3\n                /* \"#utility.yul\":10457:10530   */\n              tag_245\n              jump\t// in\n            tag_361:\n                /* \"#utility.yul\":10449:10530   */\n              swap2\n              pop\n                /* \"#utility.yul\":10306:10541   */\n              pop\n                /* \"#utility.yul\":10628:10632   */\n              0x40\n                /* \"#utility.yul\":10621:10626   */\n              dup4\n                /* \"#utility.yul\":10617:10633   */\n              add\n                /* \"#utility.yul\":10611:10634   */\n              mload\n                /* \"#utility.yul\":10647:10710   */\n              tag_362\n                /* \"#utility.yul\":10704:10708   */\n              0x40\n                /* \"#utility.yul\":10699:10702   */\n              dup7\n                /* \"#utility.yul\":10695:10709   */\n              add\n                /* \"#utility.yul\":10681:10693   */\n              dup3\n                /* \"#utility.yul\":10647:10710   */\n              tag_246\n              jump\t// in\n            tag_362:\n                /* \"#utility.yul\":10551:10720   */\n              pop\n                /* \"#utility.yul\":10806:10810   */\n              0x60\n                /* \"#utility.yul\":10799:10804   */\n              dup4\n                /* \"#utility.yul\":10795:10811   */\n              add\n                /* \"#utility.yul\":10789:10812   */\n              mload\n                /* \"#utility.yul\":10825:10882   */\n              tag_363\n                /* \"#utility.yul\":10876:10880   */\n              0x60\n                /* \"#utility.yul\":10871:10874   */\n              dup7\n                /* \"#utility.yul\":10867:10881   */\n              add\n                /* \"#utility.yul\":10853:10865   */\n              dup3\n                /* \"#utility.yul\":10825:10882   */\n              tag_248\n              jump\t// in\n            tag_363:\n                /* \"#utility.yul\":10730:10892   */\n              pop\n                /* \"#utility.yul\":10909:10913   */\n              dup1\n                /* \"#utility.yul\":10902:10913   */\n              swap2\n              pop\n                /* \"#utility.yul\":10008:10919   */\n              pop\n                /* \"#utility.yul\":9886:10919   */\n              swap3\n              swap2\n              pop\n              pop\n              jump\t// out\n                /* \"#utility.yul\":10925:11294   */\n            tag_42:\n                /* \"#utility.yul\":11066:11070   */\n              0x00\n                /* \"#utility.yul\":11104:11106   */\n              0x20\n                /* \"#utility.yul\":11093:11102   */\n              dup3\n                /* \"#utility.yul\":11089:11107   */\n              add\n                /* \"#utility.yul\":11081:11107   */\n              swap1\n              pop\n                /* \"#utility.yul\":11153:11162   */\n              dup2\n                /* \"#utility.yul\":11147:11151   */\n              dup2\n                /* \"#utility.yul\":11143:11163   */\n              sub\n                /* \"#utility.yul\":11139:11140   */\n              0x00\n                /* \"#utility.yul\":11128:11137   */\n              dup4\n                /* \"#utility.yul\":11124:11141   */\n              add\n                /* \"#utility.yul\":11117:11164   */\n              mstore\n                /* \"#utility.yul\":11181:11287   */\n              tag_365\n                /* \"#utility.yul\":11282:11286   */\n              dup2\n                /* \"#utility.yul\":11273:11279   */\n              dup5\n                /* \"#utility.yul\":11181:11287   */\n              tag_249\n              jump\t// in\n            tag_365:\n                /* \"#utility.yul\":11173:11287   */\n              swap1\n              pop\n                /* \"#utility.yul\":10925:11294   */\n              swap3\n              swap2\n              pop\n              pop\n              jump\t// out\n                /* \"#utility.yul\":11300:13227   */\n            tag_47:\n                /* \"#utility.yul\":11797:11801   */\n              0x00\n                /* \"#utility.yul\":11835:11838   */\n              0x0120\n                /* \"#utility.yul\":11824:11833   */\n              dup3\n                /* \"#utility.yul\":11820:11839   */\n              add\n                /* \"#utility.yul\":11812:11839   */\n              swap1\n              pop\n                /* \"#utility.yul\":11885:11894   */\n              dup2\n                /* \"#utility.yul\":11879:11883   */\n              dup2\n                /* \"#utility.yul\":11875:11895   */\n              sub\n                /* \"#utility.yul\":11871:11872   */\n              0x00\n                /* \"#utility.yul\":11860:11869   */\n              dup4\n                /* \"#utility.yul\":11856:11873   */\n              add\n                /* \"#utility.yul\":11849:11896   */\n              mstore\n                /* \"#utility.yul\":11913:11991   */\n              tag_367\n                /* \"#utility.yul\":11986:11990   */\n              dup2\n                /* \"#utility.yul\":11977:11983   */\n              dup13\n                /* \"#utility.yul\":11913:11991   */\n              tag_233\n              jump\t// in\n            tag_367:\n                /* \"#utility.yul\":11905:11991   */\n              swap1\n              pop\n                /* \"#utility.yul\":12038:12047   */\n              dup2\n                /* \"#utility.yul\":12032:12036   */\n              dup2\n                /* \"#utility.yul\":12028:12048   */\n              sub\n                /* \"#utility.yul\":12023:12025   */\n              0x20\n                /* \"#utility.yul\":12012:12021   */\n              dup4\n                /* \"#utility.yul\":12008:12026   */\n              add\n                /* \"#utility.yul\":12001:12049   */\n              mstore\n                /* \"#utility.yul\":12066:12144   */\n              tag_368\n                /* \"#utility.yul\":12139:12143   */\n              dup2\n                /* \"#utility.yul\":12130:12136   */\n              dup12\n                /* \"#utility.yul\":12066:12144   */\n              tag_233\n              jump\t// in\n            tag_368:\n                /* \"#utility.yul\":12058:12144   */\n              swap1\n              pop\n                /* \"#utility.yul\":12191:12200   */\n              dup2\n                /* \"#utility.yul\":12185:12189   */\n              dup2\n                /* \"#utility.yul\":12181:12201   */\n              sub\n                /* \"#utility.yul\":12176:12178   */\n              0x40\n                /* \"#utility.yul\":12165:12174   */\n              dup4\n                /* \"#utility.yul\":12161:12179   */\n              add\n                /* \"#utility.yul\":12154:12202   */\n              mstore\n                /* \"#utility.yul\":12219:12297   */\n              tag_369\n                /* \"#utility.yul\":12292:12296   */\n              dup2\n                /* \"#utility.yul\":12283:12289   */\n              dup11\n                /* \"#utility.yul\":12219:12297   */\n              tag_233\n              jump\t// in\n            tag_369:\n                /* \"#utility.yul\":12211:12297   */\n              swap1\n              pop\n                /* \"#utility.yul\":12344:12353   */\n              dup2\n                /* \"#utility.yul\":12338:12342   */\n              dup2\n                /* \"#utility.yul\":12334:12354   */\n              sub\n                /* \"#utility.yul\":12329:12331   */\n              0x60\n                /* \"#utility.yul\":12318:12327   */\n              dup4\n                /* \"#utility.yul\":12314:12332   */\n              add\n                /* \"#utility.yul\":12307:12355   */\n              mstore\n                /* \"#utility.yul\":12372:12450   */\n              tag_370\n                /* \"#utility.yul\":12445:12449   */\n              dup2\n                /* \"#utility.yul\":12436:12442   */\n              dup10\n                /* \"#utility.yul\":12372:12450   */\n              tag_233\n              jump\t// in\n            tag_370:\n                /* \"#utility.yul\":12364:12450   */\n              swap1\n              pop\n                /* \"#utility.yul\":12498:12507   */\n              dup2\n                /* \"#utility.yul\":12492:12496   */\n              dup2\n                /* \"#utility.yul\":12488:12508   */\n              sub\n                /* \"#utility.yul\":12482:12485   */\n              0x80\n                /* \"#utility.yul\":12471:12480   */\n              dup4\n                /* \"#utility.yul\":12467:12486   */\n              add\n                /* \"#utility.yul\":12460:12509   */\n              mstore\n                /* \"#utility.yul\":12526:12604   */\n              tag_371\n                /* \"#utility.yul\":12599:12603   */\n              dup2\n                /* \"#utility.yul\":12590:12596   */\n              dup9\n                /* \"#utility.yul\":12526:12604   */\n              tag_233\n              jump\t// in\n            tag_371:\n                /* \"#utility.yul\":12518:12604   */\n              swap1\n              pop\n                /* \"#utility.yul\":12652:12661   */\n              dup2\n                /* \"#utility.yul\":12646:12650   */\n              dup2\n                /* \"#utility.yul\":12642:12662   */\n              sub\n                /* \"#utility.yul\":12636:12639   */\n              0xa0\n                /* \"#utility.yul\":12625:12634   */\n              dup4\n                /* \"#utility.yul\":12621:12640   */\n              add\n                /* \"#utility.yul\":12614:12663   */\n              mstore\n                /* \"#utility.yul\":12680:12758   */\n              tag_372\n                /* \"#utility.yul\":12753:12757   */\n              dup2\n                /* \"#utility.yul\":12744:12750   */\n              dup8\n                /* \"#utility.yul\":12680:12758   */\n              tag_233\n              jump\t// in\n            tag_372:\n                /* \"#utility.yul\":12672:12758   */\n              swap1\n              pop\n                /* \"#utility.yul\":12806:12815   */\n              dup2\n                /* \"#utility.yul\":12800:12804   */\n              dup2\n                /* \"#utility.yul\":12796:12816   */\n              sub\n                /* \"#utility.yul\":12790:12793   */\n              0xc0\n                /* \"#utility.yul\":12779:12788   */\n              dup4\n                /* \"#utility.yul\":12775:12794   */\n              add\n                /* \"#utility.yul\":12768:12817   */\n              mstore\n                /* \"#utility.yul\":12834:12912   */\n              tag_373\n                /* \"#utility.yul\":12907:12911   */\n              dup2\n                /* \"#utility.yul\":12898:12904   */\n              dup7\n                /* \"#utility.yul\":12834:12912   */\n              tag_233\n              jump\t// in\n            tag_373:\n                /* \"#utility.yul\":12826:12912   */\n              swap1\n              pop\n                /* \"#utility.yul\":12960:12969   */\n              dup2\n                /* \"#utility.yul\":12954:12958   */\n              dup2\n                /* \"#utility.yul\":12950:12970   */\n              sub\n                /* \"#utility.yul\":12944:12947   */\n              0xe0\n                /* \"#utility.yul\":12933:12942   */\n              dup4\n                /* \"#utility.yul\":12929:12948   */\n              add\n                /* \"#utility.yul\":12922:12971   */\n              mstore\n                /* \"#utility.yul\":12988:13066   */\n              tag_374\n                /* \"#utility.yul\":13061:13065   */\n              dup2\n                /* \"#utility.yul\":13052:13058   */\n              dup6\n                /* \"#utility.yul\":12988:13066   */\n              tag_233\n              jump\t// in\n            tag_374:\n                /* \"#utility.yul\":12980:13066   */\n              swap1\n              pop\n                /* \"#utility.yul\":13114:13123   */\n              dup2\n                /* \"#utility.yul\":13108:13112   */\n              dup2\n                /* \"#utility.yul\":13104:13124   */\n              sub\n                /* \"#utility.yul\":13098:13101   */\n              0x0100\n                /* \"#utility.yul\":13087:13096   */\n              dup4\n                /* \"#utility.yul\":13083:13102   */\n              add\n                /* \"#utility.yul\":13076:13125   */\n              mstore\n                /* \"#utility.yul\":13142:13220   */\n              tag_375\n                /* \"#utility.yul\":13215:13219   */\n              dup2\n                /* \"#utility.yul\":13206:13212   */\n              dup5\n                /* \"#utility.yul\":13142:13220   */\n              tag_233\n              jump\t// in\n            tag_375:\n                /* \"#utility.yul\":13134:13220   */\n              swap1\n              pop\n                /* \"#utility.yul\":11300:13227   */\n              swap11\n              swap10\n              pop\n              pop\n              pop\n              pop\n              pop\n              pop\n              pop\n              pop\n              pop\n              pop\n              jump\t// out\n                /* \"#utility.yul\":13233:14067   */\n            tag_50:\n                /* \"#utility.yul\":13321:13327   */\n              0x00\n                /* \"#utility.yul\":13329:13335   */\n              dup1\n                /* \"#utility.yul\":13378:13380   */\n              0x40\n                /* \"#utility.yul\":13366:13375   */\n              dup4\n                /* \"#utility.yul\":13357:13364   */\n              dup6\n                /* \"#utility.yul\":13353:13376   */\n              sub\n                /* \"#utility.yul\":13349:13381   */\n              slt\n                /* \"#utility.yul\":13346:13465   */\n              iszero\n              tag_377\n              jumpi\n                /* \"#utility.yul\":13384:13463   */\n              tag_378\n              tag_223\n              jump\t// in\n            tag_378:\n                /* \"#utility.yul\":13346:13465   */\n            tag_377:\n                /* \"#utility.yul\":13532:13533   */\n              0x00\n                /* \"#utility.yul\":13521:13530   */\n              dup4\n                /* \"#utility.yul\":13517:13534   */\n              add\n                /* \"#utility.yul\":13504:13535   */\n              calldataload\n                /* \"#utility.yul\":13562:13580   */\n              0xffffffffffffffff\n                /* \"#utility.yul\":13554:13560   */\n              dup2\n                /* \"#utility.yul\":13551:13581   */\n              gt\n                /* \"#utility.yul\":13548:13665   */\n              iszero\n              tag_379\n              jumpi\n                /* \"#utility.yul\":13584:13663   */\n              tag_380\n              tag_224\n              jump\t// in\n            tag_380:\n                /* \"#utility.yul\":13548:13665   */\n            tag_379:\n                /* \"#utility.yul\":13689:13752   */\n              tag_381\n                /* \"#utility.yul\":13744:13751   */\n              dup6\n                /* \"#utility.yul\":13735:13741   */\n              dup3\n                /* \"#utility.yul\":13724:13733   */\n              dup7\n                /* \"#utility.yul\":13720:13742   */\n              add\n                /* \"#utility.yul\":13689:13752   */\n              tag_242\n              jump\t// in\n            tag_381:\n                /* \"#utility.yul\":13679:13752   */\n              swap3\n              pop\n                /* \"#utility.yul\":13475:13762   */\n              pop\n                /* \"#utility.yul\":13829:13831   */\n              0x20\n                /* \"#utility.yul\":13818:13827   */\n              dup4\n                /* \"#utility.yul\":13814:13832   */\n              add\n                /* \"#utility.yul\":13801:13833   */\n              calldataload\n                /* \"#utility.yul\":13860:13878   */\n              0xffffffffffffffff\n                /* \"#utility.yul\":13852:13858   */\n              dup2\n                /* \"#utility.yul\":13849:13879   */\n              gt\n                /* \"#utility.yul\":13846:13963   */\n              iszero\n              tag_382\n              jumpi\n                /* \"#utility.yul\":13882:13961   */\n              tag_383\n              tag_224\n              jump\t// in\n            tag_383:\n                /* \"#utility.yul\":13846:13963   */\n            tag_382:\n                /* \"#utility.yul\":13987:14050   */\n              tag_384\n                /* \"#utility.yul\":14042:14049   */\n              dup6\n                /* \"#utility.yul\":14033:14039   */\n              dup3\n                /* \"#utility.yul\":14022:14031   */\n              dup7\n                /* \"#utility.yul\":14018:14040   */\n              add\n                /* \"#utility.yul\":13987:14050   */\n              tag_242\n              jump\t// in\n            tag_384:\n                /* \"#utility.yul\":13977:14050   */\n              swap2\n              pop\n                /* \"#utility.yul\":13772:14060   */\n              pop\n                /* \"#utility.yul\":13233:14067   */\n              swap3\n              pop\n              swap3\n              swap1\n              pop\n              jump\t// out\n                /* \"#utility.yul\":14073:15596   */\n            tag_59:\n                /* \"#utility.yul\":14474:14478   */\n              0x00\n                /* \"#utility.yul\":14512:14515   */\n              0xe0\n                /* \"#utility.yul\":14501:14510   */\n              dup3\n                /* \"#utility.yul\":14497:14516   */\n              add\n                /* \"#utility.yul\":14489:14516   */\n              swap1\n              pop\n                /* \"#utility.yul\":14562:14571   */\n              dup2\n                /* \"#utility.yul\":14556:14560   */\n              dup2\n                /* \"#utility.yul\":14552:14572   */\n              sub\n                /* \"#utility.yul\":14548:14549   */\n              0x00\n                /* \"#utility.yul\":14537:14546   */\n              dup4\n                /* \"#utility.yul\":14533:14550   */\n              add\n                /* \"#utility.yul\":14526:14573   */\n              mstore\n                /* \"#utility.yul\":14590:14668   */\n              tag_386\n                /* \"#utility.yul\":14663:14667   */\n              dup2\n                /* \"#utility.yul\":14654:14660   */\n              dup11\n                /* \"#utility.yul\":14590:14668   */\n              tag_233\n              jump\t// in\n            tag_386:\n                /* \"#utility.yul\":14582:14668   */\n              swap1\n              pop\n                /* \"#utility.yul\":14715:14724   */\n              dup2\n                /* \"#utility.yul\":14709:14713   */\n              dup2\n                /* \"#utility.yul\":14705:14725   */\n              sub\n                /* \"#utility.yul\":14700:14702   */\n              0x20\n                /* \"#utility.yul\":14689:14698   */\n              dup4\n                /* \"#utility.yul\":14685:14703   */\n              add\n                /* \"#utility.yul\":14678:14726   */\n              mstore\n                /* \"#utility.yul\":14743:14821   */\n              tag_387\n                /* \"#utility.yul\":14816:14820   */\n              dup2\n                /* \"#utility.yul\":14807:14813   */\n              dup10\n                /* \"#utility.yul\":14743:14821   */\n              tag_233\n              jump\t// in\n            tag_387:\n                /* \"#utility.yul\":14735:14821   */\n              swap1\n              pop\n                /* \"#utility.yul\":14868:14877   */\n              dup2\n                /* \"#utility.yul\":14862:14866   */\n              dup2\n                /* \"#utility.yul\":14858:14878   */\n              sub\n                /* \"#utility.yul\":14853:14855   */\n              0x40\n                /* \"#utility.yul\":14842:14851   */\n              dup4\n                /* \"#utility.yul\":14838:14856   */\n              add\n                /* \"#utility.yul\":14831:14879   */\n              mstore\n                /* \"#utility.yul\":14896:14974   */\n              tag_388\n                /* \"#utility.yul\":14969:14973   */\n              dup2\n                /* \"#utility.yul\":14960:14966   */\n              dup9\n                /* \"#utility.yul\":14896:14974   */\n              tag_233\n              jump\t// in\n            tag_388:\n                /* \"#utility.yul\":14888:14974   */\n              swap1\n              pop\n                /* \"#utility.yul\":15021:15030   */\n              dup2\n                /* \"#utility.yul\":15015:15019   */\n              dup2\n                /* \"#utility.yul\":15011:15031   */\n              sub\n                /* \"#utility.yul\":15006:15008   */\n              0x60\n                /* \"#utility.yul\":14995:15004   */\n              dup4\n                /* \"#utility.yul\":14991:15009   */\n              add\n                /* \"#utility.yul\":14984:15032   */\n              mstore\n                /* \"#utility.yul\":15049:15127   */\n              tag_389\n                /* \"#utility.yul\":15122:15126   */\n              dup2\n                /* \"#utility.yul\":15113:15119   */\n              dup8\n                /* \"#utility.yul\":15049:15127   */\n              tag_233\n              jump\t// in\n            tag_389:\n                /* \"#utility.yul\":15041:15127   */\n              swap1\n              pop\n                /* \"#utility.yul\":15175:15184   */\n              dup2\n                /* \"#utility.yul\":15169:15173   */\n              dup2\n                /* \"#utility.yul\":15165:15185   */\n              sub\n                /* \"#utility.yul\":15159:15162   */\n              0x80\n                /* \"#utility.yul\":15148:15157   */\n              dup4\n                /* \"#utility.yul\":15144:15163   */\n              add\n                /* \"#utility.yul\":15137:15186   */\n              mstore\n                /* \"#utility.yul\":15203:15281   */\n              tag_390\n                /* \"#utility.yul\":15276:15280   */\n              dup2\n                /* \"#utility.yul\":15267:15273   */\n              dup7\n                /* \"#utility.yul\":15203:15281   */\n              tag_233\n              jump\t// in\n            tag_390:\n                /* \"#utility.yul\":15195:15281   */\n              swap1\n              pop\n                /* \"#utility.yul\":15329:15338   */\n              dup2\n                /* \"#utility.yul\":15323:15327   */\n              dup2\n                /* \"#utility.yul\":15319:15339   */\n              sub\n                /* \"#utility.yul\":15313:15316   */\n              0xa0\n                /* \"#utility.yul\":15302:15311   */\n              dup4\n                /* \"#utility.yul\":15298:15317   */\n              add\n                /* \"#utility.yul\":15291:15340   */\n              mstore\n                /* \"#utility.yul\":15357:15435   */\n              tag_391\n                /* \"#utility.yul\":15430:15434   */\n              dup2\n                /* \"#utility.yul\":15421:15427   */\n              dup6\n                /* \"#utility.yul\":15357:15435   */\n              tag_233\n              jump\t// in\n            tag_391:\n                /* \"#utility.yul\":15349:15435   */\n              swap1\n              pop\n                /* \"#utility.yul\":15483:15492   */\n              dup2\n                /* \"#utility.yul\":15477:15481   */\n              dup2\n                /* \"#utility.yul\":15473:15493   */\n              sub\n                /* \"#utility.yul\":15467:15470   */\n              0xc0\n                /* \"#utility.yul\":15456:15465   */\n              dup4\n                /* \"#utility.yul\":15452:15471   */\n              add\n                /* \"#utility.yul\":15445:15494   */\n              mstore\n                /* \"#utility.yul\":15511:15589   */\n              tag_392\n                /* \"#utility.yul\":15584:15588   */\n              dup2\n                /* \"#utility.yul\":15575:15581   */\n              dup5\n                /* \"#utility.yul\":15511:15589   */\n              tag_233\n              jump\t// in\n            tag_392:\n                /* \"#utility.yul\":15503:15589   */\n              swap1\n              pop\n                /* \"#utility.yul\":14073:15596   */\n              swap9\n              swap8\n              pop\n              pop\n              pop\n              pop\n              pop\n              pop\n              pop\n              pop\n              jump\t// out\n                /* \"#utility.yul\":15602:15782   */\n            tag_250:\n                /* \"#utility.yul\":15650:15727   */\n              0x4e487b7100000000000000000000000000000000000000000000000000000000\n                /* \"#utility.yul\":15647:15648   */\n              0x00\n                /* \"#utility.yul\":15640:15728   */\n              mstore\n                /* \"#utility.yul\":15747:15751   */\n              0x22\n                /* \"#utility.yul\":15744:15745   */\n              0x04\n                /* \"#utility.yul\":15737:15752   */\n              mstore\n                /* \"#utility.yul\":15771:15775   */\n              0x24\n                /* \"#utility.yul\":15768:15769   */\n              0x00\n                /* \"#utility.yul\":15761:15776   */\n              revert\n                /* \"#utility.yul\":15788:16108   */\n            tag_67:\n                /* \"#utility.yul\":15832:15838   */\n              0x00\n                /* \"#utility.yul\":15869:15870   */\n              0x02\n                /* \"#utility.yul\":15863:15867   */\n              dup3\n                /* \"#utility.yul\":15859:15871   */\n              div\n                /* \"#utility.yul\":15849:15871   */\n              swap1\n              pop\n                /* \"#utility.yul\":15916:15917   */\n              0x01\n                /* \"#utility.yul\":15910:15914   */\n              dup3\n                /* \"#utility.yul\":15906:15918   */\n              and\n                /* \"#utility.yul\":15937:15955   */\n              dup1\n                /* \"#utility.yul\":15927:16008   */\n              tag_395\n              jumpi\n                /* \"#utility.yul\":15993:15997   */\n              0x7f\n                /* \"#utility.yul\":15985:15991   */\n              dup3\n                /* \"#utility.yul\":15981:15998   */\n              and\n                /* \"#utility.yul\":15971:15998   */\n              swap2\n              pop\n                /* \"#utility.yul\":15927:16008   */\n            tag_395:\n                /* \"#utility.yul\":16055:16057   */\n              0x20\n                /* \"#utility.yul\":16047:16053   */\n              dup3\n                /* \"#utility.yul\":16044:16058   */\n              lt\n                /* \"#utility.yul\":16024:16042   */\n              dup2\n                /* \"#utility.yul\":16021:16059   */\n              eq\n                /* \"#utility.yul\":16018:16102   */\n              iszero\n              tag_396\n              jumpi\n                /* \"#utility.yul\":16074:16092   */\n              tag_397\n              tag_250\n              jump\t// in\n            tag_397:\n                /* \"#utility.yul\":16018:16102   */\n            tag_396:\n                /* \"#utility.yul\":15839:16108   */\n              pop\n                /* \"#utility.yul\":15788:16108   */\n              swap2\n              swap1\n              pop\n              jump\t// out\n\n            auxdata: 0xa2646970667358221220fec154d59e719291cfd2de5c099d9274255e3b165b82d3633e115657afc29b2b64736f6c634300080b0033\n        }\n    }\n\n    auxdata: 0xa2646970667358221220b1bb4aff6e273aa162734014fc4f8709988f2a7a6097aa09d8ea7f2246151ac764736f6c634300080b0033\n}\n","bytecode":{"linkReferences":{},"object":"608060405234801561001057600080fd5b506135ff806100206000396000f3fe608060405234801561001057600080fd5b50600436106100625760003560e01c80631d522d1d1461006757806335a6861a146100855780637e3c01d7146100b5578063826c4ae6146100e55780638379ec2f146100ef578063bdb373131461010d575b600080fd5b61006f61012b565b60405161007c9190610793565b60405180910390f35b61009f600480360381019061009a91906107f1565b6102de565b6040516100ac9190610793565b60405180910390f35b6100cf60048036038101906100ca9190610854565b6103a3565b6040516100dc9190610793565b60405180910390f35b6100ed6103e2565b005b6100f761060f565b604051610104919061093f565b60405180910390f35b61011561069d565b6040516101229190610793565b60405180910390f35b600060606000805b60008054905081101561027c576001600080838154811061015757610156610961565b5b9060005260206000200160009054906101000a900473ffffffffffffffffffffffffffffffffffffffff1673ffffffffffffffffffffffffffffffffffffffff1673ffffffffffffffffffffffffffffffffffffffff16815260200190815260200160002060009054906101000a900460ff1661026957600081815481106101e2576101e1610961565b5b9060005260206000200160009054906101000a900473ffffffffffffffffffffffffffffffffffffffff168383815181106102205761021f610961565b5b602002602001019073ffffffffffffffffffffffffffffffffffffffff16908173ffffffffffffffffffffffffffffffffffffffff16815250508180610265906109bf565b9250505b8080610274906109bf565b915050610133565b506000825144428560405160200161029693929190610ab9565b6040516020818303038152906040528051906020012060001c6102b99190610b21565b90508281815181106102ce576102cd610961565b5b6020026020010151935050505090565b6000600260008373ffffffffffffffffffffffffffffffffffffffff1673ffffffffffffffffffffffffffffffffffffffff16815260200190815260200160002060000160149054906101000a900460ff1661033957600080fd5b600260008373ffffffffffffffffffffffffffffffffffffffff1673ffffffffffffffffffffffffffffffffffffffff16815260200190815260200160002060000160009054906101000a900473ffffffffffffffffffffffffffffffffffffffff169050919050565b600081815481106103b357600080fd5b906000526020600020016000915054906101000a900473ffffffffffffffffffffffffffffffffffffffff1681565b6000336040516103f190610707565b6103fb9190610b61565b604051809103906000f080158015610417573d6000803e3d6000fd5b50905080600260003373ffffffffffffffffffffffffffffffffffffffff1673ffffffffffffffffffffffffffffffffffffffff16815260200190815260200160002060000160006101000a81548173ffffffffffffffffffffffffffffffffffffffff021916908373ffffffffffffffffffffffffffffffffffffffff1602179055506001600260003373ffffffffffffffffffffffffffffffffffffffff1673ffffffffffffffffffffffffffffffffffffffff16815260200190815260200160002060000160146101000a81548160ff0219169083151502179055506000600260003373ffffffffffffffffffffffffffffffffffffffff1673ffffffffffffffffffffffffffffffffffffffff16815260200190815260200160002060000160156101000a81548160ff0219169083151502179055506000600160008373ffffffffffffffffffffffffffffffffffffffff1673ffffffffffffffffffffffffffffffffffffffff16815260200190815260200160002060006101000a81548160ff0219169083151502179055506000819080600181540180825580915050600190039060005260206000200160009091909190916101000a81548173ffffffffffffffffffffffffffffffffffffffff021916908373ffffffffffffffffffffffffffffffffffffffff16021790555050565b6060600080548060200260200160405190810160405280929190818152602001828054801561069357602002820191906000526020600020905b8160009054906101000a900473ffffffffffffffffffffffffffffffffffffffff1673ffffffffffffffffffffffffffffffffffffffff1681526020019060010190808311610649575b5050505050905090565b6000600260003373ffffffffffffffffffffffffffffffffffffffff1673ffffffffffffffffffffffffffffffffffffffff16815260200190815260200160002060000160009054906101000a900473ffffffffffffffffffffffffffffffffffffffff16905090565b612a4d80610b7d83390190565b600073ffffffffffffffffffffffffffffffffffffffff82169050919050565b6000819050919050565b600061075961075461074f84610714565b610734565b610714565b9050919050565b600061076b8261073e565b9050919050565b600061077d82610760565b9050919050565b61078d81610772565b82525050565b60006020820190506107a86000830184610784565b92915050565b600080fd5b60006107be82610714565b9050919050565b6107ce816107b3565b81146107d957600080fd5b50565b6000813590506107eb816107c5565b92915050565b600060208284031215610807576108066107ae565b5b6000610815848285016107dc565b91505092915050565b6000819050919050565b6108318161081e565b811461083c57600080fd5b50565b60008135905061084e81610828565b92915050565b60006020828403121561086a576108696107ae565b5b60006108788482850161083f565b91505092915050565b600081519050919050565b600082825260208201905092915050565b6000819050602082019050919050565b6108b681610772565b82525050565b60006108c883836108ad565b60208301905092915050565b6000602082019050919050565b60006108ec82610881565b6108f6818561088c565b93506109018361089d565b8060005b8381101561093257815161091988826108bc565b9750610924836108d4565b925050600181019050610905565b5085935050505092915050565b6000602082019050818103600083015261095981846108e1565b905092915050565b7f4e487b7100000000000000000000000000000000000000000000000000000000600052603260045260246000fd5b7f4e487b7100000000000000000000000000000000000000000000000000000000600052601160045260246000fd5b60006109ca8261081e565b91507fffffffffffffffffffffffffffffffffffffffffffffffffffffffffffffffff8214156109fd576109fc610990565b5b600182019050919050565b6000819050919050565b610a23610a1e8261081e565b610a08565b82525050565b600081905092915050565b610a3d81610772565b82525050565b6000610a4f8383610a34565b60208301905092915050565b6000610a6682610881565b610a708185610a29565b9350610a7b8361089d565b8060005b83811015610aac578151610a938882610a43565b9750610a9e836108d4565b925050600181019050610a7f565b5085935050505092915050565b6000610ac58286610a12565b602082019150610ad58285610a12565b602082019150610ae58284610a5b565b9150819050949350505050565b7f4e487b7100000000000000000000000000000000000000000000000000000000600052601260045260246000fd5b6000610b2c8261081e565b9150610b378361081e565b925082610b4757610b46610af2565b5b828206905092915050565b610b5b816107b3565b82525050565b6000602082019050610b766000830184610b52565b9291505056fe60806040523480156200001157600080fd5b5060405162002a4d38038062002a4d8339818101604052810190620000379190620000e9565b80600260006101000a81548173ffffffffffffffffffffffffffffffffffffffff021916908373ffffffffffffffffffffffffffffffffffffffff160217905550506200011b565b600080fd5b600073ffffffffffffffffffffffffffffffffffffffff82169050919050565b6000620000b18262000084565b9050919050565b620000c381620000a4565b8114620000cf57600080fd5b50565b600081519050620000e381620000b8565b92915050565b6000602082840312156200010257620001016200007f565b5b60006200011284828501620000d2565b91505092915050565b612922806200012b6000396000f3fe608060405234801561001057600080fd5b50600436106100b45760003560e01c8063c2bb515f11610071578063c2bb515f1461017d578063cc3d967b1461019b578063df89f819146101d3578063ea00962f146101ef578063ede3a6701461020d578063f203c19d14610243576100b4565b8063091bac16146100b9578063263b81c9146100ea578063311cc831146100f4578063481c6a7514610110578063509fda0e1461012e578063adb4d9901461015f575b600080fd5b6100d360048036038101906100ce9190612123565b610261565b6040516100e19291906121e9565b60405180910390f35b6100f26104bc565b005b61010e60048036038101906101099190612355565b6105b9565b005b610118610ad7565b604051610125919061258c565b60405180910390f35b61014860048036038101906101439190612123565b610afd565b6040516101569291906121e9565b60405180910390f35b610167610cfe565b604051610174919061258c565b60405180910390f35b610185610d24565b6040516101929190612685565b60405180910390f35b6101b560048036038101906101b09190612123565b610ed3565b6040516101ca999897969594939291906126a7565b60405180910390f35b6101ed60048036038101906101e89190612773565b611824565b005b6101f7611908565b604051610204919061258c565b60405180910390f35b61022760048036038101906102229190612123565b611931565b60405161023a97969594939291906127eb565b60405180910390f35b61024b611faa565b604051610258919061258c565b60405180910390f35b606080600160008473ffffffffffffffffffffffffffffffffffffffff1673ffffffffffffffffffffffffffffffffffffffff16815260200190815260200160002060090160009054906101000a900460ff166102bd57600080fd5b600260009054906101000a900473ffffffffffffffffffffffffffffffffffffffff1673ffffffffffffffffffffffffffffffffffffffff168373ffffffffffffffffffffffffffffffffffffffff161461031757600080fd5b600160008473ffffffffffffffffffffffffffffffffffffffff1673ffffffffffffffffffffffffffffffffffffffff168152602001908152602001600020600701600160008573ffffffffffffffffffffffffffffffffffffffff1673ffffffffffffffffffffffffffffffffffffffff1681526020019081526020016000206008018180546103a7906128ba565b80601f01602080910402602001604051908101604052809291908181526020018280546103d3906128ba565b80156104205780601f106103f557610100808354040283529160200191610420565b820191906000526020600020905b81548152906001019060200180831161040357829003601f168201915b50505050509150808054610433906128ba565b80601f016020809104026020016040519081016040528092919081815260200182805461045f906128ba565b80156104ac5780601f10610481576101008083540402835291602001916104ac565b820191906000526020600020905b81548152906001019060200180831161048f57829003601f168201915b5050505050905091509150915091565b600260009054906101000a900473ffffffffffffffffffffffffffffffffffffffff1673ffffffffffffffffffffffffffffffffffffffff163373ffffffffffffffffffffffffffffffffffffffff161461051657600080fd5b600460020160149054906101000a900460ff161561053357600080fd5b600460020160009054906101000a900473ffffffffffffffffffffffffffffffffffffffff16600360006101000a81548173ffffffffffffffffffffffffffffffffffffffff021916908373ffffffffffffffffffffffffffffffffffffffff1602179055506001600460020160146101000a81548160ff021916908315150217905550565b600260009054906101000a900473ffffffffffffffffffffffffffffffffffffffff1673ffffffffffffffffffffffffffffffffffffffff163373ffffffffffffffffffffffffffffffffffffffff161461061357600080fd5b6000339050600160008273ffffffffffffffffffffffffffffffffffffffff1673ffffffffffffffffffffffffffffffffffffffff16815260200190815260200160002060090160009054906101000a900460ff161561067257600080fd5b806000806101000a81548173ffffffffffffffffffffffffffffffffffffffff021916908373ffffffffffffffffffffffffffffffffffffffff1602179055508b600160008373ffffffffffffffffffffffffffffffffffffffff1673ffffffffffffffffffffffffffffffffffffffff1681526020019081526020016000206000019080519060200190610708929190611fce565b508a600160008373ffffffffffffffffffffffffffffffffffffffff1673ffffffffffffffffffffffffffffffffffffffff168152602001908152602001600020600101908051906020019061075f929190611fce565b5089600160008373ffffffffffffffffffffffffffffffffffffffff1673ffffffffffffffffffffffffffffffffffffffff16815260200190815260200160002060020190805190602001906107b6929190611fce565b5088600160008373ffffffffffffffffffffffffffffffffffffffff1673ffffffffffffffffffffffffffffffffffffffff168152602001908152602001600020600301908051906020019061080d929190611fce565b5087600160008373ffffffffffffffffffffffffffffffffffffffff1673ffffffffffffffffffffffffffffffffffffffff1681526020019081526020016000206004019080519060200190610864929190611fce565b5086600160008373ffffffffffffffffffffffffffffffffffffffff1673ffffffffffffffffffffffffffffffffffffffff16815260200190815260200160002060050190805190602001906108bb929190611fce565b5085600160008373ffffffffffffffffffffffffffffffffffffffff1673ffffffffffffffffffffffffffffffffffffffff1681526020019081526020016000206006019080519060200190610912929190611fce565b5084600160008373ffffffffffffffffffffffffffffffffffffffff1673ffffffffffffffffffffffffffffffffffffffff1681526020019081526020016000206007019080519060200190610969929190611fce565b5083600160008373ffffffffffffffffffffffffffffffffffffffff1673ffffffffffffffffffffffffffffffffffffffff16815260200190815260200160002060080190805190602001906109c0929190611fce565b5082600160008373ffffffffffffffffffffffffffffffffffffffff1673ffffffffffffffffffffffffffffffffffffffff168152602001908152602001600020600a019080519060200190610a17929190611fce565b5081600160008373ffffffffffffffffffffffffffffffffffffffff1673ffffffffffffffffffffffffffffffffffffffff168152602001908152602001600020600b019080519060200190610a6e929190611fce565b5060018060008373ffffffffffffffffffffffffffffffffffffffff1673ffffffffffffffffffffffffffffffffffffffff16815260200190815260200160002060090160006101000a81548160ff021916908315150217905550505050505050505050505050565b600260009054906101000a900473ffffffffffffffffffffffffffffffffffffffff1681565b606080600160008473ffffffffffffffffffffffffffffffffffffffff1673ffffffffffffffffffffffffffffffffffffffff16815260200190815260200160002060090160009054906101000a900460ff16610b5957600080fd5b600160008473ffffffffffffffffffffffffffffffffffffffff1673ffffffffffffffffffffffffffffffffffffffff168152602001908152602001600020600a01600160008573ffffffffffffffffffffffffffffffffffffffff1673ffffffffffffffffffffffffffffffffffffffff168152602001908152602001600020600b01818054610be9906128ba565b80601f0160208091040260200160405190810160405280929190818152602001828054610c15906128ba565b8015610c625780601f10610c3757610100808354040283529160200191610c62565b820191906000526020600020905b815481529060010190602001808311610c4557829003601f168201915b50505050509150808054610c75906128ba565b80601f0160208091040260200160405190810160405280929190818152602001828054610ca1906128ba565b8015610cee5780601f10610cc357610100808354040283529160200191610cee565b820191906000526020600020905b815481529060010190602001808311610cd157829003601f168201915b5050505050905091509150915091565b600360009054906101000a900473ffffffffffffffffffffffffffffffffffffffff1681565b610d2c612054565b6004604051806080016040529081600082018054610d49906128ba565b80601f0160208091040260200160405190810160405280929190818152602001828054610d75906128ba565b8015610dc25780601f10610d9757610100808354040283529160200191610dc2565b820191906000526020600020905b815481529060010190602001808311610da557829003601f168201915b50505050508152602001600182018054610ddb906128ba565b80601f0160208091040260200160405190810160405280929190818152602001828054610e07906128ba565b8015610e545780601f10610e2957610100808354040283529160200191610e54565b820191906000526020600020905b815481529060010190602001808311610e3757829003601f168201915b505050505081526020016002820160009054906101000a900473ffffffffffffffffffffffffffffffffffffffff1673ffffffffffffffffffffffffffffffffffffffff1673ffffffffffffffffffffffffffffffffffffffff1681526020016002820160149054906101000a900460ff161515151581525050905090565b6060806060806060806060806060600360009054906101000a900473ffffffffffffffffffffffffffffffffffffffff1673ffffffffffffffffffffffffffffffffffffffff163373ffffffffffffffffffffffffffffffffffffffff1614610f3b57600080fd5b8973ffffffffffffffffffffffffffffffffffffffff16600360009054906101000a900473ffffffffffffffffffffffffffffffffffffffff1673ffffffffffffffffffffffffffffffffffffffff1614610f9557600080fd5b60016000600260009054906101000a900473ffffffffffffffffffffffffffffffffffffffff1673ffffffffffffffffffffffffffffffffffffffff1673ffffffffffffffffffffffffffffffffffffffff16815260200190815260200160002060000160016000600260009054906101000a900473ffffffffffffffffffffffffffffffffffffffff1673ffffffffffffffffffffffffffffffffffffffff1673ffffffffffffffffffffffffffffffffffffffff16815260200190815260200160002060010160016000600260009054906101000a900473ffffffffffffffffffffffffffffffffffffffff1673ffffffffffffffffffffffffffffffffffffffff1673ffffffffffffffffffffffffffffffffffffffff16815260200190815260200160002060020160016000600260009054906101000a900473ffffffffffffffffffffffffffffffffffffffff1673ffffffffffffffffffffffffffffffffffffffff1673ffffffffffffffffffffffffffffffffffffffff16815260200190815260200160002060030160016000600260009054906101000a900473ffffffffffffffffffffffffffffffffffffffff1673ffffffffffffffffffffffffffffffffffffffff1673ffffffffffffffffffffffffffffffffffffffff16815260200190815260200160002060040160016000600260009054906101000a900473ffffffffffffffffffffffffffffffffffffffff1673ffffffffffffffffffffffffffffffffffffffff1673ffffffffffffffffffffffffffffffffffffffff16815260200190815260200160002060050160016000600260009054906101000a900473ffffffffffffffffffffffffffffffffffffffff1673ffffffffffffffffffffffffffffffffffffffff1673ffffffffffffffffffffffffffffffffffffffff16815260200190815260200160002060060160016000600260009054906101000a900473ffffffffffffffffffffffffffffffffffffffff1673ffffffffffffffffffffffffffffffffffffffff1673ffffffffffffffffffffffffffffffffffffffff16815260200190815260200160002060070160016000600260009054906101000a900473ffffffffffffffffffffffffffffffffffffffff1673ffffffffffffffffffffffffffffffffffffffff1673ffffffffffffffffffffffffffffffffffffffff168152602001908152602001600020600801888054611325906128ba565b80601f0160208091040260200160405190810160405280929190818152602001828054611351906128ba565b801561139e5780601f106113735761010080835404028352916020019161139e565b820191906000526020600020905b81548152906001019060200180831161138157829003601f168201915b505050505098508780546113b1906128ba565b80601f01602080910402602001604051908101604052809291908181526020018280546113dd906128ba565b801561142a5780601f106113ff5761010080835404028352916020019161142a565b820191906000526020600020905b81548152906001019060200180831161140d57829003601f168201915b5050505050975086805461143d906128ba565b80601f0160208091040260200160405190810160405280929190818152602001828054611469906128ba565b80156114b65780601f1061148b576101008083540402835291602001916114b6565b820191906000526020600020905b81548152906001019060200180831161149957829003601f168201915b505050505096508580546114c9906128ba565b80601f01602080910402602001604051908101604052809291908181526020018280546114f5906128ba565b80156115425780601f1061151757610100808354040283529160200191611542565b820191906000526020600020905b81548152906001019060200180831161152557829003601f168201915b50505050509550848054611555906128ba565b80601f0160208091040260200160405190810160405280929190818152602001828054611581906128ba565b80156115ce5780601f106115a3576101008083540402835291602001916115ce565b820191906000526020600020905b8154815290600101906020018083116115b157829003601f168201915b505050505094508380546115e1906128ba565b80601f016020809104026020016040519081016040528092919081815260200182805461160d906128ba565b801561165a5780601f1061162f5761010080835404028352916020019161165a565b820191906000526020600020905b81548152906001019060200180831161163d57829003601f168201915b5050505050935082805461166d906128ba565b80601f0160208091040260200160405190810160405280929190818152602001828054611699906128ba565b80156116e65780601f106116bb576101008083540402835291602001916116e6565b820191906000526020600020905b8154815290600101906020018083116116c957829003601f168201915b505050505092508180546116f9906128ba565b80601f0160208091040260200160405190810160405280929190818152602001828054611725906128ba565b80156117725780601f1061174757610100808354040283529160200191611772565b820191906000526020600020905b81548152906001019060200180831161175557829003601f168201915b50505050509150808054611785906128ba565b80601f01602080910402602001604051908101604052809291908181526020018280546117b1906128ba565b80156117fe5780601f106117d3576101008083540402835291602001916117fe565b820191906000526020600020905b8154815290600101906020018083116117e157829003601f168201915b505050505090509850985098509850985098509850985098509193959799909294969850565b60405180608001604052808381526020018281526020013373ffffffffffffffffffffffffffffffffffffffff168152602001600015158152506004600082015181600001908051906020019061187c929190611fce565b506020820151816001019080519060200190611899929190611fce565b5060408201518160020160006101000a81548173ffffffffffffffffffffffffffffffffffffffff021916908373ffffffffffffffffffffffffffffffffffffffff16021790555060608201518160020160146101000a81548160ff0219169083151502179055509050505050565b60008060009054906101000a900473ffffffffffffffffffffffffffffffffffffffff16905090565b6060806060806060806060600160008973ffffffffffffffffffffffffffffffffffffffff1673ffffffffffffffffffffffffffffffffffffffff16815260200190815260200160002060090160009054906101000a900460ff1661199557600080fd5b600260009054906101000a900473ffffffffffffffffffffffffffffffffffffffff1673ffffffffffffffffffffffffffffffffffffffff168873ffffffffffffffffffffffffffffffffffffffff16146119ef57600080fd5b600160008973ffffffffffffffffffffffffffffffffffffffff1673ffffffffffffffffffffffffffffffffffffffff168152602001908152602001600020600001600160008a73ffffffffffffffffffffffffffffffffffffffff1673ffffffffffffffffffffffffffffffffffffffff168152602001908152602001600020600101600160008b73ffffffffffffffffffffffffffffffffffffffff1673ffffffffffffffffffffffffffffffffffffffff168152602001908152602001600020600201600160008c73ffffffffffffffffffffffffffffffffffffffff1673ffffffffffffffffffffffffffffffffffffffff168152602001908152602001600020600301600160008d73ffffffffffffffffffffffffffffffffffffffff1673ffffffffffffffffffffffffffffffffffffffff168152602001908152602001600020600401600160008e73ffffffffffffffffffffffffffffffffffffffff1673ffffffffffffffffffffffffffffffffffffffff168152602001908152602001600020600501600160008f73ffffffffffffffffffffffffffffffffffffffff1673ffffffffffffffffffffffffffffffffffffffff168152602001908152602001600020600601868054611bc9906128ba565b80601f0160208091040260200160405190810160405280929190818152602001828054611bf5906128ba565b8015611c425780601f10611c1757610100808354040283529160200191611c42565b820191906000526020600020905b815481529060010190602001808311611c2557829003601f168201915b50505050509650858054611c55906128ba565b80601f0160208091040260200160405190810160405280929190818152602001828054611c81906128ba565b8015611cce5780601f10611ca357610100808354040283529160200191611cce565b820191906000526020600020905b815481529060010190602001808311611cb157829003601f168201915b50505050509550848054611ce1906128ba565b80601f0160208091040260200160405190810160405280929190818152602001828054611d0d906128ba565b8015611d5a5780601f10611d2f57610100808354040283529160200191611d5a565b820191906000526020600020905b815481529060010190602001808311611d3d57829003601f168201915b50505050509450838054611d6d906128ba565b80601f0160208091040260200160405190810160405280929190818152602001828054611d99906128ba565b8015611de65780601f10611dbb57610100808354040283529160200191611de6565b820191906000526020600020905b815481529060010190602001808311611dc957829003601f168201915b50505050509350828054611df9906128ba565b80601f0160208091040260200160405190810160405280929190818152602001828054611e25906128ba565b8015611e725780601f10611e4757610100808354040283529160200191611e72565b820191906000526020600020905b815481529060010190602001808311611e5557829003601f168201915b50505050509250818054611e85906128ba565b80601f0160208091040260200160405190810160405280929190818152602001828054611eb1906128ba565b8015611efe5780601f10611ed357610100808354040283529160200191611efe565b820191906000526020600020905b815481529060010190602001808311611ee157829003601f168201915b50505050509150808054611f11906128ba565b80601f0160208091040260200160405190810160405280929190818152602001828054611f3d906128ba565b8015611f8a5780601f10611f5f57610100808354040283529160200191611f8a565b820191906000526020600020905b815481529060010190602001808311611f6d57829003601f168201915b505050505090509650965096509650965096509650919395979092949650565b60008054906101000a900473ffffffffffffffffffffffffffffffffffffffff1681565b828054611fda906128ba565b90600052602060002090601f016020900481019282611ffc5760008555612043565b82601f1061201557805160ff1916838001178555612043565b82800160010185558215612043579182015b82811115612042578251825591602001919060010190612027565b5b5090506120509190612094565b5090565b60405180608001604052806060815260200160608152602001600073ffffffffffffffffffffffffffffffffffffffff1681526020016000151581525090565b5b808211156120ad576000816000905550600101612095565b5090565b6000604051905090565b600080fd5b600080fd5b600073ffffffffffffffffffffffffffffffffffffffff82169050919050565b60006120f0826120c5565b9050919050565b612100816120e5565b811461210b57600080fd5b50565b60008135905061211d816120f7565b92915050565b600060208284031215612139576121386120bb565b5b60006121478482850161210e565b91505092915050565b600081519050919050565b600082825260208201905092915050565b60005b8381101561218a57808201518184015260208101905061216f565b83811115612199576000848401525b50505050565b6000601f19601f8301169050919050565b60006121bb82612150565b6121c5818561215b565b93506121d581856020860161216c565b6121de8161219f565b840191505092915050565b6000604082019050818103600083015261220381856121b0565b9050818103602083015261221781846121b0565b90509392505050565b600080fd5b600080fd5b7f4e487b7100000000000000000000000000000000000000000000000000000000600052604160045260246000fd5b6122628261219f565b810181811067ffffffffffffffff821117156122815761228061222a565b5b80604052505050565b60006122946120b1565b90506122a08282612259565b919050565b600067ffffffffffffffff8211156122c0576122bf61222a565b5b6122c98261219f565b9050602081019050919050565b82818337600083830152505050565b60006122f86122f3846122a5565b61228a565b90508281526020810184848401111561231457612313612225565b5b61231f8482856122d6565b509392505050565b600082601f83011261233c5761233b612220565b5b813561234c8482602086016122e5565b91505092915050565b60008060008060008060008060008060006101608c8e03121561237b5761237a6120bb565b5b60008c013567ffffffffffffffff811115612399576123986120c0565b5b6123a58e828f01612327565b9b505060208c013567ffffffffffffffff8111156123c6576123c56120c0565b5b6123d28e828f01612327565b9a505060408c013567ffffffffffffffff8111156123f3576123f26120c0565b5b6123ff8e828f01612327565b99505060608c013567ffffffffffffffff8111156124205761241f6120c0565b5b61242c8e828f01612327565b98505060808c013567ffffffffffffffff81111561244d5761244c6120c0565b5b6124598e828f01612327565b97505060a08c013567ffffffffffffffff81111561247a576124796120c0565b5b6124868e828f01612327565b96505060c08c013567ffffffffffffffff8111156124a7576124a66120c0565b5b6124b38e828f01612327565b95505060e08c013567ffffffffffffffff8111156124d4576124d36120c0565b5b6124e08e828f01612327565b9450506101008c013567ffffffffffffffff811115612502576125016120c0565b5b61250e8e828f01612327565b9350506101208c013567ffffffffffffffff8111156125305761252f6120c0565b5b61253c8e828f01612327565b9250506101408c013567ffffffffffffffff81111561255e5761255d6120c0565b5b61256a8e828f01612327565b9150509295989b509295989b9093969950565b612586816120e5565b82525050565b60006020820190506125a1600083018461257d565b92915050565b600082825260208201905092915050565b60006125c382612150565b6125cd81856125a7565b93506125dd81856020860161216c565b6125e68161219f565b840191505092915050565b6125fa816120e5565b82525050565b60008115159050919050565b61261581612600565b82525050565b6000608083016000830151848203600086015261263882826125b8565b9150506020830151848203602086015261265282826125b8565b915050604083015161266760408601826125f1565b50606083015161267a606086018261260c565b508091505092915050565b6000602082019050818103600083015261269f818461261b565b905092915050565b60006101208201905081810360008301526126c2818c6121b0565b905081810360208301526126d6818b6121b0565b905081810360408301526126ea818a6121b0565b905081810360608301526126fe81896121b0565b9050818103608083015261271281886121b0565b905081810360a083015261272681876121b0565b905081810360c083015261273a81866121b0565b905081810360e083015261274e81856121b0565b905081810361010083015261276381846121b0565b90509a9950505050505050505050565b6000806040838503121561278a576127896120bb565b5b600083013567ffffffffffffffff8111156127a8576127a76120c0565b5b6127b485828601612327565b925050602083013567ffffffffffffffff8111156127d5576127d46120c0565b5b6127e185828601612327565b9150509250929050565b600060e0820190508181036000830152612805818a6121b0565b9050818103602083015261281981896121b0565b9050818103604083015261282d81886121b0565b9050818103606083015261284181876121b0565b9050818103608083015261285581866121b0565b905081810360a083015261286981856121b0565b905081810360c083015261287d81846121b0565b905098975050505050505050565b7f4e487b7100000000000000000000000000000000000000000000000000000000600052602260045260246000fd5b600060028204905060018216806128d257607f821691505b602082108114156128e6576128e561288b565b5b5091905056fea2646970667358221220fec154d59e719291cfd2de5c099d9274255e3b165b82d3633e115657afc29b2b64736f6c634300080b0033a2646970667358221220b1bb4aff6e273aa162734014fc4f8709988f2a7a6097aa09d8ea7f2246151ac764736f6c634300080b0033","opcodes":"PUSH1 0x80 PUSH1 0x40 MSTORE CALLVALUE DUP1 ISZERO PUSH2 0x10 JUMPI PUSH1 0x0 DUP1 REVERT JUMPDEST POP PUSH2 0x35FF DUP1 PUSH2 0x20 PUSH1 0x0 CODECOPY PUSH1 0x0 RETURN INVALID PUSH1 0x80 PUSH1 0x40 MSTORE CALLVALUE DUP1 ISZERO PUSH2 0x10 JUMPI PUSH1 0x0 DUP1 REVERT JUMPDEST POP PUSH1 0x4 CALLDATASIZE LT PUSH2 0x62 JUMPI PUSH1 0x0 CALLDATALOAD PUSH1 0xE0 SHR DUP1 PUSH4 0x1D522D1D EQ PUSH2 0x67 JUMPI DUP1 PUSH4 0x35A6861A EQ PUSH2 0x85 JUMPI DUP1 PUSH4 0x7E3C01D7 EQ PUSH2 0xB5 JUMPI DUP1 PUSH4 0x826C4AE6 EQ PUSH2 0xE5 JUMPI DUP1 PUSH4 0x8379EC2F EQ PUSH2 0xEF JUMPI DUP1 PUSH4 0xBDB37313 EQ PUSH2 0x10D JUMPI JUMPDEST PUSH1 0x0 DUP1 REVERT JUMPDEST PUSH2 0x6F PUSH2 0x12B JUMP JUMPDEST PUSH1 0x40 MLOAD PUSH2 0x7C SWAP2 SWAP1 PUSH2 0x793 JUMP JUMPDEST PUSH1 0x40 MLOAD DUP1 SWAP2 SUB SWAP1 RETURN JUMPDEST PUSH2 0x9F PUSH1 0x4 DUP1 CALLDATASIZE SUB DUP2 ADD SWAP1 PUSH2 0x9A SWAP2 SWAP1 PUSH2 0x7F1 JUMP JUMPDEST PUSH2 0x2DE JUMP JUMPDEST PUSH1 0x40 MLOAD PUSH2 0xAC SWAP2 SWAP1 PUSH2 0x793 JUMP JUMPDEST PUSH1 0x40 MLOAD DUP1 SWAP2 SUB SWAP1 RETURN JUMPDEST PUSH2 0xCF PUSH1 0x4 DUP1 CALLDATASIZE SUB DUP2 ADD SWAP1 PUSH2 0xCA SWAP2 SWAP1 PUSH2 0x854 JUMP JUMPDEST PUSH2 0x3A3 JUMP JUMPDEST PUSH1 0x40 MLOAD PUSH2 0xDC SWAP2 SWAP1 PUSH2 0x793 JUMP JUMPDEST PUSH1 0x40 MLOAD DUP1 SWAP2 SUB SWAP1 RETURN JUMPDEST PUSH2 0xED PUSH2 0x3E2 JUMP JUMPDEST STOP JUMPDEST PUSH2 0xF7 PUSH2 0x60F JUMP JUMPDEST PUSH1 0x40 MLOAD PUSH2 0x104 SWAP2 SWAP1 PUSH2 0x93F JUMP JUMPDEST PUSH1 0x40 MLOAD DUP1 SWAP2 SUB SWAP1 RETURN JUMPDEST PUSH2 0x115 PUSH2 0x69D JUMP JUMPDEST PUSH1 0x40 MLOAD PUSH2 0x122 SWAP2 SWAP1 PUSH2 0x793 JUMP JUMPDEST PUSH1 0x40 MLOAD DUP1 SWAP2 SUB SWAP1 RETURN JUMPDEST PUSH1 0x0 PUSH1 0x60 PUSH1 0x0 DUP1 JUMPDEST PUSH1 0x0 DUP1 SLOAD SWAP1 POP DUP2 LT ISZERO PUSH2 0x27C JUMPI PUSH1 0x1 PUSH1 0x0 DUP1 DUP4 DUP2 SLOAD DUP2 LT PUSH2 0x157 JUMPI PUSH2 0x156 PUSH2 0x961 JUMP JUMPDEST JUMPDEST SWAP1 PUSH1 0x0 MSTORE PUSH1 0x20 PUSH1 0x0 KECCAK256 ADD PUSH1 0x0 SWAP1 SLOAD SWAP1 PUSH2 0x100 EXP SWAP1 DIV PUSH20 0xFFFFFFFFFFFFFFFFFFFFFFFFFFFFFFFFFFFFFFFF AND PUSH20 0xFFFFFFFFFFFFFFFFFFFFFFFFFFFFFFFFFFFFFFFF AND PUSH20 0xFFFFFFFFFFFFFFFFFFFFFFFFFFFFFFFFFFFFFFFF AND DUP2 MSTORE PUSH1 0x20 ADD SWAP1 DUP2 MSTORE PUSH1 0x20 ADD PUSH1 0x0 KECCAK256 PUSH1 0x0 SWAP1 SLOAD SWAP1 PUSH2 0x100 EXP SWAP1 DIV PUSH1 0xFF AND PUSH2 0x269 JUMPI PUSH1 0x0 DUP2 DUP2 SLOAD DUP2 LT PUSH2 0x1E2 JUMPI PUSH2 0x1E1 PUSH2 0x961 JUMP JUMPDEST JUMPDEST SWAP1 PUSH1 0x0 MSTORE PUSH1 0x20 PUSH1 0x0 KECCAK256 ADD PUSH1 0x0 SWAP1 SLOAD SWAP1 PUSH2 0x100 EXP SWAP1 DIV PUSH20 0xFFFFFFFFFFFFFFFFFFFFFFFFFFFFFFFFFFFFFFFF AND DUP4 DUP4 DUP2 MLOAD DUP2 LT PUSH2 0x220 JUMPI PUSH2 0x21F PUSH2 0x961 JUMP JUMPDEST JUMPDEST PUSH1 0x20 MUL PUSH1 0x20 ADD ADD SWAP1 PUSH20 0xFFFFFFFFFFFFFFFFFFFFFFFFFFFFFFFFFFFFFFFF AND SWAP1 DUP2 PUSH20 0xFFFFFFFFFFFFFFFFFFFFFFFFFFFFFFFFFFFFFFFF AND DUP2 MSTORE POP POP DUP2 DUP1 PUSH2 0x265 SWAP1 PUSH2 0x9BF JUMP JUMPDEST SWAP3 POP POP JUMPDEST DUP1 DUP1 PUSH2 0x274 SWAP1 PUSH2 0x9BF JUMP JUMPDEST SWAP2 POP POP PUSH2 0x133 JUMP JUMPDEST POP PUSH1 0x0 DUP3 MLOAD DIFFICULTY TIMESTAMP DUP6 PUSH1 0x40 MLOAD PUSH1 0x20 ADD PUSH2 0x296 SWAP4 SWAP3 SWAP2 SWAP1 PUSH2 0xAB9 JUMP JUMPDEST PUSH1 0x40 MLOAD PUSH1 0x20 DUP2 DUP4 SUB SUB DUP2 MSTORE SWAP1 PUSH1 0x40 MSTORE DUP1 MLOAD SWAP1 PUSH1 0x20 ADD KECCAK256 PUSH1 0x0 SHR PUSH2 0x2B9 SWAP2 SWAP1 PUSH2 0xB21 JUMP JUMPDEST SWAP1 POP DUP3 DUP2 DUP2 MLOAD DUP2 LT PUSH2 0x2CE JUMPI PUSH2 0x2CD PUSH2 0x961 JUMP JUMPDEST JUMPDEST PUSH1 0x20 MUL PUSH1 0x20 ADD ADD MLOAD SWAP4 POP POP POP POP SWAP1 JUMP JUMPDEST PUSH1 0x0 PUSH1 0x2 PUSH1 0x0 DUP4 PUSH20 0xFFFFFFFFFFFFFFFFFFFFFFFFFFFFFFFFFFFFFFFF AND PUSH20 0xFFFFFFFFFFFFFFFFFFFFFFFFFFFFFFFFFFFFFFFF AND DUP2 MSTORE PUSH1 0x20 ADD SWAP1 DUP2 MSTORE PUSH1 0x20 ADD PUSH1 0x0 KECCAK256 PUSH1 0x0 ADD PUSH1 0x14 SWAP1 SLOAD SWAP1 PUSH2 0x100 EXP SWAP1 DIV PUSH1 0xFF AND PUSH2 0x339 JUMPI PUSH1 0x0 DUP1 REVERT JUMPDEST PUSH1 0x2 PUSH1 0x0 DUP4 PUSH20 0xFFFFFFFFFFFFFFFFFFFFFFFFFFFFFFFFFFFFFFFF AND PUSH20 0xFFFFFFFFFFFFFFFFFFFFFFFFFFFFFFFFFFFFFFFF AND DUP2 MSTORE PUSH1 0x20 ADD SWAP1 DUP2 MSTORE PUSH1 0x20 ADD PUSH1 0x0 KECCAK256 PUSH1 0x0 ADD PUSH1 0x0 SWAP1 SLOAD SWAP1 PUSH2 0x100 EXP SWAP1 DIV PUSH20 0xFFFFFFFFFFFFFFFFFFFFFFFFFFFFFFFFFFFFFFFF AND SWAP1 POP SWAP2 SWAP1 POP JUMP JUMPDEST PUSH1 0x0 DUP2 DUP2 SLOAD DUP2 LT PUSH2 0x3B3 JUMPI PUSH1 0x0 DUP1 REVERT JUMPDEST SWAP1 PUSH1 0x0 MSTORE PUSH1 0x20 PUSH1 0x0 KECCAK256 ADD PUSH1 0x0 SWAP2 POP SLOAD SWAP1 PUSH2 0x100 EXP SWAP1 DIV PUSH20 0xFFFFFFFFFFFFFFFFFFFFFFFFFFFFFFFFFFFFFFFF AND DUP2 JUMP JUMPDEST PUSH1 0x0 CALLER PUSH1 0x40 MLOAD PUSH2 0x3F1 SWAP1 PUSH2 0x707 JUMP JUMPDEST PUSH2 0x3FB SWAP2 SWAP1 PUSH2 0xB61 JUMP JUMPDEST PUSH1 0x40 MLOAD DUP1 SWAP2 SUB SWAP1 PUSH1 0x0 CREATE DUP1 ISZERO DUP1 ISZERO PUSH2 0x417 JUMPI RETURNDATASIZE PUSH1 0x0 DUP1 RETURNDATACOPY RETURNDATASIZE PUSH1 0x0 REVERT JUMPDEST POP SWAP1 POP DUP1 PUSH1 0x2 PUSH1 0x0 CALLER PUSH20 0xFFFFFFFFFFFFFFFFFFFFFFFFFFFFFFFFFFFFFFFF AND PUSH20 0xFFFFFFFFFFFFFFFFFFFFFFFFFFFFFFFFFFFFFFFF AND DUP2 MSTORE PUSH1 0x20 ADD SWAP1 DUP2 MSTORE PUSH1 0x20 ADD PUSH1 0x0 KECCAK256 PUSH1 0x0 ADD PUSH1 0x0 PUSH2 0x100 EXP DUP2 SLOAD DUP2 PUSH20 0xFFFFFFFFFFFFFFFFFFFFFFFFFFFFFFFFFFFFFFFF MUL NOT AND SWAP1 DUP4 PUSH20 0xFFFFFFFFFFFFFFFFFFFFFFFFFFFFFFFFFFFFFFFF AND MUL OR SWAP1 SSTORE POP PUSH1 0x1 PUSH1 0x2 PUSH1 0x0 CALLER PUSH20 0xFFFFFFFFFFFFFFFFFFFFFFFFFFFFFFFFFFFFFFFF AND PUSH20 0xFFFFFFFFFFFFFFFFFFFFFFFFFFFFFFFFFFFFFFFF AND DUP2 MSTORE PUSH1 0x20 ADD SWAP1 DUP2 MSTORE PUSH1 0x20 ADD PUSH1 0x0 KECCAK256 PUSH1 0x0 ADD PUSH1 0x14 PUSH2 0x100 EXP DUP2 SLOAD DUP2 PUSH1 0xFF MUL NOT AND SWAP1 DUP4 ISZERO ISZERO MUL OR SWAP1 SSTORE POP PUSH1 0x0 PUSH1 0x2 PUSH1 0x0 CALLER PUSH20 0xFFFFFFFFFFFFFFFFFFFFFFFFFFFFFFFFFFFFFFFF AND PUSH20 0xFFFFFFFFFFFFFFFFFFFFFFFFFFFFFFFFFFFFFFFF AND DUP2 MSTORE PUSH1 0x20 ADD SWAP1 DUP2 MSTORE PUSH1 0x20 ADD PUSH1 0x0 KECCAK256 PUSH1 0x0 ADD PUSH1 0x15 PUSH2 0x100 EXP DUP2 SLOAD DUP2 PUSH1 0xFF MUL NOT AND SWAP1 DUP4 ISZERO ISZERO MUL OR SWAP1 SSTORE POP PUSH1 0x0 PUSH1 0x1 PUSH1 0x0 DUP4 PUSH20 0xFFFFFFFFFFFFFFFFFFFFFFFFFFFFFFFFFFFFFFFF AND PUSH20 0xFFFFFFFFFFFFFFFFFFFFFFFFFFFFFFFFFFFFFFFF AND DUP2 MSTORE PUSH1 0x20 ADD SWAP1 DUP2 MSTORE PUSH1 0x20 ADD PUSH1 0x0 KECCAK256 PUSH1 0x0 PUSH2 0x100 EXP DUP2 SLOAD DUP2 PUSH1 0xFF MUL NOT AND SWAP1 DUP4 ISZERO ISZERO MUL OR SWAP1 SSTORE POP PUSH1 0x0 DUP2 SWAP1 DUP1 PUSH1 0x1 DUP2 SLOAD ADD DUP1 DUP3 SSTORE DUP1 SWAP2 POP POP PUSH1 0x1 SWAP1 SUB SWAP1 PUSH1 0x0 MSTORE PUSH1 0x20 PUSH1 0x0 KECCAK256 ADD PUSH1 0x0 SWAP1 SWAP2 SWAP1 SWAP2 SWAP1 SWAP2 PUSH2 0x100 EXP DUP2 SLOAD DUP2 PUSH20 0xFFFFFFFFFFFFFFFFFFFFFFFFFFFFFFFFFFFFFFFF MUL NOT AND SWAP1 DUP4 PUSH20 0xFFFFFFFFFFFFFFFFFFFFFFFFFFFFFFFFFFFFFFFF AND MUL OR SWAP1 SSTORE POP POP JUMP JUMPDEST PUSH1 0x60 PUSH1 0x0 DUP1 SLOAD DUP1 PUSH1 0x20 MUL PUSH1 0x20 ADD PUSH1 0x40 MLOAD SWAP1 DUP2 ADD PUSH1 0x40 MSTORE DUP1 SWAP3 SWAP2 SWAP1 DUP2 DUP2 MSTORE PUSH1 0x20 ADD DUP3 DUP1 SLOAD DUP1 ISZERO PUSH2 0x693 JUMPI PUSH1 0x20 MUL DUP3 ADD SWAP2 SWAP1 PUSH1 0x0 MSTORE PUSH1 0x20 PUSH1 0x0 KECCAK256 SWAP1 JUMPDEST DUP2 PUSH1 0x0 SWAP1 SLOAD SWAP1 PUSH2 0x100 EXP SWAP1 DIV PUSH20 0xFFFFFFFFFFFFFFFFFFFFFFFFFFFFFFFFFFFFFFFF AND PUSH20 0xFFFFFFFFFFFFFFFFFFFFFFFFFFFFFFFFFFFFFFFF AND DUP2 MSTORE PUSH1 0x20 ADD SWAP1 PUSH1 0x1 ADD SWAP1 DUP1 DUP4 GT PUSH2 0x649 JUMPI JUMPDEST POP POP POP POP POP SWAP1 POP SWAP1 JUMP JUMPDEST PUSH1 0x0 PUSH1 0x2 PUSH1 0x0 CALLER PUSH20 0xFFFFFFFFFFFFFFFFFFFFFFFFFFFFFFFFFFFFFFFF AND PUSH20 0xFFFFFFFFFFFFFFFFFFFFFFFFFFFFFFFFFFFFFFFF AND DUP2 MSTORE PUSH1 0x20 ADD SWAP1 DUP2 MSTORE PUSH1 0x20 ADD PUSH1 0x0 KECCAK256 PUSH1 0x0 ADD PUSH1 0x0 SWAP1 SLOAD SWAP1 PUSH2 0x100 EXP SWAP1 DIV PUSH20 0xFFFFFFFFFFFFFFFFFFFFFFFFFFFFFFFFFFFFFFFF AND SWAP1 POP SWAP1 JUMP JUMPDEST PUSH2 0x2A4D DUP1 PUSH2 0xB7D DUP4 CODECOPY ADD SWAP1 JUMP JUMPDEST PUSH1 0x0 PUSH20 0xFFFFFFFFFFFFFFFFFFFFFFFFFFFFFFFFFFFFFFFF DUP3 AND SWAP1 POP SWAP2 SWAP1 POP JUMP JUMPDEST PUSH1 0x0 DUP2 SWAP1 POP SWAP2 SWAP1 POP JUMP JUMPDEST PUSH1 0x0 PUSH2 0x759 PUSH2 0x754 PUSH2 0x74F DUP5 PUSH2 0x714 JUMP JUMPDEST PUSH2 0x734 JUMP JUMPDEST PUSH2 0x714 JUMP JUMPDEST SWAP1 POP SWAP2 SWAP1 POP JUMP JUMPDEST PUSH1 0x0 PUSH2 0x76B DUP3 PUSH2 0x73E JUMP JUMPDEST SWAP1 POP SWAP2 SWAP1 POP JUMP JUMPDEST PUSH1 0x0 PUSH2 0x77D DUP3 PUSH2 0x760 JUMP JUMPDEST SWAP1 POP SWAP2 SWAP1 POP JUMP JUMPDEST PUSH2 0x78D DUP2 PUSH2 0x772 JUMP JUMPDEST DUP3 MSTORE POP POP JUMP JUMPDEST PUSH1 0x0 PUSH1 0x20 DUP3 ADD SWAP1 POP PUSH2 0x7A8 PUSH1 0x0 DUP4 ADD DUP5 PUSH2 0x784 JUMP JUMPDEST SWAP3 SWAP2 POP POP JUMP JUMPDEST PUSH1 0x0 DUP1 REVERT JUMPDEST PUSH1 0x0 PUSH2 0x7BE DUP3 PUSH2 0x714 JUMP JUMPDEST SWAP1 POP SWAP2 SWAP1 POP JUMP JUMPDEST PUSH2 0x7CE DUP2 PUSH2 0x7B3 JUMP JUMPDEST DUP2 EQ PUSH2 0x7D9 JUMPI PUSH1 0x0 DUP1 REVERT JUMPDEST POP JUMP JUMPDEST PUSH1 0x0 DUP2 CALLDATALOAD SWAP1 POP PUSH2 0x7EB DUP2 PUSH2 0x7C5 JUMP JUMPDEST SWAP3 SWAP2 POP POP JUMP JUMPDEST PUSH1 0x0 PUSH1 0x20 DUP3 DUP5 SUB SLT ISZERO PUSH2 0x807 JUMPI PUSH2 0x806 PUSH2 0x7AE JUMP JUMPDEST JUMPDEST PUSH1 0x0 PUSH2 0x815 DUP5 DUP3 DUP6 ADD PUSH2 0x7DC JUMP JUMPDEST SWAP2 POP POP SWAP3 SWAP2 POP POP JUMP JUMPDEST PUSH1 0x0 DUP2 SWAP1 POP SWAP2 SWAP1 POP JUMP JUMPDEST PUSH2 0x831 DUP2 PUSH2 0x81E JUMP JUMPDEST DUP2 EQ PUSH2 0x83C JUMPI PUSH1 0x0 DUP1 REVERT JUMPDEST POP JUMP JUMPDEST PUSH1 0x0 DUP2 CALLDATALOAD SWAP1 POP PUSH2 0x84E DUP2 PUSH2 0x828 JUMP JUMPDEST SWAP3 SWAP2 POP POP JUMP JUMPDEST PUSH1 0x0 PUSH1 0x20 DUP3 DUP5 SUB SLT ISZERO PUSH2 0x86A JUMPI PUSH2 0x869 PUSH2 0x7AE JUMP JUMPDEST JUMPDEST PUSH1 0x0 PUSH2 0x878 DUP5 DUP3 DUP6 ADD PUSH2 0x83F JUMP JUMPDEST SWAP2 POP POP SWAP3 SWAP2 POP POP JUMP JUMPDEST PUSH1 0x0 DUP2 MLOAD SWAP1 POP SWAP2 SWAP1 POP JUMP JUMPDEST PUSH1 0x0 DUP3 DUP3 MSTORE PUSH1 0x20 DUP3 ADD SWAP1 POP SWAP3 SWAP2 POP POP JUMP JUMPDEST PUSH1 0x0 DUP2 SWAP1 POP PUSH1 0x20 DUP3 ADD SWAP1 POP SWAP2 SWAP1 POP JUMP JUMPDEST PUSH2 0x8B6 DUP2 PUSH2 0x772 JUMP JUMPDEST DUP3 MSTORE POP POP JUMP JUMPDEST PUSH1 0x0 PUSH2 0x8C8 DUP4 DUP4 PUSH2 0x8AD JUMP JUMPDEST PUSH1 0x20 DUP4 ADD SWAP1 POP SWAP3 SWAP2 POP POP JUMP JUMPDEST PUSH1 0x0 PUSH1 0x20 DUP3 ADD SWAP1 POP SWAP2 SWAP1 POP JUMP JUMPDEST PUSH1 0x0 PUSH2 0x8EC DUP3 PUSH2 0x881 JUMP JUMPDEST PUSH2 0x8F6 DUP2 DUP6 PUSH2 0x88C JUMP JUMPDEST SWAP4 POP PUSH2 0x901 DUP4 PUSH2 0x89D JUMP JUMPDEST DUP1 PUSH1 0x0 JUMPDEST DUP4 DUP2 LT ISZERO PUSH2 0x932 JUMPI DUP2 MLOAD PUSH2 0x919 DUP9 DUP3 PUSH2 0x8BC JUMP JUMPDEST SWAP8 POP PUSH2 0x924 DUP4 PUSH2 0x8D4 JUMP JUMPDEST SWAP3 POP POP PUSH1 0x1 DUP2 ADD SWAP1 POP PUSH2 0x905 JUMP JUMPDEST POP DUP6 SWAP4 POP POP POP POP SWAP3 SWAP2 POP POP JUMP JUMPDEST PUSH1 0x0 PUSH1 0x20 DUP3 ADD SWAP1 POP DUP2 DUP2 SUB PUSH1 0x0 DUP4 ADD MSTORE PUSH2 0x959 DUP2 DUP5 PUSH2 0x8E1 JUMP JUMPDEST SWAP1 POP SWAP3 SWAP2 POP POP JUMP JUMPDEST PUSH32 0x4E487B7100000000000000000000000000000000000000000000000000000000 PUSH1 0x0 MSTORE PUSH1 0x32 PUSH1 0x4 MSTORE PUSH1 0x24 PUSH1 0x0 REVERT JUMPDEST PUSH32 0x4E487B7100000000000000000000000000000000000000000000000000000000 PUSH1 0x0 MSTORE PUSH1 0x11 PUSH1 0x4 MSTORE PUSH1 0x24 PUSH1 0x0 REVERT JUMPDEST PUSH1 0x0 PUSH2 0x9CA DUP3 PUSH2 0x81E JUMP JUMPDEST SWAP2 POP PUSH32 0xFFFFFFFFFFFFFFFFFFFFFFFFFFFFFFFFFFFFFFFFFFFFFFFFFFFFFFFFFFFFFFFF DUP3 EQ ISZERO PUSH2 0x9FD JUMPI PUSH2 0x9FC PUSH2 0x990 JUMP JUMPDEST JUMPDEST PUSH1 0x1 DUP3 ADD SWAP1 POP SWAP2 SWAP1 POP JUMP JUMPDEST PUSH1 0x0 DUP2 SWAP1 POP SWAP2 SWAP1 POP JUMP JUMPDEST PUSH2 0xA23 PUSH2 0xA1E DUP3 PUSH2 0x81E JUMP JUMPDEST PUSH2 0xA08 JUMP JUMPDEST DUP3 MSTORE POP POP JUMP JUMPDEST PUSH1 0x0 DUP2 SWAP1 POP SWAP3 SWAP2 POP POP JUMP JUMPDEST PUSH2 0xA3D DUP2 PUSH2 0x772 JUMP JUMPDEST DUP3 MSTORE POP POP JUMP JUMPDEST PUSH1 0x0 PUSH2 0xA4F DUP4 DUP4 PUSH2 0xA34 JUMP JUMPDEST PUSH1 0x20 DUP4 ADD SWAP1 POP SWAP3 SWAP2 POP POP JUMP JUMPDEST PUSH1 0x0 PUSH2 0xA66 DUP3 PUSH2 0x881 JUMP JUMPDEST PUSH2 0xA70 DUP2 DUP6 PUSH2 0xA29 JUMP JUMPDEST SWAP4 POP PUSH2 0xA7B DUP4 PUSH2 0x89D JUMP JUMPDEST DUP1 PUSH1 0x0 JUMPDEST DUP4 DUP2 LT ISZERO PUSH2 0xAAC JUMPI DUP2 MLOAD PUSH2 0xA93 DUP9 DUP3 PUSH2 0xA43 JUMP JUMPDEST SWAP8 POP PUSH2 0xA9E DUP4 PUSH2 0x8D4 JUMP JUMPDEST SWAP3 POP POP PUSH1 0x1 DUP2 ADD SWAP1 POP PUSH2 0xA7F JUMP JUMPDEST POP DUP6 SWAP4 POP POP POP POP SWAP3 SWAP2 POP POP JUMP JUMPDEST PUSH1 0x0 PUSH2 0xAC5 DUP3 DUP7 PUSH2 0xA12 JUMP JUMPDEST PUSH1 0x20 DUP3 ADD SWAP2 POP PUSH2 0xAD5 DUP3 DUP6 PUSH2 0xA12 JUMP JUMPDEST PUSH1 0x20 DUP3 ADD SWAP2 POP PUSH2 0xAE5 DUP3 DUP5 PUSH2 0xA5B JUMP JUMPDEST SWAP2 POP DUP2 SWAP1 POP SWAP5 SWAP4 POP POP POP POP JUMP JUMPDEST PUSH32 0x4E487B7100000000000000000000000000000000000000000000000000000000 PUSH1 0x0 MSTORE PUSH1 0x12 PUSH1 0x4 MSTORE PUSH1 0x24 PUSH1 0x0 REVERT JUMPDEST PUSH1 0x0 PUSH2 0xB2C DUP3 PUSH2 0x81E JUMP JUMPDEST SWAP2 POP PUSH2 0xB37 DUP4 PUSH2 0x81E JUMP JUMPDEST SWAP3 POP DUP3 PUSH2 0xB47 JUMPI PUSH2 0xB46 PUSH2 0xAF2 JUMP JUMPDEST JUMPDEST DUP3 DUP3 MOD SWAP1 POP SWAP3 SWAP2 POP POP JUMP JUMPDEST PUSH2 0xB5B DUP2 PUSH2 0x7B3 JUMP JUMPDEST DUP3 MSTORE POP POP JUMP JUMPDEST PUSH1 0x0 PUSH1 0x20 DUP3 ADD SWAP1 POP PUSH2 0xB76 PUSH1 0x0 DUP4 ADD DUP5 PUSH2 0xB52 JUMP JUMPDEST SWAP3 SWAP2 POP POP JUMP INVALID PUSH1 0x80 PUSH1 0x40 MSTORE CALLVALUE DUP1 ISZERO PUSH3 0x11 JUMPI PUSH1 0x0 DUP1 REVERT JUMPDEST POP PUSH1 0x40 MLOAD PUSH3 0x2A4D CODESIZE SUB DUP1 PUSH3 0x2A4D DUP4 CODECOPY DUP2 DUP2 ADD PUSH1 0x40 MSTORE DUP2 ADD SWAP1 PUSH3 0x37 SWAP2 SWAP1 PUSH3 0xE9 JUMP JUMPDEST DUP1 PUSH1 0x2 PUSH1 0x0 PUSH2 0x100 EXP DUP2 SLOAD DUP2 PUSH20 0xFFFFFFFFFFFFFFFFFFFFFFFFFFFFFFFFFFFFFFFF MUL NOT AND SWAP1 DUP4 PUSH20 0xFFFFFFFFFFFFFFFFFFFFFFFFFFFFFFFFFFFFFFFF AND MUL OR SWAP1 SSTORE POP POP PUSH3 0x11B JUMP JUMPDEST PUSH1 0x0 DUP1 REVERT JUMPDEST PUSH1 0x0 PUSH20 0xFFFFFFFFFFFFFFFFFFFFFFFFFFFFFFFFFFFFFFFF DUP3 AND SWAP1 POP SWAP2 SWAP1 POP JUMP JUMPDEST PUSH1 0x0 PUSH3 0xB1 DUP3 PUSH3 0x84 JUMP JUMPDEST SWAP1 POP SWAP2 SWAP1 POP JUMP JUMPDEST PUSH3 0xC3 DUP2 PUSH3 0xA4 JUMP JUMPDEST DUP2 EQ PUSH3 0xCF JUMPI PUSH1 0x0 DUP1 REVERT JUMPDEST POP JUMP JUMPDEST PUSH1 0x0 DUP2 MLOAD SWAP1 POP PUSH3 0xE3 DUP2 PUSH3 0xB8 JUMP JUMPDEST SWAP3 SWAP2 POP POP JUMP JUMPDEST PUSH1 0x0 PUSH1 0x20 DUP3 DUP5 SUB SLT ISZERO PUSH3 0x102 JUMPI PUSH3 0x101 PUSH3 0x7F JUMP JUMPDEST JUMPDEST PUSH1 0x0 PUSH3 0x112 DUP5 DUP3 DUP6 ADD PUSH3 0xD2 JUMP JUMPDEST SWAP2 POP POP SWAP3 SWAP2 POP POP JUMP JUMPDEST PUSH2 0x2922 DUP1 PUSH3 0x12B PUSH1 0x0 CODECOPY PUSH1 0x0 RETURN INVALID PUSH1 0x80 PUSH1 0x40 MSTORE CALLVALUE DUP1 ISZERO PUSH2 0x10 JUMPI PUSH1 0x0 DUP1 REVERT JUMPDEST POP PUSH1 0x4 CALLDATASIZE LT PUSH2 0xB4 JUMPI PUSH1 0x0 CALLDATALOAD PUSH1 0xE0 SHR DUP1 PUSH4 0xC2BB515F GT PUSH2 0x71 JUMPI DUP1 PUSH4 0xC2BB515F EQ PUSH2 0x17D JUMPI DUP1 PUSH4 0xCC3D967B EQ PUSH2 0x19B JUMPI DUP1 PUSH4 0xDF89F819 EQ PUSH2 0x1D3 JUMPI DUP1 PUSH4 0xEA00962F EQ PUSH2 0x1EF JUMPI DUP1 PUSH4 0xEDE3A670 EQ PUSH2 0x20D JUMPI DUP1 PUSH4 0xF203C19D EQ PUSH2 0x243 JUMPI PUSH2 0xB4 JUMP JUMPDEST DUP1 PUSH4 0x91BAC16 EQ PUSH2 0xB9 JUMPI DUP1 PUSH4 0x263B81C9 EQ PUSH2 0xEA JUMPI DUP1 PUSH4 0x311CC831 EQ PUSH2 0xF4 JUMPI DUP1 PUSH4 0x481C6A75 EQ PUSH2 0x110 JUMPI DUP1 PUSH4 0x509FDA0E EQ PUSH2 0x12E JUMPI DUP1 PUSH4 0xADB4D990 EQ PUSH2 0x15F JUMPI JUMPDEST PUSH1 0x0 DUP1 REVERT JUMPDEST PUSH2 0xD3 PUSH1 0x4 DUP1 CALLDATASIZE SUB DUP2 ADD SWAP1 PUSH2 0xCE SWAP2 SWAP1 PUSH2 0x2123 JUMP JUMPDEST PUSH2 0x261 JUMP JUMPDEST PUSH1 0x40 MLOAD PUSH2 0xE1 SWAP3 SWAP2 SWAP1 PUSH2 0x21E9 JUMP JUMPDEST PUSH1 0x40 MLOAD DUP1 SWAP2 SUB SWAP1 RETURN JUMPDEST PUSH2 0xF2 PUSH2 0x4BC JUMP JUMPDEST STOP JUMPDEST PUSH2 0x10E PUSH1 0x4 DUP1 CALLDATASIZE SUB DUP2 ADD SWAP1 PUSH2 0x109 SWAP2 SWAP1 PUSH2 0x2355 JUMP JUMPDEST PUSH2 0x5B9 JUMP JUMPDEST STOP JUMPDEST PUSH2 0x118 PUSH2 0xAD7 JUMP JUMPDEST PUSH1 0x40 MLOAD PUSH2 0x125 SWAP2 SWAP1 PUSH2 0x258C JUMP JUMPDEST PUSH1 0x40 MLOAD DUP1 SWAP2 SUB SWAP1 RETURN JUMPDEST PUSH2 0x148 PUSH1 0x4 DUP1 CALLDATASIZE SUB DUP2 ADD SWAP1 PUSH2 0x143 SWAP2 SWAP1 PUSH2 0x2123 JUMP JUMPDEST PUSH2 0xAFD JUMP JUMPDEST PUSH1 0x40 MLOAD PUSH2 0x156 SWAP3 SWAP2 SWAP1 PUSH2 0x21E9 JUMP JUMPDEST PUSH1 0x40 MLOAD DUP1 SWAP2 SUB SWAP1 RETURN JUMPDEST PUSH2 0x167 PUSH2 0xCFE JUMP JUMPDEST PUSH1 0x40 MLOAD PUSH2 0x174 SWAP2 SWAP1 PUSH2 0x258C JUMP JUMPDEST PUSH1 0x40 MLOAD DUP1 SWAP2 SUB SWAP1 RETURN JUMPDEST PUSH2 0x185 PUSH2 0xD24 JUMP JUMPDEST PUSH1 0x40 MLOAD PUSH2 0x192 SWAP2 SWAP1 PUSH2 0x2685 JUMP JUMPDEST PUSH1 0x40 MLOAD DUP1 SWAP2 SUB SWAP1 RETURN JUMPDEST PUSH2 0x1B5 PUSH1 0x4 DUP1 CALLDATASIZE SUB DUP2 ADD SWAP1 PUSH2 0x1B0 SWAP2 SWAP1 PUSH2 0x2123 JUMP JUMPDEST PUSH2 0xED3 JUMP JUMPDEST PUSH1 0x40 MLOAD PUSH2 0x1CA SWAP10 SWAP9 SWAP8 SWAP7 SWAP6 SWAP5 SWAP4 SWAP3 SWAP2 SWAP1 PUSH2 0x26A7 JUMP JUMPDEST PUSH1 0x40 MLOAD DUP1 SWAP2 SUB SWAP1 RETURN JUMPDEST PUSH2 0x1ED PUSH1 0x4 DUP1 CALLDATASIZE SUB DUP2 ADD SWAP1 PUSH2 0x1E8 SWAP2 SWAP1 PUSH2 0x2773 JUMP JUMPDEST PUSH2 0x1824 JUMP JUMPDEST STOP JUMPDEST PUSH2 0x1F7 PUSH2 0x1908 JUMP JUMPDEST PUSH1 0x40 MLOAD PUSH2 0x204 SWAP2 SWAP1 PUSH2 0x258C JUMP JUMPDEST PUSH1 0x40 MLOAD DUP1 SWAP2 SUB SWAP1 RETURN JUMPDEST PUSH2 0x227 PUSH1 0x4 DUP1 CALLDATASIZE SUB DUP2 ADD SWAP1 PUSH2 0x222 SWAP2 SWAP1 PUSH2 0x2123 JUMP JUMPDEST PUSH2 0x1931 JUMP JUMPDEST PUSH1 0x40 MLOAD PUSH2 0x23A SWAP8 SWAP7 SWAP6 SWAP5 SWAP4 SWAP3 SWAP2 SWAP1 PUSH2 0x27EB JUMP JUMPDEST PUSH1 0x40 MLOAD DUP1 SWAP2 SUB SWAP1 RETURN JUMPDEST PUSH2 0x24B PUSH2 0x1FAA JUMP JUMPDEST PUSH1 0x40 MLOAD PUSH2 0x258 SWAP2 SWAP1 PUSH2 0x258C JUMP JUMPDEST PUSH1 0x40 MLOAD DUP1 SWAP2 SUB SWAP1 RETURN JUMPDEST PUSH1 0x60 DUP1 PUSH1 0x1 PUSH1 0x0 DUP5 PUSH20 0xFFFFFFFFFFFFFFFFFFFFFFFFFFFFFFFFFFFFFFFF AND PUSH20 0xFFFFFFFFFFFFFFFFFFFFFFFFFFFFFFFFFFFFFFFF AND DUP2 MSTORE PUSH1 0x20 ADD SWAP1 DUP2 MSTORE PUSH1 0x20 ADD PUSH1 0x0 KECCAK256 PUSH1 0x9 ADD PUSH1 0x0 SWAP1 SLOAD SWAP1 PUSH2 0x100 EXP SWAP1 DIV PUSH1 0xFF AND PUSH2 0x2BD JUMPI PUSH1 0x0 DUP1 REVERT JUMPDEST PUSH1 0x2 PUSH1 0x0 SWAP1 SLOAD SWAP1 PUSH2 0x100 EXP SWAP1 DIV PUSH20 0xFFFFFFFFFFFFFFFFFFFFFFFFFFFFFFFFFFFFFFFF AND PUSH20 0xFFFFFFFFFFFFFFFFFFFFFFFFFFFFFFFFFFFFFFFF AND DUP4 PUSH20 0xFFFFFFFFFFFFFFFFFFFFFFFFFFFFFFFFFFFFFFFF AND EQ PUSH2 0x317 JUMPI PUSH1 0x0 DUP1 REVERT JUMPDEST PUSH1 0x1 PUSH1 0x0 DUP5 PUSH20 0xFFFFFFFFFFFFFFFFFFFFFFFFFFFFFFFFFFFFFFFF AND PUSH20 0xFFFFFFFFFFFFFFFFFFFFFFFFFFFFFFFFFFFFFFFF AND DUP2 MSTORE PUSH1 0x20 ADD SWAP1 DUP2 MSTORE PUSH1 0x20 ADD PUSH1 0x0 KECCAK256 PUSH1 0x7 ADD PUSH1 0x1 PUSH1 0x0 DUP6 PUSH20 0xFFFFFFFFFFFFFFFFFFFFFFFFFFFFFFFFFFFFFFFF AND PUSH20 0xFFFFFFFFFFFFFFFFFFFFFFFFFFFFFFFFFFFFFFFF AND DUP2 MSTORE PUSH1 0x20 ADD SWAP1 DUP2 MSTORE PUSH1 0x20 ADD PUSH1 0x0 KECCAK256 PUSH1 0x8 ADD DUP2 DUP1 SLOAD PUSH2 0x3A7 SWAP1 PUSH2 0x28BA JUMP JUMPDEST DUP1 PUSH1 0x1F ADD PUSH1 0x20 DUP1 SWAP2 DIV MUL PUSH1 0x20 ADD PUSH1 0x40 MLOAD SWAP1 DUP2 ADD PUSH1 0x40 MSTORE DUP1 SWAP3 SWAP2 SWAP1 DUP2 DUP2 MSTORE PUSH1 0x20 ADD DUP3 DUP1 SLOAD PUSH2 0x3D3 SWAP1 PUSH2 0x28BA JUMP JUMPDEST DUP1 ISZERO PUSH2 0x420 JUMPI DUP1 PUSH1 0x1F LT PUSH2 0x3F5 JUMPI PUSH2 0x100 DUP1 DUP4 SLOAD DIV MUL DUP4 MSTORE SWAP2 PUSH1 0x20 ADD SWAP2 PUSH2 0x420 JUMP JUMPDEST DUP3 ADD SWAP2 SWAP1 PUSH1 0x0 MSTORE PUSH1 0x20 PUSH1 0x0 KECCAK256 SWAP1 JUMPDEST DUP2 SLOAD DUP2 MSTORE SWAP1 PUSH1 0x1 ADD SWAP1 PUSH1 0x20 ADD DUP1 DUP4 GT PUSH2 0x403 JUMPI DUP3 SWAP1 SUB PUSH1 0x1F AND DUP3 ADD SWAP2 JUMPDEST POP POP POP POP POP SWAP2 POP DUP1 DUP1 SLOAD PUSH2 0x433 SWAP1 PUSH2 0x28BA JUMP JUMPDEST DUP1 PUSH1 0x1F ADD PUSH1 0x20 DUP1 SWAP2 DIV MUL PUSH1 0x20 ADD PUSH1 0x40 MLOAD SWAP1 DUP2 ADD PUSH1 0x40 MSTORE DUP1 SWAP3 SWAP2 SWAP1 DUP2 DUP2 MSTORE PUSH1 0x20 ADD DUP3 DUP1 SLOAD PUSH2 0x45F SWAP1 PUSH2 0x28BA JUMP JUMPDEST DUP1 ISZERO PUSH2 0x4AC JUMPI DUP1 PUSH1 0x1F LT PUSH2 0x481 JUMPI PUSH2 0x100 DUP1 DUP4 SLOAD DIV MUL DUP4 MSTORE SWAP2 PUSH1 0x20 ADD SWAP2 PUSH2 0x4AC JUMP JUMPDEST DUP3 ADD SWAP2 SWAP1 PUSH1 0x0 MSTORE PUSH1 0x20 PUSH1 0x0 KECCAK256 SWAP1 JUMPDEST DUP2 SLOAD DUP2 MSTORE SWAP1 PUSH1 0x1 ADD SWAP1 PUSH1 0x20 ADD DUP1 DUP4 GT PUSH2 0x48F JUMPI DUP3 SWAP1 SUB PUSH1 0x1F AND DUP3 ADD SWAP2 JUMPDEST POP POP POP POP POP SWAP1 POP SWAP2 POP SWAP2 POP SWAP2 POP SWAP2 JUMP JUMPDEST PUSH1 0x2 PUSH1 0x0 SWAP1 SLOAD SWAP1 PUSH2 0x100 EXP SWAP1 DIV PUSH20 0xFFFFFFFFFFFFFFFFFFFFFFFFFFFFFFFFFFFFFFFF AND PUSH20 0xFFFFFFFFFFFFFFFFFFFFFFFFFFFFFFFFFFFFFFFF AND CALLER PUSH20 0xFFFFFFFFFFFFFFFFFFFFFFFFFFFFFFFFFFFFFFFF AND EQ PUSH2 0x516 JUMPI PUSH1 0x0 DUP1 REVERT JUMPDEST PUSH1 0x4 PUSH1 0x2 ADD PUSH1 0x14 SWAP1 SLOAD SWAP1 PUSH2 0x100 EXP SWAP1 DIV PUSH1 0xFF AND ISZERO PUSH2 0x533 JUMPI PUSH1 0x0 DUP1 REVERT JUMPDEST PUSH1 0x4 PUSH1 0x2 ADD PUSH1 0x0 SWAP1 SLOAD SWAP1 PUSH2 0x100 EXP SWAP1 DIV PUSH20 0xFFFFFFFFFFFFFFFFFFFFFFFFFFFFFFFFFFFFFFFF AND PUSH1 0x3 PUSH1 0x0 PUSH2 0x100 EXP DUP2 SLOAD DUP2 PUSH20 0xFFFFFFFFFFFFFFFFFFFFFFFFFFFFFFFFFFFFFFFF MUL NOT AND SWAP1 DUP4 PUSH20 0xFFFFFFFFFFFFFFFFFFFFFFFFFFFFFFFFFFFFFFFF AND MUL OR SWAP1 SSTORE POP PUSH1 0x1 PUSH1 0x4 PUSH1 0x2 ADD PUSH1 0x14 PUSH2 0x100 EXP DUP2 SLOAD DUP2 PUSH1 0xFF MUL NOT AND SWAP1 DUP4 ISZERO ISZERO MUL OR SWAP1 SSTORE POP JUMP JUMPDEST PUSH1 0x2 PUSH1 0x0 SWAP1 SLOAD SWAP1 PUSH2 0x100 EXP SWAP1 DIV PUSH20 0xFFFFFFFFFFFFFFFFFFFFFFFFFFFFFFFFFFFFFFFF AND PUSH20 0xFFFFFFFFFFFFFFFFFFFFFFFFFFFFFFFFFFFFFFFF AND CALLER PUSH20 0xFFFFFFFFFFFFFFFFFFFFFFFFFFFFFFFFFFFFFFFF AND EQ PUSH2 0x613 JUMPI PUSH1 0x0 DUP1 REVERT JUMPDEST PUSH1 0x0 CALLER SWAP1 POP PUSH1 0x1 PUSH1 0x0 DUP3 PUSH20 0xFFFFFFFFFFFFFFFFFFFFFFFFFFFFFFFFFFFFFFFF AND PUSH20 0xFFFFFFFFFFFFFFFFFFFFFFFFFFFFFFFFFFFFFFFF AND DUP2 MSTORE PUSH1 0x20 ADD SWAP1 DUP2 MSTORE PUSH1 0x20 ADD PUSH1 0x0 KECCAK256 PUSH1 0x9 ADD PUSH1 0x0 SWAP1 SLOAD SWAP1 PUSH2 0x100 EXP SWAP1 DIV PUSH1 0xFF AND ISZERO PUSH2 0x672 JUMPI PUSH1 0x0 DUP1 REVERT JUMPDEST DUP1 PUSH1 0x0 DUP1 PUSH2 0x100 EXP DUP2 SLOAD DUP2 PUSH20 0xFFFFFFFFFFFFFFFFFFFFFFFFFFFFFFFFFFFFFFFF MUL NOT AND SWAP1 DUP4 PUSH20 0xFFFFFFFFFFFFFFFFFFFFFFFFFFFFFFFFFFFFFFFF AND MUL OR SWAP1 SSTORE POP DUP12 PUSH1 0x1 PUSH1 0x0 DUP4 PUSH20 0xFFFFFFFFFFFFFFFFFFFFFFFFFFFFFFFFFFFFFFFF AND PUSH20 0xFFFFFFFFFFFFFFFFFFFFFFFFFFFFFFFFFFFFFFFF AND DUP2 MSTORE PUSH1 0x20 ADD SWAP1 DUP2 MSTORE PUSH1 0x20 ADD PUSH1 0x0 KECCAK256 PUSH1 0x0 ADD SWAP1 DUP1 MLOAD SWAP1 PUSH1 0x20 ADD SWAP1 PUSH2 0x708 SWAP3 SWAP2 SWAP1 PUSH2 0x1FCE JUMP JUMPDEST POP DUP11 PUSH1 0x1 PUSH1 0x0 DUP4 PUSH20 0xFFFFFFFFFFFFFFFFFFFFFFFFFFFFFFFFFFFFFFFF AND PUSH20 0xFFFFFFFFFFFFFFFFFFFFFFFFFFFFFFFFFFFFFFFF AND DUP2 MSTORE PUSH1 0x20 ADD SWAP1 DUP2 MSTORE PUSH1 0x20 ADD PUSH1 0x0 KECCAK256 PUSH1 0x1 ADD SWAP1 DUP1 MLOAD SWAP1 PUSH1 0x20 ADD SWAP1 PUSH2 0x75F SWAP3 SWAP2 SWAP1 PUSH2 0x1FCE JUMP JUMPDEST POP DUP10 PUSH1 0x1 PUSH1 0x0 DUP4 PUSH20 0xFFFFFFFFFFFFFFFFFFFFFFFFFFFFFFFFFFFFFFFF AND PUSH20 0xFFFFFFFFFFFFFFFFFFFFFFFFFFFFFFFFFFFFFFFF AND DUP2 MSTORE PUSH1 0x20 ADD SWAP1 DUP2 MSTORE PUSH1 0x20 ADD PUSH1 0x0 KECCAK256 PUSH1 0x2 ADD SWAP1 DUP1 MLOAD SWAP1 PUSH1 0x20 ADD SWAP1 PUSH2 0x7B6 SWAP3 SWAP2 SWAP1 PUSH2 0x1FCE JUMP JUMPDEST POP DUP9 PUSH1 0x1 PUSH1 0x0 DUP4 PUSH20 0xFFFFFFFFFFFFFFFFFFFFFFFFFFFFFFFFFFFFFFFF AND PUSH20 0xFFFFFFFFFFFFFFFFFFFFFFFFFFFFFFFFFFFFFFFF AND DUP2 MSTORE PUSH1 0x20 ADD SWAP1 DUP2 MSTORE PUSH1 0x20 ADD PUSH1 0x0 KECCAK256 PUSH1 0x3 ADD SWAP1 DUP1 MLOAD SWAP1 PUSH1 0x20 ADD SWAP1 PUSH2 0x80D SWAP3 SWAP2 SWAP1 PUSH2 0x1FCE JUMP JUMPDEST POP DUP8 PUSH1 0x1 PUSH1 0x0 DUP4 PUSH20 0xFFFFFFFFFFFFFFFFFFFFFFFFFFFFFFFFFFFFFFFF AND PUSH20 0xFFFFFFFFFFFFFFFFFFFFFFFFFFFFFFFFFFFFFFFF AND DUP2 MSTORE PUSH1 0x20 ADD SWAP1 DUP2 MSTORE PUSH1 0x20 ADD PUSH1 0x0 KECCAK256 PUSH1 0x4 ADD SWAP1 DUP1 MLOAD SWAP1 PUSH1 0x20 ADD SWAP1 PUSH2 0x864 SWAP3 SWAP2 SWAP1 PUSH2 0x1FCE JUMP JUMPDEST POP DUP7 PUSH1 0x1 PUSH1 0x0 DUP4 PUSH20 0xFFFFFFFFFFFFFFFFFFFFFFFFFFFFFFFFFFFFFFFF AND PUSH20 0xFFFFFFFFFFFFFFFFFFFFFFFFFFFFFFFFFFFFFFFF AND DUP2 MSTORE PUSH1 0x20 ADD SWAP1 DUP2 MSTORE PUSH1 0x20 ADD PUSH1 0x0 KECCAK256 PUSH1 0x5 ADD SWAP1 DUP1 MLOAD SWAP1 PUSH1 0x20 ADD SWAP1 PUSH2 0x8BB SWAP3 SWAP2 SWAP1 PUSH2 0x1FCE JUMP JUMPDEST POP DUP6 PUSH1 0x1 PUSH1 0x0 DUP4 PUSH20 0xFFFFFFFFFFFFFFFFFFFFFFFFFFFFFFFFFFFFFFFF AND PUSH20 0xFFFFFFFFFFFFFFFFFFFFFFFFFFFFFFFFFFFFFFFF AND DUP2 MSTORE PUSH1 0x20 ADD SWAP1 DUP2 MSTORE PUSH1 0x20 ADD PUSH1 0x0 KECCAK256 PUSH1 0x6 ADD SWAP1 DUP1 MLOAD SWAP1 PUSH1 0x20 ADD SWAP1 PUSH2 0x912 SWAP3 SWAP2 SWAP1 PUSH2 0x1FCE JUMP JUMPDEST POP DUP5 PUSH1 0x1 PUSH1 0x0 DUP4 PUSH20 0xFFFFFFFFFFFFFFFFFFFFFFFFFFFFFFFFFFFFFFFF AND PUSH20 0xFFFFFFFFFFFFFFFFFFFFFFFFFFFFFFFFFFFFFFFF AND DUP2 MSTORE PUSH1 0x20 ADD SWAP1 DUP2 MSTORE PUSH1 0x20 ADD PUSH1 0x0 KECCAK256 PUSH1 0x7 ADD SWAP1 DUP1 MLOAD SWAP1 PUSH1 0x20 ADD SWAP1 PUSH2 0x969 SWAP3 SWAP2 SWAP1 PUSH2 0x1FCE JUMP JUMPDEST POP DUP4 PUSH1 0x1 PUSH1 0x0 DUP4 PUSH20 0xFFFFFFFFFFFFFFFFFFFFFFFFFFFFFFFFFFFFFFFF AND PUSH20 0xFFFFFFFFFFFFFFFFFFFFFFFFFFFFFFFFFFFFFFFF AND DUP2 MSTORE PUSH1 0x20 ADD SWAP1 DUP2 MSTORE PUSH1 0x20 ADD PUSH1 0x0 KECCAK256 PUSH1 0x8 ADD SWAP1 DUP1 MLOAD SWAP1 PUSH1 0x20 ADD SWAP1 PUSH2 0x9C0 SWAP3 SWAP2 SWAP1 PUSH2 0x1FCE JUMP JUMPDEST POP DUP3 PUSH1 0x1 PUSH1 0x0 DUP4 PUSH20 0xFFFFFFFFFFFFFFFFFFFFFFFFFFFFFFFFFFFFFFFF AND PUSH20 0xFFFFFFFFFFFFFFFFFFFFFFFFFFFFFFFFFFFFFFFF AND DUP2 MSTORE PUSH1 0x20 ADD SWAP1 DUP2 MSTORE PUSH1 0x20 ADD PUSH1 0x0 KECCAK256 PUSH1 0xA ADD SWAP1 DUP1 MLOAD SWAP1 PUSH1 0x20 ADD SWAP1 PUSH2 0xA17 SWAP3 SWAP2 SWAP1 PUSH2 0x1FCE JUMP JUMPDEST POP DUP2 PUSH1 0x1 PUSH1 0x0 DUP4 PUSH20 0xFFFFFFFFFFFFFFFFFFFFFFFFFFFFFFFFFFFFFFFF AND PUSH20 0xFFFFFFFFFFFFFFFFFFFFFFFFFFFFFFFFFFFFFFFF AND DUP2 MSTORE PUSH1 0x20 ADD SWAP1 DUP2 MSTORE PUSH1 0x20 ADD PUSH1 0x0 KECCAK256 PUSH1 0xB ADD SWAP1 DUP1 MLOAD SWAP1 PUSH1 0x20 ADD SWAP1 PUSH2 0xA6E SWAP3 SWAP2 SWAP1 PUSH2 0x1FCE JUMP JUMPDEST POP PUSH1 0x1 DUP1 PUSH1 0x0 DUP4 PUSH20 0xFFFFFFFFFFFFFFFFFFFFFFFFFFFFFFFFFFFFFFFF AND PUSH20 0xFFFFFFFFFFFFFFFFFFFFFFFFFFFFFFFFFFFFFFFF AND DUP2 MSTORE PUSH1 0x20 ADD SWAP1 DUP2 MSTORE PUSH1 0x20 ADD PUSH1 0x0 KECCAK256 PUSH1 0x9 ADD PUSH1 0x0 PUSH2 0x100 EXP DUP2 SLOAD DUP2 PUSH1 0xFF MUL NOT AND SWAP1 DUP4 ISZERO ISZERO MUL OR SWAP1 SSTORE POP POP POP POP POP POP POP POP POP POP POP POP POP JUMP JUMPDEST PUSH1 0x2 PUSH1 0x0 SWAP1 SLOAD SWAP1 PUSH2 0x100 EXP SWAP1 DIV PUSH20 0xFFFFFFFFFFFFFFFFFFFFFFFFFFFFFFFFFFFFFFFF AND DUP2 JUMP JUMPDEST PUSH1 0x60 DUP1 PUSH1 0x1 PUSH1 0x0 DUP5 PUSH20 0xFFFFFFFFFFFFFFFFFFFFFFFFFFFFFFFFFFFFFFFF AND PUSH20 0xFFFFFFFFFFFFFFFFFFFFFFFFFFFFFFFFFFFFFFFF AND DUP2 MSTORE PUSH1 0x20 ADD SWAP1 DUP2 MSTORE PUSH1 0x20 ADD PUSH1 0x0 KECCAK256 PUSH1 0x9 ADD PUSH1 0x0 SWAP1 SLOAD SWAP1 PUSH2 0x100 EXP SWAP1 DIV PUSH1 0xFF AND PUSH2 0xB59 JUMPI PUSH1 0x0 DUP1 REVERT JUMPDEST PUSH1 0x1 PUSH1 0x0 DUP5 PUSH20 0xFFFFFFFFFFFFFFFFFFFFFFFFFFFFFFFFFFFFFFFF AND PUSH20 0xFFFFFFFFFFFFFFFFFFFFFFFFFFFFFFFFFFFFFFFF AND DUP2 MSTORE PUSH1 0x20 ADD SWAP1 DUP2 MSTORE PUSH1 0x20 ADD PUSH1 0x0 KECCAK256 PUSH1 0xA ADD PUSH1 0x1 PUSH1 0x0 DUP6 PUSH20 0xFFFFFFFFFFFFFFFFFFFFFFFFFFFFFFFFFFFFFFFF AND PUSH20 0xFFFFFFFFFFFFFFFFFFFFFFFFFFFFFFFFFFFFFFFF AND DUP2 MSTORE PUSH1 0x20 ADD SWAP1 DUP2 MSTORE PUSH1 0x20 ADD PUSH1 0x0 KECCAK256 PUSH1 0xB ADD DUP2 DUP1 SLOAD PUSH2 0xBE9 SWAP1 PUSH2 0x28BA JUMP JUMPDEST DUP1 PUSH1 0x1F ADD PUSH1 0x20 DUP1 SWAP2 DIV MUL PUSH1 0x20 ADD PUSH1 0x40 MLOAD SWAP1 DUP2 ADD PUSH1 0x40 MSTORE DUP1 SWAP3 SWAP2 SWAP1 DUP2 DUP2 MSTORE PUSH1 0x20 ADD DUP3 DUP1 SLOAD PUSH2 0xC15 SWAP1 PUSH2 0x28BA JUMP JUMPDEST DUP1 ISZERO PUSH2 0xC62 JUMPI DUP1 PUSH1 0x1F LT PUSH2 0xC37 JUMPI PUSH2 0x100 DUP1 DUP4 SLOAD DIV MUL DUP4 MSTORE SWAP2 PUSH1 0x20 ADD SWAP2 PUSH2 0xC62 JUMP JUMPDEST DUP3 ADD SWAP2 SWAP1 PUSH1 0x0 MSTORE PUSH1 0x20 PUSH1 0x0 KECCAK256 SWAP1 JUMPDEST DUP2 SLOAD DUP2 MSTORE SWAP1 PUSH1 0x1 ADD SWAP1 PUSH1 0x20 ADD DUP1 DUP4 GT PUSH2 0xC45 JUMPI DUP3 SWAP1 SUB PUSH1 0x1F AND DUP3 ADD SWAP2 JUMPDEST POP POP POP POP POP SWAP2 POP DUP1 DUP1 SLOAD PUSH2 0xC75 SWAP1 PUSH2 0x28BA JUMP JUMPDEST DUP1 PUSH1 0x1F ADD PUSH1 0x20 DUP1 SWAP2 DIV MUL PUSH1 0x20 ADD PUSH1 0x40 MLOAD SWAP1 DUP2 ADD PUSH1 0x40 MSTORE DUP1 SWAP3 SWAP2 SWAP1 DUP2 DUP2 MSTORE PUSH1 0x20 ADD DUP3 DUP1 SLOAD PUSH2 0xCA1 SWAP1 PUSH2 0x28BA JUMP JUMPDEST DUP1 ISZERO PUSH2 0xCEE JUMPI DUP1 PUSH1 0x1F LT PUSH2 0xCC3 JUMPI PUSH2 0x100 DUP1 DUP4 SLOAD DIV MUL DUP4 MSTORE SWAP2 PUSH1 0x20 ADD SWAP2 PUSH2 0xCEE JUMP JUMPDEST DUP3 ADD SWAP2 SWAP1 PUSH1 0x0 MSTORE PUSH1 0x20 PUSH1 0x0 KECCAK256 SWAP1 JUMPDEST DUP2 SLOAD DUP2 MSTORE SWAP1 PUSH1 0x1 ADD SWAP1 PUSH1 0x20 ADD DUP1 DUP4 GT PUSH2 0xCD1 JUMPI DUP3 SWAP1 SUB PUSH1 0x1F AND DUP3 ADD SWAP2 JUMPDEST POP POP POP POP POP SWAP1 POP SWAP2 POP SWAP2 POP SWAP2 POP SWAP2 JUMP JUMPDEST PUSH1 0x3 PUSH1 0x0 SWAP1 SLOAD SWAP1 PUSH2 0x100 EXP SWAP1 DIV PUSH20 0xFFFFFFFFFFFFFFFFFFFFFFFFFFFFFFFFFFFFFFFF AND DUP2 JUMP JUMPDEST PUSH2 0xD2C PUSH2 0x2054 JUMP JUMPDEST PUSH1 0x4 PUSH1 0x40 MLOAD DUP1 PUSH1 0x80 ADD PUSH1 0x40 MSTORE SWAP1 DUP2 PUSH1 0x0 DUP3 ADD DUP1 SLOAD PUSH2 0xD49 SWAP1 PUSH2 0x28BA JUMP JUMPDEST DUP1 PUSH1 0x1F ADD PUSH1 0x20 DUP1 SWAP2 DIV MUL PUSH1 0x20 ADD PUSH1 0x40 MLOAD SWAP1 DUP2 ADD PUSH1 0x40 MSTORE DUP1 SWAP3 SWAP2 SWAP1 DUP2 DUP2 MSTORE PUSH1 0x20 ADD DUP3 DUP1 SLOAD PUSH2 0xD75 SWAP1 PUSH2 0x28BA JUMP JUMPDEST DUP1 ISZERO PUSH2 0xDC2 JUMPI DUP1 PUSH1 0x1F LT PUSH2 0xD97 JUMPI PUSH2 0x100 DUP1 DUP4 SLOAD DIV MUL DUP4 MSTORE SWAP2 PUSH1 0x20 ADD SWAP2 PUSH2 0xDC2 JUMP JUMPDEST DUP3 ADD SWAP2 SWAP1 PUSH1 0x0 MSTORE PUSH1 0x20 PUSH1 0x0 KECCAK256 SWAP1 JUMPDEST DUP2 SLOAD DUP2 MSTORE SWAP1 PUSH1 0x1 ADD SWAP1 PUSH1 0x20 ADD DUP1 DUP4 GT PUSH2 0xDA5 JUMPI DUP3 SWAP1 SUB PUSH1 0x1F AND DUP3 ADD SWAP2 JUMPDEST POP POP POP POP POP DUP2 MSTORE PUSH1 0x20 ADD PUSH1 0x1 DUP3 ADD DUP1 SLOAD PUSH2 0xDDB SWAP1 PUSH2 0x28BA JUMP JUMPDEST DUP1 PUSH1 0x1F ADD PUSH1 0x20 DUP1 SWAP2 DIV MUL PUSH1 0x20 ADD PUSH1 0x40 MLOAD SWAP1 DUP2 ADD PUSH1 0x40 MSTORE DUP1 SWAP3 SWAP2 SWAP1 DUP2 DUP2 MSTORE PUSH1 0x20 ADD DUP3 DUP1 SLOAD PUSH2 0xE07 SWAP1 PUSH2 0x28BA JUMP JUMPDEST DUP1 ISZERO PUSH2 0xE54 JUMPI DUP1 PUSH1 0x1F LT PUSH2 0xE29 JUMPI PUSH2 0x100 DUP1 DUP4 SLOAD DIV MUL DUP4 MSTORE SWAP2 PUSH1 0x20 ADD SWAP2 PUSH2 0xE54 JUMP JUMPDEST DUP3 ADD SWAP2 SWAP1 PUSH1 0x0 MSTORE PUSH1 0x20 PUSH1 0x0 KECCAK256 SWAP1 JUMPDEST DUP2 SLOAD DUP2 MSTORE SWAP1 PUSH1 0x1 ADD SWAP1 PUSH1 0x20 ADD DUP1 DUP4 GT PUSH2 0xE37 JUMPI DUP3 SWAP1 SUB PUSH1 0x1F AND DUP3 ADD SWAP2 JUMPDEST POP POP POP POP POP DUP2 MSTORE PUSH1 0x20 ADD PUSH1 0x2 DUP3 ADD PUSH1 0x0 SWAP1 SLOAD SWAP1 PUSH2 0x100 EXP SWAP1 DIV PUSH20 0xFFFFFFFFFFFFFFFFFFFFFFFFFFFFFFFFFFFFFFFF AND PUSH20 0xFFFFFFFFFFFFFFFFFFFFFFFFFFFFFFFFFFFFFFFF AND PUSH20 0xFFFFFFFFFFFFFFFFFFFFFFFFFFFFFFFFFFFFFFFF AND DUP2 MSTORE PUSH1 0x20 ADD PUSH1 0x2 DUP3 ADD PUSH1 0x14 SWAP1 SLOAD SWAP1 PUSH2 0x100 EXP SWAP1 DIV PUSH1 0xFF AND ISZERO ISZERO ISZERO ISZERO DUP2 MSTORE POP POP SWAP1 POP SWAP1 JUMP JUMPDEST PUSH1 0x60 DUP1 PUSH1 0x60 DUP1 PUSH1 0x60 DUP1 PUSH1 0x60 DUP1 PUSH1 0x60 PUSH1 0x3 PUSH1 0x0 SWAP1 SLOAD SWAP1 PUSH2 0x100 EXP SWAP1 DIV PUSH20 0xFFFFFFFFFFFFFFFFFFFFFFFFFFFFFFFFFFFFFFFF AND PUSH20 0xFFFFFFFFFFFFFFFFFFFFFFFFFFFFFFFFFFFFFFFF AND CALLER PUSH20 0xFFFFFFFFFFFFFFFFFFFFFFFFFFFFFFFFFFFFFFFF AND EQ PUSH2 0xF3B JUMPI PUSH1 0x0 DUP1 REVERT JUMPDEST DUP10 PUSH20 0xFFFFFFFFFFFFFFFFFFFFFFFFFFFFFFFFFFFFFFFF AND PUSH1 0x3 PUSH1 0x0 SWAP1 SLOAD SWAP1 PUSH2 0x100 EXP SWAP1 DIV PUSH20 0xFFFFFFFFFFFFFFFFFFFFFFFFFFFFFFFFFFFFFFFF AND PUSH20 0xFFFFFFFFFFFFFFFFFFFFFFFFFFFFFFFFFFFFFFFF AND EQ PUSH2 0xF95 JUMPI PUSH1 0x0 DUP1 REVERT JUMPDEST PUSH1 0x1 PUSH1 0x0 PUSH1 0x2 PUSH1 0x0 SWAP1 SLOAD SWAP1 PUSH2 0x100 EXP SWAP1 DIV PUSH20 0xFFFFFFFFFFFFFFFFFFFFFFFFFFFFFFFFFFFFFFFF AND PUSH20 0xFFFFFFFFFFFFFFFFFFFFFFFFFFFFFFFFFFFFFFFF AND PUSH20 0xFFFFFFFFFFFFFFFFFFFFFFFFFFFFFFFFFFFFFFFF AND DUP2 MSTORE PUSH1 0x20 ADD SWAP1 DUP2 MSTORE PUSH1 0x20 ADD PUSH1 0x0 KECCAK256 PUSH1 0x0 ADD PUSH1 0x1 PUSH1 0x0 PUSH1 0x2 PUSH1 0x0 SWAP1 SLOAD SWAP1 PUSH2 0x100 EXP SWAP1 DIV PUSH20 0xFFFFFFFFFFFFFFFFFFFFFFFFFFFFFFFFFFFFFFFF AND PUSH20 0xFFFFFFFFFFFFFFFFFFFFFFFFFFFFFFFFFFFFFFFF AND PUSH20 0xFFFFFFFFFFFFFFFFFFFFFFFFFFFFFFFFFFFFFFFF AND DUP2 MSTORE PUSH1 0x20 ADD SWAP1 DUP2 MSTORE PUSH1 0x20 ADD PUSH1 0x0 KECCAK256 PUSH1 0x1 ADD PUSH1 0x1 PUSH1 0x0 PUSH1 0x2 PUSH1 0x0 SWAP1 SLOAD SWAP1 PUSH2 0x100 EXP SWAP1 DIV PUSH20 0xFFFFFFFFFFFFFFFFFFFFFFFFFFFFFFFFFFFFFFFF AND PUSH20 0xFFFFFFFFFFFFFFFFFFFFFFFFFFFFFFFFFFFFFFFF AND PUSH20 0xFFFFFFFFFFFFFFFFFFFFFFFFFFFFFFFFFFFFFFFF AND DUP2 MSTORE PUSH1 0x20 ADD SWAP1 DUP2 MSTORE PUSH1 0x20 ADD PUSH1 0x0 KECCAK256 PUSH1 0x2 ADD PUSH1 0x1 PUSH1 0x0 PUSH1 0x2 PUSH1 0x0 SWAP1 SLOAD SWAP1 PUSH2 0x100 EXP SWAP1 DIV PUSH20 0xFFFFFFFFFFFFFFFFFFFFFFFFFFFFFFFFFFFFFFFF AND PUSH20 0xFFFFFFFFFFFFFFFFFFFFFFFFFFFFFFFFFFFFFFFF AND PUSH20 0xFFFFFFFFFFFFFFFFFFFFFFFFFFFFFFFFFFFFFFFF AND DUP2 MSTORE PUSH1 0x20 ADD SWAP1 DUP2 MSTORE PUSH1 0x20 ADD PUSH1 0x0 KECCAK256 PUSH1 0x3 ADD PUSH1 0x1 PUSH1 0x0 PUSH1 0x2 PUSH1 0x0 SWAP1 SLOAD SWAP1 PUSH2 0x100 EXP SWAP1 DIV PUSH20 0xFFFFFFFFFFFFFFFFFFFFFFFFFFFFFFFFFFFFFFFF AND PUSH20 0xFFFFFFFFFFFFFFFFFFFFFFFFFFFFFFFFFFFFFFFF AND PUSH20 0xFFFFFFFFFFFFFFFFFFFFFFFFFFFFFFFFFFFFFFFF AND DUP2 MSTORE PUSH1 0x20 ADD SWAP1 DUP2 MSTORE PUSH1 0x20 ADD PUSH1 0x0 KECCAK256 PUSH1 0x4 ADD PUSH1 0x1 PUSH1 0x0 PUSH1 0x2 PUSH1 0x0 SWAP1 SLOAD SWAP1 PUSH2 0x100 EXP SWAP1 DIV PUSH20 0xFFFFFFFFFFFFFFFFFFFFFFFFFFFFFFFFFFFFFFFF AND PUSH20 0xFFFFFFFFFFFFFFFFFFFFFFFFFFFFFFFFFFFFFFFF AND PUSH20 0xFFFFFFFFFFFFFFFFFFFFFFFFFFFFFFFFFFFFFFFF AND DUP2 MSTORE PUSH1 0x20 ADD SWAP1 DUP2 MSTORE PUSH1 0x20 ADD PUSH1 0x0 KECCAK256 PUSH1 0x5 ADD PUSH1 0x1 PUSH1 0x0 PUSH1 0x2 PUSH1 0x0 SWAP1 SLOAD SWAP1 PUSH2 0x100 EXP SWAP1 DIV PUSH20 0xFFFFFFFFFFFFFFFFFFFFFFFFFFFFFFFFFFFFFFFF AND PUSH20 0xFFFFFFFFFFFFFFFFFFFFFFFFFFFFFFFFFFFFFFFF AND PUSH20 0xFFFFFFFFFFFFFFFFFFFFFFFFFFFFFFFFFFFFFFFF AND DUP2 MSTORE PUSH1 0x20 ADD SWAP1 DUP2 MSTORE PUSH1 0x20 ADD PUSH1 0x0 KECCAK256 PUSH1 0x6 ADD PUSH1 0x1 PUSH1 0x0 PUSH1 0x2 PUSH1 0x0 SWAP1 SLOAD SWAP1 PUSH2 0x100 EXP SWAP1 DIV PUSH20 0xFFFFFFFFFFFFFFFFFFFFFFFFFFFFFFFFFFFFFFFF AND PUSH20 0xFFFFFFFFFFFFFFFFFFFFFFFFFFFFFFFFFFFFFFFF AND PUSH20 0xFFFFFFFFFFFFFFFFFFFFFFFFFFFFFFFFFFFFFFFF AND DUP2 MSTORE PUSH1 0x20 ADD SWAP1 DUP2 MSTORE PUSH1 0x20 ADD PUSH1 0x0 KECCAK256 PUSH1 0x7 ADD PUSH1 0x1 PUSH1 0x0 PUSH1 0x2 PUSH1 0x0 SWAP1 SLOAD SWAP1 PUSH2 0x100 EXP SWAP1 DIV PUSH20 0xFFFFFFFFFFFFFFFFFFFFFFFFFFFFFFFFFFFFFFFF AND PUSH20 0xFFFFFFFFFFFFFFFFFFFFFFFFFFFFFFFFFFFFFFFF AND PUSH20 0xFFFFFFFFFFFFFFFFFFFFFFFFFFFFFFFFFFFFFFFF AND DUP2 MSTORE PUSH1 0x20 ADD SWAP1 DUP2 MSTORE PUSH1 0x20 ADD PUSH1 0x0 KECCAK256 PUSH1 0x8 ADD DUP9 DUP1 SLOAD PUSH2 0x1325 SWAP1 PUSH2 0x28BA JUMP JUMPDEST DUP1 PUSH1 0x1F ADD PUSH1 0x20 DUP1 SWAP2 DIV MUL PUSH1 0x20 ADD PUSH1 0x40 MLOAD SWAP1 DUP2 ADD PUSH1 0x40 MSTORE DUP1 SWAP3 SWAP2 SWAP1 DUP2 DUP2 MSTORE PUSH1 0x20 ADD DUP3 DUP1 SLOAD PUSH2 0x1351 SWAP1 PUSH2 0x28BA JUMP JUMPDEST DUP1 ISZERO PUSH2 0x139E JUMPI DUP1 PUSH1 0x1F LT PUSH2 0x1373 JUMPI PUSH2 0x100 DUP1 DUP4 SLOAD DIV MUL DUP4 MSTORE SWAP2 PUSH1 0x20 ADD SWAP2 PUSH2 0x139E JUMP JUMPDEST DUP3 ADD SWAP2 SWAP1 PUSH1 0x0 MSTORE PUSH1 0x20 PUSH1 0x0 KECCAK256 SWAP1 JUMPDEST DUP2 SLOAD DUP2 MSTORE SWAP1 PUSH1 0x1 ADD SWAP1 PUSH1 0x20 ADD DUP1 DUP4 GT PUSH2 0x1381 JUMPI DUP3 SWAP1 SUB PUSH1 0x1F AND DUP3 ADD SWAP2 JUMPDEST POP POP POP POP POP SWAP9 POP DUP8 DUP1 SLOAD PUSH2 0x13B1 SWAP1 PUSH2 0x28BA JUMP JUMPDEST DUP1 PUSH1 0x1F ADD PUSH1 0x20 DUP1 SWAP2 DIV MUL PUSH1 0x20 ADD PUSH1 0x40 MLOAD SWAP1 DUP2 ADD PUSH1 0x40 MSTORE DUP1 SWAP3 SWAP2 SWAP1 DUP2 DUP2 MSTORE PUSH1 0x20 ADD DUP3 DUP1 SLOAD PUSH2 0x13DD SWAP1 PUSH2 0x28BA JUMP JUMPDEST DUP1 ISZERO PUSH2 0x142A JUMPI DUP1 PUSH1 0x1F LT PUSH2 0x13FF JUMPI PUSH2 0x100 DUP1 DUP4 SLOAD DIV MUL DUP4 MSTORE SWAP2 PUSH1 0x20 ADD SWAP2 PUSH2 0x142A JUMP JUMPDEST DUP3 ADD SWAP2 SWAP1 PUSH1 0x0 MSTORE PUSH1 0x20 PUSH1 0x0 KECCAK256 SWAP1 JUMPDEST DUP2 SLOAD DUP2 MSTORE SWAP1 PUSH1 0x1 ADD SWAP1 PUSH1 0x20 ADD DUP1 DUP4 GT PUSH2 0x140D JUMPI DUP3 SWAP1 SUB PUSH1 0x1F AND DUP3 ADD SWAP2 JUMPDEST POP POP POP POP POP SWAP8 POP DUP7 DUP1 SLOAD PUSH2 0x143D SWAP1 PUSH2 0x28BA JUMP JUMPDEST DUP1 PUSH1 0x1F ADD PUSH1 0x20 DUP1 SWAP2 DIV MUL PUSH1 0x20 ADD PUSH1 0x40 MLOAD SWAP1 DUP2 ADD PUSH1 0x40 MSTORE DUP1 SWAP3 SWAP2 SWAP1 DUP2 DUP2 MSTORE PUSH1 0x20 ADD DUP3 DUP1 SLOAD PUSH2 0x1469 SWAP1 PUSH2 0x28BA JUMP JUMPDEST DUP1 ISZERO PUSH2 0x14B6 JUMPI DUP1 PUSH1 0x1F LT PUSH2 0x148B JUMPI PUSH2 0x100 DUP1 DUP4 SLOAD DIV MUL DUP4 MSTORE SWAP2 PUSH1 0x20 ADD SWAP2 PUSH2 0x14B6 JUMP JUMPDEST DUP3 ADD SWAP2 SWAP1 PUSH1 0x0 MSTORE PUSH1 0x20 PUSH1 0x0 KECCAK256 SWAP1 JUMPDEST DUP2 SLOAD DUP2 MSTORE SWAP1 PUSH1 0x1 ADD SWAP1 PUSH1 0x20 ADD DUP1 DUP4 GT PUSH2 0x1499 JUMPI DUP3 SWAP1 SUB PUSH1 0x1F AND DUP3 ADD SWAP2 JUMPDEST POP POP POP POP POP SWAP7 POP DUP6 DUP1 SLOAD PUSH2 0x14C9 SWAP1 PUSH2 0x28BA JUMP JUMPDEST DUP1 PUSH1 0x1F ADD PUSH1 0x20 DUP1 SWAP2 DIV MUL PUSH1 0x20 ADD PUSH1 0x40 MLOAD SWAP1 DUP2 ADD PUSH1 0x40 MSTORE DUP1 SWAP3 SWAP2 SWAP1 DUP2 DUP2 MSTORE PUSH1 0x20 ADD DUP3 DUP1 SLOAD PUSH2 0x14F5 SWAP1 PUSH2 0x28BA JUMP JUMPDEST DUP1 ISZERO PUSH2 0x1542 JUMPI DUP1 PUSH1 0x1F LT PUSH2 0x1517 JUMPI PUSH2 0x100 DUP1 DUP4 SLOAD DIV MUL DUP4 MSTORE SWAP2 PUSH1 0x20 ADD SWAP2 PUSH2 0x1542 JUMP JUMPDEST DUP3 ADD SWAP2 SWAP1 PUSH1 0x0 MSTORE PUSH1 0x20 PUSH1 0x0 KECCAK256 SWAP1 JUMPDEST DUP2 SLOAD DUP2 MSTORE SWAP1 PUSH1 0x1 ADD SWAP1 PUSH1 0x20 ADD DUP1 DUP4 GT PUSH2 0x1525 JUMPI DUP3 SWAP1 SUB PUSH1 0x1F AND DUP3 ADD SWAP2 JUMPDEST POP POP POP POP POP SWAP6 POP DUP5 DUP1 SLOAD PUSH2 0x1555 SWAP1 PUSH2 0x28BA JUMP JUMPDEST DUP1 PUSH1 0x1F ADD PUSH1 0x20 DUP1 SWAP2 DIV MUL PUSH1 0x20 ADD PUSH1 0x40 MLOAD SWAP1 DUP2 ADD PUSH1 0x40 MSTORE DUP1 SWAP3 SWAP2 SWAP1 DUP2 DUP2 MSTORE PUSH1 0x20 ADD DUP3 DUP1 SLOAD PUSH2 0x1581 SWAP1 PUSH2 0x28BA JUMP JUMPDEST DUP1 ISZERO PUSH2 0x15CE JUMPI DUP1 PUSH1 0x1F LT PUSH2 0x15A3 JUMPI PUSH2 0x100 DUP1 DUP4 SLOAD DIV MUL DUP4 MSTORE SWAP2 PUSH1 0x20 ADD SWAP2 PUSH2 0x15CE JUMP JUMPDEST DUP3 ADD SWAP2 SWAP1 PUSH1 0x0 MSTORE PUSH1 0x20 PUSH1 0x0 KECCAK256 SWAP1 JUMPDEST DUP2 SLOAD DUP2 MSTORE SWAP1 PUSH1 0x1 ADD SWAP1 PUSH1 0x20 ADD DUP1 DUP4 GT PUSH2 0x15B1 JUMPI DUP3 SWAP1 SUB PUSH1 0x1F AND DUP3 ADD SWAP2 JUMPDEST POP POP POP POP POP SWAP5 POP DUP4 DUP1 SLOAD PUSH2 0x15E1 SWAP1 PUSH2 0x28BA JUMP JUMPDEST DUP1 PUSH1 0x1F ADD PUSH1 0x20 DUP1 SWAP2 DIV MUL PUSH1 0x20 ADD PUSH1 0x40 MLOAD SWAP1 DUP2 ADD PUSH1 0x40 MSTORE DUP1 SWAP3 SWAP2 SWAP1 DUP2 DUP2 MSTORE PUSH1 0x20 ADD DUP3 DUP1 SLOAD PUSH2 0x160D SWAP1 PUSH2 0x28BA JUMP JUMPDEST DUP1 ISZERO PUSH2 0x165A JUMPI DUP1 PUSH1 0x1F LT PUSH2 0x162F JUMPI PUSH2 0x100 DUP1 DUP4 SLOAD DIV MUL DUP4 MSTORE SWAP2 PUSH1 0x20 ADD SWAP2 PUSH2 0x165A JUMP JUMPDEST DUP3 ADD SWAP2 SWAP1 PUSH1 0x0 MSTORE PUSH1 0x20 PUSH1 0x0 KECCAK256 SWAP1 JUMPDEST DUP2 SLOAD DUP2 MSTORE SWAP1 PUSH1 0x1 ADD SWAP1 PUSH1 0x20 ADD DUP1 DUP4 GT PUSH2 0x163D JUMPI DUP3 SWAP1 SUB PUSH1 0x1F AND DUP3 ADD SWAP2 JUMPDEST POP POP POP POP POP SWAP4 POP DUP3 DUP1 SLOAD PUSH2 0x166D SWAP1 PUSH2 0x28BA JUMP JUMPDEST DUP1 PUSH1 0x1F ADD PUSH1 0x20 DUP1 SWAP2 DIV MUL PUSH1 0x20 ADD PUSH1 0x40 MLOAD SWAP1 DUP2 ADD PUSH1 0x40 MSTORE DUP1 SWAP3 SWAP2 SWAP1 DUP2 DUP2 MSTORE PUSH1 0x20 ADD DUP3 DUP1 SLOAD PUSH2 0x1699 SWAP1 PUSH2 0x28BA JUMP JUMPDEST DUP1 ISZERO PUSH2 0x16E6 JUMPI DUP1 PUSH1 0x1F LT PUSH2 0x16BB JUMPI PUSH2 0x100 DUP1 DUP4 SLOAD DIV MUL DUP4 MSTORE SWAP2 PUSH1 0x20 ADD SWAP2 PUSH2 0x16E6 JUMP JUMPDEST DUP3 ADD SWAP2 SWAP1 PUSH1 0x0 MSTORE PUSH1 0x20 PUSH1 0x0 KECCAK256 SWAP1 JUMPDEST DUP2 SLOAD DUP2 MSTORE SWAP1 PUSH1 0x1 ADD SWAP1 PUSH1 0x20 ADD DUP1 DUP4 GT PUSH2 0x16C9 JUMPI DUP3 SWAP1 SUB PUSH1 0x1F AND DUP3 ADD SWAP2 JUMPDEST POP POP POP POP POP SWAP3 POP DUP2 DUP1 SLOAD PUSH2 0x16F9 SWAP1 PUSH2 0x28BA JUMP JUMPDEST DUP1 PUSH1 0x1F ADD PUSH1 0x20 DUP1 SWAP2 DIV MUL PUSH1 0x20 ADD PUSH1 0x40 MLOAD SWAP1 DUP2 ADD PUSH1 0x40 MSTORE DUP1 SWAP3 SWAP2 SWAP1 DUP2 DUP2 MSTORE PUSH1 0x20 ADD DUP3 DUP1 SLOAD PUSH2 0x1725 SWAP1 PUSH2 0x28BA JUMP JUMPDEST DUP1 ISZERO PUSH2 0x1772 JUMPI DUP1 PUSH1 0x1F LT PUSH2 0x1747 JUMPI PUSH2 0x100 DUP1 DUP4 SLOAD DIV MUL DUP4 MSTORE SWAP2 PUSH1 0x20 ADD SWAP2 PUSH2 0x1772 JUMP JUMPDEST DUP3 ADD SWAP2 SWAP1 PUSH1 0x0 MSTORE PUSH1 0x20 PUSH1 0x0 KECCAK256 SWAP1 JUMPDEST DUP2 SLOAD DUP2 MSTORE SWAP1 PUSH1 0x1 ADD SWAP1 PUSH1 0x20 ADD DUP1 DUP4 GT PUSH2 0x1755 JUMPI DUP3 SWAP1 SUB PUSH1 0x1F AND DUP3 ADD SWAP2 JUMPDEST POP POP POP POP POP SWAP2 POP DUP1 DUP1 SLOAD PUSH2 0x1785 SWAP1 PUSH2 0x28BA JUMP JUMPDEST DUP1 PUSH1 0x1F ADD PUSH1 0x20 DUP1 SWAP2 DIV MUL PUSH1 0x20 ADD PUSH1 0x40 MLOAD SWAP1 DUP2 ADD PUSH1 0x40 MSTORE DUP1 SWAP3 SWAP2 SWAP1 DUP2 DUP2 MSTORE PUSH1 0x20 ADD DUP3 DUP1 SLOAD PUSH2 0x17B1 SWAP1 PUSH2 0x28BA JUMP JUMPDEST DUP1 ISZERO PUSH2 0x17FE JUMPI DUP1 PUSH1 0x1F LT PUSH2 0x17D3 JUMPI PUSH2 0x100 DUP1 DUP4 SLOAD DIV MUL DUP4 MSTORE SWAP2 PUSH1 0x20 ADD SWAP2 PUSH2 0x17FE JUMP JUMPDEST DUP3 ADD SWAP2 SWAP1 PUSH1 0x0 MSTORE PUSH1 0x20 PUSH1 0x0 KECCAK256 SWAP1 JUMPDEST DUP2 SLOAD DUP2 MSTORE SWAP1 PUSH1 0x1 ADD SWAP1 PUSH1 0x20 ADD DUP1 DUP4 GT PUSH2 0x17E1 JUMPI DUP3 SWAP1 SUB PUSH1 0x1F AND DUP3 ADD SWAP2 JUMPDEST POP POP POP POP POP SWAP1 POP SWAP9 POP SWAP9 POP SWAP9 POP SWAP9 POP SWAP9 POP SWAP9 POP SWAP9 POP SWAP9 POP SWAP9 POP SWAP2 SWAP4 SWAP6 SWAP8 SWAP10 SWAP1 SWAP3 SWAP5 SWAP7 SWAP9 POP JUMP JUMPDEST PUSH1 0x40 MLOAD DUP1 PUSH1 0x80 ADD PUSH1 0x40 MSTORE DUP1 DUP4 DUP2 MSTORE PUSH1 0x20 ADD DUP3 DUP2 MSTORE PUSH1 0x20 ADD CALLER PUSH20 0xFFFFFFFFFFFFFFFFFFFFFFFFFFFFFFFFFFFFFFFF AND DUP2 MSTORE PUSH1 0x20 ADD PUSH1 0x0 ISZERO ISZERO DUP2 MSTORE POP PUSH1 0x4 PUSH1 0x0 DUP3 ADD MLOAD DUP2 PUSH1 0x0 ADD SWAP1 DUP1 MLOAD SWAP1 PUSH1 0x20 ADD SWAP1 PUSH2 0x187C SWAP3 SWAP2 SWAP1 PUSH2 0x1FCE JUMP JUMPDEST POP PUSH1 0x20 DUP3 ADD MLOAD DUP2 PUSH1 0x1 ADD SWAP1 DUP1 MLOAD SWAP1 PUSH1 0x20 ADD SWAP1 PUSH2 0x1899 SWAP3 SWAP2 SWAP1 PUSH2 0x1FCE JUMP JUMPDEST POP PUSH1 0x40 DUP3 ADD MLOAD DUP2 PUSH1 0x2 ADD PUSH1 0x0 PUSH2 0x100 EXP DUP2 SLOAD DUP2 PUSH20 0xFFFFFFFFFFFFFFFFFFFFFFFFFFFFFFFFFFFFFFFF MUL NOT AND SWAP1 DUP4 PUSH20 0xFFFFFFFFFFFFFFFFFFFFFFFFFFFFFFFFFFFFFFFF AND MUL OR SWAP1 SSTORE POP PUSH1 0x60 DUP3 ADD MLOAD DUP2 PUSH1 0x2 ADD PUSH1 0x14 PUSH2 0x100 EXP DUP2 SLOAD DUP2 PUSH1 0xFF MUL NOT AND SWAP1 DUP4 ISZERO ISZERO MUL OR SWAP1 SSTORE POP SWAP1 POP POP POP POP JUMP JUMPDEST PUSH1 0x0 DUP1 PUSH1 0x0 SWAP1 SLOAD SWAP1 PUSH2 0x100 EXP SWAP1 DIV PUSH20 0xFFFFFFFFFFFFFFFFFFFFFFFFFFFFFFFFFFFFFFFF AND SWAP1 POP SWAP1 JUMP JUMPDEST PUSH1 0x60 DUP1 PUSH1 0x60 DUP1 PUSH1 0x60 DUP1 PUSH1 0x60 PUSH1 0x1 PUSH1 0x0 DUP10 PUSH20 0xFFFFFFFFFFFFFFFFFFFFFFFFFFFFFFFFFFFFFFFF AND PUSH20 0xFFFFFFFFFFFFFFFFFFFFFFFFFFFFFFFFFFFFFFFF AND DUP2 MSTORE PUSH1 0x20 ADD SWAP1 DUP2 MSTORE PUSH1 0x20 ADD PUSH1 0x0 KECCAK256 PUSH1 0x9 ADD PUSH1 0x0 SWAP1 SLOAD SWAP1 PUSH2 0x100 EXP SWAP1 DIV PUSH1 0xFF AND PUSH2 0x1995 JUMPI PUSH1 0x0 DUP1 REVERT JUMPDEST PUSH1 0x2 PUSH1 0x0 SWAP1 SLOAD SWAP1 PUSH2 0x100 EXP SWAP1 DIV PUSH20 0xFFFFFFFFFFFFFFFFFFFFFFFFFFFFFFFFFFFFFFFF AND PUSH20 0xFFFFFFFFFFFFFFFFFFFFFFFFFFFFFFFFFFFFFFFF AND DUP9 PUSH20 0xFFFFFFFFFFFFFFFFFFFFFFFFFFFFFFFFFFFFFFFF AND EQ PUSH2 0x19EF JUMPI PUSH1 0x0 DUP1 REVERT JUMPDEST PUSH1 0x1 PUSH1 0x0 DUP10 PUSH20 0xFFFFFFFFFFFFFFFFFFFFFFFFFFFFFFFFFFFFFFFF AND PUSH20 0xFFFFFFFFFFFFFFFFFFFFFFFFFFFFFFFFFFFFFFFF AND DUP2 MSTORE PUSH1 0x20 ADD SWAP1 DUP2 MSTORE PUSH1 0x20 ADD PUSH1 0x0 KECCAK256 PUSH1 0x0 ADD PUSH1 0x1 PUSH1 0x0 DUP11 PUSH20 0xFFFFFFFFFFFFFFFFFFFFFFFFFFFFFFFFFFFFFFFF AND PUSH20 0xFFFFFFFFFFFFFFFFFFFFFFFFFFFFFFFFFFFFFFFF AND DUP2 MSTORE PUSH1 0x20 ADD SWAP1 DUP2 MSTORE PUSH1 0x20 ADD PUSH1 0x0 KECCAK256 PUSH1 0x1 ADD PUSH1 0x1 PUSH1 0x0 DUP12 PUSH20 0xFFFFFFFFFFFFFFFFFFFFFFFFFFFFFFFFFFFFFFFF AND PUSH20 0xFFFFFFFFFFFFFFFFFFFFFFFFFFFFFFFFFFFFFFFF AND DUP2 MSTORE PUSH1 0x20 ADD SWAP1 DUP2 MSTORE PUSH1 0x20 ADD PUSH1 0x0 KECCAK256 PUSH1 0x2 ADD PUSH1 0x1 PUSH1 0x0 DUP13 PUSH20 0xFFFFFFFFFFFFFFFFFFFFFFFFFFFFFFFFFFFFFFFF AND PUSH20 0xFFFFFFFFFFFFFFFFFFFFFFFFFFFFFFFFFFFFFFFF AND DUP2 MSTORE PUSH1 0x20 ADD SWAP1 DUP2 MSTORE PUSH1 0x20 ADD PUSH1 0x0 KECCAK256 PUSH1 0x3 ADD PUSH1 0x1 PUSH1 0x0 DUP14 PUSH20 0xFFFFFFFFFFFFFFFFFFFFFFFFFFFFFFFFFFFFFFFF AND PUSH20 0xFFFFFFFFFFFFFFFFFFFFFFFFFFFFFFFFFFFFFFFF AND DUP2 MSTORE PUSH1 0x20 ADD SWAP1 DUP2 MSTORE PUSH1 0x20 ADD PUSH1 0x0 KECCAK256 PUSH1 0x4 ADD PUSH1 0x1 PUSH1 0x0 DUP15 PUSH20 0xFFFFFFFFFFFFFFFFFFFFFFFFFFFFFFFFFFFFFFFF AND PUSH20 0xFFFFFFFFFFFFFFFFFFFFFFFFFFFFFFFFFFFFFFFF AND DUP2 MSTORE PUSH1 0x20 ADD SWAP1 DUP2 MSTORE PUSH1 0x20 ADD PUSH1 0x0 KECCAK256 PUSH1 0x5 ADD PUSH1 0x1 PUSH1 0x0 DUP16 PUSH20 0xFFFFFFFFFFFFFFFFFFFFFFFFFFFFFFFFFFFFFFFF AND PUSH20 0xFFFFFFFFFFFFFFFFFFFFFFFFFFFFFFFFFFFFFFFF AND DUP2 MSTORE PUSH1 0x20 ADD SWAP1 DUP2 MSTORE PUSH1 0x20 ADD PUSH1 0x0 KECCAK256 PUSH1 0x6 ADD DUP7 DUP1 SLOAD PUSH2 0x1BC9 SWAP1 PUSH2 0x28BA JUMP JUMPDEST DUP1 PUSH1 0x1F ADD PUSH1 0x20 DUP1 SWAP2 DIV MUL PUSH1 0x20 ADD PUSH1 0x40 MLOAD SWAP1 DUP2 ADD PUSH1 0x40 MSTORE DUP1 SWAP3 SWAP2 SWAP1 DUP2 DUP2 MSTORE PUSH1 0x20 ADD DUP3 DUP1 SLOAD PUSH2 0x1BF5 SWAP1 PUSH2 0x28BA JUMP JUMPDEST DUP1 ISZERO PUSH2 0x1C42 JUMPI DUP1 PUSH1 0x1F LT PUSH2 0x1C17 JUMPI PUSH2 0x100 DUP1 DUP4 SLOAD DIV MUL DUP4 MSTORE SWAP2 PUSH1 0x20 ADD SWAP2 PUSH2 0x1C42 JUMP JUMPDEST DUP3 ADD SWAP2 SWAP1 PUSH1 0x0 MSTORE PUSH1 0x20 PUSH1 0x0 KECCAK256 SWAP1 JUMPDEST DUP2 SLOAD DUP2 MSTORE SWAP1 PUSH1 0x1 ADD SWAP1 PUSH1 0x20 ADD DUP1 DUP4 GT PUSH2 0x1C25 JUMPI DUP3 SWAP1 SUB PUSH1 0x1F AND DUP3 ADD SWAP2 JUMPDEST POP POP POP POP POP SWAP7 POP DUP6 DUP1 SLOAD PUSH2 0x1C55 SWAP1 PUSH2 0x28BA JUMP JUMPDEST DUP1 PUSH1 0x1F ADD PUSH1 0x20 DUP1 SWAP2 DIV MUL PUSH1 0x20 ADD PUSH1 0x40 MLOAD SWAP1 DUP2 ADD PUSH1 0x40 MSTORE DUP1 SWAP3 SWAP2 SWAP1 DUP2 DUP2 MSTORE PUSH1 0x20 ADD DUP3 DUP1 SLOAD PUSH2 0x1C81 SWAP1 PUSH2 0x28BA JUMP JUMPDEST DUP1 ISZERO PUSH2 0x1CCE JUMPI DUP1 PUSH1 0x1F LT PUSH2 0x1CA3 JUMPI PUSH2 0x100 DUP1 DUP4 SLOAD DIV MUL DUP4 MSTORE SWAP2 PUSH1 0x20 ADD SWAP2 PUSH2 0x1CCE JUMP JUMPDEST DUP3 ADD SWAP2 SWAP1 PUSH1 0x0 MSTORE PUSH1 0x20 PUSH1 0x0 KECCAK256 SWAP1 JUMPDEST DUP2 SLOAD DUP2 MSTORE SWAP1 PUSH1 0x1 ADD SWAP1 PUSH1 0x20 ADD DUP1 DUP4 GT PUSH2 0x1CB1 JUMPI DUP3 SWAP1 SUB PUSH1 0x1F AND DUP3 ADD SWAP2 JUMPDEST POP POP POP POP POP SWAP6 POP DUP5 DUP1 SLOAD PUSH2 0x1CE1 SWAP1 PUSH2 0x28BA JUMP JUMPDEST DUP1 PUSH1 0x1F ADD PUSH1 0x20 DUP1 SWAP2 DIV MUL PUSH1 0x20 ADD PUSH1 0x40 MLOAD SWAP1 DUP2 ADD PUSH1 0x40 MSTORE DUP1 SWAP3 SWAP2 SWAP1 DUP2 DUP2 MSTORE PUSH1 0x20 ADD DUP3 DUP1 SLOAD PUSH2 0x1D0D SWAP1 PUSH2 0x28BA JUMP JUMPDEST DUP1 ISZERO PUSH2 0x1D5A JUMPI DUP1 PUSH1 0x1F LT PUSH2 0x1D2F JUMPI PUSH2 0x100 DUP1 DUP4 SLOAD DIV MUL DUP4 MSTORE SWAP2 PUSH1 0x20 ADD SWAP2 PUSH2 0x1D5A JUMP JUMPDEST DUP3 ADD SWAP2 SWAP1 PUSH1 0x0 MSTORE PUSH1 0x20 PUSH1 0x0 KECCAK256 SWAP1 JUMPDEST DUP2 SLOAD DUP2 MSTORE SWAP1 PUSH1 0x1 ADD SWAP1 PUSH1 0x20 ADD DUP1 DUP4 GT PUSH2 0x1D3D JUMPI DUP3 SWAP1 SUB PUSH1 0x1F AND DUP3 ADD SWAP2 JUMPDEST POP POP POP POP POP SWAP5 POP DUP4 DUP1 SLOAD PUSH2 0x1D6D SWAP1 PUSH2 0x28BA JUMP JUMPDEST DUP1 PUSH1 0x1F ADD PUSH1 0x20 DUP1 SWAP2 DIV MUL PUSH1 0x20 ADD PUSH1 0x40 MLOAD SWAP1 DUP2 ADD PUSH1 0x40 MSTORE DUP1 SWAP3 SWAP2 SWAP1 DUP2 DUP2 MSTORE PUSH1 0x20 ADD DUP3 DUP1 SLOAD PUSH2 0x1D99 SWAP1 PUSH2 0x28BA JUMP JUMPDEST DUP1 ISZERO PUSH2 0x1DE6 JUMPI DUP1 PUSH1 0x1F LT PUSH2 0x1DBB JUMPI PUSH2 0x100 DUP1 DUP4 SLOAD DIV MUL DUP4 MSTORE SWAP2 PUSH1 0x20 ADD SWAP2 PUSH2 0x1DE6 JUMP JUMPDEST DUP3 ADD SWAP2 SWAP1 PUSH1 0x0 MSTORE PUSH1 0x20 PUSH1 0x0 KECCAK256 SWAP1 JUMPDEST DUP2 SLOAD DUP2 MSTORE SWAP1 PUSH1 0x1 ADD SWAP1 PUSH1 0x20 ADD DUP1 DUP4 GT PUSH2 0x1DC9 JUMPI DUP3 SWAP1 SUB PUSH1 0x1F AND DUP3 ADD SWAP2 JUMPDEST POP POP POP POP POP SWAP4 POP DUP3 DUP1 SLOAD PUSH2 0x1DF9 SWAP1 PUSH2 0x28BA JUMP JUMPDEST DUP1 PUSH1 0x1F ADD PUSH1 0x20 DUP1 SWAP2 DIV MUL PUSH1 0x20 ADD PUSH1 0x40 MLOAD SWAP1 DUP2 ADD PUSH1 0x40 MSTORE DUP1 SWAP3 SWAP2 SWAP1 DUP2 DUP2 MSTORE PUSH1 0x20 ADD DUP3 DUP1 SLOAD PUSH2 0x1E25 SWAP1 PUSH2 0x28BA JUMP JUMPDEST DUP1 ISZERO PUSH2 0x1E72 JUMPI DUP1 PUSH1 0x1F LT PUSH2 0x1E47 JUMPI PUSH2 0x100 DUP1 DUP4 SLOAD DIV MUL DUP4 MSTORE SWAP2 PUSH1 0x20 ADD SWAP2 PUSH2 0x1E72 JUMP JUMPDEST DUP3 ADD SWAP2 SWAP1 PUSH1 0x0 MSTORE PUSH1 0x20 PUSH1 0x0 KECCAK256 SWAP1 JUMPDEST DUP2 SLOAD DUP2 MSTORE SWAP1 PUSH1 0x1 ADD SWAP1 PUSH1 0x20 ADD DUP1 DUP4 GT PUSH2 0x1E55 JUMPI DUP3 SWAP1 SUB PUSH1 0x1F AND DUP3 ADD SWAP2 JUMPDEST POP POP POP POP POP SWAP3 POP DUP2 DUP1 SLOAD PUSH2 0x1E85 SWAP1 PUSH2 0x28BA JUMP JUMPDEST DUP1 PUSH1 0x1F ADD PUSH1 0x20 DUP1 SWAP2 DIV MUL PUSH1 0x20 ADD PUSH1 0x40 MLOAD SWAP1 DUP2 ADD PUSH1 0x40 MSTORE DUP1 SWAP3 SWAP2 SWAP1 DUP2 DUP2 MSTORE PUSH1 0x20 ADD DUP3 DUP1 SLOAD PUSH2 0x1EB1 SWAP1 PUSH2 0x28BA JUMP JUMPDEST DUP1 ISZERO PUSH2 0x1EFE JUMPI DUP1 PUSH1 0x1F LT PUSH2 0x1ED3 JUMPI PUSH2 0x100 DUP1 DUP4 SLOAD DIV MUL DUP4 MSTORE SWAP2 PUSH1 0x20 ADD SWAP2 PUSH2 0x1EFE JUMP JUMPDEST DUP3 ADD SWAP2 SWAP1 PUSH1 0x0 MSTORE PUSH1 0x20 PUSH1 0x0 KECCAK256 SWAP1 JUMPDEST DUP2 SLOAD DUP2 MSTORE SWAP1 PUSH1 0x1 ADD SWAP1 PUSH1 0x20 ADD DUP1 DUP4 GT PUSH2 0x1EE1 JUMPI DUP3 SWAP1 SUB PUSH1 0x1F AND DUP3 ADD SWAP2 JUMPDEST POP POP POP POP POP SWAP2 POP DUP1 DUP1 SLOAD PUSH2 0x1F11 SWAP1 PUSH2 0x28BA JUMP JUMPDEST DUP1 PUSH1 0x1F ADD PUSH1 0x20 DUP1 SWAP2 DIV MUL PUSH1 0x20 ADD PUSH1 0x40 MLOAD SWAP1 DUP2 ADD PUSH1 0x40 MSTORE DUP1 SWAP3 SWAP2 SWAP1 DUP2 DUP2 MSTORE PUSH1 0x20 ADD DUP3 DUP1 SLOAD PUSH2 0x1F3D SWAP1 PUSH2 0x28BA JUMP JUMPDEST DUP1 ISZERO PUSH2 0x1F8A JUMPI DUP1 PUSH1 0x1F LT PUSH2 0x1F5F JUMPI PUSH2 0x100 DUP1 DUP4 SLOAD DIV MUL DUP4 MSTORE SWAP2 PUSH1 0x20 ADD SWAP2 PUSH2 0x1F8A JUMP JUMPDEST DUP3 ADD SWAP2 SWAP1 PUSH1 0x0 MSTORE PUSH1 0x20 PUSH1 0x0 KECCAK256 SWAP1 JUMPDEST DUP2 SLOAD DUP2 MSTORE SWAP1 PUSH1 0x1 ADD SWAP1 PUSH1 0x20 ADD DUP1 DUP4 GT PUSH2 0x1F6D JUMPI DUP3 SWAP1 SUB PUSH1 0x1F AND DUP3 ADD SWAP2 JUMPDEST POP POP POP POP POP SWAP1 POP SWAP7 POP SWAP7 POP SWAP7 POP SWAP7 POP SWAP7 POP SWAP7 POP SWAP7 POP SWAP2 SWAP4 SWAP6 SWAP8 SWAP1 SWAP3 SWAP5 SWAP7 POP JUMP JUMPDEST PUSH1 0x0 DUP1 SLOAD SWAP1 PUSH2 0x100 EXP SWAP1 DIV PUSH20 0xFFFFFFFFFFFFFFFFFFFFFFFFFFFFFFFFFFFFFFFF AND DUP2 JUMP JUMPDEST DUP3 DUP1 SLOAD PUSH2 0x1FDA SWAP1 PUSH2 0x28BA JUMP JUMPDEST SWAP1 PUSH1 0x0 MSTORE PUSH1 0x20 PUSH1 0x0 KECCAK256 SWAP1 PUSH1 0x1F ADD PUSH1 0x20 SWAP1 DIV DUP2 ADD SWAP3 DUP3 PUSH2 0x1FFC JUMPI PUSH1 0x0 DUP6 SSTORE PUSH2 0x2043 JUMP JUMPDEST DUP3 PUSH1 0x1F LT PUSH2 0x2015 JUMPI DUP1 MLOAD PUSH1 0xFF NOT AND DUP4 DUP1 ADD OR DUP6 SSTORE PUSH2 0x2043 JUMP JUMPDEST DUP3 DUP1 ADD PUSH1 0x1 ADD DUP6 SSTORE DUP3 ISZERO PUSH2 0x2043 JUMPI SWAP2 DUP3 ADD JUMPDEST DUP3 DUP2 GT ISZERO PUSH2 0x2042 JUMPI DUP3 MLOAD DUP3 SSTORE SWAP2 PUSH1 0x20 ADD SWAP2 SWAP1 PUSH1 0x1 ADD SWAP1 PUSH2 0x2027 JUMP JUMPDEST JUMPDEST POP SWAP1 POP PUSH2 0x2050 SWAP2 SWAP1 PUSH2 0x2094 JUMP JUMPDEST POP SWAP1 JUMP JUMPDEST PUSH1 0x40 MLOAD DUP1 PUSH1 0x80 ADD PUSH1 0x40 MSTORE DUP1 PUSH1 0x60 DUP2 MSTORE PUSH1 0x20 ADD PUSH1 0x60 DUP2 MSTORE PUSH1 0x20 ADD PUSH1 0x0 PUSH20 0xFFFFFFFFFFFFFFFFFFFFFFFFFFFFFFFFFFFFFFFF AND DUP2 MSTORE PUSH1 0x20 ADD PUSH1 0x0 ISZERO ISZERO DUP2 MSTORE POP SWAP1 JUMP JUMPDEST JUMPDEST DUP1 DUP3 GT ISZERO PUSH2 0x20AD JUMPI PUSH1 0x0 DUP2 PUSH1 0x0 SWAP1 SSTORE POP PUSH1 0x1 ADD PUSH2 0x2095 JUMP JUMPDEST POP SWAP1 JUMP JUMPDEST PUSH1 0x0 PUSH1 0x40 MLOAD SWAP1 POP SWAP1 JUMP JUMPDEST PUSH1 0x0 DUP1 REVERT JUMPDEST PUSH1 0x0 DUP1 REVERT JUMPDEST PUSH1 0x0 PUSH20 0xFFFFFFFFFFFFFFFFFFFFFFFFFFFFFFFFFFFFFFFF DUP3 AND SWAP1 POP SWAP2 SWAP1 POP JUMP JUMPDEST PUSH1 0x0 PUSH2 0x20F0 DUP3 PUSH2 0x20C5 JUMP JUMPDEST SWAP1 POP SWAP2 SWAP1 POP JUMP JUMPDEST PUSH2 0x2100 DUP2 PUSH2 0x20E5 JUMP JUMPDEST DUP2 EQ PUSH2 0x210B JUMPI PUSH1 0x0 DUP1 REVERT JUMPDEST POP JUMP JUMPDEST PUSH1 0x0 DUP2 CALLDATALOAD SWAP1 POP PUSH2 0x211D DUP2 PUSH2 0x20F7 JUMP JUMPDEST SWAP3 SWAP2 POP POP JUMP JUMPDEST PUSH1 0x0 PUSH1 0x20 DUP3 DUP5 SUB SLT ISZERO PUSH2 0x2139 JUMPI PUSH2 0x2138 PUSH2 0x20BB JUMP JUMPDEST JUMPDEST PUSH1 0x0 PUSH2 0x2147 DUP5 DUP3 DUP6 ADD PUSH2 0x210E JUMP JUMPDEST SWAP2 POP POP SWAP3 SWAP2 POP POP JUMP JUMPDEST PUSH1 0x0 DUP2 MLOAD SWAP1 POP SWAP2 SWAP1 POP JUMP JUMPDEST PUSH1 0x0 DUP3 DUP3 MSTORE PUSH1 0x20 DUP3 ADD SWAP1 POP SWAP3 SWAP2 POP POP JUMP JUMPDEST PUSH1 0x0 JUMPDEST DUP4 DUP2 LT ISZERO PUSH2 0x218A JUMPI DUP1 DUP3 ADD MLOAD DUP2 DUP5 ADD MSTORE PUSH1 0x20 DUP2 ADD SWAP1 POP PUSH2 0x216F JUMP JUMPDEST DUP4 DUP2 GT ISZERO PUSH2 0x2199 JUMPI PUSH1 0x0 DUP5 DUP5 ADD MSTORE JUMPDEST POP POP POP POP JUMP JUMPDEST PUSH1 0x0 PUSH1 0x1F NOT PUSH1 0x1F DUP4 ADD AND SWAP1 POP SWAP2 SWAP1 POP JUMP JUMPDEST PUSH1 0x0 PUSH2 0x21BB DUP3 PUSH2 0x2150 JUMP JUMPDEST PUSH2 0x21C5 DUP2 DUP6 PUSH2 0x215B JUMP JUMPDEST SWAP4 POP PUSH2 0x21D5 DUP2 DUP6 PUSH1 0x20 DUP7 ADD PUSH2 0x216C JUMP JUMPDEST PUSH2 0x21DE DUP2 PUSH2 0x219F JUMP JUMPDEST DUP5 ADD SWAP2 POP POP SWAP3 SWAP2 POP POP JUMP JUMPDEST PUSH1 0x0 PUSH1 0x40 DUP3 ADD SWAP1 POP DUP2 DUP2 SUB PUSH1 0x0 DUP4 ADD MSTORE PUSH2 0x2203 DUP2 DUP6 PUSH2 0x21B0 JUMP JUMPDEST SWAP1 POP DUP2 DUP2 SUB PUSH1 0x20 DUP4 ADD MSTORE PUSH2 0x2217 DUP2 DUP5 PUSH2 0x21B0 JUMP JUMPDEST SWAP1 POP SWAP4 SWAP3 POP POP POP JUMP JUMPDEST PUSH1 0x0 DUP1 REVERT JUMPDEST PUSH1 0x0 DUP1 REVERT JUMPDEST PUSH32 0x4E487B7100000000000000000000000000000000000000000000000000000000 PUSH1 0x0 MSTORE PUSH1 0x41 PUSH1 0x4 MSTORE PUSH1 0x24 PUSH1 0x0 REVERT JUMPDEST PUSH2 0x2262 DUP3 PUSH2 0x219F JUMP JUMPDEST DUP2 ADD DUP2 DUP2 LT PUSH8 0xFFFFFFFFFFFFFFFF DUP3 GT OR ISZERO PUSH2 0x2281 JUMPI PUSH2 0x2280 PUSH2 0x222A JUMP JUMPDEST JUMPDEST DUP1 PUSH1 0x40 MSTORE POP POP POP JUMP JUMPDEST PUSH1 0x0 PUSH2 0x2294 PUSH2 0x20B1 JUMP JUMPDEST SWAP1 POP PUSH2 0x22A0 DUP3 DUP3 PUSH2 0x2259 JUMP JUMPDEST SWAP2 SWAP1 POP JUMP JUMPDEST PUSH1 0x0 PUSH8 0xFFFFFFFFFFFFFFFF DUP3 GT ISZERO PUSH2 0x22C0 JUMPI PUSH2 0x22BF PUSH2 0x222A JUMP JUMPDEST JUMPDEST PUSH2 0x22C9 DUP3 PUSH2 0x219F JUMP JUMPDEST SWAP1 POP PUSH1 0x20 DUP2 ADD SWAP1 POP SWAP2 SWAP1 POP JUMP JUMPDEST DUP3 DUP2 DUP4 CALLDATACOPY PUSH1 0x0 DUP4 DUP4 ADD MSTORE POP POP POP JUMP JUMPDEST PUSH1 0x0 PUSH2 0x22F8 PUSH2 0x22F3 DUP5 PUSH2 0x22A5 JUMP JUMPDEST PUSH2 0x228A JUMP JUMPDEST SWAP1 POP DUP3 DUP2 MSTORE PUSH1 0x20 DUP2 ADD DUP5 DUP5 DUP5 ADD GT ISZERO PUSH2 0x2314 JUMPI PUSH2 0x2313 PUSH2 0x2225 JUMP JUMPDEST JUMPDEST PUSH2 0x231F DUP5 DUP3 DUP6 PUSH2 0x22D6 JUMP JUMPDEST POP SWAP4 SWAP3 POP POP POP JUMP JUMPDEST PUSH1 0x0 DUP3 PUSH1 0x1F DUP4 ADD SLT PUSH2 0x233C JUMPI PUSH2 0x233B PUSH2 0x2220 JUMP JUMPDEST JUMPDEST DUP2 CALLDATALOAD PUSH2 0x234C DUP5 DUP3 PUSH1 0x20 DUP7 ADD PUSH2 0x22E5 JUMP JUMPDEST SWAP2 POP POP SWAP3 SWAP2 POP POP JUMP JUMPDEST PUSH1 0x0 DUP1 PUSH1 0x0 DUP1 PUSH1 0x0 DUP1 PUSH1 0x0 DUP1 PUSH1 0x0 DUP1 PUSH1 0x0 PUSH2 0x160 DUP13 DUP15 SUB SLT ISZERO PUSH2 0x237B JUMPI PUSH2 0x237A PUSH2 0x20BB JUMP JUMPDEST JUMPDEST PUSH1 0x0 DUP13 ADD CALLDATALOAD PUSH8 0xFFFFFFFFFFFFFFFF DUP2 GT ISZERO PUSH2 0x2399 JUMPI PUSH2 0x2398 PUSH2 0x20C0 JUMP JUMPDEST JUMPDEST PUSH2 0x23A5 DUP15 DUP3 DUP16 ADD PUSH2 0x2327 JUMP JUMPDEST SWAP12 POP POP PUSH1 0x20 DUP13 ADD CALLDATALOAD PUSH8 0xFFFFFFFFFFFFFFFF DUP2 GT ISZERO PUSH2 0x23C6 JUMPI PUSH2 0x23C5 PUSH2 0x20C0 JUMP JUMPDEST JUMPDEST PUSH2 0x23D2 DUP15 DUP3 DUP16 ADD PUSH2 0x2327 JUMP JUMPDEST SWAP11 POP POP PUSH1 0x40 DUP13 ADD CALLDATALOAD PUSH8 0xFFFFFFFFFFFFFFFF DUP2 GT ISZERO PUSH2 0x23F3 JUMPI PUSH2 0x23F2 PUSH2 0x20C0 JUMP JUMPDEST JUMPDEST PUSH2 0x23FF DUP15 DUP3 DUP16 ADD PUSH2 0x2327 JUMP JUMPDEST SWAP10 POP POP PUSH1 0x60 DUP13 ADD CALLDATALOAD PUSH8 0xFFFFFFFFFFFFFFFF DUP2 GT ISZERO PUSH2 0x2420 JUMPI PUSH2 0x241F PUSH2 0x20C0 JUMP JUMPDEST JUMPDEST PUSH2 0x242C DUP15 DUP3 DUP16 ADD PUSH2 0x2327 JUMP JUMPDEST SWAP9 POP POP PUSH1 0x80 DUP13 ADD CALLDATALOAD PUSH8 0xFFFFFFFFFFFFFFFF DUP2 GT ISZERO PUSH2 0x244D JUMPI PUSH2 0x244C PUSH2 0x20C0 JUMP JUMPDEST JUMPDEST PUSH2 0x2459 DUP15 DUP3 DUP16 ADD PUSH2 0x2327 JUMP JUMPDEST SWAP8 POP POP PUSH1 0xA0 DUP13 ADD CALLDATALOAD PUSH8 0xFFFFFFFFFFFFFFFF DUP2 GT ISZERO PUSH2 0x247A JUMPI PUSH2 0x2479 PUSH2 0x20C0 JUMP JUMPDEST JUMPDEST PUSH2 0x2486 DUP15 DUP3 DUP16 ADD PUSH2 0x2327 JUMP JUMPDEST SWAP7 POP POP PUSH1 0xC0 DUP13 ADD CALLDATALOAD PUSH8 0xFFFFFFFFFFFFFFFF DUP2 GT ISZERO PUSH2 0x24A7 JUMPI PUSH2 0x24A6 PUSH2 0x20C0 JUMP JUMPDEST JUMPDEST PUSH2 0x24B3 DUP15 DUP3 DUP16 ADD PUSH2 0x2327 JUMP JUMPDEST SWAP6 POP POP PUSH1 0xE0 DUP13 ADD CALLDATALOAD PUSH8 0xFFFFFFFFFFFFFFFF DUP2 GT ISZERO PUSH2 0x24D4 JUMPI PUSH2 0x24D3 PUSH2 0x20C0 JUMP JUMPDEST JUMPDEST PUSH2 0x24E0 DUP15 DUP3 DUP16 ADD PUSH2 0x2327 JUMP JUMPDEST SWAP5 POP POP PUSH2 0x100 DUP13 ADD CALLDATALOAD PUSH8 0xFFFFFFFFFFFFFFFF DUP2 GT ISZERO PUSH2 0x2502 JUMPI PUSH2 0x2501 PUSH2 0x20C0 JUMP JUMPDEST JUMPDEST PUSH2 0x250E DUP15 DUP3 DUP16 ADD PUSH2 0x2327 JUMP JUMPDEST SWAP4 POP POP PUSH2 0x120 DUP13 ADD CALLDATALOAD PUSH8 0xFFFFFFFFFFFFFFFF DUP2 GT ISZERO PUSH2 0x2530 JUMPI PUSH2 0x252F PUSH2 0x20C0 JUMP JUMPDEST JUMPDEST PUSH2 0x253C DUP15 DUP3 DUP16 ADD PUSH2 0x2327 JUMP JUMPDEST SWAP3 POP POP PUSH2 0x140 DUP13 ADD CALLDATALOAD PUSH8 0xFFFFFFFFFFFFFFFF DUP2 GT ISZERO PUSH2 0x255E JUMPI PUSH2 0x255D PUSH2 0x20C0 JUMP JUMPDEST JUMPDEST PUSH2 0x256A DUP15 DUP3 DUP16 ADD PUSH2 0x2327 JUMP JUMPDEST SWAP2 POP POP SWAP3 SWAP6 SWAP9 SWAP12 POP SWAP3 SWAP6 SWAP9 SWAP12 SWAP1 SWAP4 SWAP7 SWAP10 POP JUMP JUMPDEST PUSH2 0x2586 DUP2 PUSH2 0x20E5 JUMP JUMPDEST DUP3 MSTORE POP POP JUMP JUMPDEST PUSH1 0x0 PUSH1 0x20 DUP3 ADD SWAP1 POP PUSH2 0x25A1 PUSH1 0x0 DUP4 ADD DUP5 PUSH2 0x257D JUMP JUMPDEST SWAP3 SWAP2 POP POP JUMP JUMPDEST PUSH1 0x0 DUP3 DUP3 MSTORE PUSH1 0x20 DUP3 ADD SWAP1 POP SWAP3 SWAP2 POP POP JUMP JUMPDEST PUSH1 0x0 PUSH2 0x25C3 DUP3 PUSH2 0x2150 JUMP JUMPDEST PUSH2 0x25CD DUP2 DUP6 PUSH2 0x25A7 JUMP JUMPDEST SWAP4 POP PUSH2 0x25DD DUP2 DUP6 PUSH1 0x20 DUP7 ADD PUSH2 0x216C JUMP JUMPDEST PUSH2 0x25E6 DUP2 PUSH2 0x219F JUMP JUMPDEST DUP5 ADD SWAP2 POP POP SWAP3 SWAP2 POP POP JUMP JUMPDEST PUSH2 0x25FA DUP2 PUSH2 0x20E5 JUMP JUMPDEST DUP3 MSTORE POP POP JUMP JUMPDEST PUSH1 0x0 DUP2 ISZERO ISZERO SWAP1 POP SWAP2 SWAP1 POP JUMP JUMPDEST PUSH2 0x2615 DUP2 PUSH2 0x2600 JUMP JUMPDEST DUP3 MSTORE POP POP JUMP JUMPDEST PUSH1 0x0 PUSH1 0x80 DUP4 ADD PUSH1 0x0 DUP4 ADD MLOAD DUP5 DUP3 SUB PUSH1 0x0 DUP7 ADD MSTORE PUSH2 0x2638 DUP3 DUP3 PUSH2 0x25B8 JUMP JUMPDEST SWAP2 POP POP PUSH1 0x20 DUP4 ADD MLOAD DUP5 DUP3 SUB PUSH1 0x20 DUP7 ADD MSTORE PUSH2 0x2652 DUP3 DUP3 PUSH2 0x25B8 JUMP JUMPDEST SWAP2 POP POP PUSH1 0x40 DUP4 ADD MLOAD PUSH2 0x2667 PUSH1 0x40 DUP7 ADD DUP3 PUSH2 0x25F1 JUMP JUMPDEST POP PUSH1 0x60 DUP4 ADD MLOAD PUSH2 0x267A PUSH1 0x60 DUP7 ADD DUP3 PUSH2 0x260C JUMP JUMPDEST POP DUP1 SWAP2 POP POP SWAP3 SWAP2 POP POP JUMP JUMPDEST PUSH1 0x0 PUSH1 0x20 DUP3 ADD SWAP1 POP DUP2 DUP2 SUB PUSH1 0x0 DUP4 ADD MSTORE PUSH2 0x269F DUP2 DUP5 PUSH2 0x261B JUMP JUMPDEST SWAP1 POP SWAP3 SWAP2 POP POP JUMP JUMPDEST PUSH1 0x0 PUSH2 0x120 DUP3 ADD SWAP1 POP DUP2 DUP2 SUB PUSH1 0x0 DUP4 ADD MSTORE PUSH2 0x26C2 DUP2 DUP13 PUSH2 0x21B0 JUMP JUMPDEST SWAP1 POP DUP2 DUP2 SUB PUSH1 0x20 DUP4 ADD MSTORE PUSH2 0x26D6 DUP2 DUP12 PUSH2 0x21B0 JUMP JUMPDEST SWAP1 POP DUP2 DUP2 SUB PUSH1 0x40 DUP4 ADD MSTORE PUSH2 0x26EA DUP2 DUP11 PUSH2 0x21B0 JUMP JUMPDEST SWAP1 POP DUP2 DUP2 SUB PUSH1 0x60 DUP4 ADD MSTORE PUSH2 0x26FE DUP2 DUP10 PUSH2 0x21B0 JUMP JUMPDEST SWAP1 POP DUP2 DUP2 SUB PUSH1 0x80 DUP4 ADD MSTORE PUSH2 0x2712 DUP2 DUP9 PUSH2 0x21B0 JUMP JUMPDEST SWAP1 POP DUP2 DUP2 SUB PUSH1 0xA0 DUP4 ADD MSTORE PUSH2 0x2726 DUP2 DUP8 PUSH2 0x21B0 JUMP JUMPDEST SWAP1 POP DUP2 DUP2 SUB PUSH1 0xC0 DUP4 ADD MSTORE PUSH2 0x273A DUP2 DUP7 PUSH2 0x21B0 JUMP JUMPDEST SWAP1 POP DUP2 DUP2 SUB PUSH1 0xE0 DUP4 ADD MSTORE PUSH2 0x274E DUP2 DUP6 PUSH2 0x21B0 JUMP JUMPDEST SWAP1 POP DUP2 DUP2 SUB PUSH2 0x100 DUP4 ADD MSTORE PUSH2 0x2763 DUP2 DUP5 PUSH2 0x21B0 JUMP JUMPDEST SWAP1 POP SWAP11 SWAP10 POP POP POP POP POP POP POP POP POP POP JUMP JUMPDEST PUSH1 0x0 DUP1 PUSH1 0x40 DUP4 DUP6 SUB SLT ISZERO PUSH2 0x278A JUMPI PUSH2 0x2789 PUSH2 0x20BB JUMP JUMPDEST JUMPDEST PUSH1 0x0 DUP4 ADD CALLDATALOAD PUSH8 0xFFFFFFFFFFFFFFFF DUP2 GT ISZERO PUSH2 0x27A8 JUMPI PUSH2 0x27A7 PUSH2 0x20C0 JUMP JUMPDEST JUMPDEST PUSH2 0x27B4 DUP6 DUP3 DUP7 ADD PUSH2 0x2327 JUMP JUMPDEST SWAP3 POP POP PUSH1 0x20 DUP4 ADD CALLDATALOAD PUSH8 0xFFFFFFFFFFFFFFFF DUP2 GT ISZERO PUSH2 0x27D5 JUMPI PUSH2 0x27D4 PUSH2 0x20C0 JUMP JUMPDEST JUMPDEST PUSH2 0x27E1 DUP6 DUP3 DUP7 ADD PUSH2 0x2327 JUMP JUMPDEST SWAP2 POP POP SWAP3 POP SWAP3 SWAP1 POP JUMP JUMPDEST PUSH1 0x0 PUSH1 0xE0 DUP3 ADD SWAP1 POP DUP2 DUP2 SUB PUSH1 0x0 DUP4 ADD MSTORE PUSH2 0x2805 DUP2 DUP11 PUSH2 0x21B0 JUMP JUMPDEST SWAP1 POP DUP2 DUP2 SUB PUSH1 0x20 DUP4 ADD MSTORE PUSH2 0x2819 DUP2 DUP10 PUSH2 0x21B0 JUMP JUMPDEST SWAP1 POP DUP2 DUP2 SUB PUSH1 0x40 DUP4 ADD MSTORE PUSH2 0x282D DUP2 DUP9 PUSH2 0x21B0 JUMP JUMPDEST SWAP1 POP DUP2 DUP2 SUB PUSH1 0x60 DUP4 ADD MSTORE PUSH2 0x2841 DUP2 DUP8 PUSH2 0x21B0 JUMP JUMPDEST SWAP1 POP DUP2 DUP2 SUB PUSH1 0x80 DUP4 ADD MSTORE PUSH2 0x2855 DUP2 DUP7 PUSH2 0x21B0 JUMP JUMPDEST SWAP1 POP DUP2 DUP2 SUB PUSH1 0xA0 DUP4 ADD MSTORE PUSH2 0x2869 DUP2 DUP6 PUSH2 0x21B0 JUMP JUMPDEST SWAP1 POP DUP2 DUP2 SUB PUSH1 0xC0 DUP4 ADD MSTORE PUSH2 0x287D DUP2 DUP5 PUSH2 0x21B0 JUMP JUMPDEST SWAP1 POP SWAP9 SWAP8 POP POP POP POP POP POP POP POP JUMP JUMPDEST PUSH32 0x4E487B7100000000000000000000000000000000000000000000000000000000 PUSH1 0x0 MSTORE PUSH1 0x22 PUSH1 0x4 MSTORE PUSH1 0x24 PUSH1 0x0 REVERT JUMPDEST PUSH1 0x0 PUSH1 0x2 DUP3 DIV SWAP1 POP PUSH1 0x1 DUP3 AND DUP1 PUSH2 0x28D2 JUMPI PUSH1 0x7F DUP3 AND SWAP2 POP JUMPDEST PUSH1 0x20 DUP3 LT DUP2 EQ ISZERO PUSH2 0x28E6 JUMPI PUSH2 0x28E5 PUSH2 0x288B JUMP JUMPDEST JUMPDEST POP SWAP2 SWAP1 POP JUMP INVALID LOG2 PUSH5 0x6970667358 0x22 SLT KECCAK256 INVALID 0xC1 SLOAD 0xD5 SWAP15 PUSH18 0x9291CFD2DE5C099D9274255E3B165B82D363 RETURNDATACOPY GT JUMP JUMPI 0xAF 0xC2 SWAP12 0x2B PUSH5 0x736F6C6343 STOP ADDMOD SIGNEXTEND STOP CALLER LOG2 PUSH5 0x6970667358 0x22 SLT KECCAK256 0xB1 0xBB 0x4A SELFDESTRUCT PUSH15 0x273AA162734014FC4F8709988F2A7A PUSH1 0x97 0xAA MULMOD 0xD8 0xEA PUSH32 0x2246151AC764736F6C634300080B003300000000000000000000000000000000 "},"gasEstimates":{"creation":{"codeDepositCost":"2764600","executionCost":"3007","totalCost":"2767607"},"external":{"createKyc()":"infinite","deployedKycs(uint256)":"infinite","getDeployedKycs()":"infinite","getRandomUser()":"infinite","getparticularUser()":"infinite","login(address)":"infinite"}},"methodIdentifiers":{"createKyc()":"826c4ae6","deployedKycs(uint256)":"7e3c01d7","getDeployedKycs()":"8379ec2f","getRandomUser()":"1d522d1d","getparticularUser()":"bdb37313","login(address)":"35a6861a"}},"storageLayout":{"storage":[{"astId":13,"contract":"KYC.sol:KycFactory","label":"deployedKycs","offset":0,"slot":"0","type":"t_array(t_contract(Userdef)656)dyn_storage"},{"astId":18,"contract":"KYC.sol:KycFactory","label":"agentdeployedKycs","offset":0,"slot":"1","type":"t_mapping(t_contract(Userdef)656,t_bool)"},{"astId":23,"contract":"KYC.sol:KycFactory","label":"particularUserKyc","offset":0,"slot":"2","type":"t_mapping(t_address,t_struct(Register)9_storage)"}],"types":{"t_address":{"encoding":"inplace","label":"address","numberOfBytes":"20"},"t_array(t_contract(Userdef)656)dyn_storage":{"base":"t_contract(Userdef)656","encoding":"dynamic_array","label":"contract Userdef[]","numberOfBytes":"32"},"t_bool":{"encoding":"inplace","label":"bool","numberOfBytes":"1"},"t_contract(Userdef)656":{"encoding":"inplace","label":"contract Userdef","numberOfBytes":"20"},"t_mapping(t_address,t_struct(Register)9_storage)":{"encoding":"mapping","key":"t_address","label":"mapping(address => struct KycFactory.Register)","numberOfBytes":"32","value":"t_struct(Register)9_storage"},"t_mapping(t_contract(Userdef)656,t_bool)":{"encoding":"mapping","key":"t_contract(Userdef)656","label":"mapping(contract Userdef => bool)","numberOfBytes":"32","value":"t_bool"},"t_struct(Register)9_storage":{"encoding":"inplace","label":"struct KycFactory.Register","members":[{"astId":4,"contract":"KYC.sol:KycFactory","label":"kycContract","offset":0,"slot":"0","type":"t_contract(Userdef)656"},{"astId":6,"contract":"KYC.sol:KycFactory","label":"isRegistered","offset":20,"slot":"0","type":"t_bool"},{"astId":8,"contract":"KYC.sol:KycFactory","label":"kycdone","offset":21,"slot":"0","type":"t_bool"}],"numberOfBytes":"32"}}},"userdoc":{"kind":"user","methods":{},"version":1}}