{"abi":[{"inputs":[{"internalType":"address","name":"creator","type":"address"}],"stateMutability":"nonpayable","type":"constructor"},{"inputs":[{"internalType":"string","name":"n","type":"string"},{"internalType":"string","name":"f","type":"string"},{"internalType":"string","name":"m","type":"string"},{"internalType":"string","name":"d","type":"string"},{"internalType":"string","name":"ad","type":"string"},{"internalType":"uint256","name":"mo","type":"uint256"},{"internalType":"string","name":"e","type":"string"},{"internalType":"uint256","name":"aadhar","type":"uint256"},{"internalType":"string","name":"pan","type":"string"}],"name":"addUser","outputs":[],"stateMutability":"nonpayable","type":"function"},{"inputs":[{"internalType":"address","name":"rer","type":"address"}],"name":"approveRequest","outputs":[],"stateMutability":"nonpayable","type":"function"},{"inputs":[],"name":"assigned","outputs":[{"internalType":"address","name":"","type":"address"}],"stateMutability":"view","type":"function"},{"inputs":[{"internalType":"string","name":"describe","type":"string"}],"name":"createRequest","outputs":[],"stateMutability":"nonpayable","type":"function"},{"inputs":[{"internalType":"address","name":"rer","type":"address"}],"name":"getAadharPan","outputs":[{"internalType":"uint256","name":"","type":"uint256"},{"internalType":"string","name":"","type":"string"}],"stateMutability":"view","type":"function"},{"inputs":[],"name":"getDeployedUsers","outputs":[{"internalType":"address","name":"","type":"address"}],"stateMutability":"view","type":"function"},{"inputs":[],"name":"getUserDetails","outputs":[{"internalType":"string","name":"","type":"string"},{"internalType":"string","name":"","type":"string"},{"internalType":"string","name":"","type":"string"},{"internalType":"string","name":"","type":"string"},{"internalType":"string","name":"","type":"string"},{"internalType":"uint256","name":"","type":"uint256"},{"internalType":"string","name":"","type":"string"},{"internalType":"uint256","name":"","type":"uint256"},{"internalType":"string","name":"","type":"string"}],"stateMutability":"view","type":"function"},{"inputs":[{"internalType":"address","name":"rer","type":"address"}],"name":"getparticularUser","outputs":[{"internalType":"string","name":"","type":"string"},{"internalType":"string","name":"","type":"string"},{"internalType":"string","name":"","type":"string"},{"internalType":"string","name":"","type":"string"},{"internalType":"string","name":"","type":"string"},{"internalType":"uint256","name":"","type":"uint256"},{"internalType":"string","name":"","type":"string"}],"stateMutability":"view","type":"function"},{"inputs":[],"name":"manager","outputs":[{"internalType":"address","name":"","type":"address"}],"stateMutability":"view","type":"function"},{"inputs":[],"name":"usersAddress","outputs":[{"internalType":"address","name":"","type":"address"}],"stateMutability":"view","type":"function"}],"devdoc":{"kind":"dev","methods":{},"version":1},"evm":{"assembly":"    /* \"KYC.sol\":1081:4304  contract Userdef{... */\n  mstore(0x40, 0x80)\n    /* \"KYC.sol\":1709:1832  constructor(address creator){... */\n  callvalue\n  dup1\n  iszero\n  tag_1\n  jumpi\n  0x00\n  dup1\n  revert\ntag_1:\n  pop\n  mload(0x40)\n  sub(codesize, bytecodeSize)\n  dup1\n  bytecodeSize\n  dup4\n  codecopy\n  dup2\n  dup2\n  add\n  0x40\n  mstore\n  dup2\n  add\n  swap1\n  tag_2\n  swap2\n  swap1\n  tag_3\n  jump\t// in\ntag_2:\n    /* \"KYC.sol\":1758:1765  creator */\n  dup1\n    /* \"KYC.sol\":1748:1755  manager */\n  0x02\n  0x00\n    /* \"KYC.sol\":1748:1765  manager = creator */\n  0x0100\n  exp\n  dup2\n  sload\n  dup2\n  0xffffffffffffffffffffffffffffffffffffffff\n  mul\n  not\n  and\n  swap1\n  dup4\n  0xffffffffffffffffffffffffffffffffffffffff\n  and\n  mul\n  or\n  swap1\n  sstore\n  pop\n    /* \"KYC.sol\":1709:1832  constructor(address creator){... */\n  pop\n    /* \"KYC.sol\":1081:4304  contract Userdef{... */\n  jump(tag_6)\n    /* \"#utility.yul\":88:205   */\ntag_8:\n    /* \"#utility.yul\":197:198   */\n  0x00\n    /* \"#utility.yul\":194:195   */\n  dup1\n    /* \"#utility.yul\":187:199   */\n  revert\n    /* \"#utility.yul\":334:460   */\ntag_10:\n    /* \"#utility.yul\":371:378   */\n  0x00\n    /* \"#utility.yul\":411:453   */\n  0xffffffffffffffffffffffffffffffffffffffff\n    /* \"#utility.yul\":404:409   */\n  dup3\n    /* \"#utility.yul\":400:454   */\n  and\n    /* \"#utility.yul\":389:454   */\n  swap1\n  pop\n    /* \"#utility.yul\":334:460   */\n  swap2\n  swap1\n  pop\n  jump\t// out\n    /* \"#utility.yul\":466:562   */\ntag_11:\n    /* \"#utility.yul\":503:510   */\n  0x00\n    /* \"#utility.yul\":532:556   */\n  tag_20\n    /* \"#utility.yul\":550:555   */\n  dup3\n    /* \"#utility.yul\":532:556   */\n  tag_10\n  jump\t// in\ntag_20:\n    /* \"#utility.yul\":521:556   */\n  swap1\n  pop\n    /* \"#utility.yul\":466:562   */\n  swap2\n  swap1\n  pop\n  jump\t// out\n    /* \"#utility.yul\":568:690   */\ntag_12:\n    /* \"#utility.yul\":641:665   */\n  tag_22\n    /* \"#utility.yul\":659:664   */\n  dup2\n    /* \"#utility.yul\":641:665   */\n  tag_11\n  jump\t// in\ntag_22:\n    /* \"#utility.yul\":634:639   */\n  dup2\n    /* \"#utility.yul\":631:666   */\n  eq\n    /* \"#utility.yul\":621:684   */\n  tag_23\n  jumpi\n    /* \"#utility.yul\":680:681   */\n  0x00\n    /* \"#utility.yul\":677:678   */\n  dup1\n    /* \"#utility.yul\":670:682   */\n  revert\n    /* \"#utility.yul\":621:684   */\ntag_23:\n    /* \"#utility.yul\":568:690   */\n  pop\n  jump\t// out\n    /* \"#utility.yul\":696:839   */\ntag_13:\n    /* \"#utility.yul\":753:758   */\n  0x00\n    /* \"#utility.yul\":784:790   */\n  dup2\n    /* \"#utility.yul\":778:791   */\n  mload\n    /* \"#utility.yul\":769:791   */\n  swap1\n  pop\n    /* \"#utility.yul\":800:833   */\n  tag_25\n    /* \"#utility.yul\":827:832   */\n  dup2\n    /* \"#utility.yul\":800:833   */\n  tag_12\n  jump\t// in\ntag_25:\n    /* \"#utility.yul\":696:839   */\n  swap3\n  swap2\n  pop\n  pop\n  jump\t// out\n    /* \"#utility.yul\":845:1196   */\ntag_3:\n    /* \"#utility.yul\":915:921   */\n  0x00\n    /* \"#utility.yul\":964:966   */\n  0x20\n    /* \"#utility.yul\":952:961   */\n  dup3\n    /* \"#utility.yul\":943:950   */\n  dup5\n    /* \"#utility.yul\":939:962   */\n  sub\n    /* \"#utility.yul\":935:967   */\n  slt\n    /* \"#utility.yul\":932:1051   */\n  iszero\n  tag_27\n  jumpi\n    /* \"#utility.yul\":970:1049   */\n  tag_28\n  tag_8\n  jump\t// in\ntag_28:\n    /* \"#utility.yul\":932:1051   */\ntag_27:\n    /* \"#utility.yul\":1090:1091   */\n  0x00\n    /* \"#utility.yul\":1115:1179   */\n  tag_29\n    /* \"#utility.yul\":1171:1178   */\n  dup5\n    /* \"#utility.yul\":1162:1168   */\n  dup3\n    /* \"#utility.yul\":1151:1160   */\n  dup6\n    /* \"#utility.yul\":1147:1169   */\n  add\n    /* \"#utility.yul\":1115:1179   */\n  tag_13\n  jump\t// in\ntag_29:\n    /* \"#utility.yul\":1105:1179   */\n  swap2\n  pop\n    /* \"#utility.yul\":1061:1189   */\n  pop\n    /* \"#utility.yul\":845:1196   */\n  swap3\n  swap2\n  pop\n  pop\n  jump\t// out\n    /* \"KYC.sol\":1081:4304  contract Userdef{... */\ntag_6:\n  dataSize(sub_0)\n  dup1\n  dataOffset(sub_0)\n  0x00\n  codecopy\n  0x00\n  return\nstop\n\nsub_0: assembly {\n        /* \"KYC.sol\":1081:4304  contract Userdef{... */\n      mstore(0x40, 0x80)\n      callvalue\n      dup1\n      iszero\n      tag_1\n      jumpi\n      0x00\n      dup1\n      revert\n    tag_1:\n      pop\n      jumpi(tag_2, lt(calldatasize, 0x04))\n      shr(0xe0, calldataload(0x00))\n      dup1\n      0xa5c9f7ad\n      gt\n      tag_13\n      jumpi\n      dup1\n      0xa5c9f7ad\n      eq\n      tag_8\n      jumpi\n      dup1\n      0xadb4d990\n      eq\n      tag_9\n      jumpi\n      dup1\n      0xea00962f\n      eq\n      tag_10\n      jumpi\n      dup1\n      0xede3a670\n      eq\n      tag_11\n      jumpi\n      dup1\n      0xf203c19d\n      eq\n      tag_12\n      jumpi\n      jump(tag_2)\n    tag_13:\n      dup1\n      0x061dff9a\n      eq\n      tag_3\n      jumpi\n      dup1\n      0x091bac16\n      eq\n      tag_4\n      jumpi\n      dup1\n      0x1b146ecf\n      eq\n      tag_5\n      jumpi\n      dup1\n      0x481c6a75\n      eq\n      tag_6\n      jumpi\n      dup1\n      0x942886be\n      eq\n      tag_7\n      jumpi\n    tag_2:\n      0x00\n      dup1\n      revert\n        /* \"KYC.sol\":4101:4299  function approveRequest(address rer) public{... */\n    tag_3:\n      tag_14\n      0x04\n      dup1\n      calldatasize\n      sub\n      dup2\n      add\n      swap1\n      tag_15\n      swap2\n      swap1\n      tag_16\n      jump\t// in\n    tag_15:\n      tag_17\n      jump\t// in\n    tag_14:\n      stop\n        /* \"KYC.sol\":2973:3180  function getAadharPan(address rer) public view... */\n    tag_4:\n      tag_18\n      0x04\n      dup1\n      calldatasize\n      sub\n      dup2\n      add\n      swap1\n      tag_19\n      swap2\n      swap1\n      tag_16\n      jump\t// in\n    tag_19:\n      tag_20\n      jump\t// in\n    tag_18:\n      mload(0x40)\n      tag_21\n      swap3\n      swap2\n      swap1\n      tag_22\n      jump\t// in\n    tag_21:\n      mload(0x40)\n      dup1\n      swap2\n      sub\n      swap1\n      return\n        /* \"KYC.sol\":3728:4093  function createRequest(string memory describe) public{... */\n    tag_5:\n      tag_23\n      0x04\n      dup1\n      calldatasize\n      sub\n      dup2\n      add\n      swap1\n      tag_24\n      swap2\n      swap1\n      tag_25\n      jump\t// in\n    tag_24:\n      tag_26\n      jump\t// in\n    tag_23:\n      stop\n        /* \"KYC.sol\":1434:1456  address public manager */\n    tag_6:\n      tag_27\n      tag_28\n      jump\t// in\n    tag_27:\n      mload(0x40)\n      tag_29\n      swap2\n      swap1\n      tag_30\n      jump\t// in\n    tag_29:\n      mload(0x40)\n      dup1\n      swap2\n      sub\n      swap1\n      return\n        /* \"KYC.sol\":3190:3586  function getUserDetails() public view agentRestricted... */\n    tag_7:\n      tag_31\n      tag_32\n      jump\t// in\n    tag_31:\n      mload(0x40)\n      tag_33\n      swap10\n      swap9\n      swap8\n      swap7\n      swap6\n      swap5\n      swap4\n      swap3\n      swap2\n      swap1\n      tag_34\n      jump\t// in\n    tag_33:\n      mload(0x40)\n      dup1\n      swap2\n      sub\n      swap1\n      return\n        /* \"KYC.sol\":1840:2478  function addUser(string memory n, string memory f, string memory m, string memory d, string memory ad, uint mo,string memory e,uint aadhar,string memory pan) ... */\n    tag_8:\n      tag_35\n      0x04\n      dup1\n      calldatasize\n      sub\n      dup2\n      add\n      swap1\n      tag_36\n      swap2\n      swap1\n      tag_37\n      jump\t// in\n    tag_36:\n      tag_38\n      jump\t// in\n    tag_35:\n      stop\n        /* \"KYC.sol\":1487:1510  address public assigned */\n    tag_9:\n      tag_39\n      tag_40\n      jump\t// in\n    tag_39:\n      mload(0x40)\n      tag_41\n      swap2\n      swap1\n      tag_30\n      jump\t// in\n    tag_41:\n      mload(0x40)\n      dup1\n      swap2\n      sub\n      swap1\n      return\n        /* \"KYC.sol\":2488:2583  function getDeployedUsers() public view returns(address) {... */\n    tag_10:\n      tag_42\n      tag_43\n      jump\t// in\n    tag_42:\n      mload(0x40)\n      tag_44\n      swap2\n      swap1\n      tag_30\n      jump\t// in\n    tag_44:\n      mload(0x40)\n      dup1\n      swap2\n      sub\n      swap1\n      return\n        /* \"KYC.sol\":2591:2965  function getparticularUser(address rer) public view... */\n    tag_11:\n      tag_45\n      0x04\n      dup1\n      calldatasize\n      sub\n      dup2\n      add\n      swap1\n      tag_46\n      swap2\n      swap1\n      tag_16\n      jump\t// in\n    tag_46:\n      tag_47\n      jump\t// in\n    tag_45:\n      mload(0x40)\n      tag_48\n      swap8\n      swap7\n      swap6\n      swap5\n      swap4\n      swap3\n      swap2\n      swap1\n      tag_49\n      jump\t// in\n    tag_48:\n      mload(0x40)\n      dup1\n      swap2\n      sub\n      swap1\n      return\n        /* \"KYC.sol\":1363:1390  address public usersAddress */\n    tag_12:\n      tag_50\n      tag_51\n      jump\t// in\n    tag_50:\n      mload(0x40)\n      tag_52\n      swap2\n      swap1\n      tag_30\n      jump\t// in\n    tag_52:\n      mload(0x40)\n      dup1\n      swap2\n      sub\n      swap1\n      return\n        /* \"KYC.sol\":4101:4299  function approveRequest(address rer) public{... */\n    tag_17:\n        /* \"KYC.sol\":4170:4177  manager */\n      0x02\n      0x00\n      swap1\n      sload\n      swap1\n      0x0100\n      exp\n      swap1\n      div\n      0xffffffffffffffffffffffffffffffffffffffff\n      and\n        /* \"KYC.sol\":4163:4177  rer == manager */\n      0xffffffffffffffffffffffffffffffffffffffff\n      and\n        /* \"KYC.sol\":4163:4166  rer */\n      dup2\n        /* \"KYC.sol\":4163:4177  rer == manager */\n      0xffffffffffffffffffffffffffffffffffffffff\n      and\n      eq\n        /* \"KYC.sol\":4155:4178  require(rer == manager) */\n      tag_54\n      jumpi\n      0x00\n      dup1\n      revert\n    tag_54:\n        /* \"KYC.sol\":4198:4206  requests */\n      0x04\n        /* \"KYC.sol\":4198:4215  requests.complete */\n      0x01\n      add\n      0x14\n      swap1\n      sload\n      swap1\n      0x0100\n      exp\n      swap1\n      div\n      0xff\n      and\n        /* \"KYC.sol\":4197:4215  !requests.complete */\n      iszero\n        /* \"KYC.sol\":4189:4216  require(!requests.complete) */\n      tag_55\n      jumpi\n      0x00\n      dup1\n      revert\n    tag_55:\n        /* \"KYC.sol\":4238:4246  requests */\n      0x04\n        /* \"KYC.sol\":4238:4256  requests.recepient */\n      0x01\n      add\n      0x00\n      swap1\n      sload\n      swap1\n      0x0100\n      exp\n      swap1\n      div\n      0xffffffffffffffffffffffffffffffffffffffff\n      and\n        /* \"KYC.sol\":4227:4235  assigned */\n      0x03\n      0x00\n        /* \"KYC.sol\":4227:4256  assigned = requests.recepient */\n      0x0100\n      exp\n      dup2\n      sload\n      dup2\n      0xffffffffffffffffffffffffffffffffffffffff\n      mul\n      not\n      and\n      swap1\n      dup4\n      0xffffffffffffffffffffffffffffffffffffffff\n      and\n      mul\n      or\n      swap1\n      sstore\n      pop\n        /* \"KYC.sol\":4287:4291  true */\n      0x01\n        /* \"KYC.sol\":4267:4275  requests */\n      0x04\n        /* \"KYC.sol\":4267:4284  requests.complete */\n      0x01\n      add\n      0x14\n        /* \"KYC.sol\":4267:4291  requests.complete = true */\n      0x0100\n      exp\n      dup2\n      sload\n      dup2\n      0xff\n      mul\n      not\n      and\n      swap1\n      dup4\n      iszero\n      iszero\n      mul\n      or\n      swap1\n      sstore\n      pop\n        /* \"KYC.sol\":4101:4299  function approveRequest(address rer) public{... */\n      pop\n      jump\t// out\n        /* \"KYC.sol\":2973:3180  function getAadharPan(address rer) public view... */\n    tag_20:\n        /* \"KYC.sol\":3033:3037  uint */\n      0x00\n        /* \"KYC.sol\":3038:3051  string memory */\n      0x60\n        /* \"KYC.sol\":3071:3076  users */\n      0x01\n        /* \"KYC.sol\":3071:3081  users[rer] */\n      0x00\n        /* \"KYC.sol\":3077:3080  rer */\n      dup5\n        /* \"KYC.sol\":3071:3081  users[rer] */\n      0xffffffffffffffffffffffffffffffffffffffff\n      and\n      0xffffffffffffffffffffffffffffffffffffffff\n      and\n      dup2\n      mstore\n      0x20\n      add\n      swap1\n      dup2\n      mstore\n      0x20\n      add\n      0x00\n      keccak256\n        /* \"KYC.sol\":3071:3085  users[rer].set */\n      0x09\n      add\n      0x00\n      swap1\n      sload\n      swap1\n      0x0100\n      exp\n      swap1\n      div\n      0xff\n      and\n        /* \"KYC.sol\":3063:3086  require(users[rer].set) */\n      tag_57\n      jumpi\n      0x00\n      dup1\n      revert\n    tag_57:\n        /* \"KYC.sol\":3112:3119  manager */\n      0x02\n      0x00\n      swap1\n      sload\n      swap1\n      0x0100\n      exp\n      swap1\n      div\n      0xffffffffffffffffffffffffffffffffffffffff\n      and\n        /* \"KYC.sol\":3105:3119  rer == manager */\n      0xffffffffffffffffffffffffffffffffffffffff\n      and\n        /* \"KYC.sol\":3105:3108  rer */\n      dup4\n        /* \"KYC.sol\":3105:3119  rer == manager */\n      0xffffffffffffffffffffffffffffffffffffffff\n      and\n      eq\n        /* \"KYC.sol\":3097:3120  require(rer == manager) */\n      tag_58\n      jumpi\n      0x00\n      dup1\n      revert\n    tag_58:\n        /* \"KYC.sol\":3139:3144  users */\n      0x01\n        /* \"KYC.sol\":3139:3149  users[rer] */\n      0x00\n        /* \"KYC.sol\":3145:3148  rer */\n      dup5\n        /* \"KYC.sol\":3139:3149  users[rer] */\n      0xffffffffffffffffffffffffffffffffffffffff\n      and\n      0xffffffffffffffffffffffffffffffffffffffff\n      and\n      dup2\n      mstore\n      0x20\n      add\n      swap1\n      dup2\n      mstore\n      0x20\n      add\n      0x00\n      keccak256\n        /* \"KYC.sol\":3139:3156  users[rer].aadhar */\n      0x07\n      add\n      sload\n        /* \"KYC.sol\":3157:3162  users */\n      0x01\n        /* \"KYC.sol\":3157:3167  users[rer] */\n      0x00\n        /* \"KYC.sol\":3163:3166  rer */\n      dup6\n        /* \"KYC.sol\":3157:3167  users[rer] */\n      0xffffffffffffffffffffffffffffffffffffffff\n      and\n      0xffffffffffffffffffffffffffffffffffffffff\n      and\n      dup2\n      mstore\n      0x20\n      add\n      swap1\n      dup2\n      mstore\n      0x20\n      add\n      0x00\n      keccak256\n        /* \"KYC.sol\":3157:3171  users[rer].pan */\n      0x08\n      add\n        /* \"KYC.sol\":3131:3172  return (users[rer].aadhar,users[rer].pan) */\n      dup1\n      dup1\n      sload\n      tag_59\n      swap1\n      tag_60\n      jump\t// in\n    tag_59:\n      dup1\n      0x1f\n      add\n      0x20\n      dup1\n      swap2\n      div\n      mul\n      0x20\n      add\n      mload(0x40)\n      swap1\n      dup2\n      add\n      0x40\n      mstore\n      dup1\n      swap3\n      swap2\n      swap1\n      dup2\n      dup2\n      mstore\n      0x20\n      add\n      dup3\n      dup1\n      sload\n      tag_61\n      swap1\n      tag_60\n      jump\t// in\n    tag_61:\n      dup1\n      iszero\n      tag_62\n      jumpi\n      dup1\n      0x1f\n      lt\n      tag_63\n      jumpi\n      0x0100\n      dup1\n      dup4\n      sload\n      div\n      mul\n      dup4\n      mstore\n      swap2\n      0x20\n      add\n      swap2\n      jump(tag_62)\n    tag_63:\n      dup3\n      add\n      swap2\n      swap1\n      0x00\n      mstore\n      keccak256(0x00, 0x20)\n      swap1\n    tag_64:\n      dup2\n      sload\n      dup2\n      mstore\n      swap1\n      0x01\n      add\n      swap1\n      0x20\n      add\n      dup1\n      dup4\n      gt\n      tag_64\n      jumpi\n      dup3\n      swap1\n      sub\n      0x1f\n      and\n      dup3\n      add\n      swap2\n    tag_62:\n      pop\n      pop\n      pop\n      pop\n      pop\n      swap1\n      pop\n      swap2\n      pop\n      swap2\n      pop\n        /* \"KYC.sol\":2973:3180  function getAadharPan(address rer) public view... */\n      swap2\n      pop\n      swap2\n      jump\t// out\n        /* \"KYC.sol\":3728:4093  function createRequest(string memory describe) public{... */\n    tag_26:\n        /* \"KYC.sol\":3803:4085  Request({                    // Agent will create a request for accessing documents of user/manager.... */\n      mload(0x40)\n      dup1\n      0x60\n      add\n      0x40\n      mstore\n      dup1\n        /* \"KYC.sol\":3930:3938  describe */\n      dup3\n        /* \"KYC.sol\":3803:4085  Request({                    // Agent will create a request for accessing documents of user/manager.... */\n      dup2\n      mstore\n      0x20\n      add\n        /* \"KYC.sol\":3964:3974  msg.sender */\n      caller\n        /* \"KYC.sol\":3803:4085  Request({                    // Agent will create a request for accessing documents of user/manager.... */\n      0xffffffffffffffffffffffffffffffffffffffff\n      and\n      dup2\n      mstore\n      0x20\n      add\n        /* \"KYC.sol\":4068:4073  false */\n      0x00\n        /* \"KYC.sol\":3803:4085  Request({                    // Agent will create a request for accessing documents of user/manager.... */\n      iszero\n      iszero\n      dup2\n      mstore\n      pop\n        /* \"KYC.sol\":3792:3800  requests */\n      0x04\n        /* \"KYC.sol\":3792:4085  requests = Request({                    // Agent will create a request for accessing documents of user/manager.... */\n      0x00\n      dup3\n      add\n      mload\n      dup2\n      0x00\n      add\n      swap1\n      dup1\n      mload\n      swap1\n      0x20\n      add\n      swap1\n      tag_66\n      swap3\n      swap2\n      swap1\n      tag_67\n      jump\t// in\n    tag_66:\n      pop\n      0x20\n      dup3\n      add\n      mload\n      dup2\n      0x01\n      add\n      exp(0x0100, 0x00)\n      dup2\n      sload\n      dup2\n      0xffffffffffffffffffffffffffffffffffffffff\n      mul\n      not\n      and\n      swap1\n      dup4\n      0xffffffffffffffffffffffffffffffffffffffff\n      and\n      mul\n      or\n      swap1\n      sstore\n      pop\n      0x40\n      dup3\n      add\n      mload\n      dup2\n      0x01\n      add\n      exp(0x0100, 0x14)\n      dup2\n      sload\n      dup2\n      0xff\n      mul\n      not\n      and\n      swap1\n      dup4\n      iszero\n      iszero\n      mul\n      or\n      swap1\n      sstore\n      pop\n      swap1\n      pop\n      pop\n        /* \"KYC.sol\":3728:4093  function createRequest(string memory describe) public{... */\n      pop\n      jump\t// out\n        /* \"KYC.sol\":1434:1456  address public manager */\n    tag_28:\n      0x02\n      0x00\n      swap1\n      sload\n      swap1\n      0x0100\n      exp\n      swap1\n      div\n      0xffffffffffffffffffffffffffffffffffffffff\n      and\n      dup2\n      jump\t// out\n        /* \"KYC.sol\":3190:3586  function getUserDetails() public view agentRestricted... */\n    tag_32:\n        /* \"KYC.sol\":3257:3270  string memory */\n      0x60\n        /* \"KYC.sol\":3272:3285  string memory */\n      dup1\n        /* \"KYC.sol\":3287:3300  string memory */\n      0x60\n        /* \"KYC.sol\":3302:3315  string memory */\n      dup1\n        /* \"KYC.sol\":3317:3330  string memory */\n      0x60\n        /* \"KYC.sol\":3332:3336  uint */\n      0x00\n        /* \"KYC.sol\":3337:3350  string memory */\n      0x60\n        /* \"KYC.sol\":3351:3355  uint */\n      0x00\n        /* \"KYC.sol\":3356:3369  string memory */\n      0x60\n        /* \"KYC.sol\":1672:1680  assigned */\n      0x03\n      0x00\n      swap1\n      sload\n      swap1\n      0x0100\n      exp\n      swap1\n      div\n      0xffffffffffffffffffffffffffffffffffffffff\n      and\n        /* \"KYC.sol\":1658:1680  msg.sender == assigned */\n      0xffffffffffffffffffffffffffffffffffffffff\n      and\n        /* \"KYC.sol\":1658:1668  msg.sender */\n      caller\n        /* \"KYC.sol\":1658:1680  msg.sender == assigned */\n      0xffffffffffffffffffffffffffffffffffffffff\n      and\n      eq\n        /* \"KYC.sol\":1650:1681  require(msg.sender == assigned) */\n      tag_69\n      jumpi\n      0x00\n      dup1\n      revert\n    tag_69:\n        /* \"KYC.sol\":3389:3394  users */\n      0x01\n        /* \"KYC.sol\":3389:3403  users[manager] */\n      0x00\n        /* \"KYC.sol\":3395:3402  manager */\n      0x02\n      0x00\n      swap1\n      sload\n      swap1\n      0x0100\n      exp\n      swap1\n      div\n      0xffffffffffffffffffffffffffffffffffffffff\n      and\n        /* \"KYC.sol\":3389:3403  users[manager] */\n      0xffffffffffffffffffffffffffffffffffffffff\n      and\n      0xffffffffffffffffffffffffffffffffffffffff\n      and\n      dup2\n      mstore\n      0x20\n      add\n      swap1\n      dup2\n      mstore\n      0x20\n      add\n      0x00\n      keccak256\n        /* \"KYC.sol\":3389:3408  users[manager].name */\n      0x00\n      add\n        /* \"KYC.sol\":3409:3414  users */\n      0x01\n        /* \"KYC.sol\":3409:3423  users[manager] */\n      0x00\n        /* \"KYC.sol\":3415:3422  manager */\n      0x02\n      0x00\n      swap1\n      sload\n      swap1\n      0x0100\n      exp\n      swap1\n      div\n      0xffffffffffffffffffffffffffffffffffffffff\n      and\n        /* \"KYC.sol\":3409:3423  users[manager] */\n      0xffffffffffffffffffffffffffffffffffffffff\n      and\n      0xffffffffffffffffffffffffffffffffffffffff\n      and\n      dup2\n      mstore\n      0x20\n      add\n      swap1\n      dup2\n      mstore\n      0x20\n      add\n      0x00\n      keccak256\n        /* \"KYC.sol\":3409:3430  users[manager].father */\n      0x01\n      add\n        /* \"KYC.sol\":3431:3436  users */\n      0x01\n        /* \"KYC.sol\":3431:3445  users[manager] */\n      0x00\n        /* \"KYC.sol\":3437:3444  manager */\n      0x02\n      0x00\n      swap1\n      sload\n      swap1\n      0x0100\n      exp\n      swap1\n      div\n      0xffffffffffffffffffffffffffffffffffffffff\n      and\n        /* \"KYC.sol\":3431:3445  users[manager] */\n      0xffffffffffffffffffffffffffffffffffffffff\n      and\n      0xffffffffffffffffffffffffffffffffffffffff\n      and\n      dup2\n      mstore\n      0x20\n      add\n      swap1\n      dup2\n      mstore\n      0x20\n      add\n      0x00\n      keccak256\n        /* \"KYC.sol\":3431:3452  users[manager].mother */\n      0x02\n      add\n        /* \"KYC.sol\":3453:3458  users */\n      0x01\n        /* \"KYC.sol\":3453:3467  users[manager] */\n      0x00\n        /* \"KYC.sol\":3459:3466  manager */\n      0x02\n      0x00\n      swap1\n      sload\n      swap1\n      0x0100\n      exp\n      swap1\n      div\n      0xffffffffffffffffffffffffffffffffffffffff\n      and\n        /* \"KYC.sol\":3453:3467  users[manager] */\n      0xffffffffffffffffffffffffffffffffffffffff\n      and\n      0xffffffffffffffffffffffffffffffffffffffff\n      and\n      dup2\n      mstore\n      0x20\n      add\n      swap1\n      dup2\n      mstore\n      0x20\n      add\n      0x00\n      keccak256\n        /* \"KYC.sol\":3453:3477  users[manager].birthdate */\n      0x03\n      add\n        /* \"KYC.sol\":3478:3483  users */\n      0x01\n        /* \"KYC.sol\":3478:3492  users[manager] */\n      0x00\n        /* \"KYC.sol\":3484:3491  manager */\n      0x02\n      0x00\n      swap1\n      sload\n      swap1\n      0x0100\n      exp\n      swap1\n      div\n      0xffffffffffffffffffffffffffffffffffffffff\n      and\n        /* \"KYC.sol\":3478:3492  users[manager] */\n      0xffffffffffffffffffffffffffffffffffffffff\n      and\n      0xffffffffffffffffffffffffffffffffffffffff\n      and\n      dup2\n      mstore\n      0x20\n      add\n      swap1\n      dup2\n      mstore\n      0x20\n      add\n      0x00\n      keccak256\n        /* \"KYC.sol\":3478:3496  users[manager].add */\n      0x04\n      add\n        /* \"KYC.sol\":3497:3502  users */\n      0x01\n        /* \"KYC.sol\":3497:3511  users[manager] */\n      0x00\n        /* \"KYC.sol\":3503:3510  manager */\n      0x02\n      0x00\n      swap1\n      sload\n      swap1\n      0x0100\n      exp\n      swap1\n      div\n      0xffffffffffffffffffffffffffffffffffffffff\n      and\n        /* \"KYC.sol\":3497:3511  users[manager] */\n      0xffffffffffffffffffffffffffffffffffffffff\n      and\n      0xffffffffffffffffffffffffffffffffffffffff\n      and\n      dup2\n      mstore\n      0x20\n      add\n      swap1\n      dup2\n      mstore\n      0x20\n      add\n      0x00\n      keccak256\n        /* \"KYC.sol\":3497:3515  users[manager].mob */\n      0x05\n      add\n      sload\n        /* \"KYC.sol\":3516:3521  users */\n      0x01\n        /* \"KYC.sol\":3516:3530  users[manager] */\n      0x00\n        /* \"KYC.sol\":3522:3529  manager */\n      0x02\n      0x00\n      swap1\n      sload\n      swap1\n      0x0100\n      exp\n      swap1\n      div\n      0xffffffffffffffffffffffffffffffffffffffff\n      and\n        /* \"KYC.sol\":3516:3530  users[manager] */\n      0xffffffffffffffffffffffffffffffffffffffff\n      and\n      0xffffffffffffffffffffffffffffffffffffffff\n      and\n      dup2\n      mstore\n      0x20\n      add\n      swap1\n      dup2\n      mstore\n      0x20\n      add\n      0x00\n      keccak256\n        /* \"KYC.sol\":3516:3536  users[manager].email */\n      0x06\n      add\n        /* \"KYC.sol\":3537:3542  users */\n      0x01\n        /* \"KYC.sol\":3537:3551  users[manager] */\n      0x00\n        /* \"KYC.sol\":3543:3550  manager */\n      0x02\n      0x00\n      swap1\n      sload\n      swap1\n      0x0100\n      exp\n      swap1\n      div\n      0xffffffffffffffffffffffffffffffffffffffff\n      and\n        /* \"KYC.sol\":3537:3551  users[manager] */\n      0xffffffffffffffffffffffffffffffffffffffff\n      and\n      0xffffffffffffffffffffffffffffffffffffffff\n      and\n      dup2\n      mstore\n      0x20\n      add\n      swap1\n      dup2\n      mstore\n      0x20\n      add\n      0x00\n      keccak256\n        /* \"KYC.sol\":3537:3558  users[manager].aadhar */\n      0x07\n      add\n      sload\n        /* \"KYC.sol\":3559:3564  users */\n      0x01\n        /* \"KYC.sol\":3559:3573  users[manager] */\n      0x00\n        /* \"KYC.sol\":3565:3572  manager */\n      0x02\n      0x00\n      swap1\n      sload\n      swap1\n      0x0100\n      exp\n      swap1\n      div\n      0xffffffffffffffffffffffffffffffffffffffff\n      and\n        /* \"KYC.sol\":3559:3573  users[manager] */\n      0xffffffffffffffffffffffffffffffffffffffff\n      and\n      0xffffffffffffffffffffffffffffffffffffffff\n      and\n      dup2\n      mstore\n      0x20\n      add\n      swap1\n      dup2\n      mstore\n      0x20\n      add\n      0x00\n      keccak256\n        /* \"KYC.sol\":3559:3577  users[manager].pan */\n      0x08\n      add\n        /* \"KYC.sol\":3381:3578  return (users[manager].name,users[manager].father,users[manager].mother,users[manager].birthdate,users[manager].add,users[manager].mob,users[manager].email,users[manager].aadhar,users[manager].pan) */\n      dup9\n      dup1\n      sload\n      tag_71\n      swap1\n      tag_60\n      jump\t// in\n    tag_71:\n      dup1\n      0x1f\n      add\n      0x20\n      dup1\n      swap2\n      div\n      mul\n      0x20\n      add\n      mload(0x40)\n      swap1\n      dup2\n      add\n      0x40\n      mstore\n      dup1\n      swap3\n      swap2\n      swap1\n      dup2\n      dup2\n      mstore\n      0x20\n      add\n      dup3\n      dup1\n      sload\n      tag_72\n      swap1\n      tag_60\n      jump\t// in\n    tag_72:\n      dup1\n      iszero\n      tag_73\n      jumpi\n      dup1\n      0x1f\n      lt\n      tag_74\n      jumpi\n      0x0100\n      dup1\n      dup4\n      sload\n      div\n      mul\n      dup4\n      mstore\n      swap2\n      0x20\n      add\n      swap2\n      jump(tag_73)\n    tag_74:\n      dup3\n      add\n      swap2\n      swap1\n      0x00\n      mstore\n      keccak256(0x00, 0x20)\n      swap1\n    tag_75:\n      dup2\n      sload\n      dup2\n      mstore\n      swap1\n      0x01\n      add\n      swap1\n      0x20\n      add\n      dup1\n      dup4\n      gt\n      tag_75\n      jumpi\n      dup3\n      swap1\n      sub\n      0x1f\n      and\n      dup3\n      add\n      swap2\n    tag_73:\n      pop\n      pop\n      pop\n      pop\n      pop\n      swap9\n      pop\n      dup8\n      dup1\n      sload\n      tag_76\n      swap1\n      tag_60\n      jump\t// in\n    tag_76:\n      dup1\n      0x1f\n      add\n      0x20\n      dup1\n      swap2\n      div\n      mul\n      0x20\n      add\n      mload(0x40)\n      swap1\n      dup2\n      add\n      0x40\n      mstore\n      dup1\n      swap3\n      swap2\n      swap1\n      dup2\n      dup2\n      mstore\n      0x20\n      add\n      dup3\n      dup1\n      sload\n      tag_77\n      swap1\n      tag_60\n      jump\t// in\n    tag_77:\n      dup1\n      iszero\n      tag_78\n      jumpi\n      dup1\n      0x1f\n      lt\n      tag_79\n      jumpi\n      0x0100\n      dup1\n      dup4\n      sload\n      div\n      mul\n      dup4\n      mstore\n      swap2\n      0x20\n      add\n      swap2\n      jump(tag_78)\n    tag_79:\n      dup3\n      add\n      swap2\n      swap1\n      0x00\n      mstore\n      keccak256(0x00, 0x20)\n      swap1\n    tag_80:\n      dup2\n      sload\n      dup2\n      mstore\n      swap1\n      0x01\n      add\n      swap1\n      0x20\n      add\n      dup1\n      dup4\n      gt\n      tag_80\n      jumpi\n      dup3\n      swap1\n      sub\n      0x1f\n      and\n      dup3\n      add\n      swap2\n    tag_78:\n      pop\n      pop\n      pop\n      pop\n      pop\n      swap8\n      pop\n      dup7\n      dup1\n      sload\n      tag_81\n      swap1\n      tag_60\n      jump\t// in\n    tag_81:\n      dup1\n      0x1f\n      add\n      0x20\n      dup1\n      swap2\n      div\n      mul\n      0x20\n      add\n      mload(0x40)\n      swap1\n      dup2\n      add\n      0x40\n      mstore\n      dup1\n      swap3\n      swap2\n      swap1\n      dup2\n      dup2\n      mstore\n      0x20\n      add\n      dup3\n      dup1\n      sload\n      tag_82\n      swap1\n      tag_60\n      jump\t// in\n    tag_82:\n      dup1\n      iszero\n      tag_83\n      jumpi\n      dup1\n      0x1f\n      lt\n      tag_84\n      jumpi\n      0x0100\n      dup1\n      dup4\n      sload\n      div\n      mul\n      dup4\n      mstore\n      swap2\n      0x20\n      add\n      swap2\n      jump(tag_83)\n    tag_84:\n      dup3\n      add\n      swap2\n      swap1\n      0x00\n      mstore\n      keccak256(0x00, 0x20)\n      swap1\n    tag_85:\n      dup2\n      sload\n      dup2\n      mstore\n      swap1\n      0x01\n      add\n      swap1\n      0x20\n      add\n      dup1\n      dup4\n      gt\n      tag_85\n      jumpi\n      dup3\n      swap1\n      sub\n      0x1f\n      and\n      dup3\n      add\n      swap2\n    tag_83:\n      pop\n      pop\n      pop\n      pop\n      pop\n      swap7\n      pop\n      dup6\n      dup1\n      sload\n      tag_86\n      swap1\n      tag_60\n      jump\t// in\n    tag_86:\n      dup1\n      0x1f\n      add\n      0x20\n      dup1\n      swap2\n      div\n      mul\n      0x20\n      add\n      mload(0x40)\n      swap1\n      dup2\n      add\n      0x40\n      mstore\n      dup1\n      swap3\n      swap2\n      swap1\n      dup2\n      dup2\n      mstore\n      0x20\n      add\n      dup3\n      dup1\n      sload\n      tag_87\n      swap1\n      tag_60\n      jump\t// in\n    tag_87:\n      dup1\n      iszero\n      tag_88\n      jumpi\n      dup1\n      0x1f\n      lt\n      tag_89\n      jumpi\n      0x0100\n      dup1\n      dup4\n      sload\n      div\n      mul\n      dup4\n      mstore\n      swap2\n      0x20\n      add\n      swap2\n      jump(tag_88)\n    tag_89:\n      dup3\n      add\n      swap2\n      swap1\n      0x00\n      mstore\n      keccak256(0x00, 0x20)\n      swap1\n    tag_90:\n      dup2\n      sload\n      dup2\n      mstore\n      swap1\n      0x01\n      add\n      swap1\n      0x20\n      add\n      dup1\n      dup4\n      gt\n      tag_90\n      jumpi\n      dup3\n      swap1\n      sub\n      0x1f\n      and\n      dup3\n      add\n      swap2\n    tag_88:\n      pop\n      pop\n      pop\n      pop\n      pop\n      swap6\n      pop\n      dup5\n      dup1\n      sload\n      tag_91\n      swap1\n      tag_60\n      jump\t// in\n    tag_91:\n      dup1\n      0x1f\n      add\n      0x20\n      dup1\n      swap2\n      div\n      mul\n      0x20\n      add\n      mload(0x40)\n      swap1\n      dup2\n      add\n      0x40\n      mstore\n      dup1\n      swap3\n      swap2\n      swap1\n      dup2\n      dup2\n      mstore\n      0x20\n      add\n      dup3\n      dup1\n      sload\n      tag_92\n      swap1\n      tag_60\n      jump\t// in\n    tag_92:\n      dup1\n      iszero\n      tag_93\n      jumpi\n      dup1\n      0x1f\n      lt\n      tag_94\n      jumpi\n      0x0100\n      dup1\n      dup4\n      sload\n      div\n      mul\n      dup4\n      mstore\n      swap2\n      0x20\n      add\n      swap2\n      jump(tag_93)\n    tag_94:\n      dup3\n      add\n      swap2\n      swap1\n      0x00\n      mstore\n      keccak256(0x00, 0x20)\n      swap1\n    tag_95:\n      dup2\n      sload\n      dup2\n      mstore\n      swap1\n      0x01\n      add\n      swap1\n      0x20\n      add\n      dup1\n      dup4\n      gt\n      tag_95\n      jumpi\n      dup3\n      swap1\n      sub\n      0x1f\n      and\n      dup3\n      add\n      swap2\n    tag_93:\n      pop\n      pop\n      pop\n      pop\n      pop\n      swap5\n      pop\n      dup3\n      dup1\n      sload\n      tag_96\n      swap1\n      tag_60\n      jump\t// in\n    tag_96:\n      dup1\n      0x1f\n      add\n      0x20\n      dup1\n      swap2\n      div\n      mul\n      0x20\n      add\n      mload(0x40)\n      swap1\n      dup2\n      add\n      0x40\n      mstore\n      dup1\n      swap3\n      swap2\n      swap1\n      dup2\n      dup2\n      mstore\n      0x20\n      add\n      dup3\n      dup1\n      sload\n      tag_97\n      swap1\n      tag_60\n      jump\t// in\n    tag_97:\n      dup1\n      iszero\n      tag_98\n      jumpi\n      dup1\n      0x1f\n      lt\n      tag_99\n      jumpi\n      0x0100\n      dup1\n      dup4\n      sload\n      div\n      mul\n      dup4\n      mstore\n      swap2\n      0x20\n      add\n      swap2\n      jump(tag_98)\n    tag_99:\n      dup3\n      add\n      swap2\n      swap1\n      0x00\n      mstore\n      keccak256(0x00, 0x20)\n      swap1\n    tag_100:\n      dup2\n      sload\n      dup2\n      mstore\n      swap1\n      0x01\n      add\n      swap1\n      0x20\n      add\n      dup1\n      dup4\n      gt\n      tag_100\n      jumpi\n      dup3\n      swap1\n      sub\n      0x1f\n      and\n      dup3\n      add\n      swap2\n    tag_98:\n      pop\n      pop\n      pop\n      pop\n      pop\n      swap3\n      pop\n      dup1\n      dup1\n      sload\n      tag_101\n      swap1\n      tag_60\n      jump\t// in\n    tag_101:\n      dup1\n      0x1f\n      add\n      0x20\n      dup1\n      swap2\n      div\n      mul\n      0x20\n      add\n      mload(0x40)\n      swap1\n      dup2\n      add\n      0x40\n      mstore\n      dup1\n      swap3\n      swap2\n      swap1\n      dup2\n      dup2\n      mstore\n      0x20\n      add\n      dup3\n      dup1\n      sload\n      tag_102\n      swap1\n      tag_60\n      jump\t// in\n    tag_102:\n      dup1\n      iszero\n      tag_103\n      jumpi\n      dup1\n      0x1f\n      lt\n      tag_104\n      jumpi\n      0x0100\n      dup1\n      dup4\n      sload\n      div\n      mul\n      dup4\n      mstore\n      swap2\n      0x20\n      add\n      swap2\n      jump(tag_103)\n    tag_104:\n      dup3\n      add\n      swap2\n      swap1\n      0x00\n      mstore\n      keccak256(0x00, 0x20)\n      swap1\n    tag_105:\n      dup2\n      sload\n      dup2\n      mstore\n      swap1\n      0x01\n      add\n      swap1\n      0x20\n      add\n      dup1\n      dup4\n      gt\n      tag_105\n      jumpi\n      dup3\n      swap1\n      sub\n      0x1f\n      and\n      dup3\n      add\n      swap2\n    tag_103:\n      pop\n      pop\n      pop\n      pop\n      pop\n      swap1\n      pop\n      swap9\n      pop\n      swap9\n      pop\n      swap9\n      pop\n      swap9\n      pop\n      swap9\n      pop\n      swap9\n      pop\n      swap9\n      pop\n      swap9\n      pop\n      swap9\n      pop\n        /* \"KYC.sol\":3190:3586  function getUserDetails() public view agentRestricted... */\n      swap1\n      swap2\n      swap3\n      swap4\n      swap5\n      swap6\n      swap7\n      swap8\n      swap9\n      jump\t// out\n        /* \"KYC.sol\":1840:2478  function addUser(string memory n, string memory f, string memory m, string memory d, string memory ad, uint mo,string memory e,uint aadhar,string memory pan) ... */\n    tag_38:\n        /* \"KYC.sol\":1577:1584  manager */\n      0x02\n      0x00\n      swap1\n      sload\n      swap1\n      0x0100\n      exp\n      swap1\n      div\n      0xffffffffffffffffffffffffffffffffffffffff\n      and\n        /* \"KYC.sol\":1563:1584  msg.sender == manager */\n      0xffffffffffffffffffffffffffffffffffffffff\n      and\n        /* \"KYC.sol\":1563:1573  msg.sender */\n      caller\n        /* \"KYC.sol\":1563:1584  msg.sender == manager */\n      0xffffffffffffffffffffffffffffffffffffffff\n      and\n      eq\n        /* \"KYC.sol\":1555:1585  require(msg.sender == manager) */\n      tag_107\n      jumpi\n      0x00\n      dup1\n      revert\n    tag_107:\n        /* \"KYC.sol\":2036:2049  address entry */\n      0x00\n        /* \"KYC.sol\":2052:2062  msg.sender */\n      caller\n        /* \"KYC.sol\":2036:2062  address entry = msg.sender */\n      swap1\n      pop\n        /* \"KYC.sol\":2082:2087  users */\n      0x01\n        /* \"KYC.sol\":2082:2094  users[entry] */\n      0x00\n        /* \"KYC.sol\":2088:2093  entry */\n      dup3\n        /* \"KYC.sol\":2082:2094  users[entry] */\n      0xffffffffffffffffffffffffffffffffffffffff\n      and\n      0xffffffffffffffffffffffffffffffffffffffff\n      and\n      dup2\n      mstore\n      0x20\n      add\n      swap1\n      dup2\n      mstore\n      0x20\n      add\n      0x00\n      keccak256\n        /* \"KYC.sol\":2082:2098  users[entry].set */\n      0x09\n      add\n      0x00\n      swap1\n      sload\n      swap1\n      0x0100\n      exp\n      swap1\n      div\n      0xff\n      and\n        /* \"KYC.sol\":2081:2098  !users[entry].set */\n      iszero\n        /* \"KYC.sol\":2073:2099  require(!users[entry].set) */\n      tag_109\n      jumpi\n      0x00\n      dup1\n      revert\n    tag_109:\n        /* \"KYC.sol\":2125:2130  entry */\n      dup1\n        /* \"KYC.sol\":2110:2122  usersAddress */\n      0x00\n      dup1\n        /* \"KYC.sol\":2110:2130  usersAddress = entry */\n      0x0100\n      exp\n      dup2\n      sload\n      dup2\n      0xffffffffffffffffffffffffffffffffffffffff\n      mul\n      not\n      and\n      swap1\n      dup4\n      0xffffffffffffffffffffffffffffffffffffffff\n      and\n      mul\n      or\n      swap1\n      sstore\n      pop\n        /* \"KYC.sol\":2161:2162  n */\n      dup10\n        /* \"KYC.sol\":2141:2146  users */\n      0x01\n        /* \"KYC.sol\":2141:2153  users[entry] */\n      0x00\n        /* \"KYC.sol\":2147:2152  entry */\n      dup4\n        /* \"KYC.sol\":2141:2153  users[entry] */\n      0xffffffffffffffffffffffffffffffffffffffff\n      and\n      0xffffffffffffffffffffffffffffffffffffffff\n      and\n      dup2\n      mstore\n      0x20\n      add\n      swap1\n      dup2\n      mstore\n      0x20\n      add\n      0x00\n      keccak256\n        /* \"KYC.sol\":2141:2158  users[entry].name */\n      0x00\n      add\n        /* \"KYC.sol\":2141:2162  users[entry].name = n */\n      swap1\n      dup1\n      mload\n      swap1\n      0x20\n      add\n      swap1\n      tag_110\n      swap3\n      swap2\n      swap1\n      tag_67\n      jump\t// in\n    tag_110:\n      pop\n        /* \"KYC.sol\":2195:2196  f */\n      dup9\n        /* \"KYC.sol\":2173:2178  users */\n      0x01\n        /* \"KYC.sol\":2173:2185  users[entry] */\n      0x00\n        /* \"KYC.sol\":2179:2184  entry */\n      dup4\n        /* \"KYC.sol\":2173:2185  users[entry] */\n      0xffffffffffffffffffffffffffffffffffffffff\n      and\n      0xffffffffffffffffffffffffffffffffffffffff\n      and\n      dup2\n      mstore\n      0x20\n      add\n      swap1\n      dup2\n      mstore\n      0x20\n      add\n      0x00\n      keccak256\n        /* \"KYC.sol\":2173:2192  users[entry].father */\n      0x01\n      add\n        /* \"KYC.sol\":2173:2196  users[entry].father = f */\n      swap1\n      dup1\n      mload\n      swap1\n      0x20\n      add\n      swap1\n      tag_111\n      swap3\n      swap2\n      swap1\n      tag_67\n      jump\t// in\n    tag_111:\n      pop\n        /* \"KYC.sol\":2229:2230  m */\n      dup8\n        /* \"KYC.sol\":2207:2212  users */\n      0x01\n        /* \"KYC.sol\":2207:2219  users[entry] */\n      0x00\n        /* \"KYC.sol\":2213:2218  entry */\n      dup4\n        /* \"KYC.sol\":2207:2219  users[entry] */\n      0xffffffffffffffffffffffffffffffffffffffff\n      and\n      0xffffffffffffffffffffffffffffffffffffffff\n      and\n      dup2\n      mstore\n      0x20\n      add\n      swap1\n      dup2\n      mstore\n      0x20\n      add\n      0x00\n      keccak256\n        /* \"KYC.sol\":2207:2226  users[entry].mother */\n      0x02\n      add\n        /* \"KYC.sol\":2207:2230  users[entry].mother = m */\n      swap1\n      dup1\n      mload\n      swap1\n      0x20\n      add\n      swap1\n      tag_112\n      swap3\n      swap2\n      swap1\n      tag_67\n      jump\t// in\n    tag_112:\n      pop\n        /* \"KYC.sol\":2266:2267  d */\n      dup7\n        /* \"KYC.sol\":2241:2246  users */\n      0x01\n        /* \"KYC.sol\":2241:2253  users[entry] */\n      0x00\n        /* \"KYC.sol\":2247:2252  entry */\n      dup4\n        /* \"KYC.sol\":2241:2253  users[entry] */\n      0xffffffffffffffffffffffffffffffffffffffff\n      and\n      0xffffffffffffffffffffffffffffffffffffffff\n      and\n      dup2\n      mstore\n      0x20\n      add\n      swap1\n      dup2\n      mstore\n      0x20\n      add\n      0x00\n      keccak256\n        /* \"KYC.sol\":2241:2263  users[entry].birthdate */\n      0x03\n      add\n        /* \"KYC.sol\":2241:2267  users[entry].birthdate = d */\n      swap1\n      dup1\n      mload\n      swap1\n      0x20\n      add\n      swap1\n      tag_113\n      swap3\n      swap2\n      swap1\n      tag_67\n      jump\t// in\n    tag_113:\n      pop\n        /* \"KYC.sol\":2297:2299  ad */\n      dup6\n        /* \"KYC.sol\":2278:2283  users */\n      0x01\n        /* \"KYC.sol\":2278:2290  users[entry] */\n      0x00\n        /* \"KYC.sol\":2284:2289  entry */\n      dup4\n        /* \"KYC.sol\":2278:2290  users[entry] */\n      0xffffffffffffffffffffffffffffffffffffffff\n      and\n      0xffffffffffffffffffffffffffffffffffffffff\n      and\n      dup2\n      mstore\n      0x20\n      add\n      swap1\n      dup2\n      mstore\n      0x20\n      add\n      0x00\n      keccak256\n        /* \"KYC.sol\":2278:2294  users[entry].add */\n      0x04\n      add\n        /* \"KYC.sol\":2278:2299  users[entry].add = ad */\n      swap1\n      dup1\n      mload\n      swap1\n      0x20\n      add\n      swap1\n      tag_114\n      swap3\n      swap2\n      swap1\n      tag_67\n      jump\t// in\n    tag_114:\n      pop\n        /* \"KYC.sol\":2329:2331  mo */\n      dup5\n        /* \"KYC.sol\":2310:2315  users */\n      0x01\n        /* \"KYC.sol\":2310:2322  users[entry] */\n      0x00\n        /* \"KYC.sol\":2316:2321  entry */\n      dup4\n        /* \"KYC.sol\":2310:2322  users[entry] */\n      0xffffffffffffffffffffffffffffffffffffffff\n      and\n      0xffffffffffffffffffffffffffffffffffffffff\n      and\n      dup2\n      mstore\n      0x20\n      add\n      swap1\n      dup2\n      mstore\n      0x20\n      add\n      0x00\n      keccak256\n        /* \"KYC.sol\":2310:2326  users[entry].mob */\n      0x05\n      add\n        /* \"KYC.sol\":2310:2331  users[entry].mob = mo */\n      dup2\n      swap1\n      sstore\n      pop\n        /* \"KYC.sol\":2363:2364  e */\n      dup4\n        /* \"KYC.sol\":2342:2347  users */\n      0x01\n        /* \"KYC.sol\":2342:2354  users[entry] */\n      0x00\n        /* \"KYC.sol\":2348:2353  entry */\n      dup4\n        /* \"KYC.sol\":2342:2354  users[entry] */\n      0xffffffffffffffffffffffffffffffffffffffff\n      and\n      0xffffffffffffffffffffffffffffffffffffffff\n      and\n      dup2\n      mstore\n      0x20\n      add\n      swap1\n      dup2\n      mstore\n      0x20\n      add\n      0x00\n      keccak256\n        /* \"KYC.sol\":2342:2360  users[entry].email */\n      0x06\n      add\n        /* \"KYC.sol\":2342:2364  users[entry].email = e */\n      swap1\n      dup1\n      mload\n      swap1\n      0x20\n      add\n      swap1\n      tag_115\n      swap3\n      swap2\n      swap1\n      tag_67\n      jump\t// in\n    tag_115:\n      pop\n        /* \"KYC.sol\":2397:2403  aadhar */\n      dup3\n        /* \"KYC.sol\":2375:2380  users */\n      0x01\n        /* \"KYC.sol\":2375:2387  users[entry] */\n      0x00\n        /* \"KYC.sol\":2381:2386  entry */\n      dup4\n        /* \"KYC.sol\":2375:2387  users[entry] */\n      0xffffffffffffffffffffffffffffffffffffffff\n      and\n      0xffffffffffffffffffffffffffffffffffffffff\n      and\n      dup2\n      mstore\n      0x20\n      add\n      swap1\n      dup2\n      mstore\n      0x20\n      add\n      0x00\n      keccak256\n        /* \"KYC.sol\":2375:2394  users[entry].aadhar */\n      0x07\n      add\n        /* \"KYC.sol\":2375:2403  users[entry].aadhar = aadhar */\n      dup2\n      swap1\n      sstore\n      pop\n        /* \"KYC.sol\":2433:2436  pan */\n      dup2\n        /* \"KYC.sol\":2414:2419  users */\n      0x01\n        /* \"KYC.sol\":2414:2426  users[entry] */\n      0x00\n        /* \"KYC.sol\":2420:2425  entry */\n      dup4\n        /* \"KYC.sol\":2414:2426  users[entry] */\n      0xffffffffffffffffffffffffffffffffffffffff\n      and\n      0xffffffffffffffffffffffffffffffffffffffff\n      and\n      dup2\n      mstore\n      0x20\n      add\n      swap1\n      dup2\n      mstore\n      0x20\n      add\n      0x00\n      keccak256\n        /* \"KYC.sol\":2414:2430  users[entry].pan */\n      0x08\n      add\n        /* \"KYC.sol\":2414:2436  users[entry].pan = pan */\n      swap1\n      dup1\n      mload\n      swap1\n      0x20\n      add\n      swap1\n      tag_116\n      swap3\n      swap2\n      swap1\n      tag_67\n      jump\t// in\n    tag_116:\n      pop\n        /* \"KYC.sol\":2466:2470  true */\n      0x01\n        /* \"KYC.sol\":2447:2452  users */\n      dup1\n        /* \"KYC.sol\":2447:2459  users[entry] */\n      0x00\n        /* \"KYC.sol\":2453:2458  entry */\n      dup4\n        /* \"KYC.sol\":2447:2459  users[entry] */\n      0xffffffffffffffffffffffffffffffffffffffff\n      and\n      0xffffffffffffffffffffffffffffffffffffffff\n      and\n      dup2\n      mstore\n      0x20\n      add\n      swap1\n      dup2\n      mstore\n      0x20\n      add\n      0x00\n      keccak256\n        /* \"KYC.sol\":2447:2463  users[entry].set */\n      0x09\n      add\n      0x00\n        /* \"KYC.sol\":2447:2470  users[entry].set = true */\n      0x0100\n      exp\n      dup2\n      sload\n      dup2\n      0xff\n      mul\n      not\n      and\n      swap1\n      dup4\n      iszero\n      iszero\n      mul\n      or\n      swap1\n      sstore\n      pop\n        /* \"KYC.sol\":2025:2478  {... */\n      pop\n        /* \"KYC.sol\":1840:2478  function addUser(string memory n, string memory f, string memory m, string memory d, string memory ad, uint mo,string memory e,uint aadhar,string memory pan) ... */\n      pop\n      pop\n      pop\n      pop\n      pop\n      pop\n      pop\n      pop\n      pop\n      jump\t// out\n        /* \"KYC.sol\":1487:1510  address public assigned */\n    tag_40:\n      0x03\n      0x00\n      swap1\n      sload\n      swap1\n      0x0100\n      exp\n      swap1\n      div\n      0xffffffffffffffffffffffffffffffffffffffff\n      and\n      dup2\n      jump\t// out\n        /* \"KYC.sol\":2488:2583  function getDeployedUsers() public view returns(address) {... */\n    tag_43:\n        /* \"KYC.sol\":2536:2543  address */\n      0x00\n        /* \"KYC.sol\":2563:2575  usersAddress */\n      dup1\n      0x00\n      swap1\n      sload\n      swap1\n      0x0100\n      exp\n      swap1\n      div\n      0xffffffffffffffffffffffffffffffffffffffff\n      and\n        /* \"KYC.sol\":2556:2575  return usersAddress */\n      swap1\n      pop\n        /* \"KYC.sol\":2488:2583  function getDeployedUsers() public view returns(address) {... */\n      swap1\n      jump\t// out\n        /* \"KYC.sol\":2591:2965  function getparticularUser(address rer) public view... */\n    tag_47:\n        /* \"KYC.sol\":2656:2669  string memory */\n      0x60\n        /* \"KYC.sol\":2671:2684  string memory */\n      dup1\n        /* \"KYC.sol\":2686:2699  string memory */\n      0x60\n        /* \"KYC.sol\":2701:2714  string memory */\n      dup1\n        /* \"KYC.sol\":2716:2729  string memory */\n      0x60\n        /* \"KYC.sol\":2731:2735  uint */\n      0x00\n        /* \"KYC.sol\":2736:2749  string memory */\n      0x60\n        /* \"KYC.sol\":2769:2774  users */\n      0x01\n        /* \"KYC.sol\":2769:2779  users[rer] */\n      0x00\n        /* \"KYC.sol\":2775:2778  rer */\n      dup10\n        /* \"KYC.sol\":2769:2779  users[rer] */\n      0xffffffffffffffffffffffffffffffffffffffff\n      and\n      0xffffffffffffffffffffffffffffffffffffffff\n      and\n      dup2\n      mstore\n      0x20\n      add\n      swap1\n      dup2\n      mstore\n      0x20\n      add\n      0x00\n      keccak256\n        /* \"KYC.sol\":2769:2783  users[rer].set */\n      0x09\n      add\n      0x00\n      swap1\n      sload\n      swap1\n      0x0100\n      exp\n      swap1\n      div\n      0xff\n      and\n        /* \"KYC.sol\":2761:2784  require(users[rer].set) */\n      tag_119\n      jumpi\n      0x00\n      dup1\n      revert\n    tag_119:\n        /* \"KYC.sol\":2810:2817  manager */\n      0x02\n      0x00\n      swap1\n      sload\n      swap1\n      0x0100\n      exp\n      swap1\n      div\n      0xffffffffffffffffffffffffffffffffffffffff\n      and\n        /* \"KYC.sol\":2803:2817  rer == manager */\n      0xffffffffffffffffffffffffffffffffffffffff\n      and\n        /* \"KYC.sol\":2803:2806  rer */\n      dup9\n        /* \"KYC.sol\":2803:2817  rer == manager */\n      0xffffffffffffffffffffffffffffffffffffffff\n      and\n      eq\n        /* \"KYC.sol\":2795:2818  require(rer == manager) */\n      tag_120\n      jumpi\n      0x00\n      dup1\n      revert\n    tag_120:\n        /* \"KYC.sol\":2837:2842  users */\n      0x01\n        /* \"KYC.sol\":2837:2847  users[rer] */\n      0x00\n        /* \"KYC.sol\":2843:2846  rer */\n      dup10\n        /* \"KYC.sol\":2837:2847  users[rer] */\n      0xffffffffffffffffffffffffffffffffffffffff\n      and\n      0xffffffffffffffffffffffffffffffffffffffff\n      and\n      dup2\n      mstore\n      0x20\n      add\n      swap1\n      dup2\n      mstore\n      0x20\n      add\n      0x00\n      keccak256\n        /* \"KYC.sol\":2837:2852  users[rer].name */\n      0x00\n      add\n        /* \"KYC.sol\":2853:2858  users */\n      0x01\n        /* \"KYC.sol\":2853:2863  users[rer] */\n      0x00\n        /* \"KYC.sol\":2859:2862  rer */\n      dup11\n        /* \"KYC.sol\":2853:2863  users[rer] */\n      0xffffffffffffffffffffffffffffffffffffffff\n      and\n      0xffffffffffffffffffffffffffffffffffffffff\n      and\n      dup2\n      mstore\n      0x20\n      add\n      swap1\n      dup2\n      mstore\n      0x20\n      add\n      0x00\n      keccak256\n        /* \"KYC.sol\":2853:2870  users[rer].father */\n      0x01\n      add\n        /* \"KYC.sol\":2871:2876  users */\n      0x01\n        /* \"KYC.sol\":2871:2881  users[rer] */\n      0x00\n        /* \"KYC.sol\":2877:2880  rer */\n      dup12\n        /* \"KYC.sol\":2871:2881  users[rer] */\n      0xffffffffffffffffffffffffffffffffffffffff\n      and\n      0xffffffffffffffffffffffffffffffffffffffff\n      and\n      dup2\n      mstore\n      0x20\n      add\n      swap1\n      dup2\n      mstore\n      0x20\n      add\n      0x00\n      keccak256\n        /* \"KYC.sol\":2871:2888  users[rer].mother */\n      0x02\n      add\n        /* \"KYC.sol\":2889:2894  users */\n      0x01\n        /* \"KYC.sol\":2889:2899  users[rer] */\n      0x00\n        /* \"KYC.sol\":2895:2898  rer */\n      dup13\n        /* \"KYC.sol\":2889:2899  users[rer] */\n      0xffffffffffffffffffffffffffffffffffffffff\n      and\n      0xffffffffffffffffffffffffffffffffffffffff\n      and\n      dup2\n      mstore\n      0x20\n      add\n      swap1\n      dup2\n      mstore\n      0x20\n      add\n      0x00\n      keccak256\n        /* \"KYC.sol\":2889:2909  users[rer].birthdate */\n      0x03\n      add\n        /* \"KYC.sol\":2910:2915  users */\n      0x01\n        /* \"KYC.sol\":2910:2920  users[rer] */\n      0x00\n        /* \"KYC.sol\":2916:2919  rer */\n      dup14\n        /* \"KYC.sol\":2910:2920  users[rer] */\n      0xffffffffffffffffffffffffffffffffffffffff\n      and\n      0xffffffffffffffffffffffffffffffffffffffff\n      and\n      dup2\n      mstore\n      0x20\n      add\n      swap1\n      dup2\n      mstore\n      0x20\n      add\n      0x00\n      keccak256\n        /* \"KYC.sol\":2910:2924  users[rer].add */\n      0x04\n      add\n        /* \"KYC.sol\":2925:2930  users */\n      0x01\n        /* \"KYC.sol\":2925:2935  users[rer] */\n      0x00\n        /* \"KYC.sol\":2931:2934  rer */\n      dup15\n        /* \"KYC.sol\":2925:2935  users[rer] */\n      0xffffffffffffffffffffffffffffffffffffffff\n      and\n      0xffffffffffffffffffffffffffffffffffffffff\n      and\n      dup2\n      mstore\n      0x20\n      add\n      swap1\n      dup2\n      mstore\n      0x20\n      add\n      0x00\n      keccak256\n        /* \"KYC.sol\":2925:2939  users[rer].mob */\n      0x05\n      add\n      sload\n        /* \"KYC.sol\":2940:2945  users */\n      0x01\n        /* \"KYC.sol\":2940:2950  users[rer] */\n      0x00\n        /* \"KYC.sol\":2946:2949  rer */\n      dup16\n        /* \"KYC.sol\":2940:2950  users[rer] */\n      0xffffffffffffffffffffffffffffffffffffffff\n      and\n      0xffffffffffffffffffffffffffffffffffffffff\n      and\n      dup2\n      mstore\n      0x20\n      add\n      swap1\n      dup2\n      mstore\n      0x20\n      add\n      0x00\n      keccak256\n        /* \"KYC.sol\":2940:2956  users[rer].email */\n      0x06\n      add\n        /* \"KYC.sol\":2829:2957  return (users[rer].name,users[rer].father,users[rer].mother,users[rer].birthdate,users[rer].add,users[rer].mob,users[rer].email) */\n      dup7\n      dup1\n      sload\n      tag_121\n      swap1\n      tag_60\n      jump\t// in\n    tag_121:\n      dup1\n      0x1f\n      add\n      0x20\n      dup1\n      swap2\n      div\n      mul\n      0x20\n      add\n      mload(0x40)\n      swap1\n      dup2\n      add\n      0x40\n      mstore\n      dup1\n      swap3\n      swap2\n      swap1\n      dup2\n      dup2\n      mstore\n      0x20\n      add\n      dup3\n      dup1\n      sload\n      tag_122\n      swap1\n      tag_60\n      jump\t// in\n    tag_122:\n      dup1\n      iszero\n      tag_123\n      jumpi\n      dup1\n      0x1f\n      lt\n      tag_124\n      jumpi\n      0x0100\n      dup1\n      dup4\n      sload\n      div\n      mul\n      dup4\n      mstore\n      swap2\n      0x20\n      add\n      swap2\n      jump(tag_123)\n    tag_124:\n      dup3\n      add\n      swap2\n      swap1\n      0x00\n      mstore\n      keccak256(0x00, 0x20)\n      swap1\n    tag_125:\n      dup2\n      sload\n      dup2\n      mstore\n      swap1\n      0x01\n      add\n      swap1\n      0x20\n      add\n      dup1\n      dup4\n      gt\n      tag_125\n      jumpi\n      dup3\n      swap1\n      sub\n      0x1f\n      and\n      dup3\n      add\n      swap2\n    tag_123:\n      pop\n      pop\n      pop\n      pop\n      pop\n      swap7\n      pop\n      dup6\n      dup1\n      sload\n      tag_126\n      swap1\n      tag_60\n      jump\t// in\n    tag_126:\n      dup1\n      0x1f\n      add\n      0x20\n      dup1\n      swap2\n      div\n      mul\n      0x20\n      add\n      mload(0x40)\n      swap1\n      dup2\n      add\n      0x40\n      mstore\n      dup1\n      swap3\n      swap2\n      swap1\n      dup2\n      dup2\n      mstore\n      0x20\n      add\n      dup3\n      dup1\n      sload\n      tag_127\n      swap1\n      tag_60\n      jump\t// in\n    tag_127:\n      dup1\n      iszero\n      tag_128\n      jumpi\n      dup1\n      0x1f\n      lt\n      tag_129\n      jumpi\n      0x0100\n      dup1\n      dup4\n      sload\n      div\n      mul\n      dup4\n      mstore\n      swap2\n      0x20\n      add\n      swap2\n      jump(tag_128)\n    tag_129:\n      dup3\n      add\n      swap2\n      swap1\n      0x00\n      mstore\n      keccak256(0x00, 0x20)\n      swap1\n    tag_130:\n      dup2\n      sload\n      dup2\n      mstore\n      swap1\n      0x01\n      add\n      swap1\n      0x20\n      add\n      dup1\n      dup4\n      gt\n      tag_130\n      jumpi\n      dup3\n      swap1\n      sub\n      0x1f\n      and\n      dup3\n      add\n      swap2\n    tag_128:\n      pop\n      pop\n      pop\n      pop\n      pop\n      swap6\n      pop\n      dup5\n      dup1\n      sload\n      tag_131\n      swap1\n      tag_60\n      jump\t// in\n    tag_131:\n      dup1\n      0x1f\n      add\n      0x20\n      dup1\n      swap2\n      div\n      mul\n      0x20\n      add\n      mload(0x40)\n      swap1\n      dup2\n      add\n      0x40\n      mstore\n      dup1\n      swap3\n      swap2\n      swap1\n      dup2\n      dup2\n      mstore\n      0x20\n      add\n      dup3\n      dup1\n      sload\n      tag_132\n      swap1\n      tag_60\n      jump\t// in\n    tag_132:\n      dup1\n      iszero\n      tag_133\n      jumpi\n      dup1\n      0x1f\n      lt\n      tag_134\n      jumpi\n      0x0100\n      dup1\n      dup4\n      sload\n      div\n      mul\n      dup4\n      mstore\n      swap2\n      0x20\n      add\n      swap2\n      jump(tag_133)\n    tag_134:\n      dup3\n      add\n      swap2\n      swap1\n      0x00\n      mstore\n      keccak256(0x00, 0x20)\n      swap1\n    tag_135:\n      dup2\n      sload\n      dup2\n      mstore\n      swap1\n      0x01\n      add\n      swap1\n      0x20\n      add\n      dup1\n      dup4\n      gt\n      tag_135\n      jumpi\n      dup3\n      swap1\n      sub\n      0x1f\n      and\n      dup3\n      add\n      swap2\n    tag_133:\n      pop\n      pop\n      pop\n      pop\n      pop\n      swap5\n      pop\n      dup4\n      dup1\n      sload\n      tag_136\n      swap1\n      tag_60\n      jump\t// in\n    tag_136:\n      dup1\n      0x1f\n      add\n      0x20\n      dup1\n      swap2\n      div\n      mul\n      0x20\n      add\n      mload(0x40)\n      swap1\n      dup2\n      add\n      0x40\n      mstore\n      dup1\n      swap3\n      swap2\n      swap1\n      dup2\n      dup2\n      mstore\n      0x20\n      add\n      dup3\n      dup1\n      sload\n      tag_137\n      swap1\n      tag_60\n      jump\t// in\n    tag_137:\n      dup1\n      iszero\n      tag_138\n      jumpi\n      dup1\n      0x1f\n      lt\n      tag_139\n      jumpi\n      0x0100\n      dup1\n      dup4\n      sload\n      div\n      mul\n      dup4\n      mstore\n      swap2\n      0x20\n      add\n      swap2\n      jump(tag_138)\n    tag_139:\n      dup3\n      add\n      swap2\n      swap1\n      0x00\n      mstore\n      keccak256(0x00, 0x20)\n      swap1\n    tag_140:\n      dup2\n      sload\n      dup2\n      mstore\n      swap1\n      0x01\n      add\n      swap1\n      0x20\n      add\n      dup1\n      dup4\n      gt\n      tag_140\n      jumpi\n      dup3\n      swap1\n      sub\n      0x1f\n      and\n      dup3\n      add\n      swap2\n    tag_138:\n      pop\n      pop\n      pop\n      pop\n      pop\n      swap4\n      pop\n      dup3\n      dup1\n      sload\n      tag_141\n      swap1\n      tag_60\n      jump\t// in\n    tag_141:\n      dup1\n      0x1f\n      add\n      0x20\n      dup1\n      swap2\n      div\n      mul\n      0x20\n      add\n      mload(0x40)\n      swap1\n      dup2\n      add\n      0x40\n      mstore\n      dup1\n      swap3\n      swap2\n      swap1\n      dup2\n      dup2\n      mstore\n      0x20\n      add\n      dup3\n      dup1\n      sload\n      tag_142\n      swap1\n      tag_60\n      jump\t// in\n    tag_142:\n      dup1\n      iszero\n      tag_143\n      jumpi\n      dup1\n      0x1f\n      lt\n      tag_144\n      jumpi\n      0x0100\n      dup1\n      dup4\n      sload\n      div\n      mul\n      dup4\n      mstore\n      swap2\n      0x20\n      add\n      swap2\n      jump(tag_143)\n    tag_144:\n      dup3\n      add\n      swap2\n      swap1\n      0x00\n      mstore\n      keccak256(0x00, 0x20)\n      swap1\n    tag_145:\n      dup2\n      sload\n      dup2\n      mstore\n      swap1\n      0x01\n      add\n      swap1\n      0x20\n      add\n      dup1\n      dup4\n      gt\n      tag_145\n      jumpi\n      dup3\n      swap1\n      sub\n      0x1f\n      and\n      dup3\n      add\n      swap2\n    tag_143:\n      pop\n      pop\n      pop\n      pop\n      pop\n      swap3\n      pop\n      dup1\n      dup1\n      sload\n      tag_146\n      swap1\n      tag_60\n      jump\t// in\n    tag_146:\n      dup1\n      0x1f\n      add\n      0x20\n      dup1\n      swap2\n      div\n      mul\n      0x20\n      add\n      mload(0x40)\n      swap1\n      dup2\n      add\n      0x40\n      mstore\n      dup1\n      swap3\n      swap2\n      swap1\n      dup2\n      dup2\n      mstore\n      0x20\n      add\n      dup3\n      dup1\n      sload\n      tag_147\n      swap1\n      tag_60\n      jump\t// in\n    tag_147:\n      dup1\n      iszero\n      tag_148\n      jumpi\n      dup1\n      0x1f\n      lt\n      tag_149\n      jumpi\n      0x0100\n      dup1\n      dup4\n      sload\n      div\n      mul\n      dup4\n      mstore\n      swap2\n      0x20\n      add\n      swap2\n      jump(tag_148)\n    tag_149:\n      dup3\n      add\n      swap2\n      swap1\n      0x00\n      mstore\n      keccak256(0x00, 0x20)\n      swap1\n    tag_150:\n      dup2\n      sload\n      dup2\n      mstore\n      swap1\n      0x01\n      add\n      swap1\n      0x20\n      add\n      dup1\n      dup4\n      gt\n      tag_150\n      jumpi\n      dup3\n      swap1\n      sub\n      0x1f\n      and\n      dup3\n      add\n      swap2\n    tag_148:\n      pop\n      pop\n      pop\n      pop\n      pop\n      swap1\n      pop\n      swap7\n      pop\n      swap7\n      pop\n      swap7\n      pop\n      swap7\n      pop\n      swap7\n      pop\n      swap7\n      pop\n      swap7\n      pop\n        /* \"KYC.sol\":2591:2965  function getparticularUser(address rer) public view... */\n      swap2\n      swap4\n      swap6\n      swap8\n      swap1\n      swap3\n      swap5\n      swap7\n      pop\n      jump\t// out\n        /* \"KYC.sol\":1363:1390  address public usersAddress */\n    tag_51:\n      0x00\n      dup1\n      sload\n      swap1\n      0x0100\n      exp\n      swap1\n      div\n      0xffffffffffffffffffffffffffffffffffffffff\n      and\n      dup2\n      jump\t// out\n    tag_67:\n      dup3\n      dup1\n      sload\n      tag_151\n      swap1\n      tag_60\n      jump\t// in\n    tag_151:\n      swap1\n      0x00\n      mstore\n      keccak256(0x00, 0x20)\n      swap1\n      0x1f\n      add\n      0x20\n      swap1\n      div\n      dup2\n      add\n      swap3\n      dup3\n      tag_153\n      jumpi\n      0x00\n      dup6\n      sstore\n      jump(tag_152)\n    tag_153:\n      dup3\n      0x1f\n      lt\n      tag_154\n      jumpi\n      dup1\n      mload\n      not(0xff)\n      and\n      dup4\n      dup1\n      add\n      or\n      dup6\n      sstore\n      jump(tag_152)\n    tag_154:\n      dup3\n      dup1\n      add\n      0x01\n      add\n      dup6\n      sstore\n      dup3\n      iszero\n      tag_152\n      jumpi\n      swap2\n      dup3\n      add\n    tag_155:\n      dup3\n      dup2\n      gt\n      iszero\n      tag_156\n      jumpi\n      dup3\n      mload\n      dup3\n      sstore\n      swap2\n      0x20\n      add\n      swap2\n      swap1\n      0x01\n      add\n      swap1\n      jump(tag_155)\n    tag_156:\n    tag_152:\n      pop\n      swap1\n      pop\n      tag_157\n      swap2\n      swap1\n      tag_158\n      jump\t// in\n    tag_157:\n      pop\n      swap1\n      jump\t// out\n    tag_158:\n    tag_159:\n      dup1\n      dup3\n      gt\n      iszero\n      tag_160\n      jumpi\n      0x00\n      dup2\n      0x00\n      swap1\n      sstore\n      pop\n      0x01\n      add\n      jump(tag_159)\n    tag_160:\n      pop\n      swap1\n      jump\t// out\n        /* \"#utility.yul\":7:82   */\n    tag_161:\n        /* \"#utility.yul\":40:46   */\n      0x00\n        /* \"#utility.yul\":73:75   */\n      0x40\n        /* \"#utility.yul\":67:76   */\n      mload\n        /* \"#utility.yul\":57:76   */\n      swap1\n      pop\n        /* \"#utility.yul\":7:82   */\n      swap1\n      jump\t// out\n        /* \"#utility.yul\":88:205   */\n    tag_162:\n        /* \"#utility.yul\":197:198   */\n      0x00\n        /* \"#utility.yul\":194:195   */\n      dup1\n        /* \"#utility.yul\":187:199   */\n      revert\n        /* \"#utility.yul\":211:328   */\n    tag_163:\n        /* \"#utility.yul\":320:321   */\n      0x00\n        /* \"#utility.yul\":317:318   */\n      dup1\n        /* \"#utility.yul\":310:322   */\n      revert\n        /* \"#utility.yul\":334:460   */\n    tag_164:\n        /* \"#utility.yul\":371:378   */\n      0x00\n        /* \"#utility.yul\":411:453   */\n      0xffffffffffffffffffffffffffffffffffffffff\n        /* \"#utility.yul\":404:409   */\n      dup3\n        /* \"#utility.yul\":400:454   */\n      and\n        /* \"#utility.yul\":389:454   */\n      swap1\n      pop\n        /* \"#utility.yul\":334:460   */\n      swap2\n      swap1\n      pop\n      jump\t// out\n        /* \"#utility.yul\":466:562   */\n    tag_165:\n        /* \"#utility.yul\":503:510   */\n      0x00\n        /* \"#utility.yul\":532:556   */\n      tag_194\n        /* \"#utility.yul\":550:555   */\n      dup3\n        /* \"#utility.yul\":532:556   */\n      tag_164\n      jump\t// in\n    tag_194:\n        /* \"#utility.yul\":521:556   */\n      swap1\n      pop\n        /* \"#utility.yul\":466:562   */\n      swap2\n      swap1\n      pop\n      jump\t// out\n        /* \"#utility.yul\":568:690   */\n    tag_166:\n        /* \"#utility.yul\":641:665   */\n      tag_196\n        /* \"#utility.yul\":659:664   */\n      dup2\n        /* \"#utility.yul\":641:665   */\n      tag_165\n      jump\t// in\n    tag_196:\n        /* \"#utility.yul\":634:639   */\n      dup2\n        /* \"#utility.yul\":631:666   */\n      eq\n        /* \"#utility.yul\":621:684   */\n      tag_197\n      jumpi\n        /* \"#utility.yul\":680:681   */\n      0x00\n        /* \"#utility.yul\":677:678   */\n      dup1\n        /* \"#utility.yul\":670:682   */\n      revert\n        /* \"#utility.yul\":621:684   */\n    tag_197:\n        /* \"#utility.yul\":568:690   */\n      pop\n      jump\t// out\n        /* \"#utility.yul\":696:835   */\n    tag_167:\n        /* \"#utility.yul\":742:747   */\n      0x00\n        /* \"#utility.yul\":780:786   */\n      dup2\n        /* \"#utility.yul\":767:787   */\n      calldataload\n        /* \"#utility.yul\":758:787   */\n      swap1\n      pop\n        /* \"#utility.yul\":796:829   */\n      tag_199\n        /* \"#utility.yul\":823:828   */\n      dup2\n        /* \"#utility.yul\":796:829   */\n      tag_166\n      jump\t// in\n    tag_199:\n        /* \"#utility.yul\":696:835   */\n      swap3\n      swap2\n      pop\n      pop\n      jump\t// out\n        /* \"#utility.yul\":841:1170   */\n    tag_16:\n        /* \"#utility.yul\":900:906   */\n      0x00\n        /* \"#utility.yul\":949:951   */\n      0x20\n        /* \"#utility.yul\":937:946   */\n      dup3\n        /* \"#utility.yul\":928:935   */\n      dup5\n        /* \"#utility.yul\":924:947   */\n      sub\n        /* \"#utility.yul\":920:952   */\n      slt\n        /* \"#utility.yul\":917:1036   */\n      iszero\n      tag_201\n      jumpi\n        /* \"#utility.yul\":955:1034   */\n      tag_202\n      tag_162\n      jump\t// in\n    tag_202:\n        /* \"#utility.yul\":917:1036   */\n    tag_201:\n        /* \"#utility.yul\":1075:1076   */\n      0x00\n        /* \"#utility.yul\":1100:1153   */\n      tag_203\n        /* \"#utility.yul\":1145:1152   */\n      dup5\n        /* \"#utility.yul\":1136:1142   */\n      dup3\n        /* \"#utility.yul\":1125:1134   */\n      dup6\n        /* \"#utility.yul\":1121:1143   */\n      add\n        /* \"#utility.yul\":1100:1153   */\n      tag_167\n      jump\t// in\n    tag_203:\n        /* \"#utility.yul\":1090:1153   */\n      swap2\n      pop\n        /* \"#utility.yul\":1046:1163   */\n      pop\n        /* \"#utility.yul\":841:1170   */\n      swap3\n      swap2\n      pop\n      pop\n      jump\t// out\n        /* \"#utility.yul\":1176:1253   */\n    tag_168:\n        /* \"#utility.yul\":1213:1220   */\n      0x00\n        /* \"#utility.yul\":1242:1247   */\n      dup2\n        /* \"#utility.yul\":1231:1247   */\n      swap1\n      pop\n        /* \"#utility.yul\":1176:1253   */\n      swap2\n      swap1\n      pop\n      jump\t// out\n        /* \"#utility.yul\":1259:1377   */\n    tag_169:\n        /* \"#utility.yul\":1346:1370   */\n      tag_206\n        /* \"#utility.yul\":1364:1369   */\n      dup2\n        /* \"#utility.yul\":1346:1370   */\n      tag_168\n      jump\t// in\n    tag_206:\n        /* \"#utility.yul\":1341:1344   */\n      dup3\n        /* \"#utility.yul\":1334:1371   */\n      mstore\n        /* \"#utility.yul\":1259:1377   */\n      pop\n      pop\n      jump\t// out\n        /* \"#utility.yul\":1383:1482   */\n    tag_170:\n        /* \"#utility.yul\":1435:1441   */\n      0x00\n        /* \"#utility.yul\":1469:1474   */\n      dup2\n        /* \"#utility.yul\":1463:1475   */\n      mload\n        /* \"#utility.yul\":1453:1475   */\n      swap1\n      pop\n        /* \"#utility.yul\":1383:1482   */\n      swap2\n      swap1\n      pop\n      jump\t// out\n        /* \"#utility.yul\":1488:1657   */\n    tag_171:\n        /* \"#utility.yul\":1572:1583   */\n      0x00\n        /* \"#utility.yul\":1606:1612   */\n      dup3\n        /* \"#utility.yul\":1601:1604   */\n      dup3\n        /* \"#utility.yul\":1594:1613   */\n      mstore\n        /* \"#utility.yul\":1646:1650   */\n      0x20\n        /* \"#utility.yul\":1641:1644   */\n      dup3\n        /* \"#utility.yul\":1637:1651   */\n      add\n        /* \"#utility.yul\":1622:1651   */\n      swap1\n      pop\n        /* \"#utility.yul\":1488:1657   */\n      swap3\n      swap2\n      pop\n      pop\n      jump\t// out\n        /* \"#utility.yul\":1663:1970   */\n    tag_172:\n        /* \"#utility.yul\":1731:1732   */\n      0x00\n        /* \"#utility.yul\":1741:1854   */\n    tag_210:\n        /* \"#utility.yul\":1755:1761   */\n      dup4\n        /* \"#utility.yul\":1752:1753   */\n      dup2\n        /* \"#utility.yul\":1749:1762   */\n      lt\n        /* \"#utility.yul\":1741:1854   */\n      iszero\n      tag_212\n      jumpi\n        /* \"#utility.yul\":1840:1841   */\n      dup1\n        /* \"#utility.yul\":1835:1838   */\n      dup3\n        /* \"#utility.yul\":1831:1842   */\n      add\n        /* \"#utility.yul\":1825:1843   */\n      mload\n        /* \"#utility.yul\":1821:1822   */\n      dup2\n        /* \"#utility.yul\":1816:1819   */\n      dup5\n        /* \"#utility.yul\":1812:1823   */\n      add\n        /* \"#utility.yul\":1805:1844   */\n      mstore\n        /* \"#utility.yul\":1777:1779   */\n      0x20\n        /* \"#utility.yul\":1774:1775   */\n      dup2\n        /* \"#utility.yul\":1770:1780   */\n      add\n        /* \"#utility.yul\":1765:1780   */\n      swap1\n      pop\n        /* \"#utility.yul\":1741:1854   */\n      jump(tag_210)\n    tag_212:\n        /* \"#utility.yul\":1872:1878   */\n      dup4\n        /* \"#utility.yul\":1869:1870   */\n      dup2\n        /* \"#utility.yul\":1866:1879   */\n      gt\n        /* \"#utility.yul\":1863:1964   */\n      iszero\n      tag_213\n      jumpi\n        /* \"#utility.yul\":1952:1953   */\n      0x00\n        /* \"#utility.yul\":1943:1949   */\n      dup5\n        /* \"#utility.yul\":1938:1941   */\n      dup5\n        /* \"#utility.yul\":1934:1950   */\n      add\n        /* \"#utility.yul\":1927:1954   */\n      mstore\n        /* \"#utility.yul\":1863:1964   */\n    tag_213:\n        /* \"#utility.yul\":1712:1970   */\n      pop\n        /* \"#utility.yul\":1663:1970   */\n      pop\n      pop\n      pop\n      jump\t// out\n        /* \"#utility.yul\":1976:2078   */\n    tag_173:\n        /* \"#utility.yul\":2017:2023   */\n      0x00\n        /* \"#utility.yul\":2068:2070   */\n      0x1f\n        /* \"#utility.yul\":2064:2071   */\n      not\n        /* \"#utility.yul\":2059:2061   */\n      0x1f\n        /* \"#utility.yul\":2052:2057   */\n      dup4\n        /* \"#utility.yul\":2048:2062   */\n      add\n        /* \"#utility.yul\":2044:2072   */\n      and\n        /* \"#utility.yul\":2034:2072   */\n      swap1\n      pop\n        /* \"#utility.yul\":1976:2078   */\n      swap2\n      swap1\n      pop\n      jump\t// out\n        /* \"#utility.yul\":2084:2448   */\n    tag_174:\n        /* \"#utility.yul\":2172:2175   */\n      0x00\n        /* \"#utility.yul\":2200:2239   */\n      tag_216\n        /* \"#utility.yul\":2233:2238   */\n      dup3\n        /* \"#utility.yul\":2200:2239   */\n      tag_170\n      jump\t// in\n    tag_216:\n        /* \"#utility.yul\":2255:2326   */\n      tag_217\n        /* \"#utility.yul\":2319:2325   */\n      dup2\n        /* \"#utility.yul\":2314:2317   */\n      dup6\n        /* \"#utility.yul\":2255:2326   */\n      tag_171\n      jump\t// in\n    tag_217:\n        /* \"#utility.yul\":2248:2326   */\n      swap4\n      pop\n        /* \"#utility.yul\":2335:2387   */\n      tag_218\n        /* \"#utility.yul\":2380:2386   */\n      dup2\n        /* \"#utility.yul\":2375:2378   */\n      dup6\n        /* \"#utility.yul\":2368:2372   */\n      0x20\n        /* \"#utility.yul\":2361:2366   */\n      dup7\n        /* \"#utility.yul\":2357:2373   */\n      add\n        /* \"#utility.yul\":2335:2387   */\n      tag_172\n      jump\t// in\n    tag_218:\n        /* \"#utility.yul\":2412:2441   */\n      tag_219\n        /* \"#utility.yul\":2434:2440   */\n      dup2\n        /* \"#utility.yul\":2412:2441   */\n      tag_173\n      jump\t// in\n    tag_219:\n        /* \"#utility.yul\":2407:2410   */\n      dup5\n        /* \"#utility.yul\":2403:2442   */\n      add\n        /* \"#utility.yul\":2396:2442   */\n      swap2\n      pop\n        /* \"#utility.yul\":2176:2448   */\n      pop\n        /* \"#utility.yul\":2084:2448   */\n      swap3\n      swap2\n      pop\n      pop\n      jump\t// out\n        /* \"#utility.yul\":2454:2877   */\n    tag_22:\n        /* \"#utility.yul\":2595:2599   */\n      0x00\n        /* \"#utility.yul\":2633:2635   */\n      0x40\n        /* \"#utility.yul\":2622:2631   */\n      dup3\n        /* \"#utility.yul\":2618:2636   */\n      add\n        /* \"#utility.yul\":2610:2636   */\n      swap1\n      pop\n        /* \"#utility.yul\":2646:2717   */\n      tag_221\n        /* \"#utility.yul\":2714:2715   */\n      0x00\n        /* \"#utility.yul\":2703:2712   */\n      dup4\n        /* \"#utility.yul\":2699:2716   */\n      add\n        /* \"#utility.yul\":2690:2696   */\n      dup6\n        /* \"#utility.yul\":2646:2717   */\n      tag_169\n      jump\t// in\n    tag_221:\n        /* \"#utility.yul\":2764:2773   */\n      dup2\n        /* \"#utility.yul\":2758:2762   */\n      dup2\n        /* \"#utility.yul\":2754:2774   */\n      sub\n        /* \"#utility.yul\":2749:2751   */\n      0x20\n        /* \"#utility.yul\":2738:2747   */\n      dup4\n        /* \"#utility.yul\":2734:2752   */\n      add\n        /* \"#utility.yul\":2727:2775   */\n      mstore\n        /* \"#utility.yul\":2792:2870   */\n      tag_222\n        /* \"#utility.yul\":2865:2869   */\n      dup2\n        /* \"#utility.yul\":2856:2862   */\n      dup5\n        /* \"#utility.yul\":2792:2870   */\n      tag_174\n      jump\t// in\n    tag_222:\n        /* \"#utility.yul\":2784:2870   */\n      swap1\n      pop\n        /* \"#utility.yul\":2454:2877   */\n      swap4\n      swap3\n      pop\n      pop\n      pop\n      jump\t// out\n        /* \"#utility.yul\":2883:3000   */\n    tag_175:\n        /* \"#utility.yul\":2992:2993   */\n      0x00\n        /* \"#utility.yul\":2989:2990   */\n      dup1\n        /* \"#utility.yul\":2982:2994   */\n      revert\n        /* \"#utility.yul\":3006:3123   */\n    tag_176:\n        /* \"#utility.yul\":3115:3116   */\n      0x00\n        /* \"#utility.yul\":3112:3113   */\n      dup1\n        /* \"#utility.yul\":3105:3117   */\n      revert\n        /* \"#utility.yul\":3129:3309   */\n    tag_177:\n        /* \"#utility.yul\":3177:3254   */\n      0x4e487b7100000000000000000000000000000000000000000000000000000000\n        /* \"#utility.yul\":3174:3175   */\n      0x00\n        /* \"#utility.yul\":3167:3255   */\n      mstore\n        /* \"#utility.yul\":3274:3278   */\n      0x41\n        /* \"#utility.yul\":3271:3272   */\n      0x04\n        /* \"#utility.yul\":3264:3279   */\n      mstore\n        /* \"#utility.yul\":3298:3302   */\n      0x24\n        /* \"#utility.yul\":3295:3296   */\n      0x00\n        /* \"#utility.yul\":3288:3303   */\n      revert\n        /* \"#utility.yul\":3315:3596   */\n    tag_178:\n        /* \"#utility.yul\":3398:3425   */\n      tag_227\n        /* \"#utility.yul\":3420:3424   */\n      dup3\n        /* \"#utility.yul\":3398:3425   */\n      tag_173\n      jump\t// in\n    tag_227:\n        /* \"#utility.yul\":3390:3396   */\n      dup2\n        /* \"#utility.yul\":3386:3426   */\n      add\n        /* \"#utility.yul\":3528:3534   */\n      dup2\n        /* \"#utility.yul\":3516:3526   */\n      dup2\n        /* \"#utility.yul\":3513:3535   */\n      lt\n        /* \"#utility.yul\":3492:3510   */\n      0xffffffffffffffff\n        /* \"#utility.yul\":3480:3490   */\n      dup3\n        /* \"#utility.yul\":3477:3511   */\n      gt\n        /* \"#utility.yul\":3474:3536   */\n      or\n        /* \"#utility.yul\":3471:3559   */\n      iszero\n      tag_228\n      jumpi\n        /* \"#utility.yul\":3539:3557   */\n      tag_229\n      tag_177\n      jump\t// in\n    tag_229:\n        /* \"#utility.yul\":3471:3559   */\n    tag_228:\n        /* \"#utility.yul\":3579:3589   */\n      dup1\n        /* \"#utility.yul\":3575:3577   */\n      0x40\n        /* \"#utility.yul\":3568:3590   */\n      mstore\n        /* \"#utility.yul\":3358:3596   */\n      pop\n        /* \"#utility.yul\":3315:3596   */\n      pop\n      pop\n      jump\t// out\n        /* \"#utility.yul\":3602:3731   */\n    tag_179:\n        /* \"#utility.yul\":3636:3642   */\n      0x00\n        /* \"#utility.yul\":3663:3683   */\n      tag_231\n      tag_161\n      jump\t// in\n    tag_231:\n        /* \"#utility.yul\":3653:3683   */\n      swap1\n      pop\n        /* \"#utility.yul\":3692:3725   */\n      tag_232\n        /* \"#utility.yul\":3720:3724   */\n      dup3\n        /* \"#utility.yul\":3712:3718   */\n      dup3\n        /* \"#utility.yul\":3692:3725   */\n      tag_178\n      jump\t// in\n    tag_232:\n        /* \"#utility.yul\":3602:3731   */\n      swap2\n      swap1\n      pop\n      jump\t// out\n        /* \"#utility.yul\":3737:4045   */\n    tag_180:\n        /* \"#utility.yul\":3799:3803   */\n      0x00\n        /* \"#utility.yul\":3889:3907   */\n      0xffffffffffffffff\n        /* \"#utility.yul\":3881:3887   */\n      dup3\n        /* \"#utility.yul\":3878:3908   */\n      gt\n        /* \"#utility.yul\":3875:3931   */\n      iszero\n      tag_234\n      jumpi\n        /* \"#utility.yul\":3911:3929   */\n      tag_235\n      tag_177\n      jump\t// in\n    tag_235:\n        /* \"#utility.yul\":3875:3931   */\n    tag_234:\n        /* \"#utility.yul\":3949:3978   */\n      tag_236\n        /* \"#utility.yul\":3971:3977   */\n      dup3\n        /* \"#utility.yul\":3949:3978   */\n      tag_173\n      jump\t// in\n    tag_236:\n        /* \"#utility.yul\":3941:3978   */\n      swap1\n      pop\n        /* \"#utility.yul\":4033:4037   */\n      0x20\n        /* \"#utility.yul\":4027:4031   */\n      dup2\n        /* \"#utility.yul\":4023:4038   */\n      add\n        /* \"#utility.yul\":4015:4038   */\n      swap1\n      pop\n        /* \"#utility.yul\":3737:4045   */\n      swap2\n      swap1\n      pop\n      jump\t// out\n        /* \"#utility.yul\":4051:4205   */\n    tag_181:\n        /* \"#utility.yul\":4135:4141   */\n      dup3\n        /* \"#utility.yul\":4130:4133   */\n      dup2\n        /* \"#utility.yul\":4125:4128   */\n      dup4\n        /* \"#utility.yul\":4112:4142   */\n      calldatacopy\n        /* \"#utility.yul\":4197:4198   */\n      0x00\n        /* \"#utility.yul\":4188:4194   */\n      dup4\n        /* \"#utility.yul\":4183:4186   */\n      dup4\n        /* \"#utility.yul\":4179:4195   */\n      add\n        /* \"#utility.yul\":4172:4199   */\n      mstore\n        /* \"#utility.yul\":4051:4205   */\n      pop\n      pop\n      pop\n      jump\t// out\n        /* \"#utility.yul\":4211:4623   */\n    tag_182:\n        /* \"#utility.yul\":4289:4294   */\n      0x00\n        /* \"#utility.yul\":4314:4380   */\n      tag_239\n        /* \"#utility.yul\":4330:4379   */\n      tag_240\n        /* \"#utility.yul\":4372:4378   */\n      dup5\n        /* \"#utility.yul\":4330:4379   */\n      tag_180\n      jump\t// in\n    tag_240:\n        /* \"#utility.yul\":4314:4380   */\n      tag_179\n      jump\t// in\n    tag_239:\n        /* \"#utility.yul\":4305:4380   */\n      swap1\n      pop\n        /* \"#utility.yul\":4403:4409   */\n      dup3\n        /* \"#utility.yul\":4396:4401   */\n      dup2\n        /* \"#utility.yul\":4389:4410   */\n      mstore\n        /* \"#utility.yul\":4441:4445   */\n      0x20\n        /* \"#utility.yul\":4434:4439   */\n      dup2\n        /* \"#utility.yul\":4430:4446   */\n      add\n        /* \"#utility.yul\":4479:4482   */\n      dup5\n        /* \"#utility.yul\":4470:4476   */\n      dup5\n        /* \"#utility.yul\":4465:4468   */\n      dup5\n        /* \"#utility.yul\":4461:4477   */\n      add\n        /* \"#utility.yul\":4458:4483   */\n      gt\n        /* \"#utility.yul\":4455:4567   */\n      iszero\n      tag_241\n      jumpi\n        /* \"#utility.yul\":4486:4565   */\n      tag_242\n      tag_176\n      jump\t// in\n    tag_242:\n        /* \"#utility.yul\":4455:4567   */\n    tag_241:\n        /* \"#utility.yul\":4576:4617   */\n      tag_243\n        /* \"#utility.yul\":4610:4616   */\n      dup5\n        /* \"#utility.yul\":4605:4608   */\n      dup3\n        /* \"#utility.yul\":4600:4603   */\n      dup6\n        /* \"#utility.yul\":4576:4617   */\n      tag_181\n      jump\t// in\n    tag_243:\n        /* \"#utility.yul\":4295:4623   */\n      pop\n        /* \"#utility.yul\":4211:4623   */\n      swap4\n      swap3\n      pop\n      pop\n      pop\n      jump\t// out\n        /* \"#utility.yul\":4643:4983   */\n    tag_183:\n        /* \"#utility.yul\":4699:4704   */\n      0x00\n        /* \"#utility.yul\":4748:4751   */\n      dup3\n        /* \"#utility.yul\":4741:4745   */\n      0x1f\n        /* \"#utility.yul\":4733:4739   */\n      dup4\n        /* \"#utility.yul\":4729:4746   */\n      add\n        /* \"#utility.yul\":4725:4752   */\n      slt\n        /* \"#utility.yul\":4715:4837   */\n      tag_245\n      jumpi\n        /* \"#utility.yul\":4756:4835   */\n      tag_246\n      tag_175\n      jump\t// in\n    tag_246:\n        /* \"#utility.yul\":4715:4837   */\n    tag_245:\n        /* \"#utility.yul\":4873:4879   */\n      dup2\n        /* \"#utility.yul\":4860:4880   */\n      calldataload\n        /* \"#utility.yul\":4898:4977   */\n      tag_247\n        /* \"#utility.yul\":4973:4976   */\n      dup5\n        /* \"#utility.yul\":4965:4971   */\n      dup3\n        /* \"#utility.yul\":4958:4962   */\n      0x20\n        /* \"#utility.yul\":4950:4956   */\n      dup7\n        /* \"#utility.yul\":4946:4963   */\n      add\n        /* \"#utility.yul\":4898:4977   */\n      tag_182\n      jump\t// in\n    tag_247:\n        /* \"#utility.yul\":4889:4977   */\n      swap2\n      pop\n        /* \"#utility.yul\":4705:4983   */\n      pop\n        /* \"#utility.yul\":4643:4983   */\n      swap3\n      swap2\n      pop\n      pop\n      jump\t// out\n        /* \"#utility.yul\":4989:5498   */\n    tag_25:\n        /* \"#utility.yul\":5058:5064   */\n      0x00\n        /* \"#utility.yul\":5107:5109   */\n      0x20\n        /* \"#utility.yul\":5095:5104   */\n      dup3\n        /* \"#utility.yul\":5086:5093   */\n      dup5\n        /* \"#utility.yul\":5082:5105   */\n      sub\n        /* \"#utility.yul\":5078:5110   */\n      slt\n        /* \"#utility.yul\":5075:5194   */\n      iszero\n      tag_249\n      jumpi\n        /* \"#utility.yul\":5113:5192   */\n      tag_250\n      tag_162\n      jump\t// in\n    tag_250:\n        /* \"#utility.yul\":5075:5194   */\n    tag_249:\n        /* \"#utility.yul\":5261:5262   */\n      0x00\n        /* \"#utility.yul\":5250:5259   */\n      dup3\n        /* \"#utility.yul\":5246:5263   */\n      add\n        /* \"#utility.yul\":5233:5264   */\n      calldataload\n        /* \"#utility.yul\":5291:5309   */\n      0xffffffffffffffff\n        /* \"#utility.yul\":5283:5289   */\n      dup2\n        /* \"#utility.yul\":5280:5310   */\n      gt\n        /* \"#utility.yul\":5277:5394   */\n      iszero\n      tag_251\n      jumpi\n        /* \"#utility.yul\":5313:5392   */\n      tag_252\n      tag_163\n      jump\t// in\n    tag_252:\n        /* \"#utility.yul\":5277:5394   */\n    tag_251:\n        /* \"#utility.yul\":5418:5481   */\n      tag_253\n        /* \"#utility.yul\":5473:5480   */\n      dup5\n        /* \"#utility.yul\":5464:5470   */\n      dup3\n        /* \"#utility.yul\":5453:5462   */\n      dup6\n        /* \"#utility.yul\":5449:5471   */\n      add\n        /* \"#utility.yul\":5418:5481   */\n      tag_183\n      jump\t// in\n    tag_253:\n        /* \"#utility.yul\":5408:5481   */\n      swap2\n      pop\n        /* \"#utility.yul\":5204:5491   */\n      pop\n        /* \"#utility.yul\":4989:5498   */\n      swap3\n      swap2\n      pop\n      pop\n      jump\t// out\n        /* \"#utility.yul\":5504:5622   */\n    tag_184:\n        /* \"#utility.yul\":5591:5615   */\n      tag_255\n        /* \"#utility.yul\":5609:5614   */\n      dup2\n        /* \"#utility.yul\":5591:5615   */\n      tag_165\n      jump\t// in\n    tag_255:\n        /* \"#utility.yul\":5586:5589   */\n      dup3\n        /* \"#utility.yul\":5579:5616   */\n      mstore\n        /* \"#utility.yul\":5504:5622   */\n      pop\n      pop\n      jump\t// out\n        /* \"#utility.yul\":5628:5850   */\n    tag_30:\n        /* \"#utility.yul\":5721:5725   */\n      0x00\n        /* \"#utility.yul\":5759:5761   */\n      0x20\n        /* \"#utility.yul\":5748:5757   */\n      dup3\n        /* \"#utility.yul\":5744:5762   */\n      add\n        /* \"#utility.yul\":5736:5762   */\n      swap1\n      pop\n        /* \"#utility.yul\":5772:5843   */\n      tag_257\n        /* \"#utility.yul\":5840:5841   */\n      0x00\n        /* \"#utility.yul\":5829:5838   */\n      dup4\n        /* \"#utility.yul\":5825:5842   */\n      add\n        /* \"#utility.yul\":5816:5822   */\n      dup5\n        /* \"#utility.yul\":5772:5843   */\n      tag_184\n      jump\t// in\n    tag_257:\n        /* \"#utility.yul\":5628:5850   */\n      swap3\n      swap2\n      pop\n      pop\n      jump\t// out\n        /* \"#utility.yul\":5856:7601   */\n    tag_34:\n        /* \"#utility.yul\":6313:6317   */\n      0x00\n        /* \"#utility.yul\":6351:6354   */\n      0x0120\n        /* \"#utility.yul\":6340:6349   */\n      dup3\n        /* \"#utility.yul\":6336:6355   */\n      add\n        /* \"#utility.yul\":6328:6355   */\n      swap1\n      pop\n        /* \"#utility.yul\":6401:6410   */\n      dup2\n        /* \"#utility.yul\":6395:6399   */\n      dup2\n        /* \"#utility.yul\":6391:6411   */\n      sub\n        /* \"#utility.yul\":6387:6388   */\n      0x00\n        /* \"#utility.yul\":6376:6385   */\n      dup4\n        /* \"#utility.yul\":6372:6389   */\n      add\n        /* \"#utility.yul\":6365:6412   */\n      mstore\n        /* \"#utility.yul\":6429:6507   */\n      tag_259\n        /* \"#utility.yul\":6502:6506   */\n      dup2\n        /* \"#utility.yul\":6493:6499   */\n      dup13\n        /* \"#utility.yul\":6429:6507   */\n      tag_174\n      jump\t// in\n    tag_259:\n        /* \"#utility.yul\":6421:6507   */\n      swap1\n      pop\n        /* \"#utility.yul\":6554:6563   */\n      dup2\n        /* \"#utility.yul\":6548:6552   */\n      dup2\n        /* \"#utility.yul\":6544:6564   */\n      sub\n        /* \"#utility.yul\":6539:6541   */\n      0x20\n        /* \"#utility.yul\":6528:6537   */\n      dup4\n        /* \"#utility.yul\":6524:6542   */\n      add\n        /* \"#utility.yul\":6517:6565   */\n      mstore\n        /* \"#utility.yul\":6582:6660   */\n      tag_260\n        /* \"#utility.yul\":6655:6659   */\n      dup2\n        /* \"#utility.yul\":6646:6652   */\n      dup12\n        /* \"#utility.yul\":6582:6660   */\n      tag_174\n      jump\t// in\n    tag_260:\n        /* \"#utility.yul\":6574:6660   */\n      swap1\n      pop\n        /* \"#utility.yul\":6707:6716   */\n      dup2\n        /* \"#utility.yul\":6701:6705   */\n      dup2\n        /* \"#utility.yul\":6697:6717   */\n      sub\n        /* \"#utility.yul\":6692:6694   */\n      0x40\n        /* \"#utility.yul\":6681:6690   */\n      dup4\n        /* \"#utility.yul\":6677:6695   */\n      add\n        /* \"#utility.yul\":6670:6718   */\n      mstore\n        /* \"#utility.yul\":6735:6813   */\n      tag_261\n        /* \"#utility.yul\":6808:6812   */\n      dup2\n        /* \"#utility.yul\":6799:6805   */\n      dup11\n        /* \"#utility.yul\":6735:6813   */\n      tag_174\n      jump\t// in\n    tag_261:\n        /* \"#utility.yul\":6727:6813   */\n      swap1\n      pop\n        /* \"#utility.yul\":6860:6869   */\n      dup2\n        /* \"#utility.yul\":6854:6858   */\n      dup2\n        /* \"#utility.yul\":6850:6870   */\n      sub\n        /* \"#utility.yul\":6845:6847   */\n      0x60\n        /* \"#utility.yul\":6834:6843   */\n      dup4\n        /* \"#utility.yul\":6830:6848   */\n      add\n        /* \"#utility.yul\":6823:6871   */\n      mstore\n        /* \"#utility.yul\":6888:6966   */\n      tag_262\n        /* \"#utility.yul\":6961:6965   */\n      dup2\n        /* \"#utility.yul\":6952:6958   */\n      dup10\n        /* \"#utility.yul\":6888:6966   */\n      tag_174\n      jump\t// in\n    tag_262:\n        /* \"#utility.yul\":6880:6966   */\n      swap1\n      pop\n        /* \"#utility.yul\":7014:7023   */\n      dup2\n        /* \"#utility.yul\":7008:7012   */\n      dup2\n        /* \"#utility.yul\":7004:7024   */\n      sub\n        /* \"#utility.yul\":6998:7001   */\n      0x80\n        /* \"#utility.yul\":6987:6996   */\n      dup4\n        /* \"#utility.yul\":6983:7002   */\n      add\n        /* \"#utility.yul\":6976:7025   */\n      mstore\n        /* \"#utility.yul\":7042:7120   */\n      tag_263\n        /* \"#utility.yul\":7115:7119   */\n      dup2\n        /* \"#utility.yul\":7106:7112   */\n      dup9\n        /* \"#utility.yul\":7042:7120   */\n      tag_174\n      jump\t// in\n    tag_263:\n        /* \"#utility.yul\":7034:7120   */\n      swap1\n      pop\n        /* \"#utility.yul\":7130:7203   */\n      tag_264\n        /* \"#utility.yul\":7198:7201   */\n      0xa0\n        /* \"#utility.yul\":7187:7196   */\n      dup4\n        /* \"#utility.yul\":7183:7202   */\n      add\n        /* \"#utility.yul\":7174:7180   */\n      dup8\n        /* \"#utility.yul\":7130:7203   */\n      tag_169\n      jump\t// in\n    tag_264:\n        /* \"#utility.yul\":7251:7260   */\n      dup2\n        /* \"#utility.yul\":7245:7249   */\n      dup2\n        /* \"#utility.yul\":7241:7261   */\n      sub\n        /* \"#utility.yul\":7235:7238   */\n      0xc0\n        /* \"#utility.yul\":7224:7233   */\n      dup4\n        /* \"#utility.yul\":7220:7239   */\n      add\n        /* \"#utility.yul\":7213:7262   */\n      mstore\n        /* \"#utility.yul\":7279:7357   */\n      tag_265\n        /* \"#utility.yul\":7352:7356   */\n      dup2\n        /* \"#utility.yul\":7343:7349   */\n      dup7\n        /* \"#utility.yul\":7279:7357   */\n      tag_174\n      jump\t// in\n    tag_265:\n        /* \"#utility.yul\":7271:7357   */\n      swap1\n      pop\n        /* \"#utility.yul\":7367:7440   */\n      tag_266\n        /* \"#utility.yul\":7435:7438   */\n      0xe0\n        /* \"#utility.yul\":7424:7433   */\n      dup4\n        /* \"#utility.yul\":7420:7439   */\n      add\n        /* \"#utility.yul\":7411:7417   */\n      dup6\n        /* \"#utility.yul\":7367:7440   */\n      tag_169\n      jump\t// in\n    tag_266:\n        /* \"#utility.yul\":7488:7497   */\n      dup2\n        /* \"#utility.yul\":7482:7486   */\n      dup2\n        /* \"#utility.yul\":7478:7498   */\n      sub\n        /* \"#utility.yul\":7472:7475   */\n      0x0100\n        /* \"#utility.yul\":7461:7470   */\n      dup4\n        /* \"#utility.yul\":7457:7476   */\n      add\n        /* \"#utility.yul\":7450:7499   */\n      mstore\n        /* \"#utility.yul\":7516:7594   */\n      tag_267\n        /* \"#utility.yul\":7589:7593   */\n      dup2\n        /* \"#utility.yul\":7580:7586   */\n      dup5\n        /* \"#utility.yul\":7516:7594   */\n      tag_174\n      jump\t// in\n    tag_267:\n        /* \"#utility.yul\":7508:7594   */\n      swap1\n      pop\n        /* \"#utility.yul\":5856:7601   */\n      swap11\n      swap10\n      pop\n      pop\n      pop\n      pop\n      pop\n      pop\n      pop\n      pop\n      pop\n      pop\n      jump\t// out\n        /* \"#utility.yul\":7607:7729   */\n    tag_185:\n        /* \"#utility.yul\":7680:7704   */\n      tag_269\n        /* \"#utility.yul\":7698:7703   */\n      dup2\n        /* \"#utility.yul\":7680:7704   */\n      tag_168\n      jump\t// in\n    tag_269:\n        /* \"#utility.yul\":7673:7678   */\n      dup2\n        /* \"#utility.yul\":7670:7705   */\n      eq\n        /* \"#utility.yul\":7660:7723   */\n      tag_270\n      jumpi\n        /* \"#utility.yul\":7719:7720   */\n      0x00\n        /* \"#utility.yul\":7716:7717   */\n      dup1\n        /* \"#utility.yul\":7709:7721   */\n      revert\n        /* \"#utility.yul\":7660:7723   */\n    tag_270:\n        /* \"#utility.yul\":7607:7729   */\n      pop\n      jump\t// out\n        /* \"#utility.yul\":7735:7874   */\n    tag_186:\n        /* \"#utility.yul\":7781:7786   */\n      0x00\n        /* \"#utility.yul\":7819:7825   */\n      dup2\n        /* \"#utility.yul\":7806:7826   */\n      calldataload\n        /* \"#utility.yul\":7797:7826   */\n      swap1\n      pop\n        /* \"#utility.yul\":7835:7868   */\n      tag_272\n        /* \"#utility.yul\":7862:7867   */\n      dup2\n        /* \"#utility.yul\":7835:7868   */\n      tag_185\n      jump\t// in\n    tag_272:\n        /* \"#utility.yul\":7735:7874   */\n      swap3\n      swap2\n      pop\n      pop\n      jump\t// out\n        /* \"#utility.yul\":7880:10635   */\n    tag_37:\n        /* \"#utility.yul\":8081:8087   */\n      0x00\n        /* \"#utility.yul\":8089:8095   */\n      dup1\n        /* \"#utility.yul\":8097:8103   */\n      0x00\n        /* \"#utility.yul\":8105:8111   */\n      dup1\n        /* \"#utility.yul\":8113:8119   */\n      0x00\n        /* \"#utility.yul\":8121:8127   */\n      dup1\n        /* \"#utility.yul\":8129:8135   */\n      0x00\n        /* \"#utility.yul\":8137:8143   */\n      dup1\n        /* \"#utility.yul\":8145:8151   */\n      0x00\n        /* \"#utility.yul\":8194:8197   */\n      0x0120\n        /* \"#utility.yul\":8182:8191   */\n      dup11\n        /* \"#utility.yul\":8173:8180   */\n      dup13\n        /* \"#utility.yul\":8169:8192   */\n      sub\n        /* \"#utility.yul\":8165:8198   */\n      slt\n        /* \"#utility.yul\":8162:8282   */\n      iszero\n      tag_274\n      jumpi\n        /* \"#utility.yul\":8201:8280   */\n      tag_275\n      tag_162\n      jump\t// in\n    tag_275:\n        /* \"#utility.yul\":8162:8282   */\n    tag_274:\n        /* \"#utility.yul\":8349:8350   */\n      0x00\n        /* \"#utility.yul\":8338:8347   */\n      dup11\n        /* \"#utility.yul\":8334:8351   */\n      add\n        /* \"#utility.yul\":8321:8352   */\n      calldataload\n        /* \"#utility.yul\":8379:8397   */\n      0xffffffffffffffff\n        /* \"#utility.yul\":8371:8377   */\n      dup2\n        /* \"#utility.yul\":8368:8398   */\n      gt\n        /* \"#utility.yul\":8365:8482   */\n      iszero\n      tag_276\n      jumpi\n        /* \"#utility.yul\":8401:8480   */\n      tag_277\n      tag_163\n      jump\t// in\n    tag_277:\n        /* \"#utility.yul\":8365:8482   */\n    tag_276:\n        /* \"#utility.yul\":8506:8569   */\n      tag_278\n        /* \"#utility.yul\":8561:8568   */\n      dup13\n        /* \"#utility.yul\":8552:8558   */\n      dup3\n        /* \"#utility.yul\":8541:8550   */\n      dup14\n        /* \"#utility.yul\":8537:8559   */\n      add\n        /* \"#utility.yul\":8506:8569   */\n      tag_183\n      jump\t// in\n    tag_278:\n        /* \"#utility.yul\":8496:8569   */\n      swap10\n      pop\n        /* \"#utility.yul\":8292:8579   */\n      pop\n        /* \"#utility.yul\":8646:8648   */\n      0x20\n        /* \"#utility.yul\":8635:8644   */\n      dup11\n        /* \"#utility.yul\":8631:8649   */\n      add\n        /* \"#utility.yul\":8618:8650   */\n      calldataload\n        /* \"#utility.yul\":8677:8695   */\n      0xffffffffffffffff\n        /* \"#utility.yul\":8669:8675   */\n      dup2\n        /* \"#utility.yul\":8666:8696   */\n      gt\n        /* \"#utility.yul\":8663:8780   */\n      iszero\n      tag_279\n      jumpi\n        /* \"#utility.yul\":8699:8778   */\n      tag_280\n      tag_163\n      jump\t// in\n    tag_280:\n        /* \"#utility.yul\":8663:8780   */\n    tag_279:\n        /* \"#utility.yul\":8804:8867   */\n      tag_281\n        /* \"#utility.yul\":8859:8866   */\n      dup13\n        /* \"#utility.yul\":8850:8856   */\n      dup3\n        /* \"#utility.yul\":8839:8848   */\n      dup14\n        /* \"#utility.yul\":8835:8857   */\n      add\n        /* \"#utility.yul\":8804:8867   */\n      tag_183\n      jump\t// in\n    tag_281:\n        /* \"#utility.yul\":8794:8867   */\n      swap9\n      pop\n        /* \"#utility.yul\":8589:8877   */\n      pop\n        /* \"#utility.yul\":8944:8946   */\n      0x40\n        /* \"#utility.yul\":8933:8942   */\n      dup11\n        /* \"#utility.yul\":8929:8947   */\n      add\n        /* \"#utility.yul\":8916:8948   */\n      calldataload\n        /* \"#utility.yul\":8975:8993   */\n      0xffffffffffffffff\n        /* \"#utility.yul\":8967:8973   */\n      dup2\n        /* \"#utility.yul\":8964:8994   */\n      gt\n        /* \"#utility.yul\":8961:9078   */\n      iszero\n      tag_282\n      jumpi\n        /* \"#utility.yul\":8997:9076   */\n      tag_283\n      tag_163\n      jump\t// in\n    tag_283:\n        /* \"#utility.yul\":8961:9078   */\n    tag_282:\n        /* \"#utility.yul\":9102:9165   */\n      tag_284\n        /* \"#utility.yul\":9157:9164   */\n      dup13\n        /* \"#utility.yul\":9148:9154   */\n      dup3\n        /* \"#utility.yul\":9137:9146   */\n      dup14\n        /* \"#utility.yul\":9133:9155   */\n      add\n        /* \"#utility.yul\":9102:9165   */\n      tag_183\n      jump\t// in\n    tag_284:\n        /* \"#utility.yul\":9092:9165   */\n      swap8\n      pop\n        /* \"#utility.yul\":8887:9175   */\n      pop\n        /* \"#utility.yul\":9242:9244   */\n      0x60\n        /* \"#utility.yul\":9231:9240   */\n      dup11\n        /* \"#utility.yul\":9227:9245   */\n      add\n        /* \"#utility.yul\":9214:9246   */\n      calldataload\n        /* \"#utility.yul\":9273:9291   */\n      0xffffffffffffffff\n        /* \"#utility.yul\":9265:9271   */\n      dup2\n        /* \"#utility.yul\":9262:9292   */\n      gt\n        /* \"#utility.yul\":9259:9376   */\n      iszero\n      tag_285\n      jumpi\n        /* \"#utility.yul\":9295:9374   */\n      tag_286\n      tag_163\n      jump\t// in\n    tag_286:\n        /* \"#utility.yul\":9259:9376   */\n    tag_285:\n        /* \"#utility.yul\":9400:9463   */\n      tag_287\n        /* \"#utility.yul\":9455:9462   */\n      dup13\n        /* \"#utility.yul\":9446:9452   */\n      dup3\n        /* \"#utility.yul\":9435:9444   */\n      dup14\n        /* \"#utility.yul\":9431:9453   */\n      add\n        /* \"#utility.yul\":9400:9463   */\n      tag_183\n      jump\t// in\n    tag_287:\n        /* \"#utility.yul\":9390:9463   */\n      swap7\n      pop\n        /* \"#utility.yul\":9185:9473   */\n      pop\n        /* \"#utility.yul\":9540:9543   */\n      0x80\n        /* \"#utility.yul\":9529:9538   */\n      dup11\n        /* \"#utility.yul\":9525:9544   */\n      add\n        /* \"#utility.yul\":9512:9545   */\n      calldataload\n        /* \"#utility.yul\":9572:9590   */\n      0xffffffffffffffff\n        /* \"#utility.yul\":9564:9570   */\n      dup2\n        /* \"#utility.yul\":9561:9591   */\n      gt\n        /* \"#utility.yul\":9558:9675   */\n      iszero\n      tag_288\n      jumpi\n        /* \"#utility.yul\":9594:9673   */\n      tag_289\n      tag_163\n      jump\t// in\n    tag_289:\n        /* \"#utility.yul\":9558:9675   */\n    tag_288:\n        /* \"#utility.yul\":9699:9762   */\n      tag_290\n        /* \"#utility.yul\":9754:9761   */\n      dup13\n        /* \"#utility.yul\":9745:9751   */\n      dup3\n        /* \"#utility.yul\":9734:9743   */\n      dup14\n        /* \"#utility.yul\":9730:9752   */\n      add\n        /* \"#utility.yul\":9699:9762   */\n      tag_183\n      jump\t// in\n    tag_290:\n        /* \"#utility.yul\":9689:9762   */\n      swap6\n      pop\n        /* \"#utility.yul\":9483:9772   */\n      pop\n        /* \"#utility.yul\":9811:9814   */\n      0xa0\n        /* \"#utility.yul\":9838:9891   */\n      tag_291\n        /* \"#utility.yul\":9883:9890   */\n      dup13\n        /* \"#utility.yul\":9874:9880   */\n      dup3\n        /* \"#utility.yul\":9863:9872   */\n      dup14\n        /* \"#utility.yul\":9859:9881   */\n      add\n        /* \"#utility.yul\":9838:9891   */\n      tag_186\n      jump\t// in\n    tag_291:\n        /* \"#utility.yul\":9828:9891   */\n      swap5\n      pop\n        /* \"#utility.yul\":9782:9901   */\n      pop\n        /* \"#utility.yul\":9968:9971   */\n      0xc0\n        /* \"#utility.yul\":9957:9966   */\n      dup11\n        /* \"#utility.yul\":9953:9972   */\n      add\n        /* \"#utility.yul\":9940:9973   */\n      calldataload\n        /* \"#utility.yul\":10000:10018   */\n      0xffffffffffffffff\n        /* \"#utility.yul\":9992:9998   */\n      dup2\n        /* \"#utility.yul\":9989:10019   */\n      gt\n        /* \"#utility.yul\":9986:10103   */\n      iszero\n      tag_292\n      jumpi\n        /* \"#utility.yul\":10022:10101   */\n      tag_293\n      tag_163\n      jump\t// in\n    tag_293:\n        /* \"#utility.yul\":9986:10103   */\n    tag_292:\n        /* \"#utility.yul\":10127:10190   */\n      tag_294\n        /* \"#utility.yul\":10182:10189   */\n      dup13\n        /* \"#utility.yul\":10173:10179   */\n      dup3\n        /* \"#utility.yul\":10162:10171   */\n      dup14\n        /* \"#utility.yul\":10158:10180   */\n      add\n        /* \"#utility.yul\":10127:10190   */\n      tag_183\n      jump\t// in\n    tag_294:\n        /* \"#utility.yul\":10117:10190   */\n      swap4\n      pop\n        /* \"#utility.yul\":9911:10200   */\n      pop\n        /* \"#utility.yul\":10239:10242   */\n      0xe0\n        /* \"#utility.yul\":10266:10319   */\n      tag_295\n        /* \"#utility.yul\":10311:10318   */\n      dup13\n        /* \"#utility.yul\":10302:10308   */\n      dup3\n        /* \"#utility.yul\":10291:10300   */\n      dup14\n        /* \"#utility.yul\":10287:10309   */\n      add\n        /* \"#utility.yul\":10266:10319   */\n      tag_186\n      jump\t// in\n    tag_295:\n        /* \"#utility.yul\":10256:10319   */\n      swap3\n      pop\n        /* \"#utility.yul\":10210:10329   */\n      pop\n        /* \"#utility.yul\":10396:10399   */\n      0x0100\n        /* \"#utility.yul\":10385:10394   */\n      dup11\n        /* \"#utility.yul\":10381:10400   */\n      add\n        /* \"#utility.yul\":10368:10401   */\n      calldataload\n        /* \"#utility.yul\":10428:10446   */\n      0xffffffffffffffff\n        /* \"#utility.yul\":10420:10426   */\n      dup2\n        /* \"#utility.yul\":10417:10447   */\n      gt\n        /* \"#utility.yul\":10414:10531   */\n      iszero\n      tag_296\n      jumpi\n        /* \"#utility.yul\":10450:10529   */\n      tag_297\n      tag_163\n      jump\t// in\n    tag_297:\n        /* \"#utility.yul\":10414:10531   */\n    tag_296:\n        /* \"#utility.yul\":10555:10618   */\n      tag_298\n        /* \"#utility.yul\":10610:10617   */\n      dup13\n        /* \"#utility.yul\":10601:10607   */\n      dup3\n        /* \"#utility.yul\":10590:10599   */\n      dup14\n        /* \"#utility.yul\":10586:10608   */\n      add\n        /* \"#utility.yul\":10555:10618   */\n      tag_183\n      jump\t// in\n    tag_298:\n        /* \"#utility.yul\":10545:10618   */\n      swap2\n      pop\n        /* \"#utility.yul\":10339:10628   */\n      pop\n        /* \"#utility.yul\":7880:10635   */\n      swap3\n      swap6\n      swap9\n      pop\n      swap3\n      swap6\n      swap9\n      pop\n      swap3\n      swap6\n      swap9\n      jump\t// out\n        /* \"#utility.yul\":10641:12073   */\n    tag_49:\n        /* \"#utility.yul\":11022:11026   */\n      0x00\n        /* \"#utility.yul\":11060:11063   */\n      0xe0\n        /* \"#utility.yul\":11049:11058   */\n      dup3\n        /* \"#utility.yul\":11045:11064   */\n      add\n        /* \"#utility.yul\":11037:11064   */\n      swap1\n      pop\n        /* \"#utility.yul\":11110:11119   */\n      dup2\n        /* \"#utility.yul\":11104:11108   */\n      dup2\n        /* \"#utility.yul\":11100:11120   */\n      sub\n        /* \"#utility.yul\":11096:11097   */\n      0x00\n        /* \"#utility.yul\":11085:11094   */\n      dup4\n        /* \"#utility.yul\":11081:11098   */\n      add\n        /* \"#utility.yul\":11074:11121   */\n      mstore\n        /* \"#utility.yul\":11138:11216   */\n      tag_300\n        /* \"#utility.yul\":11211:11215   */\n      dup2\n        /* \"#utility.yul\":11202:11208   */\n      dup11\n        /* \"#utility.yul\":11138:11216   */\n      tag_174\n      jump\t// in\n    tag_300:\n        /* \"#utility.yul\":11130:11216   */\n      swap1\n      pop\n        /* \"#utility.yul\":11263:11272   */\n      dup2\n        /* \"#utility.yul\":11257:11261   */\n      dup2\n        /* \"#utility.yul\":11253:11273   */\n      sub\n        /* \"#utility.yul\":11248:11250   */\n      0x20\n        /* \"#utility.yul\":11237:11246   */\n      dup4\n        /* \"#utility.yul\":11233:11251   */\n      add\n        /* \"#utility.yul\":11226:11274   */\n      mstore\n        /* \"#utility.yul\":11291:11369   */\n      tag_301\n        /* \"#utility.yul\":11364:11368   */\n      dup2\n        /* \"#utility.yul\":11355:11361   */\n      dup10\n        /* \"#utility.yul\":11291:11369   */\n      tag_174\n      jump\t// in\n    tag_301:\n        /* \"#utility.yul\":11283:11369   */\n      swap1\n      pop\n        /* \"#utility.yul\":11416:11425   */\n      dup2\n        /* \"#utility.yul\":11410:11414   */\n      dup2\n        /* \"#utility.yul\":11406:11426   */\n      sub\n        /* \"#utility.yul\":11401:11403   */\n      0x40\n        /* \"#utility.yul\":11390:11399   */\n      dup4\n        /* \"#utility.yul\":11386:11404   */\n      add\n        /* \"#utility.yul\":11379:11427   */\n      mstore\n        /* \"#utility.yul\":11444:11522   */\n      tag_302\n        /* \"#utility.yul\":11517:11521   */\n      dup2\n        /* \"#utility.yul\":11508:11514   */\n      dup9\n        /* \"#utility.yul\":11444:11522   */\n      tag_174\n      jump\t// in\n    tag_302:\n        /* \"#utility.yul\":11436:11522   */\n      swap1\n      pop\n        /* \"#utility.yul\":11569:11578   */\n      dup2\n        /* \"#utility.yul\":11563:11567   */\n      dup2\n        /* \"#utility.yul\":11559:11579   */\n      sub\n        /* \"#utility.yul\":11554:11556   */\n      0x60\n        /* \"#utility.yul\":11543:11552   */\n      dup4\n        /* \"#utility.yul\":11539:11557   */\n      add\n        /* \"#utility.yul\":11532:11580   */\n      mstore\n        /* \"#utility.yul\":11597:11675   */\n      tag_303\n        /* \"#utility.yul\":11670:11674   */\n      dup2\n        /* \"#utility.yul\":11661:11667   */\n      dup8\n        /* \"#utility.yul\":11597:11675   */\n      tag_174\n      jump\t// in\n    tag_303:\n        /* \"#utility.yul\":11589:11675   */\n      swap1\n      pop\n        /* \"#utility.yul\":11723:11732   */\n      dup2\n        /* \"#utility.yul\":11717:11721   */\n      dup2\n        /* \"#utility.yul\":11713:11733   */\n      sub\n        /* \"#utility.yul\":11707:11710   */\n      0x80\n        /* \"#utility.yul\":11696:11705   */\n      dup4\n        /* \"#utility.yul\":11692:11711   */\n      add\n        /* \"#utility.yul\":11685:11734   */\n      mstore\n        /* \"#utility.yul\":11751:11829   */\n      tag_304\n        /* \"#utility.yul\":11824:11828   */\n      dup2\n        /* \"#utility.yul\":11815:11821   */\n      dup7\n        /* \"#utility.yul\":11751:11829   */\n      tag_174\n      jump\t// in\n    tag_304:\n        /* \"#utility.yul\":11743:11829   */\n      swap1\n      pop\n        /* \"#utility.yul\":11839:11912   */\n      tag_305\n        /* \"#utility.yul\":11907:11910   */\n      0xa0\n        /* \"#utility.yul\":11896:11905   */\n      dup4\n        /* \"#utility.yul\":11892:11911   */\n      add\n        /* \"#utility.yul\":11883:11889   */\n      dup6\n        /* \"#utility.yul\":11839:11912   */\n      tag_169\n      jump\t// in\n    tag_305:\n        /* \"#utility.yul\":11960:11969   */\n      dup2\n        /* \"#utility.yul\":11954:11958   */\n      dup2\n        /* \"#utility.yul\":11950:11970   */\n      sub\n        /* \"#utility.yul\":11944:11947   */\n      0xc0\n        /* \"#utility.yul\":11933:11942   */\n      dup4\n        /* \"#utility.yul\":11929:11948   */\n      add\n        /* \"#utility.yul\":11922:11971   */\n      mstore\n        /* \"#utility.yul\":11988:12066   */\n      tag_306\n        /* \"#utility.yul\":12061:12065   */\n      dup2\n        /* \"#utility.yul\":12052:12058   */\n      dup5\n        /* \"#utility.yul\":11988:12066   */\n      tag_174\n      jump\t// in\n    tag_306:\n        /* \"#utility.yul\":11980:12066   */\n      swap1\n      pop\n        /* \"#utility.yul\":10641:12073   */\n      swap9\n      swap8\n      pop\n      pop\n      pop\n      pop\n      pop\n      pop\n      pop\n      pop\n      jump\t// out\n        /* \"#utility.yul\":12079:12259   */\n    tag_187:\n        /* \"#utility.yul\":12127:12204   */\n      0x4e487b7100000000000000000000000000000000000000000000000000000000\n        /* \"#utility.yul\":12124:12125   */\n      0x00\n        /* \"#utility.yul\":12117:12205   */\n      mstore\n        /* \"#utility.yul\":12224:12228   */\n      0x22\n        /* \"#utility.yul\":12221:12222   */\n      0x04\n        /* \"#utility.yul\":12214:12229   */\n      mstore\n        /* \"#utility.yul\":12248:12252   */\n      0x24\n        /* \"#utility.yul\":12245:12246   */\n      0x00\n        /* \"#utility.yul\":12238:12253   */\n      revert\n        /* \"#utility.yul\":12265:12585   */\n    tag_60:\n        /* \"#utility.yul\":12309:12315   */\n      0x00\n        /* \"#utility.yul\":12346:12347   */\n      0x02\n        /* \"#utility.yul\":12340:12344   */\n      dup3\n        /* \"#utility.yul\":12336:12348   */\n      div\n        /* \"#utility.yul\":12326:12348   */\n      swap1\n      pop\n        /* \"#utility.yul\":12393:12394   */\n      0x01\n        /* \"#utility.yul\":12387:12391   */\n      dup3\n        /* \"#utility.yul\":12383:12395   */\n      and\n        /* \"#utility.yul\":12414:12432   */\n      dup1\n        /* \"#utility.yul\":12404:12485   */\n      tag_309\n      jumpi\n        /* \"#utility.yul\":12470:12474   */\n      0x7f\n        /* \"#utility.yul\":12462:12468   */\n      dup3\n        /* \"#utility.yul\":12458:12475   */\n      and\n        /* \"#utility.yul\":12448:12475   */\n      swap2\n      pop\n        /* \"#utility.yul\":12404:12485   */\n    tag_309:\n        /* \"#utility.yul\":12532:12534   */\n      0x20\n        /* \"#utility.yul\":12524:12530   */\n      dup3\n        /* \"#utility.yul\":12521:12535   */\n      lt\n        /* \"#utility.yul\":12501:12519   */\n      dup2\n        /* \"#utility.yul\":12498:12536   */\n      eq\n        /* \"#utility.yul\":12495:12579   */\n      iszero\n      tag_310\n      jumpi\n        /* \"#utility.yul\":12551:12569   */\n      tag_311\n      tag_187\n      jump\t// in\n    tag_311:\n        /* \"#utility.yul\":12495:12579   */\n    tag_310:\n        /* \"#utility.yul\":12316:12585   */\n      pop\n        /* \"#utility.yul\":12265:12585   */\n      swap2\n      swap1\n      pop\n      jump\t// out\n\n    auxdata: 0xa26469706673582212203be31626e337d43a4e496a4ed05f480b96a53144b8af0cd670f29b7da9a0b7bf64736f6c634300080b0033\n}\n","bytecode":{"linkReferences":{},"object":"60806040523480156200001157600080fd5b50604051620020e1380380620020e18339818101604052810190620000379190620000e9565b80600260006101000a81548173ffffffffffffffffffffffffffffffffffffffff021916908373ffffffffffffffffffffffffffffffffffffffff160217905550506200011b565b600080fd5b600073ffffffffffffffffffffffffffffffffffffffff82169050919050565b6000620000b18262000084565b9050919050565b620000c381620000a4565b8114620000cf57600080fd5b50565b600081519050620000e381620000b8565b92915050565b6000602082840312156200010257620001016200007f565b5b60006200011284828501620000d2565b91505092915050565b611fb6806200012b6000396000f3fe608060405234801561001057600080fd5b506004361061009e5760003560e01c8063a5c9f7ad11610066578063a5c9f7ad14610150578063adb4d9901461016c578063ea00962f1461018a578063ede3a670146101a8578063f203c19d146101de5761009e565b8063061dff9a146100a3578063091bac16146100bf5780631b146ecf146100f0578063481c6a751461010c578063942886be1461012a575b600080fd5b6100bd60048036038101906100b89190611957565b6101fc565b005b6100d960048036038101906100d49190611957565b6102fa565b6040516100e7929190611a36565b60405180910390f35b61010a60048036038101906101059190611b9b565b6104cb565b005b61011461058b565b6040516101219190611bf3565b60405180910390f35b6101326105b1565b60405161014799989796959493929190611c0e565b60405180910390f35b61016a60048036038101906101659190611cf8565b610d92565b005b6101746111e0565b6040516101819190611bf3565b60405180910390f35b610192611206565b60405161019f9190611bf3565b60405180910390f35b6101c260048036038101906101bd9190611957565b61122f565b6040516101d59796959493929190611e86565b60405180910390f35b6101e661181e565b6040516101f39190611bf3565b60405180910390f35b600260009054906101000a900473ffffffffffffffffffffffffffffffffffffffff1673ffffffffffffffffffffffffffffffffffffffff168173ffffffffffffffffffffffffffffffffffffffff161461025657600080fd5b600460010160149054906101000a900460ff161561027357600080fd5b600460010160009054906101000a900473ffffffffffffffffffffffffffffffffffffffff16600360006101000a81548173ffffffffffffffffffffffffffffffffffffffff021916908373ffffffffffffffffffffffffffffffffffffffff1602179055506001600460010160146101000a81548160ff02191690831515021790555050565b60006060600160008473ffffffffffffffffffffffffffffffffffffffff1673ffffffffffffffffffffffffffffffffffffffff16815260200190815260200160002060090160009054906101000a900460ff1661035757600080fd5b600260009054906101000a900473ffffffffffffffffffffffffffffffffffffffff1673ffffffffffffffffffffffffffffffffffffffff168373ffffffffffffffffffffffffffffffffffffffff16146103b157600080fd5b600160008473ffffffffffffffffffffffffffffffffffffffff1673ffffffffffffffffffffffffffffffffffffffff16815260200190815260200160002060070154600160008573ffffffffffffffffffffffffffffffffffffffff1673ffffffffffffffffffffffffffffffffffffffff16815260200190815260200160002060080180805461044290611f4e565b80601f016020809104026020016040519081016040528092919081815260200182805461046e90611f4e565b80156104bb5780601f10610490576101008083540402835291602001916104bb565b820191906000526020600020905b81548152906001019060200180831161049e57829003601f168201915b5050505050905091509150915091565b60405180606001604052808281526020013373ffffffffffffffffffffffffffffffffffffffff168152602001600015158152506004600082015181600001908051906020019061051d929190611842565b5060208201518160010160006101000a81548173ffffffffffffffffffffffffffffffffffffffff021916908373ffffffffffffffffffffffffffffffffffffffff16021790555060408201518160010160146101000a81548160ff02191690831515021790555090505050565b600260009054906101000a900473ffffffffffffffffffffffffffffffffffffffff1681565b60608060608060606000606060006060600360009054906101000a900473ffffffffffffffffffffffffffffffffffffffff1673ffffffffffffffffffffffffffffffffffffffff163373ffffffffffffffffffffffffffffffffffffffff161461061b57600080fd5b60016000600260009054906101000a900473ffffffffffffffffffffffffffffffffffffffff1673ffffffffffffffffffffffffffffffffffffffff1673ffffffffffffffffffffffffffffffffffffffff16815260200190815260200160002060000160016000600260009054906101000a900473ffffffffffffffffffffffffffffffffffffffff1673ffffffffffffffffffffffffffffffffffffffff1673ffffffffffffffffffffffffffffffffffffffff16815260200190815260200160002060010160016000600260009054906101000a900473ffffffffffffffffffffffffffffffffffffffff1673ffffffffffffffffffffffffffffffffffffffff1673ffffffffffffffffffffffffffffffffffffffff16815260200190815260200160002060020160016000600260009054906101000a900473ffffffffffffffffffffffffffffffffffffffff1673ffffffffffffffffffffffffffffffffffffffff1673ffffffffffffffffffffffffffffffffffffffff16815260200190815260200160002060030160016000600260009054906101000a900473ffffffffffffffffffffffffffffffffffffffff1673ffffffffffffffffffffffffffffffffffffffff1673ffffffffffffffffffffffffffffffffffffffff16815260200190815260200160002060040160016000600260009054906101000a900473ffffffffffffffffffffffffffffffffffffffff1673ffffffffffffffffffffffffffffffffffffffff1673ffffffffffffffffffffffffffffffffffffffff1681526020019081526020016000206005015460016000600260009054906101000a900473ffffffffffffffffffffffffffffffffffffffff1673ffffffffffffffffffffffffffffffffffffffff1673ffffffffffffffffffffffffffffffffffffffff16815260200190815260200160002060060160016000600260009054906101000a900473ffffffffffffffffffffffffffffffffffffffff1673ffffffffffffffffffffffffffffffffffffffff1673ffffffffffffffffffffffffffffffffffffffff1681526020019081526020016000206007015460016000600260009054906101000a900473ffffffffffffffffffffffffffffffffffffffff1673ffffffffffffffffffffffffffffffffffffffff1673ffffffffffffffffffffffffffffffffffffffff1681526020019081526020016000206008018880546109ad90611f4e565b80601f01602080910402602001604051908101604052809291908181526020018280546109d990611f4e565b8015610a265780601f106109fb57610100808354040283529160200191610a26565b820191906000526020600020905b815481529060010190602001808311610a0957829003601f168201915b50505050509850878054610a3990611f4e565b80601f0160208091040260200160405190810160405280929190818152602001828054610a6590611f4e565b8015610ab25780601f10610a8757610100808354040283529160200191610ab2565b820191906000526020600020905b815481529060010190602001808311610a9557829003601f168201915b50505050509750868054610ac590611f4e565b80601f0160208091040260200160405190810160405280929190818152602001828054610af190611f4e565b8015610b3e5780601f10610b1357610100808354040283529160200191610b3e565b820191906000526020600020905b815481529060010190602001808311610b2157829003601f168201915b50505050509650858054610b5190611f4e565b80601f0160208091040260200160405190810160405280929190818152602001828054610b7d90611f4e565b8015610bca5780601f10610b9f57610100808354040283529160200191610bca565b820191906000526020600020905b815481529060010190602001808311610bad57829003601f168201915b50505050509550848054610bdd90611f4e565b80601f0160208091040260200160405190810160405280929190818152602001828054610c0990611f4e565b8015610c565780601f10610c2b57610100808354040283529160200191610c56565b820191906000526020600020905b815481529060010190602001808311610c3957829003601f168201915b50505050509450828054610c6990611f4e565b80601f0160208091040260200160405190810160405280929190818152602001828054610c9590611f4e565b8015610ce25780601f10610cb757610100808354040283529160200191610ce2565b820191906000526020600020905b815481529060010190602001808311610cc557829003601f168201915b50505050509250808054610cf590611f4e565b80601f0160208091040260200160405190810160405280929190818152602001828054610d2190611f4e565b8015610d6e5780601f10610d4357610100808354040283529160200191610d6e565b820191906000526020600020905b815481529060010190602001808311610d5157829003601f168201915b50505050509050985098509850985098509850985098509850909192939495969798565b600260009054906101000a900473ffffffffffffffffffffffffffffffffffffffff1673ffffffffffffffffffffffffffffffffffffffff163373ffffffffffffffffffffffffffffffffffffffff1614610dec57600080fd5b6000339050600160008273ffffffffffffffffffffffffffffffffffffffff1673ffffffffffffffffffffffffffffffffffffffff16815260200190815260200160002060090160009054906101000a900460ff1615610e4b57600080fd5b806000806101000a81548173ffffffffffffffffffffffffffffffffffffffff021916908373ffffffffffffffffffffffffffffffffffffffff16021790555089600160008373ffffffffffffffffffffffffffffffffffffffff1673ffffffffffffffffffffffffffffffffffffffff1681526020019081526020016000206000019080519060200190610ee1929190611842565b5088600160008373ffffffffffffffffffffffffffffffffffffffff1673ffffffffffffffffffffffffffffffffffffffff1681526020019081526020016000206001019080519060200190610f38929190611842565b5087600160008373ffffffffffffffffffffffffffffffffffffffff1673ffffffffffffffffffffffffffffffffffffffff1681526020019081526020016000206002019080519060200190610f8f929190611842565b5086600160008373ffffffffffffffffffffffffffffffffffffffff1673ffffffffffffffffffffffffffffffffffffffff1681526020019081526020016000206003019080519060200190610fe6929190611842565b5085600160008373ffffffffffffffffffffffffffffffffffffffff1673ffffffffffffffffffffffffffffffffffffffff168152602001908152602001600020600401908051906020019061103d929190611842565b5084600160008373ffffffffffffffffffffffffffffffffffffffff1673ffffffffffffffffffffffffffffffffffffffff1681526020019081526020016000206005018190555083600160008373ffffffffffffffffffffffffffffffffffffffff1673ffffffffffffffffffffffffffffffffffffffff16815260200190815260200160002060060190805190602001906110db929190611842565b5082600160008373ffffffffffffffffffffffffffffffffffffffff1673ffffffffffffffffffffffffffffffffffffffff1681526020019081526020016000206007018190555081600160008373ffffffffffffffffffffffffffffffffffffffff1673ffffffffffffffffffffffffffffffffffffffff1681526020019081526020016000206008019080519060200190611179929190611842565b5060018060008373ffffffffffffffffffffffffffffffffffffffff1673ffffffffffffffffffffffffffffffffffffffff16815260200190815260200160002060090160006101000a81548160ff02191690831515021790555050505050505050505050565b600360009054906101000a900473ffffffffffffffffffffffffffffffffffffffff1681565b60008060009054906101000a900473ffffffffffffffffffffffffffffffffffffffff16905090565b606080606080606060006060600160008973ffffffffffffffffffffffffffffffffffffffff1673ffffffffffffffffffffffffffffffffffffffff16815260200190815260200160002060090160009054906101000a900460ff1661129457600080fd5b600260009054906101000a900473ffffffffffffffffffffffffffffffffffffffff1673ffffffffffffffffffffffffffffffffffffffff168873ffffffffffffffffffffffffffffffffffffffff16146112ee57600080fd5b600160008973ffffffffffffffffffffffffffffffffffffffff1673ffffffffffffffffffffffffffffffffffffffff168152602001908152602001600020600001600160008a73ffffffffffffffffffffffffffffffffffffffff1673ffffffffffffffffffffffffffffffffffffffff168152602001908152602001600020600101600160008b73ffffffffffffffffffffffffffffffffffffffff1673ffffffffffffffffffffffffffffffffffffffff168152602001908152602001600020600201600160008c73ffffffffffffffffffffffffffffffffffffffff1673ffffffffffffffffffffffffffffffffffffffff168152602001908152602001600020600301600160008d73ffffffffffffffffffffffffffffffffffffffff1673ffffffffffffffffffffffffffffffffffffffff168152602001908152602001600020600401600160008e73ffffffffffffffffffffffffffffffffffffffff1673ffffffffffffffffffffffffffffffffffffffff16815260200190815260200160002060050154600160008f73ffffffffffffffffffffffffffffffffffffffff1673ffffffffffffffffffffffffffffffffffffffff1681526020019081526020016000206006018680546114c990611f4e565b80601f01602080910402602001604051908101604052809291908181526020018280546114f590611f4e565b80156115425780601f1061151757610100808354040283529160200191611542565b820191906000526020600020905b81548152906001019060200180831161152557829003601f168201915b5050505050965085805461155590611f4e565b80601f016020809104026020016040519081016040528092919081815260200182805461158190611f4e565b80156115ce5780601f106115a3576101008083540402835291602001916115ce565b820191906000526020600020905b8154815290600101906020018083116115b157829003601f168201915b505050505095508480546115e190611f4e565b80601f016020809104026020016040519081016040528092919081815260200182805461160d90611f4e565b801561165a5780601f1061162f5761010080835404028352916020019161165a565b820191906000526020600020905b81548152906001019060200180831161163d57829003601f168201915b5050505050945083805461166d90611f4e565b80601f016020809104026020016040519081016040528092919081815260200182805461169990611f4e565b80156116e65780601f106116bb576101008083540402835291602001916116e6565b820191906000526020600020905b8154815290600101906020018083116116c957829003601f168201915b505050505093508280546116f990611f4e565b80601f016020809104026020016040519081016040528092919081815260200182805461172590611f4e565b80156117725780601f1061174757610100808354040283529160200191611772565b820191906000526020600020905b81548152906001019060200180831161175557829003601f168201915b5050505050925080805461178590611f4e565b80601f01602080910402602001604051908101604052809291908181526020018280546117b190611f4e565b80156117fe5780601f106117d3576101008083540402835291602001916117fe565b820191906000526020600020905b8154815290600101906020018083116117e157829003601f168201915b505050505090509650965096509650965096509650919395979092949650565b60008054906101000a900473ffffffffffffffffffffffffffffffffffffffff1681565b82805461184e90611f4e565b90600052602060002090601f01602090048101928261187057600085556118b7565b82601f1061188957805160ff19168380011785556118b7565b828001600101855582156118b7579182015b828111156118b657825182559160200191906001019061189b565b5b5090506118c491906118c8565b5090565b5b808211156118e15760008160009055506001016118c9565b5090565b6000604051905090565b600080fd5b600080fd5b600073ffffffffffffffffffffffffffffffffffffffff82169050919050565b6000611924826118f9565b9050919050565b61193481611919565b811461193f57600080fd5b50565b6000813590506119518161192b565b92915050565b60006020828403121561196d5761196c6118ef565b5b600061197b84828501611942565b91505092915050565b6000819050919050565b61199781611984565b82525050565b600081519050919050565b600082825260208201905092915050565b60005b838110156119d75780820151818401526020810190506119bc565b838111156119e6576000848401525b50505050565b6000601f19601f8301169050919050565b6000611a088261199d565b611a1281856119a8565b9350611a228185602086016119b9565b611a2b816119ec565b840191505092915050565b6000604082019050611a4b600083018561198e565b8181036020830152611a5d81846119fd565b90509392505050565b600080fd5b600080fd5b7f4e487b7100000000000000000000000000000000000000000000000000000000600052604160045260246000fd5b611aa8826119ec565b810181811067ffffffffffffffff82111715611ac757611ac6611a70565b5b80604052505050565b6000611ada6118e5565b9050611ae68282611a9f565b919050565b600067ffffffffffffffff821115611b0657611b05611a70565b5b611b0f826119ec565b9050602081019050919050565b82818337600083830152505050565b6000611b3e611b3984611aeb565b611ad0565b905082815260208101848484011115611b5a57611b59611a6b565b5b611b65848285611b1c565b509392505050565b600082601f830112611b8257611b81611a66565b5b8135611b92848260208601611b2b565b91505092915050565b600060208284031215611bb157611bb06118ef565b5b600082013567ffffffffffffffff811115611bcf57611bce6118f4565b5b611bdb84828501611b6d565b91505092915050565b611bed81611919565b82525050565b6000602082019050611c086000830184611be4565b92915050565b6000610120820190508181036000830152611c29818c6119fd565b90508181036020830152611c3d818b6119fd565b90508181036040830152611c51818a6119fd565b90508181036060830152611c6581896119fd565b90508181036080830152611c7981886119fd565b9050611c8860a083018761198e565b81810360c0830152611c9a81866119fd565b9050611ca960e083018561198e565b818103610100830152611cbc81846119fd565b90509a9950505050505050505050565b611cd581611984565b8114611ce057600080fd5b50565b600081359050611cf281611ccc565b92915050565b60008060008060008060008060006101208a8c031215611d1b57611d1a6118ef565b5b60008a013567ffffffffffffffff811115611d3957611d386118f4565b5b611d458c828d01611b6d565b99505060208a013567ffffffffffffffff811115611d6657611d656118f4565b5b611d728c828d01611b6d565b98505060408a013567ffffffffffffffff811115611d9357611d926118f4565b5b611d9f8c828d01611b6d565b97505060608a013567ffffffffffffffff811115611dc057611dbf6118f4565b5b611dcc8c828d01611b6d565b96505060808a013567ffffffffffffffff811115611ded57611dec6118f4565b5b611df98c828d01611b6d565b95505060a0611e0a8c828d01611ce3565b94505060c08a013567ffffffffffffffff811115611e2b57611e2a6118f4565b5b611e378c828d01611b6d565b93505060e0611e488c828d01611ce3565b9250506101008a013567ffffffffffffffff811115611e6a57611e696118f4565b5b611e768c828d01611b6d565b9150509295985092959850929598565b600060e0820190508181036000830152611ea0818a6119fd565b90508181036020830152611eb481896119fd565b90508181036040830152611ec881886119fd565b90508181036060830152611edc81876119fd565b90508181036080830152611ef081866119fd565b9050611eff60a083018561198e565b81810360c0830152611f1181846119fd565b905098975050505050505050565b7f4e487b7100000000000000000000000000000000000000000000000000000000600052602260045260246000fd5b60006002820490506001821680611f6657607f821691505b60208210811415611f7a57611f79611f1f565b5b5091905056fea26469706673582212203be31626e337d43a4e496a4ed05f480b96a53144b8af0cd670f29b7da9a0b7bf64736f6c634300080b0033","opcodes":"PUSH1 0x80 PUSH1 0x40 MSTORE CALLVALUE DUP1 ISZERO PUSH3 0x11 JUMPI PUSH1 0x0 DUP1 REVERT JUMPDEST POP PUSH1 0x40 MLOAD PUSH3 0x20E1 CODESIZE SUB DUP1 PUSH3 0x20E1 DUP4 CODECOPY DUP2 DUP2 ADD PUSH1 0x40 MSTORE DUP2 ADD SWAP1 PUSH3 0x37 SWAP2 SWAP1 PUSH3 0xE9 JUMP JUMPDEST DUP1 PUSH1 0x2 PUSH1 0x0 PUSH2 0x100 EXP DUP2 SLOAD DUP2 PUSH20 0xFFFFFFFFFFFFFFFFFFFFFFFFFFFFFFFFFFFFFFFF MUL NOT AND SWAP1 DUP4 PUSH20 0xFFFFFFFFFFFFFFFFFFFFFFFFFFFFFFFFFFFFFFFF AND MUL OR SWAP1 SSTORE POP POP PUSH3 0x11B JUMP JUMPDEST PUSH1 0x0 DUP1 REVERT JUMPDEST PUSH1 0x0 PUSH20 0xFFFFFFFFFFFFFFFFFFFFFFFFFFFFFFFFFFFFFFFF DUP3 AND SWAP1 POP SWAP2 SWAP1 POP JUMP JUMPDEST PUSH1 0x0 PUSH3 0xB1 DUP3 PUSH3 0x84 JUMP JUMPDEST SWAP1 POP SWAP2 SWAP1 POP JUMP JUMPDEST PUSH3 0xC3 DUP2 PUSH3 0xA4 JUMP JUMPDEST DUP2 EQ PUSH3 0xCF JUMPI PUSH1 0x0 DUP1 REVERT JUMPDEST POP JUMP JUMPDEST PUSH1 0x0 DUP2 MLOAD SWAP1 POP PUSH3 0xE3 DUP2 PUSH3 0xB8 JUMP JUMPDEST SWAP3 SWAP2 POP POP JUMP JUMPDEST PUSH1 0x0 PUSH1 0x20 DUP3 DUP5 SUB SLT ISZERO PUSH3 0x102 JUMPI PUSH3 0x101 PUSH3 0x7F JUMP JUMPDEST JUMPDEST PUSH1 0x0 PUSH3 0x112 DUP5 DUP3 DUP6 ADD PUSH3 0xD2 JUMP JUMPDEST SWAP2 POP POP SWAP3 SWAP2 POP POP JUMP JUMPDEST PUSH2 0x1FB6 DUP1 PUSH3 0x12B PUSH1 0x0 CODECOPY PUSH1 0x0 RETURN INVALID PUSH1 0x80 PUSH1 0x40 MSTORE CALLVALUE DUP1 ISZERO PUSH2 0x10 JUMPI PUSH1 0x0 DUP1 REVERT JUMPDEST POP PUSH1 0x4 CALLDATASIZE LT PUSH2 0x9E JUMPI PUSH1 0x0 CALLDATALOAD PUSH1 0xE0 SHR DUP1 PUSH4 0xA5C9F7AD GT PUSH2 0x66 JUMPI DUP1 PUSH4 0xA5C9F7AD EQ PUSH2 0x150 JUMPI DUP1 PUSH4 0xADB4D990 EQ PUSH2 0x16C JUMPI DUP1 PUSH4 0xEA00962F EQ PUSH2 0x18A JUMPI DUP1 PUSH4 0xEDE3A670 EQ PUSH2 0x1A8 JUMPI DUP1 PUSH4 0xF203C19D EQ PUSH2 0x1DE JUMPI PUSH2 0x9E JUMP JUMPDEST DUP1 PUSH4 0x61DFF9A EQ PUSH2 0xA3 JUMPI DUP1 PUSH4 0x91BAC16 EQ PUSH2 0xBF JUMPI DUP1 PUSH4 0x1B146ECF EQ PUSH2 0xF0 JUMPI DUP1 PUSH4 0x481C6A75 EQ PUSH2 0x10C JUMPI DUP1 PUSH4 0x942886BE EQ PUSH2 0x12A JUMPI JUMPDEST PUSH1 0x0 DUP1 REVERT JUMPDEST PUSH2 0xBD PUSH1 0x4 DUP1 CALLDATASIZE SUB DUP2 ADD SWAP1 PUSH2 0xB8 SWAP2 SWAP1 PUSH2 0x1957 JUMP JUMPDEST PUSH2 0x1FC JUMP JUMPDEST STOP JUMPDEST PUSH2 0xD9 PUSH1 0x4 DUP1 CALLDATASIZE SUB DUP2 ADD SWAP1 PUSH2 0xD4 SWAP2 SWAP1 PUSH2 0x1957 JUMP JUMPDEST PUSH2 0x2FA JUMP JUMPDEST PUSH1 0x40 MLOAD PUSH2 0xE7 SWAP3 SWAP2 SWAP1 PUSH2 0x1A36 JUMP JUMPDEST PUSH1 0x40 MLOAD DUP1 SWAP2 SUB SWAP1 RETURN JUMPDEST PUSH2 0x10A PUSH1 0x4 DUP1 CALLDATASIZE SUB DUP2 ADD SWAP1 PUSH2 0x105 SWAP2 SWAP1 PUSH2 0x1B9B JUMP JUMPDEST PUSH2 0x4CB JUMP JUMPDEST STOP JUMPDEST PUSH2 0x114 PUSH2 0x58B JUMP JUMPDEST PUSH1 0x40 MLOAD PUSH2 0x121 SWAP2 SWAP1 PUSH2 0x1BF3 JUMP JUMPDEST PUSH1 0x40 MLOAD DUP1 SWAP2 SUB SWAP1 RETURN JUMPDEST PUSH2 0x132 PUSH2 0x5B1 JUMP JUMPDEST PUSH1 0x40 MLOAD PUSH2 0x147 SWAP10 SWAP9 SWAP8 SWAP7 SWAP6 SWAP5 SWAP4 SWAP3 SWAP2 SWAP1 PUSH2 0x1C0E JUMP JUMPDEST PUSH1 0x40 MLOAD DUP1 SWAP2 SUB SWAP1 RETURN JUMPDEST PUSH2 0x16A PUSH1 0x4 DUP1 CALLDATASIZE SUB DUP2 ADD SWAP1 PUSH2 0x165 SWAP2 SWAP1 PUSH2 0x1CF8 JUMP JUMPDEST PUSH2 0xD92 JUMP JUMPDEST STOP JUMPDEST PUSH2 0x174 PUSH2 0x11E0 JUMP JUMPDEST PUSH1 0x40 MLOAD PUSH2 0x181 SWAP2 SWAP1 PUSH2 0x1BF3 JUMP JUMPDEST PUSH1 0x40 MLOAD DUP1 SWAP2 SUB SWAP1 RETURN JUMPDEST PUSH2 0x192 PUSH2 0x1206 JUMP JUMPDEST PUSH1 0x40 MLOAD PUSH2 0x19F SWAP2 SWAP1 PUSH2 0x1BF3 JUMP JUMPDEST PUSH1 0x40 MLOAD DUP1 SWAP2 SUB SWAP1 RETURN JUMPDEST PUSH2 0x1C2 PUSH1 0x4 DUP1 CALLDATASIZE SUB DUP2 ADD SWAP1 PUSH2 0x1BD SWAP2 SWAP1 PUSH2 0x1957 JUMP JUMPDEST PUSH2 0x122F JUMP JUMPDEST PUSH1 0x40 MLOAD PUSH2 0x1D5 SWAP8 SWAP7 SWAP6 SWAP5 SWAP4 SWAP3 SWAP2 SWAP1 PUSH2 0x1E86 JUMP JUMPDEST PUSH1 0x40 MLOAD DUP1 SWAP2 SUB SWAP1 RETURN JUMPDEST PUSH2 0x1E6 PUSH2 0x181E JUMP JUMPDEST PUSH1 0x40 MLOAD PUSH2 0x1F3 SWAP2 SWAP1 PUSH2 0x1BF3 JUMP JUMPDEST PUSH1 0x40 MLOAD DUP1 SWAP2 SUB SWAP1 RETURN JUMPDEST PUSH1 0x2 PUSH1 0x0 SWAP1 SLOAD SWAP1 PUSH2 0x100 EXP SWAP1 DIV PUSH20 0xFFFFFFFFFFFFFFFFFFFFFFFFFFFFFFFFFFFFFFFF AND PUSH20 0xFFFFFFFFFFFFFFFFFFFFFFFFFFFFFFFFFFFFFFFF AND DUP2 PUSH20 0xFFFFFFFFFFFFFFFFFFFFFFFFFFFFFFFFFFFFFFFF AND EQ PUSH2 0x256 JUMPI PUSH1 0x0 DUP1 REVERT JUMPDEST PUSH1 0x4 PUSH1 0x1 ADD PUSH1 0x14 SWAP1 SLOAD SWAP1 PUSH2 0x100 EXP SWAP1 DIV PUSH1 0xFF AND ISZERO PUSH2 0x273 JUMPI PUSH1 0x0 DUP1 REVERT JUMPDEST PUSH1 0x4 PUSH1 0x1 ADD PUSH1 0x0 SWAP1 SLOAD SWAP1 PUSH2 0x100 EXP SWAP1 DIV PUSH20 0xFFFFFFFFFFFFFFFFFFFFFFFFFFFFFFFFFFFFFFFF AND PUSH1 0x3 PUSH1 0x0 PUSH2 0x100 EXP DUP2 SLOAD DUP2 PUSH20 0xFFFFFFFFFFFFFFFFFFFFFFFFFFFFFFFFFFFFFFFF MUL NOT AND SWAP1 DUP4 PUSH20 0xFFFFFFFFFFFFFFFFFFFFFFFFFFFFFFFFFFFFFFFF AND MUL OR SWAP1 SSTORE POP PUSH1 0x1 PUSH1 0x4 PUSH1 0x1 ADD PUSH1 0x14 PUSH2 0x100 EXP DUP2 SLOAD DUP2 PUSH1 0xFF MUL NOT AND SWAP1 DUP4 ISZERO ISZERO MUL OR SWAP1 SSTORE POP POP JUMP JUMPDEST PUSH1 0x0 PUSH1 0x60 PUSH1 0x1 PUSH1 0x0 DUP5 PUSH20 0xFFFFFFFFFFFFFFFFFFFFFFFFFFFFFFFFFFFFFFFF AND PUSH20 0xFFFFFFFFFFFFFFFFFFFFFFFFFFFFFFFFFFFFFFFF AND DUP2 MSTORE PUSH1 0x20 ADD SWAP1 DUP2 MSTORE PUSH1 0x20 ADD PUSH1 0x0 KECCAK256 PUSH1 0x9 ADD PUSH1 0x0 SWAP1 SLOAD SWAP1 PUSH2 0x100 EXP SWAP1 DIV PUSH1 0xFF AND PUSH2 0x357 JUMPI PUSH1 0x0 DUP1 REVERT JUMPDEST PUSH1 0x2 PUSH1 0x0 SWAP1 SLOAD SWAP1 PUSH2 0x100 EXP SWAP1 DIV PUSH20 0xFFFFFFFFFFFFFFFFFFFFFFFFFFFFFFFFFFFFFFFF AND PUSH20 0xFFFFFFFFFFFFFFFFFFFFFFFFFFFFFFFFFFFFFFFF AND DUP4 PUSH20 0xFFFFFFFFFFFFFFFFFFFFFFFFFFFFFFFFFFFFFFFF AND EQ PUSH2 0x3B1 JUMPI PUSH1 0x0 DUP1 REVERT JUMPDEST PUSH1 0x1 PUSH1 0x0 DUP5 PUSH20 0xFFFFFFFFFFFFFFFFFFFFFFFFFFFFFFFFFFFFFFFF AND PUSH20 0xFFFFFFFFFFFFFFFFFFFFFFFFFFFFFFFFFFFFFFFF AND DUP2 MSTORE PUSH1 0x20 ADD SWAP1 DUP2 MSTORE PUSH1 0x20 ADD PUSH1 0x0 KECCAK256 PUSH1 0x7 ADD SLOAD PUSH1 0x1 PUSH1 0x0 DUP6 PUSH20 0xFFFFFFFFFFFFFFFFFFFFFFFFFFFFFFFFFFFFFFFF AND PUSH20 0xFFFFFFFFFFFFFFFFFFFFFFFFFFFFFFFFFFFFFFFF AND DUP2 MSTORE PUSH1 0x20 ADD SWAP1 DUP2 MSTORE PUSH1 0x20 ADD PUSH1 0x0 KECCAK256 PUSH1 0x8 ADD DUP1 DUP1 SLOAD PUSH2 0x442 SWAP1 PUSH2 0x1F4E JUMP JUMPDEST DUP1 PUSH1 0x1F ADD PUSH1 0x20 DUP1 SWAP2 DIV MUL PUSH1 0x20 ADD PUSH1 0x40 MLOAD SWAP1 DUP2 ADD PUSH1 0x40 MSTORE DUP1 SWAP3 SWAP2 SWAP1 DUP2 DUP2 MSTORE PUSH1 0x20 ADD DUP3 DUP1 SLOAD PUSH2 0x46E SWAP1 PUSH2 0x1F4E JUMP JUMPDEST DUP1 ISZERO PUSH2 0x4BB JUMPI DUP1 PUSH1 0x1F LT PUSH2 0x490 JUMPI PUSH2 0x100 DUP1 DUP4 SLOAD DIV MUL DUP4 MSTORE SWAP2 PUSH1 0x20 ADD SWAP2 PUSH2 0x4BB JUMP JUMPDEST DUP3 ADD SWAP2 SWAP1 PUSH1 0x0 MSTORE PUSH1 0x20 PUSH1 0x0 KECCAK256 SWAP1 JUMPDEST DUP2 SLOAD DUP2 MSTORE SWAP1 PUSH1 0x1 ADD SWAP1 PUSH1 0x20 ADD DUP1 DUP4 GT PUSH2 0x49E JUMPI DUP3 SWAP1 SUB PUSH1 0x1F AND DUP3 ADD SWAP2 JUMPDEST POP POP POP POP POP SWAP1 POP SWAP2 POP SWAP2 POP SWAP2 POP SWAP2 JUMP JUMPDEST PUSH1 0x40 MLOAD DUP1 PUSH1 0x60 ADD PUSH1 0x40 MSTORE DUP1 DUP3 DUP2 MSTORE PUSH1 0x20 ADD CALLER PUSH20 0xFFFFFFFFFFFFFFFFFFFFFFFFFFFFFFFFFFFFFFFF AND DUP2 MSTORE PUSH1 0x20 ADD PUSH1 0x0 ISZERO ISZERO DUP2 MSTORE POP PUSH1 0x4 PUSH1 0x0 DUP3 ADD MLOAD DUP2 PUSH1 0x0 ADD SWAP1 DUP1 MLOAD SWAP1 PUSH1 0x20 ADD SWAP1 PUSH2 0x51D SWAP3 SWAP2 SWAP1 PUSH2 0x1842 JUMP JUMPDEST POP PUSH1 0x20 DUP3 ADD MLOAD DUP2 PUSH1 0x1 ADD PUSH1 0x0 PUSH2 0x100 EXP DUP2 SLOAD DUP2 PUSH20 0xFFFFFFFFFFFFFFFFFFFFFFFFFFFFFFFFFFFFFFFF MUL NOT AND SWAP1 DUP4 PUSH20 0xFFFFFFFFFFFFFFFFFFFFFFFFFFFFFFFFFFFFFFFF AND MUL OR SWAP1 SSTORE POP PUSH1 0x40 DUP3 ADD MLOAD DUP2 PUSH1 0x1 ADD PUSH1 0x14 PUSH2 0x100 EXP DUP2 SLOAD DUP2 PUSH1 0xFF MUL NOT AND SWAP1 DUP4 ISZERO ISZERO MUL OR SWAP1 SSTORE POP SWAP1 POP POP POP JUMP JUMPDEST PUSH1 0x2 PUSH1 0x0 SWAP1 SLOAD SWAP1 PUSH2 0x100 EXP SWAP1 DIV PUSH20 0xFFFFFFFFFFFFFFFFFFFFFFFFFFFFFFFFFFFFFFFF AND DUP2 JUMP JUMPDEST PUSH1 0x60 DUP1 PUSH1 0x60 DUP1 PUSH1 0x60 PUSH1 0x0 PUSH1 0x60 PUSH1 0x0 PUSH1 0x60 PUSH1 0x3 PUSH1 0x0 SWAP1 SLOAD SWAP1 PUSH2 0x100 EXP SWAP1 DIV PUSH20 0xFFFFFFFFFFFFFFFFFFFFFFFFFFFFFFFFFFFFFFFF AND PUSH20 0xFFFFFFFFFFFFFFFFFFFFFFFFFFFFFFFFFFFFFFFF AND CALLER PUSH20 0xFFFFFFFFFFFFFFFFFFFFFFFFFFFFFFFFFFFFFFFF AND EQ PUSH2 0x61B JUMPI PUSH1 0x0 DUP1 REVERT JUMPDEST PUSH1 0x1 PUSH1 0x0 PUSH1 0x2 PUSH1 0x0 SWAP1 SLOAD SWAP1 PUSH2 0x100 EXP SWAP1 DIV PUSH20 0xFFFFFFFFFFFFFFFFFFFFFFFFFFFFFFFFFFFFFFFF AND PUSH20 0xFFFFFFFFFFFFFFFFFFFFFFFFFFFFFFFFFFFFFFFF AND PUSH20 0xFFFFFFFFFFFFFFFFFFFFFFFFFFFFFFFFFFFFFFFF AND DUP2 MSTORE PUSH1 0x20 ADD SWAP1 DUP2 MSTORE PUSH1 0x20 ADD PUSH1 0x0 KECCAK256 PUSH1 0x0 ADD PUSH1 0x1 PUSH1 0x0 PUSH1 0x2 PUSH1 0x0 SWAP1 SLOAD SWAP1 PUSH2 0x100 EXP SWAP1 DIV PUSH20 0xFFFFFFFFFFFFFFFFFFFFFFFFFFFFFFFFFFFFFFFF AND PUSH20 0xFFFFFFFFFFFFFFFFFFFFFFFFFFFFFFFFFFFFFFFF AND PUSH20 0xFFFFFFFFFFFFFFFFFFFFFFFFFFFFFFFFFFFFFFFF AND DUP2 MSTORE PUSH1 0x20 ADD SWAP1 DUP2 MSTORE PUSH1 0x20 ADD PUSH1 0x0 KECCAK256 PUSH1 0x1 ADD PUSH1 0x1 PUSH1 0x0 PUSH1 0x2 PUSH1 0x0 SWAP1 SLOAD SWAP1 PUSH2 0x100 EXP SWAP1 DIV PUSH20 0xFFFFFFFFFFFFFFFFFFFFFFFFFFFFFFFFFFFFFFFF AND PUSH20 0xFFFFFFFFFFFFFFFFFFFFFFFFFFFFFFFFFFFFFFFF AND PUSH20 0xFFFFFFFFFFFFFFFFFFFFFFFFFFFFFFFFFFFFFFFF AND DUP2 MSTORE PUSH1 0x20 ADD SWAP1 DUP2 MSTORE PUSH1 0x20 ADD PUSH1 0x0 KECCAK256 PUSH1 0x2 ADD PUSH1 0x1 PUSH1 0x0 PUSH1 0x2 PUSH1 0x0 SWAP1 SLOAD SWAP1 PUSH2 0x100 EXP SWAP1 DIV PUSH20 0xFFFFFFFFFFFFFFFFFFFFFFFFFFFFFFFFFFFFFFFF AND PUSH20 0xFFFFFFFFFFFFFFFFFFFFFFFFFFFFFFFFFFFFFFFF AND PUSH20 0xFFFFFFFFFFFFFFFFFFFFFFFFFFFFFFFFFFFFFFFF AND DUP2 MSTORE PUSH1 0x20 ADD SWAP1 DUP2 MSTORE PUSH1 0x20 ADD PUSH1 0x0 KECCAK256 PUSH1 0x3 ADD PUSH1 0x1 PUSH1 0x0 PUSH1 0x2 PUSH1 0x0 SWAP1 SLOAD SWAP1 PUSH2 0x100 EXP SWAP1 DIV PUSH20 0xFFFFFFFFFFFFFFFFFFFFFFFFFFFFFFFFFFFFFFFF AND PUSH20 0xFFFFFFFFFFFFFFFFFFFFFFFFFFFFFFFFFFFFFFFF AND PUSH20 0xFFFFFFFFFFFFFFFFFFFFFFFFFFFFFFFFFFFFFFFF AND DUP2 MSTORE PUSH1 0x20 ADD SWAP1 DUP2 MSTORE PUSH1 0x20 ADD PUSH1 0x0 KECCAK256 PUSH1 0x4 ADD PUSH1 0x1 PUSH1 0x0 PUSH1 0x2 PUSH1 0x0 SWAP1 SLOAD SWAP1 PUSH2 0x100 EXP SWAP1 DIV PUSH20 0xFFFFFFFFFFFFFFFFFFFFFFFFFFFFFFFFFFFFFFFF AND PUSH20 0xFFFFFFFFFFFFFFFFFFFFFFFFFFFFFFFFFFFFFFFF AND PUSH20 0xFFFFFFFFFFFFFFFFFFFFFFFFFFFFFFFFFFFFFFFF AND DUP2 MSTORE PUSH1 0x20 ADD SWAP1 DUP2 MSTORE PUSH1 0x20 ADD PUSH1 0x0 KECCAK256 PUSH1 0x5 ADD SLOAD PUSH1 0x1 PUSH1 0x0 PUSH1 0x2 PUSH1 0x0 SWAP1 SLOAD SWAP1 PUSH2 0x100 EXP SWAP1 DIV PUSH20 0xFFFFFFFFFFFFFFFFFFFFFFFFFFFFFFFFFFFFFFFF AND PUSH20 0xFFFFFFFFFFFFFFFFFFFFFFFFFFFFFFFFFFFFFFFF AND PUSH20 0xFFFFFFFFFFFFFFFFFFFFFFFFFFFFFFFFFFFFFFFF AND DUP2 MSTORE PUSH1 0x20 ADD SWAP1 DUP2 MSTORE PUSH1 0x20 ADD PUSH1 0x0 KECCAK256 PUSH1 0x6 ADD PUSH1 0x1 PUSH1 0x0 PUSH1 0x2 PUSH1 0x0 SWAP1 SLOAD SWAP1 PUSH2 0x100 EXP SWAP1 DIV PUSH20 0xFFFFFFFFFFFFFFFFFFFFFFFFFFFFFFFFFFFFFFFF AND PUSH20 0xFFFFFFFFFFFFFFFFFFFFFFFFFFFFFFFFFFFFFFFF AND PUSH20 0xFFFFFFFFFFFFFFFFFFFFFFFFFFFFFFFFFFFFFFFF AND DUP2 MSTORE PUSH1 0x20 ADD SWAP1 DUP2 MSTORE PUSH1 0x20 ADD PUSH1 0x0 KECCAK256 PUSH1 0x7 ADD SLOAD PUSH1 0x1 PUSH1 0x0 PUSH1 0x2 PUSH1 0x0 SWAP1 SLOAD SWAP1 PUSH2 0x100 EXP SWAP1 DIV PUSH20 0xFFFFFFFFFFFFFFFFFFFFFFFFFFFFFFFFFFFFFFFF AND PUSH20 0xFFFFFFFFFFFFFFFFFFFFFFFFFFFFFFFFFFFFFFFF AND PUSH20 0xFFFFFFFFFFFFFFFFFFFFFFFFFFFFFFFFFFFFFFFF AND DUP2 MSTORE PUSH1 0x20 ADD SWAP1 DUP2 MSTORE PUSH1 0x20 ADD PUSH1 0x0 KECCAK256 PUSH1 0x8 ADD DUP9 DUP1 SLOAD PUSH2 0x9AD SWAP1 PUSH2 0x1F4E JUMP JUMPDEST DUP1 PUSH1 0x1F ADD PUSH1 0x20 DUP1 SWAP2 DIV MUL PUSH1 0x20 ADD PUSH1 0x40 MLOAD SWAP1 DUP2 ADD PUSH1 0x40 MSTORE DUP1 SWAP3 SWAP2 SWAP1 DUP2 DUP2 MSTORE PUSH1 0x20 ADD DUP3 DUP1 SLOAD PUSH2 0x9D9 SWAP1 PUSH2 0x1F4E JUMP JUMPDEST DUP1 ISZERO PUSH2 0xA26 JUMPI DUP1 PUSH1 0x1F LT PUSH2 0x9FB JUMPI PUSH2 0x100 DUP1 DUP4 SLOAD DIV MUL DUP4 MSTORE SWAP2 PUSH1 0x20 ADD SWAP2 PUSH2 0xA26 JUMP JUMPDEST DUP3 ADD SWAP2 SWAP1 PUSH1 0x0 MSTORE PUSH1 0x20 PUSH1 0x0 KECCAK256 SWAP1 JUMPDEST DUP2 SLOAD DUP2 MSTORE SWAP1 PUSH1 0x1 ADD SWAP1 PUSH1 0x20 ADD DUP1 DUP4 GT PUSH2 0xA09 JUMPI DUP3 SWAP1 SUB PUSH1 0x1F AND DUP3 ADD SWAP2 JUMPDEST POP POP POP POP POP SWAP9 POP DUP8 DUP1 SLOAD PUSH2 0xA39 SWAP1 PUSH2 0x1F4E JUMP JUMPDEST DUP1 PUSH1 0x1F ADD PUSH1 0x20 DUP1 SWAP2 DIV MUL PUSH1 0x20 ADD PUSH1 0x40 MLOAD SWAP1 DUP2 ADD PUSH1 0x40 MSTORE DUP1 SWAP3 SWAP2 SWAP1 DUP2 DUP2 MSTORE PUSH1 0x20 ADD DUP3 DUP1 SLOAD PUSH2 0xA65 SWAP1 PUSH2 0x1F4E JUMP JUMPDEST DUP1 ISZERO PUSH2 0xAB2 JUMPI DUP1 PUSH1 0x1F LT PUSH2 0xA87 JUMPI PUSH2 0x100 DUP1 DUP4 SLOAD DIV MUL DUP4 MSTORE SWAP2 PUSH1 0x20 ADD SWAP2 PUSH2 0xAB2 JUMP JUMPDEST DUP3 ADD SWAP2 SWAP1 PUSH1 0x0 MSTORE PUSH1 0x20 PUSH1 0x0 KECCAK256 SWAP1 JUMPDEST DUP2 SLOAD DUP2 MSTORE SWAP1 PUSH1 0x1 ADD SWAP1 PUSH1 0x20 ADD DUP1 DUP4 GT PUSH2 0xA95 JUMPI DUP3 SWAP1 SUB PUSH1 0x1F AND DUP3 ADD SWAP2 JUMPDEST POP POP POP POP POP SWAP8 POP DUP7 DUP1 SLOAD PUSH2 0xAC5 SWAP1 PUSH2 0x1F4E JUMP JUMPDEST DUP1 PUSH1 0x1F ADD PUSH1 0x20 DUP1 SWAP2 DIV MUL PUSH1 0x20 ADD PUSH1 0x40 MLOAD SWAP1 DUP2 ADD PUSH1 0x40 MSTORE DUP1 SWAP3 SWAP2 SWAP1 DUP2 DUP2 MSTORE PUSH1 0x20 ADD DUP3 DUP1 SLOAD PUSH2 0xAF1 SWAP1 PUSH2 0x1F4E JUMP JUMPDEST DUP1 ISZERO PUSH2 0xB3E JUMPI DUP1 PUSH1 0x1F LT PUSH2 0xB13 JUMPI PUSH2 0x100 DUP1 DUP4 SLOAD DIV MUL DUP4 MSTORE SWAP2 PUSH1 0x20 ADD SWAP2 PUSH2 0xB3E JUMP JUMPDEST DUP3 ADD SWAP2 SWAP1 PUSH1 0x0 MSTORE PUSH1 0x20 PUSH1 0x0 KECCAK256 SWAP1 JUMPDEST DUP2 SLOAD DUP2 MSTORE SWAP1 PUSH1 0x1 ADD SWAP1 PUSH1 0x20 ADD DUP1 DUP4 GT PUSH2 0xB21 JUMPI DUP3 SWAP1 SUB PUSH1 0x1F AND DUP3 ADD SWAP2 JUMPDEST POP POP POP POP POP SWAP7 POP DUP6 DUP1 SLOAD PUSH2 0xB51 SWAP1 PUSH2 0x1F4E JUMP JUMPDEST DUP1 PUSH1 0x1F ADD PUSH1 0x20 DUP1 SWAP2 DIV MUL PUSH1 0x20 ADD PUSH1 0x40 MLOAD SWAP1 DUP2 ADD PUSH1 0x40 MSTORE DUP1 SWAP3 SWAP2 SWAP1 DUP2 DUP2 MSTORE PUSH1 0x20 ADD DUP3 DUP1 SLOAD PUSH2 0xB7D SWAP1 PUSH2 0x1F4E JUMP JUMPDEST DUP1 ISZERO PUSH2 0xBCA JUMPI DUP1 PUSH1 0x1F LT PUSH2 0xB9F JUMPI PUSH2 0x100 DUP1 DUP4 SLOAD DIV MUL DUP4 MSTORE SWAP2 PUSH1 0x20 ADD SWAP2 PUSH2 0xBCA JUMP JUMPDEST DUP3 ADD SWAP2 SWAP1 PUSH1 0x0 MSTORE PUSH1 0x20 PUSH1 0x0 KECCAK256 SWAP1 JUMPDEST DUP2 SLOAD DUP2 MSTORE SWAP1 PUSH1 0x1 ADD SWAP1 PUSH1 0x20 ADD DUP1 DUP4 GT PUSH2 0xBAD JUMPI DUP3 SWAP1 SUB PUSH1 0x1F AND DUP3 ADD SWAP2 JUMPDEST POP POP POP POP POP SWAP6 POP DUP5 DUP1 SLOAD PUSH2 0xBDD SWAP1 PUSH2 0x1F4E JUMP JUMPDEST DUP1 PUSH1 0x1F ADD PUSH1 0x20 DUP1 SWAP2 DIV MUL PUSH1 0x20 ADD PUSH1 0x40 MLOAD SWAP1 DUP2 ADD PUSH1 0x40 MSTORE DUP1 SWAP3 SWAP2 SWAP1 DUP2 DUP2 MSTORE PUSH1 0x20 ADD DUP3 DUP1 SLOAD PUSH2 0xC09 SWAP1 PUSH2 0x1F4E JUMP JUMPDEST DUP1 ISZERO PUSH2 0xC56 JUMPI DUP1 PUSH1 0x1F LT PUSH2 0xC2B JUMPI PUSH2 0x100 DUP1 DUP4 SLOAD DIV MUL DUP4 MSTORE SWAP2 PUSH1 0x20 ADD SWAP2 PUSH2 0xC56 JUMP JUMPDEST DUP3 ADD SWAP2 SWAP1 PUSH1 0x0 MSTORE PUSH1 0x20 PUSH1 0x0 KECCAK256 SWAP1 JUMPDEST DUP2 SLOAD DUP2 MSTORE SWAP1 PUSH1 0x1 ADD SWAP1 PUSH1 0x20 ADD DUP1 DUP4 GT PUSH2 0xC39 JUMPI DUP3 SWAP1 SUB PUSH1 0x1F AND DUP3 ADD SWAP2 JUMPDEST POP POP POP POP POP SWAP5 POP DUP3 DUP1 SLOAD PUSH2 0xC69 SWAP1 PUSH2 0x1F4E JUMP JUMPDEST DUP1 PUSH1 0x1F ADD PUSH1 0x20 DUP1 SWAP2 DIV MUL PUSH1 0x20 ADD PUSH1 0x40 MLOAD SWAP1 DUP2 ADD PUSH1 0x40 MSTORE DUP1 SWAP3 SWAP2 SWAP1 DUP2 DUP2 MSTORE PUSH1 0x20 ADD DUP3 DUP1 SLOAD PUSH2 0xC95 SWAP1 PUSH2 0x1F4E JUMP JUMPDEST DUP1 ISZERO PUSH2 0xCE2 JUMPI DUP1 PUSH1 0x1F LT PUSH2 0xCB7 JUMPI PUSH2 0x100 DUP1 DUP4 SLOAD DIV MUL DUP4 MSTORE SWAP2 PUSH1 0x20 ADD SWAP2 PUSH2 0xCE2 JUMP JUMPDEST DUP3 ADD SWAP2 SWAP1 PUSH1 0x0 MSTORE PUSH1 0x20 PUSH1 0x0 KECCAK256 SWAP1 JUMPDEST DUP2 SLOAD DUP2 MSTORE SWAP1 PUSH1 0x1 ADD SWAP1 PUSH1 0x20 ADD DUP1 DUP4 GT PUSH2 0xCC5 JUMPI DUP3 SWAP1 SUB PUSH1 0x1F AND DUP3 ADD SWAP2 JUMPDEST POP POP POP POP POP SWAP3 POP DUP1 DUP1 SLOAD PUSH2 0xCF5 SWAP1 PUSH2 0x1F4E JUMP JUMPDEST DUP1 PUSH1 0x1F ADD PUSH1 0x20 DUP1 SWAP2 DIV MUL PUSH1 0x20 ADD PUSH1 0x40 MLOAD SWAP1 DUP2 ADD PUSH1 0x40 MSTORE DUP1 SWAP3 SWAP2 SWAP1 DUP2 DUP2 MSTORE PUSH1 0x20 ADD DUP3 DUP1 SLOAD PUSH2 0xD21 SWAP1 PUSH2 0x1F4E JUMP JUMPDEST DUP1 ISZERO PUSH2 0xD6E JUMPI DUP1 PUSH1 0x1F LT PUSH2 0xD43 JUMPI PUSH2 0x100 DUP1 DUP4 SLOAD DIV MUL DUP4 MSTORE SWAP2 PUSH1 0x20 ADD SWAP2 PUSH2 0xD6E JUMP JUMPDEST DUP3 ADD SWAP2 SWAP1 PUSH1 0x0 MSTORE PUSH1 0x20 PUSH1 0x0 KECCAK256 SWAP1 JUMPDEST DUP2 SLOAD DUP2 MSTORE SWAP1 PUSH1 0x1 ADD SWAP1 PUSH1 0x20 ADD DUP1 DUP4 GT PUSH2 0xD51 JUMPI DUP3 SWAP1 SUB PUSH1 0x1F AND DUP3 ADD SWAP2 JUMPDEST POP POP POP POP POP SWAP1 POP SWAP9 POP SWAP9 POP SWAP9 POP SWAP9 POP SWAP9 POP SWAP9 POP SWAP9 POP SWAP9 POP SWAP9 POP SWAP1 SWAP2 SWAP3 SWAP4 SWAP5 SWAP6 SWAP7 SWAP8 SWAP9 JUMP JUMPDEST PUSH1 0x2 PUSH1 0x0 SWAP1 SLOAD SWAP1 PUSH2 0x100 EXP SWAP1 DIV PUSH20 0xFFFFFFFFFFFFFFFFFFFFFFFFFFFFFFFFFFFFFFFF AND PUSH20 0xFFFFFFFFFFFFFFFFFFFFFFFFFFFFFFFFFFFFFFFF AND CALLER PUSH20 0xFFFFFFFFFFFFFFFFFFFFFFFFFFFFFFFFFFFFFFFF AND EQ PUSH2 0xDEC JUMPI PUSH1 0x0 DUP1 REVERT JUMPDEST PUSH1 0x0 CALLER SWAP1 POP PUSH1 0x1 PUSH1 0x0 DUP3 PUSH20 0xFFFFFFFFFFFFFFFFFFFFFFFFFFFFFFFFFFFFFFFF AND PUSH20 0xFFFFFFFFFFFFFFFFFFFFFFFFFFFFFFFFFFFFFFFF AND DUP2 MSTORE PUSH1 0x20 ADD SWAP1 DUP2 MSTORE PUSH1 0x20 ADD PUSH1 0x0 KECCAK256 PUSH1 0x9 ADD PUSH1 0x0 SWAP1 SLOAD SWAP1 PUSH2 0x100 EXP SWAP1 DIV PUSH1 0xFF AND ISZERO PUSH2 0xE4B JUMPI PUSH1 0x0 DUP1 REVERT JUMPDEST DUP1 PUSH1 0x0 DUP1 PUSH2 0x100 EXP DUP2 SLOAD DUP2 PUSH20 0xFFFFFFFFFFFFFFFFFFFFFFFFFFFFFFFFFFFFFFFF MUL NOT AND SWAP1 DUP4 PUSH20 0xFFFFFFFFFFFFFFFFFFFFFFFFFFFFFFFFFFFFFFFF AND MUL OR SWAP1 SSTORE POP DUP10 PUSH1 0x1 PUSH1 0x0 DUP4 PUSH20 0xFFFFFFFFFFFFFFFFFFFFFFFFFFFFFFFFFFFFFFFF AND PUSH20 0xFFFFFFFFFFFFFFFFFFFFFFFFFFFFFFFFFFFFFFFF AND DUP2 MSTORE PUSH1 0x20 ADD SWAP1 DUP2 MSTORE PUSH1 0x20 ADD PUSH1 0x0 KECCAK256 PUSH1 0x0 ADD SWAP1 DUP1 MLOAD SWAP1 PUSH1 0x20 ADD SWAP1 PUSH2 0xEE1 SWAP3 SWAP2 SWAP1 PUSH2 0x1842 JUMP JUMPDEST POP DUP9 PUSH1 0x1 PUSH1 0x0 DUP4 PUSH20 0xFFFFFFFFFFFFFFFFFFFFFFFFFFFFFFFFFFFFFFFF AND PUSH20 0xFFFFFFFFFFFFFFFFFFFFFFFFFFFFFFFFFFFFFFFF AND DUP2 MSTORE PUSH1 0x20 ADD SWAP1 DUP2 MSTORE PUSH1 0x20 ADD PUSH1 0x0 KECCAK256 PUSH1 0x1 ADD SWAP1 DUP1 MLOAD SWAP1 PUSH1 0x20 ADD SWAP1 PUSH2 0xF38 SWAP3 SWAP2 SWAP1 PUSH2 0x1842 JUMP JUMPDEST POP DUP8 PUSH1 0x1 PUSH1 0x0 DUP4 PUSH20 0xFFFFFFFFFFFFFFFFFFFFFFFFFFFFFFFFFFFFFFFF AND PUSH20 0xFFFFFFFFFFFFFFFFFFFFFFFFFFFFFFFFFFFFFFFF AND DUP2 MSTORE PUSH1 0x20 ADD SWAP1 DUP2 MSTORE PUSH1 0x20 ADD PUSH1 0x0 KECCAK256 PUSH1 0x2 ADD SWAP1 DUP1 MLOAD SWAP1 PUSH1 0x20 ADD SWAP1 PUSH2 0xF8F SWAP3 SWAP2 SWAP1 PUSH2 0x1842 JUMP JUMPDEST POP DUP7 PUSH1 0x1 PUSH1 0x0 DUP4 PUSH20 0xFFFFFFFFFFFFFFFFFFFFFFFFFFFFFFFFFFFFFFFF AND PUSH20 0xFFFFFFFFFFFFFFFFFFFFFFFFFFFFFFFFFFFFFFFF AND DUP2 MSTORE PUSH1 0x20 ADD SWAP1 DUP2 MSTORE PUSH1 0x20 ADD PUSH1 0x0 KECCAK256 PUSH1 0x3 ADD SWAP1 DUP1 MLOAD SWAP1 PUSH1 0x20 ADD SWAP1 PUSH2 0xFE6 SWAP3 SWAP2 SWAP1 PUSH2 0x1842 JUMP JUMPDEST POP DUP6 PUSH1 0x1 PUSH1 0x0 DUP4 PUSH20 0xFFFFFFFFFFFFFFFFFFFFFFFFFFFFFFFFFFFFFFFF AND PUSH20 0xFFFFFFFFFFFFFFFFFFFFFFFFFFFFFFFFFFFFFFFF AND DUP2 MSTORE PUSH1 0x20 ADD SWAP1 DUP2 MSTORE PUSH1 0x20 ADD PUSH1 0x0 KECCAK256 PUSH1 0x4 ADD SWAP1 DUP1 MLOAD SWAP1 PUSH1 0x20 ADD SWAP1 PUSH2 0x103D SWAP3 SWAP2 SWAP1 PUSH2 0x1842 JUMP JUMPDEST POP DUP5 PUSH1 0x1 PUSH1 0x0 DUP4 PUSH20 0xFFFFFFFFFFFFFFFFFFFFFFFFFFFFFFFFFFFFFFFF AND PUSH20 0xFFFFFFFFFFFFFFFFFFFFFFFFFFFFFFFFFFFFFFFF AND DUP2 MSTORE PUSH1 0x20 ADD SWAP1 DUP2 MSTORE PUSH1 0x20 ADD PUSH1 0x0 KECCAK256 PUSH1 0x5 ADD DUP2 SWAP1 SSTORE POP DUP4 PUSH1 0x1 PUSH1 0x0 DUP4 PUSH20 0xFFFFFFFFFFFFFFFFFFFFFFFFFFFFFFFFFFFFFFFF AND PUSH20 0xFFFFFFFFFFFFFFFFFFFFFFFFFFFFFFFFFFFFFFFF AND DUP2 MSTORE PUSH1 0x20 ADD SWAP1 DUP2 MSTORE PUSH1 0x20 ADD PUSH1 0x0 KECCAK256 PUSH1 0x6 ADD SWAP1 DUP1 MLOAD SWAP1 PUSH1 0x20 ADD SWAP1 PUSH2 0x10DB SWAP3 SWAP2 SWAP1 PUSH2 0x1842 JUMP JUMPDEST POP DUP3 PUSH1 0x1 PUSH1 0x0 DUP4 PUSH20 0xFFFFFFFFFFFFFFFFFFFFFFFFFFFFFFFFFFFFFFFF AND PUSH20 0xFFFFFFFFFFFFFFFFFFFFFFFFFFFFFFFFFFFFFFFF AND DUP2 MSTORE PUSH1 0x20 ADD SWAP1 DUP2 MSTORE PUSH1 0x20 ADD PUSH1 0x0 KECCAK256 PUSH1 0x7 ADD DUP2 SWAP1 SSTORE POP DUP2 PUSH1 0x1 PUSH1 0x0 DUP4 PUSH20 0xFFFFFFFFFFFFFFFFFFFFFFFFFFFFFFFFFFFFFFFF AND PUSH20 0xFFFFFFFFFFFFFFFFFFFFFFFFFFFFFFFFFFFFFFFF AND DUP2 MSTORE PUSH1 0x20 ADD SWAP1 DUP2 MSTORE PUSH1 0x20 ADD PUSH1 0x0 KECCAK256 PUSH1 0x8 ADD SWAP1 DUP1 MLOAD SWAP1 PUSH1 0x20 ADD SWAP1 PUSH2 0x1179 SWAP3 SWAP2 SWAP1 PUSH2 0x1842 JUMP JUMPDEST POP PUSH1 0x1 DUP1 PUSH1 0x0 DUP4 PUSH20 0xFFFFFFFFFFFFFFFFFFFFFFFFFFFFFFFFFFFFFFFF AND PUSH20 0xFFFFFFFFFFFFFFFFFFFFFFFFFFFFFFFFFFFFFFFF AND DUP2 MSTORE PUSH1 0x20 ADD SWAP1 DUP2 MSTORE PUSH1 0x20 ADD PUSH1 0x0 KECCAK256 PUSH1 0x9 ADD PUSH1 0x0 PUSH2 0x100 EXP DUP2 SLOAD DUP2 PUSH1 0xFF MUL NOT AND SWAP1 DUP4 ISZERO ISZERO MUL OR SWAP1 SSTORE POP POP POP POP POP POP POP POP POP POP POP JUMP JUMPDEST PUSH1 0x3 PUSH1 0x0 SWAP1 SLOAD SWAP1 PUSH2 0x100 EXP SWAP1 DIV PUSH20 0xFFFFFFFFFFFFFFFFFFFFFFFFFFFFFFFFFFFFFFFF AND DUP2 JUMP JUMPDEST PUSH1 0x0 DUP1 PUSH1 0x0 SWAP1 SLOAD SWAP1 PUSH2 0x100 EXP SWAP1 DIV PUSH20 0xFFFFFFFFFFFFFFFFFFFFFFFFFFFFFFFFFFFFFFFF AND SWAP1 POP SWAP1 JUMP JUMPDEST PUSH1 0x60 DUP1 PUSH1 0x60 DUP1 PUSH1 0x60 PUSH1 0x0 PUSH1 0x60 PUSH1 0x1 PUSH1 0x0 DUP10 PUSH20 0xFFFFFFFFFFFFFFFFFFFFFFFFFFFFFFFFFFFFFFFF AND PUSH20 0xFFFFFFFFFFFFFFFFFFFFFFFFFFFFFFFFFFFFFFFF AND DUP2 MSTORE PUSH1 0x20 ADD SWAP1 DUP2 MSTORE PUSH1 0x20 ADD PUSH1 0x0 KECCAK256 PUSH1 0x9 ADD PUSH1 0x0 SWAP1 SLOAD SWAP1 PUSH2 0x100 EXP SWAP1 DIV PUSH1 0xFF AND PUSH2 0x1294 JUMPI PUSH1 0x0 DUP1 REVERT JUMPDEST PUSH1 0x2 PUSH1 0x0 SWAP1 SLOAD SWAP1 PUSH2 0x100 EXP SWAP1 DIV PUSH20 0xFFFFFFFFFFFFFFFFFFFFFFFFFFFFFFFFFFFFFFFF AND PUSH20 0xFFFFFFFFFFFFFFFFFFFFFFFFFFFFFFFFFFFFFFFF AND DUP9 PUSH20 0xFFFFFFFFFFFFFFFFFFFFFFFFFFFFFFFFFFFFFFFF AND EQ PUSH2 0x12EE JUMPI PUSH1 0x0 DUP1 REVERT JUMPDEST PUSH1 0x1 PUSH1 0x0 DUP10 PUSH20 0xFFFFFFFFFFFFFFFFFFFFFFFFFFFFFFFFFFFFFFFF AND PUSH20 0xFFFFFFFFFFFFFFFFFFFFFFFFFFFFFFFFFFFFFFFF AND DUP2 MSTORE PUSH1 0x20 ADD SWAP1 DUP2 MSTORE PUSH1 0x20 ADD PUSH1 0x0 KECCAK256 PUSH1 0x0 ADD PUSH1 0x1 PUSH1 0x0 DUP11 PUSH20 0xFFFFFFFFFFFFFFFFFFFFFFFFFFFFFFFFFFFFFFFF AND PUSH20 0xFFFFFFFFFFFFFFFFFFFFFFFFFFFFFFFFFFFFFFFF AND DUP2 MSTORE PUSH1 0x20 ADD SWAP1 DUP2 MSTORE PUSH1 0x20 ADD PUSH1 0x0 KECCAK256 PUSH1 0x1 ADD PUSH1 0x1 PUSH1 0x0 DUP12 PUSH20 0xFFFFFFFFFFFFFFFFFFFFFFFFFFFFFFFFFFFFFFFF AND PUSH20 0xFFFFFFFFFFFFFFFFFFFFFFFFFFFFFFFFFFFFFFFF AND DUP2 MSTORE PUSH1 0x20 ADD SWAP1 DUP2 MSTORE PUSH1 0x20 ADD PUSH1 0x0 KECCAK256 PUSH1 0x2 ADD PUSH1 0x1 PUSH1 0x0 DUP13 PUSH20 0xFFFFFFFFFFFFFFFFFFFFFFFFFFFFFFFFFFFFFFFF AND PUSH20 0xFFFFFFFFFFFFFFFFFFFFFFFFFFFFFFFFFFFFFFFF AND DUP2 MSTORE PUSH1 0x20 ADD SWAP1 DUP2 MSTORE PUSH1 0x20 ADD PUSH1 0x0 KECCAK256 PUSH1 0x3 ADD PUSH1 0x1 PUSH1 0x0 DUP14 PUSH20 0xFFFFFFFFFFFFFFFFFFFFFFFFFFFFFFFFFFFFFFFF AND PUSH20 0xFFFFFFFFFFFFFFFFFFFFFFFFFFFFFFFFFFFFFFFF AND DUP2 MSTORE PUSH1 0x20 ADD SWAP1 DUP2 MSTORE PUSH1 0x20 ADD PUSH1 0x0 KECCAK256 PUSH1 0x4 ADD PUSH1 0x1 PUSH1 0x0 DUP15 PUSH20 0xFFFFFFFFFFFFFFFFFFFFFFFFFFFFFFFFFFFFFFFF AND PUSH20 0xFFFFFFFFFFFFFFFFFFFFFFFFFFFFFFFFFFFFFFFF AND DUP2 MSTORE PUSH1 0x20 ADD SWAP1 DUP2 MSTORE PUSH1 0x20 ADD PUSH1 0x0 KECCAK256 PUSH1 0x5 ADD SLOAD PUSH1 0x1 PUSH1 0x0 DUP16 PUSH20 0xFFFFFFFFFFFFFFFFFFFFFFFFFFFFFFFFFFFFFFFF AND PUSH20 0xFFFFFFFFFFFFFFFFFFFFFFFFFFFFFFFFFFFFFFFF AND DUP2 MSTORE PUSH1 0x20 ADD SWAP1 DUP2 MSTORE PUSH1 0x20 ADD PUSH1 0x0 KECCAK256 PUSH1 0x6 ADD DUP7 DUP1 SLOAD PUSH2 0x14C9 SWAP1 PUSH2 0x1F4E JUMP JUMPDEST DUP1 PUSH1 0x1F ADD PUSH1 0x20 DUP1 SWAP2 DIV MUL PUSH1 0x20 ADD PUSH1 0x40 MLOAD SWAP1 DUP2 ADD PUSH1 0x40 MSTORE DUP1 SWAP3 SWAP2 SWAP1 DUP2 DUP2 MSTORE PUSH1 0x20 ADD DUP3 DUP1 SLOAD PUSH2 0x14F5 SWAP1 PUSH2 0x1F4E JUMP JUMPDEST DUP1 ISZERO PUSH2 0x1542 JUMPI DUP1 PUSH1 0x1F LT PUSH2 0x1517 JUMPI PUSH2 0x100 DUP1 DUP4 SLOAD DIV MUL DUP4 MSTORE SWAP2 PUSH1 0x20 ADD SWAP2 PUSH2 0x1542 JUMP JUMPDEST DUP3 ADD SWAP2 SWAP1 PUSH1 0x0 MSTORE PUSH1 0x20 PUSH1 0x0 KECCAK256 SWAP1 JUMPDEST DUP2 SLOAD DUP2 MSTORE SWAP1 PUSH1 0x1 ADD SWAP1 PUSH1 0x20 ADD DUP1 DUP4 GT PUSH2 0x1525 JUMPI DUP3 SWAP1 SUB PUSH1 0x1F AND DUP3 ADD SWAP2 JUMPDEST POP POP POP POP POP SWAP7 POP DUP6 DUP1 SLOAD PUSH2 0x1555 SWAP1 PUSH2 0x1F4E JUMP JUMPDEST DUP1 PUSH1 0x1F ADD PUSH1 0x20 DUP1 SWAP2 DIV MUL PUSH1 0x20 ADD PUSH1 0x40 MLOAD SWAP1 DUP2 ADD PUSH1 0x40 MSTORE DUP1 SWAP3 SWAP2 SWAP1 DUP2 DUP2 MSTORE PUSH1 0x20 ADD DUP3 DUP1 SLOAD PUSH2 0x1581 SWAP1 PUSH2 0x1F4E JUMP JUMPDEST DUP1 ISZERO PUSH2 0x15CE JUMPI DUP1 PUSH1 0x1F LT PUSH2 0x15A3 JUMPI PUSH2 0x100 DUP1 DUP4 SLOAD DIV MUL DUP4 MSTORE SWAP2 PUSH1 0x20 ADD SWAP2 PUSH2 0x15CE JUMP JUMPDEST DUP3 ADD SWAP2 SWAP1 PUSH1 0x0 MSTORE PUSH1 0x20 PUSH1 0x0 KECCAK256 SWAP1 JUMPDEST DUP2 SLOAD DUP2 MSTORE SWAP1 PUSH1 0x1 ADD SWAP1 PUSH1 0x20 ADD DUP1 DUP4 GT PUSH2 0x15B1 JUMPI DUP3 SWAP1 SUB PUSH1 0x1F AND DUP3 ADD SWAP2 JUMPDEST POP POP POP POP POP SWAP6 POP DUP5 DUP1 SLOAD PUSH2 0x15E1 SWAP1 PUSH2 0x1F4E JUMP JUMPDEST DUP1 PUSH1 0x1F ADD PUSH1 0x20 DUP1 SWAP2 DIV MUL PUSH1 0x20 ADD PUSH1 0x40 MLOAD SWAP1 DUP2 ADD PUSH1 0x40 MSTORE DUP1 SWAP3 SWAP2 SWAP1 DUP2 DUP2 MSTORE PUSH1 0x20 ADD DUP3 DUP1 SLOAD PUSH2 0x160D SWAP1 PUSH2 0x1F4E JUMP JUMPDEST DUP1 ISZERO PUSH2 0x165A JUMPI DUP1 PUSH1 0x1F LT PUSH2 0x162F JUMPI PUSH2 0x100 DUP1 DUP4 SLOAD DIV MUL DUP4 MSTORE SWAP2 PUSH1 0x20 ADD SWAP2 PUSH2 0x165A JUMP JUMPDEST DUP3 ADD SWAP2 SWAP1 PUSH1 0x0 MSTORE PUSH1 0x20 PUSH1 0x0 KECCAK256 SWAP1 JUMPDEST DUP2 SLOAD DUP2 MSTORE SWAP1 PUSH1 0x1 ADD SWAP1 PUSH1 0x20 ADD DUP1 DUP4 GT PUSH2 0x163D JUMPI DUP3 SWAP1 SUB PUSH1 0x1F AND DUP3 ADD SWAP2 JUMPDEST POP POP POP POP POP SWAP5 POP DUP4 DUP1 SLOAD PUSH2 0x166D SWAP1 PUSH2 0x1F4E JUMP JUMPDEST DUP1 PUSH1 0x1F ADD PUSH1 0x20 DUP1 SWAP2 DIV MUL PUSH1 0x20 ADD PUSH1 0x40 MLOAD SWAP1 DUP2 ADD PUSH1 0x40 MSTORE DUP1 SWAP3 SWAP2 SWAP1 DUP2 DUP2 MSTORE PUSH1 0x20 ADD DUP3 DUP1 SLOAD PUSH2 0x1699 SWAP1 PUSH2 0x1F4E JUMP JUMPDEST DUP1 ISZERO PUSH2 0x16E6 JUMPI DUP1 PUSH1 0x1F LT PUSH2 0x16BB JUMPI PUSH2 0x100 DUP1 DUP4 SLOAD DIV MUL DUP4 MSTORE SWAP2 PUSH1 0x20 ADD SWAP2 PUSH2 0x16E6 JUMP JUMPDEST DUP3 ADD SWAP2 SWAP1 PUSH1 0x0 MSTORE PUSH1 0x20 PUSH1 0x0 KECCAK256 SWAP1 JUMPDEST DUP2 SLOAD DUP2 MSTORE SWAP1 PUSH1 0x1 ADD SWAP1 PUSH1 0x20 ADD DUP1 DUP4 GT PUSH2 0x16C9 JUMPI DUP3 SWAP1 SUB PUSH1 0x1F AND DUP3 ADD SWAP2 JUMPDEST POP POP POP POP POP SWAP4 POP DUP3 DUP1 SLOAD PUSH2 0x16F9 SWAP1 PUSH2 0x1F4E JUMP JUMPDEST DUP1 PUSH1 0x1F ADD PUSH1 0x20 DUP1 SWAP2 DIV MUL PUSH1 0x20 ADD PUSH1 0x40 MLOAD SWAP1 DUP2 ADD PUSH1 0x40 MSTORE DUP1 SWAP3 SWAP2 SWAP1 DUP2 DUP2 MSTORE PUSH1 0x20 ADD DUP3 DUP1 SLOAD PUSH2 0x1725 SWAP1 PUSH2 0x1F4E JUMP JUMPDEST DUP1 ISZERO PUSH2 0x1772 JUMPI DUP1 PUSH1 0x1F LT PUSH2 0x1747 JUMPI PUSH2 0x100 DUP1 DUP4 SLOAD DIV MUL DUP4 MSTORE SWAP2 PUSH1 0x20 ADD SWAP2 PUSH2 0x1772 JUMP JUMPDEST DUP3 ADD SWAP2 SWAP1 PUSH1 0x0 MSTORE PUSH1 0x20 PUSH1 0x0 KECCAK256 SWAP1 JUMPDEST DUP2 SLOAD DUP2 MSTORE SWAP1 PUSH1 0x1 ADD SWAP1 PUSH1 0x20 ADD DUP1 DUP4 GT PUSH2 0x1755 JUMPI DUP3 SWAP1 SUB PUSH1 0x1F AND DUP3 ADD SWAP2 JUMPDEST POP POP POP POP POP SWAP3 POP DUP1 DUP1 SLOAD PUSH2 0x1785 SWAP1 PUSH2 0x1F4E JUMP JUMPDEST DUP1 PUSH1 0x1F ADD PUSH1 0x20 DUP1 SWAP2 DIV MUL PUSH1 0x20 ADD PUSH1 0x40 MLOAD SWAP1 DUP2 ADD PUSH1 0x40 MSTORE DUP1 SWAP3 SWAP2 SWAP1 DUP2 DUP2 MSTORE PUSH1 0x20 ADD DUP3 DUP1 SLOAD PUSH2 0x17B1 SWAP1 PUSH2 0x1F4E JUMP JUMPDEST DUP1 ISZERO PUSH2 0x17FE JUMPI DUP1 PUSH1 0x1F LT PUSH2 0x17D3 JUMPI PUSH2 0x100 DUP1 DUP4 SLOAD DIV MUL DUP4 MSTORE SWAP2 PUSH1 0x20 ADD SWAP2 PUSH2 0x17FE JUMP JUMPDEST DUP3 ADD SWAP2 SWAP1 PUSH1 0x0 MSTORE PUSH1 0x20 PUSH1 0x0 KECCAK256 SWAP1 JUMPDEST DUP2 SLOAD DUP2 MSTORE SWAP1 PUSH1 0x1 ADD SWAP1 PUSH1 0x20 ADD DUP1 DUP4 GT PUSH2 0x17E1 JUMPI DUP3 SWAP1 SUB PUSH1 0x1F AND DUP3 ADD SWAP2 JUMPDEST POP POP POP POP POP SWAP1 POP SWAP7 POP SWAP7 POP SWAP7 POP SWAP7 POP SWAP7 POP SWAP7 POP SWAP7 POP SWAP2 SWAP4 SWAP6 SWAP8 SWAP1 SWAP3 SWAP5 SWAP7 POP JUMP JUMPDEST PUSH1 0x0 DUP1 SLOAD SWAP1 PUSH2 0x100 EXP SWAP1 DIV PUSH20 0xFFFFFFFFFFFFFFFFFFFFFFFFFFFFFFFFFFFFFFFF AND DUP2 JUMP JUMPDEST DUP3 DUP1 SLOAD PUSH2 0x184E SWAP1 PUSH2 0x1F4E JUMP JUMPDEST SWAP1 PUSH1 0x0 MSTORE PUSH1 0x20 PUSH1 0x0 KECCAK256 SWAP1 PUSH1 0x1F ADD PUSH1 0x20 SWAP1 DIV DUP2 ADD SWAP3 DUP3 PUSH2 0x1870 JUMPI PUSH1 0x0 DUP6 SSTORE PUSH2 0x18B7 JUMP JUMPDEST DUP3 PUSH1 0x1F LT PUSH2 0x1889 JUMPI DUP1 MLOAD PUSH1 0xFF NOT AND DUP4 DUP1 ADD OR DUP6 SSTORE PUSH2 0x18B7 JUMP JUMPDEST DUP3 DUP1 ADD PUSH1 0x1 ADD DUP6 SSTORE DUP3 ISZERO PUSH2 0x18B7 JUMPI SWAP2 DUP3 ADD JUMPDEST DUP3 DUP2 GT ISZERO PUSH2 0x18B6 JUMPI DUP3 MLOAD DUP3 SSTORE SWAP2 PUSH1 0x20 ADD SWAP2 SWAP1 PUSH1 0x1 ADD SWAP1 PUSH2 0x189B JUMP JUMPDEST JUMPDEST POP SWAP1 POP PUSH2 0x18C4 SWAP2 SWAP1 PUSH2 0x18C8 JUMP JUMPDEST POP SWAP1 JUMP JUMPDEST JUMPDEST DUP1 DUP3 GT ISZERO PUSH2 0x18E1 JUMPI PUSH1 0x0 DUP2 PUSH1 0x0 SWAP1 SSTORE POP PUSH1 0x1 ADD PUSH2 0x18C9 JUMP JUMPDEST POP SWAP1 JUMP JUMPDEST PUSH1 0x0 PUSH1 0x40 MLOAD SWAP1 POP SWAP1 JUMP JUMPDEST PUSH1 0x0 DUP1 REVERT JUMPDEST PUSH1 0x0 DUP1 REVERT JUMPDEST PUSH1 0x0 PUSH20 0xFFFFFFFFFFFFFFFFFFFFFFFFFFFFFFFFFFFFFFFF DUP3 AND SWAP1 POP SWAP2 SWAP1 POP JUMP JUMPDEST PUSH1 0x0 PUSH2 0x1924 DUP3 PUSH2 0x18F9 JUMP JUMPDEST SWAP1 POP SWAP2 SWAP1 POP JUMP JUMPDEST PUSH2 0x1934 DUP2 PUSH2 0x1919 JUMP JUMPDEST DUP2 EQ PUSH2 0x193F JUMPI PUSH1 0x0 DUP1 REVERT JUMPDEST POP JUMP JUMPDEST PUSH1 0x0 DUP2 CALLDATALOAD SWAP1 POP PUSH2 0x1951 DUP2 PUSH2 0x192B JUMP JUMPDEST SWAP3 SWAP2 POP POP JUMP JUMPDEST PUSH1 0x0 PUSH1 0x20 DUP3 DUP5 SUB SLT ISZERO PUSH2 0x196D JUMPI PUSH2 0x196C PUSH2 0x18EF JUMP JUMPDEST JUMPDEST PUSH1 0x0 PUSH2 0x197B DUP5 DUP3 DUP6 ADD PUSH2 0x1942 JUMP JUMPDEST SWAP2 POP POP SWAP3 SWAP2 POP POP JUMP JUMPDEST PUSH1 0x0 DUP2 SWAP1 POP SWAP2 SWAP1 POP JUMP JUMPDEST PUSH2 0x1997 DUP2 PUSH2 0x1984 JUMP JUMPDEST DUP3 MSTORE POP POP JUMP JUMPDEST PUSH1 0x0 DUP2 MLOAD SWAP1 POP SWAP2 SWAP1 POP JUMP JUMPDEST PUSH1 0x0 DUP3 DUP3 MSTORE PUSH1 0x20 DUP3 ADD SWAP1 POP SWAP3 SWAP2 POP POP JUMP JUMPDEST PUSH1 0x0 JUMPDEST DUP4 DUP2 LT ISZERO PUSH2 0x19D7 JUMPI DUP1 DUP3 ADD MLOAD DUP2 DUP5 ADD MSTORE PUSH1 0x20 DUP2 ADD SWAP1 POP PUSH2 0x19BC JUMP JUMPDEST DUP4 DUP2 GT ISZERO PUSH2 0x19E6 JUMPI PUSH1 0x0 DUP5 DUP5 ADD MSTORE JUMPDEST POP POP POP POP JUMP JUMPDEST PUSH1 0x0 PUSH1 0x1F NOT PUSH1 0x1F DUP4 ADD AND SWAP1 POP SWAP2 SWAP1 POP JUMP JUMPDEST PUSH1 0x0 PUSH2 0x1A08 DUP3 PUSH2 0x199D JUMP JUMPDEST PUSH2 0x1A12 DUP2 DUP6 PUSH2 0x19A8 JUMP JUMPDEST SWAP4 POP PUSH2 0x1A22 DUP2 DUP6 PUSH1 0x20 DUP7 ADD PUSH2 0x19B9 JUMP JUMPDEST PUSH2 0x1A2B DUP2 PUSH2 0x19EC JUMP JUMPDEST DUP5 ADD SWAP2 POP POP SWAP3 SWAP2 POP POP JUMP JUMPDEST PUSH1 0x0 PUSH1 0x40 DUP3 ADD SWAP1 POP PUSH2 0x1A4B PUSH1 0x0 DUP4 ADD DUP6 PUSH2 0x198E JUMP JUMPDEST DUP2 DUP2 SUB PUSH1 0x20 DUP4 ADD MSTORE PUSH2 0x1A5D DUP2 DUP5 PUSH2 0x19FD JUMP JUMPDEST SWAP1 POP SWAP4 SWAP3 POP POP POP JUMP JUMPDEST PUSH1 0x0 DUP1 REVERT JUMPDEST PUSH1 0x0 DUP1 REVERT JUMPDEST PUSH32 0x4E487B7100000000000000000000000000000000000000000000000000000000 PUSH1 0x0 MSTORE PUSH1 0x41 PUSH1 0x4 MSTORE PUSH1 0x24 PUSH1 0x0 REVERT JUMPDEST PUSH2 0x1AA8 DUP3 PUSH2 0x19EC JUMP JUMPDEST DUP2 ADD DUP2 DUP2 LT PUSH8 0xFFFFFFFFFFFFFFFF DUP3 GT OR ISZERO PUSH2 0x1AC7 JUMPI PUSH2 0x1AC6 PUSH2 0x1A70 JUMP JUMPDEST JUMPDEST DUP1 PUSH1 0x40 MSTORE POP POP POP JUMP JUMPDEST PUSH1 0x0 PUSH2 0x1ADA PUSH2 0x18E5 JUMP JUMPDEST SWAP1 POP PUSH2 0x1AE6 DUP3 DUP3 PUSH2 0x1A9F JUMP JUMPDEST SWAP2 SWAP1 POP JUMP JUMPDEST PUSH1 0x0 PUSH8 0xFFFFFFFFFFFFFFFF DUP3 GT ISZERO PUSH2 0x1B06 JUMPI PUSH2 0x1B05 PUSH2 0x1A70 JUMP JUMPDEST JUMPDEST PUSH2 0x1B0F DUP3 PUSH2 0x19EC JUMP JUMPDEST SWAP1 POP PUSH1 0x20 DUP2 ADD SWAP1 POP SWAP2 SWAP1 POP JUMP JUMPDEST DUP3 DUP2 DUP4 CALLDATACOPY PUSH1 0x0 DUP4 DUP4 ADD MSTORE POP POP POP JUMP JUMPDEST PUSH1 0x0 PUSH2 0x1B3E PUSH2 0x1B39 DUP5 PUSH2 0x1AEB JUMP JUMPDEST PUSH2 0x1AD0 JUMP JUMPDEST SWAP1 POP DUP3 DUP2 MSTORE PUSH1 0x20 DUP2 ADD DUP5 DUP5 DUP5 ADD GT ISZERO PUSH2 0x1B5A JUMPI PUSH2 0x1B59 PUSH2 0x1A6B JUMP JUMPDEST JUMPDEST PUSH2 0x1B65 DUP5 DUP3 DUP6 PUSH2 0x1B1C JUMP JUMPDEST POP SWAP4 SWAP3 POP POP POP JUMP JUMPDEST PUSH1 0x0 DUP3 PUSH1 0x1F DUP4 ADD SLT PUSH2 0x1B82 JUMPI PUSH2 0x1B81 PUSH2 0x1A66 JUMP JUMPDEST JUMPDEST DUP2 CALLDATALOAD PUSH2 0x1B92 DUP5 DUP3 PUSH1 0x20 DUP7 ADD PUSH2 0x1B2B JUMP JUMPDEST SWAP2 POP POP SWAP3 SWAP2 POP POP JUMP JUMPDEST PUSH1 0x0 PUSH1 0x20 DUP3 DUP5 SUB SLT ISZERO PUSH2 0x1BB1 JUMPI PUSH2 0x1BB0 PUSH2 0x18EF JUMP JUMPDEST JUMPDEST PUSH1 0x0 DUP3 ADD CALLDATALOAD PUSH8 0xFFFFFFFFFFFFFFFF DUP2 GT ISZERO PUSH2 0x1BCF JUMPI PUSH2 0x1BCE PUSH2 0x18F4 JUMP JUMPDEST JUMPDEST PUSH2 0x1BDB DUP5 DUP3 DUP6 ADD PUSH2 0x1B6D JUMP JUMPDEST SWAP2 POP POP SWAP3 SWAP2 POP POP JUMP JUMPDEST PUSH2 0x1BED DUP2 PUSH2 0x1919 JUMP JUMPDEST DUP3 MSTORE POP POP JUMP JUMPDEST PUSH1 0x0 PUSH1 0x20 DUP3 ADD SWAP1 POP PUSH2 0x1C08 PUSH1 0x0 DUP4 ADD DUP5 PUSH2 0x1BE4 JUMP JUMPDEST SWAP3 SWAP2 POP POP JUMP JUMPDEST PUSH1 0x0 PUSH2 0x120 DUP3 ADD SWAP1 POP DUP2 DUP2 SUB PUSH1 0x0 DUP4 ADD MSTORE PUSH2 0x1C29 DUP2 DUP13 PUSH2 0x19FD JUMP JUMPDEST SWAP1 POP DUP2 DUP2 SUB PUSH1 0x20 DUP4 ADD MSTORE PUSH2 0x1C3D DUP2 DUP12 PUSH2 0x19FD JUMP JUMPDEST SWAP1 POP DUP2 DUP2 SUB PUSH1 0x40 DUP4 ADD MSTORE PUSH2 0x1C51 DUP2 DUP11 PUSH2 0x19FD JUMP JUMPDEST SWAP1 POP DUP2 DUP2 SUB PUSH1 0x60 DUP4 ADD MSTORE PUSH2 0x1C65 DUP2 DUP10 PUSH2 0x19FD JUMP JUMPDEST SWAP1 POP DUP2 DUP2 SUB PUSH1 0x80 DUP4 ADD MSTORE PUSH2 0x1C79 DUP2 DUP9 PUSH2 0x19FD JUMP JUMPDEST SWAP1 POP PUSH2 0x1C88 PUSH1 0xA0 DUP4 ADD DUP8 PUSH2 0x198E JUMP JUMPDEST DUP2 DUP2 SUB PUSH1 0xC0 DUP4 ADD MSTORE PUSH2 0x1C9A DUP2 DUP7 PUSH2 0x19FD JUMP JUMPDEST SWAP1 POP PUSH2 0x1CA9 PUSH1 0xE0 DUP4 ADD DUP6 PUSH2 0x198E JUMP JUMPDEST DUP2 DUP2 SUB PUSH2 0x100 DUP4 ADD MSTORE PUSH2 0x1CBC DUP2 DUP5 PUSH2 0x19FD JUMP JUMPDEST SWAP1 POP SWAP11 SWAP10 POP POP POP POP POP POP POP POP POP POP JUMP JUMPDEST PUSH2 0x1CD5 DUP2 PUSH2 0x1984 JUMP JUMPDEST DUP2 EQ PUSH2 0x1CE0 JUMPI PUSH1 0x0 DUP1 REVERT JUMPDEST POP JUMP JUMPDEST PUSH1 0x0 DUP2 CALLDATALOAD SWAP1 POP PUSH2 0x1CF2 DUP2 PUSH2 0x1CCC JUMP JUMPDEST SWAP3 SWAP2 POP POP JUMP JUMPDEST PUSH1 0x0 DUP1 PUSH1 0x0 DUP1 PUSH1 0x0 DUP1 PUSH1 0x0 DUP1 PUSH1 0x0 PUSH2 0x120 DUP11 DUP13 SUB SLT ISZERO PUSH2 0x1D1B JUMPI PUSH2 0x1D1A PUSH2 0x18EF JUMP JUMPDEST JUMPDEST PUSH1 0x0 DUP11 ADD CALLDATALOAD PUSH8 0xFFFFFFFFFFFFFFFF DUP2 GT ISZERO PUSH2 0x1D39 JUMPI PUSH2 0x1D38 PUSH2 0x18F4 JUMP JUMPDEST JUMPDEST PUSH2 0x1D45 DUP13 DUP3 DUP14 ADD PUSH2 0x1B6D JUMP JUMPDEST SWAP10 POP POP PUSH1 0x20 DUP11 ADD CALLDATALOAD PUSH8 0xFFFFFFFFFFFFFFFF DUP2 GT ISZERO PUSH2 0x1D66 JUMPI PUSH2 0x1D65 PUSH2 0x18F4 JUMP JUMPDEST JUMPDEST PUSH2 0x1D72 DUP13 DUP3 DUP14 ADD PUSH2 0x1B6D JUMP JUMPDEST SWAP9 POP POP PUSH1 0x40 DUP11 ADD CALLDATALOAD PUSH8 0xFFFFFFFFFFFFFFFF DUP2 GT ISZERO PUSH2 0x1D93 JUMPI PUSH2 0x1D92 PUSH2 0x18F4 JUMP JUMPDEST JUMPDEST PUSH2 0x1D9F DUP13 DUP3 DUP14 ADD PUSH2 0x1B6D JUMP JUMPDEST SWAP8 POP POP PUSH1 0x60 DUP11 ADD CALLDATALOAD PUSH8 0xFFFFFFFFFFFFFFFF DUP2 GT ISZERO PUSH2 0x1DC0 JUMPI PUSH2 0x1DBF PUSH2 0x18F4 JUMP JUMPDEST JUMPDEST PUSH2 0x1DCC DUP13 DUP3 DUP14 ADD PUSH2 0x1B6D JUMP JUMPDEST SWAP7 POP POP PUSH1 0x80 DUP11 ADD CALLDATALOAD PUSH8 0xFFFFFFFFFFFFFFFF DUP2 GT ISZERO PUSH2 0x1DED JUMPI PUSH2 0x1DEC PUSH2 0x18F4 JUMP JUMPDEST JUMPDEST PUSH2 0x1DF9 DUP13 DUP3 DUP14 ADD PUSH2 0x1B6D JUMP JUMPDEST SWAP6 POP POP PUSH1 0xA0 PUSH2 0x1E0A DUP13 DUP3 DUP14 ADD PUSH2 0x1CE3 JUMP JUMPDEST SWAP5 POP POP PUSH1 0xC0 DUP11 ADD CALLDATALOAD PUSH8 0xFFFFFFFFFFFFFFFF DUP2 GT ISZERO PUSH2 0x1E2B JUMPI PUSH2 0x1E2A PUSH2 0x18F4 JUMP JUMPDEST JUMPDEST PUSH2 0x1E37 DUP13 DUP3 DUP14 ADD PUSH2 0x1B6D JUMP JUMPDEST SWAP4 POP POP PUSH1 0xE0 PUSH2 0x1E48 DUP13 DUP3 DUP14 ADD PUSH2 0x1CE3 JUMP JUMPDEST SWAP3 POP POP PUSH2 0x100 DUP11 ADD CALLDATALOAD PUSH8 0xFFFFFFFFFFFFFFFF DUP2 GT ISZERO PUSH2 0x1E6A JUMPI PUSH2 0x1E69 PUSH2 0x18F4 JUMP JUMPDEST JUMPDEST PUSH2 0x1E76 DUP13 DUP3 DUP14 ADD PUSH2 0x1B6D JUMP JUMPDEST SWAP2 POP POP SWAP3 SWAP6 SWAP9 POP SWAP3 SWAP6 SWAP9 POP SWAP3 SWAP6 SWAP9 JUMP JUMPDEST PUSH1 0x0 PUSH1 0xE0 DUP3 ADD SWAP1 POP DUP2 DUP2 SUB PUSH1 0x0 DUP4 ADD MSTORE PUSH2 0x1EA0 DUP2 DUP11 PUSH2 0x19FD JUMP JUMPDEST SWAP1 POP DUP2 DUP2 SUB PUSH1 0x20 DUP4 ADD MSTORE PUSH2 0x1EB4 DUP2 DUP10 PUSH2 0x19FD JUMP JUMPDEST SWAP1 POP DUP2 DUP2 SUB PUSH1 0x40 DUP4 ADD MSTORE PUSH2 0x1EC8 DUP2 DUP9 PUSH2 0x19FD JUMP JUMPDEST SWAP1 POP DUP2 DUP2 SUB PUSH1 0x60 DUP4 ADD MSTORE PUSH2 0x1EDC DUP2 DUP8 PUSH2 0x19FD JUMP JUMPDEST SWAP1 POP DUP2 DUP2 SUB PUSH1 0x80 DUP4 ADD MSTORE PUSH2 0x1EF0 DUP2 DUP7 PUSH2 0x19FD JUMP JUMPDEST SWAP1 POP PUSH2 0x1EFF PUSH1 0xA0 DUP4 ADD DUP6 PUSH2 0x198E JUMP JUMPDEST DUP2 DUP2 SUB PUSH1 0xC0 DUP4 ADD MSTORE PUSH2 0x1F11 DUP2 DUP5 PUSH2 0x19FD JUMP JUMPDEST SWAP1 POP SWAP9 SWAP8 POP POP POP POP POP POP POP POP JUMP JUMPDEST PUSH32 0x4E487B7100000000000000000000000000000000000000000000000000000000 PUSH1 0x0 MSTORE PUSH1 0x22 PUSH1 0x4 MSTORE PUSH1 0x24 PUSH1 0x0 REVERT JUMPDEST PUSH1 0x0 PUSH1 0x2 DUP3 DIV SWAP1 POP PUSH1 0x1 DUP3 AND DUP1 PUSH2 0x1F66 JUMPI PUSH1 0x7F DUP3 AND SWAP2 POP JUMPDEST PUSH1 0x20 DUP3 LT DUP2 EQ ISZERO PUSH2 0x1F7A JUMPI PUSH2 0x1F79 PUSH2 0x1F1F JUMP JUMPDEST JUMPDEST POP SWAP2 SWAP1 POP JUMP INVALID LOG2 PUSH5 0x6970667358 0x22 SLT KECCAK256 EXTCODESIZE 0xE3 AND 0x26 0xE3 CALLDATACOPY 0xD4 GASPRICE 0x4E 0x49 PUSH11 0x4ED05F480B96A53144B8AF 0xC 0xD6 PUSH17 0xF29B7DA9A0B7BF64736F6C634300080B00 CALLER "},"gasEstimates":{"creation":{"codeDepositCost":"1623600","executionCost":"infinite","totalCost":"infinite"},"external":{"addUser(string,string,string,string,string,uint256,string,uint256,string)":"infinite","approveRequest(address)":"55571","assigned()":"2536","createRequest(string)":"infinite","getAadharPan(address)":"infinite","getDeployedUsers()":"2566","getUserDetails()":"infinite","getparticularUser(address)":"infinite","manager()":"2581","usersAddress()":"2599"}},"methodIdentifiers":{"addUser(string,string,string,string,string,uint256,string,uint256,string)":"a5c9f7ad","approveRequest(address)":"061dff9a","assigned()":"adb4d990","createRequest(string)":"1b146ecf","getAadharPan(address)":"091bac16","getDeployedUsers()":"ea00962f","getUserDetails()":"942886be","getparticularUser(address)":"ede3a670","manager()":"481c6a75","usersAddress()":"f203c19d"}},"storageLayout":{"storage":[{"astId":130,"contract":"KYC.sol:Userdef","label":"usersAddress","offset":0,"slot":"0","type":"t_address"},{"astId":135,"contract":"KYC.sol:Userdef","label":"users","offset":0,"slot":"1","type":"t_mapping(t_address,t_struct(User)128_storage)"},{"astId":137,"contract":"KYC.sol:Userdef","label":"manager","offset":0,"slot":"2","type":"t_address"},{"astId":139,"contract":"KYC.sol:Userdef","label":"assigned","offset":0,"slot":"3","type":"t_address"},{"astId":458,"contract":"KYC.sol:Userdef","label":"requests","offset":0,"slot":"4","type":"t_struct(Request)455_storage"}],"types":{"t_address":{"encoding":"inplace","label":"address","numberOfBytes":"20"},"t_bool":{"encoding":"inplace","label":"bool","numberOfBytes":"1"},"t_mapping(t_address,t_struct(User)128_storage)":{"encoding":"mapping","key":"t_address","label":"mapping(address => struct Userdef.User)","numberOfBytes":"32","value":"t_struct(User)128_storage"},"t_string_storage":{"encoding":"bytes","label":"string","numberOfBytes":"32"},"t_struct(Request)455_storage":{"encoding":"inplace","label":"struct Userdef.Request","members":[{"astId":450,"contract":"KYC.sol:Userdef","label":"description","offset":0,"slot":"0","type":"t_string_storage"},{"astId":452,"contract":"KYC.sol:Userdef","label":"recepient","offset":0,"slot":"1","type":"t_address"},{"astId":454,"contract":"KYC.sol:Userdef","label":"complete","offset":20,"slot":"1","type":"t_bool"}],"numberOfBytes":"64"},"t_struct(User)128_storage":{"encoding":"inplace","label":"struct Userdef.User","members":[{"astId":109,"contract":"KYC.sol:Userdef","label":"name","offset":0,"slot":"0","type":"t_string_storage"},{"astId":111,"contract":"KYC.sol:Userdef","label":"father","offset":0,"slot":"1","type":"t_string_storage"},{"astId":113,"contract":"KYC.sol:Userdef","label":"mother","offset":0,"slot":"2","type":"t_string_storage"},{"astId":115,"contract":"KYC.sol:Userdef","label":"birthdate","offset":0,"slot":"3","type":"t_string_storage"},{"astId":117,"contract":"KYC.sol:Userdef","label":"add","offset":0,"slot":"4","type":"t_string_storage"},{"astId":119,"contract":"KYC.sol:Userdef","label":"mob","offset":0,"slot":"5","type":"t_uint256"},{"astId":121,"contract":"KYC.sol:Userdef","label":"email","offset":0,"slot":"6","type":"t_string_storage"},{"astId":123,"contract":"KYC.sol:Userdef","label":"aadhar","offset":0,"slot":"7","type":"t_uint256"},{"astId":125,"contract":"KYC.sol:Userdef","label":"pan","offset":0,"slot":"8","type":"t_string_storage"},{"astId":127,"contract":"KYC.sol:Userdef","label":"set","offset":0,"slot":"9","type":"t_bool"}],"numberOfBytes":"320"},"t_uint256":{"encoding":"inplace","label":"uint256","numberOfBytes":"32"}}},"userdoc":{"kind":"user","methods":{},"version":1}}