{"abi":[{"inputs":[{"internalType":"address","name":"creator","type":"address"}],"stateMutability":"nonpayable","type":"constructor"},{"inputs":[{"internalType":"string","name":"n","type":"string"},{"internalType":"string","name":"f","type":"string"},{"internalType":"string","name":"m","type":"string"},{"internalType":"string","name":"d","type":"string"},{"internalType":"string","name":"ad","type":"string"},{"internalType":"uint256","name":"mo","type":"uint256"},{"internalType":"string","name":"e","type":"string"},{"internalType":"uint256","name":"aadhar","type":"uint256"},{"internalType":"string","name":"pan","type":"string"},{"internalType":"string","name":"ah","type":"string"},{"internalType":"string","name":"ph","type":"string"}],"name":"addUser","outputs":[],"stateMutability":"nonpayable","type":"function"},{"inputs":[{"internalType":"address","name":"rer","type":"address"}],"name":"approveRequest","outputs":[],"stateMutability":"nonpayable","type":"function"},{"inputs":[],"name":"assigned","outputs":[{"internalType":"address","name":"","type":"address"}],"stateMutability":"view","type":"function"},{"inputs":[{"internalType":"string","name":"describe","type":"string"}],"name":"createRequest","outputs":[],"stateMutability":"nonpayable","type":"function"},{"inputs":[{"internalType":"address","name":"rer","type":"address"}],"name":"getAadharPan","outputs":[{"internalType":"uint256","name":"","type":"uint256"},{"internalType":"string","name":"","type":"string"}],"stateMutability":"view","type":"function"},{"inputs":[{"internalType":"address","name":"rer","type":"address"}],"name":"getAadharPanHash","outputs":[{"internalType":"string","name":"","type":"string"},{"internalType":"string","name":"","type":"string"}],"stateMutability":"view","type":"function"},{"inputs":[],"name":"getDeployedUsers","outputs":[{"internalType":"address","name":"","type":"address"}],"stateMutability":"view","type":"function"},{"inputs":[],"name":"getUserDetails","outputs":[{"internalType":"string","name":"","type":"string"},{"internalType":"string","name":"","type":"string"},{"internalType":"string","name":"","type":"string"},{"internalType":"string","name":"","type":"string"},{"internalType":"string","name":"","type":"string"},{"internalType":"uint256","name":"","type":"uint256"},{"internalType":"string","name":"","type":"string"},{"internalType":"uint256","name":"","type":"uint256"},{"internalType":"string","name":"","type":"string"}],"stateMutability":"view","type":"function"},{"inputs":[{"internalType":"address","name":"rer","type":"address"}],"name":"getparticularUser","outputs":[{"internalType":"string","name":"","type":"string"},{"internalType":"string","name":"","type":"string"},{"internalType":"string","name":"","type":"string"},{"internalType":"string","name":"","type":"string"},{"internalType":"string","name":"","type":"string"},{"internalType":"uint256","name":"","type":"uint256"},{"internalType":"string","name":"","type":"string"}],"stateMutability":"view","type":"function"},{"inputs":[],"name":"manager","outputs":[{"internalType":"address","name":"","type":"address"}],"stateMutability":"view","type":"function"},{"inputs":[],"name":"usersAddress","outputs":[{"internalType":"address","name":"","type":"address"}],"stateMutability":"view","type":"function"}],"devdoc":{"kind":"dev","methods":{},"version":1},"evm":{"assembly":"    /* \"KYC.sol\":1079:4708  contract Userdef{... */\n  mstore(0x40, 0x80)\n    /* \"KYC.sol\":1768:1891  constructor(address creator){... */\n  callvalue\n  dup1\n  iszero\n  tag_1\n  jumpi\n  0x00\n  dup1\n  revert\ntag_1:\n  pop\n  mload(0x40)\n  sub(codesize, bytecodeSize)\n  dup1\n  bytecodeSize\n  dup4\n  codecopy\n  dup2\n  dup2\n  add\n  0x40\n  mstore\n  dup2\n  add\n  swap1\n  tag_2\n  swap2\n  swap1\n  tag_3\n  jump\t// in\ntag_2:\n    /* \"KYC.sol\":1817:1824  creator */\n  dup1\n    /* \"KYC.sol\":1807:1814  manager */\n  0x02\n  0x00\n    /* \"KYC.sol\":1807:1824  manager = creator */\n  0x0100\n  exp\n  dup2\n  sload\n  dup2\n  0xffffffffffffffffffffffffffffffffffffffff\n  mul\n  not\n  and\n  swap1\n  dup4\n  0xffffffffffffffffffffffffffffffffffffffff\n  and\n  mul\n  or\n  swap1\n  sstore\n  pop\n    /* \"KYC.sol\":1768:1891  constructor(address creator){... */\n  pop\n    /* \"KYC.sol\":1079:4708  contract Userdef{... */\n  jump(tag_6)\n    /* \"#utility.yul\":88:205   */\ntag_8:\n    /* \"#utility.yul\":197:198   */\n  0x00\n    /* \"#utility.yul\":194:195   */\n  dup1\n    /* \"#utility.yul\":187:199   */\n  revert\n    /* \"#utility.yul\":334:460   */\ntag_10:\n    /* \"#utility.yul\":371:378   */\n  0x00\n    /* \"#utility.yul\":411:453   */\n  0xffffffffffffffffffffffffffffffffffffffff\n    /* \"#utility.yul\":404:409   */\n  dup3\n    /* \"#utility.yul\":400:454   */\n  and\n    /* \"#utility.yul\":389:454   */\n  swap1\n  pop\n    /* \"#utility.yul\":334:460   */\n  swap2\n  swap1\n  pop\n  jump\t// out\n    /* \"#utility.yul\":466:562   */\ntag_11:\n    /* \"#utility.yul\":503:510   */\n  0x00\n    /* \"#utility.yul\":532:556   */\n  tag_20\n    /* \"#utility.yul\":550:555   */\n  dup3\n    /* \"#utility.yul\":532:556   */\n  tag_10\n  jump\t// in\ntag_20:\n    /* \"#utility.yul\":521:556   */\n  swap1\n  pop\n    /* \"#utility.yul\":466:562   */\n  swap2\n  swap1\n  pop\n  jump\t// out\n    /* \"#utility.yul\":568:690   */\ntag_12:\n    /* \"#utility.yul\":641:665   */\n  tag_22\n    /* \"#utility.yul\":659:664   */\n  dup2\n    /* \"#utility.yul\":641:665   */\n  tag_11\n  jump\t// in\ntag_22:\n    /* \"#utility.yul\":634:639   */\n  dup2\n    /* \"#utility.yul\":631:666   */\n  eq\n    /* \"#utility.yul\":621:684   */\n  tag_23\n  jumpi\n    /* \"#utility.yul\":680:681   */\n  0x00\n    /* \"#utility.yul\":677:678   */\n  dup1\n    /* \"#utility.yul\":670:682   */\n  revert\n    /* \"#utility.yul\":621:684   */\ntag_23:\n    /* \"#utility.yul\":568:690   */\n  pop\n  jump\t// out\n    /* \"#utility.yul\":696:839   */\ntag_13:\n    /* \"#utility.yul\":753:758   */\n  0x00\n    /* \"#utility.yul\":784:790   */\n  dup2\n    /* \"#utility.yul\":778:791   */\n  mload\n    /* \"#utility.yul\":769:791   */\n  swap1\n  pop\n    /* \"#utility.yul\":800:833   */\n  tag_25\n    /* \"#utility.yul\":827:832   */\n  dup2\n    /* \"#utility.yul\":800:833   */\n  tag_12\n  jump\t// in\ntag_25:\n    /* \"#utility.yul\":696:839   */\n  swap3\n  swap2\n  pop\n  pop\n  jump\t// out\n    /* \"#utility.yul\":845:1196   */\ntag_3:\n    /* \"#utility.yul\":915:921   */\n  0x00\n    /* \"#utility.yul\":964:966   */\n  0x20\n    /* \"#utility.yul\":952:961   */\n  dup3\n    /* \"#utility.yul\":943:950   */\n  dup5\n    /* \"#utility.yul\":939:962   */\n  sub\n    /* \"#utility.yul\":935:967   */\n  slt\n    /* \"#utility.yul\":932:1051   */\n  iszero\n  tag_27\n  jumpi\n    /* \"#utility.yul\":970:1049   */\n  tag_28\n  tag_8\n  jump\t// in\ntag_28:\n    /* \"#utility.yul\":932:1051   */\ntag_27:\n    /* \"#utility.yul\":1090:1091   */\n  0x00\n    /* \"#utility.yul\":1115:1179   */\n  tag_29\n    /* \"#utility.yul\":1171:1178   */\n  dup5\n    /* \"#utility.yul\":1162:1168   */\n  dup3\n    /* \"#utility.yul\":1151:1160   */\n  dup6\n    /* \"#utility.yul\":1147:1169   */\n  add\n    /* \"#utility.yul\":1115:1179   */\n  tag_13\n  jump\t// in\ntag_29:\n    /* \"#utility.yul\":1105:1179   */\n  swap2\n  pop\n    /* \"#utility.yul\":1061:1189   */\n  pop\n    /* \"#utility.yul\":845:1196   */\n  swap3\n  swap2\n  pop\n  pop\n  jump\t// out\n    /* \"KYC.sol\":1079:4708  contract Userdef{... */\ntag_6:\n  dataSize(sub_0)\n  dup1\n  dataOffset(sub_0)\n  0x00\n  codecopy\n  0x00\n  return\nstop\n\nsub_0: assembly {\n        /* \"KYC.sol\":1079:4708  contract Userdef{... */\n      mstore(0x40, 0x80)\n      callvalue\n      dup1\n      iszero\n      tag_1\n      jumpi\n      0x00\n      dup1\n      revert\n    tag_1:\n      pop\n      jumpi(tag_2, lt(calldatasize, 0x04))\n      shr(0xe0, calldataload(0x00))\n      dup1\n      0x509fda0e\n      gt\n      tag_14\n      jumpi\n      dup1\n      0x509fda0e\n      eq\n      tag_8\n      jumpi\n      dup1\n      0x942886be\n      eq\n      tag_9\n      jumpi\n      dup1\n      0xadb4d990\n      eq\n      tag_10\n      jumpi\n      dup1\n      0xea00962f\n      eq\n      tag_11\n      jumpi\n      dup1\n      0xede3a670\n      eq\n      tag_12\n      jumpi\n      dup1\n      0xf203c19d\n      eq\n      tag_13\n      jumpi\n      jump(tag_2)\n    tag_14:\n      dup1\n      0x061dff9a\n      eq\n      tag_3\n      jumpi\n      dup1\n      0x091bac16\n      eq\n      tag_4\n      jumpi\n      dup1\n      0x1b146ecf\n      eq\n      tag_5\n      jumpi\n      dup1\n      0x2ee50a79\n      eq\n      tag_6\n      jumpi\n      dup1\n      0x481c6a75\n      eq\n      tag_7\n      jumpi\n    tag_2:\n      0x00\n      dup1\n      revert\n        /* \"KYC.sol\":4505:4703  function approveRequest(address rer) public{... */\n    tag_3:\n      tag_15\n      0x04\n      dup1\n      calldatasize\n      sub\n      dup2\n      add\n      swap1\n      tag_16\n      swap2\n      swap1\n      tag_17\n      jump\t// in\n    tag_16:\n      tag_18\n      jump\t// in\n    tag_15:\n      stop\n        /* \"KYC.sol\":3169:3376  function getAadharPan(address rer) public view... */\n    tag_4:\n      tag_19\n      0x04\n      dup1\n      calldatasize\n      sub\n      dup2\n      add\n      swap1\n      tag_20\n      swap2\n      swap1\n      tag_17\n      jump\t// in\n    tag_20:\n      tag_21\n      jump\t// in\n    tag_19:\n      mload(0x40)\n      tag_22\n      swap3\n      swap2\n      swap1\n      tag_23\n      jump\t// in\n    tag_22:\n      mload(0x40)\n      dup1\n      swap2\n      sub\n      swap1\n      return\n        /* \"KYC.sol\":4132:4497  function createRequest(string memory describe) public{... */\n    tag_5:\n      tag_24\n      0x04\n      dup1\n      calldatasize\n      sub\n      dup2\n      add\n      swap1\n      tag_25\n      swap2\n      swap1\n      tag_26\n      jump\t// in\n    tag_25:\n      tag_27\n      jump\t// in\n    tag_24:\n      stop\n        /* \"KYC.sol\":1899:2654  function addUser(string memory n, string memory f, string memory m, string memory d, string memory ad, uint mo,string memory e,uint aadhar,string memory pan,string memory ah,string memory ph) ... */\n    tag_6:\n      tag_28\n      0x04\n      dup1\n      calldatasize\n      sub\n      dup2\n      add\n      swap1\n      tag_29\n      swap2\n      swap1\n      tag_30\n      jump\t// in\n    tag_29:\n      tag_31\n      jump\t// in\n    tag_28:\n      stop\n        /* \"KYC.sol\":1493:1515  address public manager */\n    tag_7:\n      tag_32\n      tag_33\n      jump\t// in\n    tag_32:\n      mload(0x40)\n      tag_34\n      swap2\n      swap1\n      tag_35\n      jump\t// in\n    tag_34:\n      mload(0x40)\n      dup1\n      swap2\n      sub\n      swap1\n      return\n        /* \"KYC.sol\":3384:3586  function getAadharPanHash(address rer) public view... */\n    tag_8:\n      tag_36\n      0x04\n      dup1\n      calldatasize\n      sub\n      dup2\n      add\n      swap1\n      tag_37\n      swap2\n      swap1\n      tag_17\n      jump\t// in\n    tag_37:\n      tag_38\n      jump\t// in\n    tag_36:\n      mload(0x40)\n      tag_39\n      swap3\n      swap2\n      swap1\n      tag_40\n      jump\t// in\n    tag_39:\n      mload(0x40)\n      dup1\n      swap2\n      sub\n      swap1\n      return\n        /* \"KYC.sol\":3594:3990  function getUserDetails() public view agentRestricted... */\n    tag_9:\n      tag_41\n      tag_42\n      jump\t// in\n    tag_41:\n      mload(0x40)\n      tag_43\n      swap10\n      swap9\n      swap8\n      swap7\n      swap6\n      swap5\n      swap4\n      swap3\n      swap2\n      swap1\n      tag_44\n      jump\t// in\n    tag_43:\n      mload(0x40)\n      dup1\n      swap2\n      sub\n      swap1\n      return\n        /* \"KYC.sol\":1546:1569  address public assigned */\n    tag_10:\n      tag_45\n      tag_46\n      jump\t// in\n    tag_45:\n      mload(0x40)\n      tag_47\n      swap2\n      swap1\n      tag_35\n      jump\t// in\n    tag_47:\n      mload(0x40)\n      dup1\n      swap2\n      sub\n      swap1\n      return\n        /* \"KYC.sol\":2664:2759  function getDeployedUsers() public view returns(address) {... */\n    tag_11:\n      tag_48\n      tag_49\n      jump\t// in\n    tag_48:\n      mload(0x40)\n      tag_50\n      swap2\n      swap1\n      tag_35\n      jump\t// in\n    tag_50:\n      mload(0x40)\n      dup1\n      swap2\n      sub\n      swap1\n      return\n        /* \"KYC.sol\":2787:3161  function getparticularUser(address rer) public view... */\n    tag_12:\n      tag_51\n      0x04\n      dup1\n      calldatasize\n      sub\n      dup2\n      add\n      swap1\n      tag_52\n      swap2\n      swap1\n      tag_17\n      jump\t// in\n    tag_52:\n      tag_53\n      jump\t// in\n    tag_51:\n      mload(0x40)\n      tag_54\n      swap8\n      swap7\n      swap6\n      swap5\n      swap4\n      swap3\n      swap2\n      swap1\n      tag_55\n      jump\t// in\n    tag_54:\n      mload(0x40)\n      dup1\n      swap2\n      sub\n      swap1\n      return\n        /* \"KYC.sol\":1422:1449  address public usersAddress */\n    tag_13:\n      tag_56\n      tag_57\n      jump\t// in\n    tag_56:\n      mload(0x40)\n      tag_58\n      swap2\n      swap1\n      tag_35\n      jump\t// in\n    tag_58:\n      mload(0x40)\n      dup1\n      swap2\n      sub\n      swap1\n      return\n        /* \"KYC.sol\":4505:4703  function approveRequest(address rer) public{... */\n    tag_18:\n        /* \"KYC.sol\":4574:4581  manager */\n      0x02\n      0x00\n      swap1\n      sload\n      swap1\n      0x0100\n      exp\n      swap1\n      div\n      0xffffffffffffffffffffffffffffffffffffffff\n      and\n        /* \"KYC.sol\":4567:4581  rer == manager */\n      0xffffffffffffffffffffffffffffffffffffffff\n      and\n        /* \"KYC.sol\":4567:4570  rer */\n      dup2\n        /* \"KYC.sol\":4567:4581  rer == manager */\n      0xffffffffffffffffffffffffffffffffffffffff\n      and\n      eq\n        /* \"KYC.sol\":4559:4582  require(rer == manager) */\n      tag_60\n      jumpi\n      0x00\n      dup1\n      revert\n    tag_60:\n        /* \"KYC.sol\":4602:4610  requests */\n      0x04\n        /* \"KYC.sol\":4602:4619  requests.complete */\n      0x01\n      add\n      0x14\n      swap1\n      sload\n      swap1\n      0x0100\n      exp\n      swap1\n      div\n      0xff\n      and\n        /* \"KYC.sol\":4601:4619  !requests.complete */\n      iszero\n        /* \"KYC.sol\":4593:4620  require(!requests.complete) */\n      tag_61\n      jumpi\n      0x00\n      dup1\n      revert\n    tag_61:\n        /* \"KYC.sol\":4642:4650  requests */\n      0x04\n        /* \"KYC.sol\":4642:4660  requests.recepient */\n      0x01\n      add\n      0x00\n      swap1\n      sload\n      swap1\n      0x0100\n      exp\n      swap1\n      div\n      0xffffffffffffffffffffffffffffffffffffffff\n      and\n        /* \"KYC.sol\":4631:4639  assigned */\n      0x03\n      0x00\n        /* \"KYC.sol\":4631:4660  assigned = requests.recepient */\n      0x0100\n      exp\n      dup2\n      sload\n      dup2\n      0xffffffffffffffffffffffffffffffffffffffff\n      mul\n      not\n      and\n      swap1\n      dup4\n      0xffffffffffffffffffffffffffffffffffffffff\n      and\n      mul\n      or\n      swap1\n      sstore\n      pop\n        /* \"KYC.sol\":4691:4695  true */\n      0x01\n        /* \"KYC.sol\":4671:4679  requests */\n      0x04\n        /* \"KYC.sol\":4671:4688  requests.complete */\n      0x01\n      add\n      0x14\n        /* \"KYC.sol\":4671:4695  requests.complete = true */\n      0x0100\n      exp\n      dup2\n      sload\n      dup2\n      0xff\n      mul\n      not\n      and\n      swap1\n      dup4\n      iszero\n      iszero\n      mul\n      or\n      swap1\n      sstore\n      pop\n        /* \"KYC.sol\":4505:4703  function approveRequest(address rer) public{... */\n      pop\n      jump\t// out\n        /* \"KYC.sol\":3169:3376  function getAadharPan(address rer) public view... */\n    tag_21:\n        /* \"KYC.sol\":3229:3233  uint */\n      0x00\n        /* \"KYC.sol\":3234:3247  string memory */\n      0x60\n        /* \"KYC.sol\":3267:3272  users */\n      0x01\n        /* \"KYC.sol\":3267:3277  users[rer] */\n      0x00\n        /* \"KYC.sol\":3273:3276  rer */\n      dup5\n        /* \"KYC.sol\":3267:3277  users[rer] */\n      0xffffffffffffffffffffffffffffffffffffffff\n      and\n      0xffffffffffffffffffffffffffffffffffffffff\n      and\n      dup2\n      mstore\n      0x20\n      add\n      swap1\n      dup2\n      mstore\n      0x20\n      add\n      0x00\n      keccak256\n        /* \"KYC.sol\":3267:3281  users[rer].set */\n      0x09\n      add\n      0x00\n      swap1\n      sload\n      swap1\n      0x0100\n      exp\n      swap1\n      div\n      0xff\n      and\n        /* \"KYC.sol\":3259:3282  require(users[rer].set) */\n      tag_63\n      jumpi\n      0x00\n      dup1\n      revert\n    tag_63:\n        /* \"KYC.sol\":3308:3315  manager */\n      0x02\n      0x00\n      swap1\n      sload\n      swap1\n      0x0100\n      exp\n      swap1\n      div\n      0xffffffffffffffffffffffffffffffffffffffff\n      and\n        /* \"KYC.sol\":3301:3315  rer == manager */\n      0xffffffffffffffffffffffffffffffffffffffff\n      and\n        /* \"KYC.sol\":3301:3304  rer */\n      dup4\n        /* \"KYC.sol\":3301:3315  rer == manager */\n      0xffffffffffffffffffffffffffffffffffffffff\n      and\n      eq\n        /* \"KYC.sol\":3293:3316  require(rer == manager) */\n      tag_64\n      jumpi\n      0x00\n      dup1\n      revert\n    tag_64:\n        /* \"KYC.sol\":3335:3340  users */\n      0x01\n        /* \"KYC.sol\":3335:3345  users[rer] */\n      0x00\n        /* \"KYC.sol\":3341:3344  rer */\n      dup5\n        /* \"KYC.sol\":3335:3345  users[rer] */\n      0xffffffffffffffffffffffffffffffffffffffff\n      and\n      0xffffffffffffffffffffffffffffffffffffffff\n      and\n      dup2\n      mstore\n      0x20\n      add\n      swap1\n      dup2\n      mstore\n      0x20\n      add\n      0x00\n      keccak256\n        /* \"KYC.sol\":3335:3352  users[rer].aadhar */\n      0x07\n      add\n      sload\n        /* \"KYC.sol\":3353:3358  users */\n      0x01\n        /* \"KYC.sol\":3353:3363  users[rer] */\n      0x00\n        /* \"KYC.sol\":3359:3362  rer */\n      dup6\n        /* \"KYC.sol\":3353:3363  users[rer] */\n      0xffffffffffffffffffffffffffffffffffffffff\n      and\n      0xffffffffffffffffffffffffffffffffffffffff\n      and\n      dup2\n      mstore\n      0x20\n      add\n      swap1\n      dup2\n      mstore\n      0x20\n      add\n      0x00\n      keccak256\n        /* \"KYC.sol\":3353:3367  users[rer].pan */\n      0x08\n      add\n        /* \"KYC.sol\":3327:3368  return (users[rer].aadhar,users[rer].pan) */\n      dup1\n      dup1\n      sload\n      tag_65\n      swap1\n      tag_66\n      jump\t// in\n    tag_65:\n      dup1\n      0x1f\n      add\n      0x20\n      dup1\n      swap2\n      div\n      mul\n      0x20\n      add\n      mload(0x40)\n      swap1\n      dup2\n      add\n      0x40\n      mstore\n      dup1\n      swap3\n      swap2\n      swap1\n      dup2\n      dup2\n      mstore\n      0x20\n      add\n      dup3\n      dup1\n      sload\n      tag_67\n      swap1\n      tag_66\n      jump\t// in\n    tag_67:\n      dup1\n      iszero\n      tag_68\n      jumpi\n      dup1\n      0x1f\n      lt\n      tag_69\n      jumpi\n      0x0100\n      dup1\n      dup4\n      sload\n      div\n      mul\n      dup4\n      mstore\n      swap2\n      0x20\n      add\n      swap2\n      jump(tag_68)\n    tag_69:\n      dup3\n      add\n      swap2\n      swap1\n      0x00\n      mstore\n      keccak256(0x00, 0x20)\n      swap1\n    tag_70:\n      dup2\n      sload\n      dup2\n      mstore\n      swap1\n      0x01\n      add\n      swap1\n      0x20\n      add\n      dup1\n      dup4\n      gt\n      tag_70\n      jumpi\n      dup3\n      swap1\n      sub\n      0x1f\n      and\n      dup3\n      add\n      swap2\n    tag_68:\n      pop\n      pop\n      pop\n      pop\n      pop\n      swap1\n      pop\n      swap2\n      pop\n      swap2\n      pop\n        /* \"KYC.sol\":3169:3376  function getAadharPan(address rer) public view... */\n      swap2\n      pop\n      swap2\n      jump\t// out\n        /* \"KYC.sol\":4132:4497  function createRequest(string memory describe) public{... */\n    tag_27:\n        /* \"KYC.sol\":4207:4489  Request({                    // Agent will create a request for accessing documents of user/manager.... */\n      mload(0x40)\n      dup1\n      0x60\n      add\n      0x40\n      mstore\n      dup1\n        /* \"KYC.sol\":4334:4342  describe */\n      dup3\n        /* \"KYC.sol\":4207:4489  Request({                    // Agent will create a request for accessing documents of user/manager.... */\n      dup2\n      mstore\n      0x20\n      add\n        /* \"KYC.sol\":4368:4378  msg.sender */\n      caller\n        /* \"KYC.sol\":4207:4489  Request({                    // Agent will create a request for accessing documents of user/manager.... */\n      0xffffffffffffffffffffffffffffffffffffffff\n      and\n      dup2\n      mstore\n      0x20\n      add\n        /* \"KYC.sol\":4472:4477  false */\n      0x00\n        /* \"KYC.sol\":4207:4489  Request({                    // Agent will create a request for accessing documents of user/manager.... */\n      iszero\n      iszero\n      dup2\n      mstore\n      pop\n        /* \"KYC.sol\":4196:4204  requests */\n      0x04\n        /* \"KYC.sol\":4196:4489  requests = Request({                    // Agent will create a request for accessing documents of user/manager.... */\n      0x00\n      dup3\n      add\n      mload\n      dup2\n      0x00\n      add\n      swap1\n      dup1\n      mload\n      swap1\n      0x20\n      add\n      swap1\n      tag_72\n      swap3\n      swap2\n      swap1\n      tag_73\n      jump\t// in\n    tag_72:\n      pop\n      0x20\n      dup3\n      add\n      mload\n      dup2\n      0x01\n      add\n      exp(0x0100, 0x00)\n      dup2\n      sload\n      dup2\n      0xffffffffffffffffffffffffffffffffffffffff\n      mul\n      not\n      and\n      swap1\n      dup4\n      0xffffffffffffffffffffffffffffffffffffffff\n      and\n      mul\n      or\n      swap1\n      sstore\n      pop\n      0x40\n      dup3\n      add\n      mload\n      dup2\n      0x01\n      add\n      exp(0x0100, 0x14)\n      dup2\n      sload\n      dup2\n      0xff\n      mul\n      not\n      and\n      swap1\n      dup4\n      iszero\n      iszero\n      mul\n      or\n      swap1\n      sstore\n      pop\n      swap1\n      pop\n      pop\n        /* \"KYC.sol\":4132:4497  function createRequest(string memory describe) public{... */\n      pop\n      jump\t// out\n        /* \"KYC.sol\":1899:2654  function addUser(string memory n, string memory f, string memory m, string memory d, string memory ad, uint mo,string memory e,uint aadhar,string memory pan,string memory ah,string memory ph) ... */\n    tag_31:\n        /* \"KYC.sol\":1636:1643  manager */\n      0x02\n      0x00\n      swap1\n      sload\n      swap1\n      0x0100\n      exp\n      swap1\n      div\n      0xffffffffffffffffffffffffffffffffffffffff\n      and\n        /* \"KYC.sol\":1622:1643  msg.sender == manager */\n      0xffffffffffffffffffffffffffffffffffffffff\n      and\n        /* \"KYC.sol\":1622:1632  msg.sender */\n      caller\n        /* \"KYC.sol\":1622:1643  msg.sender == manager */\n      0xffffffffffffffffffffffffffffffffffffffff\n      and\n      eq\n        /* \"KYC.sol\":1614:1644  require(msg.sender == manager) */\n      tag_75\n      jumpi\n      0x00\n      dup1\n      revert\n    tag_75:\n        /* \"KYC.sol\":2129:2142  address entry */\n      0x00\n        /* \"KYC.sol\":2145:2155  msg.sender */\n      caller\n        /* \"KYC.sol\":2129:2155  address entry = msg.sender */\n      swap1\n      pop\n        /* \"KYC.sol\":2175:2180  users */\n      0x01\n        /* \"KYC.sol\":2175:2187  users[entry] */\n      0x00\n        /* \"KYC.sol\":2181:2186  entry */\n      dup3\n        /* \"KYC.sol\":2175:2187  users[entry] */\n      0xffffffffffffffffffffffffffffffffffffffff\n      and\n      0xffffffffffffffffffffffffffffffffffffffff\n      and\n      dup2\n      mstore\n      0x20\n      add\n      swap1\n      dup2\n      mstore\n      0x20\n      add\n      0x00\n      keccak256\n        /* \"KYC.sol\":2175:2191  users[entry].set */\n      0x09\n      add\n      0x00\n      swap1\n      sload\n      swap1\n      0x0100\n      exp\n      swap1\n      div\n      0xff\n      and\n        /* \"KYC.sol\":2174:2191  !users[entry].set */\n      iszero\n        /* \"KYC.sol\":2166:2192  require(!users[entry].set) */\n      tag_77\n      jumpi\n      0x00\n      dup1\n      revert\n    tag_77:\n        /* \"KYC.sol\":2218:2223  entry */\n      dup1\n        /* \"KYC.sol\":2203:2215  usersAddress */\n      0x00\n      dup1\n        /* \"KYC.sol\":2203:2223  usersAddress = entry */\n      0x0100\n      exp\n      dup2\n      sload\n      dup2\n      0xffffffffffffffffffffffffffffffffffffffff\n      mul\n      not\n      and\n      swap1\n      dup4\n      0xffffffffffffffffffffffffffffffffffffffff\n      and\n      mul\n      or\n      swap1\n      sstore\n      pop\n        /* \"KYC.sol\":2254:2255  n */\n      dup12\n        /* \"KYC.sol\":2234:2239  users */\n      0x01\n        /* \"KYC.sol\":2234:2246  users[entry] */\n      0x00\n        /* \"KYC.sol\":2240:2245  entry */\n      dup4\n        /* \"KYC.sol\":2234:2246  users[entry] */\n      0xffffffffffffffffffffffffffffffffffffffff\n      and\n      0xffffffffffffffffffffffffffffffffffffffff\n      and\n      dup2\n      mstore\n      0x20\n      add\n      swap1\n      dup2\n      mstore\n      0x20\n      add\n      0x00\n      keccak256\n        /* \"KYC.sol\":2234:2251  users[entry].name */\n      0x00\n      add\n        /* \"KYC.sol\":2234:2255  users[entry].name = n */\n      swap1\n      dup1\n      mload\n      swap1\n      0x20\n      add\n      swap1\n      tag_78\n      swap3\n      swap2\n      swap1\n      tag_73\n      jump\t// in\n    tag_78:\n      pop\n        /* \"KYC.sol\":2288:2289  f */\n      dup11\n        /* \"KYC.sol\":2266:2271  users */\n      0x01\n        /* \"KYC.sol\":2266:2278  users[entry] */\n      0x00\n        /* \"KYC.sol\":2272:2277  entry */\n      dup4\n        /* \"KYC.sol\":2266:2278  users[entry] */\n      0xffffffffffffffffffffffffffffffffffffffff\n      and\n      0xffffffffffffffffffffffffffffffffffffffff\n      and\n      dup2\n      mstore\n      0x20\n      add\n      swap1\n      dup2\n      mstore\n      0x20\n      add\n      0x00\n      keccak256\n        /* \"KYC.sol\":2266:2285  users[entry].father */\n      0x01\n      add\n        /* \"KYC.sol\":2266:2289  users[entry].father = f */\n      swap1\n      dup1\n      mload\n      swap1\n      0x20\n      add\n      swap1\n      tag_79\n      swap3\n      swap2\n      swap1\n      tag_73\n      jump\t// in\n    tag_79:\n      pop\n        /* \"KYC.sol\":2322:2323  m */\n      dup10\n        /* \"KYC.sol\":2300:2305  users */\n      0x01\n        /* \"KYC.sol\":2300:2312  users[entry] */\n      0x00\n        /* \"KYC.sol\":2306:2311  entry */\n      dup4\n        /* \"KYC.sol\":2300:2312  users[entry] */\n      0xffffffffffffffffffffffffffffffffffffffff\n      and\n      0xffffffffffffffffffffffffffffffffffffffff\n      and\n      dup2\n      mstore\n      0x20\n      add\n      swap1\n      dup2\n      mstore\n      0x20\n      add\n      0x00\n      keccak256\n        /* \"KYC.sol\":2300:2319  users[entry].mother */\n      0x02\n      add\n        /* \"KYC.sol\":2300:2323  users[entry].mother = m */\n      swap1\n      dup1\n      mload\n      swap1\n      0x20\n      add\n      swap1\n      tag_80\n      swap3\n      swap2\n      swap1\n      tag_73\n      jump\t// in\n    tag_80:\n      pop\n        /* \"KYC.sol\":2359:2360  d */\n      dup9\n        /* \"KYC.sol\":2334:2339  users */\n      0x01\n        /* \"KYC.sol\":2334:2346  users[entry] */\n      0x00\n        /* \"KYC.sol\":2340:2345  entry */\n      dup4\n        /* \"KYC.sol\":2334:2346  users[entry] */\n      0xffffffffffffffffffffffffffffffffffffffff\n      and\n      0xffffffffffffffffffffffffffffffffffffffff\n      and\n      dup2\n      mstore\n      0x20\n      add\n      swap1\n      dup2\n      mstore\n      0x20\n      add\n      0x00\n      keccak256\n        /* \"KYC.sol\":2334:2356  users[entry].birthdate */\n      0x03\n      add\n        /* \"KYC.sol\":2334:2360  users[entry].birthdate = d */\n      swap1\n      dup1\n      mload\n      swap1\n      0x20\n      add\n      swap1\n      tag_81\n      swap3\n      swap2\n      swap1\n      tag_73\n      jump\t// in\n    tag_81:\n      pop\n        /* \"KYC.sol\":2390:2392  ad */\n      dup8\n        /* \"KYC.sol\":2371:2376  users */\n      0x01\n        /* \"KYC.sol\":2371:2383  users[entry] */\n      0x00\n        /* \"KYC.sol\":2377:2382  entry */\n      dup4\n        /* \"KYC.sol\":2371:2383  users[entry] */\n      0xffffffffffffffffffffffffffffffffffffffff\n      and\n      0xffffffffffffffffffffffffffffffffffffffff\n      and\n      dup2\n      mstore\n      0x20\n      add\n      swap1\n      dup2\n      mstore\n      0x20\n      add\n      0x00\n      keccak256\n        /* \"KYC.sol\":2371:2387  users[entry].add */\n      0x04\n      add\n        /* \"KYC.sol\":2371:2392  users[entry].add = ad */\n      swap1\n      dup1\n      mload\n      swap1\n      0x20\n      add\n      swap1\n      tag_82\n      swap3\n      swap2\n      swap1\n      tag_73\n      jump\t// in\n    tag_82:\n      pop\n        /* \"KYC.sol\":2422:2424  mo */\n      dup7\n        /* \"KYC.sol\":2403:2408  users */\n      0x01\n        /* \"KYC.sol\":2403:2415  users[entry] */\n      0x00\n        /* \"KYC.sol\":2409:2414  entry */\n      dup4\n        /* \"KYC.sol\":2403:2415  users[entry] */\n      0xffffffffffffffffffffffffffffffffffffffff\n      and\n      0xffffffffffffffffffffffffffffffffffffffff\n      and\n      dup2\n      mstore\n      0x20\n      add\n      swap1\n      dup2\n      mstore\n      0x20\n      add\n      0x00\n      keccak256\n        /* \"KYC.sol\":2403:2419  users[entry].mob */\n      0x05\n      add\n        /* \"KYC.sol\":2403:2424  users[entry].mob = mo */\n      dup2\n      swap1\n      sstore\n      pop\n        /* \"KYC.sol\":2456:2457  e */\n      dup6\n        /* \"KYC.sol\":2435:2440  users */\n      0x01\n        /* \"KYC.sol\":2435:2447  users[entry] */\n      0x00\n        /* \"KYC.sol\":2441:2446  entry */\n      dup4\n        /* \"KYC.sol\":2435:2447  users[entry] */\n      0xffffffffffffffffffffffffffffffffffffffff\n      and\n      0xffffffffffffffffffffffffffffffffffffffff\n      and\n      dup2\n      mstore\n      0x20\n      add\n      swap1\n      dup2\n      mstore\n      0x20\n      add\n      0x00\n      keccak256\n        /* \"KYC.sol\":2435:2453  users[entry].email */\n      0x06\n      add\n        /* \"KYC.sol\":2435:2457  users[entry].email = e */\n      swap1\n      dup1\n      mload\n      swap1\n      0x20\n      add\n      swap1\n      tag_83\n      swap3\n      swap2\n      swap1\n      tag_73\n      jump\t// in\n    tag_83:\n      pop\n        /* \"KYC.sol\":2490:2496  aadhar */\n      dup5\n        /* \"KYC.sol\":2468:2473  users */\n      0x01\n        /* \"KYC.sol\":2468:2480  users[entry] */\n      0x00\n        /* \"KYC.sol\":2474:2479  entry */\n      dup4\n        /* \"KYC.sol\":2468:2480  users[entry] */\n      0xffffffffffffffffffffffffffffffffffffffff\n      and\n      0xffffffffffffffffffffffffffffffffffffffff\n      and\n      dup2\n      mstore\n      0x20\n      add\n      swap1\n      dup2\n      mstore\n      0x20\n      add\n      0x00\n      keccak256\n        /* \"KYC.sol\":2468:2487  users[entry].aadhar */\n      0x07\n      add\n        /* \"KYC.sol\":2468:2496  users[entry].aadhar = aadhar */\n      dup2\n      swap1\n      sstore\n      pop\n        /* \"KYC.sol\":2526:2529  pan */\n      dup4\n        /* \"KYC.sol\":2507:2512  users */\n      0x01\n        /* \"KYC.sol\":2507:2519  users[entry] */\n      0x00\n        /* \"KYC.sol\":2513:2518  entry */\n      dup4\n        /* \"KYC.sol\":2507:2519  users[entry] */\n      0xffffffffffffffffffffffffffffffffffffffff\n      and\n      0xffffffffffffffffffffffffffffffffffffffff\n      and\n      dup2\n      mstore\n      0x20\n      add\n      swap1\n      dup2\n      mstore\n      0x20\n      add\n      0x00\n      keccak256\n        /* \"KYC.sol\":2507:2523  users[entry].pan */\n      0x08\n      add\n        /* \"KYC.sol\":2507:2529  users[entry].pan = pan */\n      swap1\n      dup1\n      mload\n      swap1\n      0x20\n      add\n      swap1\n      tag_84\n      swap3\n      swap2\n      swap1\n      tag_73\n      jump\t// in\n    tag_84:\n      pop\n        /* \"KYC.sol\":2570:2572  ah */\n      dup3\n        /* \"KYC.sol\":2540:2545  users */\n      0x01\n        /* \"KYC.sol\":2540:2552  users[entry] */\n      0x00\n        /* \"KYC.sol\":2546:2551  entry */\n      dup4\n        /* \"KYC.sol\":2540:2552  users[entry] */\n      0xffffffffffffffffffffffffffffffffffffffff\n      and\n      0xffffffffffffffffffffffffffffffffffffffff\n      and\n      dup2\n      mstore\n      0x20\n      add\n      swap1\n      dup2\n      mstore\n      0x20\n      add\n      0x00\n      keccak256\n        /* \"KYC.sol\":2540:2567  users[entry].aadharipfsHash */\n      0x0a\n      add\n        /* \"KYC.sol\":2540:2572  users[entry].aadharipfsHash = ah */\n      swap1\n      dup1\n      mload\n      swap1\n      0x20\n      add\n      swap1\n      tag_85\n      swap3\n      swap2\n      swap1\n      tag_73\n      jump\t// in\n    tag_85:\n      pop\n        /* \"KYC.sol\":2610:2612  ph */\n      dup2\n        /* \"KYC.sol\":2583:2588  users */\n      0x01\n        /* \"KYC.sol\":2583:2595  users[entry] */\n      0x00\n        /* \"KYC.sol\":2589:2594  entry */\n      dup4\n        /* \"KYC.sol\":2583:2595  users[entry] */\n      0xffffffffffffffffffffffffffffffffffffffff\n      and\n      0xffffffffffffffffffffffffffffffffffffffff\n      and\n      dup2\n      mstore\n      0x20\n      add\n      swap1\n      dup2\n      mstore\n      0x20\n      add\n      0x00\n      keccak256\n        /* \"KYC.sol\":2583:2607  users[entry].panipfsHash */\n      0x0b\n      add\n        /* \"KYC.sol\":2583:2612  users[entry].panipfsHash = ph */\n      swap1\n      dup1\n      mload\n      swap1\n      0x20\n      add\n      swap1\n      tag_86\n      swap3\n      swap2\n      swap1\n      tag_73\n      jump\t// in\n    tag_86:\n      pop\n        /* \"KYC.sol\":2642:2646  true */\n      0x01\n        /* \"KYC.sol\":2623:2628  users */\n      dup1\n        /* \"KYC.sol\":2623:2635  users[entry] */\n      0x00\n        /* \"KYC.sol\":2629:2634  entry */\n      dup4\n        /* \"KYC.sol\":2623:2635  users[entry] */\n      0xffffffffffffffffffffffffffffffffffffffff\n      and\n      0xffffffffffffffffffffffffffffffffffffffff\n      and\n      dup2\n      mstore\n      0x20\n      add\n      swap1\n      dup2\n      mstore\n      0x20\n      add\n      0x00\n      keccak256\n        /* \"KYC.sol\":2623:2639  users[entry].set */\n      0x09\n      add\n      0x00\n        /* \"KYC.sol\":2623:2646  users[entry].set = true */\n      0x0100\n      exp\n      dup2\n      sload\n      dup2\n      0xff\n      mul\n      not\n      and\n      swap1\n      dup4\n      iszero\n      iszero\n      mul\n      or\n      swap1\n      sstore\n      pop\n        /* \"KYC.sol\":2118:2654  {... */\n      pop\n        /* \"KYC.sol\":1899:2654  function addUser(string memory n, string memory f, string memory m, string memory d, string memory ad, uint mo,string memory e,uint aadhar,string memory pan,string memory ah,string memory ph) ... */\n      pop\n      pop\n      pop\n      pop\n      pop\n      pop\n      pop\n      pop\n      pop\n      pop\n      pop\n      jump\t// out\n        /* \"KYC.sol\":1493:1515  address public manager */\n    tag_33:\n      0x02\n      0x00\n      swap1\n      sload\n      swap1\n      0x0100\n      exp\n      swap1\n      div\n      0xffffffffffffffffffffffffffffffffffffffff\n      and\n      dup2\n      jump\t// out\n        /* \"KYC.sol\":3384:3586  function getAadharPanHash(address rer) public view... */\n    tag_38:\n        /* \"KYC.sol\":3448:3461  string memory */\n      0x60\n        /* \"KYC.sol\":3462:3475  string memory */\n      dup1\n        /* \"KYC.sol\":3495:3500  users */\n      0x01\n        /* \"KYC.sol\":3495:3505  users[rer] */\n      0x00\n        /* \"KYC.sol\":3501:3504  rer */\n      dup5\n        /* \"KYC.sol\":3495:3505  users[rer] */\n      0xffffffffffffffffffffffffffffffffffffffff\n      and\n      0xffffffffffffffffffffffffffffffffffffffff\n      and\n      dup2\n      mstore\n      0x20\n      add\n      swap1\n      dup2\n      mstore\n      0x20\n      add\n      0x00\n      keccak256\n        /* \"KYC.sol\":3495:3509  users[rer].set */\n      0x09\n      add\n      0x00\n      swap1\n      sload\n      swap1\n      0x0100\n      exp\n      swap1\n      div\n      0xff\n      and\n        /* \"KYC.sol\":3487:3510  require(users[rer].set) */\n      tag_88\n      jumpi\n      0x00\n      dup1\n      revert\n    tag_88:\n        /* \"KYC.sol\":3529:3534  users */\n      0x01\n        /* \"KYC.sol\":3529:3539  users[rer] */\n      0x00\n        /* \"KYC.sol\":3535:3538  rer */\n      dup5\n        /* \"KYC.sol\":3529:3539  users[rer] */\n      0xffffffffffffffffffffffffffffffffffffffff\n      and\n      0xffffffffffffffffffffffffffffffffffffffff\n      and\n      dup2\n      mstore\n      0x20\n      add\n      swap1\n      dup2\n      mstore\n      0x20\n      add\n      0x00\n      keccak256\n        /* \"KYC.sol\":3529:3554  users[rer].aadharipfsHash */\n      0x0a\n      add\n        /* \"KYC.sol\":3555:3560  users */\n      0x01\n        /* \"KYC.sol\":3555:3565  users[rer] */\n      0x00\n        /* \"KYC.sol\":3561:3564  rer */\n      dup6\n        /* \"KYC.sol\":3555:3565  users[rer] */\n      0xffffffffffffffffffffffffffffffffffffffff\n      and\n      0xffffffffffffffffffffffffffffffffffffffff\n      and\n      dup2\n      mstore\n      0x20\n      add\n      swap1\n      dup2\n      mstore\n      0x20\n      add\n      0x00\n      keccak256\n        /* \"KYC.sol\":3555:3577  users[rer].panipfsHash */\n      0x0b\n      add\n        /* \"KYC.sol\":3521:3578  return (users[rer].aadharipfsHash,users[rer].panipfsHash) */\n      dup2\n      dup1\n      sload\n      tag_89\n      swap1\n      tag_66\n      jump\t// in\n    tag_89:\n      dup1\n      0x1f\n      add\n      0x20\n      dup1\n      swap2\n      div\n      mul\n      0x20\n      add\n      mload(0x40)\n      swap1\n      dup2\n      add\n      0x40\n      mstore\n      dup1\n      swap3\n      swap2\n      swap1\n      dup2\n      dup2\n      mstore\n      0x20\n      add\n      dup3\n      dup1\n      sload\n      tag_90\n      swap1\n      tag_66\n      jump\t// in\n    tag_90:\n      dup1\n      iszero\n      tag_91\n      jumpi\n      dup1\n      0x1f\n      lt\n      tag_92\n      jumpi\n      0x0100\n      dup1\n      dup4\n      sload\n      div\n      mul\n      dup4\n      mstore\n      swap2\n      0x20\n      add\n      swap2\n      jump(tag_91)\n    tag_92:\n      dup3\n      add\n      swap2\n      swap1\n      0x00\n      mstore\n      keccak256(0x00, 0x20)\n      swap1\n    tag_93:\n      dup2\n      sload\n      dup2\n      mstore\n      swap1\n      0x01\n      add\n      swap1\n      0x20\n      add\n      dup1\n      dup4\n      gt\n      tag_93\n      jumpi\n      dup3\n      swap1\n      sub\n      0x1f\n      and\n      dup3\n      add\n      swap2\n    tag_91:\n      pop\n      pop\n      pop\n      pop\n      pop\n      swap2\n      pop\n      dup1\n      dup1\n      sload\n      tag_94\n      swap1\n      tag_66\n      jump\t// in\n    tag_94:\n      dup1\n      0x1f\n      add\n      0x20\n      dup1\n      swap2\n      div\n      mul\n      0x20\n      add\n      mload(0x40)\n      swap1\n      dup2\n      add\n      0x40\n      mstore\n      dup1\n      swap3\n      swap2\n      swap1\n      dup2\n      dup2\n      mstore\n      0x20\n      add\n      dup3\n      dup1\n      sload\n      tag_95\n      swap1\n      tag_66\n      jump\t// in\n    tag_95:\n      dup1\n      iszero\n      tag_96\n      jumpi\n      dup1\n      0x1f\n      lt\n      tag_97\n      jumpi\n      0x0100\n      dup1\n      dup4\n      sload\n      div\n      mul\n      dup4\n      mstore\n      swap2\n      0x20\n      add\n      swap2\n      jump(tag_96)\n    tag_97:\n      dup3\n      add\n      swap2\n      swap1\n      0x00\n      mstore\n      keccak256(0x00, 0x20)\n      swap1\n    tag_98:\n      dup2\n      sload\n      dup2\n      mstore\n      swap1\n      0x01\n      add\n      swap1\n      0x20\n      add\n      dup1\n      dup4\n      gt\n      tag_98\n      jumpi\n      dup3\n      swap1\n      sub\n      0x1f\n      and\n      dup3\n      add\n      swap2\n    tag_96:\n      pop\n      pop\n      pop\n      pop\n      pop\n      swap1\n      pop\n      swap2\n      pop\n      swap2\n      pop\n        /* \"KYC.sol\":3384:3586  function getAadharPanHash(address rer) public view... */\n      swap2\n      pop\n      swap2\n      jump\t// out\n        /* \"KYC.sol\":3594:3990  function getUserDetails() public view agentRestricted... */\n    tag_42:\n        /* \"KYC.sol\":3661:3674  string memory */\n      0x60\n        /* \"KYC.sol\":3676:3689  string memory */\n      dup1\n        /* \"KYC.sol\":3691:3704  string memory */\n      0x60\n        /* \"KYC.sol\":3706:3719  string memory */\n      dup1\n        /* \"KYC.sol\":3721:3734  string memory */\n      0x60\n        /* \"KYC.sol\":3736:3740  uint */\n      0x00\n        /* \"KYC.sol\":3741:3754  string memory */\n      0x60\n        /* \"KYC.sol\":3755:3759  uint */\n      0x00\n        /* \"KYC.sol\":3760:3773  string memory */\n      0x60\n        /* \"KYC.sol\":1731:1739  assigned */\n      0x03\n      0x00\n      swap1\n      sload\n      swap1\n      0x0100\n      exp\n      swap1\n      div\n      0xffffffffffffffffffffffffffffffffffffffff\n      and\n        /* \"KYC.sol\":1717:1739  msg.sender == assigned */\n      0xffffffffffffffffffffffffffffffffffffffff\n      and\n        /* \"KYC.sol\":1717:1727  msg.sender */\n      caller\n        /* \"KYC.sol\":1717:1739  msg.sender == assigned */\n      0xffffffffffffffffffffffffffffffffffffffff\n      and\n      eq\n        /* \"KYC.sol\":1709:1740  require(msg.sender == assigned) */\n      tag_100\n      jumpi\n      0x00\n      dup1\n      revert\n    tag_100:\n        /* \"KYC.sol\":3793:3798  users */\n      0x01\n        /* \"KYC.sol\":3793:3807  users[manager] */\n      0x00\n        /* \"KYC.sol\":3799:3806  manager */\n      0x02\n      0x00\n      swap1\n      sload\n      swap1\n      0x0100\n      exp\n      swap1\n      div\n      0xffffffffffffffffffffffffffffffffffffffff\n      and\n        /* \"KYC.sol\":3793:3807  users[manager] */\n      0xffffffffffffffffffffffffffffffffffffffff\n      and\n      0xffffffffffffffffffffffffffffffffffffffff\n      and\n      dup2\n      mstore\n      0x20\n      add\n      swap1\n      dup2\n      mstore\n      0x20\n      add\n      0x00\n      keccak256\n        /* \"KYC.sol\":3793:3812  users[manager].name */\n      0x00\n      add\n        /* \"KYC.sol\":3813:3818  users */\n      0x01\n        /* \"KYC.sol\":3813:3827  users[manager] */\n      0x00\n        /* \"KYC.sol\":3819:3826  manager */\n      0x02\n      0x00\n      swap1\n      sload\n      swap1\n      0x0100\n      exp\n      swap1\n      div\n      0xffffffffffffffffffffffffffffffffffffffff\n      and\n        /* \"KYC.sol\":3813:3827  users[manager] */\n      0xffffffffffffffffffffffffffffffffffffffff\n      and\n      0xffffffffffffffffffffffffffffffffffffffff\n      and\n      dup2\n      mstore\n      0x20\n      add\n      swap1\n      dup2\n      mstore\n      0x20\n      add\n      0x00\n      keccak256\n        /* \"KYC.sol\":3813:3834  users[manager].father */\n      0x01\n      add\n        /* \"KYC.sol\":3835:3840  users */\n      0x01\n        /* \"KYC.sol\":3835:3849  users[manager] */\n      0x00\n        /* \"KYC.sol\":3841:3848  manager */\n      0x02\n      0x00\n      swap1\n      sload\n      swap1\n      0x0100\n      exp\n      swap1\n      div\n      0xffffffffffffffffffffffffffffffffffffffff\n      and\n        /* \"KYC.sol\":3835:3849  users[manager] */\n      0xffffffffffffffffffffffffffffffffffffffff\n      and\n      0xffffffffffffffffffffffffffffffffffffffff\n      and\n      dup2\n      mstore\n      0x20\n      add\n      swap1\n      dup2\n      mstore\n      0x20\n      add\n      0x00\n      keccak256\n        /* \"KYC.sol\":3835:3856  users[manager].mother */\n      0x02\n      add\n        /* \"KYC.sol\":3857:3862  users */\n      0x01\n        /* \"KYC.sol\":3857:3871  users[manager] */\n      0x00\n        /* \"KYC.sol\":3863:3870  manager */\n      0x02\n      0x00\n      swap1\n      sload\n      swap1\n      0x0100\n      exp\n      swap1\n      div\n      0xffffffffffffffffffffffffffffffffffffffff\n      and\n        /* \"KYC.sol\":3857:3871  users[manager] */\n      0xffffffffffffffffffffffffffffffffffffffff\n      and\n      0xffffffffffffffffffffffffffffffffffffffff\n      and\n      dup2\n      mstore\n      0x20\n      add\n      swap1\n      dup2\n      mstore\n      0x20\n      add\n      0x00\n      keccak256\n        /* \"KYC.sol\":3857:3881  users[manager].birthdate */\n      0x03\n      add\n        /* \"KYC.sol\":3882:3887  users */\n      0x01\n        /* \"KYC.sol\":3882:3896  users[manager] */\n      0x00\n        /* \"KYC.sol\":3888:3895  manager */\n      0x02\n      0x00\n      swap1\n      sload\n      swap1\n      0x0100\n      exp\n      swap1\n      div\n      0xffffffffffffffffffffffffffffffffffffffff\n      and\n        /* \"KYC.sol\":3882:3896  users[manager] */\n      0xffffffffffffffffffffffffffffffffffffffff\n      and\n      0xffffffffffffffffffffffffffffffffffffffff\n      and\n      dup2\n      mstore\n      0x20\n      add\n      swap1\n      dup2\n      mstore\n      0x20\n      add\n      0x00\n      keccak256\n        /* \"KYC.sol\":3882:3900  users[manager].add */\n      0x04\n      add\n        /* \"KYC.sol\":3901:3906  users */\n      0x01\n        /* \"KYC.sol\":3901:3915  users[manager] */\n      0x00\n        /* \"KYC.sol\":3907:3914  manager */\n      0x02\n      0x00\n      swap1\n      sload\n      swap1\n      0x0100\n      exp\n      swap1\n      div\n      0xffffffffffffffffffffffffffffffffffffffff\n      and\n        /* \"KYC.sol\":3901:3915  users[manager] */\n      0xffffffffffffffffffffffffffffffffffffffff\n      and\n      0xffffffffffffffffffffffffffffffffffffffff\n      and\n      dup2\n      mstore\n      0x20\n      add\n      swap1\n      dup2\n      mstore\n      0x20\n      add\n      0x00\n      keccak256\n        /* \"KYC.sol\":3901:3919  users[manager].mob */\n      0x05\n      add\n      sload\n        /* \"KYC.sol\":3920:3925  users */\n      0x01\n        /* \"KYC.sol\":3920:3934  users[manager] */\n      0x00\n        /* \"KYC.sol\":3926:3933  manager */\n      0x02\n      0x00\n      swap1\n      sload\n      swap1\n      0x0100\n      exp\n      swap1\n      div\n      0xffffffffffffffffffffffffffffffffffffffff\n      and\n        /* \"KYC.sol\":3920:3934  users[manager] */\n      0xffffffffffffffffffffffffffffffffffffffff\n      and\n      0xffffffffffffffffffffffffffffffffffffffff\n      and\n      dup2\n      mstore\n      0x20\n      add\n      swap1\n      dup2\n      mstore\n      0x20\n      add\n      0x00\n      keccak256\n        /* \"KYC.sol\":3920:3940  users[manager].email */\n      0x06\n      add\n        /* \"KYC.sol\":3941:3946  users */\n      0x01\n        /* \"KYC.sol\":3941:3955  users[manager] */\n      0x00\n        /* \"KYC.sol\":3947:3954  manager */\n      0x02\n      0x00\n      swap1\n      sload\n      swap1\n      0x0100\n      exp\n      swap1\n      div\n      0xffffffffffffffffffffffffffffffffffffffff\n      and\n        /* \"KYC.sol\":3941:3955  users[manager] */\n      0xffffffffffffffffffffffffffffffffffffffff\n      and\n      0xffffffffffffffffffffffffffffffffffffffff\n      and\n      dup2\n      mstore\n      0x20\n      add\n      swap1\n      dup2\n      mstore\n      0x20\n      add\n      0x00\n      keccak256\n        /* \"KYC.sol\":3941:3962  users[manager].aadhar */\n      0x07\n      add\n      sload\n        /* \"KYC.sol\":3963:3968  users */\n      0x01\n        /* \"KYC.sol\":3963:3977  users[manager] */\n      0x00\n        /* \"KYC.sol\":3969:3976  manager */\n      0x02\n      0x00\n      swap1\n      sload\n      swap1\n      0x0100\n      exp\n      swap1\n      div\n      0xffffffffffffffffffffffffffffffffffffffff\n      and\n        /* \"KYC.sol\":3963:3977  users[manager] */\n      0xffffffffffffffffffffffffffffffffffffffff\n      and\n      0xffffffffffffffffffffffffffffffffffffffff\n      and\n      dup2\n      mstore\n      0x20\n      add\n      swap1\n      dup2\n      mstore\n      0x20\n      add\n      0x00\n      keccak256\n        /* \"KYC.sol\":3963:3981  users[manager].pan */\n      0x08\n      add\n        /* \"KYC.sol\":3785:3982  return (users[manager].name,users[manager].father,users[manager].mother,users[manager].birthdate,users[manager].add,users[manager].mob,users[manager].email,users[manager].aadhar,users[manager].pan) */\n      dup9\n      dup1\n      sload\n      tag_102\n      swap1\n      tag_66\n      jump\t// in\n    tag_102:\n      dup1\n      0x1f\n      add\n      0x20\n      dup1\n      swap2\n      div\n      mul\n      0x20\n      add\n      mload(0x40)\n      swap1\n      dup2\n      add\n      0x40\n      mstore\n      dup1\n      swap3\n      swap2\n      swap1\n      dup2\n      dup2\n      mstore\n      0x20\n      add\n      dup3\n      dup1\n      sload\n      tag_103\n      swap1\n      tag_66\n      jump\t// in\n    tag_103:\n      dup1\n      iszero\n      tag_104\n      jumpi\n      dup1\n      0x1f\n      lt\n      tag_105\n      jumpi\n      0x0100\n      dup1\n      dup4\n      sload\n      div\n      mul\n      dup4\n      mstore\n      swap2\n      0x20\n      add\n      swap2\n      jump(tag_104)\n    tag_105:\n      dup3\n      add\n      swap2\n      swap1\n      0x00\n      mstore\n      keccak256(0x00, 0x20)\n      swap1\n    tag_106:\n      dup2\n      sload\n      dup2\n      mstore\n      swap1\n      0x01\n      add\n      swap1\n      0x20\n      add\n      dup1\n      dup4\n      gt\n      tag_106\n      jumpi\n      dup3\n      swap1\n      sub\n      0x1f\n      and\n      dup3\n      add\n      swap2\n    tag_104:\n      pop\n      pop\n      pop\n      pop\n      pop\n      swap9\n      pop\n      dup8\n      dup1\n      sload\n      tag_107\n      swap1\n      tag_66\n      jump\t// in\n    tag_107:\n      dup1\n      0x1f\n      add\n      0x20\n      dup1\n      swap2\n      div\n      mul\n      0x20\n      add\n      mload(0x40)\n      swap1\n      dup2\n      add\n      0x40\n      mstore\n      dup1\n      swap3\n      swap2\n      swap1\n      dup2\n      dup2\n      mstore\n      0x20\n      add\n      dup3\n      dup1\n      sload\n      tag_108\n      swap1\n      tag_66\n      jump\t// in\n    tag_108:\n      dup1\n      iszero\n      tag_109\n      jumpi\n      dup1\n      0x1f\n      lt\n      tag_110\n      jumpi\n      0x0100\n      dup1\n      dup4\n      sload\n      div\n      mul\n      dup4\n      mstore\n      swap2\n      0x20\n      add\n      swap2\n      jump(tag_109)\n    tag_110:\n      dup3\n      add\n      swap2\n      swap1\n      0x00\n      mstore\n      keccak256(0x00, 0x20)\n      swap1\n    tag_111:\n      dup2\n      sload\n      dup2\n      mstore\n      swap1\n      0x01\n      add\n      swap1\n      0x20\n      add\n      dup1\n      dup4\n      gt\n      tag_111\n      jumpi\n      dup3\n      swap1\n      sub\n      0x1f\n      and\n      dup3\n      add\n      swap2\n    tag_109:\n      pop\n      pop\n      pop\n      pop\n      pop\n      swap8\n      pop\n      dup7\n      dup1\n      sload\n      tag_112\n      swap1\n      tag_66\n      jump\t// in\n    tag_112:\n      dup1\n      0x1f\n      add\n      0x20\n      dup1\n      swap2\n      div\n      mul\n      0x20\n      add\n      mload(0x40)\n      swap1\n      dup2\n      add\n      0x40\n      mstore\n      dup1\n      swap3\n      swap2\n      swap1\n      dup2\n      dup2\n      mstore\n      0x20\n      add\n      dup3\n      dup1\n      sload\n      tag_113\n      swap1\n      tag_66\n      jump\t// in\n    tag_113:\n      dup1\n      iszero\n      tag_114\n      jumpi\n      dup1\n      0x1f\n      lt\n      tag_115\n      jumpi\n      0x0100\n      dup1\n      dup4\n      sload\n      div\n      mul\n      dup4\n      mstore\n      swap2\n      0x20\n      add\n      swap2\n      jump(tag_114)\n    tag_115:\n      dup3\n      add\n      swap2\n      swap1\n      0x00\n      mstore\n      keccak256(0x00, 0x20)\n      swap1\n    tag_116:\n      dup2\n      sload\n      dup2\n      mstore\n      swap1\n      0x01\n      add\n      swap1\n      0x20\n      add\n      dup1\n      dup4\n      gt\n      tag_116\n      jumpi\n      dup3\n      swap1\n      sub\n      0x1f\n      and\n      dup3\n      add\n      swap2\n    tag_114:\n      pop\n      pop\n      pop\n      pop\n      pop\n      swap7\n      pop\n      dup6\n      dup1\n      sload\n      tag_117\n      swap1\n      tag_66\n      jump\t// in\n    tag_117:\n      dup1\n      0x1f\n      add\n      0x20\n      dup1\n      swap2\n      div\n      mul\n      0x20\n      add\n      mload(0x40)\n      swap1\n      dup2\n      add\n      0x40\n      mstore\n      dup1\n      swap3\n      swap2\n      swap1\n      dup2\n      dup2\n      mstore\n      0x20\n      add\n      dup3\n      dup1\n      sload\n      tag_118\n      swap1\n      tag_66\n      jump\t// in\n    tag_118:\n      dup1\n      iszero\n      tag_119\n      jumpi\n      dup1\n      0x1f\n      lt\n      tag_120\n      jumpi\n      0x0100\n      dup1\n      dup4\n      sload\n      div\n      mul\n      dup4\n      mstore\n      swap2\n      0x20\n      add\n      swap2\n      jump(tag_119)\n    tag_120:\n      dup3\n      add\n      swap2\n      swap1\n      0x00\n      mstore\n      keccak256(0x00, 0x20)\n      swap1\n    tag_121:\n      dup2\n      sload\n      dup2\n      mstore\n      swap1\n      0x01\n      add\n      swap1\n      0x20\n      add\n      dup1\n      dup4\n      gt\n      tag_121\n      jumpi\n      dup3\n      swap1\n      sub\n      0x1f\n      and\n      dup3\n      add\n      swap2\n    tag_119:\n      pop\n      pop\n      pop\n      pop\n      pop\n      swap6\n      pop\n      dup5\n      dup1\n      sload\n      tag_122\n      swap1\n      tag_66\n      jump\t// in\n    tag_122:\n      dup1\n      0x1f\n      add\n      0x20\n      dup1\n      swap2\n      div\n      mul\n      0x20\n      add\n      mload(0x40)\n      swap1\n      dup2\n      add\n      0x40\n      mstore\n      dup1\n      swap3\n      swap2\n      swap1\n      dup2\n      dup2\n      mstore\n      0x20\n      add\n      dup3\n      dup1\n      sload\n      tag_123\n      swap1\n      tag_66\n      jump\t// in\n    tag_123:\n      dup1\n      iszero\n      tag_124\n      jumpi\n      dup1\n      0x1f\n      lt\n      tag_125\n      jumpi\n      0x0100\n      dup1\n      dup4\n      sload\n      div\n      mul\n      dup4\n      mstore\n      swap2\n      0x20\n      add\n      swap2\n      jump(tag_124)\n    tag_125:\n      dup3\n      add\n      swap2\n      swap1\n      0x00\n      mstore\n      keccak256(0x00, 0x20)\n      swap1\n    tag_126:\n      dup2\n      sload\n      dup2\n      mstore\n      swap1\n      0x01\n      add\n      swap1\n      0x20\n      add\n      dup1\n      dup4\n      gt\n      tag_126\n      jumpi\n      dup3\n      swap1\n      sub\n      0x1f\n      and\n      dup3\n      add\n      swap2\n    tag_124:\n      pop\n      pop\n      pop\n      pop\n      pop\n      swap5\n      pop\n      dup3\n      dup1\n      sload\n      tag_127\n      swap1\n      tag_66\n      jump\t// in\n    tag_127:\n      dup1\n      0x1f\n      add\n      0x20\n      dup1\n      swap2\n      div\n      mul\n      0x20\n      add\n      mload(0x40)\n      swap1\n      dup2\n      add\n      0x40\n      mstore\n      dup1\n      swap3\n      swap2\n      swap1\n      dup2\n      dup2\n      mstore\n      0x20\n      add\n      dup3\n      dup1\n      sload\n      tag_128\n      swap1\n      tag_66\n      jump\t// in\n    tag_128:\n      dup1\n      iszero\n      tag_129\n      jumpi\n      dup1\n      0x1f\n      lt\n      tag_130\n      jumpi\n      0x0100\n      dup1\n      dup4\n      sload\n      div\n      mul\n      dup4\n      mstore\n      swap2\n      0x20\n      add\n      swap2\n      jump(tag_129)\n    tag_130:\n      dup3\n      add\n      swap2\n      swap1\n      0x00\n      mstore\n      keccak256(0x00, 0x20)\n      swap1\n    tag_131:\n      dup2\n      sload\n      dup2\n      mstore\n      swap1\n      0x01\n      add\n      swap1\n      0x20\n      add\n      dup1\n      dup4\n      gt\n      tag_131\n      jumpi\n      dup3\n      swap1\n      sub\n      0x1f\n      and\n      dup3\n      add\n      swap2\n    tag_129:\n      pop\n      pop\n      pop\n      pop\n      pop\n      swap3\n      pop\n      dup1\n      dup1\n      sload\n      tag_132\n      swap1\n      tag_66\n      jump\t// in\n    tag_132:\n      dup1\n      0x1f\n      add\n      0x20\n      dup1\n      swap2\n      div\n      mul\n      0x20\n      add\n      mload(0x40)\n      swap1\n      dup2\n      add\n      0x40\n      mstore\n      dup1\n      swap3\n      swap2\n      swap1\n      dup2\n      dup2\n      mstore\n      0x20\n      add\n      dup3\n      dup1\n      sload\n      tag_133\n      swap1\n      tag_66\n      jump\t// in\n    tag_133:\n      dup1\n      iszero\n      tag_134\n      jumpi\n      dup1\n      0x1f\n      lt\n      tag_135\n      jumpi\n      0x0100\n      dup1\n      dup4\n      sload\n      div\n      mul\n      dup4\n      mstore\n      swap2\n      0x20\n      add\n      swap2\n      jump(tag_134)\n    tag_135:\n      dup3\n      add\n      swap2\n      swap1\n      0x00\n      mstore\n      keccak256(0x00, 0x20)\n      swap1\n    tag_136:\n      dup2\n      sload\n      dup2\n      mstore\n      swap1\n      0x01\n      add\n      swap1\n      0x20\n      add\n      dup1\n      dup4\n      gt\n      tag_136\n      jumpi\n      dup3\n      swap1\n      sub\n      0x1f\n      and\n      dup3\n      add\n      swap2\n    tag_134:\n      pop\n      pop\n      pop\n      pop\n      pop\n      swap1\n      pop\n      swap9\n      pop\n      swap9\n      pop\n      swap9\n      pop\n      swap9\n      pop\n      swap9\n      pop\n      swap9\n      pop\n      swap9\n      pop\n      swap9\n      pop\n      swap9\n      pop\n        /* \"KYC.sol\":3594:3990  function getUserDetails() public view agentRestricted... */\n      swap1\n      swap2\n      swap3\n      swap4\n      swap5\n      swap6\n      swap7\n      swap8\n      swap9\n      jump\t// out\n        /* \"KYC.sol\":1546:1569  address public assigned */\n    tag_46:\n      0x03\n      0x00\n      swap1\n      sload\n      swap1\n      0x0100\n      exp\n      swap1\n      div\n      0xffffffffffffffffffffffffffffffffffffffff\n      and\n      dup2\n      jump\t// out\n        /* \"KYC.sol\":2664:2759  function getDeployedUsers() public view returns(address) {... */\n    tag_49:\n        /* \"KYC.sol\":2712:2719  address */\n      0x00\n        /* \"KYC.sol\":2739:2751  usersAddress */\n      dup1\n      0x00\n      swap1\n      sload\n      swap1\n      0x0100\n      exp\n      swap1\n      div\n      0xffffffffffffffffffffffffffffffffffffffff\n      and\n        /* \"KYC.sol\":2732:2751  return usersAddress */\n      swap1\n      pop\n        /* \"KYC.sol\":2664:2759  function getDeployedUsers() public view returns(address) {... */\n      swap1\n      jump\t// out\n        /* \"KYC.sol\":2787:3161  function getparticularUser(address rer) public view... */\n    tag_53:\n        /* \"KYC.sol\":2852:2865  string memory */\n      0x60\n        /* \"KYC.sol\":2867:2880  string memory */\n      dup1\n        /* \"KYC.sol\":2882:2895  string memory */\n      0x60\n        /* \"KYC.sol\":2897:2910  string memory */\n      dup1\n        /* \"KYC.sol\":2912:2925  string memory */\n      0x60\n        /* \"KYC.sol\":2927:2931  uint */\n      0x00\n        /* \"KYC.sol\":2932:2945  string memory */\n      0x60\n        /* \"KYC.sol\":2965:2970  users */\n      0x01\n        /* \"KYC.sol\":2965:2975  users[rer] */\n      0x00\n        /* \"KYC.sol\":2971:2974  rer */\n      dup10\n        /* \"KYC.sol\":2965:2975  users[rer] */\n      0xffffffffffffffffffffffffffffffffffffffff\n      and\n      0xffffffffffffffffffffffffffffffffffffffff\n      and\n      dup2\n      mstore\n      0x20\n      add\n      swap1\n      dup2\n      mstore\n      0x20\n      add\n      0x00\n      keccak256\n        /* \"KYC.sol\":2965:2979  users[rer].set */\n      0x09\n      add\n      0x00\n      swap1\n      sload\n      swap1\n      0x0100\n      exp\n      swap1\n      div\n      0xff\n      and\n        /* \"KYC.sol\":2957:2980  require(users[rer].set) */\n      tag_139\n      jumpi\n      0x00\n      dup1\n      revert\n    tag_139:\n        /* \"KYC.sol\":3006:3013  manager */\n      0x02\n      0x00\n      swap1\n      sload\n      swap1\n      0x0100\n      exp\n      swap1\n      div\n      0xffffffffffffffffffffffffffffffffffffffff\n      and\n        /* \"KYC.sol\":2999:3013  rer == manager */\n      0xffffffffffffffffffffffffffffffffffffffff\n      and\n        /* \"KYC.sol\":2999:3002  rer */\n      dup9\n        /* \"KYC.sol\":2999:3013  rer == manager */\n      0xffffffffffffffffffffffffffffffffffffffff\n      and\n      eq\n        /* \"KYC.sol\":2991:3014  require(rer == manager) */\n      tag_140\n      jumpi\n      0x00\n      dup1\n      revert\n    tag_140:\n        /* \"KYC.sol\":3033:3038  users */\n      0x01\n        /* \"KYC.sol\":3033:3043  users[rer] */\n      0x00\n        /* \"KYC.sol\":3039:3042  rer */\n      dup10\n        /* \"KYC.sol\":3033:3043  users[rer] */\n      0xffffffffffffffffffffffffffffffffffffffff\n      and\n      0xffffffffffffffffffffffffffffffffffffffff\n      and\n      dup2\n      mstore\n      0x20\n      add\n      swap1\n      dup2\n      mstore\n      0x20\n      add\n      0x00\n      keccak256\n        /* \"KYC.sol\":3033:3048  users[rer].name */\n      0x00\n      add\n        /* \"KYC.sol\":3049:3054  users */\n      0x01\n        /* \"KYC.sol\":3049:3059  users[rer] */\n      0x00\n        /* \"KYC.sol\":3055:3058  rer */\n      dup11\n        /* \"KYC.sol\":3049:3059  users[rer] */\n      0xffffffffffffffffffffffffffffffffffffffff\n      and\n      0xffffffffffffffffffffffffffffffffffffffff\n      and\n      dup2\n      mstore\n      0x20\n      add\n      swap1\n      dup2\n      mstore\n      0x20\n      add\n      0x00\n      keccak256\n        /* \"KYC.sol\":3049:3066  users[rer].father */\n      0x01\n      add\n        /* \"KYC.sol\":3067:3072  users */\n      0x01\n        /* \"KYC.sol\":3067:3077  users[rer] */\n      0x00\n        /* \"KYC.sol\":3073:3076  rer */\n      dup12\n        /* \"KYC.sol\":3067:3077  users[rer] */\n      0xffffffffffffffffffffffffffffffffffffffff\n      and\n      0xffffffffffffffffffffffffffffffffffffffff\n      and\n      dup2\n      mstore\n      0x20\n      add\n      swap1\n      dup2\n      mstore\n      0x20\n      add\n      0x00\n      keccak256\n        /* \"KYC.sol\":3067:3084  users[rer].mother */\n      0x02\n      add\n        /* \"KYC.sol\":3085:3090  users */\n      0x01\n        /* \"KYC.sol\":3085:3095  users[rer] */\n      0x00\n        /* \"KYC.sol\":3091:3094  rer */\n      dup13\n        /* \"KYC.sol\":3085:3095  users[rer] */\n      0xffffffffffffffffffffffffffffffffffffffff\n      and\n      0xffffffffffffffffffffffffffffffffffffffff\n      and\n      dup2\n      mstore\n      0x20\n      add\n      swap1\n      dup2\n      mstore\n      0x20\n      add\n      0x00\n      keccak256\n        /* \"KYC.sol\":3085:3105  users[rer].birthdate */\n      0x03\n      add\n        /* \"KYC.sol\":3106:3111  users */\n      0x01\n        /* \"KYC.sol\":3106:3116  users[rer] */\n      0x00\n        /* \"KYC.sol\":3112:3115  rer */\n      dup14\n        /* \"KYC.sol\":3106:3116  users[rer] */\n      0xffffffffffffffffffffffffffffffffffffffff\n      and\n      0xffffffffffffffffffffffffffffffffffffffff\n      and\n      dup2\n      mstore\n      0x20\n      add\n      swap1\n      dup2\n      mstore\n      0x20\n      add\n      0x00\n      keccak256\n        /* \"KYC.sol\":3106:3120  users[rer].add */\n      0x04\n      add\n        /* \"KYC.sol\":3121:3126  users */\n      0x01\n        /* \"KYC.sol\":3121:3131  users[rer] */\n      0x00\n        /* \"KYC.sol\":3127:3130  rer */\n      dup15\n        /* \"KYC.sol\":3121:3131  users[rer] */\n      0xffffffffffffffffffffffffffffffffffffffff\n      and\n      0xffffffffffffffffffffffffffffffffffffffff\n      and\n      dup2\n      mstore\n      0x20\n      add\n      swap1\n      dup2\n      mstore\n      0x20\n      add\n      0x00\n      keccak256\n        /* \"KYC.sol\":3121:3135  users[rer].mob */\n      0x05\n      add\n      sload\n        /* \"KYC.sol\":3136:3141  users */\n      0x01\n        /* \"KYC.sol\":3136:3146  users[rer] */\n      0x00\n        /* \"KYC.sol\":3142:3145  rer */\n      dup16\n        /* \"KYC.sol\":3136:3146  users[rer] */\n      0xffffffffffffffffffffffffffffffffffffffff\n      and\n      0xffffffffffffffffffffffffffffffffffffffff\n      and\n      dup2\n      mstore\n      0x20\n      add\n      swap1\n      dup2\n      mstore\n      0x20\n      add\n      0x00\n      keccak256\n        /* \"KYC.sol\":3136:3152  users[rer].email */\n      0x06\n      add\n        /* \"KYC.sol\":3025:3153  return (users[rer].name,users[rer].father,users[rer].mother,users[rer].birthdate,users[rer].add,users[rer].mob,users[rer].email) */\n      dup7\n      dup1\n      sload\n      tag_141\n      swap1\n      tag_66\n      jump\t// in\n    tag_141:\n      dup1\n      0x1f\n      add\n      0x20\n      dup1\n      swap2\n      div\n      mul\n      0x20\n      add\n      mload(0x40)\n      swap1\n      dup2\n      add\n      0x40\n      mstore\n      dup1\n      swap3\n      swap2\n      swap1\n      dup2\n      dup2\n      mstore\n      0x20\n      add\n      dup3\n      dup1\n      sload\n      tag_142\n      swap1\n      tag_66\n      jump\t// in\n    tag_142:\n      dup1\n      iszero\n      tag_143\n      jumpi\n      dup1\n      0x1f\n      lt\n      tag_144\n      jumpi\n      0x0100\n      dup1\n      dup4\n      sload\n      div\n      mul\n      dup4\n      mstore\n      swap2\n      0x20\n      add\n      swap2\n      jump(tag_143)\n    tag_144:\n      dup3\n      add\n      swap2\n      swap1\n      0x00\n      mstore\n      keccak256(0x00, 0x20)\n      swap1\n    tag_145:\n      dup2\n      sload\n      dup2\n      mstore\n      swap1\n      0x01\n      add\n      swap1\n      0x20\n      add\n      dup1\n      dup4\n      gt\n      tag_145\n      jumpi\n      dup3\n      swap1\n      sub\n      0x1f\n      and\n      dup3\n      add\n      swap2\n    tag_143:\n      pop\n      pop\n      pop\n      pop\n      pop\n      swap7\n      pop\n      dup6\n      dup1\n      sload\n      tag_146\n      swap1\n      tag_66\n      jump\t// in\n    tag_146:\n      dup1\n      0x1f\n      add\n      0x20\n      dup1\n      swap2\n      div\n      mul\n      0x20\n      add\n      mload(0x40)\n      swap1\n      dup2\n      add\n      0x40\n      mstore\n      dup1\n      swap3\n      swap2\n      swap1\n      dup2\n      dup2\n      mstore\n      0x20\n      add\n      dup3\n      dup1\n      sload\n      tag_147\n      swap1\n      tag_66\n      jump\t// in\n    tag_147:\n      dup1\n      iszero\n      tag_148\n      jumpi\n      dup1\n      0x1f\n      lt\n      tag_149\n      jumpi\n      0x0100\n      dup1\n      dup4\n      sload\n      div\n      mul\n      dup4\n      mstore\n      swap2\n      0x20\n      add\n      swap2\n      jump(tag_148)\n    tag_149:\n      dup3\n      add\n      swap2\n      swap1\n      0x00\n      mstore\n      keccak256(0x00, 0x20)\n      swap1\n    tag_150:\n      dup2\n      sload\n      dup2\n      mstore\n      swap1\n      0x01\n      add\n      swap1\n      0x20\n      add\n      dup1\n      dup4\n      gt\n      tag_150\n      jumpi\n      dup3\n      swap1\n      sub\n      0x1f\n      and\n      dup3\n      add\n      swap2\n    tag_148:\n      pop\n      pop\n      pop\n      pop\n      pop\n      swap6\n      pop\n      dup5\n      dup1\n      sload\n      tag_151\n      swap1\n      tag_66\n      jump\t// in\n    tag_151:\n      dup1\n      0x1f\n      add\n      0x20\n      dup1\n      swap2\n      div\n      mul\n      0x20\n      add\n      mload(0x40)\n      swap1\n      dup2\n      add\n      0x40\n      mstore\n      dup1\n      swap3\n      swap2\n      swap1\n      dup2\n      dup2\n      mstore\n      0x20\n      add\n      dup3\n      dup1\n      sload\n      tag_152\n      swap1\n      tag_66\n      jump\t// in\n    tag_152:\n      dup1\n      iszero\n      tag_153\n      jumpi\n      dup1\n      0x1f\n      lt\n      tag_154\n      jumpi\n      0x0100\n      dup1\n      dup4\n      sload\n      div\n      mul\n      dup4\n      mstore\n      swap2\n      0x20\n      add\n      swap2\n      jump(tag_153)\n    tag_154:\n      dup3\n      add\n      swap2\n      swap1\n      0x00\n      mstore\n      keccak256(0x00, 0x20)\n      swap1\n    tag_155:\n      dup2\n      sload\n      dup2\n      mstore\n      swap1\n      0x01\n      add\n      swap1\n      0x20\n      add\n      dup1\n      dup4\n      gt\n      tag_155\n      jumpi\n      dup3\n      swap1\n      sub\n      0x1f\n      and\n      dup3\n      add\n      swap2\n    tag_153:\n      pop\n      pop\n      pop\n      pop\n      pop\n      swap5\n      pop\n      dup4\n      dup1\n      sload\n      tag_156\n      swap1\n      tag_66\n      jump\t// in\n    tag_156:\n      dup1\n      0x1f\n      add\n      0x20\n      dup1\n      swap2\n      div\n      mul\n      0x20\n      add\n      mload(0x40)\n      swap1\n      dup2\n      add\n      0x40\n      mstore\n      dup1\n      swap3\n      swap2\n      swap1\n      dup2\n      dup2\n      mstore\n      0x20\n      add\n      dup3\n      dup1\n      sload\n      tag_157\n      swap1\n      tag_66\n      jump\t// in\n    tag_157:\n      dup1\n      iszero\n      tag_158\n      jumpi\n      dup1\n      0x1f\n      lt\n      tag_159\n      jumpi\n      0x0100\n      dup1\n      dup4\n      sload\n      div\n      mul\n      dup4\n      mstore\n      swap2\n      0x20\n      add\n      swap2\n      jump(tag_158)\n    tag_159:\n      dup3\n      add\n      swap2\n      swap1\n      0x00\n      mstore\n      keccak256(0x00, 0x20)\n      swap1\n    tag_160:\n      dup2\n      sload\n      dup2\n      mstore\n      swap1\n      0x01\n      add\n      swap1\n      0x20\n      add\n      dup1\n      dup4\n      gt\n      tag_160\n      jumpi\n      dup3\n      swap1\n      sub\n      0x1f\n      and\n      dup3\n      add\n      swap2\n    tag_158:\n      pop\n      pop\n      pop\n      pop\n      pop\n      swap4\n      pop\n      dup3\n      dup1\n      sload\n      tag_161\n      swap1\n      tag_66\n      jump\t// in\n    tag_161:\n      dup1\n      0x1f\n      add\n      0x20\n      dup1\n      swap2\n      div\n      mul\n      0x20\n      add\n      mload(0x40)\n      swap1\n      dup2\n      add\n      0x40\n      mstore\n      dup1\n      swap3\n      swap2\n      swap1\n      dup2\n      dup2\n      mstore\n      0x20\n      add\n      dup3\n      dup1\n      sload\n      tag_162\n      swap1\n      tag_66\n      jump\t// in\n    tag_162:\n      dup1\n      iszero\n      tag_163\n      jumpi\n      dup1\n      0x1f\n      lt\n      tag_164\n      jumpi\n      0x0100\n      dup1\n      dup4\n      sload\n      div\n      mul\n      dup4\n      mstore\n      swap2\n      0x20\n      add\n      swap2\n      jump(tag_163)\n    tag_164:\n      dup3\n      add\n      swap2\n      swap1\n      0x00\n      mstore\n      keccak256(0x00, 0x20)\n      swap1\n    tag_165:\n      dup2\n      sload\n      dup2\n      mstore\n      swap1\n      0x01\n      add\n      swap1\n      0x20\n      add\n      dup1\n      dup4\n      gt\n      tag_165\n      jumpi\n      dup3\n      swap1\n      sub\n      0x1f\n      and\n      dup3\n      add\n      swap2\n    tag_163:\n      pop\n      pop\n      pop\n      pop\n      pop\n      swap3\n      pop\n      dup1\n      dup1\n      sload\n      tag_166\n      swap1\n      tag_66\n      jump\t// in\n    tag_166:\n      dup1\n      0x1f\n      add\n      0x20\n      dup1\n      swap2\n      div\n      mul\n      0x20\n      add\n      mload(0x40)\n      swap1\n      dup2\n      add\n      0x40\n      mstore\n      dup1\n      swap3\n      swap2\n      swap1\n      dup2\n      dup2\n      mstore\n      0x20\n      add\n      dup3\n      dup1\n      sload\n      tag_167\n      swap1\n      tag_66\n      jump\t// in\n    tag_167:\n      dup1\n      iszero\n      tag_168\n      jumpi\n      dup1\n      0x1f\n      lt\n      tag_169\n      jumpi\n      0x0100\n      dup1\n      dup4\n      sload\n      div\n      mul\n      dup4\n      mstore\n      swap2\n      0x20\n      add\n      swap2\n      jump(tag_168)\n    tag_169:\n      dup3\n      add\n      swap2\n      swap1\n      0x00\n      mstore\n      keccak256(0x00, 0x20)\n      swap1\n    tag_170:\n      dup2\n      sload\n      dup2\n      mstore\n      swap1\n      0x01\n      add\n      swap1\n      0x20\n      add\n      dup1\n      dup4\n      gt\n      tag_170\n      jumpi\n      dup3\n      swap1\n      sub\n      0x1f\n      and\n      dup3\n      add\n      swap2\n    tag_168:\n      pop\n      pop\n      pop\n      pop\n      pop\n      swap1\n      pop\n      swap7\n      pop\n      swap7\n      pop\n      swap7\n      pop\n      swap7\n      pop\n      swap7\n      pop\n      swap7\n      pop\n      swap7\n      pop\n        /* \"KYC.sol\":2787:3161  function getparticularUser(address rer) public view... */\n      swap2\n      swap4\n      swap6\n      swap8\n      swap1\n      swap3\n      swap5\n      swap7\n      pop\n      jump\t// out\n        /* \"KYC.sol\":1422:1449  address public usersAddress */\n    tag_57:\n      0x00\n      dup1\n      sload\n      swap1\n      0x0100\n      exp\n      swap1\n      div\n      0xffffffffffffffffffffffffffffffffffffffff\n      and\n      dup2\n      jump\t// out\n    tag_73:\n      dup3\n      dup1\n      sload\n      tag_171\n      swap1\n      tag_66\n      jump\t// in\n    tag_171:\n      swap1\n      0x00\n      mstore\n      keccak256(0x00, 0x20)\n      swap1\n      0x1f\n      add\n      0x20\n      swap1\n      div\n      dup2\n      add\n      swap3\n      dup3\n      tag_173\n      jumpi\n      0x00\n      dup6\n      sstore\n      jump(tag_172)\n    tag_173:\n      dup3\n      0x1f\n      lt\n      tag_174\n      jumpi\n      dup1\n      mload\n      not(0xff)\n      and\n      dup4\n      dup1\n      add\n      or\n      dup6\n      sstore\n      jump(tag_172)\n    tag_174:\n      dup3\n      dup1\n      add\n      0x01\n      add\n      dup6\n      sstore\n      dup3\n      iszero\n      tag_172\n      jumpi\n      swap2\n      dup3\n      add\n    tag_175:\n      dup3\n      dup2\n      gt\n      iszero\n      tag_176\n      jumpi\n      dup3\n      mload\n      dup3\n      sstore\n      swap2\n      0x20\n      add\n      swap2\n      swap1\n      0x01\n      add\n      swap1\n      jump(tag_175)\n    tag_176:\n    tag_172:\n      pop\n      swap1\n      pop\n      tag_177\n      swap2\n      swap1\n      tag_178\n      jump\t// in\n    tag_177:\n      pop\n      swap1\n      jump\t// out\n    tag_178:\n    tag_179:\n      dup1\n      dup3\n      gt\n      iszero\n      tag_180\n      jumpi\n      0x00\n      dup2\n      0x00\n      swap1\n      sstore\n      pop\n      0x01\n      add\n      jump(tag_179)\n    tag_180:\n      pop\n      swap1\n      jump\t// out\n        /* \"#utility.yul\":7:82   */\n    tag_181:\n        /* \"#utility.yul\":40:46   */\n      0x00\n        /* \"#utility.yul\":73:75   */\n      0x40\n        /* \"#utility.yul\":67:76   */\n      mload\n        /* \"#utility.yul\":57:76   */\n      swap1\n      pop\n        /* \"#utility.yul\":7:82   */\n      swap1\n      jump\t// out\n        /* \"#utility.yul\":88:205   */\n    tag_182:\n        /* \"#utility.yul\":197:198   */\n      0x00\n        /* \"#utility.yul\":194:195   */\n      dup1\n        /* \"#utility.yul\":187:199   */\n      revert\n        /* \"#utility.yul\":211:328   */\n    tag_183:\n        /* \"#utility.yul\":320:321   */\n      0x00\n        /* \"#utility.yul\":317:318   */\n      dup1\n        /* \"#utility.yul\":310:322   */\n      revert\n        /* \"#utility.yul\":334:460   */\n    tag_184:\n        /* \"#utility.yul\":371:378   */\n      0x00\n        /* \"#utility.yul\":411:453   */\n      0xffffffffffffffffffffffffffffffffffffffff\n        /* \"#utility.yul\":404:409   */\n      dup3\n        /* \"#utility.yul\":400:454   */\n      and\n        /* \"#utility.yul\":389:454   */\n      swap1\n      pop\n        /* \"#utility.yul\":334:460   */\n      swap2\n      swap1\n      pop\n      jump\t// out\n        /* \"#utility.yul\":466:562   */\n    tag_185:\n        /* \"#utility.yul\":503:510   */\n      0x00\n        /* \"#utility.yul\":532:556   */\n      tag_214\n        /* \"#utility.yul\":550:555   */\n      dup3\n        /* \"#utility.yul\":532:556   */\n      tag_184\n      jump\t// in\n    tag_214:\n        /* \"#utility.yul\":521:556   */\n      swap1\n      pop\n        /* \"#utility.yul\":466:562   */\n      swap2\n      swap1\n      pop\n      jump\t// out\n        /* \"#utility.yul\":568:690   */\n    tag_186:\n        /* \"#utility.yul\":641:665   */\n      tag_216\n        /* \"#utility.yul\":659:664   */\n      dup2\n        /* \"#utility.yul\":641:665   */\n      tag_185\n      jump\t// in\n    tag_216:\n        /* \"#utility.yul\":634:639   */\n      dup2\n        /* \"#utility.yul\":631:666   */\n      eq\n        /* \"#utility.yul\":621:684   */\n      tag_217\n      jumpi\n        /* \"#utility.yul\":680:681   */\n      0x00\n        /* \"#utility.yul\":677:678   */\n      dup1\n        /* \"#utility.yul\":670:682   */\n      revert\n        /* \"#utility.yul\":621:684   */\n    tag_217:\n        /* \"#utility.yul\":568:690   */\n      pop\n      jump\t// out\n        /* \"#utility.yul\":696:835   */\n    tag_187:\n        /* \"#utility.yul\":742:747   */\n      0x00\n        /* \"#utility.yul\":780:786   */\n      dup2\n        /* \"#utility.yul\":767:787   */\n      calldataload\n        /* \"#utility.yul\":758:787   */\n      swap1\n      pop\n        /* \"#utility.yul\":796:829   */\n      tag_219\n        /* \"#utility.yul\":823:828   */\n      dup2\n        /* \"#utility.yul\":796:829   */\n      tag_186\n      jump\t// in\n    tag_219:\n        /* \"#utility.yul\":696:835   */\n      swap3\n      swap2\n      pop\n      pop\n      jump\t// out\n        /* \"#utility.yul\":841:1170   */\n    tag_17:\n        /* \"#utility.yul\":900:906   */\n      0x00\n        /* \"#utility.yul\":949:951   */\n      0x20\n        /* \"#utility.yul\":937:946   */\n      dup3\n        /* \"#utility.yul\":928:935   */\n      dup5\n        /* \"#utility.yul\":924:947   */\n      sub\n        /* \"#utility.yul\":920:952   */\n      slt\n        /* \"#utility.yul\":917:1036   */\n      iszero\n      tag_221\n      jumpi\n        /* \"#utility.yul\":955:1034   */\n      tag_222\n      tag_182\n      jump\t// in\n    tag_222:\n        /* \"#utility.yul\":917:1036   */\n    tag_221:\n        /* \"#utility.yul\":1075:1076   */\n      0x00\n        /* \"#utility.yul\":1100:1153   */\n      tag_223\n        /* \"#utility.yul\":1145:1152   */\n      dup5\n        /* \"#utility.yul\":1136:1142   */\n      dup3\n        /* \"#utility.yul\":1125:1134   */\n      dup6\n        /* \"#utility.yul\":1121:1143   */\n      add\n        /* \"#utility.yul\":1100:1153   */\n      tag_187\n      jump\t// in\n    tag_223:\n        /* \"#utility.yul\":1090:1153   */\n      swap2\n      pop\n        /* \"#utility.yul\":1046:1163   */\n      pop\n        /* \"#utility.yul\":841:1170   */\n      swap3\n      swap2\n      pop\n      pop\n      jump\t// out\n        /* \"#utility.yul\":1176:1253   */\n    tag_188:\n        /* \"#utility.yul\":1213:1220   */\n      0x00\n        /* \"#utility.yul\":1242:1247   */\n      dup2\n        /* \"#utility.yul\":1231:1247   */\n      swap1\n      pop\n        /* \"#utility.yul\":1176:1253   */\n      swap2\n      swap1\n      pop\n      jump\t// out\n        /* \"#utility.yul\":1259:1377   */\n    tag_189:\n        /* \"#utility.yul\":1346:1370   */\n      tag_226\n        /* \"#utility.yul\":1364:1369   */\n      dup2\n        /* \"#utility.yul\":1346:1370   */\n      tag_188\n      jump\t// in\n    tag_226:\n        /* \"#utility.yul\":1341:1344   */\n      dup3\n        /* \"#utility.yul\":1334:1371   */\n      mstore\n        /* \"#utility.yul\":1259:1377   */\n      pop\n      pop\n      jump\t// out\n        /* \"#utility.yul\":1383:1482   */\n    tag_190:\n        /* \"#utility.yul\":1435:1441   */\n      0x00\n        /* \"#utility.yul\":1469:1474   */\n      dup2\n        /* \"#utility.yul\":1463:1475   */\n      mload\n        /* \"#utility.yul\":1453:1475   */\n      swap1\n      pop\n        /* \"#utility.yul\":1383:1482   */\n      swap2\n      swap1\n      pop\n      jump\t// out\n        /* \"#utility.yul\":1488:1657   */\n    tag_191:\n        /* \"#utility.yul\":1572:1583   */\n      0x00\n        /* \"#utility.yul\":1606:1612   */\n      dup3\n        /* \"#utility.yul\":1601:1604   */\n      dup3\n        /* \"#utility.yul\":1594:1613   */\n      mstore\n        /* \"#utility.yul\":1646:1650   */\n      0x20\n        /* \"#utility.yul\":1641:1644   */\n      dup3\n        /* \"#utility.yul\":1637:1651   */\n      add\n        /* \"#utility.yul\":1622:1651   */\n      swap1\n      pop\n        /* \"#utility.yul\":1488:1657   */\n      swap3\n      swap2\n      pop\n      pop\n      jump\t// out\n        /* \"#utility.yul\":1663:1970   */\n    tag_192:\n        /* \"#utility.yul\":1731:1732   */\n      0x00\n        /* \"#utility.yul\":1741:1854   */\n    tag_230:\n        /* \"#utility.yul\":1755:1761   */\n      dup4\n        /* \"#utility.yul\":1752:1753   */\n      dup2\n        /* \"#utility.yul\":1749:1762   */\n      lt\n        /* \"#utility.yul\":1741:1854   */\n      iszero\n      tag_232\n      jumpi\n        /* \"#utility.yul\":1840:1841   */\n      dup1\n        /* \"#utility.yul\":1835:1838   */\n      dup3\n        /* \"#utility.yul\":1831:1842   */\n      add\n        /* \"#utility.yul\":1825:1843   */\n      mload\n        /* \"#utility.yul\":1821:1822   */\n      dup2\n        /* \"#utility.yul\":1816:1819   */\n      dup5\n        /* \"#utility.yul\":1812:1823   */\n      add\n        /* \"#utility.yul\":1805:1844   */\n      mstore\n        /* \"#utility.yul\":1777:1779   */\n      0x20\n        /* \"#utility.yul\":1774:1775   */\n      dup2\n        /* \"#utility.yul\":1770:1780   */\n      add\n        /* \"#utility.yul\":1765:1780   */\n      swap1\n      pop\n        /* \"#utility.yul\":1741:1854   */\n      jump(tag_230)\n    tag_232:\n        /* \"#utility.yul\":1872:1878   */\n      dup4\n        /* \"#utility.yul\":1869:1870   */\n      dup2\n        /* \"#utility.yul\":1866:1879   */\n      gt\n        /* \"#utility.yul\":1863:1964   */\n      iszero\n      tag_233\n      jumpi\n        /* \"#utility.yul\":1952:1953   */\n      0x00\n        /* \"#utility.yul\":1943:1949   */\n      dup5\n        /* \"#utility.yul\":1938:1941   */\n      dup5\n        /* \"#utility.yul\":1934:1950   */\n      add\n        /* \"#utility.yul\":1927:1954   */\n      mstore\n        /* \"#utility.yul\":1863:1964   */\n    tag_233:\n        /* \"#utility.yul\":1712:1970   */\n      pop\n        /* \"#utility.yul\":1663:1970   */\n      pop\n      pop\n      pop\n      jump\t// out\n        /* \"#utility.yul\":1976:2078   */\n    tag_193:\n        /* \"#utility.yul\":2017:2023   */\n      0x00\n        /* \"#utility.yul\":2068:2070   */\n      0x1f\n        /* \"#utility.yul\":2064:2071   */\n      not\n        /* \"#utility.yul\":2059:2061   */\n      0x1f\n        /* \"#utility.yul\":2052:2057   */\n      dup4\n        /* \"#utility.yul\":2048:2062   */\n      add\n        /* \"#utility.yul\":2044:2072   */\n      and\n        /* \"#utility.yul\":2034:2072   */\n      swap1\n      pop\n        /* \"#utility.yul\":1976:2078   */\n      swap2\n      swap1\n      pop\n      jump\t// out\n        /* \"#utility.yul\":2084:2448   */\n    tag_194:\n        /* \"#utility.yul\":2172:2175   */\n      0x00\n        /* \"#utility.yul\":2200:2239   */\n      tag_236\n        /* \"#utility.yul\":2233:2238   */\n      dup3\n        /* \"#utility.yul\":2200:2239   */\n      tag_190\n      jump\t// in\n    tag_236:\n        /* \"#utility.yul\":2255:2326   */\n      tag_237\n        /* \"#utility.yul\":2319:2325   */\n      dup2\n        /* \"#utility.yul\":2314:2317   */\n      dup6\n        /* \"#utility.yul\":2255:2326   */\n      tag_191\n      jump\t// in\n    tag_237:\n        /* \"#utility.yul\":2248:2326   */\n      swap4\n      pop\n        /* \"#utility.yul\":2335:2387   */\n      tag_238\n        /* \"#utility.yul\":2380:2386   */\n      dup2\n        /* \"#utility.yul\":2375:2378   */\n      dup6\n        /* \"#utility.yul\":2368:2372   */\n      0x20\n        /* \"#utility.yul\":2361:2366   */\n      dup7\n        /* \"#utility.yul\":2357:2373   */\n      add\n        /* \"#utility.yul\":2335:2387   */\n      tag_192\n      jump\t// in\n    tag_238:\n        /* \"#utility.yul\":2412:2441   */\n      tag_239\n        /* \"#utility.yul\":2434:2440   */\n      dup2\n        /* \"#utility.yul\":2412:2441   */\n      tag_193\n      jump\t// in\n    tag_239:\n        /* \"#utility.yul\":2407:2410   */\n      dup5\n        /* \"#utility.yul\":2403:2442   */\n      add\n        /* \"#utility.yul\":2396:2442   */\n      swap2\n      pop\n        /* \"#utility.yul\":2176:2448   */\n      pop\n        /* \"#utility.yul\":2084:2448   */\n      swap3\n      swap2\n      pop\n      pop\n      jump\t// out\n        /* \"#utility.yul\":2454:2877   */\n    tag_23:\n        /* \"#utility.yul\":2595:2599   */\n      0x00\n        /* \"#utility.yul\":2633:2635   */\n      0x40\n        /* \"#utility.yul\":2622:2631   */\n      dup3\n        /* \"#utility.yul\":2618:2636   */\n      add\n        /* \"#utility.yul\":2610:2636   */\n      swap1\n      pop\n        /* \"#utility.yul\":2646:2717   */\n      tag_241\n        /* \"#utility.yul\":2714:2715   */\n      0x00\n        /* \"#utility.yul\":2703:2712   */\n      dup4\n        /* \"#utility.yul\":2699:2716   */\n      add\n        /* \"#utility.yul\":2690:2696   */\n      dup6\n        /* \"#utility.yul\":2646:2717   */\n      tag_189\n      jump\t// in\n    tag_241:\n        /* \"#utility.yul\":2764:2773   */\n      dup2\n        /* \"#utility.yul\":2758:2762   */\n      dup2\n        /* \"#utility.yul\":2754:2774   */\n      sub\n        /* \"#utility.yul\":2749:2751   */\n      0x20\n        /* \"#utility.yul\":2738:2747   */\n      dup4\n        /* \"#utility.yul\":2734:2752   */\n      add\n        /* \"#utility.yul\":2727:2775   */\n      mstore\n        /* \"#utility.yul\":2792:2870   */\n      tag_242\n        /* \"#utility.yul\":2865:2869   */\n      dup2\n        /* \"#utility.yul\":2856:2862   */\n      dup5\n        /* \"#utility.yul\":2792:2870   */\n      tag_194\n      jump\t// in\n    tag_242:\n        /* \"#utility.yul\":2784:2870   */\n      swap1\n      pop\n        /* \"#utility.yul\":2454:2877   */\n      swap4\n      swap3\n      pop\n      pop\n      pop\n      jump\t// out\n        /* \"#utility.yul\":2883:3000   */\n    tag_195:\n        /* \"#utility.yul\":2992:2993   */\n      0x00\n        /* \"#utility.yul\":2989:2990   */\n      dup1\n        /* \"#utility.yul\":2982:2994   */\n      revert\n        /* \"#utility.yul\":3006:3123   */\n    tag_196:\n        /* \"#utility.yul\":3115:3116   */\n      0x00\n        /* \"#utility.yul\":3112:3113   */\n      dup1\n        /* \"#utility.yul\":3105:3117   */\n      revert\n        /* \"#utility.yul\":3129:3309   */\n    tag_197:\n        /* \"#utility.yul\":3177:3254   */\n      0x4e487b7100000000000000000000000000000000000000000000000000000000\n        /* \"#utility.yul\":3174:3175   */\n      0x00\n        /* \"#utility.yul\":3167:3255   */\n      mstore\n        /* \"#utility.yul\":3274:3278   */\n      0x41\n        /* \"#utility.yul\":3271:3272   */\n      0x04\n        /* \"#utility.yul\":3264:3279   */\n      mstore\n        /* \"#utility.yul\":3298:3302   */\n      0x24\n        /* \"#utility.yul\":3295:3296   */\n      0x00\n        /* \"#utility.yul\":3288:3303   */\n      revert\n        /* \"#utility.yul\":3315:3596   */\n    tag_198:\n        /* \"#utility.yul\":3398:3425   */\n      tag_247\n        /* \"#utility.yul\":3420:3424   */\n      dup3\n        /* \"#utility.yul\":3398:3425   */\n      tag_193\n      jump\t// in\n    tag_247:\n        /* \"#utility.yul\":3390:3396   */\n      dup2\n        /* \"#utility.yul\":3386:3426   */\n      add\n        /* \"#utility.yul\":3528:3534   */\n      dup2\n        /* \"#utility.yul\":3516:3526   */\n      dup2\n        /* \"#utility.yul\":3513:3535   */\n      lt\n        /* \"#utility.yul\":3492:3510   */\n      0xffffffffffffffff\n        /* \"#utility.yul\":3480:3490   */\n      dup3\n        /* \"#utility.yul\":3477:3511   */\n      gt\n        /* \"#utility.yul\":3474:3536   */\n      or\n        /* \"#utility.yul\":3471:3559   */\n      iszero\n      tag_248\n      jumpi\n        /* \"#utility.yul\":3539:3557   */\n      tag_249\n      tag_197\n      jump\t// in\n    tag_249:\n        /* \"#utility.yul\":3471:3559   */\n    tag_248:\n        /* \"#utility.yul\":3579:3589   */\n      dup1\n        /* \"#utility.yul\":3575:3577   */\n      0x40\n        /* \"#utility.yul\":3568:3590   */\n      mstore\n        /* \"#utility.yul\":3358:3596   */\n      pop\n        /* \"#utility.yul\":3315:3596   */\n      pop\n      pop\n      jump\t// out\n        /* \"#utility.yul\":3602:3731   */\n    tag_199:\n        /* \"#utility.yul\":3636:3642   */\n      0x00\n        /* \"#utility.yul\":3663:3683   */\n      tag_251\n      tag_181\n      jump\t// in\n    tag_251:\n        /* \"#utility.yul\":3653:3683   */\n      swap1\n      pop\n        /* \"#utility.yul\":3692:3725   */\n      tag_252\n        /* \"#utility.yul\":3720:3724   */\n      dup3\n        /* \"#utility.yul\":3712:3718   */\n      dup3\n        /* \"#utility.yul\":3692:3725   */\n      tag_198\n      jump\t// in\n    tag_252:\n        /* \"#utility.yul\":3602:3731   */\n      swap2\n      swap1\n      pop\n      jump\t// out\n        /* \"#utility.yul\":3737:4045   */\n    tag_200:\n        /* \"#utility.yul\":3799:3803   */\n      0x00\n        /* \"#utility.yul\":3889:3907   */\n      0xffffffffffffffff\n        /* \"#utility.yul\":3881:3887   */\n      dup3\n        /* \"#utility.yul\":3878:3908   */\n      gt\n        /* \"#utility.yul\":3875:3931   */\n      iszero\n      tag_254\n      jumpi\n        /* \"#utility.yul\":3911:3929   */\n      tag_255\n      tag_197\n      jump\t// in\n    tag_255:\n        /* \"#utility.yul\":3875:3931   */\n    tag_254:\n        /* \"#utility.yul\":3949:3978   */\n      tag_256\n        /* \"#utility.yul\":3971:3977   */\n      dup3\n        /* \"#utility.yul\":3949:3978   */\n      tag_193\n      jump\t// in\n    tag_256:\n        /* \"#utility.yul\":3941:3978   */\n      swap1\n      pop\n        /* \"#utility.yul\":4033:4037   */\n      0x20\n        /* \"#utility.yul\":4027:4031   */\n      dup2\n        /* \"#utility.yul\":4023:4038   */\n      add\n        /* \"#utility.yul\":4015:4038   */\n      swap1\n      pop\n        /* \"#utility.yul\":3737:4045   */\n      swap2\n      swap1\n      pop\n      jump\t// out\n        /* \"#utility.yul\":4051:4205   */\n    tag_201:\n        /* \"#utility.yul\":4135:4141   */\n      dup3\n        /* \"#utility.yul\":4130:4133   */\n      dup2\n        /* \"#utility.yul\":4125:4128   */\n      dup4\n        /* \"#utility.yul\":4112:4142   */\n      calldatacopy\n        /* \"#utility.yul\":4197:4198   */\n      0x00\n        /* \"#utility.yul\":4188:4194   */\n      dup4\n        /* \"#utility.yul\":4183:4186   */\n      dup4\n        /* \"#utility.yul\":4179:4195   */\n      add\n        /* \"#utility.yul\":4172:4199   */\n      mstore\n        /* \"#utility.yul\":4051:4205   */\n      pop\n      pop\n      pop\n      jump\t// out\n        /* \"#utility.yul\":4211:4623   */\n    tag_202:\n        /* \"#utility.yul\":4289:4294   */\n      0x00\n        /* \"#utility.yul\":4314:4380   */\n      tag_259\n        /* \"#utility.yul\":4330:4379   */\n      tag_260\n        /* \"#utility.yul\":4372:4378   */\n      dup5\n        /* \"#utility.yul\":4330:4379   */\n      tag_200\n      jump\t// in\n    tag_260:\n        /* \"#utility.yul\":4314:4380   */\n      tag_199\n      jump\t// in\n    tag_259:\n        /* \"#utility.yul\":4305:4380   */\n      swap1\n      pop\n        /* \"#utility.yul\":4403:4409   */\n      dup3\n        /* \"#utility.yul\":4396:4401   */\n      dup2\n        /* \"#utility.yul\":4389:4410   */\n      mstore\n        /* \"#utility.yul\":4441:4445   */\n      0x20\n        /* \"#utility.yul\":4434:4439   */\n      dup2\n        /* \"#utility.yul\":4430:4446   */\n      add\n        /* \"#utility.yul\":4479:4482   */\n      dup5\n        /* \"#utility.yul\":4470:4476   */\n      dup5\n        /* \"#utility.yul\":4465:4468   */\n      dup5\n        /* \"#utility.yul\":4461:4477   */\n      add\n        /* \"#utility.yul\":4458:4483   */\n      gt\n        /* \"#utility.yul\":4455:4567   */\n      iszero\n      tag_261\n      jumpi\n        /* \"#utility.yul\":4486:4565   */\n      tag_262\n      tag_196\n      jump\t// in\n    tag_262:\n        /* \"#utility.yul\":4455:4567   */\n    tag_261:\n        /* \"#utility.yul\":4576:4617   */\n      tag_263\n        /* \"#utility.yul\":4610:4616   */\n      dup5\n        /* \"#utility.yul\":4605:4608   */\n      dup3\n        /* \"#utility.yul\":4600:4603   */\n      dup6\n        /* \"#utility.yul\":4576:4617   */\n      tag_201\n      jump\t// in\n    tag_263:\n        /* \"#utility.yul\":4295:4623   */\n      pop\n        /* \"#utility.yul\":4211:4623   */\n      swap4\n      swap3\n      pop\n      pop\n      pop\n      jump\t// out\n        /* \"#utility.yul\":4643:4983   */\n    tag_203:\n        /* \"#utility.yul\":4699:4704   */\n      0x00\n        /* \"#utility.yul\":4748:4751   */\n      dup3\n        /* \"#utility.yul\":4741:4745   */\n      0x1f\n        /* \"#utility.yul\":4733:4739   */\n      dup4\n        /* \"#utility.yul\":4729:4746   */\n      add\n        /* \"#utility.yul\":4725:4752   */\n      slt\n        /* \"#utility.yul\":4715:4837   */\n      tag_265\n      jumpi\n        /* \"#utility.yul\":4756:4835   */\n      tag_266\n      tag_195\n      jump\t// in\n    tag_266:\n        /* \"#utility.yul\":4715:4837   */\n    tag_265:\n        /* \"#utility.yul\":4873:4879   */\n      dup2\n        /* \"#utility.yul\":4860:4880   */\n      calldataload\n        /* \"#utility.yul\":4898:4977   */\n      tag_267\n        /* \"#utility.yul\":4973:4976   */\n      dup5\n        /* \"#utility.yul\":4965:4971   */\n      dup3\n        /* \"#utility.yul\":4958:4962   */\n      0x20\n        /* \"#utility.yul\":4950:4956   */\n      dup7\n        /* \"#utility.yul\":4946:4963   */\n      add\n        /* \"#utility.yul\":4898:4977   */\n      tag_202\n      jump\t// in\n    tag_267:\n        /* \"#utility.yul\":4889:4977   */\n      swap2\n      pop\n        /* \"#utility.yul\":4705:4983   */\n      pop\n        /* \"#utility.yul\":4643:4983   */\n      swap3\n      swap2\n      pop\n      pop\n      jump\t// out\n        /* \"#utility.yul\":4989:5498   */\n    tag_26:\n        /* \"#utility.yul\":5058:5064   */\n      0x00\n        /* \"#utility.yul\":5107:5109   */\n      0x20\n        /* \"#utility.yul\":5095:5104   */\n      dup3\n        /* \"#utility.yul\":5086:5093   */\n      dup5\n        /* \"#utility.yul\":5082:5105   */\n      sub\n        /* \"#utility.yul\":5078:5110   */\n      slt\n        /* \"#utility.yul\":5075:5194   */\n      iszero\n      tag_269\n      jumpi\n        /* \"#utility.yul\":5113:5192   */\n      tag_270\n      tag_182\n      jump\t// in\n    tag_270:\n        /* \"#utility.yul\":5075:5194   */\n    tag_269:\n        /* \"#utility.yul\":5261:5262   */\n      0x00\n        /* \"#utility.yul\":5250:5259   */\n      dup3\n        /* \"#utility.yul\":5246:5263   */\n      add\n        /* \"#utility.yul\":5233:5264   */\n      calldataload\n        /* \"#utility.yul\":5291:5309   */\n      0xffffffffffffffff\n        /* \"#utility.yul\":5283:5289   */\n      dup2\n        /* \"#utility.yul\":5280:5310   */\n      gt\n        /* \"#utility.yul\":5277:5394   */\n      iszero\n      tag_271\n      jumpi\n        /* \"#utility.yul\":5313:5392   */\n      tag_272\n      tag_183\n      jump\t// in\n    tag_272:\n        /* \"#utility.yul\":5277:5394   */\n    tag_271:\n        /* \"#utility.yul\":5418:5481   */\n      tag_273\n        /* \"#utility.yul\":5473:5480   */\n      dup5\n        /* \"#utility.yul\":5464:5470   */\n      dup3\n        /* \"#utility.yul\":5453:5462   */\n      dup6\n        /* \"#utility.yul\":5449:5471   */\n      add\n        /* \"#utility.yul\":5418:5481   */\n      tag_203\n      jump\t// in\n    tag_273:\n        /* \"#utility.yul\":5408:5481   */\n      swap2\n      pop\n        /* \"#utility.yul\":5204:5491   */\n      pop\n        /* \"#utility.yul\":4989:5498   */\n      swap3\n      swap2\n      pop\n      pop\n      jump\t// out\n        /* \"#utility.yul\":5504:5626   */\n    tag_204:\n        /* \"#utility.yul\":5577:5601   */\n      tag_275\n        /* \"#utility.yul\":5595:5600   */\n      dup2\n        /* \"#utility.yul\":5577:5601   */\n      tag_188\n      jump\t// in\n    tag_275:\n        /* \"#utility.yul\":5570:5575   */\n      dup2\n        /* \"#utility.yul\":5567:5602   */\n      eq\n        /* \"#utility.yul\":5557:5620   */\n      tag_276\n      jumpi\n        /* \"#utility.yul\":5616:5617   */\n      0x00\n        /* \"#utility.yul\":5613:5614   */\n      dup1\n        /* \"#utility.yul\":5606:5618   */\n      revert\n        /* \"#utility.yul\":5557:5620   */\n    tag_276:\n        /* \"#utility.yul\":5504:5626   */\n      pop\n      jump\t// out\n        /* \"#utility.yul\":5632:5771   */\n    tag_205:\n        /* \"#utility.yul\":5678:5683   */\n      0x00\n        /* \"#utility.yul\":5716:5722   */\n      dup2\n        /* \"#utility.yul\":5703:5723   */\n      calldataload\n        /* \"#utility.yul\":5694:5723   */\n      swap1\n      pop\n        /* \"#utility.yul\":5732:5765   */\n      tag_278\n        /* \"#utility.yul\":5759:5764   */\n      dup2\n        /* \"#utility.yul\":5732:5765   */\n      tag_204\n      jump\t// in\n    tag_278:\n        /* \"#utility.yul\":5632:5771   */\n      swap3\n      swap2\n      pop\n      pop\n      jump\t// out\n        /* \"#utility.yul\":5777:9186   */\n    tag_30:\n        /* \"#utility.yul\":6016:6022   */\n      0x00\n        /* \"#utility.yul\":6024:6030   */\n      dup1\n        /* \"#utility.yul\":6032:6038   */\n      0x00\n        /* \"#utility.yul\":6040:6046   */\n      dup1\n        /* \"#utility.yul\":6048:6054   */\n      0x00\n        /* \"#utility.yul\":6056:6062   */\n      dup1\n        /* \"#utility.yul\":6064:6070   */\n      0x00\n        /* \"#utility.yul\":6072:6078   */\n      dup1\n        /* \"#utility.yul\":6080:6086   */\n      0x00\n        /* \"#utility.yul\":6088:6094   */\n      dup1\n        /* \"#utility.yul\":6096:6103   */\n      0x00\n        /* \"#utility.yul\":6146:6149   */\n      0x0160\n        /* \"#utility.yul\":6134:6143   */\n      dup13\n        /* \"#utility.yul\":6125:6132   */\n      dup15\n        /* \"#utility.yul\":6121:6144   */\n      sub\n        /* \"#utility.yul\":6117:6150   */\n      slt\n        /* \"#utility.yul\":6114:6234   */\n      iszero\n      tag_280\n      jumpi\n        /* \"#utility.yul\":6153:6232   */\n      tag_281\n      tag_182\n      jump\t// in\n    tag_281:\n        /* \"#utility.yul\":6114:6234   */\n    tag_280:\n        /* \"#utility.yul\":6301:6302   */\n      0x00\n        /* \"#utility.yul\":6290:6299   */\n      dup13\n        /* \"#utility.yul\":6286:6303   */\n      add\n        /* \"#utility.yul\":6273:6304   */\n      calldataload\n        /* \"#utility.yul\":6331:6349   */\n      0xffffffffffffffff\n        /* \"#utility.yul\":6323:6329   */\n      dup2\n        /* \"#utility.yul\":6320:6350   */\n      gt\n        /* \"#utility.yul\":6317:6434   */\n      iszero\n      tag_282\n      jumpi\n        /* \"#utility.yul\":6353:6432   */\n      tag_283\n      tag_183\n      jump\t// in\n    tag_283:\n        /* \"#utility.yul\":6317:6434   */\n    tag_282:\n        /* \"#utility.yul\":6458:6521   */\n      tag_284\n        /* \"#utility.yul\":6513:6520   */\n      dup15\n        /* \"#utility.yul\":6504:6510   */\n      dup3\n        /* \"#utility.yul\":6493:6502   */\n      dup16\n        /* \"#utility.yul\":6489:6511   */\n      add\n        /* \"#utility.yul\":6458:6521   */\n      tag_203\n      jump\t// in\n    tag_284:\n        /* \"#utility.yul\":6448:6521   */\n      swap12\n      pop\n        /* \"#utility.yul\":6244:6531   */\n      pop\n        /* \"#utility.yul\":6598:6600   */\n      0x20\n        /* \"#utility.yul\":6587:6596   */\n      dup13\n        /* \"#utility.yul\":6583:6601   */\n      add\n        /* \"#utility.yul\":6570:6602   */\n      calldataload\n        /* \"#utility.yul\":6629:6647   */\n      0xffffffffffffffff\n        /* \"#utility.yul\":6621:6627   */\n      dup2\n        /* \"#utility.yul\":6618:6648   */\n      gt\n        /* \"#utility.yul\":6615:6732   */\n      iszero\n      tag_285\n      jumpi\n        /* \"#utility.yul\":6651:6730   */\n      tag_286\n      tag_183\n      jump\t// in\n    tag_286:\n        /* \"#utility.yul\":6615:6732   */\n    tag_285:\n        /* \"#utility.yul\":6756:6819   */\n      tag_287\n        /* \"#utility.yul\":6811:6818   */\n      dup15\n        /* \"#utility.yul\":6802:6808   */\n      dup3\n        /* \"#utility.yul\":6791:6800   */\n      dup16\n        /* \"#utility.yul\":6787:6809   */\n      add\n        /* \"#utility.yul\":6756:6819   */\n      tag_203\n      jump\t// in\n    tag_287:\n        /* \"#utility.yul\":6746:6819   */\n      swap11\n      pop\n        /* \"#utility.yul\":6541:6829   */\n      pop\n        /* \"#utility.yul\":6896:6898   */\n      0x40\n        /* \"#utility.yul\":6885:6894   */\n      dup13\n        /* \"#utility.yul\":6881:6899   */\n      add\n        /* \"#utility.yul\":6868:6900   */\n      calldataload\n        /* \"#utility.yul\":6927:6945   */\n      0xffffffffffffffff\n        /* \"#utility.yul\":6919:6925   */\n      dup2\n        /* \"#utility.yul\":6916:6946   */\n      gt\n        /* \"#utility.yul\":6913:7030   */\n      iszero\n      tag_288\n      jumpi\n        /* \"#utility.yul\":6949:7028   */\n      tag_289\n      tag_183\n      jump\t// in\n    tag_289:\n        /* \"#utility.yul\":6913:7030   */\n    tag_288:\n        /* \"#utility.yul\":7054:7117   */\n      tag_290\n        /* \"#utility.yul\":7109:7116   */\n      dup15\n        /* \"#utility.yul\":7100:7106   */\n      dup3\n        /* \"#utility.yul\":7089:7098   */\n      dup16\n        /* \"#utility.yul\":7085:7107   */\n      add\n        /* \"#utility.yul\":7054:7117   */\n      tag_203\n      jump\t// in\n    tag_290:\n        /* \"#utility.yul\":7044:7117   */\n      swap10\n      pop\n        /* \"#utility.yul\":6839:7127   */\n      pop\n        /* \"#utility.yul\":7194:7196   */\n      0x60\n        /* \"#utility.yul\":7183:7192   */\n      dup13\n        /* \"#utility.yul\":7179:7197   */\n      add\n        /* \"#utility.yul\":7166:7198   */\n      calldataload\n        /* \"#utility.yul\":7225:7243   */\n      0xffffffffffffffff\n        /* \"#utility.yul\":7217:7223   */\n      dup2\n        /* \"#utility.yul\":7214:7244   */\n      gt\n        /* \"#utility.yul\":7211:7328   */\n      iszero\n      tag_291\n      jumpi\n        /* \"#utility.yul\":7247:7326   */\n      tag_292\n      tag_183\n      jump\t// in\n    tag_292:\n        /* \"#utility.yul\":7211:7328   */\n    tag_291:\n        /* \"#utility.yul\":7352:7415   */\n      tag_293\n        /* \"#utility.yul\":7407:7414   */\n      dup15\n        /* \"#utility.yul\":7398:7404   */\n      dup3\n        /* \"#utility.yul\":7387:7396   */\n      dup16\n        /* \"#utility.yul\":7383:7405   */\n      add\n        /* \"#utility.yul\":7352:7415   */\n      tag_203\n      jump\t// in\n    tag_293:\n        /* \"#utility.yul\":7342:7415   */\n      swap9\n      pop\n        /* \"#utility.yul\":7137:7425   */\n      pop\n        /* \"#utility.yul\":7492:7495   */\n      0x80\n        /* \"#utility.yul\":7481:7490   */\n      dup13\n        /* \"#utility.yul\":7477:7496   */\n      add\n        /* \"#utility.yul\":7464:7497   */\n      calldataload\n        /* \"#utility.yul\":7524:7542   */\n      0xffffffffffffffff\n        /* \"#utility.yul\":7516:7522   */\n      dup2\n        /* \"#utility.yul\":7513:7543   */\n      gt\n        /* \"#utility.yul\":7510:7627   */\n      iszero\n      tag_294\n      jumpi\n        /* \"#utility.yul\":7546:7625   */\n      tag_295\n      tag_183\n      jump\t// in\n    tag_295:\n        /* \"#utility.yul\":7510:7627   */\n    tag_294:\n        /* \"#utility.yul\":7651:7714   */\n      tag_296\n        /* \"#utility.yul\":7706:7713   */\n      dup15\n        /* \"#utility.yul\":7697:7703   */\n      dup3\n        /* \"#utility.yul\":7686:7695   */\n      dup16\n        /* \"#utility.yul\":7682:7704   */\n      add\n        /* \"#utility.yul\":7651:7714   */\n      tag_203\n      jump\t// in\n    tag_296:\n        /* \"#utility.yul\":7641:7714   */\n      swap8\n      pop\n        /* \"#utility.yul\":7435:7724   */\n      pop\n        /* \"#utility.yul\":7763:7766   */\n      0xa0\n        /* \"#utility.yul\":7790:7843   */\n      tag_297\n        /* \"#utility.yul\":7835:7842   */\n      dup15\n        /* \"#utility.yul\":7826:7832   */\n      dup3\n        /* \"#utility.yul\":7815:7824   */\n      dup16\n        /* \"#utility.yul\":7811:7833   */\n      add\n        /* \"#utility.yul\":7790:7843   */\n      tag_205\n      jump\t// in\n    tag_297:\n        /* \"#utility.yul\":7780:7843   */\n      swap7\n      pop\n        /* \"#utility.yul\":7734:7853   */\n      pop\n        /* \"#utility.yul\":7920:7923   */\n      0xc0\n        /* \"#utility.yul\":7909:7918   */\n      dup13\n        /* \"#utility.yul\":7905:7924   */\n      add\n        /* \"#utility.yul\":7892:7925   */\n      calldataload\n        /* \"#utility.yul\":7952:7970   */\n      0xffffffffffffffff\n        /* \"#utility.yul\":7944:7950   */\n      dup2\n        /* \"#utility.yul\":7941:7971   */\n      gt\n        /* \"#utility.yul\":7938:8055   */\n      iszero\n      tag_298\n      jumpi\n        /* \"#utility.yul\":7974:8053   */\n      tag_299\n      tag_183\n      jump\t// in\n    tag_299:\n        /* \"#utility.yul\":7938:8055   */\n    tag_298:\n        /* \"#utility.yul\":8079:8142   */\n      tag_300\n        /* \"#utility.yul\":8134:8141   */\n      dup15\n        /* \"#utility.yul\":8125:8131   */\n      dup3\n        /* \"#utility.yul\":8114:8123   */\n      dup16\n        /* \"#utility.yul\":8110:8132   */\n      add\n        /* \"#utility.yul\":8079:8142   */\n      tag_203\n      jump\t// in\n    tag_300:\n        /* \"#utility.yul\":8069:8142   */\n      swap6\n      pop\n        /* \"#utility.yul\":7863:8152   */\n      pop\n        /* \"#utility.yul\":8191:8194   */\n      0xe0\n        /* \"#utility.yul\":8218:8271   */\n      tag_301\n        /* \"#utility.yul\":8263:8270   */\n      dup15\n        /* \"#utility.yul\":8254:8260   */\n      dup3\n        /* \"#utility.yul\":8243:8252   */\n      dup16\n        /* \"#utility.yul\":8239:8261   */\n      add\n        /* \"#utility.yul\":8218:8271   */\n      tag_205\n      jump\t// in\n    tag_301:\n        /* \"#utility.yul\":8208:8271   */\n      swap5\n      pop\n        /* \"#utility.yul\":8162:8281   */\n      pop\n        /* \"#utility.yul\":8348:8351   */\n      0x0100\n        /* \"#utility.yul\":8337:8346   */\n      dup13\n        /* \"#utility.yul\":8333:8352   */\n      add\n        /* \"#utility.yul\":8320:8353   */\n      calldataload\n        /* \"#utility.yul\":8380:8398   */\n      0xffffffffffffffff\n        /* \"#utility.yul\":8372:8378   */\n      dup2\n        /* \"#utility.yul\":8369:8399   */\n      gt\n        /* \"#utility.yul\":8366:8483   */\n      iszero\n      tag_302\n      jumpi\n        /* \"#utility.yul\":8402:8481   */\n      tag_303\n      tag_183\n      jump\t// in\n    tag_303:\n        /* \"#utility.yul\":8366:8483   */\n    tag_302:\n        /* \"#utility.yul\":8507:8570   */\n      tag_304\n        /* \"#utility.yul\":8562:8569   */\n      dup15\n        /* \"#utility.yul\":8553:8559   */\n      dup3\n        /* \"#utility.yul\":8542:8551   */\n      dup16\n        /* \"#utility.yul\":8538:8560   */\n      add\n        /* \"#utility.yul\":8507:8570   */\n      tag_203\n      jump\t// in\n    tag_304:\n        /* \"#utility.yul\":8497:8570   */\n      swap4\n      pop\n        /* \"#utility.yul\":8291:8580   */\n      pop\n        /* \"#utility.yul\":8647:8650   */\n      0x0120\n        /* \"#utility.yul\":8636:8645   */\n      dup13\n        /* \"#utility.yul\":8632:8651   */\n      add\n        /* \"#utility.yul\":8619:8652   */\n      calldataload\n        /* \"#utility.yul\":8679:8697   */\n      0xffffffffffffffff\n        /* \"#utility.yul\":8671:8677   */\n      dup2\n        /* \"#utility.yul\":8668:8698   */\n      gt\n        /* \"#utility.yul\":8665:8782   */\n      iszero\n      tag_305\n      jumpi\n        /* \"#utility.yul\":8701:8780   */\n      tag_306\n      tag_183\n      jump\t// in\n    tag_306:\n        /* \"#utility.yul\":8665:8782   */\n    tag_305:\n        /* \"#utility.yul\":8806:8869   */\n      tag_307\n        /* \"#utility.yul\":8861:8868   */\n      dup15\n        /* \"#utility.yul\":8852:8858   */\n      dup3\n        /* \"#utility.yul\":8841:8850   */\n      dup16\n        /* \"#utility.yul\":8837:8859   */\n      add\n        /* \"#utility.yul\":8806:8869   */\n      tag_203\n      jump\t// in\n    tag_307:\n        /* \"#utility.yul\":8796:8869   */\n      swap3\n      pop\n        /* \"#utility.yul\":8590:8879   */\n      pop\n        /* \"#utility.yul\":8946:8949   */\n      0x0140\n        /* \"#utility.yul\":8935:8944   */\n      dup13\n        /* \"#utility.yul\":8931:8950   */\n      add\n        /* \"#utility.yul\":8918:8951   */\n      calldataload\n        /* \"#utility.yul\":8978:8996   */\n      0xffffffffffffffff\n        /* \"#utility.yul\":8970:8976   */\n      dup2\n        /* \"#utility.yul\":8967:8997   */\n      gt\n        /* \"#utility.yul\":8964:9081   */\n      iszero\n      tag_308\n      jumpi\n        /* \"#utility.yul\":9000:9079   */\n      tag_309\n      tag_183\n      jump\t// in\n    tag_309:\n        /* \"#utility.yul\":8964:9081   */\n    tag_308:\n        /* \"#utility.yul\":9106:9169   */\n      tag_310\n        /* \"#utility.yul\":9161:9168   */\n      dup15\n        /* \"#utility.yul\":9152:9158   */\n      dup3\n        /* \"#utility.yul\":9141:9150   */\n      dup16\n        /* \"#utility.yul\":9137:9159   */\n      add\n        /* \"#utility.yul\":9106:9169   */\n      tag_203\n      jump\t// in\n    tag_310:\n        /* \"#utility.yul\":9095:9169   */\n      swap2\n      pop\n        /* \"#utility.yul\":8889:9179   */\n      pop\n        /* \"#utility.yul\":5777:9186   */\n      swap3\n      swap6\n      swap9\n      swap12\n      pop\n      swap3\n      swap6\n      swap9\n      swap12\n      swap1\n      swap4\n      swap7\n      swap10\n      pop\n      jump\t// out\n        /* \"#utility.yul\":9192:9310   */\n    tag_206:\n        /* \"#utility.yul\":9279:9303   */\n      tag_312\n        /* \"#utility.yul\":9297:9302   */\n      dup2\n        /* \"#utility.yul\":9279:9303   */\n      tag_185\n      jump\t// in\n    tag_312:\n        /* \"#utility.yul\":9274:9277   */\n      dup3\n        /* \"#utility.yul\":9267:9304   */\n      mstore\n        /* \"#utility.yul\":9192:9310   */\n      pop\n      pop\n      jump\t// out\n        /* \"#utility.yul\":9316:9538   */\n    tag_35:\n        /* \"#utility.yul\":9409:9413   */\n      0x00\n        /* \"#utility.yul\":9447:9449   */\n      0x20\n        /* \"#utility.yul\":9436:9445   */\n      dup3\n        /* \"#utility.yul\":9432:9450   */\n      add\n        /* \"#utility.yul\":9424:9450   */\n      swap1\n      pop\n        /* \"#utility.yul\":9460:9531   */\n      tag_314\n        /* \"#utility.yul\":9528:9529   */\n      0x00\n        /* \"#utility.yul\":9517:9526   */\n      dup4\n        /* \"#utility.yul\":9513:9530   */\n      add\n        /* \"#utility.yul\":9504:9510   */\n      dup5\n        /* \"#utility.yul\":9460:9531   */\n      tag_206\n      jump\t// in\n    tag_314:\n        /* \"#utility.yul\":9316:9538   */\n      swap3\n      swap2\n      pop\n      pop\n      jump\t// out\n        /* \"#utility.yul\":9544:10058   */\n    tag_40:\n        /* \"#utility.yul\":9705:9709   */\n      0x00\n        /* \"#utility.yul\":9743:9745   */\n      0x40\n        /* \"#utility.yul\":9732:9741   */\n      dup3\n        /* \"#utility.yul\":9728:9746   */\n      add\n        /* \"#utility.yul\":9720:9746   */\n      swap1\n      pop\n        /* \"#utility.yul\":9792:9801   */\n      dup2\n        /* \"#utility.yul\":9786:9790   */\n      dup2\n        /* \"#utility.yul\":9782:9802   */\n      sub\n        /* \"#utility.yul\":9778:9779   */\n      0x00\n        /* \"#utility.yul\":9767:9776   */\n      dup4\n        /* \"#utility.yul\":9763:9780   */\n      add\n        /* \"#utility.yul\":9756:9803   */\n      mstore\n        /* \"#utility.yul\":9820:9898   */\n      tag_316\n        /* \"#utility.yul\":9893:9897   */\n      dup2\n        /* \"#utility.yul\":9884:9890   */\n      dup6\n        /* \"#utility.yul\":9820:9898   */\n      tag_194\n      jump\t// in\n    tag_316:\n        /* \"#utility.yul\":9812:9898   */\n      swap1\n      pop\n        /* \"#utility.yul\":9945:9954   */\n      dup2\n        /* \"#utility.yul\":9939:9943   */\n      dup2\n        /* \"#utility.yul\":9935:9955   */\n      sub\n        /* \"#utility.yul\":9930:9932   */\n      0x20\n        /* \"#utility.yul\":9919:9928   */\n      dup4\n        /* \"#utility.yul\":9915:9933   */\n      add\n        /* \"#utility.yul\":9908:9956   */\n      mstore\n        /* \"#utility.yul\":9973:10051   */\n      tag_317\n        /* \"#utility.yul\":10046:10050   */\n      dup2\n        /* \"#utility.yul\":10037:10043   */\n      dup5\n        /* \"#utility.yul\":9973:10051   */\n      tag_194\n      jump\t// in\n    tag_317:\n        /* \"#utility.yul\":9965:10051   */\n      swap1\n      pop\n        /* \"#utility.yul\":9544:10058   */\n      swap4\n      swap3\n      pop\n      pop\n      pop\n      jump\t// out\n        /* \"#utility.yul\":10064:11809   */\n    tag_44:\n        /* \"#utility.yul\":10521:10525   */\n      0x00\n        /* \"#utility.yul\":10559:10562   */\n      0x0120\n        /* \"#utility.yul\":10548:10557   */\n      dup3\n        /* \"#utility.yul\":10544:10563   */\n      add\n        /* \"#utility.yul\":10536:10563   */\n      swap1\n      pop\n        /* \"#utility.yul\":10609:10618   */\n      dup2\n        /* \"#utility.yul\":10603:10607   */\n      dup2\n        /* \"#utility.yul\":10599:10619   */\n      sub\n        /* \"#utility.yul\":10595:10596   */\n      0x00\n        /* \"#utility.yul\":10584:10593   */\n      dup4\n        /* \"#utility.yul\":10580:10597   */\n      add\n        /* \"#utility.yul\":10573:10620   */\n      mstore\n        /* \"#utility.yul\":10637:10715   */\n      tag_319\n        /* \"#utility.yul\":10710:10714   */\n      dup2\n        /* \"#utility.yul\":10701:10707   */\n      dup13\n        /* \"#utility.yul\":10637:10715   */\n      tag_194\n      jump\t// in\n    tag_319:\n        /* \"#utility.yul\":10629:10715   */\n      swap1\n      pop\n        /* \"#utility.yul\":10762:10771   */\n      dup2\n        /* \"#utility.yul\":10756:10760   */\n      dup2\n        /* \"#utility.yul\":10752:10772   */\n      sub\n        /* \"#utility.yul\":10747:10749   */\n      0x20\n        /* \"#utility.yul\":10736:10745   */\n      dup4\n        /* \"#utility.yul\":10732:10750   */\n      add\n        /* \"#utility.yul\":10725:10773   */\n      mstore\n        /* \"#utility.yul\":10790:10868   */\n      tag_320\n        /* \"#utility.yul\":10863:10867   */\n      dup2\n        /* \"#utility.yul\":10854:10860   */\n      dup12\n        /* \"#utility.yul\":10790:10868   */\n      tag_194\n      jump\t// in\n    tag_320:\n        /* \"#utility.yul\":10782:10868   */\n      swap1\n      pop\n        /* \"#utility.yul\":10915:10924   */\n      dup2\n        /* \"#utility.yul\":10909:10913   */\n      dup2\n        /* \"#utility.yul\":10905:10925   */\n      sub\n        /* \"#utility.yul\":10900:10902   */\n      0x40\n        /* \"#utility.yul\":10889:10898   */\n      dup4\n        /* \"#utility.yul\":10885:10903   */\n      add\n        /* \"#utility.yul\":10878:10926   */\n      mstore\n        /* \"#utility.yul\":10943:11021   */\n      tag_321\n        /* \"#utility.yul\":11016:11020   */\n      dup2\n        /* \"#utility.yul\":11007:11013   */\n      dup11\n        /* \"#utility.yul\":10943:11021   */\n      tag_194\n      jump\t// in\n    tag_321:\n        /* \"#utility.yul\":10935:11021   */\n      swap1\n      pop\n        /* \"#utility.yul\":11068:11077   */\n      dup2\n        /* \"#utility.yul\":11062:11066   */\n      dup2\n        /* \"#utility.yul\":11058:11078   */\n      sub\n        /* \"#utility.yul\":11053:11055   */\n      0x60\n        /* \"#utility.yul\":11042:11051   */\n      dup4\n        /* \"#utility.yul\":11038:11056   */\n      add\n        /* \"#utility.yul\":11031:11079   */\n      mstore\n        /* \"#utility.yul\":11096:11174   */\n      tag_322\n        /* \"#utility.yul\":11169:11173   */\n      dup2\n        /* \"#utility.yul\":11160:11166   */\n      dup10\n        /* \"#utility.yul\":11096:11174   */\n      tag_194\n      jump\t// in\n    tag_322:\n        /* \"#utility.yul\":11088:11174   */\n      swap1\n      pop\n        /* \"#utility.yul\":11222:11231   */\n      dup2\n        /* \"#utility.yul\":11216:11220   */\n      dup2\n        /* \"#utility.yul\":11212:11232   */\n      sub\n        /* \"#utility.yul\":11206:11209   */\n      0x80\n        /* \"#utility.yul\":11195:11204   */\n      dup4\n        /* \"#utility.yul\":11191:11210   */\n      add\n        /* \"#utility.yul\":11184:11233   */\n      mstore\n        /* \"#utility.yul\":11250:11328   */\n      tag_323\n        /* \"#utility.yul\":11323:11327   */\n      dup2\n        /* \"#utility.yul\":11314:11320   */\n      dup9\n        /* \"#utility.yul\":11250:11328   */\n      tag_194\n      jump\t// in\n    tag_323:\n        /* \"#utility.yul\":11242:11328   */\n      swap1\n      pop\n        /* \"#utility.yul\":11338:11411   */\n      tag_324\n        /* \"#utility.yul\":11406:11409   */\n      0xa0\n        /* \"#utility.yul\":11395:11404   */\n      dup4\n        /* \"#utility.yul\":11391:11410   */\n      add\n        /* \"#utility.yul\":11382:11388   */\n      dup8\n        /* \"#utility.yul\":11338:11411   */\n      tag_189\n      jump\t// in\n    tag_324:\n        /* \"#utility.yul\":11459:11468   */\n      dup2\n        /* \"#utility.yul\":11453:11457   */\n      dup2\n        /* \"#utility.yul\":11449:11469   */\n      sub\n        /* \"#utility.yul\":11443:11446   */\n      0xc0\n        /* \"#utility.yul\":11432:11441   */\n      dup4\n        /* \"#utility.yul\":11428:11447   */\n      add\n        /* \"#utility.yul\":11421:11470   */\n      mstore\n        /* \"#utility.yul\":11487:11565   */\n      tag_325\n        /* \"#utility.yul\":11560:11564   */\n      dup2\n        /* \"#utility.yul\":11551:11557   */\n      dup7\n        /* \"#utility.yul\":11487:11565   */\n      tag_194\n      jump\t// in\n    tag_325:\n        /* \"#utility.yul\":11479:11565   */\n      swap1\n      pop\n        /* \"#utility.yul\":11575:11648   */\n      tag_326\n        /* \"#utility.yul\":11643:11646   */\n      0xe0\n        /* \"#utility.yul\":11632:11641   */\n      dup4\n        /* \"#utility.yul\":11628:11647   */\n      add\n        /* \"#utility.yul\":11619:11625   */\n      dup6\n        /* \"#utility.yul\":11575:11648   */\n      tag_189\n      jump\t// in\n    tag_326:\n        /* \"#utility.yul\":11696:11705   */\n      dup2\n        /* \"#utility.yul\":11690:11694   */\n      dup2\n        /* \"#utility.yul\":11686:11706   */\n      sub\n        /* \"#utility.yul\":11680:11683   */\n      0x0100\n        /* \"#utility.yul\":11669:11678   */\n      dup4\n        /* \"#utility.yul\":11665:11684   */\n      add\n        /* \"#utility.yul\":11658:11707   */\n      mstore\n        /* \"#utility.yul\":11724:11802   */\n      tag_327\n        /* \"#utility.yul\":11797:11801   */\n      dup2\n        /* \"#utility.yul\":11788:11794   */\n      dup5\n        /* \"#utility.yul\":11724:11802   */\n      tag_194\n      jump\t// in\n    tag_327:\n        /* \"#utility.yul\":11716:11802   */\n      swap1\n      pop\n        /* \"#utility.yul\":10064:11809   */\n      swap11\n      swap10\n      pop\n      pop\n      pop\n      pop\n      pop\n      pop\n      pop\n      pop\n      pop\n      pop\n      jump\t// out\n        /* \"#utility.yul\":11815:13247   */\n    tag_55:\n        /* \"#utility.yul\":12196:12200   */\n      0x00\n        /* \"#utility.yul\":12234:12237   */\n      0xe0\n        /* \"#utility.yul\":12223:12232   */\n      dup3\n        /* \"#utility.yul\":12219:12238   */\n      add\n        /* \"#utility.yul\":12211:12238   */\n      swap1\n      pop\n        /* \"#utility.yul\":12284:12293   */\n      dup2\n        /* \"#utility.yul\":12278:12282   */\n      dup2\n        /* \"#utility.yul\":12274:12294   */\n      sub\n        /* \"#utility.yul\":12270:12271   */\n      0x00\n        /* \"#utility.yul\":12259:12268   */\n      dup4\n        /* \"#utility.yul\":12255:12272   */\n      add\n        /* \"#utility.yul\":12248:12295   */\n      mstore\n        /* \"#utility.yul\":12312:12390   */\n      tag_329\n        /* \"#utility.yul\":12385:12389   */\n      dup2\n        /* \"#utility.yul\":12376:12382   */\n      dup11\n        /* \"#utility.yul\":12312:12390   */\n      tag_194\n      jump\t// in\n    tag_329:\n        /* \"#utility.yul\":12304:12390   */\n      swap1\n      pop\n        /* \"#utility.yul\":12437:12446   */\n      dup2\n        /* \"#utility.yul\":12431:12435   */\n      dup2\n        /* \"#utility.yul\":12427:12447   */\n      sub\n        /* \"#utility.yul\":12422:12424   */\n      0x20\n        /* \"#utility.yul\":12411:12420   */\n      dup4\n        /* \"#utility.yul\":12407:12425   */\n      add\n        /* \"#utility.yul\":12400:12448   */\n      mstore\n        /* \"#utility.yul\":12465:12543   */\n      tag_330\n        /* \"#utility.yul\":12538:12542   */\n      dup2\n        /* \"#utility.yul\":12529:12535   */\n      dup10\n        /* \"#utility.yul\":12465:12543   */\n      tag_194\n      jump\t// in\n    tag_330:\n        /* \"#utility.yul\":12457:12543   */\n      swap1\n      pop\n        /* \"#utility.yul\":12590:12599   */\n      dup2\n        /* \"#utility.yul\":12584:12588   */\n      dup2\n        /* \"#utility.yul\":12580:12600   */\n      sub\n        /* \"#utility.yul\":12575:12577   */\n      0x40\n        /* \"#utility.yul\":12564:12573   */\n      dup4\n        /* \"#utility.yul\":12560:12578   */\n      add\n        /* \"#utility.yul\":12553:12601   */\n      mstore\n        /* \"#utility.yul\":12618:12696   */\n      tag_331\n        /* \"#utility.yul\":12691:12695   */\n      dup2\n        /* \"#utility.yul\":12682:12688   */\n      dup9\n        /* \"#utility.yul\":12618:12696   */\n      tag_194\n      jump\t// in\n    tag_331:\n        /* \"#utility.yul\":12610:12696   */\n      swap1\n      pop\n        /* \"#utility.yul\":12743:12752   */\n      dup2\n        /* \"#utility.yul\":12737:12741   */\n      dup2\n        /* \"#utility.yul\":12733:12753   */\n      sub\n        /* \"#utility.yul\":12728:12730   */\n      0x60\n        /* \"#utility.yul\":12717:12726   */\n      dup4\n        /* \"#utility.yul\":12713:12731   */\n      add\n        /* \"#utility.yul\":12706:12754   */\n      mstore\n        /* \"#utility.yul\":12771:12849   */\n      tag_332\n        /* \"#utility.yul\":12844:12848   */\n      dup2\n        /* \"#utility.yul\":12835:12841   */\n      dup8\n        /* \"#utility.yul\":12771:12849   */\n      tag_194\n      jump\t// in\n    tag_332:\n        /* \"#utility.yul\":12763:12849   */\n      swap1\n      pop\n        /* \"#utility.yul\":12897:12906   */\n      dup2\n        /* \"#utility.yul\":12891:12895   */\n      dup2\n        /* \"#utility.yul\":12887:12907   */\n      sub\n        /* \"#utility.yul\":12881:12884   */\n      0x80\n        /* \"#utility.yul\":12870:12879   */\n      dup4\n        /* \"#utility.yul\":12866:12885   */\n      add\n        /* \"#utility.yul\":12859:12908   */\n      mstore\n        /* \"#utility.yul\":12925:13003   */\n      tag_333\n        /* \"#utility.yul\":12998:13002   */\n      dup2\n        /* \"#utility.yul\":12989:12995   */\n      dup7\n        /* \"#utility.yul\":12925:13003   */\n      tag_194\n      jump\t// in\n    tag_333:\n        /* \"#utility.yul\":12917:13003   */\n      swap1\n      pop\n        /* \"#utility.yul\":13013:13086   */\n      tag_334\n        /* \"#utility.yul\":13081:13084   */\n      0xa0\n        /* \"#utility.yul\":13070:13079   */\n      dup4\n        /* \"#utility.yul\":13066:13085   */\n      add\n        /* \"#utility.yul\":13057:13063   */\n      dup6\n        /* \"#utility.yul\":13013:13086   */\n      tag_189\n      jump\t// in\n    tag_334:\n        /* \"#utility.yul\":13134:13143   */\n      dup2\n        /* \"#utility.yul\":13128:13132   */\n      dup2\n        /* \"#utility.yul\":13124:13144   */\n      sub\n        /* \"#utility.yul\":13118:13121   */\n      0xc0\n        /* \"#utility.yul\":13107:13116   */\n      dup4\n        /* \"#utility.yul\":13103:13122   */\n      add\n        /* \"#utility.yul\":13096:13145   */\n      mstore\n        /* \"#utility.yul\":13162:13240   */\n      tag_335\n        /* \"#utility.yul\":13235:13239   */\n      dup2\n        /* \"#utility.yul\":13226:13232   */\n      dup5\n        /* \"#utility.yul\":13162:13240   */\n      tag_194\n      jump\t// in\n    tag_335:\n        /* \"#utility.yul\":13154:13240   */\n      swap1\n      pop\n        /* \"#utility.yul\":11815:13247   */\n      swap9\n      swap8\n      pop\n      pop\n      pop\n      pop\n      pop\n      pop\n      pop\n      pop\n      jump\t// out\n        /* \"#utility.yul\":13253:13433   */\n    tag_207:\n        /* \"#utility.yul\":13301:13378   */\n      0x4e487b7100000000000000000000000000000000000000000000000000000000\n        /* \"#utility.yul\":13298:13299   */\n      0x00\n        /* \"#utility.yul\":13291:13379   */\n      mstore\n        /* \"#utility.yul\":13398:13402   */\n      0x22\n        /* \"#utility.yul\":13395:13396   */\n      0x04\n        /* \"#utility.yul\":13388:13403   */\n      mstore\n        /* \"#utility.yul\":13422:13426   */\n      0x24\n        /* \"#utility.yul\":13419:13420   */\n      0x00\n        /* \"#utility.yul\":13412:13427   */\n      revert\n        /* \"#utility.yul\":13439:13759   */\n    tag_66:\n        /* \"#utility.yul\":13483:13489   */\n      0x00\n        /* \"#utility.yul\":13520:13521   */\n      0x02\n        /* \"#utility.yul\":13514:13518   */\n      dup3\n        /* \"#utility.yul\":13510:13522   */\n      div\n        /* \"#utility.yul\":13500:13522   */\n      swap1\n      pop\n        /* \"#utility.yul\":13567:13568   */\n      0x01\n        /* \"#utility.yul\":13561:13565   */\n      dup3\n        /* \"#utility.yul\":13557:13569   */\n      and\n        /* \"#utility.yul\":13588:13606   */\n      dup1\n        /* \"#utility.yul\":13578:13659   */\n      tag_338\n      jumpi\n        /* \"#utility.yul\":13644:13648   */\n      0x7f\n        /* \"#utility.yul\":13636:13642   */\n      dup3\n        /* \"#utility.yul\":13632:13649   */\n      and\n        /* \"#utility.yul\":13622:13649   */\n      swap2\n      pop\n        /* \"#utility.yul\":13578:13659   */\n    tag_338:\n        /* \"#utility.yul\":13706:13708   */\n      0x20\n        /* \"#utility.yul\":13698:13704   */\n      dup3\n        /* \"#utility.yul\":13695:13709   */\n      lt\n        /* \"#utility.yul\":13675:13693   */\n      dup2\n        /* \"#utility.yul\":13672:13710   */\n      eq\n        /* \"#utility.yul\":13669:13753   */\n      iszero\n      tag_339\n      jumpi\n        /* \"#utility.yul\":13725:13743   */\n      tag_340\n      tag_207\n      jump\t// in\n    tag_340:\n        /* \"#utility.yul\":13669:13753   */\n    tag_339:\n        /* \"#utility.yul\":13490:13759   */\n      pop\n        /* \"#utility.yul\":13439:13759   */\n      swap2\n      swap1\n      pop\n      jump\t// out\n\n    auxdata: 0xa2646970667358221220dfda8f3d8720a1e6d94a24aad96b44aef979abc23c7da56178c2269683e5644464736f6c634300080b0033\n}\n","bytecode":{"linkReferences":{},"object":"60806040523480156200001157600080fd5b5060405162002467380380620024678339818101604052810190620000379190620000e9565b80600260006101000a81548173ffffffffffffffffffffffffffffffffffffffff021916908373ffffffffffffffffffffffffffffffffffffffff160217905550506200011b565b600080fd5b600073ffffffffffffffffffffffffffffffffffffffff82169050919050565b6000620000b18262000084565b9050919050565b620000c381620000a4565b8114620000cf57600080fd5b50565b600081519050620000e381620000b8565b92915050565b6000602082840312156200010257620001016200007f565b5b60006200011284828501620000d2565b91505092915050565b61233c806200012b6000396000f3fe608060405234801561001057600080fd5b50600436106100a95760003560e01c8063509fda0e11610071578063509fda0e14610151578063942886be14610182578063adb4d990146101a8578063ea00962f146101c6578063ede3a670146101e4578063f203c19d1461021a576100a9565b8063061dff9a146100ae578063091bac16146100ca5780631b146ecf146100fb5780632ee50a7914610117578063481c6a7514610133575b600080fd5b6100c860048036038101906100c39190611c44565b610238565b005b6100e460048036038101906100df9190611c44565b610336565b6040516100f2929190611d23565b60405180910390f35b61011560048036038101906101109190611e88565b610507565b005b610131600480360381019061012c9190611efd565b6105c7565b005b61013b610ac5565b60405161014891906120fc565b60405180910390f35b61016b60048036038101906101669190611c44565b610aeb565b604051610179929190612117565b60405180910390f35b61018a610cec565b60405161019f9998979695949392919061214e565b60405180910390f35b6101b06114cd565b6040516101bd91906120fc565b60405180910390f35b6101ce6114f3565b6040516101db91906120fc565b60405180910390f35b6101fe60048036038101906101f99190611c44565b61151c565b604051610211979695949392919061220c565b60405180910390f35b610222611b0b565b60405161022f91906120fc565b60405180910390f35b600260009054906101000a900473ffffffffffffffffffffffffffffffffffffffff1673ffffffffffffffffffffffffffffffffffffffff168173ffffffffffffffffffffffffffffffffffffffff161461029257600080fd5b600460010160149054906101000a900460ff16156102af57600080fd5b600460010160009054906101000a900473ffffffffffffffffffffffffffffffffffffffff16600360006101000a81548173ffffffffffffffffffffffffffffffffffffffff021916908373ffffffffffffffffffffffffffffffffffffffff1602179055506001600460010160146101000a81548160ff02191690831515021790555050565b60006060600160008473ffffffffffffffffffffffffffffffffffffffff1673ffffffffffffffffffffffffffffffffffffffff16815260200190815260200160002060090160009054906101000a900460ff1661039357600080fd5b600260009054906101000a900473ffffffffffffffffffffffffffffffffffffffff1673ffffffffffffffffffffffffffffffffffffffff168373ffffffffffffffffffffffffffffffffffffffff16146103ed57600080fd5b600160008473ffffffffffffffffffffffffffffffffffffffff1673ffffffffffffffffffffffffffffffffffffffff16815260200190815260200160002060070154600160008573ffffffffffffffffffffffffffffffffffffffff1673ffffffffffffffffffffffffffffffffffffffff16815260200190815260200160002060080180805461047e906122d4565b80601f01602080910402602001604051908101604052809291908181526020018280546104aa906122d4565b80156104f75780601f106104cc576101008083540402835291602001916104f7565b820191906000526020600020905b8154815290600101906020018083116104da57829003601f168201915b5050505050905091509150915091565b60405180606001604052808281526020013373ffffffffffffffffffffffffffffffffffffffff1681526020016000151581525060046000820151816000019080519060200190610559929190611b2f565b5060208201518160010160006101000a81548173ffffffffffffffffffffffffffffffffffffffff021916908373ffffffffffffffffffffffffffffffffffffffff16021790555060408201518160010160146101000a81548160ff02191690831515021790555090505050565b600260009054906101000a900473ffffffffffffffffffffffffffffffffffffffff1673ffffffffffffffffffffffffffffffffffffffff163373ffffffffffffffffffffffffffffffffffffffff161461062157600080fd5b6000339050600160008273ffffffffffffffffffffffffffffffffffffffff1673ffffffffffffffffffffffffffffffffffffffff16815260200190815260200160002060090160009054906101000a900460ff161561068057600080fd5b806000806101000a81548173ffffffffffffffffffffffffffffffffffffffff021916908373ffffffffffffffffffffffffffffffffffffffff1602179055508b600160008373ffffffffffffffffffffffffffffffffffffffff1673ffffffffffffffffffffffffffffffffffffffff1681526020019081526020016000206000019080519060200190610716929190611b2f565b508a600160008373ffffffffffffffffffffffffffffffffffffffff1673ffffffffffffffffffffffffffffffffffffffff168152602001908152602001600020600101908051906020019061076d929190611b2f565b5089600160008373ffffffffffffffffffffffffffffffffffffffff1673ffffffffffffffffffffffffffffffffffffffff16815260200190815260200160002060020190805190602001906107c4929190611b2f565b5088600160008373ffffffffffffffffffffffffffffffffffffffff1673ffffffffffffffffffffffffffffffffffffffff168152602001908152602001600020600301908051906020019061081b929190611b2f565b5087600160008373ffffffffffffffffffffffffffffffffffffffff1673ffffffffffffffffffffffffffffffffffffffff1681526020019081526020016000206004019080519060200190610872929190611b2f565b5086600160008373ffffffffffffffffffffffffffffffffffffffff1673ffffffffffffffffffffffffffffffffffffffff1681526020019081526020016000206005018190555085600160008373ffffffffffffffffffffffffffffffffffffffff1673ffffffffffffffffffffffffffffffffffffffff1681526020019081526020016000206006019080519060200190610910929190611b2f565b5084600160008373ffffffffffffffffffffffffffffffffffffffff1673ffffffffffffffffffffffffffffffffffffffff1681526020019081526020016000206007018190555083600160008373ffffffffffffffffffffffffffffffffffffffff1673ffffffffffffffffffffffffffffffffffffffff16815260200190815260200160002060080190805190602001906109ae929190611b2f565b5082600160008373ffffffffffffffffffffffffffffffffffffffff1673ffffffffffffffffffffffffffffffffffffffff168152602001908152602001600020600a019080519060200190610a05929190611b2f565b5081600160008373ffffffffffffffffffffffffffffffffffffffff1673ffffffffffffffffffffffffffffffffffffffff168152602001908152602001600020600b019080519060200190610a5c929190611b2f565b5060018060008373ffffffffffffffffffffffffffffffffffffffff1673ffffffffffffffffffffffffffffffffffffffff16815260200190815260200160002060090160006101000a81548160ff021916908315150217905550505050505050505050505050565b600260009054906101000a900473ffffffffffffffffffffffffffffffffffffffff1681565b606080600160008473ffffffffffffffffffffffffffffffffffffffff1673ffffffffffffffffffffffffffffffffffffffff16815260200190815260200160002060090160009054906101000a900460ff16610b4757600080fd5b600160008473ffffffffffffffffffffffffffffffffffffffff1673ffffffffffffffffffffffffffffffffffffffff168152602001908152602001600020600a01600160008573ffffffffffffffffffffffffffffffffffffffff1673ffffffffffffffffffffffffffffffffffffffff168152602001908152602001600020600b01818054610bd7906122d4565b80601f0160208091040260200160405190810160405280929190818152602001828054610c03906122d4565b8015610c505780601f10610c2557610100808354040283529160200191610c50565b820191906000526020600020905b815481529060010190602001808311610c3357829003601f168201915b50505050509150808054610c63906122d4565b80601f0160208091040260200160405190810160405280929190818152602001828054610c8f906122d4565b8015610cdc5780601f10610cb157610100808354040283529160200191610cdc565b820191906000526020600020905b815481529060010190602001808311610cbf57829003601f168201915b5050505050905091509150915091565b60608060608060606000606060006060600360009054906101000a900473ffffffffffffffffffffffffffffffffffffffff1673ffffffffffffffffffffffffffffffffffffffff163373ffffffffffffffffffffffffffffffffffffffff1614610d5657600080fd5b60016000600260009054906101000a900473ffffffffffffffffffffffffffffffffffffffff1673ffffffffffffffffffffffffffffffffffffffff1673ffffffffffffffffffffffffffffffffffffffff16815260200190815260200160002060000160016000600260009054906101000a900473ffffffffffffffffffffffffffffffffffffffff1673ffffffffffffffffffffffffffffffffffffffff1673ffffffffffffffffffffffffffffffffffffffff16815260200190815260200160002060010160016000600260009054906101000a900473ffffffffffffffffffffffffffffffffffffffff1673ffffffffffffffffffffffffffffffffffffffff1673ffffffffffffffffffffffffffffffffffffffff16815260200190815260200160002060020160016000600260009054906101000a900473ffffffffffffffffffffffffffffffffffffffff1673ffffffffffffffffffffffffffffffffffffffff1673ffffffffffffffffffffffffffffffffffffffff16815260200190815260200160002060030160016000600260009054906101000a900473ffffffffffffffffffffffffffffffffffffffff1673ffffffffffffffffffffffffffffffffffffffff1673ffffffffffffffffffffffffffffffffffffffff16815260200190815260200160002060040160016000600260009054906101000a900473ffffffffffffffffffffffffffffffffffffffff1673ffffffffffffffffffffffffffffffffffffffff1673ffffffffffffffffffffffffffffffffffffffff1681526020019081526020016000206005015460016000600260009054906101000a900473ffffffffffffffffffffffffffffffffffffffff1673ffffffffffffffffffffffffffffffffffffffff1673ffffffffffffffffffffffffffffffffffffffff16815260200190815260200160002060060160016000600260009054906101000a900473ffffffffffffffffffffffffffffffffffffffff1673ffffffffffffffffffffffffffffffffffffffff1673ffffffffffffffffffffffffffffffffffffffff1681526020019081526020016000206007015460016000600260009054906101000a900473ffffffffffffffffffffffffffffffffffffffff1673ffffffffffffffffffffffffffffffffffffffff1673ffffffffffffffffffffffffffffffffffffffff1681526020019081526020016000206008018880546110e8906122d4565b80601f0160208091040260200160405190810160405280929190818152602001828054611114906122d4565b80156111615780601f1061113657610100808354040283529160200191611161565b820191906000526020600020905b81548152906001019060200180831161114457829003601f168201915b50505050509850878054611174906122d4565b80601f01602080910402602001604051908101604052809291908181526020018280546111a0906122d4565b80156111ed5780601f106111c2576101008083540402835291602001916111ed565b820191906000526020600020905b8154815290600101906020018083116111d057829003601f168201915b50505050509750868054611200906122d4565b80601f016020809104026020016040519081016040528092919081815260200182805461122c906122d4565b80156112795780601f1061124e57610100808354040283529160200191611279565b820191906000526020600020905b81548152906001019060200180831161125c57829003601f168201915b5050505050965085805461128c906122d4565b80601f01602080910402602001604051908101604052809291908181526020018280546112b8906122d4565b80156113055780601f106112da57610100808354040283529160200191611305565b820191906000526020600020905b8154815290600101906020018083116112e857829003601f168201915b50505050509550848054611318906122d4565b80601f0160208091040260200160405190810160405280929190818152602001828054611344906122d4565b80156113915780601f1061136657610100808354040283529160200191611391565b820191906000526020600020905b81548152906001019060200180831161137457829003601f168201915b505050505094508280546113a4906122d4565b80601f01602080910402602001604051908101604052809291908181526020018280546113d0906122d4565b801561141d5780601f106113f25761010080835404028352916020019161141d565b820191906000526020600020905b81548152906001019060200180831161140057829003601f168201915b50505050509250808054611430906122d4565b80601f016020809104026020016040519081016040528092919081815260200182805461145c906122d4565b80156114a95780601f1061147e576101008083540402835291602001916114a9565b820191906000526020600020905b81548152906001019060200180831161148c57829003601f168201915b50505050509050985098509850985098509850985098509850909192939495969798565b600360009054906101000a900473ffffffffffffffffffffffffffffffffffffffff1681565b60008060009054906101000a900473ffffffffffffffffffffffffffffffffffffffff16905090565b606080606080606060006060600160008973ffffffffffffffffffffffffffffffffffffffff1673ffffffffffffffffffffffffffffffffffffffff16815260200190815260200160002060090160009054906101000a900460ff1661158157600080fd5b600260009054906101000a900473ffffffffffffffffffffffffffffffffffffffff1673ffffffffffffffffffffffffffffffffffffffff168873ffffffffffffffffffffffffffffffffffffffff16146115db57600080fd5b600160008973ffffffffffffffffffffffffffffffffffffffff1673ffffffffffffffffffffffffffffffffffffffff168152602001908152602001600020600001600160008a73ffffffffffffffffffffffffffffffffffffffff1673ffffffffffffffffffffffffffffffffffffffff168152602001908152602001600020600101600160008b73ffffffffffffffffffffffffffffffffffffffff1673ffffffffffffffffffffffffffffffffffffffff168152602001908152602001600020600201600160008c73ffffffffffffffffffffffffffffffffffffffff1673ffffffffffffffffffffffffffffffffffffffff168152602001908152602001600020600301600160008d73ffffffffffffffffffffffffffffffffffffffff1673ffffffffffffffffffffffffffffffffffffffff168152602001908152602001600020600401600160008e73ffffffffffffffffffffffffffffffffffffffff1673ffffffffffffffffffffffffffffffffffffffff16815260200190815260200160002060050154600160008f73ffffffffffffffffffffffffffffffffffffffff1673ffffffffffffffffffffffffffffffffffffffff1681526020019081526020016000206006018680546117b6906122d4565b80601f01602080910402602001604051908101604052809291908181526020018280546117e2906122d4565b801561182f5780601f106118045761010080835404028352916020019161182f565b820191906000526020600020905b81548152906001019060200180831161181257829003601f168201915b50505050509650858054611842906122d4565b80601f016020809104026020016040519081016040528092919081815260200182805461186e906122d4565b80156118bb5780601f10611890576101008083540402835291602001916118bb565b820191906000526020600020905b81548152906001019060200180831161189e57829003601f168201915b505050505095508480546118ce906122d4565b80601f01602080910402602001604051908101604052809291908181526020018280546118fa906122d4565b80156119475780601f1061191c57610100808354040283529160200191611947565b820191906000526020600020905b81548152906001019060200180831161192a57829003601f168201915b5050505050945083805461195a906122d4565b80601f0160208091040260200160405190810160405280929190818152602001828054611986906122d4565b80156119d35780601f106119a8576101008083540402835291602001916119d3565b820191906000526020600020905b8154815290600101906020018083116119b657829003601f168201915b505050505093508280546119e6906122d4565b80601f0160208091040260200160405190810160405280929190818152602001828054611a12906122d4565b8015611a5f5780601f10611a3457610100808354040283529160200191611a5f565b820191906000526020600020905b815481529060010190602001808311611a4257829003601f168201915b50505050509250808054611a72906122d4565b80601f0160208091040260200160405190810160405280929190818152602001828054611a9e906122d4565b8015611aeb5780601f10611ac057610100808354040283529160200191611aeb565b820191906000526020600020905b815481529060010190602001808311611ace57829003601f168201915b505050505090509650965096509650965096509650919395979092949650565b60008054906101000a900473ffffffffffffffffffffffffffffffffffffffff1681565b828054611b3b906122d4565b90600052602060002090601f016020900481019282611b5d5760008555611ba4565b82601f10611b7657805160ff1916838001178555611ba4565b82800160010185558215611ba4579182015b82811115611ba3578251825591602001919060010190611b88565b5b509050611bb19190611bb5565b5090565b5b80821115611bce576000816000905550600101611bb6565b5090565b6000604051905090565b600080fd5b600080fd5b600073ffffffffffffffffffffffffffffffffffffffff82169050919050565b6000611c1182611be6565b9050919050565b611c2181611c06565b8114611c2c57600080fd5b50565b600081359050611c3e81611c18565b92915050565b600060208284031215611c5a57611c59611bdc565b5b6000611c6884828501611c2f565b91505092915050565b6000819050919050565b611c8481611c71565b82525050565b600081519050919050565b600082825260208201905092915050565b60005b83811015611cc4578082015181840152602081019050611ca9565b83811115611cd3576000848401525b50505050565b6000601f19601f8301169050919050565b6000611cf582611c8a565b611cff8185611c95565b9350611d0f818560208601611ca6565b611d1881611cd9565b840191505092915050565b6000604082019050611d386000830185611c7b565b8181036020830152611d4a8184611cea565b90509392505050565b600080fd5b600080fd5b7f4e487b7100000000000000000000000000000000000000000000000000000000600052604160045260246000fd5b611d9582611cd9565b810181811067ffffffffffffffff82111715611db457611db3611d5d565b5b80604052505050565b6000611dc7611bd2565b9050611dd38282611d8c565b919050565b600067ffffffffffffffff821115611df357611df2611d5d565b5b611dfc82611cd9565b9050602081019050919050565b82818337600083830152505050565b6000611e2b611e2684611dd8565b611dbd565b905082815260208101848484011115611e4757611e46611d58565b5b611e52848285611e09565b509392505050565b600082601f830112611e6f57611e6e611d53565b5b8135611e7f848260208601611e18565b91505092915050565b600060208284031215611e9e57611e9d611bdc565b5b600082013567ffffffffffffffff811115611ebc57611ebb611be1565b5b611ec884828501611e5a565b91505092915050565b611eda81611c71565b8114611ee557600080fd5b50565b600081359050611ef781611ed1565b92915050565b60008060008060008060008060008060006101608c8e031215611f2357611f22611bdc565b5b60008c013567ffffffffffffffff811115611f4157611f40611be1565b5b611f4d8e828f01611e5a565b9b505060208c013567ffffffffffffffff811115611f6e57611f6d611be1565b5b611f7a8e828f01611e5a565b9a505060408c013567ffffffffffffffff811115611f9b57611f9a611be1565b5b611fa78e828f01611e5a565b99505060608c013567ffffffffffffffff811115611fc857611fc7611be1565b5b611fd48e828f01611e5a565b98505060808c013567ffffffffffffffff811115611ff557611ff4611be1565b5b6120018e828f01611e5a565b97505060a06120128e828f01611ee8565b96505060c08c013567ffffffffffffffff81111561203357612032611be1565b5b61203f8e828f01611e5a565b95505060e06120508e828f01611ee8565b9450506101008c013567ffffffffffffffff81111561207257612071611be1565b5b61207e8e828f01611e5a565b9350506101208c013567ffffffffffffffff8111156120a05761209f611be1565b5b6120ac8e828f01611e5a565b9250506101408c013567ffffffffffffffff8111156120ce576120cd611be1565b5b6120da8e828f01611e5a565b9150509295989b509295989b9093969950565b6120f681611c06565b82525050565b600060208201905061211160008301846120ed565b92915050565b600060408201905081810360008301526121318185611cea565b905081810360208301526121458184611cea565b90509392505050565b6000610120820190508181036000830152612169818c611cea565b9050818103602083015261217d818b611cea565b90508181036040830152612191818a611cea565b905081810360608301526121a58189611cea565b905081810360808301526121b98188611cea565b90506121c860a0830187611c7b565b81810360c08301526121da8186611cea565b90506121e960e0830185611c7b565b8181036101008301526121fc8184611cea565b90509a9950505050505050505050565b600060e0820190508181036000830152612226818a611cea565b9050818103602083015261223a8189611cea565b9050818103604083015261224e8188611cea565b905081810360608301526122628187611cea565b905081810360808301526122768186611cea565b905061228560a0830185611c7b565b81810360c08301526122978184611cea565b905098975050505050505050565b7f4e487b7100000000000000000000000000000000000000000000000000000000600052602260045260246000fd5b600060028204905060018216806122ec57607f821691505b60208210811415612300576122ff6122a5565b5b5091905056fea2646970667358221220dfda8f3d8720a1e6d94a24aad96b44aef979abc23c7da56178c2269683e5644464736f6c634300080b0033","opcodes":"PUSH1 0x80 PUSH1 0x40 MSTORE CALLVALUE DUP1 ISZERO PUSH3 0x11 JUMPI PUSH1 0x0 DUP1 REVERT JUMPDEST POP PUSH1 0x40 MLOAD PUSH3 0x2467 CODESIZE SUB DUP1 PUSH3 0x2467 DUP4 CODECOPY DUP2 DUP2 ADD PUSH1 0x40 MSTORE DUP2 ADD SWAP1 PUSH3 0x37 SWAP2 SWAP1 PUSH3 0xE9 JUMP JUMPDEST DUP1 PUSH1 0x2 PUSH1 0x0 PUSH2 0x100 EXP DUP2 SLOAD DUP2 PUSH20 0xFFFFFFFFFFFFFFFFFFFFFFFFFFFFFFFFFFFFFFFF MUL NOT AND SWAP1 DUP4 PUSH20 0xFFFFFFFFFFFFFFFFFFFFFFFFFFFFFFFFFFFFFFFF AND MUL OR SWAP1 SSTORE POP POP PUSH3 0x11B JUMP JUMPDEST PUSH1 0x0 DUP1 REVERT JUMPDEST PUSH1 0x0 PUSH20 0xFFFFFFFFFFFFFFFFFFFFFFFFFFFFFFFFFFFFFFFF DUP3 AND SWAP1 POP SWAP2 SWAP1 POP JUMP JUMPDEST PUSH1 0x0 PUSH3 0xB1 DUP3 PUSH3 0x84 JUMP JUMPDEST SWAP1 POP SWAP2 SWAP1 POP JUMP JUMPDEST PUSH3 0xC3 DUP2 PUSH3 0xA4 JUMP JUMPDEST DUP2 EQ PUSH3 0xCF JUMPI PUSH1 0x0 DUP1 REVERT JUMPDEST POP JUMP JUMPDEST PUSH1 0x0 DUP2 MLOAD SWAP1 POP PUSH3 0xE3 DUP2 PUSH3 0xB8 JUMP JUMPDEST SWAP3 SWAP2 POP POP JUMP JUMPDEST PUSH1 0x0 PUSH1 0x20 DUP3 DUP5 SUB SLT ISZERO PUSH3 0x102 JUMPI PUSH3 0x101 PUSH3 0x7F JUMP JUMPDEST JUMPDEST PUSH1 0x0 PUSH3 0x112 DUP5 DUP3 DUP6 ADD PUSH3 0xD2 JUMP JUMPDEST SWAP2 POP POP SWAP3 SWAP2 POP POP JUMP JUMPDEST PUSH2 0x233C DUP1 PUSH3 0x12B PUSH1 0x0 CODECOPY PUSH1 0x0 RETURN INVALID PUSH1 0x80 PUSH1 0x40 MSTORE CALLVALUE DUP1 ISZERO PUSH2 0x10 JUMPI PUSH1 0x0 DUP1 REVERT JUMPDEST POP PUSH1 0x4 CALLDATASIZE LT PUSH2 0xA9 JUMPI PUSH1 0x0 CALLDATALOAD PUSH1 0xE0 SHR DUP1 PUSH4 0x509FDA0E GT PUSH2 0x71 JUMPI DUP1 PUSH4 0x509FDA0E EQ PUSH2 0x151 JUMPI DUP1 PUSH4 0x942886BE EQ PUSH2 0x182 JUMPI DUP1 PUSH4 0xADB4D990 EQ PUSH2 0x1A8 JUMPI DUP1 PUSH4 0xEA00962F EQ PUSH2 0x1C6 JUMPI DUP1 PUSH4 0xEDE3A670 EQ PUSH2 0x1E4 JUMPI DUP1 PUSH4 0xF203C19D EQ PUSH2 0x21A JUMPI PUSH2 0xA9 JUMP JUMPDEST DUP1 PUSH4 0x61DFF9A EQ PUSH2 0xAE JUMPI DUP1 PUSH4 0x91BAC16 EQ PUSH2 0xCA JUMPI DUP1 PUSH4 0x1B146ECF EQ PUSH2 0xFB JUMPI DUP1 PUSH4 0x2EE50A79 EQ PUSH2 0x117 JUMPI DUP1 PUSH4 0x481C6A75 EQ PUSH2 0x133 JUMPI JUMPDEST PUSH1 0x0 DUP1 REVERT JUMPDEST PUSH2 0xC8 PUSH1 0x4 DUP1 CALLDATASIZE SUB DUP2 ADD SWAP1 PUSH2 0xC3 SWAP2 SWAP1 PUSH2 0x1C44 JUMP JUMPDEST PUSH2 0x238 JUMP JUMPDEST STOP JUMPDEST PUSH2 0xE4 PUSH1 0x4 DUP1 CALLDATASIZE SUB DUP2 ADD SWAP1 PUSH2 0xDF SWAP2 SWAP1 PUSH2 0x1C44 JUMP JUMPDEST PUSH2 0x336 JUMP JUMPDEST PUSH1 0x40 MLOAD PUSH2 0xF2 SWAP3 SWAP2 SWAP1 PUSH2 0x1D23 JUMP JUMPDEST PUSH1 0x40 MLOAD DUP1 SWAP2 SUB SWAP1 RETURN JUMPDEST PUSH2 0x115 PUSH1 0x4 DUP1 CALLDATASIZE SUB DUP2 ADD SWAP1 PUSH2 0x110 SWAP2 SWAP1 PUSH2 0x1E88 JUMP JUMPDEST PUSH2 0x507 JUMP JUMPDEST STOP JUMPDEST PUSH2 0x131 PUSH1 0x4 DUP1 CALLDATASIZE SUB DUP2 ADD SWAP1 PUSH2 0x12C SWAP2 SWAP1 PUSH2 0x1EFD JUMP JUMPDEST PUSH2 0x5C7 JUMP JUMPDEST STOP JUMPDEST PUSH2 0x13B PUSH2 0xAC5 JUMP JUMPDEST PUSH1 0x40 MLOAD PUSH2 0x148 SWAP2 SWAP1 PUSH2 0x20FC JUMP JUMPDEST PUSH1 0x40 MLOAD DUP1 SWAP2 SUB SWAP1 RETURN JUMPDEST PUSH2 0x16B PUSH1 0x4 DUP1 CALLDATASIZE SUB DUP2 ADD SWAP1 PUSH2 0x166 SWAP2 SWAP1 PUSH2 0x1C44 JUMP JUMPDEST PUSH2 0xAEB JUMP JUMPDEST PUSH1 0x40 MLOAD PUSH2 0x179 SWAP3 SWAP2 SWAP1 PUSH2 0x2117 JUMP JUMPDEST PUSH1 0x40 MLOAD DUP1 SWAP2 SUB SWAP1 RETURN JUMPDEST PUSH2 0x18A PUSH2 0xCEC JUMP JUMPDEST PUSH1 0x40 MLOAD PUSH2 0x19F SWAP10 SWAP9 SWAP8 SWAP7 SWAP6 SWAP5 SWAP4 SWAP3 SWAP2 SWAP1 PUSH2 0x214E JUMP JUMPDEST PUSH1 0x40 MLOAD DUP1 SWAP2 SUB SWAP1 RETURN JUMPDEST PUSH2 0x1B0 PUSH2 0x14CD JUMP JUMPDEST PUSH1 0x40 MLOAD PUSH2 0x1BD SWAP2 SWAP1 PUSH2 0x20FC JUMP JUMPDEST PUSH1 0x40 MLOAD DUP1 SWAP2 SUB SWAP1 RETURN JUMPDEST PUSH2 0x1CE PUSH2 0x14F3 JUMP JUMPDEST PUSH1 0x40 MLOAD PUSH2 0x1DB SWAP2 SWAP1 PUSH2 0x20FC JUMP JUMPDEST PUSH1 0x40 MLOAD DUP1 SWAP2 SUB SWAP1 RETURN JUMPDEST PUSH2 0x1FE PUSH1 0x4 DUP1 CALLDATASIZE SUB DUP2 ADD SWAP1 PUSH2 0x1F9 SWAP2 SWAP1 PUSH2 0x1C44 JUMP JUMPDEST PUSH2 0x151C JUMP JUMPDEST PUSH1 0x40 MLOAD PUSH2 0x211 SWAP8 SWAP7 SWAP6 SWAP5 SWAP4 SWAP3 SWAP2 SWAP1 PUSH2 0x220C JUMP JUMPDEST PUSH1 0x40 MLOAD DUP1 SWAP2 SUB SWAP1 RETURN JUMPDEST PUSH2 0x222 PUSH2 0x1B0B JUMP JUMPDEST PUSH1 0x40 MLOAD PUSH2 0x22F SWAP2 SWAP1 PUSH2 0x20FC JUMP JUMPDEST PUSH1 0x40 MLOAD DUP1 SWAP2 SUB SWAP1 RETURN JUMPDEST PUSH1 0x2 PUSH1 0x0 SWAP1 SLOAD SWAP1 PUSH2 0x100 EXP SWAP1 DIV PUSH20 0xFFFFFFFFFFFFFFFFFFFFFFFFFFFFFFFFFFFFFFFF AND PUSH20 0xFFFFFFFFFFFFFFFFFFFFFFFFFFFFFFFFFFFFFFFF AND DUP2 PUSH20 0xFFFFFFFFFFFFFFFFFFFFFFFFFFFFFFFFFFFFFFFF AND EQ PUSH2 0x292 JUMPI PUSH1 0x0 DUP1 REVERT JUMPDEST PUSH1 0x4 PUSH1 0x1 ADD PUSH1 0x14 SWAP1 SLOAD SWAP1 PUSH2 0x100 EXP SWAP1 DIV PUSH1 0xFF AND ISZERO PUSH2 0x2AF JUMPI PUSH1 0x0 DUP1 REVERT JUMPDEST PUSH1 0x4 PUSH1 0x1 ADD PUSH1 0x0 SWAP1 SLOAD SWAP1 PUSH2 0x100 EXP SWAP1 DIV PUSH20 0xFFFFFFFFFFFFFFFFFFFFFFFFFFFFFFFFFFFFFFFF AND PUSH1 0x3 PUSH1 0x0 PUSH2 0x100 EXP DUP2 SLOAD DUP2 PUSH20 0xFFFFFFFFFFFFFFFFFFFFFFFFFFFFFFFFFFFFFFFF MUL NOT AND SWAP1 DUP4 PUSH20 0xFFFFFFFFFFFFFFFFFFFFFFFFFFFFFFFFFFFFFFFF AND MUL OR SWAP1 SSTORE POP PUSH1 0x1 PUSH1 0x4 PUSH1 0x1 ADD PUSH1 0x14 PUSH2 0x100 EXP DUP2 SLOAD DUP2 PUSH1 0xFF MUL NOT AND SWAP1 DUP4 ISZERO ISZERO MUL OR SWAP1 SSTORE POP POP JUMP JUMPDEST PUSH1 0x0 PUSH1 0x60 PUSH1 0x1 PUSH1 0x0 DUP5 PUSH20 0xFFFFFFFFFFFFFFFFFFFFFFFFFFFFFFFFFFFFFFFF AND PUSH20 0xFFFFFFFFFFFFFFFFFFFFFFFFFFFFFFFFFFFFFFFF AND DUP2 MSTORE PUSH1 0x20 ADD SWAP1 DUP2 MSTORE PUSH1 0x20 ADD PUSH1 0x0 KECCAK256 PUSH1 0x9 ADD PUSH1 0x0 SWAP1 SLOAD SWAP1 PUSH2 0x100 EXP SWAP1 DIV PUSH1 0xFF AND PUSH2 0x393 JUMPI PUSH1 0x0 DUP1 REVERT JUMPDEST PUSH1 0x2 PUSH1 0x0 SWAP1 SLOAD SWAP1 PUSH2 0x100 EXP SWAP1 DIV PUSH20 0xFFFFFFFFFFFFFFFFFFFFFFFFFFFFFFFFFFFFFFFF AND PUSH20 0xFFFFFFFFFFFFFFFFFFFFFFFFFFFFFFFFFFFFFFFF AND DUP4 PUSH20 0xFFFFFFFFFFFFFFFFFFFFFFFFFFFFFFFFFFFFFFFF AND EQ PUSH2 0x3ED JUMPI PUSH1 0x0 DUP1 REVERT JUMPDEST PUSH1 0x1 PUSH1 0x0 DUP5 PUSH20 0xFFFFFFFFFFFFFFFFFFFFFFFFFFFFFFFFFFFFFFFF AND PUSH20 0xFFFFFFFFFFFFFFFFFFFFFFFFFFFFFFFFFFFFFFFF AND DUP2 MSTORE PUSH1 0x20 ADD SWAP1 DUP2 MSTORE PUSH1 0x20 ADD PUSH1 0x0 KECCAK256 PUSH1 0x7 ADD SLOAD PUSH1 0x1 PUSH1 0x0 DUP6 PUSH20 0xFFFFFFFFFFFFFFFFFFFFFFFFFFFFFFFFFFFFFFFF AND PUSH20 0xFFFFFFFFFFFFFFFFFFFFFFFFFFFFFFFFFFFFFFFF AND DUP2 MSTORE PUSH1 0x20 ADD SWAP1 DUP2 MSTORE PUSH1 0x20 ADD PUSH1 0x0 KECCAK256 PUSH1 0x8 ADD DUP1 DUP1 SLOAD PUSH2 0x47E SWAP1 PUSH2 0x22D4 JUMP JUMPDEST DUP1 PUSH1 0x1F ADD PUSH1 0x20 DUP1 SWAP2 DIV MUL PUSH1 0x20 ADD PUSH1 0x40 MLOAD SWAP1 DUP2 ADD PUSH1 0x40 MSTORE DUP1 SWAP3 SWAP2 SWAP1 DUP2 DUP2 MSTORE PUSH1 0x20 ADD DUP3 DUP1 SLOAD PUSH2 0x4AA SWAP1 PUSH2 0x22D4 JUMP JUMPDEST DUP1 ISZERO PUSH2 0x4F7 JUMPI DUP1 PUSH1 0x1F LT PUSH2 0x4CC JUMPI PUSH2 0x100 DUP1 DUP4 SLOAD DIV MUL DUP4 MSTORE SWAP2 PUSH1 0x20 ADD SWAP2 PUSH2 0x4F7 JUMP JUMPDEST DUP3 ADD SWAP2 SWAP1 PUSH1 0x0 MSTORE PUSH1 0x20 PUSH1 0x0 KECCAK256 SWAP1 JUMPDEST DUP2 SLOAD DUP2 MSTORE SWAP1 PUSH1 0x1 ADD SWAP1 PUSH1 0x20 ADD DUP1 DUP4 GT PUSH2 0x4DA JUMPI DUP3 SWAP1 SUB PUSH1 0x1F AND DUP3 ADD SWAP2 JUMPDEST POP POP POP POP POP SWAP1 POP SWAP2 POP SWAP2 POP SWAP2 POP SWAP2 JUMP JUMPDEST PUSH1 0x40 MLOAD DUP1 PUSH1 0x60 ADD PUSH1 0x40 MSTORE DUP1 DUP3 DUP2 MSTORE PUSH1 0x20 ADD CALLER PUSH20 0xFFFFFFFFFFFFFFFFFFFFFFFFFFFFFFFFFFFFFFFF AND DUP2 MSTORE PUSH1 0x20 ADD PUSH1 0x0 ISZERO ISZERO DUP2 MSTORE POP PUSH1 0x4 PUSH1 0x0 DUP3 ADD MLOAD DUP2 PUSH1 0x0 ADD SWAP1 DUP1 MLOAD SWAP1 PUSH1 0x20 ADD SWAP1 PUSH2 0x559 SWAP3 SWAP2 SWAP1 PUSH2 0x1B2F JUMP JUMPDEST POP PUSH1 0x20 DUP3 ADD MLOAD DUP2 PUSH1 0x1 ADD PUSH1 0x0 PUSH2 0x100 EXP DUP2 SLOAD DUP2 PUSH20 0xFFFFFFFFFFFFFFFFFFFFFFFFFFFFFFFFFFFFFFFF MUL NOT AND SWAP1 DUP4 PUSH20 0xFFFFFFFFFFFFFFFFFFFFFFFFFFFFFFFFFFFFFFFF AND MUL OR SWAP1 SSTORE POP PUSH1 0x40 DUP3 ADD MLOAD DUP2 PUSH1 0x1 ADD PUSH1 0x14 PUSH2 0x100 EXP DUP2 SLOAD DUP2 PUSH1 0xFF MUL NOT AND SWAP1 DUP4 ISZERO ISZERO MUL OR SWAP1 SSTORE POP SWAP1 POP POP POP JUMP JUMPDEST PUSH1 0x2 PUSH1 0x0 SWAP1 SLOAD SWAP1 PUSH2 0x100 EXP SWAP1 DIV PUSH20 0xFFFFFFFFFFFFFFFFFFFFFFFFFFFFFFFFFFFFFFFF AND PUSH20 0xFFFFFFFFFFFFFFFFFFFFFFFFFFFFFFFFFFFFFFFF AND CALLER PUSH20 0xFFFFFFFFFFFFFFFFFFFFFFFFFFFFFFFFFFFFFFFF AND EQ PUSH2 0x621 JUMPI PUSH1 0x0 DUP1 REVERT JUMPDEST PUSH1 0x0 CALLER SWAP1 POP PUSH1 0x1 PUSH1 0x0 DUP3 PUSH20 0xFFFFFFFFFFFFFFFFFFFFFFFFFFFFFFFFFFFFFFFF AND PUSH20 0xFFFFFFFFFFFFFFFFFFFFFFFFFFFFFFFFFFFFFFFF AND DUP2 MSTORE PUSH1 0x20 ADD SWAP1 DUP2 MSTORE PUSH1 0x20 ADD PUSH1 0x0 KECCAK256 PUSH1 0x9 ADD PUSH1 0x0 SWAP1 SLOAD SWAP1 PUSH2 0x100 EXP SWAP1 DIV PUSH1 0xFF AND ISZERO PUSH2 0x680 JUMPI PUSH1 0x0 DUP1 REVERT JUMPDEST DUP1 PUSH1 0x0 DUP1 PUSH2 0x100 EXP DUP2 SLOAD DUP2 PUSH20 0xFFFFFFFFFFFFFFFFFFFFFFFFFFFFFFFFFFFFFFFF MUL NOT AND SWAP1 DUP4 PUSH20 0xFFFFFFFFFFFFFFFFFFFFFFFFFFFFFFFFFFFFFFFF AND MUL OR SWAP1 SSTORE POP DUP12 PUSH1 0x1 PUSH1 0x0 DUP4 PUSH20 0xFFFFFFFFFFFFFFFFFFFFFFFFFFFFFFFFFFFFFFFF AND PUSH20 0xFFFFFFFFFFFFFFFFFFFFFFFFFFFFFFFFFFFFFFFF AND DUP2 MSTORE PUSH1 0x20 ADD SWAP1 DUP2 MSTORE PUSH1 0x20 ADD PUSH1 0x0 KECCAK256 PUSH1 0x0 ADD SWAP1 DUP1 MLOAD SWAP1 PUSH1 0x20 ADD SWAP1 PUSH2 0x716 SWAP3 SWAP2 SWAP1 PUSH2 0x1B2F JUMP JUMPDEST POP DUP11 PUSH1 0x1 PUSH1 0x0 DUP4 PUSH20 0xFFFFFFFFFFFFFFFFFFFFFFFFFFFFFFFFFFFFFFFF AND PUSH20 0xFFFFFFFFFFFFFFFFFFFFFFFFFFFFFFFFFFFFFFFF AND DUP2 MSTORE PUSH1 0x20 ADD SWAP1 DUP2 MSTORE PUSH1 0x20 ADD PUSH1 0x0 KECCAK256 PUSH1 0x1 ADD SWAP1 DUP1 MLOAD SWAP1 PUSH1 0x20 ADD SWAP1 PUSH2 0x76D SWAP3 SWAP2 SWAP1 PUSH2 0x1B2F JUMP JUMPDEST POP DUP10 PUSH1 0x1 PUSH1 0x0 DUP4 PUSH20 0xFFFFFFFFFFFFFFFFFFFFFFFFFFFFFFFFFFFFFFFF AND PUSH20 0xFFFFFFFFFFFFFFFFFFFFFFFFFFFFFFFFFFFFFFFF AND DUP2 MSTORE PUSH1 0x20 ADD SWAP1 DUP2 MSTORE PUSH1 0x20 ADD PUSH1 0x0 KECCAK256 PUSH1 0x2 ADD SWAP1 DUP1 MLOAD SWAP1 PUSH1 0x20 ADD SWAP1 PUSH2 0x7C4 SWAP3 SWAP2 SWAP1 PUSH2 0x1B2F JUMP JUMPDEST POP DUP9 PUSH1 0x1 PUSH1 0x0 DUP4 PUSH20 0xFFFFFFFFFFFFFFFFFFFFFFFFFFFFFFFFFFFFFFFF AND PUSH20 0xFFFFFFFFFFFFFFFFFFFFFFFFFFFFFFFFFFFFFFFF AND DUP2 MSTORE PUSH1 0x20 ADD SWAP1 DUP2 MSTORE PUSH1 0x20 ADD PUSH1 0x0 KECCAK256 PUSH1 0x3 ADD SWAP1 DUP1 MLOAD SWAP1 PUSH1 0x20 ADD SWAP1 PUSH2 0x81B SWAP3 SWAP2 SWAP1 PUSH2 0x1B2F JUMP JUMPDEST POP DUP8 PUSH1 0x1 PUSH1 0x0 DUP4 PUSH20 0xFFFFFFFFFFFFFFFFFFFFFFFFFFFFFFFFFFFFFFFF AND PUSH20 0xFFFFFFFFFFFFFFFFFFFFFFFFFFFFFFFFFFFFFFFF AND DUP2 MSTORE PUSH1 0x20 ADD SWAP1 DUP2 MSTORE PUSH1 0x20 ADD PUSH1 0x0 KECCAK256 PUSH1 0x4 ADD SWAP1 DUP1 MLOAD SWAP1 PUSH1 0x20 ADD SWAP1 PUSH2 0x872 SWAP3 SWAP2 SWAP1 PUSH2 0x1B2F JUMP JUMPDEST POP DUP7 PUSH1 0x1 PUSH1 0x0 DUP4 PUSH20 0xFFFFFFFFFFFFFFFFFFFFFFFFFFFFFFFFFFFFFFFF AND PUSH20 0xFFFFFFFFFFFFFFFFFFFFFFFFFFFFFFFFFFFFFFFF AND DUP2 MSTORE PUSH1 0x20 ADD SWAP1 DUP2 MSTORE PUSH1 0x20 ADD PUSH1 0x0 KECCAK256 PUSH1 0x5 ADD DUP2 SWAP1 SSTORE POP DUP6 PUSH1 0x1 PUSH1 0x0 DUP4 PUSH20 0xFFFFFFFFFFFFFFFFFFFFFFFFFFFFFFFFFFFFFFFF AND PUSH20 0xFFFFFFFFFFFFFFFFFFFFFFFFFFFFFFFFFFFFFFFF AND DUP2 MSTORE PUSH1 0x20 ADD SWAP1 DUP2 MSTORE PUSH1 0x20 ADD PUSH1 0x0 KECCAK256 PUSH1 0x6 ADD SWAP1 DUP1 MLOAD SWAP1 PUSH1 0x20 ADD SWAP1 PUSH2 0x910 SWAP3 SWAP2 SWAP1 PUSH2 0x1B2F JUMP JUMPDEST POP DUP5 PUSH1 0x1 PUSH1 0x0 DUP4 PUSH20 0xFFFFFFFFFFFFFFFFFFFFFFFFFFFFFFFFFFFFFFFF AND PUSH20 0xFFFFFFFFFFFFFFFFFFFFFFFFFFFFFFFFFFFFFFFF AND DUP2 MSTORE PUSH1 0x20 ADD SWAP1 DUP2 MSTORE PUSH1 0x20 ADD PUSH1 0x0 KECCAK256 PUSH1 0x7 ADD DUP2 SWAP1 SSTORE POP DUP4 PUSH1 0x1 PUSH1 0x0 DUP4 PUSH20 0xFFFFFFFFFFFFFFFFFFFFFFFFFFFFFFFFFFFFFFFF AND PUSH20 0xFFFFFFFFFFFFFFFFFFFFFFFFFFFFFFFFFFFFFFFF AND DUP2 MSTORE PUSH1 0x20 ADD SWAP1 DUP2 MSTORE PUSH1 0x20 ADD PUSH1 0x0 KECCAK256 PUSH1 0x8 ADD SWAP1 DUP1 MLOAD SWAP1 PUSH1 0x20 ADD SWAP1 PUSH2 0x9AE SWAP3 SWAP2 SWAP1 PUSH2 0x1B2F JUMP JUMPDEST POP DUP3 PUSH1 0x1 PUSH1 0x0 DUP4 PUSH20 0xFFFFFFFFFFFFFFFFFFFFFFFFFFFFFFFFFFFFFFFF AND PUSH20 0xFFFFFFFFFFFFFFFFFFFFFFFFFFFFFFFFFFFFFFFF AND DUP2 MSTORE PUSH1 0x20 ADD SWAP1 DUP2 MSTORE PUSH1 0x20 ADD PUSH1 0x0 KECCAK256 PUSH1 0xA ADD SWAP1 DUP1 MLOAD SWAP1 PUSH1 0x20 ADD SWAP1 PUSH2 0xA05 SWAP3 SWAP2 SWAP1 PUSH2 0x1B2F JUMP JUMPDEST POP DUP2 PUSH1 0x1 PUSH1 0x0 DUP4 PUSH20 0xFFFFFFFFFFFFFFFFFFFFFFFFFFFFFFFFFFFFFFFF AND PUSH20 0xFFFFFFFFFFFFFFFFFFFFFFFFFFFFFFFFFFFFFFFF AND DUP2 MSTORE PUSH1 0x20 ADD SWAP1 DUP2 MSTORE PUSH1 0x20 ADD PUSH1 0x0 KECCAK256 PUSH1 0xB ADD SWAP1 DUP1 MLOAD SWAP1 PUSH1 0x20 ADD SWAP1 PUSH2 0xA5C SWAP3 SWAP2 SWAP1 PUSH2 0x1B2F JUMP JUMPDEST POP PUSH1 0x1 DUP1 PUSH1 0x0 DUP4 PUSH20 0xFFFFFFFFFFFFFFFFFFFFFFFFFFFFFFFFFFFFFFFF AND PUSH20 0xFFFFFFFFFFFFFFFFFFFFFFFFFFFFFFFFFFFFFFFF AND DUP2 MSTORE PUSH1 0x20 ADD SWAP1 DUP2 MSTORE PUSH1 0x20 ADD PUSH1 0x0 KECCAK256 PUSH1 0x9 ADD PUSH1 0x0 PUSH2 0x100 EXP DUP2 SLOAD DUP2 PUSH1 0xFF MUL NOT AND SWAP1 DUP4 ISZERO ISZERO MUL OR SWAP1 SSTORE POP POP POP POP POP POP POP POP POP POP POP POP POP JUMP JUMPDEST PUSH1 0x2 PUSH1 0x0 SWAP1 SLOAD SWAP1 PUSH2 0x100 EXP SWAP1 DIV PUSH20 0xFFFFFFFFFFFFFFFFFFFFFFFFFFFFFFFFFFFFFFFF AND DUP2 JUMP JUMPDEST PUSH1 0x60 DUP1 PUSH1 0x1 PUSH1 0x0 DUP5 PUSH20 0xFFFFFFFFFFFFFFFFFFFFFFFFFFFFFFFFFFFFFFFF AND PUSH20 0xFFFFFFFFFFFFFFFFFFFFFFFFFFFFFFFFFFFFFFFF AND DUP2 MSTORE PUSH1 0x20 ADD SWAP1 DUP2 MSTORE PUSH1 0x20 ADD PUSH1 0x0 KECCAK256 PUSH1 0x9 ADD PUSH1 0x0 SWAP1 SLOAD SWAP1 PUSH2 0x100 EXP SWAP1 DIV PUSH1 0xFF AND PUSH2 0xB47 JUMPI PUSH1 0x0 DUP1 REVERT JUMPDEST PUSH1 0x1 PUSH1 0x0 DUP5 PUSH20 0xFFFFFFFFFFFFFFFFFFFFFFFFFFFFFFFFFFFFFFFF AND PUSH20 0xFFFFFFFFFFFFFFFFFFFFFFFFFFFFFFFFFFFFFFFF AND DUP2 MSTORE PUSH1 0x20 ADD SWAP1 DUP2 MSTORE PUSH1 0x20 ADD PUSH1 0x0 KECCAK256 PUSH1 0xA ADD PUSH1 0x1 PUSH1 0x0 DUP6 PUSH20 0xFFFFFFFFFFFFFFFFFFFFFFFFFFFFFFFFFFFFFFFF AND PUSH20 0xFFFFFFFFFFFFFFFFFFFFFFFFFFFFFFFFFFFFFFFF AND DUP2 MSTORE PUSH1 0x20 ADD SWAP1 DUP2 MSTORE PUSH1 0x20 ADD PUSH1 0x0 KECCAK256 PUSH1 0xB ADD DUP2 DUP1 SLOAD PUSH2 0xBD7 SWAP1 PUSH2 0x22D4 JUMP JUMPDEST DUP1 PUSH1 0x1F ADD PUSH1 0x20 DUP1 SWAP2 DIV MUL PUSH1 0x20 ADD PUSH1 0x40 MLOAD SWAP1 DUP2 ADD PUSH1 0x40 MSTORE DUP1 SWAP3 SWAP2 SWAP1 DUP2 DUP2 MSTORE PUSH1 0x20 ADD DUP3 DUP1 SLOAD PUSH2 0xC03 SWAP1 PUSH2 0x22D4 JUMP JUMPDEST DUP1 ISZERO PUSH2 0xC50 JUMPI DUP1 PUSH1 0x1F LT PUSH2 0xC25 JUMPI PUSH2 0x100 DUP1 DUP4 SLOAD DIV MUL DUP4 MSTORE SWAP2 PUSH1 0x20 ADD SWAP2 PUSH2 0xC50 JUMP JUMPDEST DUP3 ADD SWAP2 SWAP1 PUSH1 0x0 MSTORE PUSH1 0x20 PUSH1 0x0 KECCAK256 SWAP1 JUMPDEST DUP2 SLOAD DUP2 MSTORE SWAP1 PUSH1 0x1 ADD SWAP1 PUSH1 0x20 ADD DUP1 DUP4 GT PUSH2 0xC33 JUMPI DUP3 SWAP1 SUB PUSH1 0x1F AND DUP3 ADD SWAP2 JUMPDEST POP POP POP POP POP SWAP2 POP DUP1 DUP1 SLOAD PUSH2 0xC63 SWAP1 PUSH2 0x22D4 JUMP JUMPDEST DUP1 PUSH1 0x1F ADD PUSH1 0x20 DUP1 SWAP2 DIV MUL PUSH1 0x20 ADD PUSH1 0x40 MLOAD SWAP1 DUP2 ADD PUSH1 0x40 MSTORE DUP1 SWAP3 SWAP2 SWAP1 DUP2 DUP2 MSTORE PUSH1 0x20 ADD DUP3 DUP1 SLOAD PUSH2 0xC8F SWAP1 PUSH2 0x22D4 JUMP JUMPDEST DUP1 ISZERO PUSH2 0xCDC JUMPI DUP1 PUSH1 0x1F LT PUSH2 0xCB1 JUMPI PUSH2 0x100 DUP1 DUP4 SLOAD DIV MUL DUP4 MSTORE SWAP2 PUSH1 0x20 ADD SWAP2 PUSH2 0xCDC JUMP JUMPDEST DUP3 ADD SWAP2 SWAP1 PUSH1 0x0 MSTORE PUSH1 0x20 PUSH1 0x0 KECCAK256 SWAP1 JUMPDEST DUP2 SLOAD DUP2 MSTORE SWAP1 PUSH1 0x1 ADD SWAP1 PUSH1 0x20 ADD DUP1 DUP4 GT PUSH2 0xCBF JUMPI DUP3 SWAP1 SUB PUSH1 0x1F AND DUP3 ADD SWAP2 JUMPDEST POP POP POP POP POP SWAP1 POP SWAP2 POP SWAP2 POP SWAP2 POP SWAP2 JUMP JUMPDEST PUSH1 0x60 DUP1 PUSH1 0x60 DUP1 PUSH1 0x60 PUSH1 0x0 PUSH1 0x60 PUSH1 0x0 PUSH1 0x60 PUSH1 0x3 PUSH1 0x0 SWAP1 SLOAD SWAP1 PUSH2 0x100 EXP SWAP1 DIV PUSH20 0xFFFFFFFFFFFFFFFFFFFFFFFFFFFFFFFFFFFFFFFF AND PUSH20 0xFFFFFFFFFFFFFFFFFFFFFFFFFFFFFFFFFFFFFFFF AND CALLER PUSH20 0xFFFFFFFFFFFFFFFFFFFFFFFFFFFFFFFFFFFFFFFF AND EQ PUSH2 0xD56 JUMPI PUSH1 0x0 DUP1 REVERT JUMPDEST PUSH1 0x1 PUSH1 0x0 PUSH1 0x2 PUSH1 0x0 SWAP1 SLOAD SWAP1 PUSH2 0x100 EXP SWAP1 DIV PUSH20 0xFFFFFFFFFFFFFFFFFFFFFFFFFFFFFFFFFFFFFFFF AND PUSH20 0xFFFFFFFFFFFFFFFFFFFFFFFFFFFFFFFFFFFFFFFF AND PUSH20 0xFFFFFFFFFFFFFFFFFFFFFFFFFFFFFFFFFFFFFFFF AND DUP2 MSTORE PUSH1 0x20 ADD SWAP1 DUP2 MSTORE PUSH1 0x20 ADD PUSH1 0x0 KECCAK256 PUSH1 0x0 ADD PUSH1 0x1 PUSH1 0x0 PUSH1 0x2 PUSH1 0x0 SWAP1 SLOAD SWAP1 PUSH2 0x100 EXP SWAP1 DIV PUSH20 0xFFFFFFFFFFFFFFFFFFFFFFFFFFFFFFFFFFFFFFFF AND PUSH20 0xFFFFFFFFFFFFFFFFFFFFFFFFFFFFFFFFFFFFFFFF AND PUSH20 0xFFFFFFFFFFFFFFFFFFFFFFFFFFFFFFFFFFFFFFFF AND DUP2 MSTORE PUSH1 0x20 ADD SWAP1 DUP2 MSTORE PUSH1 0x20 ADD PUSH1 0x0 KECCAK256 PUSH1 0x1 ADD PUSH1 0x1 PUSH1 0x0 PUSH1 0x2 PUSH1 0x0 SWAP1 SLOAD SWAP1 PUSH2 0x100 EXP SWAP1 DIV PUSH20 0xFFFFFFFFFFFFFFFFFFFFFFFFFFFFFFFFFFFFFFFF AND PUSH20 0xFFFFFFFFFFFFFFFFFFFFFFFFFFFFFFFFFFFFFFFF AND PUSH20 0xFFFFFFFFFFFFFFFFFFFFFFFFFFFFFFFFFFFFFFFF AND DUP2 MSTORE PUSH1 0x20 ADD SWAP1 DUP2 MSTORE PUSH1 0x20 ADD PUSH1 0x0 KECCAK256 PUSH1 0x2 ADD PUSH1 0x1 PUSH1 0x0 PUSH1 0x2 PUSH1 0x0 SWAP1 SLOAD SWAP1 PUSH2 0x100 EXP SWAP1 DIV PUSH20 0xFFFFFFFFFFFFFFFFFFFFFFFFFFFFFFFFFFFFFFFF AND PUSH20 0xFFFFFFFFFFFFFFFFFFFFFFFFFFFFFFFFFFFFFFFF AND PUSH20 0xFFFFFFFFFFFFFFFFFFFFFFFFFFFFFFFFFFFFFFFF AND DUP2 MSTORE PUSH1 0x20 ADD SWAP1 DUP2 MSTORE PUSH1 0x20 ADD PUSH1 0x0 KECCAK256 PUSH1 0x3 ADD PUSH1 0x1 PUSH1 0x0 PUSH1 0x2 PUSH1 0x0 SWAP1 SLOAD SWAP1 PUSH2 0x100 EXP SWAP1 DIV PUSH20 0xFFFFFFFFFFFFFFFFFFFFFFFFFFFFFFFFFFFFFFFF AND PUSH20 0xFFFFFFFFFFFFFFFFFFFFFFFFFFFFFFFFFFFFFFFF AND PUSH20 0xFFFFFFFFFFFFFFFFFFFFFFFFFFFFFFFFFFFFFFFF AND DUP2 MSTORE PUSH1 0x20 ADD SWAP1 DUP2 MSTORE PUSH1 0x20 ADD PUSH1 0x0 KECCAK256 PUSH1 0x4 ADD PUSH1 0x1 PUSH1 0x0 PUSH1 0x2 PUSH1 0x0 SWAP1 SLOAD SWAP1 PUSH2 0x100 EXP SWAP1 DIV PUSH20 0xFFFFFFFFFFFFFFFFFFFFFFFFFFFFFFFFFFFFFFFF AND PUSH20 0xFFFFFFFFFFFFFFFFFFFFFFFFFFFFFFFFFFFFFFFF AND PUSH20 0xFFFFFFFFFFFFFFFFFFFFFFFFFFFFFFFFFFFFFFFF AND DUP2 MSTORE PUSH1 0x20 ADD SWAP1 DUP2 MSTORE PUSH1 0x20 ADD PUSH1 0x0 KECCAK256 PUSH1 0x5 ADD SLOAD PUSH1 0x1 PUSH1 0x0 PUSH1 0x2 PUSH1 0x0 SWAP1 SLOAD SWAP1 PUSH2 0x100 EXP SWAP1 DIV PUSH20 0xFFFFFFFFFFFFFFFFFFFFFFFFFFFFFFFFFFFFFFFF AND PUSH20 0xFFFFFFFFFFFFFFFFFFFFFFFFFFFFFFFFFFFFFFFF AND PUSH20 0xFFFFFFFFFFFFFFFFFFFFFFFFFFFFFFFFFFFFFFFF AND DUP2 MSTORE PUSH1 0x20 ADD SWAP1 DUP2 MSTORE PUSH1 0x20 ADD PUSH1 0x0 KECCAK256 PUSH1 0x6 ADD PUSH1 0x1 PUSH1 0x0 PUSH1 0x2 PUSH1 0x0 SWAP1 SLOAD SWAP1 PUSH2 0x100 EXP SWAP1 DIV PUSH20 0xFFFFFFFFFFFFFFFFFFFFFFFFFFFFFFFFFFFFFFFF AND PUSH20 0xFFFFFFFFFFFFFFFFFFFFFFFFFFFFFFFFFFFFFFFF AND PUSH20 0xFFFFFFFFFFFFFFFFFFFFFFFFFFFFFFFFFFFFFFFF AND DUP2 MSTORE PUSH1 0x20 ADD SWAP1 DUP2 MSTORE PUSH1 0x20 ADD PUSH1 0x0 KECCAK256 PUSH1 0x7 ADD SLOAD PUSH1 0x1 PUSH1 0x0 PUSH1 0x2 PUSH1 0x0 SWAP1 SLOAD SWAP1 PUSH2 0x100 EXP SWAP1 DIV PUSH20 0xFFFFFFFFFFFFFFFFFFFFFFFFFFFFFFFFFFFFFFFF AND PUSH20 0xFFFFFFFFFFFFFFFFFFFFFFFFFFFFFFFFFFFFFFFF AND PUSH20 0xFFFFFFFFFFFFFFFFFFFFFFFFFFFFFFFFFFFFFFFF AND DUP2 MSTORE PUSH1 0x20 ADD SWAP1 DUP2 MSTORE PUSH1 0x20 ADD PUSH1 0x0 KECCAK256 PUSH1 0x8 ADD DUP9 DUP1 SLOAD PUSH2 0x10E8 SWAP1 PUSH2 0x22D4 JUMP JUMPDEST DUP1 PUSH1 0x1F ADD PUSH1 0x20 DUP1 SWAP2 DIV MUL PUSH1 0x20 ADD PUSH1 0x40 MLOAD SWAP1 DUP2 ADD PUSH1 0x40 MSTORE DUP1 SWAP3 SWAP2 SWAP1 DUP2 DUP2 MSTORE PUSH1 0x20 ADD DUP3 DUP1 SLOAD PUSH2 0x1114 SWAP1 PUSH2 0x22D4 JUMP JUMPDEST DUP1 ISZERO PUSH2 0x1161 JUMPI DUP1 PUSH1 0x1F LT PUSH2 0x1136 JUMPI PUSH2 0x100 DUP1 DUP4 SLOAD DIV MUL DUP4 MSTORE SWAP2 PUSH1 0x20 ADD SWAP2 PUSH2 0x1161 JUMP JUMPDEST DUP3 ADD SWAP2 SWAP1 PUSH1 0x0 MSTORE PUSH1 0x20 PUSH1 0x0 KECCAK256 SWAP1 JUMPDEST DUP2 SLOAD DUP2 MSTORE SWAP1 PUSH1 0x1 ADD SWAP1 PUSH1 0x20 ADD DUP1 DUP4 GT PUSH2 0x1144 JUMPI DUP3 SWAP1 SUB PUSH1 0x1F AND DUP3 ADD SWAP2 JUMPDEST POP POP POP POP POP SWAP9 POP DUP8 DUP1 SLOAD PUSH2 0x1174 SWAP1 PUSH2 0x22D4 JUMP JUMPDEST DUP1 PUSH1 0x1F ADD PUSH1 0x20 DUP1 SWAP2 DIV MUL PUSH1 0x20 ADD PUSH1 0x40 MLOAD SWAP1 DUP2 ADD PUSH1 0x40 MSTORE DUP1 SWAP3 SWAP2 SWAP1 DUP2 DUP2 MSTORE PUSH1 0x20 ADD DUP3 DUP1 SLOAD PUSH2 0x11A0 SWAP1 PUSH2 0x22D4 JUMP JUMPDEST DUP1 ISZERO PUSH2 0x11ED JUMPI DUP1 PUSH1 0x1F LT PUSH2 0x11C2 JUMPI PUSH2 0x100 DUP1 DUP4 SLOAD DIV MUL DUP4 MSTORE SWAP2 PUSH1 0x20 ADD SWAP2 PUSH2 0x11ED JUMP JUMPDEST DUP3 ADD SWAP2 SWAP1 PUSH1 0x0 MSTORE PUSH1 0x20 PUSH1 0x0 KECCAK256 SWAP1 JUMPDEST DUP2 SLOAD DUP2 MSTORE SWAP1 PUSH1 0x1 ADD SWAP1 PUSH1 0x20 ADD DUP1 DUP4 GT PUSH2 0x11D0 JUMPI DUP3 SWAP1 SUB PUSH1 0x1F AND DUP3 ADD SWAP2 JUMPDEST POP POP POP POP POP SWAP8 POP DUP7 DUP1 SLOAD PUSH2 0x1200 SWAP1 PUSH2 0x22D4 JUMP JUMPDEST DUP1 PUSH1 0x1F ADD PUSH1 0x20 DUP1 SWAP2 DIV MUL PUSH1 0x20 ADD PUSH1 0x40 MLOAD SWAP1 DUP2 ADD PUSH1 0x40 MSTORE DUP1 SWAP3 SWAP2 SWAP1 DUP2 DUP2 MSTORE PUSH1 0x20 ADD DUP3 DUP1 SLOAD PUSH2 0x122C SWAP1 PUSH2 0x22D4 JUMP JUMPDEST DUP1 ISZERO PUSH2 0x1279 JUMPI DUP1 PUSH1 0x1F LT PUSH2 0x124E JUMPI PUSH2 0x100 DUP1 DUP4 SLOAD DIV MUL DUP4 MSTORE SWAP2 PUSH1 0x20 ADD SWAP2 PUSH2 0x1279 JUMP JUMPDEST DUP3 ADD SWAP2 SWAP1 PUSH1 0x0 MSTORE PUSH1 0x20 PUSH1 0x0 KECCAK256 SWAP1 JUMPDEST DUP2 SLOAD DUP2 MSTORE SWAP1 PUSH1 0x1 ADD SWAP1 PUSH1 0x20 ADD DUP1 DUP4 GT PUSH2 0x125C JUMPI DUP3 SWAP1 SUB PUSH1 0x1F AND DUP3 ADD SWAP2 JUMPDEST POP POP POP POP POP SWAP7 POP DUP6 DUP1 SLOAD PUSH2 0x128C SWAP1 PUSH2 0x22D4 JUMP JUMPDEST DUP1 PUSH1 0x1F ADD PUSH1 0x20 DUP1 SWAP2 DIV MUL PUSH1 0x20 ADD PUSH1 0x40 MLOAD SWAP1 DUP2 ADD PUSH1 0x40 MSTORE DUP1 SWAP3 SWAP2 SWAP1 DUP2 DUP2 MSTORE PUSH1 0x20 ADD DUP3 DUP1 SLOAD PUSH2 0x12B8 SWAP1 PUSH2 0x22D4 JUMP JUMPDEST DUP1 ISZERO PUSH2 0x1305 JUMPI DUP1 PUSH1 0x1F LT PUSH2 0x12DA JUMPI PUSH2 0x100 DUP1 DUP4 SLOAD DIV MUL DUP4 MSTORE SWAP2 PUSH1 0x20 ADD SWAP2 PUSH2 0x1305 JUMP JUMPDEST DUP3 ADD SWAP2 SWAP1 PUSH1 0x0 MSTORE PUSH1 0x20 PUSH1 0x0 KECCAK256 SWAP1 JUMPDEST DUP2 SLOAD DUP2 MSTORE SWAP1 PUSH1 0x1 ADD SWAP1 PUSH1 0x20 ADD DUP1 DUP4 GT PUSH2 0x12E8 JUMPI DUP3 SWAP1 SUB PUSH1 0x1F AND DUP3 ADD SWAP2 JUMPDEST POP POP POP POP POP SWAP6 POP DUP5 DUP1 SLOAD PUSH2 0x1318 SWAP1 PUSH2 0x22D4 JUMP JUMPDEST DUP1 PUSH1 0x1F ADD PUSH1 0x20 DUP1 SWAP2 DIV MUL PUSH1 0x20 ADD PUSH1 0x40 MLOAD SWAP1 DUP2 ADD PUSH1 0x40 MSTORE DUP1 SWAP3 SWAP2 SWAP1 DUP2 DUP2 MSTORE PUSH1 0x20 ADD DUP3 DUP1 SLOAD PUSH2 0x1344 SWAP1 PUSH2 0x22D4 JUMP JUMPDEST DUP1 ISZERO PUSH2 0x1391 JUMPI DUP1 PUSH1 0x1F LT PUSH2 0x1366 JUMPI PUSH2 0x100 DUP1 DUP4 SLOAD DIV MUL DUP4 MSTORE SWAP2 PUSH1 0x20 ADD SWAP2 PUSH2 0x1391 JUMP JUMPDEST DUP3 ADD SWAP2 SWAP1 PUSH1 0x0 MSTORE PUSH1 0x20 PUSH1 0x0 KECCAK256 SWAP1 JUMPDEST DUP2 SLOAD DUP2 MSTORE SWAP1 PUSH1 0x1 ADD SWAP1 PUSH1 0x20 ADD DUP1 DUP4 GT PUSH2 0x1374 JUMPI DUP3 SWAP1 SUB PUSH1 0x1F AND DUP3 ADD SWAP2 JUMPDEST POP POP POP POP POP SWAP5 POP DUP3 DUP1 SLOAD PUSH2 0x13A4 SWAP1 PUSH2 0x22D4 JUMP JUMPDEST DUP1 PUSH1 0x1F ADD PUSH1 0x20 DUP1 SWAP2 DIV MUL PUSH1 0x20 ADD PUSH1 0x40 MLOAD SWAP1 DUP2 ADD PUSH1 0x40 MSTORE DUP1 SWAP3 SWAP2 SWAP1 DUP2 DUP2 MSTORE PUSH1 0x20 ADD DUP3 DUP1 SLOAD PUSH2 0x13D0 SWAP1 PUSH2 0x22D4 JUMP JUMPDEST DUP1 ISZERO PUSH2 0x141D JUMPI DUP1 PUSH1 0x1F LT PUSH2 0x13F2 JUMPI PUSH2 0x100 DUP1 DUP4 SLOAD DIV MUL DUP4 MSTORE SWAP2 PUSH1 0x20 ADD SWAP2 PUSH2 0x141D JUMP JUMPDEST DUP3 ADD SWAP2 SWAP1 PUSH1 0x0 MSTORE PUSH1 0x20 PUSH1 0x0 KECCAK256 SWAP1 JUMPDEST DUP2 SLOAD DUP2 MSTORE SWAP1 PUSH1 0x1 ADD SWAP1 PUSH1 0x20 ADD DUP1 DUP4 GT PUSH2 0x1400 JUMPI DUP3 SWAP1 SUB PUSH1 0x1F AND DUP3 ADD SWAP2 JUMPDEST POP POP POP POP POP SWAP3 POP DUP1 DUP1 SLOAD PUSH2 0x1430 SWAP1 PUSH2 0x22D4 JUMP JUMPDEST DUP1 PUSH1 0x1F ADD PUSH1 0x20 DUP1 SWAP2 DIV MUL PUSH1 0x20 ADD PUSH1 0x40 MLOAD SWAP1 DUP2 ADD PUSH1 0x40 MSTORE DUP1 SWAP3 SWAP2 SWAP1 DUP2 DUP2 MSTORE PUSH1 0x20 ADD DUP3 DUP1 SLOAD PUSH2 0x145C SWAP1 PUSH2 0x22D4 JUMP JUMPDEST DUP1 ISZERO PUSH2 0x14A9 JUMPI DUP1 PUSH1 0x1F LT PUSH2 0x147E JUMPI PUSH2 0x100 DUP1 DUP4 SLOAD DIV MUL DUP4 MSTORE SWAP2 PUSH1 0x20 ADD SWAP2 PUSH2 0x14A9 JUMP JUMPDEST DUP3 ADD SWAP2 SWAP1 PUSH1 0x0 MSTORE PUSH1 0x20 PUSH1 0x0 KECCAK256 SWAP1 JUMPDEST DUP2 SLOAD DUP2 MSTORE SWAP1 PUSH1 0x1 ADD SWAP1 PUSH1 0x20 ADD DUP1 DUP4 GT PUSH2 0x148C JUMPI DUP3 SWAP1 SUB PUSH1 0x1F AND DUP3 ADD SWAP2 JUMPDEST POP POP POP POP POP SWAP1 POP SWAP9 POP SWAP9 POP SWAP9 POP SWAP9 POP SWAP9 POP SWAP9 POP SWAP9 POP SWAP9 POP SWAP9 POP SWAP1 SWAP2 SWAP3 SWAP4 SWAP5 SWAP6 SWAP7 SWAP8 SWAP9 JUMP JUMPDEST PUSH1 0x3 PUSH1 0x0 SWAP1 SLOAD SWAP1 PUSH2 0x100 EXP SWAP1 DIV PUSH20 0xFFFFFFFFFFFFFFFFFFFFFFFFFFFFFFFFFFFFFFFF AND DUP2 JUMP JUMPDEST PUSH1 0x0 DUP1 PUSH1 0x0 SWAP1 SLOAD SWAP1 PUSH2 0x100 EXP SWAP1 DIV PUSH20 0xFFFFFFFFFFFFFFFFFFFFFFFFFFFFFFFFFFFFFFFF AND SWAP1 POP SWAP1 JUMP JUMPDEST PUSH1 0x60 DUP1 PUSH1 0x60 DUP1 PUSH1 0x60 PUSH1 0x0 PUSH1 0x60 PUSH1 0x1 PUSH1 0x0 DUP10 PUSH20 0xFFFFFFFFFFFFFFFFFFFFFFFFFFFFFFFFFFFFFFFF AND PUSH20 0xFFFFFFFFFFFFFFFFFFFFFFFFFFFFFFFFFFFFFFFF AND DUP2 MSTORE PUSH1 0x20 ADD SWAP1 DUP2 MSTORE PUSH1 0x20 ADD PUSH1 0x0 KECCAK256 PUSH1 0x9 ADD PUSH1 0x0 SWAP1 SLOAD SWAP1 PUSH2 0x100 EXP SWAP1 DIV PUSH1 0xFF AND PUSH2 0x1581 JUMPI PUSH1 0x0 DUP1 REVERT JUMPDEST PUSH1 0x2 PUSH1 0x0 SWAP1 SLOAD SWAP1 PUSH2 0x100 EXP SWAP1 DIV PUSH20 0xFFFFFFFFFFFFFFFFFFFFFFFFFFFFFFFFFFFFFFFF AND PUSH20 0xFFFFFFFFFFFFFFFFFFFFFFFFFFFFFFFFFFFFFFFF AND DUP9 PUSH20 0xFFFFFFFFFFFFFFFFFFFFFFFFFFFFFFFFFFFFFFFF AND EQ PUSH2 0x15DB JUMPI PUSH1 0x0 DUP1 REVERT JUMPDEST PUSH1 0x1 PUSH1 0x0 DUP10 PUSH20 0xFFFFFFFFFFFFFFFFFFFFFFFFFFFFFFFFFFFFFFFF AND PUSH20 0xFFFFFFFFFFFFFFFFFFFFFFFFFFFFFFFFFFFFFFFF AND DUP2 MSTORE PUSH1 0x20 ADD SWAP1 DUP2 MSTORE PUSH1 0x20 ADD PUSH1 0x0 KECCAK256 PUSH1 0x0 ADD PUSH1 0x1 PUSH1 0x0 DUP11 PUSH20 0xFFFFFFFFFFFFFFFFFFFFFFFFFFFFFFFFFFFFFFFF AND PUSH20 0xFFFFFFFFFFFFFFFFFFFFFFFFFFFFFFFFFFFFFFFF AND DUP2 MSTORE PUSH1 0x20 ADD SWAP1 DUP2 MSTORE PUSH1 0x20 ADD PUSH1 0x0 KECCAK256 PUSH1 0x1 ADD PUSH1 0x1 PUSH1 0x0 DUP12 PUSH20 0xFFFFFFFFFFFFFFFFFFFFFFFFFFFFFFFFFFFFFFFF AND PUSH20 0xFFFFFFFFFFFFFFFFFFFFFFFFFFFFFFFFFFFFFFFF AND DUP2 MSTORE PUSH1 0x20 ADD SWAP1 DUP2 MSTORE PUSH1 0x20 ADD PUSH1 0x0 KECCAK256 PUSH1 0x2 ADD PUSH1 0x1 PUSH1 0x0 DUP13 PUSH20 0xFFFFFFFFFFFFFFFFFFFFFFFFFFFFFFFFFFFFFFFF AND PUSH20 0xFFFFFFFFFFFFFFFFFFFFFFFFFFFFFFFFFFFFFFFF AND DUP2 MSTORE PUSH1 0x20 ADD SWAP1 DUP2 MSTORE PUSH1 0x20 ADD PUSH1 0x0 KECCAK256 PUSH1 0x3 ADD PUSH1 0x1 PUSH1 0x0 DUP14 PUSH20 0xFFFFFFFFFFFFFFFFFFFFFFFFFFFFFFFFFFFFFFFF AND PUSH20 0xFFFFFFFFFFFFFFFFFFFFFFFFFFFFFFFFFFFFFFFF AND DUP2 MSTORE PUSH1 0x20 ADD SWAP1 DUP2 MSTORE PUSH1 0x20 ADD PUSH1 0x0 KECCAK256 PUSH1 0x4 ADD PUSH1 0x1 PUSH1 0x0 DUP15 PUSH20 0xFFFFFFFFFFFFFFFFFFFFFFFFFFFFFFFFFFFFFFFF AND PUSH20 0xFFFFFFFFFFFFFFFFFFFFFFFFFFFFFFFFFFFFFFFF AND DUP2 MSTORE PUSH1 0x20 ADD SWAP1 DUP2 MSTORE PUSH1 0x20 ADD PUSH1 0x0 KECCAK256 PUSH1 0x5 ADD SLOAD PUSH1 0x1 PUSH1 0x0 DUP16 PUSH20 0xFFFFFFFFFFFFFFFFFFFFFFFFFFFFFFFFFFFFFFFF AND PUSH20 0xFFFFFFFFFFFFFFFFFFFFFFFFFFFFFFFFFFFFFFFF AND DUP2 MSTORE PUSH1 0x20 ADD SWAP1 DUP2 MSTORE PUSH1 0x20 ADD PUSH1 0x0 KECCAK256 PUSH1 0x6 ADD DUP7 DUP1 SLOAD PUSH2 0x17B6 SWAP1 PUSH2 0x22D4 JUMP JUMPDEST DUP1 PUSH1 0x1F ADD PUSH1 0x20 DUP1 SWAP2 DIV MUL PUSH1 0x20 ADD PUSH1 0x40 MLOAD SWAP1 DUP2 ADD PUSH1 0x40 MSTORE DUP1 SWAP3 SWAP2 SWAP1 DUP2 DUP2 MSTORE PUSH1 0x20 ADD DUP3 DUP1 SLOAD PUSH2 0x17E2 SWAP1 PUSH2 0x22D4 JUMP JUMPDEST DUP1 ISZERO PUSH2 0x182F JUMPI DUP1 PUSH1 0x1F LT PUSH2 0x1804 JUMPI PUSH2 0x100 DUP1 DUP4 SLOAD DIV MUL DUP4 MSTORE SWAP2 PUSH1 0x20 ADD SWAP2 PUSH2 0x182F JUMP JUMPDEST DUP3 ADD SWAP2 SWAP1 PUSH1 0x0 MSTORE PUSH1 0x20 PUSH1 0x0 KECCAK256 SWAP1 JUMPDEST DUP2 SLOAD DUP2 MSTORE SWAP1 PUSH1 0x1 ADD SWAP1 PUSH1 0x20 ADD DUP1 DUP4 GT PUSH2 0x1812 JUMPI DUP3 SWAP1 SUB PUSH1 0x1F AND DUP3 ADD SWAP2 JUMPDEST POP POP POP POP POP SWAP7 POP DUP6 DUP1 SLOAD PUSH2 0x1842 SWAP1 PUSH2 0x22D4 JUMP JUMPDEST DUP1 PUSH1 0x1F ADD PUSH1 0x20 DUP1 SWAP2 DIV MUL PUSH1 0x20 ADD PUSH1 0x40 MLOAD SWAP1 DUP2 ADD PUSH1 0x40 MSTORE DUP1 SWAP3 SWAP2 SWAP1 DUP2 DUP2 MSTORE PUSH1 0x20 ADD DUP3 DUP1 SLOAD PUSH2 0x186E SWAP1 PUSH2 0x22D4 JUMP JUMPDEST DUP1 ISZERO PUSH2 0x18BB JUMPI DUP1 PUSH1 0x1F LT PUSH2 0x1890 JUMPI PUSH2 0x100 DUP1 DUP4 SLOAD DIV MUL DUP4 MSTORE SWAP2 PUSH1 0x20 ADD SWAP2 PUSH2 0x18BB JUMP JUMPDEST DUP3 ADD SWAP2 SWAP1 PUSH1 0x0 MSTORE PUSH1 0x20 PUSH1 0x0 KECCAK256 SWAP1 JUMPDEST DUP2 SLOAD DUP2 MSTORE SWAP1 PUSH1 0x1 ADD SWAP1 PUSH1 0x20 ADD DUP1 DUP4 GT PUSH2 0x189E JUMPI DUP3 SWAP1 SUB PUSH1 0x1F AND DUP3 ADD SWAP2 JUMPDEST POP POP POP POP POP SWAP6 POP DUP5 DUP1 SLOAD PUSH2 0x18CE SWAP1 PUSH2 0x22D4 JUMP JUMPDEST DUP1 PUSH1 0x1F ADD PUSH1 0x20 DUP1 SWAP2 DIV MUL PUSH1 0x20 ADD PUSH1 0x40 MLOAD SWAP1 DUP2 ADD PUSH1 0x40 MSTORE DUP1 SWAP3 SWAP2 SWAP1 DUP2 DUP2 MSTORE PUSH1 0x20 ADD DUP3 DUP1 SLOAD PUSH2 0x18FA SWAP1 PUSH2 0x22D4 JUMP JUMPDEST DUP1 ISZERO PUSH2 0x1947 JUMPI DUP1 PUSH1 0x1F LT PUSH2 0x191C JUMPI PUSH2 0x100 DUP1 DUP4 SLOAD DIV MUL DUP4 MSTORE SWAP2 PUSH1 0x20 ADD SWAP2 PUSH2 0x1947 JUMP JUMPDEST DUP3 ADD SWAP2 SWAP1 PUSH1 0x0 MSTORE PUSH1 0x20 PUSH1 0x0 KECCAK256 SWAP1 JUMPDEST DUP2 SLOAD DUP2 MSTORE SWAP1 PUSH1 0x1 ADD SWAP1 PUSH1 0x20 ADD DUP1 DUP4 GT PUSH2 0x192A JUMPI DUP3 SWAP1 SUB PUSH1 0x1F AND DUP3 ADD SWAP2 JUMPDEST POP POP POP POP POP SWAP5 POP DUP4 DUP1 SLOAD PUSH2 0x195A SWAP1 PUSH2 0x22D4 JUMP JUMPDEST DUP1 PUSH1 0x1F ADD PUSH1 0x20 DUP1 SWAP2 DIV MUL PUSH1 0x20 ADD PUSH1 0x40 MLOAD SWAP1 DUP2 ADD PUSH1 0x40 MSTORE DUP1 SWAP3 SWAP2 SWAP1 DUP2 DUP2 MSTORE PUSH1 0x20 ADD DUP3 DUP1 SLOAD PUSH2 0x1986 SWAP1 PUSH2 0x22D4 JUMP JUMPDEST DUP1 ISZERO PUSH2 0x19D3 JUMPI DUP1 PUSH1 0x1F LT PUSH2 0x19A8 JUMPI PUSH2 0x100 DUP1 DUP4 SLOAD DIV MUL DUP4 MSTORE SWAP2 PUSH1 0x20 ADD SWAP2 PUSH2 0x19D3 JUMP JUMPDEST DUP3 ADD SWAP2 SWAP1 PUSH1 0x0 MSTORE PUSH1 0x20 PUSH1 0x0 KECCAK256 SWAP1 JUMPDEST DUP2 SLOAD DUP2 MSTORE SWAP1 PUSH1 0x1 ADD SWAP1 PUSH1 0x20 ADD DUP1 DUP4 GT PUSH2 0x19B6 JUMPI DUP3 SWAP1 SUB PUSH1 0x1F AND DUP3 ADD SWAP2 JUMPDEST POP POP POP POP POP SWAP4 POP DUP3 DUP1 SLOAD PUSH2 0x19E6 SWAP1 PUSH2 0x22D4 JUMP JUMPDEST DUP1 PUSH1 0x1F ADD PUSH1 0x20 DUP1 SWAP2 DIV MUL PUSH1 0x20 ADD PUSH1 0x40 MLOAD SWAP1 DUP2 ADD PUSH1 0x40 MSTORE DUP1 SWAP3 SWAP2 SWAP1 DUP2 DUP2 MSTORE PUSH1 0x20 ADD DUP3 DUP1 SLOAD PUSH2 0x1A12 SWAP1 PUSH2 0x22D4 JUMP JUMPDEST DUP1 ISZERO PUSH2 0x1A5F JUMPI DUP1 PUSH1 0x1F LT PUSH2 0x1A34 JUMPI PUSH2 0x100 DUP1 DUP4 SLOAD DIV MUL DUP4 MSTORE SWAP2 PUSH1 0x20 ADD SWAP2 PUSH2 0x1A5F JUMP JUMPDEST DUP3 ADD SWAP2 SWAP1 PUSH1 0x0 MSTORE PUSH1 0x20 PUSH1 0x0 KECCAK256 SWAP1 JUMPDEST DUP2 SLOAD DUP2 MSTORE SWAP1 PUSH1 0x1 ADD SWAP1 PUSH1 0x20 ADD DUP1 DUP4 GT PUSH2 0x1A42 JUMPI DUP3 SWAP1 SUB PUSH1 0x1F AND DUP3 ADD SWAP2 JUMPDEST POP POP POP POP POP SWAP3 POP DUP1 DUP1 SLOAD PUSH2 0x1A72 SWAP1 PUSH2 0x22D4 JUMP JUMPDEST DUP1 PUSH1 0x1F ADD PUSH1 0x20 DUP1 SWAP2 DIV MUL PUSH1 0x20 ADD PUSH1 0x40 MLOAD SWAP1 DUP2 ADD PUSH1 0x40 MSTORE DUP1 SWAP3 SWAP2 SWAP1 DUP2 DUP2 MSTORE PUSH1 0x20 ADD DUP3 DUP1 SLOAD PUSH2 0x1A9E SWAP1 PUSH2 0x22D4 JUMP JUMPDEST DUP1 ISZERO PUSH2 0x1AEB JUMPI DUP1 PUSH1 0x1F LT PUSH2 0x1AC0 JUMPI PUSH2 0x100 DUP1 DUP4 SLOAD DIV MUL DUP4 MSTORE SWAP2 PUSH1 0x20 ADD SWAP2 PUSH2 0x1AEB JUMP JUMPDEST DUP3 ADD SWAP2 SWAP1 PUSH1 0x0 MSTORE PUSH1 0x20 PUSH1 0x0 KECCAK256 SWAP1 JUMPDEST DUP2 SLOAD DUP2 MSTORE SWAP1 PUSH1 0x1 ADD SWAP1 PUSH1 0x20 ADD DUP1 DUP4 GT PUSH2 0x1ACE JUMPI DUP3 SWAP1 SUB PUSH1 0x1F AND DUP3 ADD SWAP2 JUMPDEST POP POP POP POP POP SWAP1 POP SWAP7 POP SWAP7 POP SWAP7 POP SWAP7 POP SWAP7 POP SWAP7 POP SWAP7 POP SWAP2 SWAP4 SWAP6 SWAP8 SWAP1 SWAP3 SWAP5 SWAP7 POP JUMP JUMPDEST PUSH1 0x0 DUP1 SLOAD SWAP1 PUSH2 0x100 EXP SWAP1 DIV PUSH20 0xFFFFFFFFFFFFFFFFFFFFFFFFFFFFFFFFFFFFFFFF AND DUP2 JUMP JUMPDEST DUP3 DUP1 SLOAD PUSH2 0x1B3B SWAP1 PUSH2 0x22D4 JUMP JUMPDEST SWAP1 PUSH1 0x0 MSTORE PUSH1 0x20 PUSH1 0x0 KECCAK256 SWAP1 PUSH1 0x1F ADD PUSH1 0x20 SWAP1 DIV DUP2 ADD SWAP3 DUP3 PUSH2 0x1B5D JUMPI PUSH1 0x0 DUP6 SSTORE PUSH2 0x1BA4 JUMP JUMPDEST DUP3 PUSH1 0x1F LT PUSH2 0x1B76 JUMPI DUP1 MLOAD PUSH1 0xFF NOT AND DUP4 DUP1 ADD OR DUP6 SSTORE PUSH2 0x1BA4 JUMP JUMPDEST DUP3 DUP1 ADD PUSH1 0x1 ADD DUP6 SSTORE DUP3 ISZERO PUSH2 0x1BA4 JUMPI SWAP2 DUP3 ADD JUMPDEST DUP3 DUP2 GT ISZERO PUSH2 0x1BA3 JUMPI DUP3 MLOAD DUP3 SSTORE SWAP2 PUSH1 0x20 ADD SWAP2 SWAP1 PUSH1 0x1 ADD SWAP1 PUSH2 0x1B88 JUMP JUMPDEST JUMPDEST POP SWAP1 POP PUSH2 0x1BB1 SWAP2 SWAP1 PUSH2 0x1BB5 JUMP JUMPDEST POP SWAP1 JUMP JUMPDEST JUMPDEST DUP1 DUP3 GT ISZERO PUSH2 0x1BCE JUMPI PUSH1 0x0 DUP2 PUSH1 0x0 SWAP1 SSTORE POP PUSH1 0x1 ADD PUSH2 0x1BB6 JUMP JUMPDEST POP SWAP1 JUMP JUMPDEST PUSH1 0x0 PUSH1 0x40 MLOAD SWAP1 POP SWAP1 JUMP JUMPDEST PUSH1 0x0 DUP1 REVERT JUMPDEST PUSH1 0x0 DUP1 REVERT JUMPDEST PUSH1 0x0 PUSH20 0xFFFFFFFFFFFFFFFFFFFFFFFFFFFFFFFFFFFFFFFF DUP3 AND SWAP1 POP SWAP2 SWAP1 POP JUMP JUMPDEST PUSH1 0x0 PUSH2 0x1C11 DUP3 PUSH2 0x1BE6 JUMP JUMPDEST SWAP1 POP SWAP2 SWAP1 POP JUMP JUMPDEST PUSH2 0x1C21 DUP2 PUSH2 0x1C06 JUMP JUMPDEST DUP2 EQ PUSH2 0x1C2C JUMPI PUSH1 0x0 DUP1 REVERT JUMPDEST POP JUMP JUMPDEST PUSH1 0x0 DUP2 CALLDATALOAD SWAP1 POP PUSH2 0x1C3E DUP2 PUSH2 0x1C18 JUMP JUMPDEST SWAP3 SWAP2 POP POP JUMP JUMPDEST PUSH1 0x0 PUSH1 0x20 DUP3 DUP5 SUB SLT ISZERO PUSH2 0x1C5A JUMPI PUSH2 0x1C59 PUSH2 0x1BDC JUMP JUMPDEST JUMPDEST PUSH1 0x0 PUSH2 0x1C68 DUP5 DUP3 DUP6 ADD PUSH2 0x1C2F JUMP JUMPDEST SWAP2 POP POP SWAP3 SWAP2 POP POP JUMP JUMPDEST PUSH1 0x0 DUP2 SWAP1 POP SWAP2 SWAP1 POP JUMP JUMPDEST PUSH2 0x1C84 DUP2 PUSH2 0x1C71 JUMP JUMPDEST DUP3 MSTORE POP POP JUMP JUMPDEST PUSH1 0x0 DUP2 MLOAD SWAP1 POP SWAP2 SWAP1 POP JUMP JUMPDEST PUSH1 0x0 DUP3 DUP3 MSTORE PUSH1 0x20 DUP3 ADD SWAP1 POP SWAP3 SWAP2 POP POP JUMP JUMPDEST PUSH1 0x0 JUMPDEST DUP4 DUP2 LT ISZERO PUSH2 0x1CC4 JUMPI DUP1 DUP3 ADD MLOAD DUP2 DUP5 ADD MSTORE PUSH1 0x20 DUP2 ADD SWAP1 POP PUSH2 0x1CA9 JUMP JUMPDEST DUP4 DUP2 GT ISZERO PUSH2 0x1CD3 JUMPI PUSH1 0x0 DUP5 DUP5 ADD MSTORE JUMPDEST POP POP POP POP JUMP JUMPDEST PUSH1 0x0 PUSH1 0x1F NOT PUSH1 0x1F DUP4 ADD AND SWAP1 POP SWAP2 SWAP1 POP JUMP JUMPDEST PUSH1 0x0 PUSH2 0x1CF5 DUP3 PUSH2 0x1C8A JUMP JUMPDEST PUSH2 0x1CFF DUP2 DUP6 PUSH2 0x1C95 JUMP JUMPDEST SWAP4 POP PUSH2 0x1D0F DUP2 DUP6 PUSH1 0x20 DUP7 ADD PUSH2 0x1CA6 JUMP JUMPDEST PUSH2 0x1D18 DUP2 PUSH2 0x1CD9 JUMP JUMPDEST DUP5 ADD SWAP2 POP POP SWAP3 SWAP2 POP POP JUMP JUMPDEST PUSH1 0x0 PUSH1 0x40 DUP3 ADD SWAP1 POP PUSH2 0x1D38 PUSH1 0x0 DUP4 ADD DUP6 PUSH2 0x1C7B JUMP JUMPDEST DUP2 DUP2 SUB PUSH1 0x20 DUP4 ADD MSTORE PUSH2 0x1D4A DUP2 DUP5 PUSH2 0x1CEA JUMP JUMPDEST SWAP1 POP SWAP4 SWAP3 POP POP POP JUMP JUMPDEST PUSH1 0x0 DUP1 REVERT JUMPDEST PUSH1 0x0 DUP1 REVERT JUMPDEST PUSH32 0x4E487B7100000000000000000000000000000000000000000000000000000000 PUSH1 0x0 MSTORE PUSH1 0x41 PUSH1 0x4 MSTORE PUSH1 0x24 PUSH1 0x0 REVERT JUMPDEST PUSH2 0x1D95 DUP3 PUSH2 0x1CD9 JUMP JUMPDEST DUP2 ADD DUP2 DUP2 LT PUSH8 0xFFFFFFFFFFFFFFFF DUP3 GT OR ISZERO PUSH2 0x1DB4 JUMPI PUSH2 0x1DB3 PUSH2 0x1D5D JUMP JUMPDEST JUMPDEST DUP1 PUSH1 0x40 MSTORE POP POP POP JUMP JUMPDEST PUSH1 0x0 PUSH2 0x1DC7 PUSH2 0x1BD2 JUMP JUMPDEST SWAP1 POP PUSH2 0x1DD3 DUP3 DUP3 PUSH2 0x1D8C JUMP JUMPDEST SWAP2 SWAP1 POP JUMP JUMPDEST PUSH1 0x0 PUSH8 0xFFFFFFFFFFFFFFFF DUP3 GT ISZERO PUSH2 0x1DF3 JUMPI PUSH2 0x1DF2 PUSH2 0x1D5D JUMP JUMPDEST JUMPDEST PUSH2 0x1DFC DUP3 PUSH2 0x1CD9 JUMP JUMPDEST SWAP1 POP PUSH1 0x20 DUP2 ADD SWAP1 POP SWAP2 SWAP1 POP JUMP JUMPDEST DUP3 DUP2 DUP4 CALLDATACOPY PUSH1 0x0 DUP4 DUP4 ADD MSTORE POP POP POP JUMP JUMPDEST PUSH1 0x0 PUSH2 0x1E2B PUSH2 0x1E26 DUP5 PUSH2 0x1DD8 JUMP JUMPDEST PUSH2 0x1DBD JUMP JUMPDEST SWAP1 POP DUP3 DUP2 MSTORE PUSH1 0x20 DUP2 ADD DUP5 DUP5 DUP5 ADD GT ISZERO PUSH2 0x1E47 JUMPI PUSH2 0x1E46 PUSH2 0x1D58 JUMP JUMPDEST JUMPDEST PUSH2 0x1E52 DUP5 DUP3 DUP6 PUSH2 0x1E09 JUMP JUMPDEST POP SWAP4 SWAP3 POP POP POP JUMP JUMPDEST PUSH1 0x0 DUP3 PUSH1 0x1F DUP4 ADD SLT PUSH2 0x1E6F JUMPI PUSH2 0x1E6E PUSH2 0x1D53 JUMP JUMPDEST JUMPDEST DUP2 CALLDATALOAD PUSH2 0x1E7F DUP5 DUP3 PUSH1 0x20 DUP7 ADD PUSH2 0x1E18 JUMP JUMPDEST SWAP2 POP POP SWAP3 SWAP2 POP POP JUMP JUMPDEST PUSH1 0x0 PUSH1 0x20 DUP3 DUP5 SUB SLT ISZERO PUSH2 0x1E9E JUMPI PUSH2 0x1E9D PUSH2 0x1BDC JUMP JUMPDEST JUMPDEST PUSH1 0x0 DUP3 ADD CALLDATALOAD PUSH8 0xFFFFFFFFFFFFFFFF DUP2 GT ISZERO PUSH2 0x1EBC JUMPI PUSH2 0x1EBB PUSH2 0x1BE1 JUMP JUMPDEST JUMPDEST PUSH2 0x1EC8 DUP5 DUP3 DUP6 ADD PUSH2 0x1E5A JUMP JUMPDEST SWAP2 POP POP SWAP3 SWAP2 POP POP JUMP JUMPDEST PUSH2 0x1EDA DUP2 PUSH2 0x1C71 JUMP JUMPDEST DUP2 EQ PUSH2 0x1EE5 JUMPI PUSH1 0x0 DUP1 REVERT JUMPDEST POP JUMP JUMPDEST PUSH1 0x0 DUP2 CALLDATALOAD SWAP1 POP PUSH2 0x1EF7 DUP2 PUSH2 0x1ED1 JUMP JUMPDEST SWAP3 SWAP2 POP POP JUMP JUMPDEST PUSH1 0x0 DUP1 PUSH1 0x0 DUP1 PUSH1 0x0 DUP1 PUSH1 0x0 DUP1 PUSH1 0x0 DUP1 PUSH1 0x0 PUSH2 0x160 DUP13 DUP15 SUB SLT ISZERO PUSH2 0x1F23 JUMPI PUSH2 0x1F22 PUSH2 0x1BDC JUMP JUMPDEST JUMPDEST PUSH1 0x0 DUP13 ADD CALLDATALOAD PUSH8 0xFFFFFFFFFFFFFFFF DUP2 GT ISZERO PUSH2 0x1F41 JUMPI PUSH2 0x1F40 PUSH2 0x1BE1 JUMP JUMPDEST JUMPDEST PUSH2 0x1F4D DUP15 DUP3 DUP16 ADD PUSH2 0x1E5A JUMP JUMPDEST SWAP12 POP POP PUSH1 0x20 DUP13 ADD CALLDATALOAD PUSH8 0xFFFFFFFFFFFFFFFF DUP2 GT ISZERO PUSH2 0x1F6E JUMPI PUSH2 0x1F6D PUSH2 0x1BE1 JUMP JUMPDEST JUMPDEST PUSH2 0x1F7A DUP15 DUP3 DUP16 ADD PUSH2 0x1E5A JUMP JUMPDEST SWAP11 POP POP PUSH1 0x40 DUP13 ADD CALLDATALOAD PUSH8 0xFFFFFFFFFFFFFFFF DUP2 GT ISZERO PUSH2 0x1F9B JUMPI PUSH2 0x1F9A PUSH2 0x1BE1 JUMP JUMPDEST JUMPDEST PUSH2 0x1FA7 DUP15 DUP3 DUP16 ADD PUSH2 0x1E5A JUMP JUMPDEST SWAP10 POP POP PUSH1 0x60 DUP13 ADD CALLDATALOAD PUSH8 0xFFFFFFFFFFFFFFFF DUP2 GT ISZERO PUSH2 0x1FC8 JUMPI PUSH2 0x1FC7 PUSH2 0x1BE1 JUMP JUMPDEST JUMPDEST PUSH2 0x1FD4 DUP15 DUP3 DUP16 ADD PUSH2 0x1E5A JUMP JUMPDEST SWAP9 POP POP PUSH1 0x80 DUP13 ADD CALLDATALOAD PUSH8 0xFFFFFFFFFFFFFFFF DUP2 GT ISZERO PUSH2 0x1FF5 JUMPI PUSH2 0x1FF4 PUSH2 0x1BE1 JUMP JUMPDEST JUMPDEST PUSH2 0x2001 DUP15 DUP3 DUP16 ADD PUSH2 0x1E5A JUMP JUMPDEST SWAP8 POP POP PUSH1 0xA0 PUSH2 0x2012 DUP15 DUP3 DUP16 ADD PUSH2 0x1EE8 JUMP JUMPDEST SWAP7 POP POP PUSH1 0xC0 DUP13 ADD CALLDATALOAD PUSH8 0xFFFFFFFFFFFFFFFF DUP2 GT ISZERO PUSH2 0x2033 JUMPI PUSH2 0x2032 PUSH2 0x1BE1 JUMP JUMPDEST JUMPDEST PUSH2 0x203F DUP15 DUP3 DUP16 ADD PUSH2 0x1E5A JUMP JUMPDEST SWAP6 POP POP PUSH1 0xE0 PUSH2 0x2050 DUP15 DUP3 DUP16 ADD PUSH2 0x1EE8 JUMP JUMPDEST SWAP5 POP POP PUSH2 0x100 DUP13 ADD CALLDATALOAD PUSH8 0xFFFFFFFFFFFFFFFF DUP2 GT ISZERO PUSH2 0x2072 JUMPI PUSH2 0x2071 PUSH2 0x1BE1 JUMP JUMPDEST JUMPDEST PUSH2 0x207E DUP15 DUP3 DUP16 ADD PUSH2 0x1E5A JUMP JUMPDEST SWAP4 POP POP PUSH2 0x120 DUP13 ADD CALLDATALOAD PUSH8 0xFFFFFFFFFFFFFFFF DUP2 GT ISZERO PUSH2 0x20A0 JUMPI PUSH2 0x209F PUSH2 0x1BE1 JUMP JUMPDEST JUMPDEST PUSH2 0x20AC DUP15 DUP3 DUP16 ADD PUSH2 0x1E5A JUMP JUMPDEST SWAP3 POP POP PUSH2 0x140 DUP13 ADD CALLDATALOAD PUSH8 0xFFFFFFFFFFFFFFFF DUP2 GT ISZERO PUSH2 0x20CE JUMPI PUSH2 0x20CD PUSH2 0x1BE1 JUMP JUMPDEST JUMPDEST PUSH2 0x20DA DUP15 DUP3 DUP16 ADD PUSH2 0x1E5A JUMP JUMPDEST SWAP2 POP POP SWAP3 SWAP6 SWAP9 SWAP12 POP SWAP3 SWAP6 SWAP9 SWAP12 SWAP1 SWAP4 SWAP7 SWAP10 POP JUMP JUMPDEST PUSH2 0x20F6 DUP2 PUSH2 0x1C06 JUMP JUMPDEST DUP3 MSTORE POP POP JUMP JUMPDEST PUSH1 0x0 PUSH1 0x20 DUP3 ADD SWAP1 POP PUSH2 0x2111 PUSH1 0x0 DUP4 ADD DUP5 PUSH2 0x20ED JUMP JUMPDEST SWAP3 SWAP2 POP POP JUMP JUMPDEST PUSH1 0x0 PUSH1 0x40 DUP3 ADD SWAP1 POP DUP2 DUP2 SUB PUSH1 0x0 DUP4 ADD MSTORE PUSH2 0x2131 DUP2 DUP6 PUSH2 0x1CEA JUMP JUMPDEST SWAP1 POP DUP2 DUP2 SUB PUSH1 0x20 DUP4 ADD MSTORE PUSH2 0x2145 DUP2 DUP5 PUSH2 0x1CEA JUMP JUMPDEST SWAP1 POP SWAP4 SWAP3 POP POP POP JUMP JUMPDEST PUSH1 0x0 PUSH2 0x120 DUP3 ADD SWAP1 POP DUP2 DUP2 SUB PUSH1 0x0 DUP4 ADD MSTORE PUSH2 0x2169 DUP2 DUP13 PUSH2 0x1CEA JUMP JUMPDEST SWAP1 POP DUP2 DUP2 SUB PUSH1 0x20 DUP4 ADD MSTORE PUSH2 0x217D DUP2 DUP12 PUSH2 0x1CEA JUMP JUMPDEST SWAP1 POP DUP2 DUP2 SUB PUSH1 0x40 DUP4 ADD MSTORE PUSH2 0x2191 DUP2 DUP11 PUSH2 0x1CEA JUMP JUMPDEST SWAP1 POP DUP2 DUP2 SUB PUSH1 0x60 DUP4 ADD MSTORE PUSH2 0x21A5 DUP2 DUP10 PUSH2 0x1CEA JUMP JUMPDEST SWAP1 POP DUP2 DUP2 SUB PUSH1 0x80 DUP4 ADD MSTORE PUSH2 0x21B9 DUP2 DUP9 PUSH2 0x1CEA JUMP JUMPDEST SWAP1 POP PUSH2 0x21C8 PUSH1 0xA0 DUP4 ADD DUP8 PUSH2 0x1C7B JUMP JUMPDEST DUP2 DUP2 SUB PUSH1 0xC0 DUP4 ADD MSTORE PUSH2 0x21DA DUP2 DUP7 PUSH2 0x1CEA JUMP JUMPDEST SWAP1 POP PUSH2 0x21E9 PUSH1 0xE0 DUP4 ADD DUP6 PUSH2 0x1C7B JUMP JUMPDEST DUP2 DUP2 SUB PUSH2 0x100 DUP4 ADD MSTORE PUSH2 0x21FC DUP2 DUP5 PUSH2 0x1CEA JUMP JUMPDEST SWAP1 POP SWAP11 SWAP10 POP POP POP POP POP POP POP POP POP POP JUMP JUMPDEST PUSH1 0x0 PUSH1 0xE0 DUP3 ADD SWAP1 POP DUP2 DUP2 SUB PUSH1 0x0 DUP4 ADD MSTORE PUSH2 0x2226 DUP2 DUP11 PUSH2 0x1CEA JUMP JUMPDEST SWAP1 POP DUP2 DUP2 SUB PUSH1 0x20 DUP4 ADD MSTORE PUSH2 0x223A DUP2 DUP10 PUSH2 0x1CEA JUMP JUMPDEST SWAP1 POP DUP2 DUP2 SUB PUSH1 0x40 DUP4 ADD MSTORE PUSH2 0x224E DUP2 DUP9 PUSH2 0x1CEA JUMP JUMPDEST SWAP1 POP DUP2 DUP2 SUB PUSH1 0x60 DUP4 ADD MSTORE PUSH2 0x2262 DUP2 DUP8 PUSH2 0x1CEA JUMP JUMPDEST SWAP1 POP DUP2 DUP2 SUB PUSH1 0x80 DUP4 ADD MSTORE PUSH2 0x2276 DUP2 DUP7 PUSH2 0x1CEA JUMP JUMPDEST SWAP1 POP PUSH2 0x2285 PUSH1 0xA0 DUP4 ADD DUP6 PUSH2 0x1C7B JUMP JUMPDEST DUP2 DUP2 SUB PUSH1 0xC0 DUP4 ADD MSTORE PUSH2 0x2297 DUP2 DUP5 PUSH2 0x1CEA JUMP JUMPDEST SWAP1 POP SWAP9 SWAP8 POP POP POP POP POP POP POP POP JUMP JUMPDEST PUSH32 0x4E487B7100000000000000000000000000000000000000000000000000000000 PUSH1 0x0 MSTORE PUSH1 0x22 PUSH1 0x4 MSTORE PUSH1 0x24 PUSH1 0x0 REVERT JUMPDEST PUSH1 0x0 PUSH1 0x2 DUP3 DIV SWAP1 POP PUSH1 0x1 DUP3 AND DUP1 PUSH2 0x22EC JUMPI PUSH1 0x7F DUP3 AND SWAP2 POP JUMPDEST PUSH1 0x20 DUP3 LT DUP2 EQ ISZERO PUSH2 0x2300 JUMPI PUSH2 0x22FF PUSH2 0x22A5 JUMP JUMPDEST JUMPDEST POP SWAP2 SWAP1 POP JUMP INVALID LOG2 PUSH5 0x6970667358 0x22 SLT KECCAK256 0xDF 0xDA DUP16 RETURNDATASIZE DUP8 KECCAK256 LOG1 0xE6 0xD9 0x4A 0x24 0xAA 0xD9 PUSH12 0x44AEF979ABC23C7DA56178C2 0x26 SWAP7 DUP4 0xE5 PUSH5 0x4464736F6C PUSH4 0x4300080B STOP CALLER "},"gasEstimates":{"creation":{"codeDepositCost":"1804000","executionCost":"infinite","totalCost":"infinite"},"external":{"addUser(string,string,string,string,string,uint256,string,uint256,string,string,string)":"infinite","approveRequest(address)":"55571","assigned()":"2558","createRequest(string)":"infinite","getAadharPan(address)":"infinite","getAadharPanHash(address)":"infinite","getDeployedUsers()":"2588","getUserDetails()":"infinite","getparticularUser(address)":"infinite","manager()":"2603","usersAddress()":"2621"}},"methodIdentifiers":{"addUser(string,string,string,string,string,uint256,string,uint256,string,string,string)":"2ee50a79","approveRequest(address)":"061dff9a","assigned()":"adb4d990","createRequest(string)":"1b146ecf","getAadharPan(address)":"091bac16","getAadharPanHash(address)":"509fda0e","getDeployedUsers()":"ea00962f","getUserDetails()":"942886be","getparticularUser(address)":"ede3a670","manager()":"481c6a75","usersAddress()":"f203c19d"}},"storageLayout":{"storage":[{"astId":134,"contract":"KYC.sol:Userdef","label":"usersAddress","offset":0,"slot":"0","type":"t_address"},{"astId":139,"contract":"KYC.sol:Userdef","label":"users","offset":0,"slot":"1","type":"t_mapping(t_address,t_struct(User)132_storage)"},{"astId":141,"contract":"KYC.sol:Userdef","label":"manager","offset":0,"slot":"2","type":"t_address"},{"astId":143,"contract":"KYC.sol:Userdef","label":"assigned","offset":0,"slot":"3","type":"t_address"},{"astId":507,"contract":"KYC.sol:Userdef","label":"requests","offset":0,"slot":"4","type":"t_struct(Request)504_storage"}],"types":{"t_address":{"encoding":"inplace","label":"address","numberOfBytes":"20"},"t_bool":{"encoding":"inplace","label":"bool","numberOfBytes":"1"},"t_mapping(t_address,t_struct(User)132_storage)":{"encoding":"mapping","key":"t_address","label":"mapping(address => struct Userdef.User)","numberOfBytes":"32","value":"t_struct(User)132_storage"},"t_string_storage":{"encoding":"bytes","label":"string","numberOfBytes":"32"},"t_struct(Request)504_storage":{"encoding":"inplace","label":"struct Userdef.Request","members":[{"astId":499,"contract":"KYC.sol:Userdef","label":"description","offset":0,"slot":"0","type":"t_string_storage"},{"astId":501,"contract":"KYC.sol:Userdef","label":"recepient","offset":0,"slot":"1","type":"t_address"},{"astId":503,"contract":"KYC.sol:Userdef","label":"complete","offset":20,"slot":"1","type":"t_bool"}],"numberOfBytes":"64"},"t_struct(User)132_storage":{"encoding":"inplace","label":"struct Userdef.User","members":[{"astId":109,"contract":"KYC.sol:Userdef","label":"name","offset":0,"slot":"0","type":"t_string_storage"},{"astId":111,"contract":"KYC.sol:Userdef","label":"father","offset":0,"slot":"1","type":"t_string_storage"},{"astId":113,"contract":"KYC.sol:Userdef","label":"mother","offset":0,"slot":"2","type":"t_string_storage"},{"astId":115,"contract":"KYC.sol:Userdef","label":"birthdate","offset":0,"slot":"3","type":"t_string_storage"},{"astId":117,"contract":"KYC.sol:Userdef","label":"add","offset":0,"slot":"4","type":"t_string_storage"},{"astId":119,"contract":"KYC.sol:Userdef","label":"mob","offset":0,"slot":"5","type":"t_uint256"},{"astId":121,"contract":"KYC.sol:Userdef","label":"email","offset":0,"slot":"6","type":"t_string_storage"},{"astId":123,"contract":"KYC.sol:Userdef","label":"aadhar","offset":0,"slot":"7","type":"t_uint256"},{"astId":125,"contract":"KYC.sol:Userdef","label":"pan","offset":0,"slot":"8","type":"t_string_storage"},{"astId":127,"contract":"KYC.sol:Userdef","label":"set","offset":0,"slot":"9","type":"t_bool"},{"astId":129,"contract":"KYC.sol:Userdef","label":"aadharipfsHash","offset":0,"slot":"10","type":"t_string_storage"},{"astId":131,"contract":"KYC.sol:Userdef","label":"panipfsHash","offset":0,"slot":"11","type":"t_string_storage"}],"numberOfBytes":"384"},"t_uint256":{"encoding":"inplace","label":"uint256","numberOfBytes":"32"}}},"userdoc":{"kind":"user","methods":{},"version":1}}